{
  "abi": [
    {
      "inputs": [],
      "stateMutability": "nonpayable",
      "type": "constructor"
    },
    {
      "inputs": [
        {
          "internalType": "address",
          "name": "authority",
          "type": "address"
        }
      ],
      "name": "AccessManagedInvalidAuthority",
      "type": "error"
    },
    {
      "inputs": [
        {
          "internalType": "address",
          "name": "caller",
          "type": "address"
        },
        {
          "internalType": "uint32",
          "name": "delay",
          "type": "uint32"
        }
      ],
      "name": "AccessManagedRequiredDelay",
      "type": "error"
    },
    {
      "inputs": [
        {
          "internalType": "address",
          "name": "caller",
          "type": "address"
        }
      ],
      "name": "AccessManagedUnauthorized",
      "type": "error"
    },
    {
      "inputs": [],
      "name": "AddressMismatch",
      "type": "error"
    },
    {
      "inputs": [],
      "name": "BeaconNotSet",
      "type": "error"
    },
    {
      "inputs": [],
      "name": "CurveFactoryNotSet",
      "type": "error"
    },
    {
      "inputs": [],
      "name": "DeploymentFailed",
      "type": "error"
    },
    {
      "inputs": [],
      "name": "ExpiredPT",
      "type": "error"
    },
    {
      "inputs": [],
      "name": "FailedToFetchCurveFactoryAddress",
      "type": "error"
    },
    {
      "inputs": [],
      "name": "InvalidInitialization",
      "type": "error"
    },
    {
      "inputs": [],
      "name": "NotInitializing",
      "type": "error"
    },
    {
      "inputs": [],
      "name": "UnregisteredPT",
      "type": "error"
    },
    {
      "inputs": [],
      "name": "ZeroAddressError",
      "type": "error"
    },
    {
      "anonymous": false,
      "inputs": [
        {
          "indexed": false,
          "internalType": "address",
          "name": "authority",
          "type": "address"
        }
      ],
      "name": "AuthorityUpdated",
      "type": "event"
    },
    {
      "anonymous": false,
      "inputs": [
        {
          "indexed": true,
          "internalType": "address",
          "name": "curveAddressProvider",
          "type": "address"
        }
      ],
      "name": "CurveAddressProviderSet",
      "type": "event"
    },
    {
      "anonymous": false,
      "inputs": [
        {
          "indexed": true,
          "internalType": "address",
          "name": "newFactory",
          "type": "address"
        }
      ],
      "name": "CurveFactoryChanged",
      "type": "event"
    },
    {
      "anonymous": false,
      "inputs": [
        {
          "indexed": true,
          "internalType": "address",
          "name": "poolAddress",
          "type": "address"
        },
        {
          "indexed": false,
          "internalType": "address",
          "name": "ibt",
          "type": "address"
        },
        {
          "indexed": false,
          "internalType": "address",
          "name": "pt",
          "type": "address"
        }
      ],
      "name": "CurvePoolDeployed",
      "type": "event"
    },
    {
      "anonymous": false,
      "inputs": [
        {
          "indexed": false,
          "internalType": "uint64",
          "name": "version",
          "type": "uint64"
        }
      ],
      "name": "Initialized",
      "type": "event"
    },
    {
      "anonymous": false,
      "inputs": [
        {
          "indexed": true,
          "internalType": "address",
          "name": "lpv",
          "type": "address"
        },
        {
          "indexed": true,
          "internalType": "address",
          "name": "curvePool",
          "type": "address"
        },
        {
          "indexed": true,
          "internalType": "address",
          "name": "pt",
          "type": "address"
        }
      ],
      "name": "LPVDeployed",
      "type": "event"
    },
    {
      "anonymous": false,
      "inputs": [
        {
          "indexed": true,
          "internalType": "address",
          "name": "_pt",
          "type": "address"
        },
        {
          "indexed": true,
          "internalType": "address",
          "name": "_poolCreator",
          "type": "address"
        }
      ],
      "name": "PTDeployed",
      "type": "event"
    },
    {
      "anonymous": false,
      "inputs": [
        {
          "indexed": true,
          "internalType": "address",
          "name": "oldRegistry",
          "type": "address"
        },
        {
          "indexed": true,
          "internalType": "address",
          "name": "newRegistry",
          "type": "address"
        }
      ],
      "name": "RegistryUpdated",
      "type": "event"
    },
    {
      "inputs": [],
      "name": "authority",
      "outputs": [
        {
          "internalType": "address",
          "name": "",
          "type": "address"
        }
      ],
      "stateMutability": "view",
      "type": "function"
    },
    {
      "inputs": [
        {
          "internalType": "address",
          "name": "_ibt",
          "type": "address"
        },
        {
          "internalType": "uint256",
          "name": "_duration",
          "type": "uint256"
        },
        {
          "components": [
            {
              "internalType": "uint256",
              "name": "A",
              "type": "uint256"
            },
            {
              "internalType": "uint256",
              "name": "gamma",
              "type": "uint256"
            },
            {
              "internalType": "uint256",
              "name": "mid_fee",
              "type": "uint256"
            },
            {
              "internalType": "uint256",
              "name": "out_fee",
              "type": "uint256"
            },
            {
              "internalType": "uint256",
              "name": "allowed_extra_profit",
              "type": "uint256"
            },
            {
              "internalType": "uint256",
              "name": "fee_gamma",
              "type": "uint256"
            },
            {
              "internalType": "uint256",
              "name": "adjustment_step",
              "type": "uint256"
            },
            {
              "internalType": "uint256",
              "name": "admin_fee",
              "type": "uint256"
            },
            {
              "internalType": "uint256",
              "name": "ma_half_time",
              "type": "uint256"
            },
            {
              "internalType": "uint256",
              "name": "initial_price",
              "type": "uint256"
            }
          ],
          "internalType": "struct IFactory.CurvePoolParams",
          "name": "curvePoolParams",
          "type": "tuple"
        }
      ],
      "name": "deployAll",
      "outputs": [
        {
          "internalType": "address",
          "name": "pt",
          "type": "address"
        },
        {
          "internalType": "address",
          "name": "curvePool",
          "type": "address"
        },
        {
          "internalType": "address",
          "name": "lpv",
          "type": "address"
        }
      ],
      "stateMutability": "nonpayable",
      "type": "function"
    },
    {
      "inputs": [
        {
          "internalType": "address",
          "name": "_pt",
          "type": "address"
        },
        {
          "components": [
            {
              "internalType": "uint256",
              "name": "A",
              "type": "uint256"
            },
            {
              "internalType": "uint256",
              "name": "gamma",
              "type": "uint256"
            },
            {
              "internalType": "uint256",
              "name": "mid_fee",
              "type": "uint256"
            },
            {
              "internalType": "uint256",
              "name": "out_fee",
              "type": "uint256"
            },
            {
              "internalType": "uint256",
              "name": "allowed_extra_profit",
              "type": "uint256"
            },
            {
              "internalType": "uint256",
              "name": "fee_gamma",
              "type": "uint256"
            },
            {
              "internalType": "uint256",
              "name": "adjustment_step",
              "type": "uint256"
            },
            {
              "internalType": "uint256",
              "name": "admin_fee",
              "type": "uint256"
            },
            {
              "internalType": "uint256",
              "name": "ma_half_time",
              "type": "uint256"
            },
            {
              "internalType": "uint256",
              "name": "initial_price",
              "type": "uint256"
            }
          ],
          "internalType": "struct IFactory.CurvePoolParams",
          "name": "curvePoolParams",
          "type": "tuple"
        }
      ],
      "name": "deployCurvePool",
      "outputs": [
        {
          "internalType": "address",
          "name": "curvePoolAddr",
          "type": "address"
        }
      ],
      "stateMutability": "nonpayable",
      "type": "function"
    },
    {
      "inputs": [
        {
          "internalType": "address",
          "name": "_curvePool",
          "type": "address"
        }
      ],
      "name": "deployLPV",
      "outputs": [
        {
          "internalType": "address",
          "name": "lpv",
          "type": "address"
        }
      ],
      "stateMutability": "nonpayable",
      "type": "function"
    },
    {
      "inputs": [
        {
          "internalType": "address",
          "name": "_ibt",
          "type": "address"
        },
        {
          "internalType": "uint256",
          "name": "_duration",
          "type": "uint256"
        }
      ],
      "name": "deployPT",
      "outputs": [
        {
          "internalType": "address",
          "name": "pt",
          "type": "address"
        }
      ],
      "stateMutability": "nonpayable",
      "type": "function"
    },
    {
      "inputs": [],
      "name": "getCurveAddressProvider",
      "outputs": [
        {
          "internalType": "address",
          "name": "",
          "type": "address"
        }
      ],
      "stateMutability": "view",
      "type": "function"
    },
    {
      "inputs": [],
      "name": "getCurveFactory",
      "outputs": [
        {
          "internalType": "address",
          "name": "",
          "type": "address"
        }
      ],
      "stateMutability": "view",
      "type": "function"
    },
    {
      "inputs": [
        {
          "internalType": "address",
          "name": "curvePool",
          "type": "address"
        }
      ],
      "name": "getInitialPrice",
      "outputs": [
        {
          "internalType": "uint256",
          "name": "",
          "type": "uint256"
        }
      ],
      "stateMutability": "view",
      "type": "function"
    },
    {
      "inputs": [],
      "name": "getRegistry",
      "outputs": [
        {
          "internalType": "address",
          "name": "",
          "type": "address"
        }
      ],
      "stateMutability": "view",
      "type": "function"
    },
    {
      "inputs": [
        {
          "internalType": "address",
          "name": "_registry",
          "type": "address"
        },
        {
          "internalType": "address",
          "name": "_initialAuthority",
          "type": "address"
        }
      ],
      "name": "initialize",
      "outputs": [],
      "stateMutability": "nonpayable",
      "type": "function"
    },
    {
      "inputs": [],
      "name": "isConsumingScheduledOp",
      "outputs": [
        {
          "internalType": "bytes4",
          "name": "",
          "type": "bytes4"
        }
      ],
      "stateMutability": "view",
      "type": "function"
    },
    {
      "inputs": [
        {
          "internalType": "address",
          "name": "newAuthority",
          "type": "address"
        }
      ],
      "name": "setAuthority",
      "outputs": [],
      "stateMutability": "nonpayable",
      "type": "function"
    },
    {
      "inputs": [
        {
          "internalType": "address",
          "name": "_curveAddressProvider",
          "type": "address"
        }
      ],
      "name": "setCurveAddressProvider",
      "outputs": [],
      "stateMutability": "nonpayable",
      "type": "function"
    },
    {
      "inputs": [
        {
          "internalType": "address",
          "name": "_newRegistry",
          "type": "address"
        }
      ],
      "name": "setRegistry",
      "outputs": [],
      "stateMutability": "nonpayable",
      "type": "function"
    }
  ],
  "bytecode": {
    "object": "0x608060405234801561001057600080fd5b5061001961001e565b6100d0565b7ff0c57e16840df040f15088dc2f81fe391c3923bec73e23a9662efc9c229c6a00805468010000000000000000900460ff161561006e5760405163f92ee8a960e01b815260040160405180910390fd5b80546001600160401b03908116146100cd5780546001600160401b0319166001600160401b0390811782556040519081527fc7f505b2f371ae2175ee4913f4499e1f2633a7b5936321eed1cdaeb6115181d29060200160405180910390a15b50565b6126bc80620000e06000396000f3fe60806040523480156200001157600080fd5b5060043610620000fd5760003560e01c80638fb360371162000097578063b43aa54c116200006e578063b43aa54c1462000229578063bc9a9604146200026b578063bf7e214f1462000282578063ec248d7c146200028c57600080fd5b80638fb3603714620001d75780639bc3d09814620001fb578063a91ee0dc146200021257600080fd5b806359696e1611620000d857806359696e16146200018a5780635ab1bd53146200019c5780637a9e5e4b14620001ae5780638521c9b914620001c557600080fd5b806313e042af1462000102578063240132131462000136578063485cc9551462000171575b600080fd5b620001196200011336600462001cee565b620002a3565b6040516001600160a01b0390911681526020015b60405180910390f35b620001626200014736600462001cee565b6001600160a01b031660009081526003602052604090205490565b6040519081526020016200012d565b620001886200018236600462001d15565b620006ce565b005b6001546001600160a01b031662000119565b6000546001600160a01b031662000119565b62000188620001bf36600462001cee565b620007f2565b6002546001600160a01b031662000119565b620001e162000885565b6040516001600160e01b031990911681526020016200012d565b620001886200020c36600462001cee565b620008c1565b620001886200022336600462001cee565b62000954565b620002406200023a36600462001d6d565b620009e2565b604080516001600160a01b03948516815292841660208401529216918101919091526060016200012d565b620001196200027c36600462001db2565b620010a4565b62000119620012ef565b620001196200029d36600462001de1565b6200130c565b600080546040805163db52aa2360e01b8152905183926001600160a01b03169163db52aa239160048083019260209291908290030181865afa158015620002ee573d6000803e3d6000fd5b505050506040513d601f19601f8201168201806040525081019062000314919062001e1d565b90506001600160a01b0381166200033e5760405163773aae1f60e11b815260040160405180910390fd5b60006200034a620012ef565b604080516001600160a01b038781166024830152831660448083019190915282518083039091018152606490910182526020810180516001600160e01b031663485cc95560e01b17905290519192509083908290620003a99062001cac565b620003b692919062001e63565b604051809103906000f080158015620003d3573d6000803e3d6000fd5b5060405163c661065760e01b8152600160048201529094506000906001600160a01b0387169063c661065790602401602060405180830381865afa15801562000420573d6000803e3d6000fd5b505050506040513d601f19601f8201168201806040525081019062000446919062001e1d565b60005460405163f5e306f760e01b81526001600160a01b03808416600483015292935091169063f5e306f790602401602060405180830381865afa15801562000493573d6000803e3d6000fd5b505050506040513d601f19601f82011682018060405250810190620004b9919062001ebd565b620004d75760405163ec59a68f60e01b815260040160405180910390fd5b806001600160a01b0316866001600160a01b0316866001600160a01b03167ffac2f7e74195090052d5b79e99f8c60d33b076bdc7f81c1e39a569e7725dc1f660405160405180910390a460005460405163c7a9037560e01b81526001600160a01b03838116600483015287811660248301529091169063c7a9037590604401600060405180830381600087803b1580156200057157600080fd5b505af115801562000586573d6000803e3d6000fd5b505060405163f2fde38b60e01b81523360048201526001600160a01b038816925063f2fde38b9150602401600060405180830381600087803b158015620005cc57600080fd5b505af1158015620005e1573d6000803e3d6000fd5b50505050826001600160a01b03166308d6122d86620005ff6200154b565b60026040518463ffffffff1660e01b8152600401620006219392919062001edb565b600060405180830381600087803b1580156200063c57600080fd5b505af115801562000651573d6000803e3d6000fd5b50505050826001600160a01b03166308d6122d866200066f620015e6565b60056040518463ffffffff1660e01b8152600401620006919392919062001edb565b600060405180830381600087803b158015620006ac57600080fd5b505af1158015620006c1573d6000803e3d6000fd5b5050505050505050919050565b7ff0c57e16840df040f15088dc2f81fe391c3923bec73e23a9662efc9c229c6a008054600160401b810460ff16159067ffffffffffffffff16600081158015620007155750825b905060008267ffffffffffffffff166001148015620007335750303b155b90508115801562000742575080155b15620007615760405163f92ee8a960e01b815260040160405180910390fd5b845467ffffffffffffffff1916600117855583156200078c57845460ff60401b1916600160401b1785555b620007978662001663565b620007a28762000954565b8315620007e957845460ff60401b19168555604051600181527fc7f505b2f371ae2175ee4913f4499e1f2633a7b5936321eed1cdaeb6115181d29060200160405180910390a15b50505050505050565b33620007fd620012ef565b6001600160a01b0316816001600160a01b0316146200083e5760405162d1953b60e31b81526001600160a01b03821660048201526024015b60405180910390fd5b816001600160a01b03163b60000362000876576040516361798f2f60e11b81526001600160a01b038316600482015260240162000835565b620008818262001678565b5050565b60008051602062002667833981519152805460009190600160a01b900460ff16620008b2576000620008bb565b638fb3603760e01b5b91505090565b620008d0335b600036620016da565b6001600160a01b038116620008f857604051633efa09af60e01b815260040160405180910390fd5b6040516001600160a01b038216907f48595b0c6ad20fb5dc4bbce6134112d1c63908e36de330ff3ae2588af19fa9ea90600090a2600180546001600160a01b0319166001600160a01b03831617905562000951620017f3565b50565b6200095f33620008c7565b6001600160a01b0381166200098757604051633efa09af60e01b815260040160405180910390fd5b600080546040516001600160a01b03808516939216917f482b97c53e48ffa324a976e2738053e9aff6eee04d8aac63b10e19411d869b8291a3600080546001600160a01b0319166001600160a01b0392909216919091179055565b60008060008060008054906101000a90046001600160a01b03166001600160a01b03166304cf46c76040518163ffffffff1660e01b8152600401602060405180830381865afa15801562000a3a573d6000803e3d6000fd5b505050506040513d601f19601f8201168201806040525081019062000a60919062001e1d565b90506001600160a01b03811662000a8a5760405163773aae1f60e11b815260040160405180910390fd5b600062000a96620012ef565b604080516001600160a01b038b81166024830152604482018b9052831660648083019190915282518083039091018152608490910182526020810180516001600160e01b031663c350a1b560e01b1790529051919250908390829062000afc9062001cac565b62000b0992919062001e63565b604051809103906000f08015801562000b26573d6000803e3d6000fd5b5060405190965033906001600160a01b038816907fcf50c3e7162cc35f5befd4f0379ddd760d499ca96330c9ae8faa4059919caaee90600090a3600054604051631a24666d60e01b81526001600160a01b03888116600483015290911690631a24666d90602401600060405180830381600087803b15801562000ba857600080fd5b505af115801562000bbd573d6000803e3d6000fd5b50505050816001600160a01b03166308d6122d8762000bdb6200154b565b60026040518463ffffffff1660e01b815260040162000bfd9392919062001edb565b600060405180830381600087803b15801562000c1857600080fd5b505af115801562000c2d573d6000803e3d6000fd5b50506002546001600160a01b0316915062000c5d905057604051630474a4af60e01b815260040160405180910390fd5b62000c6762001cba565b6001600160a01b03808b1682528716602082015262000c8781896200191a565b6001600160a01b038181166000818152600360209081526040918290206101208e0135905581518f85168152938c1690840152929850917f3c7b686d948efcba31c9cfd1aeae78faac70fe0c1ed90d151d49c75e85027a91910160405180910390a260008060009054906101000a90046001600160a01b03166001600160a01b031663db52aa236040518163ffffffff1660e01b8152600401602060405180830381865afa15801562000d3e573d6000803e3d6000fd5b505050506040513d601f19601f8201168201806040525081019062000d64919062001e1d565b90506001600160a01b03811662000d8e5760405163773aae1f60e11b815260040160405180910390fd5b604080516001600160a01b038981166024830152861660448083019190915282518083039091018152606490910182526020810180516001600160e01b031663485cc95560e01b17905290519093508190849062000dec9062001cac565b62000df992919062001e63565b604051809103906000f08015801562000e16573d6000803e3d6000fd5b5060005460405163f5e306f760e01b81526001600160a01b038b8116600483015292985091169063f5e306f790602401602060405180830381865afa15801562000e64573d6000803e3d6000fd5b505050506040513d601f19601f8201168201806040525081019062000e8a919062001ebd565b62000ea85760405163ec59a68f60e01b815260040160405180910390fd5b876001600160a01b0316876001600160a01b0316876001600160a01b03167ffac2f7e74195090052d5b79e99f8c60d33b076bdc7f81c1e39a569e7725dc1f660405160405180910390a460005460405163c7a9037560e01b81526001600160a01b038a8116600483015288811660248301529091169063c7a9037590604401600060405180830381600087803b15801562000f4257600080fd5b505af115801562000f57573d6000803e3d6000fd5b505060405163f2fde38b60e01b81523360048201526001600160a01b038916925063f2fde38b9150602401600060405180830381600087803b15801562000f9d57600080fd5b505af115801562000fb2573d6000803e3d6000fd5b50505050836001600160a01b03166308d6122d8762000fd06200154b565b60026040518463ffffffff1660e01b815260040162000ff29392919062001edb565b600060405180830381600087803b1580156200100d57600080fd5b505af115801562001022573d6000803e3d6000fd5b50505050836001600160a01b03166308d6122d8762001040620015e6565b60056040518463ffffffff1660e01b8152600401620010629392919062001edb565b600060405180830381600087803b1580156200107d57600080fd5b505af115801562001092573d6000803e3d6000fd5b50505050505050505093509350939050565b60008054604080516304cf46c760e01b8152905183926001600160a01b0316916304cf46c79160048083019260209291908290030181865afa158015620010ef573d6000803e3d6000fd5b505050506040513d601f19601f8201168201806040525081019062001115919062001e1d565b90506001600160a01b0381166200113f5760405163773aae1f60e11b815260040160405180910390fd5b60006200114b620012ef565b604080516001600160a01b03888116602483015260448201889052831660648083019190915282518083039091018152608490910182526020810180516001600160e01b031663c350a1b560e01b17905290519192509083908290620011b19062001cac565b620011be92919062001e63565b604051809103906000f080158015620011db573d6000803e3d6000fd5b5060405190945033906001600160a01b038616907fcf50c3e7162cc35f5befd4f0379ddd760d499ca96330c9ae8faa4059919caaee90600090a3600054604051631a24666d60e01b81526001600160a01b03868116600483015290911690631a24666d90602401600060405180830381600087803b1580156200125d57600080fd5b505af115801562001272573d6000803e3d6000fd5b50505050816001600160a01b03166308d6122d85620012906200154b565b60026040518463ffffffff1660e01b8152600401620012b29392919062001edb565b600060405180830381600087803b158015620012cd57600080fd5b505af1158015620012e2573d6000803e3d6000fd5b5050505050505092915050565b60008051602062002667833981519152546001600160a01b031690565b6002546000906001600160a01b03166200133957604051630474a4af60e01b815260040160405180910390fd5b60005460405163f5e306f760e01b81526001600160a01b0385811660048301529091169063f5e306f790602401602060405180830381865afa15801562001384573d6000803e3d6000fd5b505050506040513d601f19601f82011682018060405250810190620013aa919062001ebd565b620013c85760405163ec59a68f60e01b815260040160405180910390fd5b42836001600160a01b031663204f83f96040518163ffffffff1660e01b8152600401602060405180830381865afa15801562001408573d6000803e3d6000fd5b505050506040513d601f19601f820116820180604052508101906200142e919062001f66565b10156200144e57604051633ce1ca7760e01b815260040160405180910390fd5b6000836001600160a01b031663c644fe946040518163ffffffff1660e01b8152600401602060405180830381865afa1580156200148f573d6000803e3d6000fd5b505050506040513d601f19601f82011682018060405250810190620014b5919062001e1d565b9050620014c162001cba565b6001600160a01b03808316825285166020820152620014e181856200191a565b6001600160a01b038181166000818152600360209081526040918290206101208a0135905581518785168152938a1690840152929550917f3c7b686d948efcba31c9cfd1aeae78faac70fe0c1ed90d151d49c75e85027a91910160405180910390a2505092915050565b60408051600280825260608083018452926000929190602083019080368337019050509050638456cb5960e01b816000815181106200158e576200158e62001f50565b6001600160e01b031990921660209283029190910190910152805163f7b188a560e01b9082906001908110620015c857620015c862001f50565b6001600160e01b031990921660209283029190910190910152919050565b60408051600280825260608083018452926000929190602083019080368337019050509050630faea4db60e01b8160008151811062001629576200162962001f50565b6001600160e01b031990921660209283029190910190910152805163013d323560e41b9082906001908110620015c857620015c862001f50565b6200166d62001b33565b620009518162001b7f565b6000805160206200266783398151915280546001600160a01b0383166001600160a01b03199091168117825560408051918252517f2f658b440c35314f52658ea8a740e05b284cdc84dc9ae01e891f21b8933e7cad9181900360200190a15050565b600080516020620026678339815191526000806200171e620016fb620012ef565b87306200170d600460008a8c62001f80565b620017189162001fac565b62001b94565b9150915081620017eb5763ffffffff811615620017c757825460ff60a01b1916600160a01b17835562001750620012ef565b6001600160a01b03166394c7d7ee8787876040518463ffffffff1660e01b8152600401620017819392919062001fdd565b600060405180830381600087803b1580156200179c57600080fd5b505af1158015620017b1573d6000803e3d6000fd5b5050845460ff60a01b1916855550620017eb9050565b60405162d1953b60e31b81526001600160a01b038716600482015260240162000835565b505050505050565b600154604080516006602480830182905283518084039091018152604490920183526020820180516001600160e01b031663124fd3dd60e21b1790529151919260009283926001600160a01b03909216916200184f916200201d565b6000604051808303816000865af19150503d80600081146200188e576040519150601f19603f3d011682016040523d82523d6000602084013e62001893565b606091505b509150915081620018b7576040516308b5780160e01b815260040160405180910390fd5b80806020019051810190620018cd919062001e1d565b600280546001600160a01b0319166001600160a01b039290921691821790556040517f6c3db3b505f1ce26138fce10683cfc5e051aa53990b272acf8944fb87c76b9fb90600090a2505050565b604080518082018252600e81526d14dc1958dd1c984b54150bd2509560921b60208083019190915282518084018452600a81526914d4150b54150bd2509560b21b8183015283516102408082526102608201909552600094919285929082018180368337019050509050600086816020020151905060008760016020020151905060006101c060208501526102006040850152826060850152816080850152876000013590508060a0850152876020013590508060c0850152876040013590508060e0850152876060013590508061010085015287608001359050806101208501528760a001359050806101408501528760c001359050806101608501528760e001359050806101808501528761010001359050806101a08501528761012001359050806101c085015285516101e085015260208601516102008501528451610220850152602085015161024085015263c955fa0460e01b8460405160200162001a869291906200203b565b60408051601f198184030181529082905260025490955060009182916001600160a01b03169062001ab99088906200201d565b6000604051808303816000865af19150503d806000811462001af8576040519150601f19603f3d011682016040523d82523d6000602084013e62001afd565b606091505b50915091508162001b2157604051633011642560e01b815260040160405180910390fd5b602001519a9950505050505050505050565b7ff0c57e16840df040f15088dc2f81fe391c3923bec73e23a9662efc9c229c6a0054600160401b900460ff1662001b7d57604051631afcd79f60e31b815260040160405180910390fd5b565b62001b8962001b33565b620009518162001678565b6040516001600160a01b03848116602483015283811660448301526001600160e01b03198316606483015260009182918291829189169060840160408051601f198184030181529181526020820180516001600160e01b031663b700961360e01b1790525162001c0591906200201d565b600060405180830381855afa9150503d806000811462001c42576040519150601f19603f3d011682016040523d82523d6000602084013e62001c47565b606091505b5091509150811562001ca157604081511062001c7e578080602001905181019062001c7391906200206e565b909450925062001ca1565b602081511062001ca1578080602001905181019062001c9e919062001ebd565b93505b505094509492505050565b6105bf80620020a883390190565b60405180604001604052806002906020820280368337509192915050565b6001600160a01b03811681146200095157600080fd5b60006020828403121562001d0157600080fd5b813562001d0e8162001cd8565b9392505050565b6000806040838503121562001d2957600080fd5b823562001d368162001cd8565b9150602083013562001d488162001cd8565b809150509250929050565b6000610140828403121562001d6757600080fd5b50919050565b6000806000610180848603121562001d8457600080fd5b833562001d918162001cd8565b92506020840135915062001da9856040860162001d53565b90509250925092565b6000806040838503121562001dc657600080fd5b823562001dd38162001cd8565b946020939093013593505050565b600080610160838503121562001df657600080fd5b823562001e038162001cd8565b915062001e14846020850162001d53565b90509250929050565b60006020828403121562001e3057600080fd5b815162001d0e8162001cd8565b60005b8381101562001e5a57818101518382015260200162001e40565b50506000910152565b60018060a01b0383168152604060208201526000825180604084015262001e9281606085016020870162001e3d565b601f01601f1916919091016060019392505050565b8051801515811462001eb857600080fd5b919050565b60006020828403121562001ed057600080fd5b62001d0e8262001ea7565b6001600160a01b038416815260606020808301829052845191830182905260009185820191906080850190845b8181101562001f305784516001600160e01b0319168352938301939183019160010162001f08565b505080935050505067ffffffffffffffff83166040830152949350505050565b634e487b7160e01b600052603260045260246000fd5b60006020828403121562001f7957600080fd5b5051919050565b6000808585111562001f9157600080fd5b8386111562001f9f57600080fd5b5050820193919092039150565b6001600160e01b0319813581811691600485101562001fd55780818660040360031b1b83161692505b505092915050565b6001600160a01b03841681526040602082018190528101829052818360608301376000818301606090810191909152601f909201601f1916010192915050565b600082516200203181846020870162001e3d565b9190910192915050565b6001600160e01b03198316815281516000906200206081600485016020870162001e3d565b919091016004019392505050565b600080604083850312156200208257600080fd5b6200208d8362001ea7565b9150602083015163ffffffff8116811462001d4857600080fdfe60a06040526040516105bf3803806105bf83398101604081905261002291610387565b61002c828261003e565b506001600160a01b031660805261047e565b610047826100fe565b6040516001600160a01b038316907f1cf3b03a6cf19fa2baba4df148e9dcabedea7f8a5c07840e207e5c089be95d3e90600090a28051156100f2576100ed826001600160a01b0316635c60da1b6040518163ffffffff1660e01b8152600401602060405180830381865afa1580156100c3573d6000803e3d6000fd5b505050506040513d601f19601f820116820180604052508101906100e79190610447565b82610211565b505050565b6100fa610288565b5050565b806001600160a01b03163b60000361013957604051631933b43b60e21b81526001600160a01b03821660048201526024015b60405180910390fd5b807fa3f0ad74e5423aebfd80d3ef4346578335a9a72aeaee59ff6cb3582b35133d5080546001600160a01b0319166001600160a01b0392831617905560408051635c60da1b60e01b81529051600092841691635c60da1b9160048083019260209291908290030181865afa1580156101b5573d6000803e3d6000fd5b505050506040513d601f19601f820116820180604052508101906101d99190610447565b9050806001600160a01b03163b6000036100fa57604051634c9c8ce360e01b81526001600160a01b0382166004820152602401610130565b6060600080846001600160a01b03168460405161022e9190610462565b600060405180830381855af49150503d8060008114610269576040519150601f19603f3d011682016040523d82523d6000602084013e61026e565b606091505b50909250905061027f8583836102a9565b95945050505050565b34156102a75760405163b398979f60e01b815260040160405180910390fd5b565b6060826102be576102b982610308565b610301565b81511580156102d557506001600160a01b0384163b155b156102fe57604051639996b31560e01b81526001600160a01b0385166004820152602401610130565b50805b9392505050565b8051156103185780518082602001fd5b604051630a12f52160e11b815260040160405180910390fd5b80516001600160a01b038116811461034857600080fd5b919050565b634e487b7160e01b600052604160045260246000fd5b60005b8381101561037e578181015183820152602001610366565b50506000910152565b6000806040838503121561039a57600080fd5b6103a383610331565b60208401519092506001600160401b03808211156103c057600080fd5b818501915085601f8301126103d457600080fd5b8151818111156103e6576103e661034d565b604051601f8201601f19908116603f0116810190838211818310171561040e5761040e61034d565b8160405282815288602084870101111561042757600080fd5b610438836020830160208801610363565b80955050505050509250929050565b60006020828403121561045957600080fd5b61030182610331565b60008251610474818460208701610363565b9190910192915050565b6080516101276104986000396000601e01526101276000f3fe6080604052600a600c565b005b60186014601a565b60a0565b565b60007f00000000000000000000000000000000000000000000000000000000000000006001600160a01b0316635c60da1b6040518163ffffffff1660e01b8152600401602060405180830381865afa1580156079573d6000803e3d6000fd5b505050506040513d601f19601f82011682018060405250810190609b919060c3565b905090565b3660008037600080366000845af43d6000803e80801560be573d6000f35b3d6000fd5b60006020828403121560d457600080fd5b81516001600160a01b038116811460ea57600080fd5b939250505056fea2646970667358221220899873c8342b6aaca54ba95496455fccaee26c56e9fd22af16332e42545ec30864736f6c63430008140033f3177357ab46d8af007ab3fdb9af81da189e1068fefdc0073dca88a2cab40a00a2646970667358221220475f4ea33bff59d079a1be4f019fcff1ff969e464703968cca5f3c1628c900ac64736f6c63430008140033",
    "linkReferences": {}
  },
  "methodIdentifiers": {
    "authority()": "bf7e214f",
    "deployAll(address,uint256,(uint256,uint256,uint256,uint256,uint256,uint256,uint256,uint256,uint256,uint256))": "b43aa54c",
    "deployCurvePool(address,(uint256,uint256,uint256,uint256,uint256,uint256,uint256,uint256,uint256,uint256))": "ec248d7c",
    "deployLPV(address)": "13e042af",
    "deployPT(address,uint256)": "bc9a9604",
    "getCurveAddressProvider()": "59696e16",
    "getCurveFactory()": "8521c9b9",
    "getInitialPrice(address)": "24013213",
    "getRegistry()": "5ab1bd53",
    "initialize(address,address)": "485cc955",
    "isConsumingScheduledOp()": "8fb36037",
    "setAuthority(address)": "7a9e5e4b",
    "setCurveAddressProvider(address)": "9bc3d098",
    "setRegistry(address)": "a91ee0dc"
  },
  "id": 94
}