{
  "abi": [
    {
      "inputs": [],
      "stateMutability": "nonpayable",
      "type": "constructor"
    },
    {
      "anonymous": false,
      "inputs": [
        {
          "indexed": false,
          "internalType": "address",
          "name": "newFactory",
          "type": "address"
        }
      ],
      "name": "CurveFactoryChanged",
      "type": "event"
    },
    {
      "anonymous": false,
      "inputs": [
        {
          "indexed": false,
          "internalType": "address",
          "name": "poolAddress",
          "type": "address"
        },
        {
          "indexed": false,
          "internalType": "address",
          "name": "ibt",
          "type": "address"
        },
        {
          "indexed": false,
          "internalType": "address",
          "name": "pt",
          "type": "address"
        }
      ],
      "name": "CurvePoolDeployed",
      "type": "event"
    },
    {
      "anonymous": false,
      "inputs": [
        {
          "indexed": false,
          "internalType": "address",
          "name": "_futureVault",
          "type": "address"
        }
      ],
      "name": "FutureVaultDeployed",
      "type": "event"
    },
    {
      "anonymous": false,
      "inputs": [
        {
          "indexed": true,
          "internalType": "address",
          "name": "_futureVaultInstance",
          "type": "address"
        }
      ],
      "name": "FutureVaultInstanceSet",
      "type": "event"
    },
    {
      "anonymous": false,
      "inputs": [
        {
          "indexed": false,
          "internalType": "address",
          "name": "oldOwner",
          "type": "address"
        },
        {
          "indexed": false,
          "internalType": "address",
          "name": "newOwner",
          "type": "address"
        }
      ],
      "name": "OwnerChanged",
      "type": "event"
    },
    {
      "inputs": [
        {
          "internalType": "string",
          "name": "name_",
          "type": "string"
        },
        {
          "internalType": "string",
          "name": "symbol_",
          "type": "string"
        },
        {
          "internalType": "address",
          "name": "asset_",
          "type": "address"
        },
        {
          "internalType": "address",
          "name": "underlying_",
          "type": "address"
        },
        {
          "internalType": "uint256",
          "name": "maturity_",
          "type": "uint256"
        },
        {
          "internalType": "address",
          "name": "proxyAdmin_",
          "type": "address"
        },
        {
          "internalType": "uint256",
          "name": "_max_fees",
          "type": "uint256"
        },
        {
          "internalType": "address",
          "name": "_registry",
          "type": "address"
        }
      ],
      "name": "deployFutureVault",
      "outputs": [
        {
          "internalType": "address",
          "name": "futureVault",
          "type": "address"
        },
        {
          "internalType": "address",
          "name": "curvePoolAddress",
          "type": "address"
        }
      ],
      "stateMutability": "nonpayable",
      "type": "function"
    },
    {
      "inputs": [
        {
          "internalType": "address",
          "name": "",
          "type": "address"
        }
      ],
      "name": "futureIbtPoolMap",
      "outputs": [
        {
          "internalType": "address",
          "name": "",
          "type": "address"
        }
      ],
      "stateMutability": "view",
      "type": "function"
    },
    {
      "inputs": [],
      "name": "futureVaultInstance",
      "outputs": [
        {
          "internalType": "address",
          "name": "",
          "type": "address"
        }
      ],
      "stateMutability": "view",
      "type": "function"
    },
    {
      "inputs": [
        {
          "internalType": "address",
          "name": "futureVault",
          "type": "address"
        }
      ],
      "name": "getCurvePoolForFuture",
      "outputs": [
        {
          "internalType": "address",
          "name": "",
          "type": "address"
        }
      ],
      "stateMutability": "view",
      "type": "function"
    },
    {
      "inputs": [
        {
          "internalType": "address",
          "name": "_factory",
          "type": "address"
        }
      ],
      "name": "setCurveFactory",
      "outputs": [],
      "stateMutability": "nonpayable",
      "type": "function"
    },
    {
      "inputs": [
        {
          "internalType": "address",
          "name": "_futureVaultInstance",
          "type": "address"
        }
      ],
      "name": "setFutureVaultInstance",
      "outputs": [],
      "stateMutability": "nonpayable",
      "type": "function"
    },
    {
      "inputs": [
        {
          "internalType": "address",
          "name": "_owner",
          "type": "address"
        }
      ],
      "name": "setOwner",
      "outputs": [],
      "stateMutability": "nonpayable",
      "type": "function"
    }
  ],
  "bytecode": {
    "object": "0x60a060405234801561001057600080fd5b5030608052600080546001600160a01b031916331790556080516119ef61004260003960006104e201526119ef6000f3fe60806040523480156200001157600080fd5b5060043610620000875760003560e01c80635cf14bc811620000625780635cf14bc81462000105578063a5dd7afd146200011c578063c306a8cc1462000130578063d0d1f3c1146200016857600080fd5b806313af4035146200008c5780633079184014620000a5578063438e058114620000ee575b600080fd5b620000a36200009d36600462000786565b62000197565b005b620000d1620000b636600462000786565b6002602052600090815260409020546001600160a01b031681565b6040516001600160a01b0390911681526020015b60405180910390f35b620000a3620000ff36600462000786565b62000236565b620000a36200011636600462000786565b620002b9565b600354620000d1906001600160a01b031681565b620001476200014136600462000858565b62000344565b604080516001600160a01b03938416815292909116602083015201620000e5565b620000d16200017936600462000786565b6001600160a01b039081166000908152600260205260409020541690565b6000546001600160a01b03163314620001cd5760405162461bcd60e51b8152600401620001c4906200092b565b60405180910390fd5b600054604080516001600160a01b03928316815291831660208301527fb532073b38c83145e3e5135377a08bf9aab55bc0fd7c1179cd4fb995d2a5159c910160405180910390a1600080546001600160a01b0319166001600160a01b0392909216919091179055565b6000546001600160a01b03163314620002635760405162461bcd60e51b8152600401620001c4906200092b565b6040516001600160a01b038216907f3a3e142c0838942f4938cd401effd71944d1c1de21aeb0f92ea1a1575f889ecc90600090a2600380546001600160a01b0319166001600160a01b0392909216919091179055565b6000546001600160a01b03163314620002e65760405162461bcd60e51b8152600401620001c4906200092b565b6040516001600160a01b03821681527f6c3db3b505f1ce26138fce10683cfc5e051aa53990b272acf8944fb87c76b9fb9060200160405180910390a1600180546001600160a01b0319166001600160a01b0392909216919091179055565b60008062000351620004d7565b6003546001600160a01b0316620003c75760405162461bcd60e51b815260206004820152603360248201527f4675747572655661756c74466163746f72793a204675747572655661756c74206044820152721a5b9cdd185b98d9481a5cc81b9bdd081cd95d606a1b6064820152608401620001c4565b60008a8a8a8a8a338a8a604051602401620003ea989796959493929190620009df565b60408051601f198184030181529181526020820180516001600160e01b0316636d6e790960e01b17905260035490519192506001600160a01b03169087908390620004359062000741565b620004439392919062000a4c565b604051809103906000f08015801562000460573d6000803e3d6000fd5b506040516001600160a01b03821681529093507f955352ae258d8499beecbc5a28c590464cc879635340df7a7985e21d6855426e9060200160405180910390a1620004ab836200050f565b50506001600160a01b03808216600090815260026020526040902054919a911698509650505050505050565b306001600160a01b037f000000000000000000000000000000000000000000000000000000000000000016146200050d57600080fd5b565b620005196200074f565b816001600160a01b03166338d52e0f6040518163ffffffff1660e01b8152600401602060405180830381865afa15801562000558573d6000803e3d6000fd5b505050506040513d601f19601f820116820180604052508101906200057e919062000a83565b6001600160a01b03908116825282811660208301526001546040516000928392169063c955fa0490620005fb908690630bebc20090655af3107a40009062e4e1c0906302faf080906402540be400906611c37937e0800090650500918bd8009064012a05f200906102589066cb032035736db49060240162000ad1565b6040516020818303038152906040529060e01b6020820180516001600160e01b03838183161783525050505060405162000636919062000bcb565b6000604051808303816000865af19150503d806000811462000675576040519150601f19603f3d011682016040523d82523d6000602084013e6200067a565b606091505b509150915081620006c25760405162461bcd60e51b815260206004820152601160248201527019195c1b1bde5b595b9d0819985a5b1959607a1b6044820152606401620001c4565b6020818101516001600160a01b0386811660008181526002855260409081902080549484166001600160a01b03199095168517905587518151948552909216938301939093528101919091527f3c7b686d948efcba31c9cfd1aeae78faac70fe0c1ed90d151d49c75e85027a919060600160405180910390a150505050565b610dd08062000bea83390190565b60405180604001604052806002906020820280368337509192915050565b6001600160a01b03811681146200078357600080fd5b50565b6000602082840312156200079957600080fd5b8135620007a6816200076d565b9392505050565b634e487b7160e01b600052604160045260246000fd5b600082601f830112620007d557600080fd5b813567ffffffffffffffff80821115620007f357620007f3620007ad565b604051601f8301601f19908116603f011681019082821181831017156200081e576200081e620007ad565b816040528381528660208588010111156200083857600080fd5b836020870160208301376000602085830101528094505050505092915050565b600080600080600080600080610100898b0312156200087657600080fd5b883567ffffffffffffffff808211156200088f57600080fd5b6200089d8c838d01620007c3565b995060208b0135915080821115620008b457600080fd5b50620008c38b828c01620007c3565b9750506040890135620008d6816200076d565b95506060890135620008e8816200076d565b94506080890135935060a089013562000901816200076d565b925060c0890135915060e08901356200091a816200076d565b809150509295985092959890939650565b60208082526033908201527f4675747572655661756c74466163746f72793a204f6e6c79206f776e65722063604082015272185b8818d85b1b081d1a1a5cc81b595d1a1bd9606a1b606082015260800190565b60005b838110156200099b57818101518382015260200162000981565b83811115620009ab576000848401525b50505050565b60008151808452620009cb8160208601602086016200097e565b601f01601f19169290920160200192915050565b6000610100808352620009f58184018c620009b1565b9050828103602084015262000a0b818b620009b1565b6001600160a01b03998a16604085015297891660608401525050608081019490945291851660a084015260c083015290921660e09092019190915292915050565b6001600160a01b0384811682528316602082015260606040820181905260009062000a7a90830184620009b1565b95945050505050565b60006020828403121562000a9657600080fd5b8151620007a6816200076d565b8060005b6002811015620009ab5781516001600160a01b031684526020938401939091019060010162000aa7565b60006101c0808352600b81840152506a46565f504f4f4c5f41505760a81b6101e083015261020080602084015262000b22818401600a815269105415cbd4150bd2509560b21b602082015260400190565b91505062000b34604083018e62000aa3565b63ffffffff8c16608083015265ffffffffffff8b1660a083015262ffffff8a1660c083015263ffffffff891660e083015264ffffffffff881661010083015266ffffffffffffff871661012083015265ffffffffffff861661014083015264ffffffffff851661016083015261ffff841661018083015266ffffffffffffff83166101a08301529c9b505050505050505050505050565b6000825162000bdf8184602087016200097e565b919091019291505056fe608060405260405162000dd038038062000dd08339810160408190526200002691620004a6565b8282828281620000398282600062000053565b506200004790508262000090565b505050505050620005d9565b6200005e83620000eb565b6000825111806200006c5750805b156200008b576200008983836200012d60201b620002261760201c565b505b505050565b7f7e644d79422f17c01e4894b5f4f588d331ebfa28653d42ae832dc59e38c9798f620000bb6200015c565b604080516001600160a01b03928316815291841660208301520160405180910390a1620000e88162000195565b50565b620000f6816200024a565b6040516001600160a01b038216907fbc7cd75a20ee27fd9adebab32041f755214dbc6bffa90cc0225b39da2e5c2d3b90600090a250565b606062000155838360405180606001604052806027815260200162000da960279139620002fe565b9392505050565b60006200018660008051602062000d8983398151915260001b6200037d60201b620001e21760201c565b546001600160a01b0316919050565b6001600160a01b038116620002005760405162461bcd60e51b815260206004820152602660248201527f455243313936373a206e65772061646d696e20697320746865207a65726f206160448201526564647265737360d01b60648201526084015b60405180910390fd5b806200022960008051602062000d8983398151915260001b6200037d60201b620001e21760201c565b80546001600160a01b0319166001600160a01b039290921691909117905550565b62000260816200038060201b620002521760201c565b620002c45760405162461bcd60e51b815260206004820152602d60248201527f455243313936373a206e657720696d706c656d656e746174696f6e206973206e60448201526c1bdd08184818dbdb9d1c9858dd609a1b6064820152608401620001f7565b80620002297f360894a13ba1a3210667c828492db98dca3e2076cc3735a920a3ca505d382bbc60001b6200037d60201b620001e21760201c565b6060600080856001600160a01b0316856040516200031d919062000586565b600060405180830381855af49150503d80600081146200035a576040519150601f19603f3d011682016040523d82523d6000602084013e6200035f565b606091505b50909250905062000373868383876200038f565b9695505050505050565b90565b6001600160a01b03163b151590565b6060831562000403578251600003620003fb576001600160a01b0385163b620003fb5760405162461bcd60e51b815260206004820152601d60248201527f416464726573733a2063616c6c20746f206e6f6e2d636f6e74726163740000006044820152606401620001f7565b50816200040f565b6200040f838362000417565b949350505050565b815115620004285781518083602001fd5b8060405162461bcd60e51b8152600401620001f79190620005a4565b80516001600160a01b03811681146200045c57600080fd5b919050565b634e487b7160e01b600052604160045260246000fd5b60005b83811015620004945781810151838201526020016200047a565b83811115620000895750506000910152565b600080600060608486031215620004bc57600080fd5b620004c78462000444565b9250620004d76020850162000444565b60408501519092506001600160401b0380821115620004f557600080fd5b818601915086601f8301126200050a57600080fd5b8151818111156200051f576200051f62000461565b604051601f8201601f19908116603f011681019083821181831017156200054a576200054a62000461565b816040528281528960208487010111156200056457600080fd5b6200057783602083016020880162000477565b80955050505050509250925092565b600082516200059a81846020870162000477565b9190910192915050565b6020815260008251806020840152620005c581604085016020870162000477565b601f01601f19169190910160400192915050565b6107a080620005e96000396000f3fe60806040526004361061004e5760003560e01c80633659cfe6146100655780634f1ef286146100855780635c60da1b146100985780638f283970146100c9578063f851a440146100e95761005d565b3661005d5761005b6100fe565b005b61005b6100fe565b34801561007157600080fd5b5061005b61008036600461062a565b610110565b61005b610093366004610645565b61014d565b3480156100a457600080fd5b506100ad6101b4565b6040516001600160a01b03909116815260200160405180910390f35b3480156100d557600080fd5b5061005b6100e436600461062a565b6101e5565b3480156100f557600080fd5b506100ad610205565b61010e610109610261565b61026b565b565b61011861028f565b6001600160a01b0316330361014557610142816040518060200160405280600081525060006102c2565b50565b6101426100fe565b61015561028f565b6001600160a01b031633036101ac576101a78383838080601f016020809104026020016040519081016040528093929190818152602001838380828437600092019190915250600192506102c2915050565b505050565b6101a76100fe565b60006101be61028f565b6001600160a01b031633036101da576101d5610261565b905090565b6101e26100fe565b90565b6101ed61028f565b6001600160a01b0316330361014557610142816102ed565b600061020f61028f565b6001600160a01b031633036101da576101d561028f565b606061024b838360405180606001604052806027815260200161074460279139610341565b9392505050565b6001600160a01b03163b151590565b60006101d56103b9565b3660008037600080366000845af43d6000803e80801561028a573d6000f35b3d6000fd5b60007fb53127684a568b3173ae13b9f8a6016e243e63b6e8ee1178d6a717850b5d61035b546001600160a01b0316919050565b6102cb836103e1565b6000825111806102d85750805b156101a7576102e78383610226565b50505050565b7f7e644d79422f17c01e4894b5f4f588d331ebfa28653d42ae832dc59e38c9798f61031661028f565b604080516001600160a01b03928316815291841660208301520160405180910390a161014281610421565b6060600080856001600160a01b03168560405161035e91906106f4565b600060405180830381855af49150503d8060008114610399576040519150601f19603f3d011682016040523d82523d6000602084013e61039e565b606091505b50915091506103af868383876104cf565b9695505050505050565b60007f360894a13ba1a3210667c828492db98dca3e2076cc3735a920a3ca505d382bbc6102b3565b6103ea81610550565b6040516001600160a01b038216907fbc7cd75a20ee27fd9adebab32041f755214dbc6bffa90cc0225b39da2e5c2d3b90600090a250565b6001600160a01b03811661048b5760405162461bcd60e51b815260206004820152602660248201527f455243313936373a206e65772061646d696e20697320746865207a65726f206160448201526564647265737360d01b60648201526084015b60405180910390fd5b807fb53127684a568b3173ae13b9f8a6016e243e63b6e8ee1178d6a717850b5d61035b80546001600160a01b0319166001600160a01b039290921691909117905550565b6060831561053e578251600003610537576001600160a01b0385163b6105375760405162461bcd60e51b815260206004820152601d60248201527f416464726573733a2063616c6c20746f206e6f6e2d636f6e74726163740000006044820152606401610482565b5081610548565b61054883836105e4565b949350505050565b6001600160a01b0381163b6105bd5760405162461bcd60e51b815260206004820152602d60248201527f455243313936373a206e657720696d706c656d656e746174696f6e206973206e60448201526c1bdd08184818dbdb9d1c9858dd609a1b6064820152608401610482565b807f360894a13ba1a3210667c828492db98dca3e2076cc3735a920a3ca505d382bbc6104ae565b8151156105f45781518083602001fd5b8060405162461bcd60e51b81526004016104829190610710565b80356001600160a01b038116811461062557600080fd5b919050565b60006020828403121561063c57600080fd5b61024b8261060e565b60008060006040848603121561065a57600080fd5b6106638461060e565b9250602084013567ffffffffffffffff8082111561068057600080fd5b818601915086601f83011261069457600080fd5b8135818111156106a357600080fd5b8760208285010111156106b557600080fd5b6020830194508093505050509250925092565b60005b838110156106e35781810151838201526020016106cb565b838111156102e75750506000910152565b600082516107068184602087016106c8565b9190910192915050565b602081526000825180602084015261072f8160408501602087016106c8565b601f01601f1916919091016040019291505056fe416464726573733a206c6f772d6c6576656c2064656c65676174652063616c6c206661696c6564a26469706673582212200591b07716c60a9176dcc62af997912a2ea59ffd1861e4f391bc82b402b6238d64736f6c634300080d0033b53127684a568b3173ae13b9f8a6016e243e63b6e8ee1178d6a717850b5d6103416464726573733a206c6f772d6c6576656c2064656c65676174652063616c6c206661696c6564a26469706673582212206e1c2c9e3dc1bc322d4ccbf097755055f49501326187e074720808cb5454374764736f6c634300080d0033",
    "linkReferences": {}
  },
  "methodIdentifiers": {
    "deployFutureVault(string,string,address,address,uint256,address,uint256,address)": "c306a8cc",
    "futureIbtPoolMap(address)": "30791840",
    "futureVaultInstance()": "a5dd7afd",
    "getCurvePoolForFuture(address)": "d0d1f3c1",
    "setCurveFactory(address)": "5cf14bc8",
    "setFutureVaultInstance(address)": "438e0581",
    "setOwner(address)": "13af4035"
  },
  "id": 41
}