{
  "abi": [
    {
      "inputs": [
        {
          "internalType": "address",
          "name": "_futureVaultBeaconUpgradable",
          "type": "address"
        },
        {
          "internalType": "address",
          "name": "_ytBeaconUpgradable",
          "type": "address"
        }
      ],
      "stateMutability": "nonpayable",
      "type": "constructor"
    },
    {
      "anonymous": false,
      "inputs": [
        {
          "indexed": true,
          "internalType": "address",
          "name": "curveAddressProvider",
          "type": "address"
        }
      ],
      "name": "CurveAddressProviderSet",
      "type": "event"
    },
    {
      "anonymous": false,
      "inputs": [
        {
          "indexed": true,
          "internalType": "address",
          "name": "newFactory",
          "type": "address"
        }
      ],
      "name": "CurveFactoryChanged",
      "type": "event"
    },
    {
      "anonymous": false,
      "inputs": [
        {
          "indexed": true,
          "internalType": "address",
          "name": "poolAddress",
          "type": "address"
        },
        {
          "indexed": false,
          "internalType": "address",
          "name": "ibt",
          "type": "address"
        },
        {
          "indexed": false,
          "internalType": "address",
          "name": "pt",
          "type": "address"
        }
      ],
      "name": "CurvePoolDeployed",
      "type": "event"
    },
    {
      "anonymous": false,
      "inputs": [
        {
          "indexed": true,
          "internalType": "address",
          "name": "_futureVault",
          "type": "address"
        },
        {
          "indexed": true,
          "internalType": "address",
          "name": "_poolCreator",
          "type": "address"
        }
      ],
      "name": "FutureVaultDeployed",
      "type": "event"
    },
    {
      "anonymous": false,
      "inputs": [
        {
          "indexed": true,
          "internalType": "address",
          "name": "previousOwner",
          "type": "address"
        },
        {
          "indexed": true,
          "internalType": "address",
          "name": "newOwner",
          "type": "address"
        }
      ],
      "name": "OwnershipTransferStarted",
      "type": "event"
    },
    {
      "anonymous": false,
      "inputs": [
        {
          "indexed": true,
          "internalType": "address",
          "name": "previousOwner",
          "type": "address"
        },
        {
          "indexed": true,
          "internalType": "address",
          "name": "newOwner",
          "type": "address"
        }
      ],
      "name": "OwnershipTransferred",
      "type": "event"
    },
    {
      "anonymous": false,
      "inputs": [
        {
          "indexed": true,
          "internalType": "address",
          "name": "oldRegistry",
          "type": "address"
        },
        {
          "indexed": true,
          "internalType": "address",
          "name": "newRegistry",
          "type": "address"
        }
      ],
      "name": "RegistryUpdated",
      "type": "event"
    },
    {
      "inputs": [],
      "name": "acceptOwnership",
      "outputs": [],
      "stateMutability": "nonpayable",
      "type": "function"
    },
    {
      "inputs": [],
      "name": "curveAddressProvider",
      "outputs": [
        {
          "internalType": "address",
          "name": "",
          "type": "address"
        }
      ],
      "stateMutability": "view",
      "type": "function"
    },
    {
      "inputs": [
        {
          "internalType": "string",
          "name": "name_",
          "type": "string"
        },
        {
          "internalType": "string",
          "name": "symbol_",
          "type": "string"
        },
        {
          "internalType": "address",
          "name": "asset_",
          "type": "address"
        },
        {
          "internalType": "address",
          "name": "ibt_",
          "type": "address"
        },
        {
          "internalType": "uint256",
          "name": "maturity_",
          "type": "uint256"
        },
        {
          "internalType": "uint256",
          "name": "max_fees_",
          "type": "uint256"
        },
        {
          "internalType": "address",
          "name": "registry_",
          "type": "address"
        },
        {
          "internalType": "address",
          "name": "futureVaultAdmin",
          "type": "address"
        }
      ],
      "name": "deployFutureVault",
      "outputs": [
        {
          "internalType": "address",
          "name": "futureVault",
          "type": "address"
        },
        {
          "internalType": "address",
          "name": "curvePoolAddress",
          "type": "address"
        }
      ],
      "stateMutability": "nonpayable",
      "type": "function"
    },
    {
      "inputs": [
        {
          "internalType": "address",
          "name": "",
          "type": "address"
        }
      ],
      "name": "futureIbtPoolMap",
      "outputs": [
        {
          "internalType": "address",
          "name": "",
          "type": "address"
        }
      ],
      "stateMutability": "view",
      "type": "function"
    },
    {
      "inputs": [],
      "name": "getCurveFactoryAddress",
      "outputs": [
        {
          "internalType": "address",
          "name": "",
          "type": "address"
        }
      ],
      "stateMutability": "view",
      "type": "function"
    },
    {
      "inputs": [
        {
          "internalType": "address",
          "name": "futureVault",
          "type": "address"
        }
      ],
      "name": "getCurvePoolForFuture",
      "outputs": [
        {
          "internalType": "address",
          "name": "",
          "type": "address"
        }
      ],
      "stateMutability": "view",
      "type": "function"
    },
    {
      "inputs": [],
      "name": "getRegistryAddress",
      "outputs": [
        {
          "internalType": "address",
          "name": "",
          "type": "address"
        }
      ],
      "stateMutability": "view",
      "type": "function"
    },
    {
      "inputs": [],
      "name": "owner",
      "outputs": [
        {
          "internalType": "address",
          "name": "",
          "type": "address"
        }
      ],
      "stateMutability": "view",
      "type": "function"
    },
    {
      "inputs": [],
      "name": "pendingOwner",
      "outputs": [
        {
          "internalType": "address",
          "name": "",
          "type": "address"
        }
      ],
      "stateMutability": "view",
      "type": "function"
    },
    {
      "inputs": [],
      "name": "renounceOwnership",
      "outputs": [],
      "stateMutability": "nonpayable",
      "type": "function"
    },
    {
      "inputs": [
        {
          "internalType": "address",
          "name": "curveAddressProvider_",
          "type": "address"
        }
      ],
      "name": "setCurveAddressProvider",
      "outputs": [],
      "stateMutability": "nonpayable",
      "type": "function"
    },
    {
      "inputs": [
        {
          "internalType": "address",
          "name": "_newRegistry",
          "type": "address"
        }
      ],
      "name": "setRegistry",
      "outputs": [],
      "stateMutability": "nonpayable",
      "type": "function"
    },
    {
      "inputs": [
        {
          "internalType": "address",
          "name": "newOwner",
          "type": "address"
        }
      ],
      "name": "transferOwnership",
      "outputs": [],
      "stateMutability": "nonpayable",
      "type": "function"
    }
  ],
  "bytecode": {
    "object": "0x60e06040523480156200001157600080fd5b5060405162001ef838038062001ef88339810160408190526200003491620001fc565b6200003f3362000165565b306080526001600160a01b038216620000cf5760405162461bcd60e51b815260206004820152604160248201527f4675747572655661756c74466163746f72793a206675747572655661756c742060448201527f626561636f6e20616464726573732073686f756c64206e6f74206265207a65726064820152606f60f81b608482015260a4015b60405180910390fd5b6001600160a01b0381166200014d5760405162461bcd60e51b815260206004820152603860248201527f4675747572655661756c74466163746f72793a20797420626561636f6e20616460448201527f64726573732073686f756c64206e6f74206265207a65726f00000000000000006064820152608401620000c6565b6001600160a01b0391821660a0521660c05262000234565b600180546001600160a01b03191690556200018c816200018f602090811b6200076c17901c565b50565b600080546001600160a01b038381166001600160a01b0319831681178455604051919092169283917f8be0079c531659141344cd1fd0a4f28419497f9722a3daafe3b4186f6b6457e09190a35050565b80516001600160a01b0381168114620001f757600080fd5b919050565b600080604083850312156200021057600080fd5b6200021b83620001df565b91506200022b60208401620001df565b90509250929050565b60805160a05160c051611c8d6200026b600039600061032101526000818161025b01526102f1015260006107c70152611c8d6000f3fe60806040523480156200001157600080fd5b5060043610620000e05760003560e01c80639bc3d0981162000097578063d1136096116200006e578063d113609614620001ff578063e30c39781462000211578063f21de1e81462000223578063f2fde38b146200023557600080fd5b80639bc3d09814620001a2578063a91ee0dc14620001b9578063d0d1f3c114620001d057600080fd5b80630556c69e14620000e55780633079184014620001215780633d6e73881462000166578063715018a6146200017a57806379ba509714620001865780638da5cb5b1462000190575b600080fd5b620000fc620000f636600462000e89565b6200024c565b604080516001600160a01b039384168152929091166020830152015b60405180910390f35b6200014d6200013236600462000f5c565b6005602052600090815260409020546001600160a01b031681565b6040516001600160a01b03909116815260200162000118565b6004546200014d906001600160a01b031681565b620001846200048f565b005b62000184620004a7565b6000546001600160a01b03166200014d565b62000184620001b336600462000f5c565b62000525565b62000184620001ca36600462000f5c565b62000614565b6200014d620001e136600462000f5c565b6001600160a01b039081166000908152600560205260409020541690565b6002546001600160a01b03166200014d565b6001546001600160a01b03166200014d565b6003546001600160a01b03166200014d565b620001846200024636600462000f5c565b620006f8565b60008062000259620007bc565b7f00000000000000000000000000000000000000000000000000000000000000006001600160a01b0316620002ef5760405162461bcd60e51b815260206004820152603160248201527f4675747572655661756c74466163746f72793a204675747572655661756c742060448201527010995858dbdb881a5cc81b9bdd081cd95d607a1b60648201526084015b60405180910390fd5b7f000000000000000000000000000000000000000000000000000000000000000063a1116dc460e01b8b8b8a8c8b8b8b7f00000000000000000000000000000000000000000000000000000000000000006040516024016200035998979695949392919062000fe4565b60408051601f198184030181529181526020820180516001600160e01b03166001600160e01b0319909416939093179092529051620003989062000d9c565b620003a592919062001053565b604051809103906000f080158015620003c2573d6000803e3d6000fd5b5060405190925033906001600160a01b038416907ff2e9c5a829e7edb160874d831d5e5dd7b7a39eee7cb6edf273681bd46449284090600090a360405163f2fde38b60e01b81526001600160a01b03848116600483015283169063f2fde38b90602401600060405180830381600087803b1580156200044057600080fd5b505af115801562000455573d6000803e3d6000fd5b505050506200046482620007f2565b506001600160a01b03808216600090815260056020526040902054919a911698509650505050505050565b6200049962000b8c565b620004a5600062000be8565b565b60015433906001600160a01b03168114620005175760405162461bcd60e51b815260206004820152602960248201527f4f776e61626c6532537465703a2063616c6c6572206973206e6f7420746865206044820152683732bb9037bbb732b960b91b6064820152608401620002e6565b620005228162000be8565b50565b6200052f62000b8c565b6001600160a01b038116620005bb5760405162461bcd60e51b815260206004820152604560248201527f4675747572655661756c74466163746f72793a2043616e6e6f7420736574206360448201527f7572766520616464726573732070726f766964657220746f207a65726f206164606482015264647265737360d81b608482015260a401620002e6565b6040516001600160a01b038216907f48595b0c6ad20fb5dc4bbce6134112d1c63908e36de330ff3ae2588af19fa9ea90600090a2600480546001600160a01b0319166001600160a01b0383161790556200052262000c03565b6200061e62000b8c565b6001600160a01b0381166200069c5760405162461bcd60e51b815260206004820152603760248201527f4675747572655661756c74466163746f72793a2043616e6e6f7420736574207260448201527f6567697374727920746f207a65726f20616464726573730000000000000000006064820152608401620002e6565b6003546040516001600160a01b038084169216907f482b97c53e48ffa324a976e2738053e9aff6eee04d8aac63b10e19411d869b8290600090a3600380546001600160a01b0319166001600160a01b0392909216919091179055565b6200070262000b8c565b600180546001600160a01b0383166001600160a01b03199091168117909155620007346000546001600160a01b031690565b6001600160a01b03167f38d16b8cac22d99fc7c124b9cd0de2d3fa1faef420bfe791d8c362d765e2270060405160405180910390a350565b600080546001600160a01b038381166001600160a01b0319831681178455604051919092169283917f8be0079c531659141344cd1fd0a4f28419497f9722a3daafe3b4186f6b6457e09190a35050565b306001600160a01b037f00000000000000000000000000000000000000000000000000000000000000001614620004a557600080fd5b620007fc62000daa565b816001600160a01b031663c644fe946040518163ffffffff1660e01b81526004016020604051808303816000875af11580156200083d573d6000803e3d6000fd5b505050506040513d601f19601f8201168201806040525081019062000863919062001081565b6001600160a01b039081168083529083166020808401919091526040805163313ce56760e01b815290516000939263313ce56792600480820193918290030181865afa158015620008b8573d6000803e3d6000fd5b505050506040513d601f19601f82011682018060405250810190620008de9190620010a1565b620008eb90600a620011db565b6040516363737ac960e11b8152600481018290529091506000906001600160a01b0385169063c6e6f59290602401602060405180830381865afa15801562000937573d6000803e3d6000fd5b505050506040513d601f19601f820116820180604052508101906200095d9190620011ec565b6002549091506001600160a01b0316620009d75760405162461bcd60e51b815260206004820152603460248201527f4675747572655661756c74466163746f72793a20637572766520666163746f726044820152731e481859191c995cdcc81a5cc81b9bdd081cd95d60621b6064820152608401620002e6565b600080600260009054906101000a90046001600160a01b03166001600160a01b031663c955fa0486630bebc200655af3107a400062e4e1c06302faf0806402540be4006611c37937e08000650500918bd80064012a05f2006102588e60405160240162000a4f9b9a9998979695949392919062001234565b6040516020818303038152906040529060e01b6020820180516001600160e01b03838183161783525050505060405162000a8a919062001325565b6000604051808303816000865af19150503d806000811462000ac9576040519150601f19603f3d011682016040523d82523d6000602084013e62000ace565b606091505b50915091508162000b165760405162461bcd60e51b815260206004820152601160248201527019195c1b1bde5b595b9d0819985a5b1959607a1b6044820152606401620002e6565b6020818101516001600160a01b0388811660008181526005855260409081902080549484166001600160a01b03199095168517905589518151931683529382015290917f3c7b686d948efcba31c9cfd1aeae78faac70fe0c1ed90d151d49c75e85027a91910160405180910390a2505050505050565b6000546001600160a01b03163314620004a55760405162461bcd60e51b815260206004820181905260248201527f4f776e61626c653a2063616c6c6572206973206e6f7420746865206f776e65726044820152606401620002e6565b600180546001600160a01b031916905562000522816200076c565b600454604080516006602480830182905283518084039091018152604490920183526020820180516001600160e01b031663124fd3dd60e21b1790529151919260009283926001600160a01b039092169162000c5f9162001325565b6000604051808303816000865af19150503d806000811462000c9e576040519150601f19603f3d011682016040523d82523d6000602084013e62000ca3565b606091505b50915091508162000d395760405162461bcd60e51b815260206004820152605360248201527f4675747572655661756c74466163746f72793a20436f756c64206e6f7420666560448201527f74636820637572766520666163746f727920616464726573732066726f6d207460648201527234329030b2323932b9b990383937bb34b232b960691b608482015260a401620002e6565b8080602001905181019062000d4f919062001081565b600280546001600160a01b0319166001600160a01b039290921691821790556040517f6c3db3b505f1ce26138fce10683cfc5e051aa53990b272acf8944fb87c76b9fb90600090a2505050565b610914806200134483390190565b60405180604001604052806002906020820280368337509192915050565b634e487b7160e01b600052604160045260246000fd5b600082601f83011262000df057600080fd5b813567ffffffffffffffff8082111562000e0e5762000e0e62000dc8565b604051601f8301601f19908116603f0116810190828211818310171562000e395762000e3962000dc8565b8160405283815286602085880101111562000e5357600080fd5b836020870160208301376000602085830101528094505050505092915050565b6001600160a01b03811681146200052257600080fd5b600080600080600080600080610100898b03121562000ea757600080fd5b883567ffffffffffffffff8082111562000ec057600080fd5b62000ece8c838d0162000dde565b995060208b013591508082111562000ee557600080fd5b5062000ef48b828c0162000dde565b975050604089013562000f078162000e73565b9550606089013562000f198162000e73565b94506080890135935060a0890135925060c089013562000f398162000e73565b915060e089013562000f4b8162000e73565b809150509295985092959890939650565b60006020828403121562000f6f57600080fd5b813562000f7c8162000e73565b9392505050565b60005b8381101562000fa057818101518382015260200162000f86565b8381111562000fb0576000848401525b50505050565b6000815180845262000fd081602086016020860162000f83565b601f01601f19169290920160200192915050565b600061010080835262000ffa8184018c62000fb6565b9050828103602084015262001010818b62000fb6565b6001600160a01b03998a16604085015297891660608401525050608081019490945260a0840192909252841660c083015290921660e09092019190915292915050565b6001600160a01b0383168152604060208201819052600090620010799083018462000fb6565b949350505050565b6000602082840312156200109457600080fd5b815162000f7c8162000e73565b600060208284031215620010b457600080fd5b815160ff8116811462000f7c57600080fd5b634e487b7160e01b600052601160045260246000fd5b600181815b808511156200111d578160001904821115620011015762001101620010c6565b808516156200110f57918102915b93841c9390800290620010e1565b509250929050565b6000826200113657506001620011d5565b816200114557506000620011d5565b81600181146200115e5760028114620011695762001189565b6001915050620011d5565b60ff8411156200117d576200117d620010c6565b50506001821b620011d5565b5060208310610133831016604e8410600b8410161715620011ae575081810a620011d5565b620011ba8383620010dc565b8060001904821115620011d157620011d1620010c6565b0290505b92915050565b600062000f7c60ff84168362001125565b600060208284031215620011ff57600080fd5b5051919050565b8060005b600281101562000fb05781516001600160a01b03168452602093840193909101906001016200120a565b60006101c0808352600b81840152506a46565f504f4f4c5f41505760a81b6101e083015261020080602084015262001285818401600a815269105415cbd4150bd2509560b21b602082015260400190565b91505062001297604083018e62001206565b63ffffffff8c16608083015265ffffffffffff8b1660a083015262ffffff8a1660c083015263ffffffff891660e083015264ffffffffff881661010083015266ffffffffffffff871661012083015265ffffffffffff861661014083015264ffffffffff851661016083015261ffff8416610180830152826101a08301529c9b505050505050505050505050565b600082516200133981846020870162000f83565b919091019291505056fe608060405260405161091438038061091483398101604081905261002291610463565b61002e82826000610035565b505061058d565b61003e83610100565b6040516001600160a01b038416907f1cf3b03a6cf19fa2baba4df148e9dcabedea7f8a5c07840e207e5c089be95d3e90600090a260008251118061007f5750805b156100fb576100f9836001600160a01b0316635c60da1b6040518163ffffffff1660e01b8152600401602060405180830381865afa1580156100c5573d6000803e3d6000fd5b505050506040513d601f19601f820116820180604052508101906100e99190610523565b836102a360201b6100291760201c565b505b505050565b610113816102cf60201b6100551760201c565b6101725760405162461bcd60e51b815260206004820152602560248201527f455243313936373a206e657720626561636f6e206973206e6f74206120636f6e6044820152641d1c9858dd60da1b60648201526084015b60405180910390fd5b6101e6816001600160a01b0316635c60da1b6040518163ffffffff1660e01b8152600401602060405180830381865afa1580156101b3573d6000803e3d6000fd5b505050506040513d601f19601f820116820180604052508101906101d79190610523565b6102cf60201b6100551760201c565b61024b5760405162461bcd60e51b815260206004820152603060248201527f455243313936373a20626561636f6e20696d706c656d656e746174696f6e206960448201526f1cc81b9bdd08184818dbdb9d1c9858dd60821b6064820152608401610169565b806102827fa3f0ad74e5423aebfd80d3ef4346578335a9a72aeaee59ff6cb3582b35133d5060001b6102de60201b6100641760201c565b80546001600160a01b0319166001600160a01b039290921691909117905550565b60606102c883836040518060600160405280602781526020016108ed602791396102e1565b9392505050565b6001600160a01b03163b151590565b90565b6060600080856001600160a01b0316856040516102fe919061053e565b600060405180830381855af49150503d8060008114610339576040519150601f19603f3d011682016040523d82523d6000602084013e61033e565b606091505b5090925090506103508683838761035a565b9695505050505050565b606083156103c95782516000036103c2576001600160a01b0385163b6103c25760405162461bcd60e51b815260206004820152601d60248201527f416464726573733a2063616c6c20746f206e6f6e2d636f6e74726163740000006044820152606401610169565b50816103d3565b6103d383836103db565b949350505050565b8151156103eb5781518083602001fd5b8060405162461bcd60e51b8152600401610169919061055a565b80516001600160a01b038116811461041c57600080fd5b919050565b634e487b7160e01b600052604160045260246000fd5b60005b8381101561045257818101518382015260200161043a565b838111156100f95750506000910152565b6000806040838503121561047657600080fd5b61047f83610405565b60208401519092506001600160401b038082111561049c57600080fd5b818501915085601f8301126104b057600080fd5b8151818111156104c2576104c2610421565b604051601f8201601f19908116603f011681019083821181831017156104ea576104ea610421565b8160405282815288602084870101111561050357600080fd5b610514836020830160208801610437565b80955050505050509250929050565b60006020828403121561053557600080fd5b6102c882610405565b60008251610550818460208701610437565b9190910192915050565b6020815260008251806020840152610579816040850160208701610437565b601f01601f19169190910160400192915050565b6103518061059c6000396000f3fe60806040523661001357610011610017565b005b6100115b610027610022610067565b610100565b565b606061004e83836040518060600160405280602781526020016102f560279139610124565b9392505050565b6001600160a01b03163b151590565b90565b600061009a7fa3f0ad74e5423aebfd80d3ef4346578335a9a72aeaee59ff6cb3582b35133d50546001600160a01b031690565b6001600160a01b0316635c60da1b6040518163ffffffff1660e01b8152600401602060405180830381865afa1580156100d7573d6000803e3d6000fd5b505050506040513d601f19601f820116820180604052508101906100fb919061024c565b905090565b3660008037600080366000845af43d6000803e80801561011f573d6000f35b3d6000fd5b6060600080856001600160a01b03168560405161014191906102a5565b600060405180830381855af49150503d806000811461017c576040519150601f19603f3d011682016040523d82523d6000602084013e610181565b606091505b50915091506101928683838761019c565b9695505050505050565b60608315610210578251600003610209576001600160a01b0385163b6102095760405162461bcd60e51b815260206004820152601d60248201527f416464726573733a2063616c6c20746f206e6f6e2d636f6e747261637400000060448201526064015b60405180910390fd5b508161021a565b61021a8383610222565b949350505050565b8151156102325781518083602001fd5b8060405162461bcd60e51b815260040161020091906102c1565b60006020828403121561025e57600080fd5b81516001600160a01b038116811461004e57600080fd5b60005b83811015610290578181015183820152602001610278565b8381111561029f576000848401525b50505050565b600082516102b7818460208701610275565b9190910192915050565b60208152600082518060208401526102e0816040850160208701610275565b601f01601f1916919091016040019291505056fe416464726573733a206c6f772d6c6576656c2064656c65676174652063616c6c206661696c6564a26469706673582212206ea3749d3f44f7b5a93ef58b0fb6c9847a4ee4b69872c58535c03f2899109cf464736f6c634300080d0033416464726573733a206c6f772d6c6576656c2064656c65676174652063616c6c206661696c6564a264697066735822122089fe94b3e2860dc8020bfb01200dc26e699cde2ae5c47eb0a9d78cc1f23aaf1064736f6c634300080d0033",
    "linkReferences": {}
  },
  "methodIdentifiers": {
    "acceptOwnership()": "79ba5097",
    "curveAddressProvider()": "3d6e7388",
    "deployFutureVault(string,string,address,address,uint256,uint256,address,address)": "0556c69e",
    "futureIbtPoolMap(address)": "30791840",
    "getCurveFactoryAddress()": "d1136096",
    "getCurvePoolForFuture(address)": "d0d1f3c1",
    "getRegistryAddress()": "f21de1e8",
    "owner()": "8da5cb5b",
    "pendingOwner()": "e30c3978",
    "renounceOwnership()": "715018a6",
    "setCurveAddressProvider(address)": "9bc3d098",
    "setRegistry(address)": "a91ee0dc",
    "transferOwnership(address)": "f2fde38b"
  },
  "id": 74
}