{
  "abi": [
    {
      "inputs": [],
      "stateMutability": "nonpayable",
      "type": "constructor"
    },
    {
      "anonymous": false,
      "inputs": [
        {
          "indexed": true,
          "internalType": "address",
          "name": "owner",
          "type": "address"
        },
        {
          "indexed": true,
          "internalType": "address",
          "name": "spender",
          "type": "address"
        },
        {
          "indexed": false,
          "internalType": "uint256",
          "name": "value",
          "type": "uint256"
        }
      ],
      "name": "Approval",
      "type": "event"
    },
    {
      "anonymous": false,
      "inputs": [
        {
          "indexed": true,
          "internalType": "address",
          "name": "sender",
          "type": "address"
        },
        {
          "indexed": true,
          "internalType": "address",
          "name": "owner",
          "type": "address"
        },
        {
          "indexed": false,
          "internalType": "uint256",
          "name": "assets",
          "type": "uint256"
        },
        {
          "indexed": false,
          "internalType": "uint256",
          "name": "shares",
          "type": "uint256"
        }
      ],
      "name": "Deposit",
      "type": "event"
    },
    {
      "anonymous": false,
      "inputs": [
        {
          "indexed": true,
          "internalType": "address",
          "name": "_feeCollector",
          "type": "address"
        },
        {
          "indexed": false,
          "internalType": "uint256",
          "name": "_feesInIBT",
          "type": "uint256"
        }
      ],
      "name": "FeeClaimed",
      "type": "event"
    },
    {
      "anonymous": false,
      "inputs": [
        {
          "indexed": false,
          "internalType": "uint8",
          "name": "version",
          "type": "uint8"
        }
      ],
      "name": "Initialized",
      "type": "event"
    },
    {
      "anonymous": false,
      "inputs": [
        {
          "indexed": true,
          "internalType": "uint256",
          "name": "oldMaxFee",
          "type": "uint256"
        },
        {
          "indexed": true,
          "internalType": "uint256",
          "name": "newMaxFee",
          "type": "uint256"
        }
      ],
      "name": "MaxProtocolFeeUpdated",
      "type": "event"
    },
    {
      "anonymous": false,
      "inputs": [
        {
          "indexed": true,
          "internalType": "address",
          "name": "previousOwner",
          "type": "address"
        },
        {
          "indexed": true,
          "internalType": "address",
          "name": "newOwner",
          "type": "address"
        }
      ],
      "name": "OwnershipTransferStarted",
      "type": "event"
    },
    {
      "anonymous": false,
      "inputs": [
        {
          "indexed": true,
          "internalType": "address",
          "name": "previousOwner",
          "type": "address"
        },
        {
          "indexed": true,
          "internalType": "address",
          "name": "newOwner",
          "type": "address"
        }
      ],
      "name": "OwnershipTransferred",
      "type": "event"
    },
    {
      "anonymous": false,
      "inputs": [
        {
          "indexed": false,
          "internalType": "address",
          "name": "account",
          "type": "address"
        }
      ],
      "name": "Paused",
      "type": "event"
    },
    {
      "anonymous": false,
      "inputs": [
        {
          "indexed": true,
          "internalType": "address",
          "name": "from",
          "type": "address"
        },
        {
          "indexed": true,
          "internalType": "address",
          "name": "to",
          "type": "address"
        },
        {
          "indexed": false,
          "internalType": "uint256",
          "name": "assets",
          "type": "uint256"
        }
      ],
      "name": "Redeem",
      "type": "event"
    },
    {
      "anonymous": false,
      "inputs": [
        {
          "indexed": true,
          "internalType": "uint256",
          "name": "ibtRateAtExpiry",
          "type": "uint256"
        },
        {
          "indexed": true,
          "internalType": "uint256",
          "name": "ptRateAtExpiry",
          "type": "uint256"
        }
      ],
      "name": "StoredRatesAtExpiry",
      "type": "event"
    },
    {
      "anonymous": false,
      "inputs": [
        {
          "indexed": true,
          "internalType": "address",
          "name": "from",
          "type": "address"
        },
        {
          "indexed": true,
          "internalType": "address",
          "name": "to",
          "type": "address"
        },
        {
          "indexed": false,
          "internalType": "uint256",
          "name": "value",
          "type": "uint256"
        }
      ],
      "name": "Transfer",
      "type": "event"
    },
    {
      "anonymous": false,
      "inputs": [
        {
          "indexed": false,
          "internalType": "address",
          "name": "account",
          "type": "address"
        }
      ],
      "name": "Unpaused",
      "type": "event"
    },
    {
      "anonymous": false,
      "inputs": [
        {
          "indexed": true,
          "internalType": "address",
          "name": "feeCollector",
          "type": "address"
        }
      ],
      "name": "UpdatedFeeCollector",
      "type": "event"
    },
    {
      "anonymous": false,
      "inputs": [
        {
          "indexed": true,
          "internalType": "address",
          "name": "zapDepositor",
          "type": "address"
        }
      ],
      "name": "UpdatedZapDepositor",
      "type": "event"
    },
    {
      "anonymous": false,
      "inputs": [
        {
          "indexed": true,
          "internalType": "address",
          "name": "sender",
          "type": "address"
        },
        {
          "indexed": true,
          "internalType": "address",
          "name": "receiver",
          "type": "address"
        },
        {
          "indexed": true,
          "internalType": "address",
          "name": "owner",
          "type": "address"
        },
        {
          "indexed": false,
          "internalType": "uint256",
          "name": "assets",
          "type": "uint256"
        },
        {
          "indexed": false,
          "internalType": "uint256",
          "name": "shares",
          "type": "uint256"
        }
      ],
      "name": "Withdraw",
      "type": "event"
    },
    {
      "anonymous": false,
      "inputs": [
        {
          "indexed": true,
          "internalType": "address",
          "name": "yt",
          "type": "address"
        }
      ],
      "name": "YTDeployed",
      "type": "event"
    },
    {
      "anonymous": false,
      "inputs": [
        {
          "indexed": true,
          "internalType": "address",
          "name": "receiver",
          "type": "address"
        },
        {
          "indexed": false,
          "internalType": "uint256",
          "name": "_yield",
          "type": "uint256"
        }
      ],
      "name": "YieldTransferred",
      "type": "event"
    },
    {
      "anonymous": false,
      "inputs": [
        {
          "indexed": true,
          "internalType": "address",
          "name": "user",
          "type": "address"
        },
        {
          "indexed": true,
          "internalType": "uint256",
          "name": "_yield",
          "type": "uint256"
        }
      ],
      "name": "YieldUpdated",
      "type": "event"
    },
    {
      "inputs": [],
      "name": "DOMAIN_SEPARATOR",
      "outputs": [
        {
          "internalType": "bytes32",
          "name": "",
          "type": "bytes32"
        }
      ],
      "stateMutability": "view",
      "type": "function"
    },
    {
      "inputs": [],
      "name": "acceptOwnership",
      "outputs": [],
      "stateMutability": "nonpayable",
      "type": "function"
    },
    {
      "inputs": [
        {
          "internalType": "address",
          "name": "owner",
          "type": "address"
        },
        {
          "internalType": "address",
          "name": "spender",
          "type": "address"
        }
      ],
      "name": "allowance",
      "outputs": [
        {
          "internalType": "uint256",
          "name": "",
          "type": "uint256"
        }
      ],
      "stateMutability": "view",
      "type": "function"
    },
    {
      "inputs": [
        {
          "internalType": "address",
          "name": "spender",
          "type": "address"
        },
        {
          "internalType": "uint256",
          "name": "amount",
          "type": "uint256"
        }
      ],
      "name": "approve",
      "outputs": [
        {
          "internalType": "bool",
          "name": "",
          "type": "bool"
        }
      ],
      "stateMutability": "nonpayable",
      "type": "function"
    },
    {
      "inputs": [],
      "name": "asset",
      "outputs": [
        {
          "internalType": "address",
          "name": "",
          "type": "address"
        }
      ],
      "stateMutability": "view",
      "type": "function"
    },
    {
      "inputs": [
        {
          "internalType": "address",
          "name": "account",
          "type": "address"
        }
      ],
      "name": "balanceOf",
      "outputs": [
        {
          "internalType": "uint256",
          "name": "",
          "type": "uint256"
        }
      ],
      "stateMutability": "view",
      "type": "function"
    },
    {
      "inputs": [
        {
          "internalType": "address",
          "name": "_from",
          "type": "address"
        },
        {
          "internalType": "address",
          "name": "_to",
          "type": "address"
        }
      ],
      "name": "beforeYtTransfer",
      "outputs": [],
      "stateMutability": "nonpayable",
      "type": "function"
    },
    {
      "inputs": [],
      "name": "claimFees",
      "outputs": [
        {
          "internalType": "uint256",
          "name": "",
          "type": "uint256"
        }
      ],
      "stateMutability": "nonpayable",
      "type": "function"
    },
    {
      "inputs": [],
      "name": "claimYield",
      "outputs": [
        {
          "internalType": "uint256",
          "name": "",
          "type": "uint256"
        }
      ],
      "stateMutability": "nonpayable",
      "type": "function"
    },
    {
      "inputs": [
        {
          "internalType": "uint256",
          "name": "_amount",
          "type": "uint256"
        }
      ],
      "name": "claimYieldOfAmount",
      "outputs": [
        {
          "internalType": "uint256",
          "name": "",
          "type": "uint256"
        }
      ],
      "stateMutability": "nonpayable",
      "type": "function"
    },
    {
      "inputs": [
        {
          "internalType": "uint256",
          "name": "assets",
          "type": "uint256"
        },
        {
          "internalType": "uint256",
          "name": "_ibtRate",
          "type": "uint256"
        }
      ],
      "name": "convertAssetsToIBTWithRate",
      "outputs": [
        {
          "internalType": "uint256",
          "name": "",
          "type": "uint256"
        }
      ],
      "stateMutability": "view",
      "type": "function"
    },
    {
      "inputs": [
        {
          "internalType": "uint256",
          "name": "ibtAmount",
          "type": "uint256"
        },
        {
          "internalType": "uint256",
          "name": "_ibtRate",
          "type": "uint256"
        }
      ],
      "name": "convertIBTToAssetsWithRate",
      "outputs": [
        {
          "internalType": "uint256",
          "name": "",
          "type": "uint256"
        }
      ],
      "stateMutability": "view",
      "type": "function"
    },
    {
      "inputs": [
        {
          "internalType": "uint256",
          "name": "shares",
          "type": "uint256"
        }
      ],
      "name": "convertToAssets",
      "outputs": [
        {
          "internalType": "uint256",
          "name": "assets",
          "type": "uint256"
        }
      ],
      "stateMutability": "view",
      "type": "function"
    },
    {
      "inputs": [
        {
          "internalType": "uint256",
          "name": "ibtAmount",
          "type": "uint256"
        }
      ],
      "name": "convertToAssetsOfIBT",
      "outputs": [
        {
          "internalType": "uint256",
          "name": "",
          "type": "uint256"
        }
      ],
      "stateMutability": "view",
      "type": "function"
    },
    {
      "inputs": [
        {
          "internalType": "uint256",
          "name": "shares",
          "type": "uint256"
        },
        {
          "internalType": "uint256",
          "name": "_ptRate",
          "type": "uint256"
        }
      ],
      "name": "convertToAssetsWithRate",
      "outputs": [
        {
          "internalType": "uint256",
          "name": "assets",
          "type": "uint256"
        }
      ],
      "stateMutability": "view",
      "type": "function"
    },
    {
      "inputs": [
        {
          "internalType": "uint256",
          "name": "underlyingAmount",
          "type": "uint256"
        }
      ],
      "name": "convertToPrincipal",
      "outputs": [
        {
          "internalType": "uint256",
          "name": "",
          "type": "uint256"
        }
      ],
      "stateMutability": "view",
      "type": "function"
    },
    {
      "inputs": [
        {
          "internalType": "uint256",
          "name": "assets",
          "type": "uint256"
        }
      ],
      "name": "convertToShares",
      "outputs": [
        {
          "internalType": "uint256",
          "name": "shares",
          "type": "uint256"
        }
      ],
      "stateMutability": "view",
      "type": "function"
    },
    {
      "inputs": [
        {
          "internalType": "uint256",
          "name": "assets",
          "type": "uint256"
        }
      ],
      "name": "convertToSharesOfIBT",
      "outputs": [
        {
          "internalType": "uint256",
          "name": "",
          "type": "uint256"
        }
      ],
      "stateMutability": "view",
      "type": "function"
    },
    {
      "inputs": [
        {
          "internalType": "uint256",
          "name": "assets",
          "type": "uint256"
        },
        {
          "internalType": "uint256",
          "name": "_ptRate",
          "type": "uint256"
        }
      ],
      "name": "convertToSharesWithRate",
      "outputs": [
        {
          "internalType": "uint256",
          "name": "shares",
          "type": "uint256"
        }
      ],
      "stateMutability": "view",
      "type": "function"
    },
    {
      "inputs": [
        {
          "internalType": "uint256",
          "name": "principalAmount",
          "type": "uint256"
        }
      ],
      "name": "convertToUnderlying",
      "outputs": [
        {
          "internalType": "uint256",
          "name": "",
          "type": "uint256"
        }
      ],
      "stateMutability": "view",
      "type": "function"
    },
    {
      "inputs": [],
      "name": "decimals",
      "outputs": [
        {
          "internalType": "uint8",
          "name": "",
          "type": "uint8"
        }
      ],
      "stateMutability": "view",
      "type": "function"
    },
    {
      "inputs": [
        {
          "internalType": "address",
          "name": "spender",
          "type": "address"
        },
        {
          "internalType": "uint256",
          "name": "subtractedValue",
          "type": "uint256"
        }
      ],
      "name": "decreaseAllowance",
      "outputs": [
        {
          "internalType": "bool",
          "name": "",
          "type": "bool"
        }
      ],
      "stateMutability": "nonpayable",
      "type": "function"
    },
    {
      "inputs": [
        {
          "internalType": "uint256",
          "name": "assets",
          "type": "uint256"
        },
        {
          "internalType": "address",
          "name": "receiver",
          "type": "address"
        }
      ],
      "name": "deposit",
      "outputs": [
        {
          "internalType": "uint256",
          "name": "shares",
          "type": "uint256"
        }
      ],
      "stateMutability": "nonpayable",
      "type": "function"
    },
    {
      "inputs": [
        {
          "internalType": "uint256",
          "name": "assets",
          "type": "uint256"
        },
        {
          "internalType": "address",
          "name": "account",
          "type": "address"
        }
      ],
      "name": "depositFor",
      "outputs": [
        {
          "internalType": "uint256",
          "name": "shares",
          "type": "uint256"
        }
      ],
      "stateMutability": "nonpayable",
      "type": "function"
    },
    {
      "inputs": [
        {
          "internalType": "uint256",
          "name": "ibtAmount",
          "type": "uint256"
        },
        {
          "internalType": "address",
          "name": "account",
          "type": "address"
        }
      ],
      "name": "depositIBTFor",
      "outputs": [
        {
          "internalType": "uint256",
          "name": "shares",
          "type": "uint256"
        }
      ],
      "stateMutability": "nonpayable",
      "type": "function"
    },
    {
      "inputs": [
        {
          "internalType": "uint256",
          "name": "ibtAmount",
          "type": "uint256"
        },
        {
          "internalType": "address",
          "name": "receiver",
          "type": "address"
        }
      ],
      "name": "depositWithIBT",
      "outputs": [
        {
          "internalType": "uint256",
          "name": "shares",
          "type": "uint256"
        }
      ],
      "stateMutability": "nonpayable",
      "type": "function"
    },
    {
      "inputs": [],
      "name": "expiry",
      "outputs": [
        {
          "internalType": "uint256",
          "name": "",
          "type": "uint256"
        }
      ],
      "stateMutability": "view",
      "type": "function"
    },
    {
      "inputs": [],
      "name": "getAssetUnit",
      "outputs": [
        {
          "internalType": "uint256",
          "name": "",
          "type": "uint256"
        }
      ],
      "stateMutability": "view",
      "type": "function"
    },
    {
      "inputs": [],
      "name": "getFeeCollectorAddress",
      "outputs": [
        {
          "internalType": "address",
          "name": "",
          "type": "address"
        }
      ],
      "stateMutability": "view",
      "type": "function"
    },
    {
      "inputs": [],
      "name": "getIBT",
      "outputs": [
        {
          "internalType": "address",
          "name": "",
          "type": "address"
        }
      ],
      "stateMutability": "view",
      "type": "function"
    },
    {
      "inputs": [],
      "name": "getIBTRate",
      "outputs": [
        {
          "internalType": "uint256",
          "name": "",
          "type": "uint256"
        }
      ],
      "stateMutability": "view",
      "type": "function"
    },
    {
      "inputs": [],
      "name": "getIBTRateAtExpiry",
      "outputs": [
        {
          "internalType": "uint256",
          "name": "",
          "type": "uint256"
        }
      ],
      "stateMutability": "view",
      "type": "function"
    },
    {
      "inputs": [],
      "name": "getIBTUnit",
      "outputs": [
        {
          "internalType": "uint256",
          "name": "",
          "type": "uint256"
        }
      ],
      "stateMutability": "view",
      "type": "function"
    },
    {
      "inputs": [],
      "name": "getPTRate",
      "outputs": [
        {
          "internalType": "uint256",
          "name": "",
          "type": "uint256"
        }
      ],
      "stateMutability": "view",
      "type": "function"
    },
    {
      "inputs": [],
      "name": "getPTRateAtExpiry",
      "outputs": [
        {
          "internalType": "uint256",
          "name": "",
          "type": "uint256"
        }
      ],
      "stateMutability": "view",
      "type": "function"
    },
    {
      "inputs": [],
      "name": "getYT",
      "outputs": [
        {
          "internalType": "address",
          "name": "",
          "type": "address"
        }
      ],
      "stateMutability": "view",
      "type": "function"
    },
    {
      "inputs": [],
      "name": "ibt",
      "outputs": [
        {
          "internalType": "address",
          "name": "",
          "type": "address"
        }
      ],
      "stateMutability": "view",
      "type": "function"
    },
    {
      "inputs": [
        {
          "internalType": "address",
          "name": "spender",
          "type": "address"
        },
        {
          "internalType": "uint256",
          "name": "addedValue",
          "type": "uint256"
        }
      ],
      "name": "increaseAllowance",
      "outputs": [
        {
          "internalType": "bool",
          "name": "",
          "type": "bool"
        }
      ],
      "stateMutability": "nonpayable",
      "type": "function"
    },
    {
      "inputs": [
        {
          "internalType": "string",
          "name": "_name",
          "type": "string"
        },
        {
          "internalType": "string",
          "name": "_symbol",
          "type": "string"
        },
        {
          "internalType": "address",
          "name": "_ibt",
          "type": "address"
        },
        {
          "internalType": "contract IERC20MetadataUpgradeable",
          "name": "_asset",
          "type": "address"
        },
        {
          "internalType": "uint256",
          "name": "_expiry",
          "type": "uint256"
        },
        {
          "internalType": "uint256",
          "name": "_max_fees",
          "type": "uint256"
        },
        {
          "internalType": "address",
          "name": "_registry",
          "type": "address"
        },
        {
          "internalType": "address",
          "name": "_ytBeacon",
          "type": "address"
        }
      ],
      "name": "initialize",
      "outputs": [],
      "stateMutability": "nonpayable",
      "type": "function"
    },
    {
      "inputs": [],
      "name": "maturity",
      "outputs": [
        {
          "internalType": "uint256",
          "name": "",
          "type": "uint256"
        }
      ],
      "stateMutability": "view",
      "type": "function"
    },
    {
      "inputs": [
        {
          "internalType": "address",
          "name": "",
          "type": "address"
        }
      ],
      "name": "maxDeposit",
      "outputs": [
        {
          "internalType": "uint256",
          "name": "",
          "type": "uint256"
        }
      ],
      "stateMutability": "view",
      "type": "function"
    },
    {
      "inputs": [
        {
          "internalType": "address",
          "name": "",
          "type": "address"
        }
      ],
      "name": "maxMint",
      "outputs": [
        {
          "internalType": "uint256",
          "name": "",
          "type": "uint256"
        }
      ],
      "stateMutability": "view",
      "type": "function"
    },
    {
      "inputs": [],
      "name": "maxProtocolFee",
      "outputs": [
        {
          "internalType": "uint256",
          "name": "",
          "type": "uint256"
        }
      ],
      "stateMutability": "view",
      "type": "function"
    },
    {
      "inputs": [
        {
          "internalType": "address",
          "name": "owner",
          "type": "address"
        }
      ],
      "name": "maxRedeem",
      "outputs": [
        {
          "internalType": "uint256",
          "name": "",
          "type": "uint256"
        }
      ],
      "stateMutability": "view",
      "type": "function"
    },
    {
      "inputs": [
        {
          "internalType": "address",
          "name": "owner",
          "type": "address"
        }
      ],
      "name": "maxWithdraw",
      "outputs": [
        {
          "internalType": "uint256",
          "name": "",
          "type": "uint256"
        }
      ],
      "stateMutability": "view",
      "type": "function"
    },
    {
      "inputs": [
        {
          "internalType": "uint256",
          "name": "shares",
          "type": "uint256"
        },
        {
          "internalType": "address",
          "name": "receiver",
          "type": "address"
        }
      ],
      "name": "mint",
      "outputs": [
        {
          "internalType": "uint256",
          "name": "",
          "type": "uint256"
        }
      ],
      "stateMutability": "nonpayable",
      "type": "function"
    },
    {
      "inputs": [],
      "name": "name",
      "outputs": [
        {
          "internalType": "string",
          "name": "",
          "type": "string"
        }
      ],
      "stateMutability": "view",
      "type": "function"
    },
    {
      "inputs": [
        {
          "internalType": "address",
          "name": "owner",
          "type": "address"
        }
      ],
      "name": "nonces",
      "outputs": [
        {
          "internalType": "uint256",
          "name": "",
          "type": "uint256"
        }
      ],
      "stateMutability": "view",
      "type": "function"
    },
    {
      "inputs": [],
      "name": "owner",
      "outputs": [
        {
          "internalType": "address",
          "name": "",
          "type": "address"
        }
      ],
      "stateMutability": "view",
      "type": "function"
    },
    {
      "inputs": [],
      "name": "pause",
      "outputs": [],
      "stateMutability": "nonpayable",
      "type": "function"
    },
    {
      "inputs": [],
      "name": "paused",
      "outputs": [
        {
          "internalType": "bool",
          "name": "",
          "type": "bool"
        }
      ],
      "stateMutability": "view",
      "type": "function"
    },
    {
      "inputs": [],
      "name": "pendingOwner",
      "outputs": [
        {
          "internalType": "address",
          "name": "",
          "type": "address"
        }
      ],
      "stateMutability": "view",
      "type": "function"
    },
    {
      "inputs": [
        {
          "internalType": "address",
          "name": "owner",
          "type": "address"
        },
        {
          "internalType": "address",
          "name": "spender",
          "type": "address"
        },
        {
          "internalType": "uint256",
          "name": "value",
          "type": "uint256"
        },
        {
          "internalType": "uint256",
          "name": "deadline",
          "type": "uint256"
        },
        {
          "internalType": "uint8",
          "name": "v",
          "type": "uint8"
        },
        {
          "internalType": "bytes32",
          "name": "r",
          "type": "bytes32"
        },
        {
          "internalType": "bytes32",
          "name": "s",
          "type": "bytes32"
        }
      ],
      "name": "permit",
      "outputs": [],
      "stateMutability": "nonpayable",
      "type": "function"
    },
    {
      "inputs": [
        {
          "internalType": "uint256",
          "name": "assets",
          "type": "uint256"
        }
      ],
      "name": "previewDeposit",
      "outputs": [
        {
          "internalType": "uint256",
          "name": "",
          "type": "uint256"
        }
      ],
      "stateMutability": "view",
      "type": "function"
    },
    {
      "inputs": [
        {
          "internalType": "uint256",
          "name": "shares",
          "type": "uint256"
        }
      ],
      "name": "previewMint",
      "outputs": [
        {
          "internalType": "uint256",
          "name": "",
          "type": "uint256"
        }
      ],
      "stateMutability": "view",
      "type": "function"
    },
    {
      "inputs": [
        {
          "internalType": "uint256",
          "name": "shares",
          "type": "uint256"
        }
      ],
      "name": "previewRedeem",
      "outputs": [
        {
          "internalType": "uint256",
          "name": "",
          "type": "uint256"
        }
      ],
      "stateMutability": "view",
      "type": "function"
    },
    {
      "inputs": [
        {
          "internalType": "uint256",
          "name": "assets",
          "type": "uint256"
        }
      ],
      "name": "previewWithdraw",
      "outputs": [
        {
          "internalType": "uint256",
          "name": "",
          "type": "uint256"
        }
      ],
      "stateMutability": "view",
      "type": "function"
    },
    {
      "inputs": [
        {
          "internalType": "uint256",
          "name": "shares",
          "type": "uint256"
        },
        {
          "internalType": "address",
          "name": "receiver",
          "type": "address"
        },
        {
          "internalType": "address",
          "name": "owner",
          "type": "address"
        }
      ],
      "name": "redeem",
      "outputs": [
        {
          "internalType": "uint256",
          "name": "assets",
          "type": "uint256"
        }
      ],
      "stateMutability": "nonpayable",
      "type": "function"
    },
    {
      "inputs": [],
      "name": "renounceOwnership",
      "outputs": [],
      "stateMutability": "nonpayable",
      "type": "function"
    },
    {
      "inputs": [
        {
          "internalType": "address",
          "name": "_feeCollector",
          "type": "address"
        }
      ],
      "name": "setFeeCollector",
      "outputs": [],
      "stateMutability": "nonpayable",
      "type": "function"
    },
    {
      "inputs": [
        {
          "internalType": "uint256",
          "name": "newMaxFee",
          "type": "uint256"
        }
      ],
      "name": "setMaxProtocolFee",
      "outputs": [],
      "stateMutability": "nonpayable",
      "type": "function"
    },
    {
      "inputs": [],
      "name": "storeRatesAtExpiry",
      "outputs": [
        {
          "internalType": "uint256",
          "name": "",
          "type": "uint256"
        },
        {
          "internalType": "uint256",
          "name": "",
          "type": "uint256"
        }
      ],
      "stateMutability": "nonpayable",
      "type": "function"
    },
    {
      "inputs": [],
      "name": "symbol",
      "outputs": [
        {
          "internalType": "string",
          "name": "",
          "type": "string"
        }
      ],
      "stateMutability": "view",
      "type": "function"
    },
    {
      "inputs": [],
      "name": "totalAssets",
      "outputs": [
        {
          "internalType": "uint256",
          "name": "",
          "type": "uint256"
        }
      ],
      "stateMutability": "view",
      "type": "function"
    },
    {
      "inputs": [],
      "name": "totalSupply",
      "outputs": [
        {
          "internalType": "uint256",
          "name": "",
          "type": "uint256"
        }
      ],
      "stateMutability": "view",
      "type": "function"
    },
    {
      "inputs": [
        {
          "internalType": "address",
          "name": "to",
          "type": "address"
        },
        {
          "internalType": "uint256",
          "name": "amount",
          "type": "uint256"
        }
      ],
      "name": "transfer",
      "outputs": [
        {
          "internalType": "bool",
          "name": "",
          "type": "bool"
        }
      ],
      "stateMutability": "nonpayable",
      "type": "function"
    },
    {
      "inputs": [
        {
          "internalType": "address",
          "name": "from",
          "type": "address"
        },
        {
          "internalType": "address",
          "name": "to",
          "type": "address"
        },
        {
          "internalType": "uint256",
          "name": "amount",
          "type": "uint256"
        }
      ],
      "name": "transferFrom",
      "outputs": [
        {
          "internalType": "bool",
          "name": "",
          "type": "bool"
        }
      ],
      "stateMutability": "nonpayable",
      "type": "function"
    },
    {
      "inputs": [
        {
          "internalType": "address",
          "name": "newOwner",
          "type": "address"
        }
      ],
      "name": "transferOwnership",
      "outputs": [],
      "stateMutability": "nonpayable",
      "type": "function"
    },
    {
      "inputs": [],
      "name": "unPause",
      "outputs": [],
      "stateMutability": "nonpayable",
      "type": "function"
    },
    {
      "inputs": [],
      "name": "unclaimedFeesInIBT",
      "outputs": [
        {
          "internalType": "uint256",
          "name": "",
          "type": "uint256"
        }
      ],
      "stateMutability": "view",
      "type": "function"
    },
    {
      "inputs": [],
      "name": "underlying",
      "outputs": [
        {
          "internalType": "address",
          "name": "",
          "type": "address"
        }
      ],
      "stateMutability": "view",
      "type": "function"
    },
    {
      "inputs": [
        {
          "internalType": "address",
          "name": "_user",
          "type": "address"
        }
      ],
      "name": "updateYield",
      "outputs": [
        {
          "internalType": "uint256",
          "name": "updatedUserYieldInIBT",
          "type": "uint256"
        }
      ],
      "stateMutability": "nonpayable",
      "type": "function"
    },
    {
      "inputs": [],
      "name": "updateZapDepositor",
      "outputs": [],
      "stateMutability": "nonpayable",
      "type": "function"
    },
    {
      "inputs": [
        {
          "internalType": "uint256",
          "name": "assets",
          "type": "uint256"
        },
        {
          "internalType": "address",
          "name": "receiver",
          "type": "address"
        },
        {
          "internalType": "address",
          "name": "owner",
          "type": "address"
        }
      ],
      "name": "withdraw",
      "outputs": [
        {
          "internalType": "uint256",
          "name": "shares",
          "type": "uint256"
        }
      ],
      "stateMutability": "nonpayable",
      "type": "function"
    },
    {
      "inputs": [
        {
          "internalType": "address",
          "name": "receiver",
          "type": "address"
        },
        {
          "internalType": "address",
          "name": "owner",
          "type": "address"
        }
      ],
      "name": "withdrawAfterExpiry",
      "outputs": [
        {
          "internalType": "uint256",
          "name": "withdrawnAssets",
          "type": "uint256"
        }
      ],
      "stateMutability": "nonpayable",
      "type": "function"
    },
    {
      "inputs": [
        {
          "internalType": "address",
          "name": "",
          "type": "address"
        }
      ],
      "name": "yieldOfUserInIBT",
      "outputs": [
        {
          "internalType": "uint256",
          "name": "",
          "type": "uint256"
        }
      ],
      "stateMutability": "view",
      "type": "function"
    },
    {
      "inputs": [],
      "name": "yt",
      "outputs": [
        {
          "internalType": "contract YT",
          "name": "",
          "type": "address"
        }
      ],
      "stateMutability": "view",
      "type": "function"
    }
  ],
  "bytecode": {
    "object": "0x60806040523480156200001157600080fd5b506200001c62000022565b620000e3565b600054610100900460ff16156200008f5760405162461bcd60e51b815260206004820152602760248201527f496e697469616c697a61626c653a20636f6e747261637420697320696e697469604482015266616c697a696e6760c81b606482015260840160405180910390fd5b60005460ff90811614620000e1576000805460ff191660ff9081179091556040519081527f7f26b83ff96e1f2b6a682f133852f6798a09c465da95921460cefb38474024989060200160405180910390a15b565b615a7d80620000f36000396000f3fe60806040523480156200001157600080fd5b5060043610620004bd5760003560e01c80637cafde7f116200027d578063bf2d75fb1162000161578063d905777e11620000d3578063ef8b30f71162000092578063ef8b30f71462000a22578063efd98dc21462000a39578063f2fde38b1462000a43578063f7b188a51462000a5a578063f90d63db1462000a6457600080fd5b8063d905777e14620009cb578063dd62ed3e14620009e2578063e184c9be14620009f9578063e30c39781462000a04578063e8513ccd1462000a1757600080fd5b8063c644fe941162000120578063c644fe941462000980578063c6e6f59214620005cc578063ce96cb771462000993578063d294f09314620009aa578063d505accf14620009b457600080fd5b8063bf2d75fb1462000914578063c43f357b1462000927578063c5440570146200093c578063c56620331462000951578063c63d75b6146200096857600080fd5b8063a42dce8011620001fb578063b346db0c11620001ba578063b346db0c14620008a1578063b3d7f6b914620008b8578063b460af9414620008cf578063ba08765214620008e6578063bafc0f1414620008fd57600080fd5b8063a42dce801462000845578063a457c2d7146200085c578063a60891391462000873578063a9059cbb146200088a578063aca505f714620006b057600080fd5b806394bf804d116200024857806394bf804d14620007e357806395d89b4114620007fa578063a1116dc41462000804578063a13c91a3146200081b578063a1c5b3e1146200083b57600080fd5b80637cafde7f14620007995780637ecebe0014620007b05780638456cb5914620007c75780638da5cb5b14620007d157600080fd5b806338d52e0f11620003a55780635c975abb11620003235780636f307dc311620002e25780636f307dc3146200074f57806370a082311462000759578063715018a6146200078557806375ba1dac14620006c757806379ba5097146200078f57600080fd5b80635c975abb146200070c5780635ee31c7c14620007195780636793642014620007245780636956df17146200072e5780636e553f65146200073857600080fd5b8063406cf2291162000370578063406cf22914620006a657806344ba8add14620006b057806347609bd414620006c75780634cdad50614620006de5780634f72ec2f14620006f557600080fd5b806338d52e0f146200064f5780633950935114620006615780633ca7c82d1462000678578063402d267d146200068f57600080fd5b80631f2b4f24116200043f5780632b930fa311620003fe5780632b930fa314620005e35780632c660fbc14620005ed578063313ce56714620006115780633644e515146200062e57806336efd16f146200063857600080fd5b80631f2b4f24146200058a578063204f83f9146200059457806321b62f96146200059e57806323b872dd14620005b557806325a8d87d14620005cc57600080fd5b8063095ea7b3116200048c578063095ea7b314620005365780630a28a477146200055e578063138695a7146200057557806318160ddd14620005815780631dc7f521146200051f57600080fd5b806301e1d11414620004c257806304aa50ad14620004df57806306fdde03146200050657806307a2d13a146200051f575b600080fd5b620004cc62000a7b565b6040519081526020015b60405180910390f35b6101a1546001600160a01b03165b6040516001600160a01b039091168152602001620004d6565b6200051062000b03565b604051620004d691906200494c565b620004cc6200053036600462004961565b62000b9d565b6200054d6200054736600462004991565b62000bb0565b6040519015158152602001620004d6565b620004cc6200056f36600462004961565b62000bca565b6200057f62000c98565b005b603554620004cc565b61019854620004cc565b6101a254620004cc565b620004cc620005af366004620049c0565b62000d68565b6200054d620005c6366004620049fe565b6200102c565b620004cc620005dd36600462004961565b62001056565b620004cc62001063565b620004cc620005fe36600462004a44565b6101a86020526000908152604090205481565b6200061b62001093565b60405160ff9091168152602001620004d6565b620004cc6200110a565b620004cc6200064936600462004a64565b62001116565b6065546001600160a01b0316620004ed565b6200054d6200067236600462004991565b62001212565b620004cc6200068936600462004961565b6200123a565b620004cc620006a036600462004a44565b62001247565b620004cc62001269565b620004cc620006c136600462004a8c565b620012e1565b620004cc620006d836600462004a8c565b62001300565b620004cc620006ef36600462004961565b62001314565b6200057f62000706366004620049c0565b620013dd565b6101625460ff166200054d565b620004cc6101a55481565b61019954620004cc565b620004cc62001461565b620004cc6200074936600462004a64565b62001491565b620004ed62001585565b620004cc6200076a36600462004a44565b6001600160a01b031660009081526033602052604090205490565b6200057f6200159a565b6200057f620015b2565b620004cc620007aa36600462004961565b62001631565b620004cc620007c136600462004a44565b62001974565b6200057f62001993565b60fe546001600160a01b0316620004ed565b620004cc620007f436600462004a64565b620019a7565b62000510620019cb565b6200057f6200081536600462004b5a565b620019dc565b6200082562001ed4565b60408051928352602083019190915201620004d6565b61019d54620004cc565b6200057f6200085636600462004a44565b62001fa5565b6200054d6200086d36600462004991565b62002070565b6200057f6200088436600462004961565b620020fc565b6200054d6200089b36600462004991565b6200213c565b620004cc620008b236600462004961565b6200214c565b620004cc620008c936600462004961565b62002159565b620004cc620008e036600462004c2d565b62002168565b620004cc620008f736600462004c2d565b62002585565b620004cc6200090e36600462004a64565b62002737565b61019c546001600160a01b0316620004ed565b6101a354620004ed906001600160a01b031681565b6101a154620004ed906001600160a01b031681565b620004cc6200096236600462004a64565b62002790565b620004cc6200097936600462004a44565b5060001990565b6101a3546001600160a01b0316620004ed565b620004cc620009a436600462004a44565b620027e9565b620004cc6200295f565b6200057f620009c536600462004c84565b62002ab9565b620004cc620009dc36600462004a44565b62002c29565b620004cc620009f3366004620049c0565b62002c5e565b620004cc6101a25481565b610130546001600160a01b0316620004ed565b620004cc6101a45481565b620004cc62000a3336600462004961565b62002c89565b61019f54620004cc565b6200057f62000a5436600462004a44565b62002cc6565b6200057f62002d3b565b620004cc62000a7536600462004a44565b62002d4f565b6101a3546040516370a0823160e01b815230600482015260009182916001600160a01b03909116906370a0823190602401602060405180830381865afa15801562000aca573d6000803e3d6000fd5b505050506040513d601f19601f8201168201806040525081019062000af0919062004cfc565b905062000afd816200123a565b91505090565b60606036805462000b149062004d16565b80601f016020809104026020016040519081016040528092919081815260200182805462000b429062004d16565b801562000b935780601f1062000b675761010080835404028352916020019162000b93565b820191906000526020600020905b81548152906001019060200180831162000b7557829003601f168201915b5050505050905090565b600062000baa8262002e3c565b92915050565b60003362000bc081858562002e5d565b5060019392505050565b600062000bd662002f85565b3360009081526101a660209081526040808320546101a790925282205490918062000c0062002fce565b9092509050600062000c16338684878762003009565b9050600062000c58670de0b6b3a76400006101a554670de0b6b3a764000062000c40919062004d62565b62000c4c908562004d7c565b62000689919062004db4565b905080881162000c7057506000979650505050505050565b62000c8762000c80828a62004d62565b8562001300565b98975050505050505050565b919050565b62000ca26200327e565b6101a060009054906101000a90046001600160a01b03166001600160a01b0316630e5f99c56040518163ffffffff1660e01b8152600401602060405180830381865afa15801562000cf7573d6000803e3d6000fd5b505050506040513d601f19601f8201168201806040525081019062000d1d919062004dd7565b61019780546001600160a01b0319166001600160a01b039290921691821790556040517f1e905582c079dde1c881fd4c1b17901d640dbeb6e590d726a1a3c42cc7da1c3d90600090a2565b60006101a25442101562000d995760405162461bcd60e51b815260040162000d909062004df7565b60405180910390fd5b62000da362002f85565b6001600160a01b038216331462000dce5760405162461bcd60e51b815260040162000d909062004e38565b600062000ddb8362002c29565b9050600062000dea8262001314565b905062000dfb3386868486620032da565b600062000e088562002d4f565b6001600160a01b03861660009081526101a8602052604081208190556101a55491925090670de0b6b3a76400009062000e42908462004d7c565b62000e4e919062004db4565b905062000e5b8162003375565b62000e67818362004d62565b9150866001600160a01b03167f756e93dd7a18a6d27429a3d68659332413f14c4494d1dc68a987dfaba5c1ca8b62000e9f846200123a565b60405190815260200160405180910390a262000ebb826200123a565b62000ec7908462004e89565b6101a354604051632d182be560e21b81529196506001600160a01b03169063b460af949062000eff9088908b90309060040162004ea4565b6020604051808303816000875af115801562000f1f573d6000803e3d6000fd5b505050506040513d601f19601f8201168201806040525081019062000f45919062004cfc565b506101a1546040516370a0823160e01b81526001600160a01b0388811660048301529091169063bd6e3f7d90889083906370a0823190602401602060405180830381865afa15801562000f9c573d6000803e3d6000fd5b505050506040513d601f19601f8201168201806040525081019062000fc2919062004cfc565b6040516001600160e01b031960e085901b1681526001600160a01b0390921660048301526024820152604401600060405180830381600087803b1580156200100957600080fd5b505af11580156200101e573d6000803e3d6000fd5b505050505050505092915050565b6000336200103c858285620033a2565b6200104985858562003423565b60019150505b9392505050565b600062000baa82620035d6565b60006101a2544210156200108b5760405162461bcd60e51b815260040162000d909062004df7565b506101955490565b6101a3546040805163313ce56760e01b815290516000926001600160a01b03169163313ce5679160048083019260209291908290030181865afa158015620010df573d6000803e3d6000fd5b505050506040513d601f19601f8201168201806040525081019062001105919062004ec3565b905090565b600062001105620035f8565b60006101a2544211156200113e5760405162461bcd60e51b815260040162000d909062004ee3565b6200114862002f85565b60655462001162906001600160a01b031683308662003675565b6065546101a35462001182916001600160a01b03908116911685620036e2565b6101a354604051636e553f6560e01b8152600481018590523060248201526000916001600160a01b031690636e553f65906044016020604051808303816000875af1158015620011d6573d6000803e3d6000fd5b505050506040513d601f19601f82011682018060405250810190620011fc919062004cfc565b90506200120a81336200379b565b949350505050565b60003362000bc081858562001228838362002c5e565b62001234919062004e89565b62002e5d565b600062000baa826200386c565b600062001253620038df565b6200126057600062000baa565b60001992915050565b6101a1546040516370a0823160e01b815233600482015260009162001105916001600160a01b03909116906370a0823190602401602060405180830381865afa158015620012bb573d6000803e3d6000fd5b505050506040513d601f19601f82011682018060405250810190620007aa919062004cfc565b61019854600090620012f4838562004d7c565b6200104f919062004db4565b6000816101985484620012f4919062004d7c565b60006101a2544210156200133c5760405162461bcd60e51b815260040162000d909062004df7565b6200134662002f85565b6101945460ff161562001384576000620013648361019654620012e1565b9050600062001377826101955462001300565b90506200120a816200123a565b60405162461bcd60e51b815260206004820152602760248201527f4675747572655661756c743a20526174657320617420657870697279206e6f74604482015266081cdd1bdc995960ca1b606482015260840162000d90565b6101a1546001600160a01b03163314620014455760405162461bcd60e51b815260206004820152602260248201527f4675747572655661756c743a2043616c6c65722073686f756c64206265206120604482015261165560f21b606482015260840162000d90565b620014508262002d4f565b506200145c8162002d4f565b505050565b60006101a254421015620014895760405162461bcd60e51b815260040162000d909062004df7565b506101965490565b60006101a254421115620014b95760405162461bcd60e51b815260040162000d909062004ee3565b620014c362002f85565b606554620014dd906001600160a01b031633308662003675565b6065546101a354620014fd916001600160a01b03908116911685620036e2565b6101a354604051636e553f6560e01b8152600481018590523060248201526000916001600160a01b031690636e553f65906044016020604051808303816000875af115801562001551573d6000803e3d6000fd5b505050506040513d601f19601f8201168201806040525081019062001577919062004cfc565b90506200120a81846200379b565b6000620011056065546001600160a01b031690565b620015a46200327e565b620015b06000620038fc565b565b6101305433906001600160a01b03168114620016235760405162461bcd60e51b815260206004820152602960248201527f4f776e61626c6532537465703a2063616c6c6572206973206e6f7420746865206044820152683732bb9037bbb732b960b91b606482015260840162000d90565b6200162e81620038fc565b50565b60006101a254421115620016595760405162461bcd60e51b815260040162000d909062004ee3565b336000620016678262002d4f565b6101a1546040516370a0823160e01b81526001600160a01b038581166004830152929350600092909116906370a0823190602401602060405180830381865afa158015620016b9573d6000803e3d6000fd5b505050506040513d601f19601f82011682018060405250810190620016df919062004cfc565b90508115801590620016f9575084151580620016f9575080155b1562001969578085116200170e578462001710565b805b9450600081156200173d5762001737610198548762001730919062004d7c565b8362003918565b62001742565b610198545b6101985490915062001755828562004d7c565b62001761919062004db4565b6001600160a01b03851660009081526101a86020526040902054909350831115620017e75760405162461bcd60e51b815260206004820152602f60248201527f4675747572655661756c743a207969656c64546f5472616e736665722065786360448201526e1959591cc81d5cd95c881e5a595b19608a1b606482015260840162000d90565b6001600160a01b03841660009081526101a86020526040812080548592906200181290849062004d62565b90915550506101a554600090670de0b6b3a76400009062001834908662004d7c565b62001840919062004db4565b90506200184d8162003375565b62001859818562004d62565b9350600062001868856200123a565b9050856001600160a01b03167f756e93dd7a18a6d27429a3d68659332413f14c4494d1dc68a987dfaba5c1ca8b82604051620018a691815260200190565b60405180910390a261019454610100900460ff16620018dd57610194805461ff001916610100179055955062000c93945050505050565b6101a354604051632d182be560e21b81526001600160a01b039091169063b460af9490620019149084908a90309060040162004ea4565b6020604051808303816000875af115801562001934573d6000803e3d6000fd5b505050506040513d601f19601f820116820180604052508101906200195a919062004cfc565b50955062000c93945050505050565b506000949350505050565b6001600160a01b038116600090815260cb602052604081205462000baa565b6200199d6200327e565b620015b062003957565b600080620019b58462000b9d565b9050620019c3818462001491565b509392505050565b60606037805462000b149062004d16565b600054610100900460ff1615808015620019fd5750600054600160ff909116105b8062001a195750303b15801562001a19575060005460ff166001145b62001a7e5760405162461bcd60e51b815260206004820152602e60248201527f496e697469616c697a61626c653a20636f6e747261637420697320616c72656160448201526d191e481a5b9a5d1a585b1a5e995960921b606482015260840162000d90565b6000805460ff19166001179055801562001aa2576000805461ff0019166101001790555b6001600160a01b03821662001b205760405162461bcd60e51b815260206004820152603a60248201527f4675747572655661756c743a20797420626561636f6e2061646472657373207360448201527f686f756c64206e6f7420626520657175616c20746f207a65726f000000000000606482015260840162000d90565b6001600160a01b03871662001b8c5760405162461bcd60e51b815260206004820152602b60248201527f4675747572655661756c743a2043616e6e6f74207365742069627420746f207a60448201526a65726f206164647265737360a81b606482015260840162000d90565b62001b988989620039b5565b62001ba386620039ef565b62001bae8962003a24565b62001bb862003a73565b62001bc262003aa7565b846101a281905550866001600160a01b031663313ce5676040518163ffffffff1660e01b8152600401602060405180830381865afa15801562001c09573d6000803e3d6000fd5b505050506040513d601f19601f8201168201806040525081019062001c2f919062004ec3565b62001c3c90600a62005017565b61019881905550856001600160a01b031663313ce5676040518163ffffffff1660e01b8152600401602060405180830381865afa15801562001c82573d6000803e3d6000fd5b505050506040513d601f19601f8201168201806040525081019062001ca8919062004ec3565b62001cb590600a62005017565b610199556101a380546001600160a01b0319166001600160a01b038916179055604080518082018252600b81526a2cb4b2b632102a37b5b2b760a91b60208083019190915282518084019093526002835261165560f21b9083015262001d1c918462003adb565b6101a180546001600160a01b0319166001600160a01b03929092169190911790556101985462001d4c906200123a565b61019f556101995461019d55670de0b6b3a764000084111562001dc95760405162461bcd60e51b815260206004820152602e60248201527f4675747572655661756c743a204d617820666565732073686f756c642062652060448201526d6c657373207468616e203130302560901b606482015260840162000d90565b6101a58490556101a080546001600160a01b0385166001600160a01b03199091168117909155610194805461ff00191661010017905560408051630e5f99c560e01b81529051630e5f99c5916004808201926020929091908290030181865afa15801562001e3b573d6000803e3d6000fd5b505050506040513d601f19601f8201168201806040525081019062001e61919062004dd7565b61019780546001600160a01b0319166001600160a01b0392909216919091179055801562001ec9576000805461ff0019169055604051600181527f7f26b83ff96e1f2b6a682f133852f6798a09c465da95921460cefb38474024989060200160405180910390a15b505050505050505050565b6000806101a25442101562001efd5760405162461bcd60e51b815260040162000d909062004df7565b6101945460ff161562001f675760405162461bcd60e51b815260206004820152602b60248201527f4675747572655661756c743a2052617465732061742065787069727920616c7260448201526a1958591e481cdd1bdc995960aa1b606482015260840162000d90565b610194805460ff1916600117905560008062001f8262003baa565b61019581905561019682905561019f81905561019d8290559450925050505b9091565b62001faf6200327e565b6001600160a01b038116620020255760405162461bcd60e51b815260206004820152603560248201527f4675747572655661756c743a2043616e6e6f74207365742066656520636f6c6c6044820152746563746f7220746f207a65726f206164647265737360581b606482015260840162000d90565b61019c80546001600160a01b0319166001600160a01b0383169081179091556040517ff97f0ac0b801f3b371667c7a2c930d65f33a0a01307fab585a6aa2bcf111252290600090a250565b6000338162002080828662002c5e565b905083811015620020e25760405162461bcd60e51b815260206004820152602560248201527f45524332303a2064656372656173656420616c6c6f77616e63652062656c6f77604482015264207a65726f60d81b606482015260840162000d90565b620020f1828686840362002e5d565b506001949350505050565b620021066200327e565b6101a5546040518291907f6868f9bfe82e163820855cc99b15f5784f59e4192cd924d2e744ee70d84542d190600090a36101a555565b60003362000bc081858562003423565b600062000baa8262003c01565b600062000baa82600162003c35565b60006101a254421115620021905760405162461bcd60e51b815260040162000d909062004ee3565b6200219a62002f85565b6001600160a01b0382163314620021c55760405162461bcd60e51b815260040162000d909062004e38565b6000620021d28362002d4f565b90506000620021e184620027e9565b9050858110156200224e5760405162461bcd60e51b815260206004820152603060248201527f4675747572655661756c743a20496e70757420616d6f756e742065786365656460448201526f1cc81dda5d1a191c985dc81b1a5b5a5d60821b606482015260840162000d90565b6101a1546040516370a0823160e01b81526001600160a01b03868116600483015260009216906370a0823190602401602060405180830381865afa1580156200229b573d6000803e3d6000fd5b505050506040513d601f19601f82011682018060405250810190620022c1919062004cfc565b90506000620022e5866001600160a01b031660009081526033602052604090205490565b9050818111620022f65780620022f8565b815b905060006200230b620008b28362000b9d565b90508060000362002325576000955050505050506200104f565b6000670de0b6b3a76400006101a5548762002341919062004d7c565b6200234d919062004db4565b905060006200235c8b6200214c565b905060006200236c838962004d62565b821115620023af5750848362002383848a62004d62565b6200238f908462004d62565b6200239b908762004d7c565b620023a7919062004db4565b985062002468565b620023bb838962004d62565b6000036200243d5760405162461bcd60e51b815260206004820152604260248201527f4675747572655661756c743a204e6574207969656c642069732030207768657260448201527f65617320737570706f73656420746f20636f7665722074686520776974686472606482015261617760f01b608482015260a40162000d90565b62002449838962004d62565b62002455878462004d7c565b62002461919062004db4565b9050600098505b610194805461ff00191690556200247f8162001631565b506101a15460405163bd6e3f7d60e01b81526001600160a01b038c81166004830152602482018c90529091169063bd6e3f7d90604401600060405180830381600087803b158015620024d057600080fd5b505af1158015620024e5573d6000803e3d6000fd5b50505050620024f8338c8c8f8d620032da565b6101a354604051632d182be560e21b81526001600160a01b039091169063b460af94906200252f908f908f90309060040162004ea4565b6020604051808303816000875af11580156200254f573d6000803e3d6000fd5b505050506040513d601f19601f8201168201806040525081019062002575919062004cfc565b5050505050505050509392505050565b60006101a254421015620025ad5760405162461bcd60e51b815260040162000d909062004df7565b620025b762002f85565b6001600160a01b0382163314620025e25760405162461bcd60e51b815260040162000d909062004e38565b620025ed8262002c29565b841115620026485760405162461bcd60e51b815260206004820152602160248201527f4675747572655661756c743a2072656465656d206d6f7265207468616e206d616044820152600f60fb1b606482015260840162000d90565b620026538462001314565b9050620026643384848488620032da565b6101a354604051632d182be560e21b81526001600160a01b039091169063b460af94906200269b9084908790309060040162004ea4565b6020604051808303816000875af1158015620026bb573d6000803e3d6000fd5b505050506040513d601f19601f82011682018060405250810190620026e1919062004cfc565b50826001600160a01b0316826001600160a01b03167fd12200efa34901b99367694174c3b0d32c99585fdf37c7c26892136ddd0836d9836040516200272891815260200190565b60405180910390a39392505050565b60006101a2544211156200275f5760405162461bcd60e51b815260040162000d909062004ee3565b6200276962002f85565b6101a35462002784906001600160a01b031633308662003675565b6200104f83836200379b565b60006101a254421115620027b85760405162461bcd60e51b815260040162000d909062004ee3565b620027c262002f85565b6101a354620027dd906001600160a01b031683308662003675565b6200104f83336200379b565b6000620027f562002f85565b6001600160a01b0382166000908152603360205260408120546101a1546040516370a0823160e01b81526001600160a01b038681166004830152929350600092909116906370a0823190602401602060405180830381865afa15801562002860573d6000803e3d6000fd5b505050506040513d601f19601f8201168201806040525081019062002886919062004cfc565b905060006101a2544211620028ae57818311620028a45782620028a6565b815b9050620028b1565b50815b600080620028be62002fce565b6001600160a01b03891660009081526101a660209081526040808320546101a790925282205493955091935090919081156200290657620029038a8486858962003009565b90505b620029128686620012e1565b62002945670de0b6b3a7640000836101a554670de0b6b3a764000062002939919062004d62565b62000c4c919062004d7c565b62002951919062004e89565b9a9950505050505050505050565b61019c546000906001600160a01b03163314620029d35760405162461bcd60e51b815260206004820152602b60248201527f4675747572655661756c743a2043616c6c65722073686f756c6420626520464560448201526a22afa1a7a62622a1aa27a960a91b606482015260840162000d90565b6101a4546000620029e4826200123a565b60006101a4556101a35461019c54604051632d182be560e21b81529293506001600160a01b039182169263b460af949262002a29928692911690309060040162004ea4565b6020604051808303816000875af115801562002a49573d6000803e3d6000fd5b505050506040513d601f19601f8201168201806040525081019062002a6f919062004cfc565b5061019c546040518381526001600160a01b03909116907f20ca5094f3a20c321cbe4123d0f01b276b81df0fa24cd4d83d9253956035d8639060200160405180910390a292915050565b8342111562002b0b5760405162461bcd60e51b815260206004820152601d60248201527f45524332305065726d69743a206578706972656420646561646c696e65000000604482015260640162000d90565b60007f6e71edae12b1b97f4d1f60370fef10105fa2faae0126114a169c64845d6126c988888862002b3c8c62003d0a565b6040805160208101969096526001600160a01b0394851690860152929091166060840152608083015260a082015260c0810186905260e001604051602081830303815290604052805190602001209050600062002b998262003d32565b9050600062002bab8287878762003d83565b9050896001600160a01b0316816001600160a01b03161462002c105760405162461bcd60e51b815260206004820152601e60248201527f45524332305065726d69743a20696e76616c6964207369676e61747572650000604482015260640162000d90565b62002c1d8a8a8a62002e5d565b50505050505050505050565b60006101a25442101562002c3f57600062000baa565b6001600160a01b03821660009081526033602052604090205462000baa565b6001600160a01b03918216600090815260346020908152604080832093909416825291909152205490565b60006101a25442111562002cb15760405162461bcd60e51b815260040162000d909062004ee3565b62002cbb62002f85565b62000baa8262001056565b62002cd06200327e565b61013080546001600160a01b0383166001600160a01b0319909116811790915562002d0360fe546001600160a01b031690565b6001600160a01b03167f38d16b8cac22d99fc7c124b9cd0de2d3fa1faef420bfe791d8c362d765e2270060405160405180910390a350565b62002d456200327e565b620015b062003daf565b600080600062002d5e62003dec565b6001600160a01b03861660009081526101a660209081526040808320546101a790925290912054919450919250811562002de95762002da1868386848762003009565b6001600160a01b03871660008181526101a860205260408082208490555192975087927f18cb9436df0c2ab8f3a0284742076c6ddf8a478776316b4b0d008d79372354909190a35b83821462002e0e576001600160a01b03861660009081526101a6602052604090208490555b82811462002e33576001600160a01b03861660009081526101a7602052604090208390555b50505050919050565b60008062002e4962002fce565b5061019854909150620012f4828562004d7c565b6001600160a01b03831662002ec15760405162461bcd60e51b8152602060048201526024808201527f45524332303a20617070726f76652066726f6d20746865207a65726f206164646044820152637265737360e01b606482015260840162000d90565b6001600160a01b03821662002f245760405162461bcd60e51b815260206004820152602260248201527f45524332303a20617070726f766520746f20746865207a65726f206164647265604482015261737360f01b606482015260840162000d90565b6001600160a01b0383811660008181526034602090815260408083209487168084529482529182902085905590518481527f8c5be1e5ebec7d5bd14f71427d1e84f3dd0314c0f7b2291e5b200ac8c7c3b925910160405180910390a3505050565b6101625460ff1615620015b05760405162461bcd60e51b815260206004820152601060248201526f14185d5cd8589b194e881c185d5cd95960821b604482015260640162000d90565b6000806101a254421062002ff7576101945460ff16156200138457505061019654610195549091565b6200300162003baa565b915091509091565b6001600160a01b0385811660008181526101a86020526040808220546101a15491516370a0823160e01b8152600481019490945291938493849392849216906370a0823190602401602060405180830381865afa1580156200306f573d6000803e3d6000fd5b505050506040513d601f19601f8201168201806040525081019062003095919062004cfc565b90506000620030b0620030a9838a620012e1565b8b62001300565b90508688148015620030c157508989145b15620030d557829550505050505062003275565b8688148015620030e457508989115b156200311b576200310581620030fb8c8c62004d62565b6101995462003e30565b945062003113858a62001300565b935062003261565b86881115620031e45789891062003162576200313d81620030fb8c8c62004d62565b6200314e83620030fb8a8c62004d62565b6200315a919062004e89565b9450620031d8565b60006200317583620030fb8a8c62004d62565b905060006200319f620031898c8e62004d62565b62003195908562004d7c565b6101995462003918565b9050818111620031bb57620031b5818362004d62565b620031be565b60005b965060648710620031d05786620031d3565b60005b965050505b62003113858a62001300565b60405162461bcd60e51b815260206004820152604560248201527f4675747572655661756c743a205054207261746520696e63726561736564206f60448201527f72206e6f20505420646570656720627574204942542072617465206465637265606482015264617365642160d81b608482015260a40162000d90565b6200326d848462004e89565b955050505050505b95945050505050565b60fe546001600160a01b03163314620015b05760405162461bcd60e51b815260206004820181905260248201527f4f776e61626c653a2063616c6c6572206973206e6f7420746865206f776e6572604482015260640162000d90565b826001600160a01b0316856001600160a01b031614620033015762003301838683620033a2565b6200330d838262003ee5565b826001600160a01b0316846001600160a01b0316866001600160a01b03167ffbde797d201c681b91056529119e0b02407c7bb96a4a2c75c01fc9667232c8db858560405162003366929190918252602082015260400190565b60405180910390a45050505050565b806101a45462003386919062004e89565b6101a45561019a546200339b90829062004e89565b61019a5550565b6000620033b0848462002c5e565b905060001981146200341d57818110156200340e5760405162461bcd60e51b815260206004820152601d60248201527f45524332303a20696e73756666696369656e7420616c6c6f77616e6365000000604482015260640162000d90565b6200341d848484840362002e5d565b50505050565b6001600160a01b038316620034895760405162461bcd60e51b815260206004820152602560248201527f45524332303a207472616e736665722066726f6d20746865207a65726f206164604482015264647265737360d81b606482015260840162000d90565b6001600160a01b038216620034ed5760405162461bcd60e51b815260206004820152602360248201527f45524332303a207472616e7366657220746f20746865207a65726f206164647260448201526265737360e81b606482015260840162000d90565b6001600160a01b03831660009081526033602052604090205481811015620035675760405162461bcd60e51b815260206004820152602660248201527f45524332303a207472616e7366657220616d6f756e7420657863656564732062604482015265616c616e636560d01b606482015260840162000d90565b6001600160a01b0380851660008181526033602052604080822086860390559286168082529083902080548601905591517fddf252ad1be2c89b69c2b068fc378daa952ba7f163c4a11628f55a4df523b3ef90620035c89086815260200190565b60405180910390a36200341d565b600080620035e362002fce565b509050806101985484620012f4919062004d7c565b6000620011057f8b73c3c69bb8fe3d512ecc4cf759cc79239f7b179b0ffacaa9a75d522b39400f6200362960975490565b6098546040805160208101859052908101839052606081018290524660808201523060a082015260009060c0016040516020818303038152906040528051906020012090509392505050565b6040516001600160a01b03808516602483015283166044820152606481018290526200341d9085906323b872dd60e01b906084015b60408051601f198184030181529190526020810180516001600160e01b03166001600160e01b0319909316929092179091526200401d565b604051636eb1769f60e11b81523060048201526001600160a01b038381166024830152600091839186169063dd62ed3e90604401602060405180830381865afa15801562003734573d6000803e3d6000fd5b505050506040513d601f19601f820116820180604052508101906200375a919062004cfc565b62003766919062004e89565b6040516001600160a01b0385166024820152604481018290529091506200341d90859063095ea7b360e01b90606401620036aa565b6000620037a88262002d4f565b506000620037b6846200123a565b9050620037c38162001056565b610197549092506001600160a01b03163303620037ee57620037e833338385620040f6565b620037fc565b620037fc33848385620040f6565b6101a1546040516340c10f1960e01b81526001600160a01b03858116600483015260248201859052909116906340c10f1990604401600060405180830381600087803b1580156200384c57600080fd5b505af115801562003861573d6000803e3d6000fd5b505050505092915050565b6101a3546040516303d1689d60e11b8152600481018390526000916001600160a01b0316906307a2d13a906024015b602060405180830381865afa158015620038b9573d6000803e3d6000fd5b505050506040513d601f19601f8201168201806040525081019062000baa919062004cfc565b600080620038ec62000a7b565b1180620011055750506035541590565b61013080546001600160a01b03191690556200162e816200415f565b600082156200394e57816200392f60018562004d62565b6200393b919062004db4565b6200394890600162004e89565b6200104f565b50600092915050565b6200396162002f85565b610162805460ff191660011790557f62e78cea01bee320cd4e420270b5ea74000d11b0c9f74754ebdbfc544b05a258620039983390565b6040516001600160a01b03909116815260200160405180910390a1565b600054610100900460ff16620039df5760405162461bcd60e51b815260040162000d909062005028565b620039eb8282620041b1565b5050565b600054610100900460ff1662003a195760405162461bcd60e51b815260040162000d909062005028565b6200162e8162004206565b600054610100900460ff1662003a4e5760405162461bcd60e51b815260040162000d909062005028565b6200162e81604051806040016040528060018152602001603160f81b81525062004252565b600054610100900460ff1662003a9d5760405162461bcd60e51b815260040162000d909062005028565b620015b062004296565b600054610100900460ff1662003ad15760405162461bcd60e51b815260040162000d909062005028565b620015b0620042cb565b6000808263077f224a60e01b86863060405160240162003afe9392919062005073565b60408051601f198184030181529181526020820180516001600160e01b03166001600160e01b031990941693909317909252905162003b3d906200483b565b62003b4a929190620050b5565b604051809103906000f08015801562003b67573d6000803e3d6000fd5b506040519092508291506001600160a01b038216907f10aa3cadb8a18de745ab06d0fba238e60656c418d78284b27ab6ea75b7b789e490600090a2509392505050565b600080600062003bbd610198546200123a565b9050600061019f54821062003bd65761019d5462003bf7565b61019f548261019d5462003beb919062004d7c565b62003bf7919062004db4565b9491935090915050565b6101a3546040516363737ac960e11b8152600481018390526000916001600160a01b03169063c6e6f592906024016200389b565b60008062003c4260355490565b9050801562003c695762003c6362003c5962000a7b565b8590838662004302565b6200120a565b6065546040805163313ce56760e01b815290516200120a926001600160a01b03169163313ce5679160048083019260209291908290030181865afa15801562003cb6573d6000803e3d6000fd5b505050506040513d601f19601f8201168201806040525081019062003cdc919062004ec3565b62003ce990600a62005017565b62003cf362001093565b62003d0090600a62005017565b8691908662004302565b6001600160a01b038116600090815260cb602052604090208054600181018255905b50919050565b600062000baa62003d42620035f8565b8360405161190160f01b6020820152602281018390526042810182905260009060620160405160208183030381529060405280519060200120905092915050565b600080600062003d968787878762004369565b9150915062003da58162004432565b5095945050505050565b62003db96200458f565b610162805460ff191690557f5db9ee0a495bf2e6ff9c91a7834c1ba4fdd244a5e8aa4e537bd38aeae4b073aa3362003998565b60008062003df962002fce565b6101a2549193509150421162001fa15761019f54811462003e1b5761019f8190555b61019d54821462001fa15761019d8290559091565b600080806000198587098587029250828110838203039150508060000362003e6f5783828162003e645762003e6462004d9e565b04925050506200104f565b80841162003e7c57600080fd5b60008486880960026001871981018816978890046003810283188082028403028082028403028082028403028082028403028082028403029081029092039091026000889003889004909101858311909403939093029303949094049190911702949350505050565b6001600160a01b03821662003f475760405162461bcd60e51b815260206004820152602160248201527f45524332303a206275726e2066726f6d20746865207a65726f206164647265736044820152607360f81b606482015260840162000d90565b6001600160a01b0382166000908152603360205260409020548181101562003fbd5760405162461bcd60e51b815260206004820152602260248201527f45524332303a206275726e20616d6f756e7420657863656564732062616c616e604482015261636560f01b606482015260840162000d90565b6001600160a01b03831660008181526033602090815260408083208686039055603580548790039055518581529192917fddf252ad1be2c89b69c2b068fc378daa952ba7f163c4a11628f55a4df523b3ef910160405180910390a3505050565b600062004074826040518060400160405280602081526020017f5361666545524332303a206c6f772d6c6576656c2063616c6c206661696c6564815250856001600160a01b0316620045db9092919063ffffffff16565b8051909150156200145c5780806020019051810190620040959190620050db565b6200145c5760405162461bcd60e51b815260206004820152602a60248201527f5361666545524332303a204552433230206f7065726174696f6e20646964206e6044820152691bdd081cdd58d8d9595960b21b606482015260840162000d90565b620041028382620045ec565b826001600160a01b0316846001600160a01b03167fdcbc1c05240f31ff3ad067ef1ee35ce4997762752e3a095284754544f4c709d7848460405162004151929190918252602082015260400190565b60405180910390a350505050565b60fe80546001600160a01b038381166001600160a01b0319831681179093556040519116919082907f8be0079c531659141344cd1fd0a4f28419497f9722a3daafe3b4186f6b6457e090600090a35050565b600054610100900460ff16620041db5760405162461bcd60e51b815260040162000d909062005028565b8151620041f090603690602085019062004849565b5080516200145c90603790602084019062004849565b600054610100900460ff16620042305760405162461bcd60e51b815260040162000d909062005028565b606580546001600160a01b0319166001600160a01b0392909216919091179055565b600054610100900460ff166200427c5760405162461bcd60e51b815260040162000d909062005028565b815160209283012081519190920120609791909155609855565b600054610100900460ff16620042c05760405162461bcd60e51b815260040162000d909062005028565b620015b033620038fc565b600054610100900460ff16620042f55760405162461bcd60e51b815260040162000d909062005028565b610162805460ff19169055565b6000806200431286868662003e30565b905060018360028111156200432b576200432b620050ff565b1480156200434c57506000848062004347576200434762004d9e565b868809115b1562003275576200435f60018262004e89565b9695505050505050565b6000807f7fffffffffffffffffffffffffffffff5d576e7357a4501ddfe92f46681b20a0831115620043a2575060009050600362004429565b6040805160008082526020820180845289905260ff881692820192909252606081018690526080810185905260019060a0016020604051602081039080840390855afa158015620043f7573d6000803e3d6000fd5b5050604051601f1901519150506001600160a01b038116620044225760006001925092505062004429565b9150600090505b94509492505050565b6000816004811115620044495762004449620050ff565b03620044525750565b6001816004811115620044695762004469620050ff565b03620044b85760405162461bcd60e51b815260206004820152601860248201527f45434453413a20696e76616c6964207369676e61747572650000000000000000604482015260640162000d90565b6002816004811115620044cf57620044cf620050ff565b036200451e5760405162461bcd60e51b815260206004820152601f60248201527f45434453413a20696e76616c6964207369676e6174757265206c656e67746800604482015260640162000d90565b6003816004811115620045355762004535620050ff565b036200162e5760405162461bcd60e51b815260206004820152602260248201527f45434453413a20696e76616c6964207369676e6174757265202773272076616c604482015261756560f01b606482015260840162000d90565b6101625460ff16620015b05760405162461bcd60e51b815260206004820152601460248201527314185d5cd8589b194e881b9bdd081c185d5cd95960621b604482015260640162000d90565b60606200120a8484600085620046b1565b6001600160a01b038216620046445760405162461bcd60e51b815260206004820152601f60248201527f45524332303a206d696e7420746f20746865207a65726f206164647265737300604482015260640162000d90565b806035600082825462004658919062004e89565b90915550506001600160a01b0382166000818152603360209081526040808320805486019055518481527fddf252ad1be2c89b69c2b068fc378daa952ba7f163c4a11628f55a4df523b3ef910160405180910390a35050565b606082471015620047145760405162461bcd60e51b815260206004820152602660248201527f416464726573733a20696e73756666696369656e742062616c616e636520666f6044820152651c8818d85b1b60d21b606482015260840162000d90565b600080866001600160a01b0316858760405162004732919062005115565b60006040518083038185875af1925050503d806000811462004771576040519150601f19603f3d011682016040523d82523d6000602084013e62004776565b606091505b5091509150620047898783838762004794565b979650505050505050565b606083156200480857825160000362004800576001600160a01b0385163b620048005760405162461bcd60e51b815260206004820152601d60248201527f416464726573733a2063616c6c20746f206e6f6e2d636f6e7472616374000000604482015260640162000d90565b50816200120a565b6200120a83838151156200481f5781518083602001fd5b8060405162461bcd60e51b815260040162000d9091906200494c565b610914806200513483390190565b828054620048579062004d16565b90600052602060002090601f0160209004810192826200487b5760008555620048c6565b82601f106200489657805160ff1916838001178555620048c6565b82800160010185558215620048c6579182015b82811115620048c6578251825591602001919060010190620048a9565b50620048d4929150620048d8565b5090565b5b80821115620048d45760008155600101620048d9565b60005b838110156200490c578181015183820152602001620048f2565b838111156200341d5750506000910152565b6000815180845262004938816020860160208601620048ef565b601f01601f19169290920160200192915050565b6020815260006200104f60208301846200491e565b6000602082840312156200497457600080fd5b5035919050565b6001600160a01b03811681146200162e57600080fd5b60008060408385031215620049a557600080fd5b8235620049b2816200497b565b946020939093013593505050565b60008060408385031215620049d457600080fd5b8235620049e1816200497b565b91506020830135620049f3816200497b565b809150509250929050565b60008060006060848603121562004a1457600080fd5b833562004a21816200497b565b9250602084013562004a33816200497b565b929592945050506040919091013590565b60006020828403121562004a5757600080fd5b81356200104f816200497b565b6000806040838503121562004a7857600080fd5b823591506020830135620049f3816200497b565b6000806040838503121562004aa057600080fd5b50508035926020909101359150565b634e487b7160e01b600052604160045260246000fd5b600082601f83011262004ad757600080fd5b813567ffffffffffffffff8082111562004af55762004af562004aaf565b604051601f8301601f19908116603f0116810190828211818310171562004b205762004b2062004aaf565b8160405283815286602085880101111562004b3a57600080fd5b836020870160208301376000602085830101528094505050505092915050565b600080600080600080600080610100898b03121562004b7857600080fd5b883567ffffffffffffffff8082111562004b9157600080fd5b62004b9f8c838d0162004ac5565b995060208b013591508082111562004bb657600080fd5b5062004bc58b828c0162004ac5565b975050604089013562004bd8816200497b565b9550606089013562004bea816200497b565b94506080890135935060a0890135925060c089013562004c0a816200497b565b915060e089013562004c1c816200497b565b809150509295985092959890939650565b60008060006060848603121562004c4357600080fd5b83359250602084013562004c57816200497b565b9150604084013562004c69816200497b565b809150509250925092565b60ff811681146200162e57600080fd5b600080600080600080600060e0888a03121562004ca057600080fd5b873562004cad816200497b565b9650602088013562004cbf816200497b565b95506040880135945060608801359350608088013562004cdf8162004c74565b9699959850939692959460a0840135945060c09093013592915050565b60006020828403121562004d0f57600080fd5b5051919050565b600181811c9082168062004d2b57607f821691505b60208210810362003d2c57634e487b7160e01b600052602260045260246000fd5b634e487b7160e01b600052601160045260246000fd5b60008282101562004d775762004d7762004d4c565b500390565b600081600019048311821515161562004d995762004d9962004d4c565b500290565b634e487b7160e01b600052601260045260246000fd5b60008262004dd257634e487b7160e01b600052601260045260246000fd5b500490565b60006020828403121562004dea57600080fd5b81516200104f816200497b565b60208082526021908201527f4675747572655661756c743a2043616c6c6564206265666f72652065787069726040820152607960f81b606082015260800190565b60208082526031908201527f4675747572655661756c743a2063616c6c65722073686f756c6420626520746860408201527065206f776e6572206f662073686172657360781b606082015260800190565b6000821982111562004e9f5762004e9f62004d4c565b500190565b9283526001600160a01b03918216602084015216604082015260600190565b60006020828403121562004ed657600080fd5b81516200104f8162004c74565b6020808252601a908201527f4675747572655661756c743a205661756c742065787069726564000000000000604082015260600190565b600181815b8085111562004f5b57816000190482111562004f3f5762004f3f62004d4c565b8085161562004f4d57918102915b93841c939080029062004f1f565b509250929050565b60008262004f745750600162000baa565b8162004f835750600062000baa565b816001811462004f9c576002811462004fa75762004fc7565b600191505062000baa565b60ff84111562004fbb5762004fbb62004d4c565b50506001821b62000baa565b5060208310610133831016604e8410600b841016171562004fec575081810a62000baa565b62004ff8838362004f1a565b80600019048211156200500f576200500f62004d4c565b029392505050565b60006200104f60ff84168362004f63565b6020808252602b908201527f496e697469616c697a61626c653a20636f6e7472616374206973206e6f74206960408201526a6e697469616c697a696e6760a81b606082015260800190565b6060815260006200508860608301866200491e565b82810360208401526200509c81866200491e565b91505060018060a01b0383166040830152949350505050565b6001600160a01b03831681526040602082018190526000906200120a908301846200491e565b600060208284031215620050ee57600080fd5b815180151581146200104f57600080fd5b634e487b7160e01b600052602160045260246000fd5b6000825162005129818460208701620048ef565b919091019291505056fe608060405260405161091438038061091483398101604081905261002291610463565b61002e82826000610035565b505061058d565b61003e83610100565b6040516001600160a01b038416907f1cf3b03a6cf19fa2baba4df148e9dcabedea7f8a5c07840e207e5c089be95d3e90600090a260008251118061007f5750805b156100fb576100f9836001600160a01b0316635c60da1b6040518163ffffffff1660e01b8152600401602060405180830381865afa1580156100c5573d6000803e3d6000fd5b505050506040513d601f19601f820116820180604052508101906100e99190610523565b836102a360201b6100291760201c565b505b505050565b610113816102cf60201b6100551760201c565b6101725760405162461bcd60e51b815260206004820152602560248201527f455243313936373a206e657720626561636f6e206973206e6f74206120636f6e6044820152641d1c9858dd60da1b60648201526084015b60405180910390fd5b6101e6816001600160a01b0316635c60da1b6040518163ffffffff1660e01b8152600401602060405180830381865afa1580156101b3573d6000803e3d6000fd5b505050506040513d601f19601f820116820180604052508101906101d79190610523565b6102cf60201b6100551760201c565b61024b5760405162461bcd60e51b815260206004820152603060248201527f455243313936373a20626561636f6e20696d706c656d656e746174696f6e206960448201526f1cc81b9bdd08184818dbdb9d1c9858dd60821b6064820152608401610169565b806102827fa3f0ad74e5423aebfd80d3ef4346578335a9a72aeaee59ff6cb3582b35133d5060001b6102de60201b6100641760201c565b80546001600160a01b0319166001600160a01b039290921691909117905550565b60606102c883836040518060600160405280602781526020016108ed602791396102e1565b9392505050565b6001600160a01b03163b151590565b90565b6060600080856001600160a01b0316856040516102fe919061053e565b600060405180830381855af49150503d8060008114610339576040519150601f19603f3d011682016040523d82523d6000602084013e61033e565b606091505b5090925090506103508683838761035a565b9695505050505050565b606083156103c95782516000036103c2576001600160a01b0385163b6103c25760405162461bcd60e51b815260206004820152601d60248201527f416464726573733a2063616c6c20746f206e6f6e2d636f6e74726163740000006044820152606401610169565b50816103d3565b6103d383836103db565b949350505050565b8151156103eb5781518083602001fd5b8060405162461bcd60e51b8152600401610169919061055a565b80516001600160a01b038116811461041c57600080fd5b919050565b634e487b7160e01b600052604160045260246000fd5b60005b8381101561045257818101518382015260200161043a565b838111156100f95750506000910152565b6000806040838503121561047657600080fd5b61047f83610405565b60208401519092506001600160401b038082111561049c57600080fd5b818501915085601f8301126104b057600080fd5b8151818111156104c2576104c2610421565b604051601f8201601f19908116603f011681019083821181831017156104ea576104ea610421565b8160405282815288602084870101111561050357600080fd5b610514836020830160208801610437565b80955050505050509250929050565b60006020828403121561053557600080fd5b6102c882610405565b60008251610550818460208701610437565b9190910192915050565b6020815260008251806020840152610579816040850160208701610437565b601f01601f19169190910160400192915050565b6103518061059c6000396000f3fe60806040523661001357610011610017565b005b6100115b610027610022610067565b610100565b565b606061004e83836040518060600160405280602781526020016102f560279139610124565b9392505050565b6001600160a01b03163b151590565b90565b600061009a7fa3f0ad74e5423aebfd80d3ef4346578335a9a72aeaee59ff6cb3582b35133d50546001600160a01b031690565b6001600160a01b0316635c60da1b6040518163ffffffff1660e01b8152600401602060405180830381865afa1580156100d7573d6000803e3d6000fd5b505050506040513d601f19601f820116820180604052508101906100fb919061024c565b905090565b3660008037600080366000845af43d6000803e80801561011f573d6000f35b3d6000fd5b6060600080856001600160a01b03168560405161014191906102a5565b600060405180830381855af49150503d806000811461017c576040519150601f19603f3d011682016040523d82523d6000602084013e610181565b606091505b50915091506101928683838761019c565b9695505050505050565b60608315610210578251600003610209576001600160a01b0385163b6102095760405162461bcd60e51b815260206004820152601d60248201527f416464726573733a2063616c6c20746f206e6f6e2d636f6e747261637400000060448201526064015b60405180910390fd5b508161021a565b61021a8383610222565b949350505050565b8151156102325781518083602001fd5b8060405162461bcd60e51b815260040161020091906102c1565b60006020828403121561025e57600080fd5b81516001600160a01b038116811461004e57600080fd5b60005b83811015610290578181015183820152602001610278565b8381111561029f576000848401525b50505050565b600082516102b7818460208701610275565b9190910192915050565b60208152600082518060208401526102e0816040850160208701610275565b601f01601f1916919091016040019291505056fe416464726573733a206c6f772d6c6576656c2064656c65676174652063616c6c206661696c6564a26469706673582212206ea3749d3f44f7b5a93ef58b0fb6c9847a4ee4b69872c58535c03f2899109cf464736f6c634300080d0033416464726573733a206c6f772d6c6576656c2064656c65676174652063616c6c206661696c6564a2646970667358221220067fae0f8acbbd0bcb0a8ef1a963cf78171344691549675489730ee709aaaaf864736f6c634300080d0033",
    "linkReferences": {}
  },
  "methodIdentifiers": {
    "DOMAIN_SEPARATOR()": "3644e515",
    "acceptOwnership()": "79ba5097",
    "allowance(address,address)": "dd62ed3e",
    "approve(address,uint256)": "095ea7b3",
    "asset()": "38d52e0f",
    "balanceOf(address)": "70a08231",
    "beforeYtTransfer(address,address)": "4f72ec2f",
    "claimFees()": "d294f093",
    "claimYield()": "406cf229",
    "claimYieldOfAmount(uint256)": "7cafde7f",
    "convertAssetsToIBTWithRate(uint256,uint256)": "47609bd4",
    "convertIBTToAssetsWithRate(uint256,uint256)": "44ba8add",
    "convertToAssets(uint256)": "07a2d13a",
    "convertToAssetsOfIBT(uint256)": "3ca7c82d",
    "convertToAssetsWithRate(uint256,uint256)": "aca505f7",
    "convertToPrincipal(uint256)": "25a8d87d",
    "convertToShares(uint256)": "c6e6f592",
    "convertToSharesOfIBT(uint256)": "b346db0c",
    "convertToSharesWithRate(uint256,uint256)": "75ba1dac",
    "convertToUnderlying(uint256)": "1dc7f521",
    "decimals()": "313ce567",
    "decreaseAllowance(address,uint256)": "a457c2d7",
    "deposit(uint256,address)": "6e553f65",
    "depositFor(uint256,address)": "36efd16f",
    "depositIBTFor(uint256,address)": "c5662033",
    "depositWithIBT(uint256,address)": "bafc0f14",
    "expiry()": "e184c9be",
    "getAssetUnit()": "67936420",
    "getFeeCollectorAddress()": "bf2d75fb",
    "getIBT()": "c644fe94",
    "getIBTRate()": "efd98dc2",
    "getIBTRateAtExpiry()": "2b930fa3",
    "getIBTUnit()": "1f2b4f24",
    "getPTRate()": "a1c5b3e1",
    "getPTRateAtExpiry()": "6956df17",
    "getYT()": "04aa50ad",
    "ibt()": "c43f357b",
    "increaseAllowance(address,uint256)": "39509351",
    "initialize(string,string,address,address,uint256,uint256,address,address)": "a1116dc4",
    "maturity()": "204f83f9",
    "maxDeposit(address)": "402d267d",
    "maxMint(address)": "c63d75b6",
    "maxProtocolFee()": "5ee31c7c",
    "maxRedeem(address)": "d905777e",
    "maxWithdraw(address)": "ce96cb77",
    "mint(uint256,address)": "94bf804d",
    "name()": "06fdde03",
    "nonces(address)": "7ecebe00",
    "owner()": "8da5cb5b",
    "pause()": "8456cb59",
    "paused()": "5c975abb",
    "pendingOwner()": "e30c3978",
    "permit(address,address,uint256,uint256,uint8,bytes32,bytes32)": "d505accf",
    "previewDeposit(uint256)": "ef8b30f7",
    "previewMint(uint256)": "b3d7f6b9",
    "previewRedeem(uint256)": "4cdad506",
    "previewWithdraw(uint256)": "0a28a477",
    "redeem(uint256,address,address)": "ba087652",
    "renounceOwnership()": "715018a6",
    "setFeeCollector(address)": "a42dce80",
    "setMaxProtocolFee(uint256)": "a6089139",
    "storeRatesAtExpiry()": "a13c91a3",
    "symbol()": "95d89b41",
    "totalAssets()": "01e1d114",
    "totalSupply()": "18160ddd",
    "transfer(address,uint256)": "a9059cbb",
    "transferFrom(address,address,uint256)": "23b872dd",
    "transferOwnership(address)": "f2fde38b",
    "unPause()": "f7b188a5",
    "unclaimedFeesInIBT()": "e8513ccd",
    "underlying()": "6f307dc3",
    "updateYield(address)": "f90d63db",
    "updateZapDepositor()": "138695a7",
    "withdraw(uint256,address,address)": "b460af94",
    "withdrawAfterExpiry(address,address)": "21b62f96",
    "yieldOfUserInIBT(address)": "2c660fbc",
    "yt()": "c5440570"
  },
  "id": 85
}