{
  "abi": [
    {
      "anonymous": false,
      "inputs": [
        {
          "indexed": true,
          "internalType": "address",
          "name": "owner",
          "type": "address"
        },
        {
          "indexed": true,
          "internalType": "address",
          "name": "spender",
          "type": "address"
        },
        {
          "indexed": false,
          "internalType": "uint256",
          "name": "value",
          "type": "uint256"
        }
      ],
      "name": "Approval",
      "type": "event"
    },
    {
      "anonymous": false,
      "inputs": [
        {
          "indexed": true,
          "internalType": "address",
          "name": "caller",
          "type": "address"
        },
        {
          "indexed": true,
          "internalType": "address",
          "name": "owner",
          "type": "address"
        },
        {
          "indexed": false,
          "internalType": "uint256",
          "name": "assets",
          "type": "uint256"
        },
        {
          "indexed": false,
          "internalType": "uint256",
          "name": "shares",
          "type": "uint256"
        }
      ],
      "name": "Deposit",
      "type": "event"
    },
    {
      "anonymous": false,
      "inputs": [
        {
          "indexed": true,
          "internalType": "address",
          "name": "_feeCollector",
          "type": "address"
        },
        {
          "indexed": false,
          "internalType": "uint256",
          "name": "_feesInIBT",
          "type": "uint256"
        }
      ],
      "name": "FeeClaimed",
      "type": "event"
    },
    {
      "anonymous": false,
      "inputs": [
        {
          "indexed": false,
          "internalType": "uint8",
          "name": "version",
          "type": "uint8"
        }
      ],
      "name": "Initialized",
      "type": "event"
    },
    {
      "anonymous": false,
      "inputs": [
        {
          "indexed": false,
          "internalType": "address",
          "name": "account",
          "type": "address"
        }
      ],
      "name": "Paused",
      "type": "event"
    },
    {
      "anonymous": false,
      "inputs": [
        {
          "indexed": true,
          "internalType": "address",
          "name": "from",
          "type": "address"
        },
        {
          "indexed": true,
          "internalType": "address",
          "name": "to",
          "type": "address"
        },
        {
          "indexed": false,
          "internalType": "uint256",
          "name": "assets",
          "type": "uint256"
        }
      ],
      "name": "Redeem",
      "type": "event"
    },
    {
      "anonymous": false,
      "inputs": [
        {
          "indexed": true,
          "internalType": "address",
          "name": "from",
          "type": "address"
        },
        {
          "indexed": true,
          "internalType": "address",
          "name": "to",
          "type": "address"
        },
        {
          "indexed": false,
          "internalType": "uint256",
          "name": "value",
          "type": "uint256"
        }
      ],
      "name": "Transfer",
      "type": "event"
    },
    {
      "anonymous": false,
      "inputs": [
        {
          "indexed": false,
          "internalType": "address",
          "name": "account",
          "type": "address"
        }
      ],
      "name": "Unpaused",
      "type": "event"
    },
    {
      "anonymous": false,
      "inputs": [
        {
          "indexed": true,
          "internalType": "address",
          "name": "caller",
          "type": "address"
        },
        {
          "indexed": true,
          "internalType": "address",
          "name": "receiver",
          "type": "address"
        },
        {
          "indexed": true,
          "internalType": "address",
          "name": "owner",
          "type": "address"
        },
        {
          "indexed": false,
          "internalType": "uint256",
          "name": "assets",
          "type": "uint256"
        },
        {
          "indexed": false,
          "internalType": "uint256",
          "name": "shares",
          "type": "uint256"
        }
      ],
      "name": "Withdraw",
      "type": "event"
    },
    {
      "anonymous": false,
      "inputs": [
        {
          "indexed": true,
          "internalType": "address",
          "name": "yt",
          "type": "address"
        }
      ],
      "name": "YTDeployed",
      "type": "event"
    },
    {
      "anonymous": false,
      "inputs": [
        {
          "indexed": true,
          "internalType": "address",
          "name": "receiver",
          "type": "address"
        },
        {
          "indexed": false,
          "internalType": "uint256",
          "name": "_yield",
          "type": "uint256"
        }
      ],
      "name": "YieldTransferred",
      "type": "event"
    },
    {
      "anonymous": false,
      "inputs": [
        {
          "indexed": true,
          "internalType": "address",
          "name": "user",
          "type": "address"
        },
        {
          "indexed": true,
          "internalType": "uint256",
          "name": "_yield",
          "type": "uint256"
        }
      ],
      "name": "YieldUpdated",
      "type": "event"
    },
    {
      "inputs": [],
      "name": "DOMAIN_SEPARATOR",
      "outputs": [
        {
          "internalType": "bytes32",
          "name": "",
          "type": "bytes32"
        }
      ],
      "stateMutability": "view",
      "type": "function"
    },
    {
      "inputs": [],
      "name": "EXPIRY",
      "outputs": [
        {
          "internalType": "uint256",
          "name": "",
          "type": "uint256"
        }
      ],
      "stateMutability": "view",
      "type": "function"
    },
    {
      "inputs": [],
      "name": "MAX_PROTOCOL_FEE",
      "outputs": [
        {
          "internalType": "uint256",
          "name": "",
          "type": "uint256"
        }
      ],
      "stateMutability": "view",
      "type": "function"
    },
    {
      "inputs": [
        {
          "internalType": "address",
          "name": "owner",
          "type": "address"
        },
        {
          "internalType": "address",
          "name": "spender",
          "type": "address"
        }
      ],
      "name": "allowance",
      "outputs": [
        {
          "internalType": "uint256",
          "name": "",
          "type": "uint256"
        }
      ],
      "stateMutability": "view",
      "type": "function"
    },
    {
      "inputs": [
        {
          "internalType": "address",
          "name": "spender",
          "type": "address"
        },
        {
          "internalType": "uint256",
          "name": "amount",
          "type": "uint256"
        }
      ],
      "name": "approve",
      "outputs": [
        {
          "internalType": "bool",
          "name": "",
          "type": "bool"
        }
      ],
      "stateMutability": "nonpayable",
      "type": "function"
    },
    {
      "inputs": [],
      "name": "asset",
      "outputs": [
        {
          "internalType": "address",
          "name": "",
          "type": "address"
        }
      ],
      "stateMutability": "view",
      "type": "function"
    },
    {
      "inputs": [
        {
          "internalType": "address",
          "name": "account",
          "type": "address"
        }
      ],
      "name": "balanceOf",
      "outputs": [
        {
          "internalType": "uint256",
          "name": "",
          "type": "uint256"
        }
      ],
      "stateMutability": "view",
      "type": "function"
    },
    {
      "inputs": [
        {
          "internalType": "address",
          "name": "_from",
          "type": "address"
        },
        {
          "internalType": "address",
          "name": "_to",
          "type": "address"
        }
      ],
      "name": "beforeYtTransfer",
      "outputs": [],
      "stateMutability": "nonpayable",
      "type": "function"
    },
    {
      "inputs": [],
      "name": "claimFees",
      "outputs": [
        {
          "internalType": "uint256",
          "name": "",
          "type": "uint256"
        }
      ],
      "stateMutability": "nonpayable",
      "type": "function"
    },
    {
      "inputs": [
        {
          "internalType": "address",
          "name": "_user",
          "type": "address"
        }
      ],
      "name": "claimYield",
      "outputs": [
        {
          "internalType": "uint256",
          "name": "",
          "type": "uint256"
        }
      ],
      "stateMutability": "nonpayable",
      "type": "function"
    },
    {
      "inputs": [
        {
          "internalType": "address",
          "name": "_user",
          "type": "address"
        },
        {
          "internalType": "uint256",
          "name": "_amount",
          "type": "uint256"
        }
      ],
      "name": "claimYieldOfAmount",
      "outputs": [
        {
          "internalType": "uint256",
          "name": "",
          "type": "uint256"
        }
      ],
      "stateMutability": "nonpayable",
      "type": "function"
    },
    {
      "inputs": [
        {
          "internalType": "uint256",
          "name": "assets",
          "type": "uint256"
        },
        {
          "internalType": "uint256",
          "name": "_ibtRate",
          "type": "uint256"
        }
      ],
      "name": "convertAssetsToIBTWithRate",
      "outputs": [
        {
          "internalType": "uint256",
          "name": "",
          "type": "uint256"
        }
      ],
      "stateMutability": "view",
      "type": "function"
    },
    {
      "inputs": [
        {
          "internalType": "uint256",
          "name": "ibtAmount",
          "type": "uint256"
        },
        {
          "internalType": "uint256",
          "name": "_ibtRate",
          "type": "uint256"
        }
      ],
      "name": "convertIBTToAssetsWithRate",
      "outputs": [
        {
          "internalType": "uint256",
          "name": "",
          "type": "uint256"
        }
      ],
      "stateMutability": "view",
      "type": "function"
    },
    {
      "inputs": [
        {
          "internalType": "uint256",
          "name": "shares",
          "type": "uint256"
        }
      ],
      "name": "convertToAssets",
      "outputs": [
        {
          "internalType": "uint256",
          "name": "assets",
          "type": "uint256"
        }
      ],
      "stateMutability": "view",
      "type": "function"
    },
    {
      "inputs": [
        {
          "internalType": "uint256",
          "name": "ibtAmount",
          "type": "uint256"
        }
      ],
      "name": "convertToAssetsOfIBT",
      "outputs": [
        {
          "internalType": "uint256",
          "name": "",
          "type": "uint256"
        }
      ],
      "stateMutability": "view",
      "type": "function"
    },
    {
      "inputs": [
        {
          "internalType": "uint256",
          "name": "shares",
          "type": "uint256"
        },
        {
          "internalType": "uint256",
          "name": "_ptRate",
          "type": "uint256"
        }
      ],
      "name": "convertToAssetsWithRate",
      "outputs": [
        {
          "internalType": "uint256",
          "name": "assets",
          "type": "uint256"
        }
      ],
      "stateMutability": "view",
      "type": "function"
    },
    {
      "inputs": [
        {
          "internalType": "uint256",
          "name": "underlyingAmount",
          "type": "uint256"
        }
      ],
      "name": "convertToPrincipal",
      "outputs": [
        {
          "internalType": "uint256",
          "name": "",
          "type": "uint256"
        }
      ],
      "stateMutability": "view",
      "type": "function"
    },
    {
      "inputs": [
        {
          "internalType": "uint256",
          "name": "assets",
          "type": "uint256"
        }
      ],
      "name": "convertToShares",
      "outputs": [
        {
          "internalType": "uint256",
          "name": "shares",
          "type": "uint256"
        }
      ],
      "stateMutability": "view",
      "type": "function"
    },
    {
      "inputs": [
        {
          "internalType": "uint256",
          "name": "assets",
          "type": "uint256"
        }
      ],
      "name": "convertToSharesOfIBT",
      "outputs": [
        {
          "internalType": "uint256",
          "name": "",
          "type": "uint256"
        }
      ],
      "stateMutability": "view",
      "type": "function"
    },
    {
      "inputs": [
        {
          "internalType": "uint256",
          "name": "assets",
          "type": "uint256"
        },
        {
          "internalType": "uint256",
          "name": "_ptRate",
          "type": "uint256"
        }
      ],
      "name": "convertToSharesWithRate",
      "outputs": [
        {
          "internalType": "uint256",
          "name": "shares",
          "type": "uint256"
        }
      ],
      "stateMutability": "view",
      "type": "function"
    },
    {
      "inputs": [
        {
          "internalType": "uint256",
          "name": "principalAmount",
          "type": "uint256"
        }
      ],
      "name": "convertToUnderlying",
      "outputs": [
        {
          "internalType": "uint256",
          "name": "",
          "type": "uint256"
        }
      ],
      "stateMutability": "view",
      "type": "function"
    },
    {
      "inputs": [],
      "name": "decimals",
      "outputs": [
        {
          "internalType": "uint8",
          "name": "",
          "type": "uint8"
        }
      ],
      "stateMutability": "view",
      "type": "function"
    },
    {
      "inputs": [
        {
          "internalType": "address",
          "name": "spender",
          "type": "address"
        },
        {
          "internalType": "uint256",
          "name": "subtractedValue",
          "type": "uint256"
        }
      ],
      "name": "decreaseAllowance",
      "outputs": [
        {
          "internalType": "bool",
          "name": "",
          "type": "bool"
        }
      ],
      "stateMutability": "nonpayable",
      "type": "function"
    },
    {
      "inputs": [
        {
          "internalType": "uint256",
          "name": "assets",
          "type": "uint256"
        },
        {
          "internalType": "address",
          "name": "receiver",
          "type": "address"
        }
      ],
      "name": "deposit",
      "outputs": [
        {
          "internalType": "uint256",
          "name": "shares",
          "type": "uint256"
        }
      ],
      "stateMutability": "nonpayable",
      "type": "function"
    },
    {
      "inputs": [
        {
          "internalType": "uint256",
          "name": "assets",
          "type": "uint256"
        },
        {
          "internalType": "address",
          "name": "account",
          "type": "address"
        }
      ],
      "name": "depositFor",
      "outputs": [
        {
          "internalType": "uint256",
          "name": "shares",
          "type": "uint256"
        }
      ],
      "stateMutability": "nonpayable",
      "type": "function"
    },
    {
      "inputs": [
        {
          "internalType": "uint256",
          "name": "ibtAmount",
          "type": "uint256"
        },
        {
          "internalType": "address",
          "name": "account",
          "type": "address"
        }
      ],
      "name": "depositIBTFor",
      "outputs": [
        {
          "internalType": "uint256",
          "name": "shares",
          "type": "uint256"
        }
      ],
      "stateMutability": "nonpayable",
      "type": "function"
    },
    {
      "inputs": [
        {
          "internalType": "uint256",
          "name": "ibtAmount",
          "type": "uint256"
        },
        {
          "internalType": "address",
          "name": "receiver",
          "type": "address"
        }
      ],
      "name": "depositWithIBT",
      "outputs": [
        {
          "internalType": "uint256",
          "name": "shares",
          "type": "uint256"
        }
      ],
      "stateMutability": "nonpayable",
      "type": "function"
    },
    {
      "inputs": [],
      "name": "getFeeCollectorAddress",
      "outputs": [
        {
          "internalType": "address",
          "name": "",
          "type": "address"
        }
      ],
      "stateMutability": "view",
      "type": "function"
    },
    {
      "inputs": [],
      "name": "getIBT",
      "outputs": [
        {
          "internalType": "address",
          "name": "",
          "type": "address"
        }
      ],
      "stateMutability": "view",
      "type": "function"
    },
    {
      "inputs": [],
      "name": "getIBTRateAtExpiry",
      "outputs": [
        {
          "internalType": "uint256",
          "name": "",
          "type": "uint256"
        }
      ],
      "stateMutability": "view",
      "type": "function"
    },
    {
      "inputs": [],
      "name": "getPTRateAtExpiry",
      "outputs": [
        {
          "internalType": "uint256",
          "name": "",
          "type": "uint256"
        }
      ],
      "stateMutability": "view",
      "type": "function"
    },
    {
      "inputs": [],
      "name": "getYT",
      "outputs": [
        {
          "internalType": "address",
          "name": "",
          "type": "address"
        }
      ],
      "stateMutability": "view",
      "type": "function"
    },
    {
      "inputs": [],
      "name": "ibt",
      "outputs": [
        {
          "internalType": "address",
          "name": "",
          "type": "address"
        }
      ],
      "stateMutability": "view",
      "type": "function"
    },
    {
      "inputs": [
        {
          "internalType": "address",
          "name": "spender",
          "type": "address"
        },
        {
          "internalType": "uint256",
          "name": "addedValue",
          "type": "uint256"
        }
      ],
      "name": "increaseAllowance",
      "outputs": [
        {
          "internalType": "bool",
          "name": "",
          "type": "bool"
        }
      ],
      "stateMutability": "nonpayable",
      "type": "function"
    },
    {
      "inputs": [
        {
          "internalType": "string",
          "name": "_name",
          "type": "string"
        },
        {
          "internalType": "string",
          "name": "_symbol",
          "type": "string"
        },
        {
          "internalType": "address",
          "name": "_ibt",
          "type": "address"
        },
        {
          "internalType": "contract IERC20MetadataUpgradeable",
          "name": "_asset",
          "type": "address"
        },
        {
          "internalType": "uint256",
          "name": "_expiry",
          "type": "uint256"
        },
        {
          "internalType": "address",
          "name": "_admin",
          "type": "address"
        },
        {
          "internalType": "uint256",
          "name": "_max_fees",
          "type": "uint256"
        },
        {
          "internalType": "address",
          "name": "_registry",
          "type": "address"
        }
      ],
      "name": "initialize",
      "outputs": [],
      "stateMutability": "nonpayable",
      "type": "function"
    },
    {
      "inputs": [],
      "name": "maturity",
      "outputs": [
        {
          "internalType": "uint256",
          "name": "",
          "type": "uint256"
        }
      ],
      "stateMutability": "view",
      "type": "function"
    },
    {
      "inputs": [
        {
          "internalType": "address",
          "name": "",
          "type": "address"
        }
      ],
      "name": "maxDeposit",
      "outputs": [
        {
          "internalType": "uint256",
          "name": "",
          "type": "uint256"
        }
      ],
      "stateMutability": "view",
      "type": "function"
    },
    {
      "inputs": [
        {
          "internalType": "address",
          "name": "",
          "type": "address"
        }
      ],
      "name": "maxMint",
      "outputs": [
        {
          "internalType": "uint256",
          "name": "",
          "type": "uint256"
        }
      ],
      "stateMutability": "view",
      "type": "function"
    },
    {
      "inputs": [
        {
          "internalType": "address",
          "name": "owner",
          "type": "address"
        }
      ],
      "name": "maxRedeem",
      "outputs": [
        {
          "internalType": "uint256",
          "name": "",
          "type": "uint256"
        }
      ],
      "stateMutability": "view",
      "type": "function"
    },
    {
      "inputs": [
        {
          "internalType": "address",
          "name": "owner",
          "type": "address"
        }
      ],
      "name": "maxWithdraw",
      "outputs": [
        {
          "internalType": "uint256",
          "name": "",
          "type": "uint256"
        }
      ],
      "stateMutability": "view",
      "type": "function"
    },
    {
      "inputs": [
        {
          "internalType": "uint256",
          "name": "shares",
          "type": "uint256"
        },
        {
          "internalType": "address",
          "name": "receiver",
          "type": "address"
        }
      ],
      "name": "mint",
      "outputs": [
        {
          "internalType": "uint256",
          "name": "",
          "type": "uint256"
        }
      ],
      "stateMutability": "nonpayable",
      "type": "function"
    },
    {
      "inputs": [],
      "name": "name",
      "outputs": [
        {
          "internalType": "string",
          "name": "",
          "type": "string"
        }
      ],
      "stateMutability": "view",
      "type": "function"
    },
    {
      "inputs": [
        {
          "internalType": "address",
          "name": "owner",
          "type": "address"
        }
      ],
      "name": "nonces",
      "outputs": [
        {
          "internalType": "uint256",
          "name": "",
          "type": "uint256"
        }
      ],
      "stateMutability": "view",
      "type": "function"
    },
    {
      "inputs": [],
      "name": "pause",
      "outputs": [],
      "stateMutability": "nonpayable",
      "type": "function"
    },
    {
      "inputs": [],
      "name": "paused",
      "outputs": [
        {
          "internalType": "bool",
          "name": "",
          "type": "bool"
        }
      ],
      "stateMutability": "view",
      "type": "function"
    },
    {
      "inputs": [
        {
          "internalType": "address",
          "name": "owner",
          "type": "address"
        },
        {
          "internalType": "address",
          "name": "spender",
          "type": "address"
        },
        {
          "internalType": "uint256",
          "name": "value",
          "type": "uint256"
        },
        {
          "internalType": "uint256",
          "name": "deadline",
          "type": "uint256"
        },
        {
          "internalType": "uint8",
          "name": "v",
          "type": "uint8"
        },
        {
          "internalType": "bytes32",
          "name": "r",
          "type": "bytes32"
        },
        {
          "internalType": "bytes32",
          "name": "s",
          "type": "bytes32"
        }
      ],
      "name": "permit",
      "outputs": [],
      "stateMutability": "nonpayable",
      "type": "function"
    },
    {
      "inputs": [
        {
          "internalType": "uint256",
          "name": "assets",
          "type": "uint256"
        }
      ],
      "name": "previewDeposit",
      "outputs": [
        {
          "internalType": "uint256",
          "name": "",
          "type": "uint256"
        }
      ],
      "stateMutability": "view",
      "type": "function"
    },
    {
      "inputs": [
        {
          "internalType": "uint256",
          "name": "shares",
          "type": "uint256"
        }
      ],
      "name": "previewMint",
      "outputs": [
        {
          "internalType": "uint256",
          "name": "",
          "type": "uint256"
        }
      ],
      "stateMutability": "view",
      "type": "function"
    },
    {
      "inputs": [
        {
          "internalType": "uint256",
          "name": "shares",
          "type": "uint256"
        }
      ],
      "name": "previewRedeem",
      "outputs": [
        {
          "internalType": "uint256",
          "name": "",
          "type": "uint256"
        }
      ],
      "stateMutability": "view",
      "type": "function"
    },
    {
      "inputs": [
        {
          "internalType": "uint256",
          "name": "assets",
          "type": "uint256"
        }
      ],
      "name": "previewWithdraw",
      "outputs": [
        {
          "internalType": "uint256",
          "name": "",
          "type": "uint256"
        }
      ],
      "stateMutability": "view",
      "type": "function"
    },
    {
      "inputs": [
        {
          "internalType": "uint256",
          "name": "shares",
          "type": "uint256"
        },
        {
          "internalType": "address",
          "name": "receiver",
          "type": "address"
        },
        {
          "internalType": "address",
          "name": "owner",
          "type": "address"
        }
      ],
      "name": "redeem",
      "outputs": [
        {
          "internalType": "uint256",
          "name": "assets",
          "type": "uint256"
        }
      ],
      "stateMutability": "nonpayable",
      "type": "function"
    },
    {
      "inputs": [
        {
          "internalType": "address",
          "name": "_feeCollector",
          "type": "address"
        }
      ],
      "name": "setFeeCollector",
      "outputs": [],
      "stateMutability": "nonpayable",
      "type": "function"
    },
    {
      "inputs": [],
      "name": "storeRatesAtExpiry",
      "outputs": [
        {
          "internalType": "uint256",
          "name": "",
          "type": "uint256"
        },
        {
          "internalType": "uint256",
          "name": "",
          "type": "uint256"
        }
      ],
      "stateMutability": "nonpayable",
      "type": "function"
    },
    {
      "inputs": [],
      "name": "symbol",
      "outputs": [
        {
          "internalType": "string",
          "name": "",
          "type": "string"
        }
      ],
      "stateMutability": "view",
      "type": "function"
    },
    {
      "inputs": [],
      "name": "totalAssets",
      "outputs": [
        {
          "internalType": "uint256",
          "name": "",
          "type": "uint256"
        }
      ],
      "stateMutability": "view",
      "type": "function"
    },
    {
      "inputs": [],
      "name": "totalSupply",
      "outputs": [
        {
          "internalType": "uint256",
          "name": "",
          "type": "uint256"
        }
      ],
      "stateMutability": "view",
      "type": "function"
    },
    {
      "inputs": [
        {
          "internalType": "address",
          "name": "to",
          "type": "address"
        },
        {
          "internalType": "uint256",
          "name": "amount",
          "type": "uint256"
        }
      ],
      "name": "transfer",
      "outputs": [
        {
          "internalType": "bool",
          "name": "",
          "type": "bool"
        }
      ],
      "stateMutability": "nonpayable",
      "type": "function"
    },
    {
      "inputs": [
        {
          "internalType": "address",
          "name": "from",
          "type": "address"
        },
        {
          "internalType": "address",
          "name": "to",
          "type": "address"
        },
        {
          "internalType": "uint256",
          "name": "amount",
          "type": "uint256"
        }
      ],
      "name": "transferFrom",
      "outputs": [
        {
          "internalType": "bool",
          "name": "",
          "type": "bool"
        }
      ],
      "stateMutability": "nonpayable",
      "type": "function"
    },
    {
      "inputs": [],
      "name": "unPause",
      "outputs": [],
      "stateMutability": "nonpayable",
      "type": "function"
    },
    {
      "inputs": [],
      "name": "unclaimedFeesInIBT",
      "outputs": [
        {
          "internalType": "uint256",
          "name": "",
          "type": "uint256"
        }
      ],
      "stateMutability": "view",
      "type": "function"
    },
    {
      "inputs": [],
      "name": "underlying",
      "outputs": [
        {
          "internalType": "address",
          "name": "",
          "type": "address"
        }
      ],
      "stateMutability": "view",
      "type": "function"
    },
    {
      "inputs": [
        {
          "internalType": "address",
          "name": "_user",
          "type": "address"
        }
      ],
      "name": "updateYield",
      "outputs": [
        {
          "internalType": "uint256",
          "name": "",
          "type": "uint256"
        }
      ],
      "stateMutability": "nonpayable",
      "type": "function"
    },
    {
      "inputs": [],
      "name": "updateZapDepositor",
      "outputs": [],
      "stateMutability": "nonpayable",
      "type": "function"
    },
    {
      "inputs": [
        {
          "internalType": "uint256",
          "name": "assets",
          "type": "uint256"
        },
        {
          "internalType": "address",
          "name": "receiver",
          "type": "address"
        },
        {
          "internalType": "address",
          "name": "owner",
          "type": "address"
        }
      ],
      "name": "withdraw",
      "outputs": [
        {
          "internalType": "uint256",
          "name": "shares",
          "type": "uint256"
        }
      ],
      "stateMutability": "nonpayable",
      "type": "function"
    },
    {
      "inputs": [
        {
          "internalType": "address",
          "name": "receiver",
          "type": "address"
        },
        {
          "internalType": "address",
          "name": "owner",
          "type": "address"
        }
      ],
      "name": "withdrawAfterExpiry",
      "outputs": [
        {
          "internalType": "uint256",
          "name": "withdrawnAssets",
          "type": "uint256"
        }
      ],
      "stateMutability": "nonpayable",
      "type": "function"
    },
    {
      "inputs": [
        {
          "internalType": "address",
          "name": "",
          "type": "address"
        }
      ],
      "name": "yieldOfUserInIBT",
      "outputs": [
        {
          "internalType": "uint256",
          "name": "",
          "type": "uint256"
        }
      ],
      "stateMutability": "view",
      "type": "function"
    },
    {
      "inputs": [],
      "name": "yt",
      "outputs": [
        {
          "internalType": "contract YT",
          "name": "",
          "type": "address"
        }
      ],
      "stateMutability": "view",
      "type": "function"
    }
  ],
  "bytecode": {
    "object": "0x608060405234801561001057600080fd5b50615f99806100206000396000f3fe608060405234801561001057600080fd5b50600436106103f15760003560e01c806370a0823111610215578063bafc0f1411610125578063ce96cb77116100b8578063dd62ed3e11610087578063dd62ed3e14610834578063e8513ccd14610847578063ef8b30f714610851578063f7b188a514610864578063f90d63db1461086c57600080fd5b8063ce96cb77146107f3578063d294f09314610806578063d505accf1461080e578063d905777e1461082157600080fd5b8063c5662033116100f4578063c5662033146107b9578063c63d75b6146107cc578063c644fe94146107e1578063c6e6f592146104d657600080fd5b8063bafc0f141461076c578063bf2d75fb1461077f578063c43f357b14610791578063c5440570146107a557600080fd5b8063a42dce80116101a8578063b346db0c11610177578063b346db0c14610716578063b3d7f6b914610729578063b460af941461073c578063b8ca3b831461074f578063ba0876521461075957600080fd5b8063a42dce80146106dd578063a457c2d7146106f0578063a9059cbb14610703578063aca505f7146105a457600080fd5b806394bf804d116101e457806394bf804d1461069257806395d89b41146106a5578063999927df146106ad578063a13c91a3146106c057600080fd5b806370a082311461063b57806375ba1dac146106645780637ecebe00146106775780638456cb591461068a57600080fd5b806333eda18b116103105780634530a2d7116102a35780635c975abb116102725780635c975abb146105fa5780636956df17146106055780636d6e79091461060d5780636e553f65146106205780636f307dc31461063357600080fd5b80634530a2d7146105b757806347609bd4146105c15780634cdad506146105d45780634f72ec2f146105e757600080fd5b806339509351116102df578063395093511461056b5780633ca7c82d1461057e578063402d267d1461059157806344ba8add146105a457600080fd5b806333eda18b1461052c5780633644e5151461053f57806336efd16f1461054757806338d52e0f1461055a57600080fd5b80631dc7f5211161038857806325a8d87d1161035757806325a8d87d146104d65780632b930fa3146104e95780632c660fbc146104f1578063313ce5671461051257600080fd5b80631dc7f5211461044c578063204f83f9146104a757806321b62f96146104b057806323b872dd146104c357600080fd5b8063095ea7b3116103c4578063095ea7b31461045f5780630a28a47714610482578063138695a71461049557806318160ddd1461049f57600080fd5b806301e1d114146103f657806304aa50ad1461041157806306fdde031461043757806307a2d13a1461044c575b600080fd5b6103fe61087f565b6040519081526020015b60405180910390f35b61013d546001600160a01b03165b6040516001600160a01b039091168152602001610408565b61043f610902565b6040516104089190613f71565b6103fe61045a366004613f84565b610994565b61047261046d366004613fb2565b6109a5565b6040519015158152602001610408565b6103fe610490366004613f84565b6109bd565b61049d610a2f565b005b6035546103fe565b61013e546103fe565b6103fe6104be366004613fde565b610afe565b6104726104d1366004614017565b610d62565b6103fe6104e4366004613f84565b610d86565b6103fe610d91565b6103fe6104ff366004614058565b6101446020526000908152604090205481565b61051a610dbe565b60405160ff9091168152602001610408565b6103fe61053a366004613fb2565b610e32565b6103fe611136565b6103fe610555366004614075565b611140565b6065546001600160a01b031661041f565b610472610579366004613fb2565b611210565b6103fe61058c366004613f84565b611232565b6103fe61059f366004614058565b61123d565b6103fe6105b236600461409a565b61125b565b6103fe61013e5481565b6103fe6105cf36600461409a565b611276565b6103fe6105e2366004613f84565b611298565b61049d6105f5366004613fde565b611329565b60fe5460ff16610472565b6103fe6113a7565b61049d61061b36600461415f565b6113d4565b6103fe61062e366004614075565b6117c1565b61041f611889565b6103fe610649366004614058565b6001600160a01b031660009081526033602052604090205490565b6103fe61067236600461409a565b61189d565b6103fe610685366004614058565b6118af565b61049d6118cd565b6103fe6106a0366004614075565b611902565b61043f611922565b6103fe6106bb366004614058565b611931565b6106c86119a9565b60408051928352602083019190915201610408565b61049d6106eb366004614058565b611a6d565b6104726106fe366004613fb2565b611abb565b610472610711366004613fb2565b611b36565b6103fe610724366004613f84565b611b44565b6103fe610737366004613f84565b611b4f565b6103fe61074a366004614223565b611b5c565b6103fe6101415481565b6103fe610767366004614223565b611f0a565b6103fe61077a366004614075565b61207e565b610138546001600160a01b031661041f565b61013f5461041f906001600160a01b031681565b61013d5461041f906001600160a01b031681565b6103fe6107c7366004614075565b6120ce565b6103fe6107da366004614058565b5060001990565b61013f546001600160a01b031661041f565b6103fe610801366004614058565b61211e565b6103fe61220f565b61049d61081c366004614274565b612360565b6103fe61082f366004614058565b6124c4565b6103fe610842366004613fde565b6124f6565b6103fe6101405481565b6103fe61085f366004613f84565b612521565b61049d61257f565b6103fe61087a366004614058565b6125b2565b61013f546040516370a0823160e01b815230600482015260009182916001600160a01b03909116906370a0823190602401602060405180830381865afa1580156108cd573d6000803e3d6000fd5b505050506040513d601f19601f820116820180604052508101906108f191906142e5565b90506108fc81611232565b91505090565b606060368054610911906142fe565b80601f016020809104026020016040519081016040528092919081815260200182805461093d906142fe565b801561098a5780601f1061095f5761010080835404028352916020019161098a565b820191906000526020600020905b81548152906001019060200180831161096d57829003601f168201915b5050505050905090565b600061099f826129c6565b92915050565b6000336109b38185856129e5565b5060019392505050565b60006109c7612b09565b6000610a0360646101415460646109de9190614348565b33600090815261014460205260409020546109f9919061435f565b61058c9190614394565b9050808311610a155750600092915050565b610a226104e48285614348565b9392505050565b50919050565b610137546001600160a01b03163314610a635760405162461bcd60e51b8152600401610a5a906143b6565b60405180910390fd5b61013c60009054906101000a90046001600160a01b03166001600160a01b0316630e5f99c56040518163ffffffff1660e01b8152600401602060405180830381865afa158015610ab7573d6000803e3d6000fd5b505050506040513d601f19601f82011682018060405250810190610adb91906143f9565b61013380546001600160a01b0319166001600160a01b0392909216919091179055565b600061013e54421015610b235760405162461bcd60e51b8152600401610a5a90614416565b610b2b612b09565b6000610b36836124c4565b90506000610b4382611298565b9050610b523386868486612b4f565b6000610b5d856125b2565b6001600160a01b0386166000908152610144602052604081208190556101415491925090606490610b8e908461435f565b610b989190614394565b9050610ba381612be4565b610bad8183614348565b9150866001600160a01b03167f756e93dd7a18a6d27429a3d68659332413f14c4494d1dc68a987dfaba5c1ca8b610be384611232565b60405190815260200160405180910390a2610bfd82611232565b610c079084614457565b61013f54604051632d182be560e21b81529196506001600160a01b03169063b460af9490610c3d9088908b90309060040161446f565b6020604051808303816000875af1158015610c5c573d6000803e3d6000fd5b505050506040513d601f19601f82011682018060405250810190610c8091906142e5565b5061013d546040516370a0823160e01b81526001600160a01b0388811660048301529091169063bd6e3f7d90889083906370a0823190602401602060405180830381865afa158015610cd6573d6000803e3d6000fd5b505050506040513d601f19601f82011682018060405250810190610cfa91906142e5565b6040516001600160e01b031960e085901b1681526001600160a01b0390921660048301526024820152604401600060405180830381600087803b158015610d4057600080fd5b505af1158015610d54573d6000803e3d6000fd5b505050505050505092915050565b600033610d70858285612c0d565b610d7b858585612c87565b506001949350505050565b600061099f82612e32565b600061013e54421015610db65760405162461bcd60e51b8152600401610a5a90614416565b506101315490565b61013f546040805163313ce56760e01b815290516000926001600160a01b03169163313ce5679160048083019260209291908290030181865afa158015610e09573d6000803e3d6000fd5b505050506040513d601f19601f82011682018060405250810190610e2d919061448e565b905090565b600061013e54421115610e575760405162461bcd60e51b8152600401610a5a906144ab565b6000610e62846125b2565b61013d546040516370a0823160e01b81526001600160a01b038781166004830152929350600092909116906370a0823190602401602060405180830381865afa158015610eb3573d6000803e3d6000fd5b505050506040513d601f19601f82011682018060405250810190610ed791906142e5565b90508115801590610eef575083151580610eef575080155b1561112b57808411610f015783610f03565b805b935060008115610f2a57610f256101345486610f1f919061435f565b83612e47565b610f2f565b610134545b61013454909150610f40828561435f565b610f4a9190614394565b6001600160a01b03871660009081526101446020526040902054909350831115610fce5760405162461bcd60e51b815260206004820152602f60248201527f4675747572655661756c743a207969656c64546f5472616e736665722065786360448201526e1959591cc81d5cd95c881e5a595b19608a1b6064820152608401610a5a565b6001600160a01b0386166000908152610144602052604081208054859290610ff7908490614348565b909155505061014154600090606490611010908661435f565b61101a9190614394565b905061102581612be4565b61102f8185614348565b9350600061103c85611232565b9050876001600160a01b03167f756e93dd7a18a6d27429a3d68659332413f14c4494d1dc68a987dfaba5c1ca8b8260405161107991815260200190565b60405180910390a26101305460ff166110a657610130805460ff19166001179055945061099f9350505050565b61013f54604051632d182be560e21b81526001600160a01b039091169063b460af94906110db9084908c90309060040161446f565b6020604051808303816000875af11580156110fa573d6000803e3d6000fd5b505050506040513d601f19601f8201168201806040525081019061111e91906142e5565b50945061099f9350505050565b60009250505061099f565b6000610e2d612e7e565b600061013e544211156111655760405162461bcd60e51b8152600401610a5a906144ab565b61116d612b09565b606554611185906001600160a01b0316833086612ef9565b61013f54604051636e553f6560e01b8152600481018590523060248201526000916001600160a01b031690636e553f65906044016020604051808303816000875af11580156111d8573d6000803e3d6000fd5b505050506040513d601f19601f820116820180604052508101906111fc91906142e5565b90506112088133612f53565b949350505050565b6000336109b381858561122383836124f6565b61122d9190614457565b6129e5565b600061099f82613016565b6000611247613086565b61125257600061099f565b60001992915050565b6101345460009061126c838561435f565b610a229190614394565b6000816000036112885750600061099f565b81610134548461126c919061435f565b600061013e544210156112bd5760405162461bcd60e51b8152600401610a5a90614416565b6112c5612b09565b610132541515806112d7575061013954155b6112f35760405162461bcd60e51b8152600401610a5a906144e2565b6000611302836101325461125b565b905060006113138261013154611276565b9050600061132082611232565b95945050505050565b61013d546001600160a01b0316331461138f5760405162461bcd60e51b815260206004820152602260248201527f4675747572655661756c743a2043616c6c65722073686f756c64206265206120604482015261165560f21b6064820152608401610a5a565b611398826125b2565b506113a2816125b2565b505050565b600061013e544210156113cc5760405162461bcd60e51b8152600401610a5a90614416565b506101325490565b600054610100900460ff16158080156113f45750600054600160ff909116105b8061140e5750303b15801561140e575060005460ff166001145b6114715760405162461bcd60e51b815260206004820152602e60248201527f496e697469616c697a61626c653a20636f6e747261637420697320616c72656160448201526d191e481a5b9a5d1a585b1a5e995960921b6064820152608401610a5a565b6000805460ff191660011790558015611494576000805461ff0019166101001790555b61149e89896130a0565b6114a7866130d5565b6114b089613108565b6114b8613152565b8461013e81905550866001600160a01b031663313ce5676040518163ffffffff1660e01b8152600401602060405180830381865afa1580156114fe573d6000803e3d6000fd5b505050506040513d601f19601f82011682018060405250810190611522919061448e565b61152d90600a614624565b61013481905550856001600160a01b031663313ce5676040518163ffffffff1660e01b8152600401602060405180830381865afa158015611572573d6000803e3d6000fd5b505050506040513d601f19601f82011682018060405250810190611596919061448e565b6115a190600a614624565b6101355561013780546001600160a01b038087166001600160a01b03199283161790925561013f8054928a1692909116919091179055604080518082018252600b81526a2cb4b2b632102a37b5b2b760a91b60208083019190915282518084019093526002835261165560f21b9083015261161b91613181565b61013d80546001600160a01b0319166001600160a01b03929092169190911790556101345461164990611232565b61013b55610135546101395560648311156116bd5760405162461bcd60e51b815260206004820152602e60248201527f4675747572655661756c743a204d617820666565732073686f756c642062652060448201526d6c657373207468616e203130302560901b6064820152608401610a5a565b61014183905561013c80546001600160a01b0319166001600160a01b038416908117909155610130805460ff1916600117905560408051630e5f99c560e01b81529051630e5f99c5916004808201926020929091908290030181865afa15801561172b573d6000803e3d6000fd5b505050506040513d601f19601f8201168201806040525081019061174f91906143f9565b61013380546001600160a01b0319166001600160a01b039290921691909117905580156117b6576000805461ff0019169055604051600181527f7f26b83ff96e1f2b6a682f133852f6798a09c465da95921460cefb38474024989060200160405180910390a15b505050505050505050565b600061013e544211156117e65760405162461bcd60e51b8152600401610a5a906144ab565b6117ee612b09565b606554611806906001600160a01b0316333086612ef9565b61013f54604051636e553f6560e01b8152600481018590523060248201526000916001600160a01b031690636e553f65906044016020604051808303816000875af1158015611859573d6000803e3d6000fd5b505050506040513d601f19601f8201168201806040525081019061187d91906142e5565b90506112088184612f53565b6000610e2d6065546001600160a01b031690565b600081610134548461126c919061435f565b6001600160a01b038116600090815260cb602052604081205461099f565b610137546001600160a01b031633146118f85760405162461bcd60e51b8152600401610a5a906143b6565b61190061324b565b565b60008061190e84610994565b905061191a81846117c1565b509392505050565b606060378054610911906142fe565b61013d546040516370a0823160e01b81526001600160a01b03808416600483015260009261099f928592909116906370a0823190602401602060405180830381865afa158015611985573d6000803e3d6000fd5b505050506040513d601f19601f8201168201806040525081019061053a91906142e5565b60008061013e544210156119cf5760405162461bcd60e51b8152600401610a5a90614416565b610131541580156119e2575061013b5415155b15611a09576119ef6132a5565b505061013b54610131819055610139546101328190559091565b60405162461bcd60e51b815260206004820152603360248201527f4675747572655661756c743a2052617465732061742065787069727920616c726044820152721958591e481cdd1bdc9959081bdc881b9d5b1b606a1b6064820152608401610a5a565b610137546001600160a01b03163314611a985760405162461bcd60e51b8152600401610a5a906143b6565b61013880546001600160a01b0319166001600160a01b0392909216919091179055565b60003381611ac982866124f6565b905083811015611b295760405162461bcd60e51b815260206004820152602560248201527f45524332303a2064656372656173656420616c6c6f77616e63652062656c6f77604482015264207a65726f60d81b6064820152608401610a5a565b610d7b82868684036129e5565b6000336109b3818585612c87565b600061099f826132f2565b600061099f826001613325565b600061013e54421115611b815760405162461bcd60e51b8152600401610a5a906144ab565b611b89612b09565b6000611b94836125b2565b90506000611ba18461211e565b905085811015611c0c5760405162461bcd60e51b815260206004820152603060248201527f4675747572655661756c743a20496e70757420616d6f756e742065786365656460448201526f1cc81dda5d1a191c985dc81b1a5b5a5d60821b6064820152608401610a5a565b61013d546040516370a0823160e01b81526001600160a01b03868116600483015260009216906370a0823190602401602060405180830381865afa158015611c58573d6000803e3d6000fd5b505050506040513d601f19601f82011682018060405250810190611c7c91906142e5565b90506000611c9f866001600160a01b031660009081526033602052604090205490565b9050818111611cae5780611cb0565b815b90506000611cc061072483610994565b905080600003611cd857600095505050505050610a22565b600060646101415487611ceb919061435f565b611cf59190614394565b90506000611d028b611b44565b90506000611d108389614348565b821115611d4957508483611d24848a614348565b611d2e9084614348565b611d38908761435f565b611d429190614394565b9850611df8565b611d538389614348565b600003611dd35760405162461bcd60e51b815260206004820152604260248201527f4675747572655661756c743a204e6574207969656c642069732030207768657260448201527f65617320737570706f73656420746f20636f7665722074686520776974686472606482015261617760f01b608482015260a401610a5a565b611ddd8389614348565b611de7878461435f565b611df19190614394565b9050600098505b610130805460ff19169055611e0d8a82610e32565b5061013d5460405163bd6e3f7d60e01b81526001600160a01b038c81166004830152602482018c90529091169063bd6e3f7d90604401600060405180830381600087803b158015611e5d57600080fd5b505af1158015611e71573d6000803e3d6000fd5b50505050611e82338c8c8f8d612b4f565b61013f54604051632d182be560e21b81526001600160a01b039091169063b460af9490611eb7908f908f90309060040161446f565b6020604051808303816000875af1158015611ed6573d6000803e3d6000fd5b505050506040513d601f19601f82011682018060405250810190611efa91906142e5565b5050505050505050509392505050565b600061013e54421015611f2f5760405162461bcd60e51b8152600401610a5a90614416565b611f37612b09565b611f40826124c4565b841115611f995760405162461bcd60e51b815260206004820152602160248201527f4675747572655661756c743a2072656465656d206d6f7265207468616e206d616044820152600f60fb1b6064820152608401610a5a565b611fa284611298565b9050611fb13384848488612b4f565b61013f54604051632d182be560e21b81526001600160a01b039091169063b460af9490611fe69084908790309060040161446f565b6020604051808303816000875af1158015612005573d6000803e3d6000fd5b505050506040513d601f19601f8201168201806040525081019061202991906142e5565b50826001600160a01b0316826001600160a01b03167fd12200efa34901b99367694174c3b0d32c99585fdf37c7c26892136ddd0836d98360405161206f91815260200190565b60405180910390a39392505050565b600061013e544211156120a35760405162461bcd60e51b8152600401610a5a906144ab565b6120ab612b09565b61013f546120c4906001600160a01b0316333086612ef9565b610a228383612f53565b600061013e544211156120f35760405162461bcd60e51b8152600401610a5a906144ab565b6120fb612b09565b61013f54612114906001600160a01b0316833086612ef9565b610a228333612f53565b6001600160a01b038116600090815260336020526040812054819061013d546040516370a0823160e01b81526001600160a01b038681166004830152929350600092909116906370a0823190602401602060405180830381865afa15801561218a573d6000803e3d6000fd5b505050506040513d601f19601f820116820180604052508101906121ae91906142e5565b905060008183116121bf57826121c1565b815b90506121cc81610994565b6001600160a01b0386166000908152610144602052604090205461014154612205916064916121fb9083614348565b6109f9919061435f565b6113209190614457565b610138546000906001600160a01b031633146122815760405162461bcd60e51b815260206004820152602b60248201527f4675747572655661756c743a2043616c6c65722073686f756c6420626520464560448201526a22afa1a7a62622a1aa27a960a91b6064820152608401610a5a565b61014054600061229082611232565b60006101405561013f5461013854604051632d182be560e21b81529293506001600160a01b039182169263b460af94926122d3928692911690309060040161446f565b6020604051808303816000875af11580156122f2573d6000803e3d6000fd5b505050506040513d601f19601f8201168201806040525081019061231691906142e5565b50610138546040518381526001600160a01b03909116907f20ca5094f3a20c321cbe4123d0f01b276b81df0fa24cd4d83d9253956035d8639060200160405180910390a292915050565b834211156123b05760405162461bcd60e51b815260206004820152601d60248201527f45524332305065726d69743a206578706972656420646561646c696e650000006044820152606401610a5a565b60007f6e71edae12b1b97f4d1f60370fef10105fa2faae0126114a169c64845d6126c98888886123df8c6133e8565b6040805160208101969096526001600160a01b0394851690860152929091166060840152608083015260a082015260c0810186905260e001604051602081830303815290604052805190602001209050600061243a8261340e565b9050600061244a8287878761345c565b9050896001600160a01b0316816001600160a01b0316146124ad5760405162461bcd60e51b815260206004820152601e60248201527f45524332305065726d69743a20696e76616c6964207369676e617475726500006044820152606401610a5a565b6124b88a8a8a6129e5565b50505050505050505050565b600061013e544210156124d857600061099f565b6001600160a01b03821660009081526033602052604090205461099f565b6001600160a01b03918216600090815260346020908152604080832093909416825291909152205490565b600061013e544211156125765760405162461bcd60e51b815260206004820152601e60248201527f4675747572655661756c743a205661756c7420686173206578706972656400006044820152606401610a5a565b61099f82610d86565b610137546001600160a01b031633146125aa5760405162461bcd60e51b8152600401610a5a906143b6565b611900613484565b60006125ed6040518060c001604052806000815260200160008152602001600081526020016000815260200160008152602001600081525090565b6001600160a01b0383166000818152610142602090815260408083205485529282526101438152919020549082015261013e5442116126455761262e6132a5565b61013b546040820152610139546060820152612686565b61013254151580612657575061013954155b6126735760405162461bcd60e51b8152600401610a5a906144e2565b6101315460408201526101325460608201525b6040808201516001600160a01b0385166000908152610142602090815283822092909255606084015161014390925291822055815190036126ca5750600092915050565b6001600160a01b03838116600081815261014460205260408082205461013d5491516370a0823160e01b81526004810194909452919384938492909116906370a0823190602401602060405180830381865afa15801561272e573d6000803e3d6000fd5b505050506040513d601f19601f8201168201806040525081019061275291906142e5565b9050600061276e61276783886020015161125b565b8751611276565b90508560600151866020015114801561278b575085516040870151145b1561279c5750909695505050505050565b856060015186602001511480156127b7575085516040870151115b15612820576127dd81876000015188604001516127d49190614348565b610135546134bd565b945060006127ef868860400151611276565b90506127fb8185614457565b6001600160a01b038a1660009081526101446020526040902081905594506129849050565b85606001518660200151111561290857855160408701511061287d5761285481876000015188604001516127d49190614348565b61286c83886060015189602001516127d49190614348565b6128769190614457565b94506128f8565b600061289783886060015189602001516127d49190614348565b905060006128c5886040015189600001516128b29190614348565b6128bc908561435f565b61013554612e47565b90508181116128dd576128d88183614348565b6128e0565b60005b9650606487106128f057866128f3565b60005b965050505b60006127ef868860400151611276565b60405162461bcd60e51b815260206004820152604560248201527f4675747572655661756c743a205054207261746520696e63726561736564206f60448201527f72206e6f20505420646570656720627574204942542072617465206465637265606482015264617365642160d81b608482015260a401610a5a565b60405184906001600160a01b038a16907f18cb9436df0c2ab8f3a0284742076c6ddf8a478776316b4b0d008d793723549090600090a350919695505050505050565b60006101345461013954836129db919061435f565b61099f9190614394565b6001600160a01b038316612a475760405162461bcd60e51b8152602060048201526024808201527f45524332303a20617070726f76652066726f6d20746865207a65726f206164646044820152637265737360e01b6064820152608401610a5a565b6001600160a01b038216612aa85760405162461bcd60e51b815260206004820152602260248201527f45524332303a20617070726f766520746f20746865207a65726f206164647265604482015261737360f01b6064820152608401610a5a565b6001600160a01b0383811660008181526034602090815260408083209487168084529482529182902085905590518481527f8c5be1e5ebec7d5bd14f71427d1e84f3dd0314c0f7b2291e5b200ac8c7c3b925910160405180910390a3505050565b60fe5460ff16156119005760405162461bcd60e51b815260206004820152601060248201526f14185d5cd8589b194e881c185d5cd95960821b6044820152606401610a5a565b826001600160a01b0316856001600160a01b031614612b7357612b73838683612c0d565b612b7d838261356c565b826001600160a01b0316846001600160a01b0316866001600160a01b03167ffbde797d201c681b91056529119e0b02407c7bb96a4a2c75c01fc9667232c8db8585604051612bd5929190918252602082015260400190565b60405180910390a45050505050565b8061014054612bf39190614457565b6101405561013654612c06908290614457565b6101365550565b6000612c1984846124f6565b90506000198114612c815781811015612c745760405162461bcd60e51b815260206004820152601d60248201527f45524332303a20696e73756666696369656e7420616c6c6f77616e63650000006044820152606401610a5a565b612c8184848484036129e5565b50505050565b6001600160a01b038316612ceb5760405162461bcd60e51b815260206004820152602560248201527f45524332303a207472616e736665722066726f6d20746865207a65726f206164604482015264647265737360d81b6064820152608401610a5a565b6001600160a01b038216612d4d5760405162461bcd60e51b815260206004820152602360248201527f45524332303a207472616e7366657220746f20746865207a65726f206164647260448201526265737360e81b6064820152608401610a5a565b6001600160a01b03831660009081526033602052604090205481811015612dc55760405162461bcd60e51b815260206004820152602660248201527f45524332303a207472616e7366657220616d6f756e7420657863656564732062604482015265616c616e636560d01b6064820152608401610a5a565b6001600160a01b0380851660008181526033602052604080822086860390559286168082529083902080548601905591517fddf252ad1be2c89b69c2b068fc378daa952ba7f163c4a11628f55a4df523b3ef90612e259086815260200190565b60405180910390a3612c81565b60006101395461013454836129db919061435f565b60008215612e755781612e5b600185614348565b612e659190614394565b612e70906001614457565b610a22565b50600092915050565b6000610e2d7f8b73c3c69bb8fe3d512ecc4cf759cc79239f7b179b0ffacaa9a75d522b39400f612ead60975490565b6098546040805160208101859052908101839052606081018290524660808201523060a082015260009060c0016040516020818303038152906040528051906020012090509392505050565b604080516001600160a01b0385811660248301528416604482015260648082018490528251808303909101815260849091019091526020810180516001600160e01b03166323b872dd60e01b179052612c819085906136a0565b6000612f5e826125b2565b506000612f6a84611232565b9050612f7581610d86565b610133549092506001600160a01b03163303612f9c57612f9733338385613772565b612fa8565b612fa833848385613772565b61013d546040516340c10f1960e01b81526001600160a01b03858116600483015260248201859052909116906340c10f1990604401600060405180830381600087803b158015612ff757600080fd5b505af115801561300b573d6000803e3d6000fd5b505050505092915050565b61013f546040516303d1689d60e11b8152600481018390526000916001600160a01b0316906307a2d13a906024015b602060405180830381865afa158015613062573d6000803e3d6000fd5b505050506040513d601f19601f8201168201806040525081019061099f91906142e5565b60008061309161087f565b1180610e2d5750506035541590565b600054610100900460ff166130c75760405162461bcd60e51b8152600401610a5a90614633565b6130d182826137d8565b5050565b600054610100900460ff166130fc5760405162461bcd60e51b8152600401610a5a90614633565b61310581613826565b50565b600054610100900460ff1661312f5760405162461bcd60e51b8152600401610a5a90614633565b61310581604051806040016040528060018152602001603160f81b81525061386f565b600054610100900460ff166131795760405162461bcd60e51b8152600401610a5a90614633565b6119006138b0565b600060405161318f90613e73565b604051809103906000f0801580156131ab573d6000803e3d6000fd5b506040516303bf912560e11b81529091506001600160a01b0382169063077f224a906131df9086908690309060040161467e565b600060405180830381600087803b1580156131f957600080fd5b505af115801561320d573d6000803e3d6000fd5b50506040516001600160a01b03841692507f10aa3cadb8a18de745ab06d0fba238e60656c418d78284b27ab6ea75b7b789e49150600090a292915050565b613253612b09565b60fe805460ff191660011790557f62e78cea01bee320cd4e420270b5ea74000d11b0c9f74754ebdbfc544b05a2586132883390565b6040516001600160a01b03909116815260200160405180910390a1565b60006132b361013454611232565b905061013b548110156132e25761013b5481610139546132d3919061435f565b6132dd9190614394565b610139555b61013b5481146131055761013b55565b61013f546040516363737ac960e11b8152600481018390526000916001600160a01b03169063c6e6f59290602401613045565b60008061333160355490565b905080156133525761334d61334461087f565b859083866138e3565b611208565b6065546040805163313ce56760e01b81529051611208926001600160a01b03169163313ce5679160048083019260209291908290030181865afa15801561339d573d6000803e3d6000fd5b505050506040513d601f19601f820116820180604052508101906133c1919061448e565b6133cc90600a614624565b6133d4610dbe565b6133df90600a614624565b869190866138e3565b6001600160a01b038116600090815260cb60205260409020805460018101825590610a29565b600061099f61341b612e7e565b8360405161190160f01b6020820152602281018390526042810182905260009060620160405160208183030381529060405280519060200120905092915050565b600080600061346d8787878761393e565b9150915061347a81613a2b565b5095945050505050565b61348c613be1565b60fe805460ff191690557f5db9ee0a495bf2e6ff9c91a7834c1ba4fdd244a5e8aa4e537bd38aeae4b073aa33613288565b60008080600019858709858702925082811083820303915050806000036134f7578382816134ed576134ed61437e565b0492505050610a22565b80841161350357600080fd5b60008486880960026001871981018816978890046003810283188082028403028082028403028082028403028082028403028082028403029081029092039091026000889003889004909101858311909403939093029303949094049190911702949350505050565b6001600160a01b0382166135cc5760405162461bcd60e51b815260206004820152602160248201527f45524332303a206275726e2066726f6d20746865207a65726f206164647265736044820152607360f81b6064820152608401610a5a565b6001600160a01b038216600090815260336020526040902054818110156136405760405162461bcd60e51b815260206004820152602260248201527f45524332303a206275726e20616d6f756e7420657863656564732062616c616e604482015261636560f01b6064820152608401610a5a565b6001600160a01b03831660008181526033602090815260408083208686039055603580548790039055518581529192917fddf252ad1be2c89b69c2b068fc378daa952ba7f163c4a11628f55a4df523b3ef910160405180910390a3505050565b60006136f5826040518060400160405280602081526020017f5361666545524332303a206c6f772d6c6576656c2063616c6c206661696c6564815250856001600160a01b0316613c2a9092919063ffffffff16565b8051909150156113a2578080602001905181019061371391906146bc565b6113a25760405162461bcd60e51b815260206004820152602a60248201527f5361666545524332303a204552433230206f7065726174696f6e20646964206e6044820152691bdd081cdd58d8d9595960b21b6064820152608401610a5a565b61377c8382613c39565b826001600160a01b0316846001600160a01b03167fdcbc1c05240f31ff3ad067ef1ee35ce4997762752e3a095284754544f4c709d784846040516137ca929190918252602082015260400190565b60405180910390a350505050565b600054610100900460ff166137ff5760405162461bcd60e51b8152600401610a5a90614633565b8151613812906036906020850190613e80565b5080516113a2906037906020840190613e80565b600054610100900460ff1661384d5760405162461bcd60e51b8152600401610a5a90614633565b606580546001600160a01b0319166001600160a01b0392909216919091179055565b600054610100900460ff166138965760405162461bcd60e51b8152600401610a5a90614633565b815160209283012081519190920120609791909155609855565b600054610100900460ff166138d75760405162461bcd60e51b8152600401610a5a90614633565b60fe805460ff19169055565b6000806138f18686866134bd565b90506001836002811115613907576139076146de565b14801561392457506000848061391f5761391f61437e565b868809115b1561132057613934600182614457565b9695505050505050565b6000807f7fffffffffffffffffffffffffffffff5d576e7357a4501ddfe92f46681b20a08311156139755750600090506003613a22565b8460ff16601b1415801561398d57508460ff16601c14155b1561399e5750600090506004613a22565b6040805160008082526020820180845289905260ff881692820192909252606081018690526080810185905260019060a0016020604051602081039080840390855afa1580156139f2573d6000803e3d6000fd5b5050604051601f1901519150506001600160a01b038116613a1b57600060019250925050613a22565b9150600090505b94509492505050565b6000816004811115613a3f57613a3f6146de565b03613a475750565b6001816004811115613a5b57613a5b6146de565b03613aa85760405162461bcd60e51b815260206004820152601860248201527f45434453413a20696e76616c6964207369676e617475726500000000000000006044820152606401610a5a565b6002816004811115613abc57613abc6146de565b03613b095760405162461bcd60e51b815260206004820152601f60248201527f45434453413a20696e76616c6964207369676e6174757265206c656e677468006044820152606401610a5a565b6003816004811115613b1d57613b1d6146de565b03613b755760405162461bcd60e51b815260206004820152602260248201527f45434453413a20696e76616c6964207369676e6174757265202773272076616c604482015261756560f01b6064820152608401610a5a565b6004816004811115613b8957613b896146de565b036131055760405162461bcd60e51b815260206004820152602260248201527f45434453413a20696e76616c6964207369676e6174757265202776272076616c604482015261756560f01b6064820152608401610a5a565b60fe5460ff166119005760405162461bcd60e51b815260206004820152601460248201527314185d5cd8589b194e881b9bdd081c185d5cd95960621b6044820152606401610a5a565b60606112088484600085613cfa565b6001600160a01b038216613c8f5760405162461bcd60e51b815260206004820152601f60248201527f45524332303a206d696e7420746f20746865207a65726f2061646472657373006044820152606401610a5a565b8060356000828254613ca19190614457565b90915550506001600160a01b0382166000818152603360209081526040808320805486019055518481527fddf252ad1be2c89b69c2b068fc378daa952ba7f163c4a11628f55a4df523b3ef910160405180910390a35050565b606082471015613d5b5760405162461bcd60e51b815260206004820152602660248201527f416464726573733a20696e73756666696369656e742062616c616e636520666f6044820152651c8818d85b1b60d21b6064820152608401610a5a565b600080866001600160a01b03168587604051613d7791906146f4565b60006040518083038185875af1925050503d8060008114613db4576040519150601f19603f3d011682016040523d82523d6000602084013e613db9565b606091505b5091509150613dca87838387613dd5565b979650505050505050565b60608315613e44578251600003613e3d576001600160a01b0385163b613e3d5760405162461bcd60e51b815260206004820152601d60248201527f416464726573733a2063616c6c20746f206e6f6e2d636f6e74726163740000006044820152606401610a5a565b5081611208565b6112088383815115613e595781518083602001fd5b8060405162461bcd60e51b8152600401610a5a9190613f71565b6118538061471183390190565b828054613e8c906142fe565b90600052602060002090601f016020900481019282613eae5760008555613ef4565b82601f10613ec757805160ff1916838001178555613ef4565b82800160010185558215613ef4579182015b82811115613ef4578251825591602001919060010190613ed9565b50613f00929150613f04565b5090565b5b80821115613f005760008155600101613f05565b60005b83811015613f34578181015183820152602001613f1c565b83811115612c815750506000910152565b60008151808452613f5d816020860160208601613f19565b601f01601f19169290920160200192915050565b602081526000610a226020830184613f45565b600060208284031215613f9657600080fd5b5035919050565b6001600160a01b038116811461310557600080fd5b60008060408385031215613fc557600080fd5b8235613fd081613f9d565b946020939093013593505050565b60008060408385031215613ff157600080fd5b8235613ffc81613f9d565b9150602083013561400c81613f9d565b809150509250929050565b60008060006060848603121561402c57600080fd5b833561403781613f9d565b9250602084013561404781613f9d565b929592945050506040919091013590565b60006020828403121561406a57600080fd5b8135610a2281613f9d565b6000806040838503121561408857600080fd5b82359150602083013561400c81613f9d565b600080604083850312156140ad57600080fd5b50508035926020909101359150565b634e487b7160e01b600052604160045260246000fd5b600082601f8301126140e357600080fd5b813567ffffffffffffffff808211156140fe576140fe6140bc565b604051601f8301601f19908116603f01168101908282118183101715614126576141266140bc565b8160405283815286602085880101111561413f57600080fd5b836020870160208301376000602085830101528094505050505092915050565b600080600080600080600080610100898b03121561417c57600080fd5b883567ffffffffffffffff8082111561419457600080fd5b6141a08c838d016140d2565b995060208b01359150808211156141b657600080fd5b506141c38b828c016140d2565b97505060408901356141d481613f9d565b955060608901356141e481613f9d565b94506080890135935060a08901356141fb81613f9d565b925060c0890135915060e089013561421281613f9d565b809150509295985092959890939650565b60008060006060848603121561423857600080fd5b83359250602084013561424a81613f9d565b9150604084013561425a81613f9d565b809150509250925092565b60ff8116811461310557600080fd5b600080600080600080600060e0888a03121561428f57600080fd5b873561429a81613f9d565b965060208801356142aa81613f9d565b9550604088013594506060880135935060808801356142c881614265565b9699959850939692959460a0840135945060c09093013592915050565b6000602082840312156142f757600080fd5b5051919050565b600181811c9082168061431257607f821691505b602082108103610a2957634e487b7160e01b600052602260045260246000fd5b634e487b7160e01b600052601160045260246000fd5b60008282101561435a5761435a614332565b500390565b600081600019048311821515161561437957614379614332565b500290565b634e487b7160e01b600052601260045260246000fd5b6000826143b157634e487b7160e01b600052601260045260246000fd5b500490565b60208082526023908201527f4675747572655661756c743a2043616c6c65722073686f756c6420626520416460408201526236b4b760e91b606082015260800190565b60006020828403121561440b57600080fd5b8151610a2281613f9d565b60208082526021908201527f4675747572655661756c743a2043616c6c6564206265666f72652065787069726040820152607960f81b606082015260800190565b6000821982111561446a5761446a614332565b500190565b9283526001600160a01b03918216602084015216604082015260600190565b6000602082840312156144a057600080fd5b8151610a2281614265565b6020808252601a908201527f4675747572655661756c743a205661756c742065787069726564000000000000604082015260600190565b602080825260409082018190527f4675747572655661756c743a2069627420616e64207074207261746573206174908201527f206578706972792068617665206e6f74206265656e2073746f72656420796574606082015260800190565b600181815b8085111561457b57816000190482111561456157614561614332565b8085161561456e57918102915b93841c9390800290614545565b509250929050565b6000826145925750600161099f565b8161459f5750600061099f565b81600181146145b557600281146145bf576145db565b600191505061099f565b60ff8411156145d0576145d0614332565b50506001821b61099f565b5060208310610133831016604e8410600b84101617156145fe575081810a61099f565b6146088383614540565b806000190482111561461c5761461c614332565b029392505050565b6000610a2260ff841683614583565b6020808252602b908201527f496e697469616c697a61626c653a20636f6e7472616374206973206e6f74206960408201526a6e697469616c697a696e6760a81b606082015260800190565b6060815260006146916060830186613f45565b82810360208401526146a38186613f45565b91505060018060a01b0383166040830152949350505050565b6000602082840312156146ce57600080fd5b81518015158114610a2257600080fd5b634e487b7160e01b600052602160045260246000fd5b60008251614706818460208701613f19565b919091019291505056fe608060405234801561001057600080fd5b50611833806100206000396000f3fe608060405234801561001057600080fd5b50600436106101165760003560e01c806342966c68116100a2578063a457c2d711610071578063a457c2d714610235578063a9059cbb14610248578063bd6e3f7d1461025b578063d505accf1461026e578063dd62ed3e1461028157600080fd5b806342966c68146101de57806370a08231146101f15780637ecebe001461021a57806395d89b411461022d57600080fd5b806323b872dd116100e957806323b872dd14610183578063313ce567146101965780633644e515146101b057806339509351146101b857806340c10f19146101cb57600080fd5b806306fdde031461011b578063077f224a14610139578063095ea7b31461014e57806318160ddd14610171575b600080fd5b610123610294565b60405161013091906113f6565b60405180910390f35b61014c61014736600461150a565b610326565b005b61016161015c36600461157e565b610465565b6040519015158152602001610130565b6035545b604051908152602001610130565b6101616101913660046115a8565b61047d565b61019e6104f8565b60405160ff9091168152602001610130565b61017561056b565b6101616101c636600461157e565b610575565b61014c6101d936600461157e565b610597565b61014c6101ec3660046115e4565b6105cf565b6101756101ff3660046115fd565b6001600160a01b031660009081526033602052604090205490565b6101756102283660046115fd565b61064b565b61012361066b565b61016161024336600461157e565b61067a565b61016161025636600461157e565b610700565b61014c61026936600461157e565b610777565b61014c61027c366004611627565b6107ab565b61017561028f366004611694565b61090f565b6060603680546102a3906116c7565b80601f01602080910402602001604051908101604052809291908181526020018280546102cf906116c7565b801561031c5780601f106102f15761010080835404028352916020019161031c565b820191906000526020600020905b8154815290600101906020018083116102ff57829003601f168201915b5050505050905090565b600054610100900460ff16158080156103465750600054600160ff909116105b806103605750303b158015610360575060005460ff166001145b6103c85760405162461bcd60e51b815260206004820152602e60248201527f496e697469616c697a61626c653a20636f6e747261637420697320616c72656160448201526d191e481a5b9a5d1a585b1a5e995960921b60648201526084015b60405180910390fd5b6000805460ff1916600117905580156103eb576000805461ff0019166101001790555b6103f5848461093a565b6103fe8461096b565b60cc80546001600160a01b0319166001600160a01b038416179055801561045f576000805461ff0019169055604051600181527f7f26b83ff96e1f2b6a682f133852f6798a09c465da95921460cefb38474024989060200160405180910390a15b50505050565b6000336104738185856109b5565b5060019392505050565b60cc54604051634f72ec2f60e01b81526001600160a01b03858116600483015284811660248301526000921690634f72ec2f90604401600060405180830381600087803b1580156104cd57600080fd5b505af11580156104e1573d6000803e3d6000fd5b505050506104f0848484610ada565b949350505050565b60cc546040805163313ce56760e01b815290516000926001600160a01b03169163313ce5679160048083019260209291908290030181865afa158015610542573d6000803e3d6000fd5b505050506040513d601f19601f8201168201806040525081019061056691906116fb565b905090565b6000610566610af3565b600033610473818585610588838361090f565b6105929190611718565b6109b5565b60cc546001600160a01b031633146105c15760405162461bcd60e51b81526004016103bf9061173e565b6105cb8282610b6e565b5050565b60cc5460405163f90d63db60e01b81523360048201526001600160a01b039091169063f90d63db906024016020604051808303816000875af1158015610619573d6000803e3d6000fd5b505050506040513d601f19601f8201168201806040525081019061063d9190611783565b506106483382610c2f565b50565b6001600160a01b0381166000908152609960205260408120545b92915050565b6060603780546102a3906116c7565b60003381610688828661090f565b9050838110156106e85760405162461bcd60e51b815260206004820152602560248201527f45524332303a2064656372656173656420616c6c6f77616e63652062656c6f77604482015264207a65726f60d81b60648201526084016103bf565b6106f582868684036109b5565b506001949350505050565b60cc54604051634f72ec2f60e01b81523360048201526001600160a01b0384811660248301526000921690634f72ec2f90604401600060405180830381600087803b15801561074e57600080fd5b505af1158015610762573d6000803e3d6000fd5b505050506107708383610d60565b9392505050565b60cc546001600160a01b031633146107a15760405162461bcd60e51b81526004016103bf9061173e565b6105cb8282610c2f565b834211156107fb5760405162461bcd60e51b815260206004820152601d60248201527f45524332305065726d69743a206578706972656420646561646c696e6500000060448201526064016103bf565b60007f6e71edae12b1b97f4d1f60370fef10105fa2faae0126114a169c64845d6126c988888861082a8c610d6e565b6040805160208101969096526001600160a01b0394851690860152929091166060840152608083015260a082015260c0810186905260e001604051602081830303815290604052805190602001209050600061088582610d96565b9050600061089582878787610de4565b9050896001600160a01b0316816001600160a01b0316146108f85760405162461bcd60e51b815260206004820152601e60248201527f45524332305065726d69743a20696e76616c6964207369676e6174757265000060448201526064016103bf565b6109038a8a8a6109b5565b50505050505050505050565b6001600160a01b03918216600090815260346020908152604080832093909416825291909152205490565b600054610100900460ff166109615760405162461bcd60e51b81526004016103bf9061179c565b6105cb8282610e0c565b600054610100900460ff166109925760405162461bcd60e51b81526004016103bf9061179c565b61064881604051806040016040528060018152602001603160f81b815250610e5a565b6001600160a01b038316610a175760405162461bcd60e51b8152602060048201526024808201527f45524332303a20617070726f76652066726f6d20746865207a65726f206164646044820152637265737360e01b60648201526084016103bf565b6001600160a01b038216610a785760405162461bcd60e51b815260206004820152602260248201527f45524332303a20617070726f766520746f20746865207a65726f206164647265604482015261737360f01b60648201526084016103bf565b6001600160a01b0383811660008181526034602090815260408083209487168084529482529182902085905590518481527f8c5be1e5ebec7d5bd14f71427d1e84f3dd0314c0f7b2291e5b200ac8c7c3b92591015b60405180910390a3505050565b600033610ae8858285610e9b565b6106f5858585610f0f565b60006105667f8b73c3c69bb8fe3d512ecc4cf759cc79239f7b179b0ffacaa9a75d522b39400f610b2260655490565b6066546040805160208101859052908101839052606081018290524660808201523060a082015260009060c0016040516020818303038152906040528051906020012090509392505050565b6001600160a01b038216610bc45760405162461bcd60e51b815260206004820152601f60248201527f45524332303a206d696e7420746f20746865207a65726f20616464726573730060448201526064016103bf565b8060356000828254610bd69190611718565b90915550506001600160a01b0382166000818152603360209081526040808320805486019055518481527fddf252ad1be2c89b69c2b068fc378daa952ba7f163c4a11628f55a4df523b3ef910160405180910390a35050565b6001600160a01b038216610c8f5760405162461bcd60e51b815260206004820152602160248201527f45524332303a206275726e2066726f6d20746865207a65726f206164647265736044820152607360f81b60648201526084016103bf565b6001600160a01b03821660009081526033602052604090205481811015610d035760405162461bcd60e51b815260206004820152602260248201527f45524332303a206275726e20616d6f756e7420657863656564732062616c616e604482015261636560f01b60648201526084016103bf565b6001600160a01b03831660008181526033602090815260408083208686039055603580548790039055518581529192917fddf252ad1be2c89b69c2b068fc378daa952ba7f163c4a11628f55a4df523b3ef9101610acd565b505050565b600033610473818585610f0f565b6001600160a01b03811660009081526099602052604090208054600181018255905b50919050565b6000610665610da3610af3565b8360405161190160f01b6020820152602281018390526042810182905260009060620160405160208183030381529060405280519060200120905092915050565b6000806000610df5878787876110ba565b91509150610e02816111a7565b5095945050505050565b600054610100900460ff16610e335760405162461bcd60e51b81526004016103bf9061179c565b8151610e4690603690602085019061135d565b508051610d5b90603790602084019061135d565b600054610100900460ff16610e815760405162461bcd60e51b81526004016103bf9061179c565b815160209283012081519190920120606591909155606655565b6000610ea7848461090f565b9050600019811461045f5781811015610f025760405162461bcd60e51b815260206004820152601d60248201527f45524332303a20696e73756666696369656e7420616c6c6f77616e636500000060448201526064016103bf565b61045f84848484036109b5565b6001600160a01b038316610f735760405162461bcd60e51b815260206004820152602560248201527f45524332303a207472616e736665722066726f6d20746865207a65726f206164604482015264647265737360d81b60648201526084016103bf565b6001600160a01b038216610fd55760405162461bcd60e51b815260206004820152602360248201527f45524332303a207472616e7366657220746f20746865207a65726f206164647260448201526265737360e81b60648201526084016103bf565b6001600160a01b0383166000908152603360205260409020548181101561104d5760405162461bcd60e51b815260206004820152602660248201527f45524332303a207472616e7366657220616d6f756e7420657863656564732062604482015265616c616e636560d01b60648201526084016103bf565b6001600160a01b0380851660008181526033602052604080822086860390559286168082529083902080548601905591517fddf252ad1be2c89b69c2b068fc378daa952ba7f163c4a11628f55a4df523b3ef906110ad9086815260200190565b60405180910390a361045f565b6000807f7fffffffffffffffffffffffffffffff5d576e7357a4501ddfe92f46681b20a08311156110f1575060009050600361119e565b8460ff16601b1415801561110957508460ff16601c14155b1561111a575060009050600461119e565b6040805160008082526020820180845289905260ff881692820192909252606081018690526080810185905260019060a0016020604051602081039080840390855afa15801561116e573d6000803e3d6000fd5b5050604051601f1901519150506001600160a01b0381166111975760006001925092505061119e565b9150600090505b94509492505050565b60008160048111156111bb576111bb6117e7565b036111c35750565b60018160048111156111d7576111d76117e7565b036112245760405162461bcd60e51b815260206004820152601860248201527f45434453413a20696e76616c6964207369676e6174757265000000000000000060448201526064016103bf565b6002816004811115611238576112386117e7565b036112855760405162461bcd60e51b815260206004820152601f60248201527f45434453413a20696e76616c6964207369676e6174757265206c656e6774680060448201526064016103bf565b6003816004811115611299576112996117e7565b036112f15760405162461bcd60e51b815260206004820152602260248201527f45434453413a20696e76616c6964207369676e6174757265202773272076616c604482015261756560f01b60648201526084016103bf565b6004816004811115611305576113056117e7565b036106485760405162461bcd60e51b815260206004820152602260248201527f45434453413a20696e76616c6964207369676e6174757265202776272076616c604482015261756560f01b60648201526084016103bf565b828054611369906116c7565b90600052602060002090601f01602090048101928261138b57600085556113d1565b82601f106113a457805160ff19168380011785556113d1565b828001600101855582156113d1579182015b828111156113d15782518255916020019190600101906113b6565b506113dd9291506113e1565b5090565b5b808211156113dd57600081556001016113e2565b600060208083528351808285015260005b8181101561142357858101830151858201604001528201611407565b81811115611435576000604083870101525b50601f01601f1916929092016040019392505050565b634e487b7160e01b600052604160045260246000fd5b600082601f83011261147257600080fd5b813567ffffffffffffffff8082111561148d5761148d61144b565b604051601f8301601f19908116603f011681019082821181831017156114b5576114b561144b565b816040528381528660208588010111156114ce57600080fd5b836020870160208301376000602085830101528094505050505092915050565b80356001600160a01b038116811461150557600080fd5b919050565b60008060006060848603121561151f57600080fd5b833567ffffffffffffffff8082111561153757600080fd5b61154387838801611461565b9450602086013591508082111561155957600080fd5b5061156686828701611461565b925050611575604085016114ee565b90509250925092565b6000806040838503121561159157600080fd5b61159a836114ee565b946020939093013593505050565b6000806000606084860312156115bd57600080fd5b6115c6846114ee565b92506115d4602085016114ee565b9150604084013590509250925092565b6000602082840312156115f657600080fd5b5035919050565b60006020828403121561160f57600080fd5b610770826114ee565b60ff8116811461064857600080fd5b600080600080600080600060e0888a03121561164257600080fd5b61164b886114ee565b9650611659602089016114ee565b95506040880135945060608801359350608088013561167781611618565b9699959850939692959460a0840135945060c09093013592915050565b600080604083850312156116a757600080fd5b6116b0836114ee565b91506116be602084016114ee565b90509250929050565b600181811c908216806116db57607f821691505b602082108103610d9057634e487b7160e01b600052602260045260246000fd5b60006020828403121561170d57600080fd5b815161077081611618565b6000821982111561173957634e487b7160e01b600052601160045260246000fd5b500190565b60208082526025908201527f59543a2043616c6c65722073686f756c6420626520746865204675747572652060408201526415985d5b1d60da1b606082015260800190565b60006020828403121561179557600080fd5b5051919050565b6020808252602b908201527f496e697469616c697a61626c653a20636f6e7472616374206973206e6f74206960408201526a6e697469616c697a696e6760a81b606082015260800190565b634e487b7160e01b600052602160045260246000fdfea26469706673582212205040abbcad44ffcb6d5fc9f489c19a0b139cd66dc5659d7861de63238dffae7764736f6c634300080d0033a26469706673582212201a32f44ce85ac6e702792db8f86e8e3362a24ff565aaefc40ce7c820a6bcd3b364736f6c634300080d0033",
    "linkReferences": {}
  },
  "methodIdentifiers": {
    "DOMAIN_SEPARATOR()": "3644e515",
    "EXPIRY()": "4530a2d7",
    "MAX_PROTOCOL_FEE()": "b8ca3b83",
    "allowance(address,address)": "dd62ed3e",
    "approve(address,uint256)": "095ea7b3",
    "asset()": "38d52e0f",
    "balanceOf(address)": "70a08231",
    "beforeYtTransfer(address,address)": "4f72ec2f",
    "claimFees()": "d294f093",
    "claimYield(address)": "999927df",
    "claimYieldOfAmount(address,uint256)": "33eda18b",
    "convertAssetsToIBTWithRate(uint256,uint256)": "47609bd4",
    "convertIBTToAssetsWithRate(uint256,uint256)": "44ba8add",
    "convertToAssets(uint256)": "07a2d13a",
    "convertToAssetsOfIBT(uint256)": "3ca7c82d",
    "convertToAssetsWithRate(uint256,uint256)": "aca505f7",
    "convertToPrincipal(uint256)": "25a8d87d",
    "convertToShares(uint256)": "c6e6f592",
    "convertToSharesOfIBT(uint256)": "b346db0c",
    "convertToSharesWithRate(uint256,uint256)": "75ba1dac",
    "convertToUnderlying(uint256)": "1dc7f521",
    "decimals()": "313ce567",
    "decreaseAllowance(address,uint256)": "a457c2d7",
    "deposit(uint256,address)": "6e553f65",
    "depositFor(uint256,address)": "36efd16f",
    "depositIBTFor(uint256,address)": "c5662033",
    "depositWithIBT(uint256,address)": "bafc0f14",
    "getFeeCollectorAddress()": "bf2d75fb",
    "getIBT()": "c644fe94",
    "getIBTRateAtExpiry()": "2b930fa3",
    "getPTRateAtExpiry()": "6956df17",
    "getYT()": "04aa50ad",
    "ibt()": "c43f357b",
    "increaseAllowance(address,uint256)": "39509351",
    "initialize(string,string,address,address,uint256,address,uint256,address)": "6d6e7909",
    "maturity()": "204f83f9",
    "maxDeposit(address)": "402d267d",
    "maxMint(address)": "c63d75b6",
    "maxRedeem(address)": "d905777e",
    "maxWithdraw(address)": "ce96cb77",
    "mint(uint256,address)": "94bf804d",
    "name()": "06fdde03",
    "nonces(address)": "7ecebe00",
    "pause()": "8456cb59",
    "paused()": "5c975abb",
    "permit(address,address,uint256,uint256,uint8,bytes32,bytes32)": "d505accf",
    "previewDeposit(uint256)": "ef8b30f7",
    "previewMint(uint256)": "b3d7f6b9",
    "previewRedeem(uint256)": "4cdad506",
    "previewWithdraw(uint256)": "0a28a477",
    "redeem(uint256,address,address)": "ba087652",
    "setFeeCollector(address)": "a42dce80",
    "storeRatesAtExpiry()": "a13c91a3",
    "symbol()": "95d89b41",
    "totalAssets()": "01e1d114",
    "totalSupply()": "18160ddd",
    "transfer(address,uint256)": "a9059cbb",
    "transferFrom(address,address,uint256)": "23b872dd",
    "unPause()": "f7b188a5",
    "unclaimedFeesInIBT()": "e8513ccd",
    "underlying()": "6f307dc3",
    "updateYield(address)": "f90d63db",
    "updateZapDepositor()": "138695a7",
    "withdraw(uint256,address,address)": "b460af94",
    "withdrawAfterExpiry(address,address)": "21b62f96",
    "yieldOfUserInIBT(address)": "2c660fbc",
    "yt()": "c5440570"
  },
  "id": 69
}