{
  "abi": [
    {
      "inputs": [],
      "stateMutability": "nonpayable",
      "type": "constructor"
    },
    {
      "inputs": [
        {
          "internalType": "string",
          "name": "name",
          "type": "string"
        }
      ],
      "name": "AddressIsZero",
      "type": "error"
    },
    {
      "inputs": [],
      "name": "CouldNotFetchExpectedLPAmount",
      "type": "error"
    },
    {
      "inputs": [
        {
          "internalType": "string",
          "name": "reason",
          "type": "string"
        }
      ],
      "name": "CurvePoolUtilError",
      "type": "error"
    },
    {
      "inputs": [
        {
          "internalType": "string",
          "name": "reason",
          "type": "string"
        }
      ],
      "name": "LPVaultError",
      "type": "error"
    },
    {
      "anonymous": false,
      "inputs": [
        {
          "indexed": true,
          "internalType": "address",
          "name": "owner",
          "type": "address"
        },
        {
          "indexed": true,
          "internalType": "address",
          "name": "spender",
          "type": "address"
        },
        {
          "indexed": false,
          "internalType": "uint256",
          "name": "value",
          "type": "uint256"
        }
      ],
      "name": "Approval",
      "type": "event"
    },
    {
      "anonymous": false,
      "inputs": [
        {
          "indexed": true,
          "internalType": "address",
          "name": "sender",
          "type": "address"
        },
        {
          "indexed": true,
          "internalType": "address",
          "name": "owner",
          "type": "address"
        },
        {
          "indexed": false,
          "internalType": "uint256",
          "name": "assets",
          "type": "uint256"
        },
        {
          "indexed": false,
          "internalType": "uint256",
          "name": "shares",
          "type": "uint256"
        }
      ],
      "name": "Deposit",
      "type": "event"
    },
    {
      "anonymous": false,
      "inputs": [
        {
          "indexed": true,
          "internalType": "uint256",
          "name": "fees",
          "type": "uint256"
        }
      ],
      "name": "FeeUpdated",
      "type": "event"
    },
    {
      "anonymous": false,
      "inputs": [
        {
          "indexed": false,
          "internalType": "uint8",
          "name": "version",
          "type": "uint8"
        }
      ],
      "name": "Initialized",
      "type": "event"
    },
    {
      "anonymous": false,
      "inputs": [
        {
          "indexed": true,
          "internalType": "uint256",
          "name": "yieldInUnderlying",
          "type": "uint256"
        },
        {
          "indexed": true,
          "internalType": "uint256",
          "name": "lptAmount",
          "type": "uint256"
        }
      ],
      "name": "InterestCompounded",
      "type": "event"
    },
    {
      "anonymous": false,
      "inputs": [
        {
          "indexed": true,
          "internalType": "address",
          "name": "previousOwner",
          "type": "address"
        },
        {
          "indexed": true,
          "internalType": "address",
          "name": "newOwner",
          "type": "address"
        }
      ],
      "name": "OwnershipTransferStarted",
      "type": "event"
    },
    {
      "anonymous": false,
      "inputs": [
        {
          "indexed": true,
          "internalType": "address",
          "name": "previousOwner",
          "type": "address"
        },
        {
          "indexed": true,
          "internalType": "address",
          "name": "newOwner",
          "type": "address"
        }
      ],
      "name": "OwnershipTransferred",
      "type": "event"
    },
    {
      "anonymous": false,
      "inputs": [
        {
          "indexed": false,
          "internalType": "address",
          "name": "account",
          "type": "address"
        }
      ],
      "name": "Paused",
      "type": "event"
    },
    {
      "anonymous": false,
      "inputs": [
        {
          "indexed": false,
          "internalType": "uint256",
          "name": "_newIndex",
          "type": "uint256"
        }
      ],
      "name": "PoolIndexUpdated",
      "type": "event"
    },
    {
      "anonymous": false,
      "inputs": [
        {
          "indexed": true,
          "internalType": "address",
          "name": "from",
          "type": "address"
        },
        {
          "indexed": true,
          "internalType": "address",
          "name": "to",
          "type": "address"
        },
        {
          "indexed": false,
          "internalType": "uint256",
          "name": "value",
          "type": "uint256"
        }
      ],
      "name": "Transfer",
      "type": "event"
    },
    {
      "anonymous": false,
      "inputs": [
        {
          "indexed": false,
          "internalType": "address",
          "name": "account",
          "type": "address"
        }
      ],
      "name": "Unpaused",
      "type": "event"
    },
    {
      "anonymous": false,
      "inputs": [
        {
          "indexed": true,
          "internalType": "address",
          "name": "sender",
          "type": "address"
        },
        {
          "indexed": true,
          "internalType": "address",
          "name": "receiver",
          "type": "address"
        },
        {
          "indexed": true,
          "internalType": "address",
          "name": "owner",
          "type": "address"
        },
        {
          "indexed": false,
          "internalType": "uint256",
          "name": "assets",
          "type": "uint256"
        },
        {
          "indexed": false,
          "internalType": "uint256",
          "name": "shares",
          "type": "uint256"
        }
      ],
      "name": "Withdraw",
      "type": "event"
    },
    {
      "inputs": [],
      "name": "DOMAIN_SEPARATOR",
      "outputs": [
        {
          "internalType": "bytes32",
          "name": "",
          "type": "bytes32"
        }
      ],
      "stateMutability": "view",
      "type": "function"
    },
    {
      "inputs": [],
      "name": "acceptOwnership",
      "outputs": [],
      "stateMutability": "nonpayable",
      "type": "function"
    },
    {
      "inputs": [
        {
          "internalType": "address",
          "name": "owner",
          "type": "address"
        },
        {
          "internalType": "address",
          "name": "spender",
          "type": "address"
        }
      ],
      "name": "allowance",
      "outputs": [
        {
          "internalType": "uint256",
          "name": "",
          "type": "uint256"
        }
      ],
      "stateMutability": "view",
      "type": "function"
    },
    {
      "inputs": [
        {
          "internalType": "address",
          "name": "spender",
          "type": "address"
        },
        {
          "internalType": "uint256",
          "name": "amount",
          "type": "uint256"
        }
      ],
      "name": "approve",
      "outputs": [
        {
          "internalType": "bool",
          "name": "",
          "type": "bool"
        }
      ],
      "stateMutability": "nonpayable",
      "type": "function"
    },
    {
      "inputs": [],
      "name": "asset",
      "outputs": [
        {
          "internalType": "address",
          "name": "",
          "type": "address"
        }
      ],
      "stateMutability": "view",
      "type": "function"
    },
    {
      "inputs": [
        {
          "internalType": "address",
          "name": "account",
          "type": "address"
        }
      ],
      "name": "balanceOf",
      "outputs": [
        {
          "internalType": "uint256",
          "name": "",
          "type": "uint256"
        }
      ],
      "stateMutability": "view",
      "type": "function"
    },
    {
      "inputs": [],
      "name": "compoundInterest",
      "outputs": [
        {
          "internalType": "uint256",
          "name": "lpAmount",
          "type": "uint256"
        }
      ],
      "stateMutability": "nonpayable",
      "type": "function"
    },
    {
      "inputs": [
        {
          "internalType": "uint256",
          "name": "shares",
          "type": "uint256"
        }
      ],
      "name": "convertToAssets",
      "outputs": [
        {
          "internalType": "uint256",
          "name": "",
          "type": "uint256"
        }
      ],
      "stateMutability": "view",
      "type": "function"
    },
    {
      "inputs": [
        {
          "internalType": "uint256",
          "name": "ibtAmount",
          "type": "uint256"
        }
      ],
      "name": "convertToAssetsOfIBT",
      "outputs": [
        {
          "internalType": "uint256",
          "name": "",
          "type": "uint256"
        }
      ],
      "stateMutability": "view",
      "type": "function"
    },
    {
      "inputs": [
        {
          "internalType": "uint256",
          "name": "assets",
          "type": "uint256"
        }
      ],
      "name": "convertToShares",
      "outputs": [
        {
          "internalType": "uint256",
          "name": "",
          "type": "uint256"
        }
      ],
      "stateMutability": "view",
      "type": "function"
    },
    {
      "inputs": [],
      "name": "decimals",
      "outputs": [
        {
          "internalType": "uint8",
          "name": "",
          "type": "uint8"
        }
      ],
      "stateMutability": "view",
      "type": "function"
    },
    {
      "inputs": [
        {
          "internalType": "address",
          "name": "spender",
          "type": "address"
        },
        {
          "internalType": "uint256",
          "name": "subtractedValue",
          "type": "uint256"
        }
      ],
      "name": "decreaseAllowance",
      "outputs": [
        {
          "internalType": "bool",
          "name": "",
          "type": "bool"
        }
      ],
      "stateMutability": "nonpayable",
      "type": "function"
    },
    {
      "inputs": [
        {
          "internalType": "uint256",
          "name": "assets",
          "type": "uint256"
        },
        {
          "internalType": "address",
          "name": "receiver",
          "type": "address"
        }
      ],
      "name": "deposit",
      "outputs": [
        {
          "internalType": "uint256",
          "name": "shares",
          "type": "uint256"
        }
      ],
      "stateMutability": "nonpayable",
      "type": "function"
    },
    {
      "inputs": [
        {
          "internalType": "uint256",
          "name": "ibtAmount",
          "type": "uint256"
        },
        {
          "internalType": "address",
          "name": "receiver",
          "type": "address"
        }
      ],
      "name": "depositWithIBT",
      "outputs": [
        {
          "internalType": "uint256",
          "name": "shares",
          "type": "uint256"
        }
      ],
      "stateMutability": "nonpayable",
      "type": "function"
    },
    {
      "inputs": [],
      "name": "gePerformanceFee",
      "outputs": [
        {
          "internalType": "uint256",
          "name": "",
          "type": "uint256"
        }
      ],
      "stateMutability": "view",
      "type": "function"
    },
    {
      "inputs": [],
      "name": "getPrincipalToken",
      "outputs": [
        {
          "internalType": "address",
          "name": "",
          "type": "address"
        }
      ],
      "stateMutability": "view",
      "type": "function"
    },
    {
      "inputs": [
        {
          "internalType": "address",
          "name": "spender",
          "type": "address"
        },
        {
          "internalType": "uint256",
          "name": "addedValue",
          "type": "uint256"
        }
      ],
      "name": "increaseAllowance",
      "outputs": [
        {
          "internalType": "bool",
          "name": "",
          "type": "bool"
        }
      ],
      "stateMutability": "nonpayable",
      "type": "function"
    },
    {
      "inputs": [
        {
          "internalType": "string",
          "name": "_name",
          "type": "string"
        },
        {
          "internalType": "string",
          "name": "_symbol",
          "type": "string"
        },
        {
          "internalType": "uint256",
          "name": "_poolIndex",
          "type": "uint256"
        },
        {
          "internalType": "address",
          "name": "_principalToken",
          "type": "address"
        },
        {
          "internalType": "uint256",
          "name": "_performanceFee",
          "type": "uint256"
        }
      ],
      "name": "initialize",
      "outputs": [],
      "stateMutability": "nonpayable",
      "type": "function"
    },
    {
      "inputs": [
        {
          "internalType": "address",
          "name": "",
          "type": "address"
        }
      ],
      "name": "maxDeposit",
      "outputs": [
        {
          "internalType": "uint256",
          "name": "",
          "type": "uint256"
        }
      ],
      "stateMutability": "pure",
      "type": "function"
    },
    {
      "inputs": [
        {
          "internalType": "address",
          "name": "",
          "type": "address"
        }
      ],
      "name": "maxMint",
      "outputs": [
        {
          "internalType": "uint256",
          "name": "",
          "type": "uint256"
        }
      ],
      "stateMutability": "view",
      "type": "function"
    },
    {
      "inputs": [
        {
          "internalType": "address",
          "name": "owner",
          "type": "address"
        }
      ],
      "name": "maxRedeem",
      "outputs": [
        {
          "internalType": "uint256",
          "name": "",
          "type": "uint256"
        }
      ],
      "stateMutability": "view",
      "type": "function"
    },
    {
      "inputs": [
        {
          "internalType": "address",
          "name": "owner",
          "type": "address"
        }
      ],
      "name": "maxWithdraw",
      "outputs": [
        {
          "internalType": "uint256",
          "name": "",
          "type": "uint256"
        }
      ],
      "stateMutability": "view",
      "type": "function"
    },
    {
      "inputs": [
        {
          "internalType": "uint256",
          "name": "shares",
          "type": "uint256"
        },
        {
          "internalType": "address",
          "name": "receiver",
          "type": "address"
        }
      ],
      "name": "mint",
      "outputs": [
        {
          "internalType": "uint256",
          "name": "assets",
          "type": "uint256"
        }
      ],
      "stateMutability": "nonpayable",
      "type": "function"
    },
    {
      "inputs": [],
      "name": "name",
      "outputs": [
        {
          "internalType": "string",
          "name": "",
          "type": "string"
        }
      ],
      "stateMutability": "view",
      "type": "function"
    },
    {
      "inputs": [
        {
          "internalType": "address",
          "name": "owner",
          "type": "address"
        }
      ],
      "name": "nonces",
      "outputs": [
        {
          "internalType": "uint256",
          "name": "",
          "type": "uint256"
        }
      ],
      "stateMutability": "view",
      "type": "function"
    },
    {
      "inputs": [],
      "name": "owner",
      "outputs": [
        {
          "internalType": "address",
          "name": "",
          "type": "address"
        }
      ],
      "stateMutability": "view",
      "type": "function"
    },
    {
      "inputs": [],
      "name": "pause",
      "outputs": [],
      "stateMutability": "nonpayable",
      "type": "function"
    },
    {
      "inputs": [],
      "name": "paused",
      "outputs": [
        {
          "internalType": "bool",
          "name": "",
          "type": "bool"
        }
      ],
      "stateMutability": "view",
      "type": "function"
    },
    {
      "inputs": [],
      "name": "pendingOwner",
      "outputs": [
        {
          "internalType": "address",
          "name": "",
          "type": "address"
        }
      ],
      "stateMutability": "view",
      "type": "function"
    },
    {
      "inputs": [
        {
          "internalType": "address",
          "name": "owner",
          "type": "address"
        },
        {
          "internalType": "address",
          "name": "spender",
          "type": "address"
        },
        {
          "internalType": "uint256",
          "name": "value",
          "type": "uint256"
        },
        {
          "internalType": "uint256",
          "name": "deadline",
          "type": "uint256"
        },
        {
          "internalType": "uint8",
          "name": "v",
          "type": "uint8"
        },
        {
          "internalType": "bytes32",
          "name": "r",
          "type": "bytes32"
        },
        {
          "internalType": "bytes32",
          "name": "s",
          "type": "bytes32"
        }
      ],
      "name": "permit",
      "outputs": [],
      "stateMutability": "nonpayable",
      "type": "function"
    },
    {
      "inputs": [
        {
          "internalType": "uint256",
          "name": "assets",
          "type": "uint256"
        }
      ],
      "name": "previewDeposit",
      "outputs": [
        {
          "internalType": "uint256",
          "name": "",
          "type": "uint256"
        }
      ],
      "stateMutability": "view",
      "type": "function"
    },
    {
      "inputs": [
        {
          "internalType": "uint256",
          "name": "ibtAmount",
          "type": "uint256"
        }
      ],
      "name": "previewDepositWithIBT",
      "outputs": [
        {
          "internalType": "uint256",
          "name": "",
          "type": "uint256"
        }
      ],
      "stateMutability": "view",
      "type": "function"
    },
    {
      "inputs": [
        {
          "internalType": "uint256",
          "name": "shares",
          "type": "uint256"
        }
      ],
      "name": "previewMint",
      "outputs": [
        {
          "internalType": "uint256",
          "name": "",
          "type": "uint256"
        }
      ],
      "stateMutability": "view",
      "type": "function"
    },
    {
      "inputs": [
        {
          "internalType": "uint256",
          "name": "shares",
          "type": "uint256"
        }
      ],
      "name": "previewRedeem",
      "outputs": [
        {
          "internalType": "uint256",
          "name": "",
          "type": "uint256"
        }
      ],
      "stateMutability": "view",
      "type": "function"
    },
    {
      "inputs": [
        {
          "internalType": "uint256",
          "name": "assets",
          "type": "uint256"
        }
      ],
      "name": "previewWithdraw",
      "outputs": [
        {
          "internalType": "uint256",
          "name": "",
          "type": "uint256"
        }
      ],
      "stateMutability": "view",
      "type": "function"
    },
    {
      "inputs": [
        {
          "internalType": "uint256",
          "name": "shares",
          "type": "uint256"
        },
        {
          "internalType": "address",
          "name": "receiver",
          "type": "address"
        },
        {
          "internalType": "address",
          "name": "owner",
          "type": "address"
        }
      ],
      "name": "redeem",
      "outputs": [
        {
          "internalType": "uint256",
          "name": "assets",
          "type": "uint256"
        }
      ],
      "stateMutability": "nonpayable",
      "type": "function"
    },
    {
      "inputs": [],
      "name": "renounceOwnership",
      "outputs": [],
      "stateMutability": "nonpayable",
      "type": "function"
    },
    {
      "inputs": [
        {
          "internalType": "uint256",
          "name": "_newIndex",
          "type": "uint256"
        }
      ],
      "name": "setPoolIndex",
      "outputs": [],
      "stateMutability": "nonpayable",
      "type": "function"
    },
    {
      "inputs": [],
      "name": "symbol",
      "outputs": [
        {
          "internalType": "string",
          "name": "",
          "type": "string"
        }
      ],
      "stateMutability": "view",
      "type": "function"
    },
    {
      "inputs": [],
      "name": "totalAssets",
      "outputs": [
        {
          "internalType": "uint256",
          "name": "",
          "type": "uint256"
        }
      ],
      "stateMutability": "view",
      "type": "function"
    },
    {
      "inputs": [],
      "name": "totalSupply",
      "outputs": [
        {
          "internalType": "uint256",
          "name": "",
          "type": "uint256"
        }
      ],
      "stateMutability": "view",
      "type": "function"
    },
    {
      "inputs": [
        {
          "internalType": "address",
          "name": "to",
          "type": "address"
        },
        {
          "internalType": "uint256",
          "name": "amount",
          "type": "uint256"
        }
      ],
      "name": "transfer",
      "outputs": [
        {
          "internalType": "bool",
          "name": "",
          "type": "bool"
        }
      ],
      "stateMutability": "nonpayable",
      "type": "function"
    },
    {
      "inputs": [
        {
          "internalType": "address",
          "name": "from",
          "type": "address"
        },
        {
          "internalType": "address",
          "name": "to",
          "type": "address"
        },
        {
          "internalType": "uint256",
          "name": "amount",
          "type": "uint256"
        }
      ],
      "name": "transferFrom",
      "outputs": [
        {
          "internalType": "bool",
          "name": "",
          "type": "bool"
        }
      ],
      "stateMutability": "nonpayable",
      "type": "function"
    },
    {
      "inputs": [
        {
          "internalType": "address",
          "name": "newOwner",
          "type": "address"
        }
      ],
      "name": "transferOwnership",
      "outputs": [],
      "stateMutability": "nonpayable",
      "type": "function"
    },
    {
      "inputs": [],
      "name": "unPause",
      "outputs": [],
      "stateMutability": "nonpayable",
      "type": "function"
    },
    {
      "inputs": [
        {
          "internalType": "uint256",
          "name": "newFees",
          "type": "uint256"
        }
      ],
      "name": "updateFees",
      "outputs": [],
      "stateMutability": "nonpayable",
      "type": "function"
    },
    {
      "inputs": [
        {
          "internalType": "uint256",
          "name": "assets",
          "type": "uint256"
        },
        {
          "internalType": "address",
          "name": "receiver",
          "type": "address"
        },
        {
          "internalType": "address",
          "name": "owner",
          "type": "address"
        }
      ],
      "name": "withdraw",
      "outputs": [
        {
          "internalType": "uint256",
          "name": "shares",
          "type": "uint256"
        }
      ],
      "stateMutability": "nonpayable",
      "type": "function"
    }
  ],
  "bytecode": {
    "object": "0x60806040523480156200001157600080fd5b506200001c62000022565b620000e3565b600054610100900460ff16156200008f5760405162461bcd60e51b815260206004820152602760248201527f496e697469616c697a61626c653a20636f6e747261637420697320696e697469604482015266616c697a696e6760c81b606482015260840160405180910390fd5b60005460ff90811614620000e1576000805460ff191660ff9081179091556040519081527f7f26b83ff96e1f2b6a682f133852f6798a09c465da95921460cefb38474024989060200160405180910390a15b565b613f1680620000f36000396000f3fe608060405234801561001057600080fd5b50600436106102955760003560e01c80638456cb5911610167578063c6e6f592116100ce578063e425e8b511610087578063e425e8b51461051a578063ef8b30f714610522578063f2fde38b14610535578063f7b188a514610548578063fb89830414610550578063fede02761461056357600080fd5b8063c6e6f592146102c5578063ce96cb77146104d5578063d505accf146104e3578063d905777e146104d5578063dd62ed3e146104f6578063e30c39781461050957600080fd5b8063adb724bf11610120578063adb724bf14610499578063b3d7f6b9146102f9578063b460af94146104ab578063ba087652146104ab578063bafc0f14146104c2578063c63d75b6146104d557600080fd5b80638456cb591461043c5780638da5cb5b1461044457806394bf804d1461045557806395d89b411461046b578063a457c2d714610473578063a9059cbb1461048657600080fd5b8063395093511161020b5780636e553f65116101c45780636e553f65146103ca57806370a08231146103dd578063715018a61461040657806378dacee11461040e57806379ba5097146104215780637ecebe001461042957600080fd5b8063395093511461036e5780633ca7c82d14610381578063402d267d146103945780634cdad506146102f957806352461562146103a95780635c975abb146103be57600080fd5b806318160ddd1161025d57806318160ddd1461030d57806323b872dd14610315578063313ce5671461032857806333cd7a80146103375780633644e5151461034057806338d52e0f1461034857600080fd5b806301e1d1141461029a57806306fdde03146102b057806307a2d13a146102c5578063095ea7b3146102d65780630a28a477146102f9575b600080fd5b60005b6040519081526020015b60405180910390f35b6102b8610576565b6040516102a79190613729565b61029d6102d336600461375c565b90565b6102e96102e436600461378a565b610608565b60405190151581526020016102a7565b61029d61030736600461375c565b50600090565b60355461029d565b6102e96103233660046137b6565b610622565b604051601281526020016102a7565b6101965461029d565b61029d610648565b610197546001600160a01b03165b6040516001600160a01b0390911681526020016102a7565b6102e961037c36600461378a565b610657565b61029d61038f36600461375c565b610679565b61029d6103a23660046137f7565b5060001990565b6103bc6103b736600461375c565b610684565b005b6101305460ff166102e9565b61029d6103d8366004613814565b6106c8565b61029d6103eb3660046137f7565b6001600160a01b031660009081526033602052604090205490565b6103bc6107b5565b6103bc61041c36600461375c565b6107c9565b6103bc610837565b61029d6104373660046137f7565b6108b1565b6103bc6108cf565b60cc546001600160a01b0316610356565b61029d610463366004613814565b600092915050565b6102b86108df565b6102e961048136600461378a565b6108ee565b6102e961049436600461378a565b610974565b61019a546001600160a01b0316610356565b61029d6104b9366004613844565b60009392505050565b61029d6104d0366004613814565b610982565b61029d6103073660046137f7565b6103bc6104f1366004613895565b610a65565b61029d610504366004613906565b610bc9565b60fe546001600160a01b0316610356565b61029d610bf4565b61029d61053036600461375c565b611151565b6103bc6105433660046137f7565b611216565b6103bc611287565b61029d61055e36600461375c565b611297565b6103bc610571366004613a22565b611362565b60606036805461058590613aaa565b80601f01602080910402602001604051908101604052809291908181526020018280546105b190613aaa565b80156105fe5780601f106105d3576101008083540402835291602001916105fe565b820191906000526020600020905b8154815290600101906020018083116105e157829003601f168201915b5050505050905090565b600033610616818585611919565b60019150505b92915050565b600033610630858285611a3d565b61063b858585611ab7565b60019150505b9392505050565b6000610652611c62565b905090565b60003361061681858561066a8383610bc9565b6106749190613af4565b611919565b600061061c82611cdd565b61068c611d4c565b6101948190556040518181527f76dd6491fa6d672bd26747a48657f494e25010650a259ec25d9d1fd98103e75f9060200160405180910390a150565b60006106d2611da6565b610197546106eb906001600160a01b0316333086611e01565b610197546101995461070a916001600160a01b03908116911685611e6c565b6101995461019a5461019454610197546040516329f9f3f760e01b81526001600160a01b03948516946329f9f3f794610756949082169390928a92909116906000903090600401613b0c565b6020604051808303816000875af1158015610775573d6000803e3d6000fd5b505050506040513d601f19601f820116820180604052508101906107999190613b44565b50825b90506107aa33838584611f1e565b61061c600161016255565b6107bd611d4c565b6107c76000611f8c565b565b6107d1611d4c565b670de0b6b3a7640000811115610803576040516316bdaadb60e21b81526004016107fa90613b5d565b60405180910390fd5b61019681905560405181907f8c4d35e54a3f2ef1134138fd8ea3daee6a3c89e10d2665996babdf70261e2c7690600090a250565b60fe5433906001600160a01b031681146108a55760405162461bcd60e51b815260206004820152602960248201527f4f776e61626c6532537465703a2063616c6c6572206973206e6f7420746865206044820152683732bb9037bbb732b960b91b60648201526084016107fa565b6108ae81611f8c565b50565b6001600160a01b03811660009081526099602052604081205461061c565b6108d7611d4c565b6107c7611fa5565b60606037805461058590613aaa565b600033816108fc8286610bc9565b90508381101561095c5760405162461bcd60e51b815260206004820152602560248201527f45524332303a2064656372656173656420616c6c6f77616e63652062656c6f77604482015264207a65726f60d81b60648201526084016107fa565b6109698286868403611919565b506001949350505050565b600033610616818585611ab7565b600061098c611da6565b610198546109a5906001600160a01b0316333086611e01565b61019854610199546109c4916001600160a01b03908116911685611e6c565b6101995461019a54610194546040516381f5f54760e01b81526001600160a01b039283166004820152602481019190915260448101869052600060648201523060848201529116906381f5f5479060a4016020604051808303816000875af1158015610a34573d6000803e3d6000fd5b505050506040513d601f19601f82011682018060405250810190610a589190613b44565b5061079c6102d384611cdd565b83421115610ab55760405162461bcd60e51b815260206004820152601d60248201527f45524332305065726d69743a206578706972656420646561646c696e6500000060448201526064016107fa565b60007f6e71edae12b1b97f4d1f60370fef10105fa2faae0126114a169c64845d6126c9888888610ae48c612000565b6040805160208101969096526001600160a01b0394851690860152929091166060840152608083015260a082015260c0810186905260e0016040516020818303038152906040528051906020012090506000610b3f82612028565b90506000610b4f82878787612076565b9050896001600160a01b0316816001600160a01b031614610bb25760405162461bcd60e51b815260206004820152601e60248201527f45524332305065726d69743a20696e76616c6964207369676e6174757265000060448201526064016107fa565b610bbd8a8a8a611919565b50505050505050505050565b6001600160a01b03918216600090815260346020908152604080832093909416825291909152205490565b6000610bfe6120a0565b61019a546040805163406cf22960e01b815290516000926001600160a01b03169163406cf229916004808301926020929190829003018187875af1158015610c4a573d6000803e3d6000fd5b505050506040513d601f19601f82011682018060405250810190610c6e9190613b44565b905080600003610c8057600091505090565b61019a54604051632cd1b6c360e21b8152600481018390526000916001600160a01b03169063b346db0c90602401602060405180830381865afa158015610ccb573d6000803e3d6000fd5b505050506040513d601f19601f82011682018060405250810190610cef9190613b44565b61019a5461019b5461019454604051632dadcf5160e11b81526001600160a01b039384166004820181905260248201929092529394509260009290911690635b5b9ea290604401600060405180830381865afa158015610d53573d6000803e3d6000fd5b505050506040513d6000823e601f3d908101601f19168201604052610d7b9190810190613b9e565b90506000610d8e848360000151856120e7565b61019a549091506000906001600160a01b0316633ca7c82d610db08488613c5c565b6040518263ffffffff1660e01b8152600401610dce91815260200190565b602060405180830381865afa158015610deb573d6000803e3d6000fd5b505050506040513d601f19601f82011682018060405250810190610e0f9190613b44565b61019a54604051632cd1b6c360e21b8152600481018390529192506001600160a01b031690633ca7c82d90829063b346db0c90602401602060405180830381865afa158015610e62573d6000803e3d6000fd5b505050506040513d601f19601f82011682018060405250810190610e869190613b44565b6040518263ffffffff1660e01b8152600401610ea491815260200190565b602060405180830381865afa158015610ec1573d6000803e3d6000fd5b505050506040513d601f19601f82011682018060405250810190610ee59190613b44565b61019a546040516363737ac960e11b8152600481018390529192506000916001600160a01b039091169063c6e6f59290602401602060405180830381865afa158015610f35573d6000803e3d6000fd5b505050506040513d601f19601f82011682018060405250810190610f599190613b44565b905060008085600001516001600160a01b0316638d8ea727604051806040016040528088815260200186815250604051602401610f969190613c73565b6040516020818303038152906040529060e01b6020820180516001600160e01b038381831617835250505050604051610fcf9190613ca4565b6000604051808303816000865af19150503d806000811461100c576040519150601f19603f3d011682016040523d82523d6000602084013e611011565b606091505b509150915081611034576040516317fe0d9160e31b815260040160405180910390fd5b60008180602001905181019061104a9190613b44565b610197546101995491925061106c916001600160a01b0391821691168c611e6c565b61019960009054906101000a90046001600160a01b03166001600160a01b03166329f9f3f789610194548d61019760009054906101000a90046001600160a01b031686306040518763ffffffff1660e01b81526004016110d196959493929190613b0c565b6020604051808303816000875af11580156110f0573d6000803e3d6000fd5b505050506040513d601f19601f820116820180604052508101906111149190613b44565b9a508a8a7f45b6c590b89e8cb17c4ed42dcd3379988971ceaf15fd6daae6a876716205fe2860405160405180910390a35050505050505050505090565b61019a546040805163204f83f960e01b815290516000926001600160a01b03169163204f83f99160048083019260209291908290030181865afa15801561119c573d6000803e3d6000fd5b505050506040513d601f19601f820116820180604052508101906111c09190613b44565b4211156112085760405162461bcd60e51b8152602060048201526016602482015275131415985d5b1d0e8815985d5b1d08195e1c1a5c995960521b60448201526064016107fa565b6112106120a0565b8161061c565b61121e611d4c565b60fe80546001600160a01b0383166001600160a01b0319909116811790915561124f60cc546001600160a01b031690565b6001600160a01b03167f38d16b8cac22d99fc7c124b9cd0de2d3fa1faef420bfe791d8c362d765e2270060405160405180910390a350565b61128f611d4c565b6107c7612456565b61019a546040805163204f83f960e01b815290516000926001600160a01b03169163204f83f99160048083019260209291908290030181865afa1580156112e2573d6000803e3d6000fd5b505050506040513d601f19601f820116820180604052508101906113069190613b44565b42111561134e5760405162461bcd60e51b8152602060048201526016602482015275131415985d5b1d0e8815985d5b1d08195e1c1a5c995960521b60448201526064016107fa565b6113566120a0565b61061c6102d383611cdd565b600054610100900460ff16158080156113825750600054600160ff909116105b8061139c5750303b15801561139c575060005460ff166001145b6113ff5760405162461bcd60e51b815260206004820152602e60248201527f496e697469616c697a61626c653a20636f6e747261637420697320616c72656160448201526d191e481a5b9a5d1a585b1a5e995960921b60648201526084016107fa565b6000805460ff191660011790558015611422576000805461ff0019166101001790555b6001600160a01b03831661148c5760405162461bcd60e51b815260206004820152602b60248201527f4c505661756c743a20707420636f6e74726163742063616e6e6f74206265207a60448201526a65726f206164647265737360a81b60648201526084016107fa565b6114968686612490565b61149f866124c5565b6114a761250f565b6114af61253e565b6114b761256d565b826001600160a01b03166338d52e0f6040518163ffffffff1660e01b8152600401602060405180830381865afa1580156114f5573d6000803e3d6000fd5b505050506040513d601f19601f820116820180604052508101906115199190613cc0565b61019780546001600160a01b039283166001600160a01b03199182161790915561019486905561019a80549286169290911682179055604080516331913fa560e21b8152905163c644fe949160048082019260209290919082900301816000875af115801561158c573d6000803e3d6000fd5b505050506040513d601f19601f820116820180604052508101906115b09190613cc0565b61019880546001600160a01b0319166001600160a01b0392831617905561019a5460408051631e43bc3d60e31b81529051600093929092169163f21de1e8916004808201926020929091908290030181865afa158015611614573d6000803e3d6000fd5b505050506040513d601f19601f820116820180604052508101906116389190613cc0565b90506001600160a01b03811661167c5760405163db3407a760e01b8152602060048201526008602482015267526567697374727960c01b60448201526064016107fa565b6000816001600160a01b031663509414ad6040518163ffffffff1660e01b8152600401602060405180830381865afa1580156116bc573d6000803e3d6000fd5b505050506040513d601f19601f820116820180604052508101906116e09190613cc0565b90506001600160a01b0381166117315760405163db3407a760e01b81526020600482015260156024820152745072696e636970616c546f6b656e466163746f727960581b60448201526064016107fa565b61019b80546001600160a01b0319166001600160a01b0383811691909117909155610197546040805163313ce56760e01b81529051919092169163313ce5679160048083019260209291908290030181865afa158015611795573d6000803e3d6000fd5b505050506040513d601f19601f820116820180604052508101906117b99190613cdd565b6117c490600a613dde565b6101955561019a546040805163fefd6d4960e01b815290516000926001600160a01b03169163fefd6d499160048083019260209291908290030181865afa158015611813573d6000803e3d6000fd5b505050506040513d601f19601f820116820180604052508101906118379190613cc0565b90506001600160a01b03811661187d5760405163db3407a760e01b815260206004820152600a6024820152690537065637472615a61760b41b60448201526064016107fa565b61019980546001600160a01b0319166001600160a01b038316179055670de0b6b3a76400008511156118c2576040516316bdaadb60e21b81526004016107fa90613b5d565b5050506101968290558015611911576000805461ff0019169055604051600181527f7f26b83ff96e1f2b6a682f133852f6798a09c465da95921460cefb38474024989060200160405180910390a15b505050505050565b6001600160a01b03831661197b5760405162461bcd60e51b8152602060048201526024808201527f45524332303a20617070726f76652066726f6d20746865207a65726f206164646044820152637265737360e01b60648201526084016107fa565b6001600160a01b0382166119dc5760405162461bcd60e51b815260206004820152602260248201527f45524332303a20617070726f766520746f20746865207a65726f206164647265604482015261737360f01b60648201526084016107fa565b6001600160a01b0383811660008181526034602090815260408083209487168084529482529182902085905590518481527f8c5be1e5ebec7d5bd14f71427d1e84f3dd0314c0f7b2291e5b200ac8c7c3b925910160405180910390a3505050565b6000611a498484610bc9565b90506000198114611ab15781811015611aa45760405162461bcd60e51b815260206004820152601d60248201527f45524332303a20696e73756666696369656e7420616c6c6f77616e636500000060448201526064016107fa565b611ab18484848403611919565b50505050565b6001600160a01b038316611b1b5760405162461bcd60e51b815260206004820152602560248201527f45524332303a207472616e736665722066726f6d20746865207a65726f206164604482015264647265737360d81b60648201526084016107fa565b6001600160a01b038216611b7d5760405162461bcd60e51b815260206004820152602360248201527f45524332303a207472616e7366657220746f20746865207a65726f206164647260448201526265737360e81b60648201526084016107fa565b6001600160a01b03831660009081526033602052604090205481811015611bf55760405162461bcd60e51b815260206004820152602660248201527f45524332303a207472616e7366657220616d6f756e7420657863656564732062604482015265616c616e636560d01b60648201526084016107fa565b6001600160a01b0380851660008181526033602052604080822086860390559286168082529083902080548601905591517fddf252ad1be2c89b69c2b068fc378daa952ba7f163c4a11628f55a4df523b3ef90611c559086815260200190565b60405180910390a3611ab1565b60006106527f8b73c3c69bb8fe3d512ecc4cf759cc79239f7b179b0ffacaa9a75d522b39400f611c9160655490565b6066546040805160208101859052908101839052606081018290524660808201523060a082015260009060c0016040516020818303038152906040528051906020012090509392505050565b610198546040516303d1689d60e11b8152600481018390526000916001600160a01b0316906307a2d13a90602401602060405180830381865afa158015611d28573d6000803e3d6000fd5b505050506040513d601f19601f8201168201806040525081019061061c9190613b44565b60cc546001600160a01b031633146107c75760405162461bcd60e51b815260206004820181905260248201527f4f776e61626c653a2063616c6c6572206973206e6f7420746865206f776e657260448201526064016107fa565b60026101625403611df95760405162461bcd60e51b815260206004820152601f60248201527f5265656e7472616e637947756172643a207265656e7472616e742063616c6c0060448201526064016107fa565b600261016255565b6040516001600160a01b0380851660248301528316604482015260648101829052611ab19085906323b872dd60e01b906084015b60408051601f198184030181529190526020810180516001600160e01b03166001600160e01b0319909316929092179091526125a1565b604051636eb1769f60e11b81523060048201526001600160a01b038381166024830152600091839186169063dd62ed3e90604401602060405180830381865afa158015611ebd573d6000803e3d6000fd5b505050506040513d601f19601f82011682018060405250810190611ee19190613b44565b611eeb9190613af4565b6040516001600160a01b038516602482015260448101829052909150611ab190859063095ea7b360e01b90606401611e35565b611f288382612673565b826001600160a01b0316846001600160a01b03167fdcbc1c05240f31ff3ad067ef1ee35ce4997762752e3a095284754544f4c709d78484604051611f76929190918252602082015260400190565b60405180910390a350505050565b600161016255565b60fe80546001600160a01b03191690556108ae81612734565b611fad6120a0565b610130805460ff191660011790557f62e78cea01bee320cd4e420270b5ea74000d11b0c9f74754ebdbfc544b05a258611fe33390565b6040516001600160a01b03909116815260200160405180910390a1565b6001600160a01b03811660009081526099602052604090208054600181018255905b50919050565b600061061c612035611c62565b8360405161190160f01b6020820152602281018390526042810182905260009060620160405160208183030381529060405280519060200120905092915050565b600080600061208787878787612786565b915091506120948161284a565b5090505b949350505050565b6101305460ff16156107c75760405162461bcd60e51b815260206004820152601060248201526f14185d5cd8589b194e881c185d5cd95960821b60448201526064016107fa565b60006121386040518061012001604052806000815260200160008152602001600081526020016000815260200160008152602001600081526020016000815260200160008152602001600081525090565b60008061214486612994565b90925090506121538183613ded565b835261215e86612a79565b606086015260408086019190915260208086019290925280516331913fa560e21b815290516000926001600160a01b0389169263c644fe949260048083019392829003018187875af11580156121b8573d6000803e3d6000fd5b505050506040513d601f19601f820116820180604052508101906121dc9190613cc0565b6001600160a01b031663313ce5676040518163ffffffff1660e01b8152600401602060405180830381865afa158015612219573d6000803e3d6000fd5b505050506040513d601f19601f8201168201806040525081019061223d9190613cdd565b61224890600a613dde565b905061225386612bb6565b6080850181905284518991839161226991613e0f565b6122739190613ded565b61227e906001613af4565b612289906001613ded565b6122939190613e0f565b61229d9089613c5c565b60c085018190526000906122b19085613af4565b905060008560c001518a6122c59190613c5c565b6122cf9085613af4565b90506122fc6040518060800160405280600081526020016000815260200160008152602001600081525090565b60208088015182526040808901519183019190915281018390526060810182905261232681612cf5565b60a0880152858511156123685761233d8b87613af4565b61010088018c90526040820181905260608201869052925061235e81612cf5565b60e08801526123b4565b838b88608001516123799190613e0f565b6123839190613ded565b61238d9086613af4565b6000610100890152604082018790526060820181905291506123ae81612cf5565b60e08801525b86606001518760a0015111806123d1575086606001518760e00151115b61241e57604051634966920360e11b815260206004820152601960248201527f4465706f7369742073747261746567696573206661696c65640000000000000060448201526064016107fa565b8660a001518760e00151111561244257866101000151975050505050505050610641565b50505060c090930151979650505050505050565b61245e613293565b610130805460ff191690557f5db9ee0a495bf2e6ff9c91a7834c1ba4fdd244a5e8aa4e537bd38aeae4b073aa33611fe3565b600054610100900460ff166124b75760405162461bcd60e51b81526004016107fa90613e2e565b6124c182826132dd565b5050565b600054610100900460ff166124ec5760405162461bcd60e51b81526004016107fa90613e2e565b6108ae81604051806040016040528060018152602001603160f81b81525061332b565b600054610100900460ff166125365760405162461bcd60e51b81526004016107fa90613e2e565b6107c761336c565b600054610100900460ff166125655760405162461bcd60e51b81526004016107fa90613e2e565b6107c761339c565b600054610100900460ff166125945760405162461bcd60e51b81526004016107fa90613e2e565b6107c76133d0565b505050565b60006125f6826040518060400160405280602081526020017f5361666545524332303a206c6f772d6c6576656c2063616c6c206661696c6564815250856001600160a01b03166133f79092919063ffffffff16565b80519091501561259c57808060200190518101906126149190613e79565b61259c5760405162461bcd60e51b815260206004820152602a60248201527f5361666545524332303a204552433230206f7065726174696f6e20646964206e6044820152691bdd081cdd58d8d9595960b21b60648201526084016107fa565b6001600160a01b0382166126c95760405162461bcd60e51b815260206004820152601f60248201527f45524332303a206d696e7420746f20746865207a65726f20616464726573730060448201526064016107fa565b80603560008282546126db9190613af4565b90915550506001600160a01b0382166000818152603360209081526040808320805486019055518481527fddf252ad1be2c89b69c2b068fc378daa952ba7f163c4a11628f55a4df523b3ef910160405180910390a35050565b60cc80546001600160a01b038381166001600160a01b0319831681179093556040519116919082907f8be0079c531659141344cd1fd0a4f28419497f9722a3daafe3b4186f6b6457e090600090a35050565b6000807f7fffffffffffffffffffffffffffffff5d576e7357a4501ddfe92f46681b20a08311156127bd5750600090506003612841565b6040805160008082526020820180845289905260ff881692820192909252606081018690526080810185905260019060a0016020604051602081039080840390855afa158015612811573d6000803e3d6000fd5b5050604051601f1901519150506001600160a01b03811661283a57600060019250925050612841565b9150600090505b94509492505050565b600081600481111561285e5761285e613e9b565b036128665750565b600181600481111561287a5761287a613e9b565b036128c75760405162461bcd60e51b815260206004820152601860248201527f45434453413a20696e76616c6964207369676e6174757265000000000000000060448201526064016107fa565b60028160048111156128db576128db613e9b565b036129285760405162461bcd60e51b815260206004820152601f60248201527f45434453413a20696e76616c6964207369676e6174757265206c656e6774680060448201526064016107fa565b600381600481111561293c5761293c613e9b565b036108ae5760405162461bcd60e51b815260206004820152602260248201527f45434453413a20696e76616c6964207369676e6174757265202773272076616c604482015261756560f01b60648201526084016107fa565b604051634903b0d160e01b81526000600482018190529081906001600160a01b03841690634903b0d1906024016020604051808303816000875af11580156129e0573d6000803e3d6000fd5b505050506040513d601f19601f82011682018060405250810190612a049190613b44565b604051634903b0d160e01b8152600160048201529092506001600160a01b03841690634903b0d1906024016020604051808303816000875af1158015612a4e573d6000803e3d6000fd5b505050506040513d601f19601f82011682018060405250810190612a729190613b44565b9050915091565b6000806000836001600160a01b031663f446c1d06040518163ffffffff1660e01b81526004016020604051808303816000875af1158015612abe573d6000803e3d6000fd5b505050506040513d601f19601f82011682018060405250810190612ae29190613b44565b9250836001600160a01b031663b13739296040518163ffffffff1660e01b81526004016020604051808303816000875af1158015612b24573d6000803e3d6000fd5b505050506040513d601f19601f82011682018060405250810190612b489190613b44565b9150836001600160a01b0316630f529ba26040518163ffffffff1660e01b81526004016020604051808303816000875af1158015612b8a573d6000803e3d6000fd5b505050506040513d601f19601f82011682018060405250810190612bae9190613b44565b929491935050565b600080826001600160a01b031663c644fe946040518163ffffffff1660e01b81526004016020604051808303816000875af1158015612bf9573d6000803e3d6000fd5b505050506040513d601f19601f82011682018060405250810190612c1d9190613cc0565b6001600160a01b031663313ce5676040518163ffffffff1660e01b8152600401602060405180830381865afa158015612c5a573d6000803e3d6000fd5b505050506040513d601f19601f82011682018060405250810190612c7e9190613cdd565b612c8990600a613dde565b604051633ca7c82d60e01b8152600481018290529091506001600160a01b03841690633ca7c82d90602401602060405180830381865afa158015612cd1573d6000803e3d6000fd5b505050506040513d601f19601f820116820180604052508101906106419190613b44565b6000612cff613646565b826060015183604001511015612d25576060830151815260408301516020820152612d37565b60408301518152606083015160208201525b8051633b9ac9ff108015612d59575080516d314dc6448d9338c15b0a00000001115b612d9e57604051634966920360e11b8152602060048201526015602482015274556e736166652076616c756520666f7220785b305d60581b60448201526064016107fa565b80516020820151655af3107a3fff9190612dc090670de0b6b3a7640000613e0f565b612dca9190613ded565b11612e1057604051634966920360e11b8152602060048201526015602482015274556e736166652076616c756520666f7220785b315d60581b60448201526064016107fa565b6000612e1b82613406565b612e26906002613e0f565b60208301518351919250600091612e3d9190613af4565b905060005b60ff811015613256576020840151845184916000918391908290612e6e90673782dace9d900000613e0f565b612e789190613ded565b612e829190613e0f565b612e8c9190613ded565b905060008860200151670de0b6b3a7640000612ea89190613af4565b905081811115612ece57612ebc8282613c5c565b612ec7906001613af4565b9050612ee6565b612ed88183613c5c565b612ee3906001613af4565b90505b885160208a0151600091906127109084908181612f0b8d670de0b6b3a7640000613e0f565b612f159190613ded565b612f1f9190613e0f565b612f299190613ded565b612f339190613e0f565b612f3d9190613e0f565b612f479190613ded565b9050600082612f5e85673782dace9d900000613e0f565b612f689190613ded565b90506000670de0b6b3a7640000612f7f8a84613e0f565b612f899190613ded565b85612f95856002613e0f565b612f9f9190613ded565b670de0b6b3a7640000612fb2858c613e0f565b612fbc9190613ded565b612fc6908b613af4565b612fd09190613af4565b612fda9190613c5c565b9050600081612fe98a82613af4565b612ff3908c613e0f565b612ffd9190613ded565b905060008261300c8c80613e0f565b6130169190613ded565b905086670de0b6b3a76400001115613087578661303b81670de0b6b3a7640000613c5c565b670de0b6b3a764000061304e8689613ded565b613058908f613e0f565b6130629190613ded565b61306c9190613e0f565b6130769190613ded565b6130809082613af4565b90506130e2565b8661309a670de0b6b3a764000082613c5c565b670de0b6b3a76400006130ad8689613ded565b6130b7908f613e0f565b6130c19190613ded565b6130cb9190613e0f565b6130d59190613ded565b6130df9082613c5c565b90505b808211156130fb576130f48183613c5c565b9a50613114565b60026131078383613c5c565b6131119190613ded565b9a505b6000888c111561312f57613128898d613c5c565b905061313c565b6131398c8a613c5c565b90505b61314d662386f26fc100008d6134b6565b61315d82655af3107a4000613e0f565b101561323a57600099505b60028a10156132275760008c8e8c6002811061318657613186613eb1565b602002015161319d90670de0b6b3a7640000613e0f565b6131a79190613ded565b9050662386f26fc0ffff811180156131c7575068056bc75e2d6310000181105b61321457604051634966920360e11b815260206004820152601960248201527f556e736166652076616c756573206f66206465706f736974730000000000000060448201526064016107fa565b508961321f81613ec7565b9a5050613168565b50999d9c50505050505050505050505050565b505050505050505050808061324e90613ec7565b915050612e42565b50604051634966920360e11b815260206004820152601060248201526f446964206e6f7420636f6e766572676560801b60448201526064016107fa565b6101305460ff166107c75760405162461bcd60e51b815260206004820152601460248201527314185d5cd8589b194e881b9bdd081c185d5cd95960621b60448201526064016107fa565b600054610100900460ff166133045760405162461bcd60e51b81526004016107fa90613e2e565b8151613317906036906020850190613664565b50805161259c906037906020840190613664565b600054610100900460ff166133525760405162461bcd60e51b81526004016107fa90613e2e565b815160209283012081519190920120606591909155606655565b600054610100900460ff166133935760405162461bcd60e51b81526004016107fa90613e2e565b6107c733611f8c565b600054610100900460ff166133c35760405162461bcd60e51b81526004016107fa90613e2e565b610130805460ff19169055565b600054610100900460ff16611f845760405162461bcd60e51b81526004016107fa90613e2e565b606061209884846000856134cd565b805160009081805b60ff81101561325657602085015185518491600291839161342e91613e0f565b6134389190613ded565b6134429086613af4565b61344c9190613ded565b935080841115613467576134608185613c5c565b9250613474565b6134718482613c5c565b92505b60018311158061349457508361349284670de0b6b3a7640000613e0f565b105b156134a3575091949350505050565b50806134ae81613ec7565b91505061340e565b6000818310156134c65781610641565b5090919050565b60608247101561352e5760405162461bcd60e51b815260206004820152602660248201527f416464726573733a20696e73756666696369656e742062616c616e636520666f6044820152651c8818d85b1b60d21b60648201526084016107fa565b600080866001600160a01b0316858760405161354a9190613ca4565b60006040518083038185875af1925050503d8060008114613587576040519150601f19603f3d011682016040523d82523d6000602084013e61358c565b606091505b509150915061359d878383876135a8565b979650505050505050565b60608315613617578251600003613610576001600160a01b0385163b6136105760405162461bcd60e51b815260206004820152601d60248201527f416464726573733a2063616c6c20746f206e6f6e2d636f6e747261637400000060448201526064016107fa565b5081612098565b612098838381511561362c5781518083602001fd5b8060405162461bcd60e51b81526004016107fa9190613729565b60405180604001604052806002906020820280368337509192915050565b82805461367090613aaa565b90600052602060002090601f01602090048101928261369257600085556136d8565b82601f106136ab57805160ff19168380011785556136d8565b828001600101855582156136d8579182015b828111156136d85782518255916020019190600101906136bd565b506136e49291506136e8565b5090565b5b808211156136e457600081556001016136e9565b60005b83811015613718578181015183820152602001613700565b83811115611ab15750506000910152565b60208152600082518060208401526137488160408501602087016136fd565b601f01601f19169190910160400192915050565b60006020828403121561376e57600080fd5b5035919050565b6001600160a01b03811681146108ae57600080fd5b6000806040838503121561379d57600080fd5b82356137a881613775565b946020939093013593505050565b6000806000606084860312156137cb57600080fd5b83356137d681613775565b925060208401356137e681613775565b929592945050506040919091013590565b60006020828403121561380957600080fd5b813561064181613775565b6000806040838503121561382757600080fd5b82359150602083013561383981613775565b809150509250929050565b60008060006060848603121561385957600080fd5b83359250602084013561386b81613775565b9150604084013561387b81613775565b809150509250925092565b60ff811681146108ae57600080fd5b600080600080600080600060e0888a0312156138b057600080fd5b87356138bb81613775565b965060208801356138cb81613775565b9550604088013594506060880135935060808801356138e981613886565b9699959850939692959460a0840135945060c09093013592915050565b6000806040838503121561391957600080fd5b823561392481613775565b9150602083013561383981613775565b634e487b7160e01b600052604160045260246000fd5b6040805190810167ffffffffffffffff8111828210171561396d5761396d613934565b60405290565b604051601f8201601f1916810167ffffffffffffffff8111828210171561399c5761399c613934565b604052919050565b600067ffffffffffffffff8211156139be576139be613934565b50601f01601f191660200190565b600082601f8301126139dd57600080fd5b81356139f06139eb826139a4565b613973565b818152846020838601011115613a0557600080fd5b816020850160208301376000918101602001919091529392505050565b600080600080600060a08688031215613a3a57600080fd5b853567ffffffffffffffff80821115613a5257600080fd5b613a5e89838a016139cc565b96506020880135915080821115613a7457600080fd5b50613a81888289016139cc565b945050604086013592506060860135613a9981613775565b949793965091946080013592915050565b600181811c90821680613abe57607f821691505b60208210810361202257634e487b7160e01b600052602260045260246000fd5b634e487b7160e01b600052601160045260246000fd5b60008219821115613b0757613b07613ade565b500190565b6001600160a01b039687168152602081019590955260408501939093529084166060840152608083015290911660a082015260c00190565b600060208284031215613b5657600080fd5b5051919050565b60208082526021908201527f4d617820666565732073686f756c64206265206c657373207468616e203130306040820152602560f81b606082015260800190565b60006020808385031215613bb157600080fd5b825167ffffffffffffffff80821115613bc957600080fd5b9084019060408287031215613bdd57600080fd5b613be561394a565b8251613bf081613775565b81528284015182811115613c0357600080fd5b80840193505086601f840112613c1857600080fd5b82519150613c286139eb836139a4565b8281528785848601011115613c3c57600080fd5b613c4b838683018787016136fd565b938101939093525090949350505050565b600082821015613c6e57613c6e613ade565b500390565b60408101818360005b6002811015613c9b578151835260209283019290910190600101613c7c565b50505092915050565b60008251613cb68184602087016136fd565b9190910192915050565b600060208284031215613cd257600080fd5b815161064181613775565b600060208284031215613cef57600080fd5b815161064181613886565b600181815b80851115613d35578160001904821115613d1b57613d1b613ade565b80851615613d2857918102915b93841c9390800290613cff565b509250929050565b600082613d4c5750600161061c565b81613d595750600061061c565b8160018114613d6f5760028114613d7957613d95565b600191505061061c565b60ff841115613d8a57613d8a613ade565b50506001821b61061c565b5060208310610133831016604e8410600b8410161715613db8575081810a61061c565b613dc28383613cfa565b8060001904821115613dd657613dd6613ade565b029392505050565b600061064160ff841683613d3d565b600082613e0a57634e487b7160e01b600052601260045260246000fd5b500490565b6000816000190483118215151615613e2957613e29613ade565b500290565b6020808252602b908201527f496e697469616c697a61626c653a20636f6e7472616374206973206e6f74206960408201526a6e697469616c697a696e6760a81b606082015260800190565b600060208284031215613e8b57600080fd5b8151801515811461064157600080fd5b634e487b7160e01b600052602160045260246000fd5b634e487b7160e01b600052603260045260246000fd5b600060018201613ed957613ed9613ade565b506001019056fea26469706673582212208121c9627b4a23e1da08377f47cff74269348917de53f3156b806ba78964f63f64736f6c634300080d0033",
    "linkReferences": {}
  },
  "methodIdentifiers": {
    "DOMAIN_SEPARATOR()": "3644e515",
    "acceptOwnership()": "79ba5097",
    "allowance(address,address)": "dd62ed3e",
    "approve(address,uint256)": "095ea7b3",
    "asset()": "38d52e0f",
    "balanceOf(address)": "70a08231",
    "compoundInterest()": "e425e8b5",
    "convertToAssets(uint256)": "07a2d13a",
    "convertToAssetsOfIBT(uint256)": "3ca7c82d",
    "convertToShares(uint256)": "c6e6f592",
    "decimals()": "313ce567",
    "decreaseAllowance(address,uint256)": "a457c2d7",
    "deposit(uint256,address)": "6e553f65",
    "depositWithIBT(uint256,address)": "bafc0f14",
    "gePerformanceFee()": "33cd7a80",
    "getPrincipalToken()": "adb724bf",
    "increaseAllowance(address,uint256)": "39509351",
    "initialize(string,string,uint256,address,uint256)": "fede0276",
    "maxDeposit(address)": "402d267d",
    "maxMint(address)": "c63d75b6",
    "maxRedeem(address)": "d905777e",
    "maxWithdraw(address)": "ce96cb77",
    "mint(uint256,address)": "94bf804d",
    "name()": "06fdde03",
    "nonces(address)": "7ecebe00",
    "owner()": "8da5cb5b",
    "pause()": "8456cb59",
    "paused()": "5c975abb",
    "pendingOwner()": "e30c3978",
    "permit(address,address,uint256,uint256,uint8,bytes32,bytes32)": "d505accf",
    "previewDeposit(uint256)": "ef8b30f7",
    "previewDepositWithIBT(uint256)": "fb898304",
    "previewMint(uint256)": "b3d7f6b9",
    "previewRedeem(uint256)": "4cdad506",
    "previewWithdraw(uint256)": "0a28a477",
    "redeem(uint256,address,address)": "ba087652",
    "renounceOwnership()": "715018a6",
    "setPoolIndex(uint256)": "52461562",
    "symbol()": "95d89b41",
    "totalAssets()": "01e1d114",
    "totalSupply()": "18160ddd",
    "transfer(address,uint256)": "a9059cbb",
    "transferFrom(address,address,uint256)": "23b872dd",
    "transferOwnership(address)": "f2fde38b",
    "unPause()": "f7b188a5",
    "updateFees(uint256)": "78dacee1",
    "withdraw(uint256,address,address)": "b460af94"
  },
  "id": 96
}