{
  "abi": [
    {
      "inputs": [],
      "stateMutability": "nonpayable",
      "type": "constructor"
    },
    {
      "inputs": [],
      "name": "CallerNotOwner",
      "type": "error"
    },
    {
      "inputs": [],
      "name": "CouldNotFetchExpectedLPAmount",
      "type": "error"
    },
    {
      "inputs": [],
      "name": "FailedToConverge",
      "type": "error"
    },
    {
      "inputs": [],
      "name": "FeeGreaterThanMaxValue",
      "type": "error"
    },
    {
      "inputs": [],
      "name": "InsufficientVaultShares",
      "type": "error"
    },
    {
      "inputs": [],
      "name": "RegistryAddressNotSet",
      "type": "error"
    },
    {
      "inputs": [],
      "name": "TokenFactoryAddressNotSet",
      "type": "error"
    },
    {
      "inputs": [],
      "name": "UnsafeValueForDeposits",
      "type": "error"
    },
    {
      "inputs": [],
      "name": "UnsafeValueForX0",
      "type": "error"
    },
    {
      "inputs": [],
      "name": "UnsafeValueForX1",
      "type": "error"
    },
    {
      "inputs": [],
      "name": "ZapAddressNotSet",
      "type": "error"
    },
    {
      "anonymous": false,
      "inputs": [
        {
          "indexed": true,
          "internalType": "address",
          "name": "owner",
          "type": "address"
        },
        {
          "indexed": true,
          "internalType": "address",
          "name": "spender",
          "type": "address"
        },
        {
          "indexed": false,
          "internalType": "uint256",
          "name": "value",
          "type": "uint256"
        }
      ],
      "name": "Approval",
      "type": "event"
    },
    {
      "anonymous": false,
      "inputs": [
        {
          "indexed": true,
          "internalType": "address",
          "name": "sender",
          "type": "address"
        },
        {
          "indexed": true,
          "internalType": "address",
          "name": "owner",
          "type": "address"
        },
        {
          "indexed": false,
          "internalType": "uint256",
          "name": "assets",
          "type": "uint256"
        },
        {
          "indexed": false,
          "internalType": "uint256",
          "name": "shares",
          "type": "uint256"
        }
      ],
      "name": "Deposit",
      "type": "event"
    },
    {
      "anonymous": false,
      "inputs": [
        {
          "indexed": true,
          "internalType": "uint256",
          "name": "fees",
          "type": "uint256"
        }
      ],
      "name": "FeeUpdated",
      "type": "event"
    },
    {
      "anonymous": false,
      "inputs": [
        {
          "indexed": false,
          "internalType": "uint8",
          "name": "version",
          "type": "uint8"
        }
      ],
      "name": "Initialized",
      "type": "event"
    },
    {
      "anonymous": false,
      "inputs": [
        {
          "indexed": true,
          "internalType": "uint256",
          "name": "yieldInUnderlying",
          "type": "uint256"
        },
        {
          "indexed": true,
          "internalType": "uint256",
          "name": "lptAmount",
          "type": "uint256"
        }
      ],
      "name": "InterestCompounded",
      "type": "event"
    },
    {
      "anonymous": false,
      "inputs": [
        {
          "indexed": true,
          "internalType": "address",
          "name": "previousOwner",
          "type": "address"
        },
        {
          "indexed": true,
          "internalType": "address",
          "name": "newOwner",
          "type": "address"
        }
      ],
      "name": "OwnershipTransferStarted",
      "type": "event"
    },
    {
      "anonymous": false,
      "inputs": [
        {
          "indexed": true,
          "internalType": "address",
          "name": "previousOwner",
          "type": "address"
        },
        {
          "indexed": true,
          "internalType": "address",
          "name": "newOwner",
          "type": "address"
        }
      ],
      "name": "OwnershipTransferred",
      "type": "event"
    },
    {
      "anonymous": false,
      "inputs": [
        {
          "indexed": false,
          "internalType": "address",
          "name": "account",
          "type": "address"
        }
      ],
      "name": "Paused",
      "type": "event"
    },
    {
      "anonymous": false,
      "inputs": [
        {
          "indexed": false,
          "internalType": "uint256",
          "name": "_newIndex",
          "type": "uint256"
        }
      ],
      "name": "PoolIndexUpdated",
      "type": "event"
    },
    {
      "anonymous": false,
      "inputs": [
        {
          "indexed": true,
          "internalType": "address",
          "name": "from",
          "type": "address"
        },
        {
          "indexed": true,
          "internalType": "address",
          "name": "to",
          "type": "address"
        },
        {
          "indexed": false,
          "internalType": "uint256",
          "name": "value",
          "type": "uint256"
        }
      ],
      "name": "Transfer",
      "type": "event"
    },
    {
      "anonymous": false,
      "inputs": [
        {
          "indexed": false,
          "internalType": "address",
          "name": "account",
          "type": "address"
        }
      ],
      "name": "Unpaused",
      "type": "event"
    },
    {
      "anonymous": false,
      "inputs": [
        {
          "indexed": true,
          "internalType": "address",
          "name": "sender",
          "type": "address"
        },
        {
          "indexed": true,
          "internalType": "address",
          "name": "receiver",
          "type": "address"
        },
        {
          "indexed": true,
          "internalType": "address",
          "name": "owner",
          "type": "address"
        },
        {
          "indexed": false,
          "internalType": "uint256",
          "name": "assets",
          "type": "uint256"
        },
        {
          "indexed": false,
          "internalType": "uint256",
          "name": "shares",
          "type": "uint256"
        }
      ],
      "name": "Withdraw",
      "type": "event"
    },
    {
      "inputs": [],
      "name": "DOMAIN_SEPARATOR",
      "outputs": [
        {
          "internalType": "bytes32",
          "name": "",
          "type": "bytes32"
        }
      ],
      "stateMutability": "view",
      "type": "function"
    },
    {
      "inputs": [],
      "name": "acceptOwnership",
      "outputs": [],
      "stateMutability": "nonpayable",
      "type": "function"
    },
    {
      "inputs": [
        {
          "internalType": "address",
          "name": "owner",
          "type": "address"
        },
        {
          "internalType": "address",
          "name": "spender",
          "type": "address"
        }
      ],
      "name": "allowance",
      "outputs": [
        {
          "internalType": "uint256",
          "name": "",
          "type": "uint256"
        }
      ],
      "stateMutability": "view",
      "type": "function"
    },
    {
      "inputs": [
        {
          "internalType": "address",
          "name": "spender",
          "type": "address"
        },
        {
          "internalType": "uint256",
          "name": "amount",
          "type": "uint256"
        }
      ],
      "name": "approve",
      "outputs": [
        {
          "internalType": "bool",
          "name": "",
          "type": "bool"
        }
      ],
      "stateMutability": "nonpayable",
      "type": "function"
    },
    {
      "inputs": [],
      "name": "asset",
      "outputs": [
        {
          "internalType": "address",
          "name": "",
          "type": "address"
        }
      ],
      "stateMutability": "view",
      "type": "function"
    },
    {
      "inputs": [
        {
          "internalType": "address",
          "name": "account",
          "type": "address"
        }
      ],
      "name": "balanceOf",
      "outputs": [
        {
          "internalType": "uint256",
          "name": "",
          "type": "uint256"
        }
      ],
      "stateMutability": "view",
      "type": "function"
    },
    {
      "inputs": [],
      "name": "compoundInterest",
      "outputs": [
        {
          "internalType": "uint256",
          "name": "lpAmount",
          "type": "uint256"
        }
      ],
      "stateMutability": "nonpayable",
      "type": "function"
    },
    {
      "inputs": [
        {
          "internalType": "uint256",
          "name": "shares",
          "type": "uint256"
        }
      ],
      "name": "convertToAssets",
      "outputs": [
        {
          "internalType": "uint256",
          "name": "",
          "type": "uint256"
        }
      ],
      "stateMutability": "view",
      "type": "function"
    },
    {
      "inputs": [
        {
          "internalType": "uint256",
          "name": "ibtAmount",
          "type": "uint256"
        }
      ],
      "name": "convertToAssetsOfIBT",
      "outputs": [
        {
          "internalType": "uint256",
          "name": "",
          "type": "uint256"
        }
      ],
      "stateMutability": "view",
      "type": "function"
    },
    {
      "inputs": [
        {
          "internalType": "uint256",
          "name": "assets",
          "type": "uint256"
        }
      ],
      "name": "convertToShares",
      "outputs": [
        {
          "internalType": "uint256",
          "name": "",
          "type": "uint256"
        }
      ],
      "stateMutability": "view",
      "type": "function"
    },
    {
      "inputs": [],
      "name": "decimals",
      "outputs": [
        {
          "internalType": "uint8",
          "name": "",
          "type": "uint8"
        }
      ],
      "stateMutability": "view",
      "type": "function"
    },
    {
      "inputs": [
        {
          "internalType": "address",
          "name": "spender",
          "type": "address"
        },
        {
          "internalType": "uint256",
          "name": "subtractedValue",
          "type": "uint256"
        }
      ],
      "name": "decreaseAllowance",
      "outputs": [
        {
          "internalType": "bool",
          "name": "",
          "type": "bool"
        }
      ],
      "stateMutability": "nonpayable",
      "type": "function"
    },
    {
      "inputs": [
        {
          "internalType": "uint256",
          "name": "assets",
          "type": "uint256"
        },
        {
          "internalType": "address",
          "name": "receiver",
          "type": "address"
        }
      ],
      "name": "deposit",
      "outputs": [
        {
          "internalType": "uint256",
          "name": "shares",
          "type": "uint256"
        }
      ],
      "stateMutability": "nonpayable",
      "type": "function"
    },
    {
      "inputs": [
        {
          "internalType": "uint256",
          "name": "ibtAmount",
          "type": "uint256"
        },
        {
          "internalType": "address",
          "name": "receiver",
          "type": "address"
        }
      ],
      "name": "depositWithIBT",
      "outputs": [
        {
          "internalType": "uint256",
          "name": "shares",
          "type": "uint256"
        }
      ],
      "stateMutability": "nonpayable",
      "type": "function"
    },
    {
      "inputs": [],
      "name": "gePerformanceFee",
      "outputs": [
        {
          "internalType": "uint256",
          "name": "",
          "type": "uint256"
        }
      ],
      "stateMutability": "view",
      "type": "function"
    },
    {
      "inputs": [],
      "name": "getPrincipalToken",
      "outputs": [
        {
          "internalType": "address",
          "name": "",
          "type": "address"
        }
      ],
      "stateMutability": "view",
      "type": "function"
    },
    {
      "inputs": [
        {
          "internalType": "address",
          "name": "spender",
          "type": "address"
        },
        {
          "internalType": "uint256",
          "name": "addedValue",
          "type": "uint256"
        }
      ],
      "name": "increaseAllowance",
      "outputs": [
        {
          "internalType": "bool",
          "name": "",
          "type": "bool"
        }
      ],
      "stateMutability": "nonpayable",
      "type": "function"
    },
    {
      "inputs": [
        {
          "internalType": "string",
          "name": "_name",
          "type": "string"
        },
        {
          "internalType": "string",
          "name": "_symbol",
          "type": "string"
        },
        {
          "internalType": "uint256",
          "name": "_poolIndex",
          "type": "uint256"
        },
        {
          "internalType": "address",
          "name": "_principalToken",
          "type": "address"
        },
        {
          "internalType": "address",
          "name": "_registry",
          "type": "address"
        },
        {
          "internalType": "uint256",
          "name": "_performanceFee",
          "type": "uint256"
        }
      ],
      "name": "initialize",
      "outputs": [],
      "stateMutability": "nonpayable",
      "type": "function"
    },
    {
      "inputs": [
        {
          "internalType": "address",
          "name": "",
          "type": "address"
        }
      ],
      "name": "maxDeposit",
      "outputs": [
        {
          "internalType": "uint256",
          "name": "",
          "type": "uint256"
        }
      ],
      "stateMutability": "pure",
      "type": "function"
    },
    {
      "inputs": [
        {
          "internalType": "address",
          "name": "",
          "type": "address"
        }
      ],
      "name": "maxMint",
      "outputs": [
        {
          "internalType": "uint256",
          "name": "",
          "type": "uint256"
        }
      ],
      "stateMutability": "view",
      "type": "function"
    },
    {
      "inputs": [
        {
          "internalType": "address",
          "name": "owner",
          "type": "address"
        }
      ],
      "name": "maxRedeem",
      "outputs": [
        {
          "internalType": "uint256",
          "name": "",
          "type": "uint256"
        }
      ],
      "stateMutability": "view",
      "type": "function"
    },
    {
      "inputs": [
        {
          "internalType": "address",
          "name": "owner",
          "type": "address"
        }
      ],
      "name": "maxWithdraw",
      "outputs": [
        {
          "internalType": "uint256",
          "name": "",
          "type": "uint256"
        }
      ],
      "stateMutability": "view",
      "type": "function"
    },
    {
      "inputs": [
        {
          "internalType": "uint256",
          "name": "shares",
          "type": "uint256"
        },
        {
          "internalType": "address",
          "name": "receiver",
          "type": "address"
        }
      ],
      "name": "mint",
      "outputs": [
        {
          "internalType": "uint256",
          "name": "assets",
          "type": "uint256"
        }
      ],
      "stateMutability": "nonpayable",
      "type": "function"
    },
    {
      "inputs": [],
      "name": "name",
      "outputs": [
        {
          "internalType": "string",
          "name": "",
          "type": "string"
        }
      ],
      "stateMutability": "view",
      "type": "function"
    },
    {
      "inputs": [
        {
          "internalType": "address",
          "name": "owner",
          "type": "address"
        }
      ],
      "name": "nonces",
      "outputs": [
        {
          "internalType": "uint256",
          "name": "",
          "type": "uint256"
        }
      ],
      "stateMutability": "view",
      "type": "function"
    },
    {
      "inputs": [],
      "name": "owner",
      "outputs": [
        {
          "internalType": "address",
          "name": "",
          "type": "address"
        }
      ],
      "stateMutability": "view",
      "type": "function"
    },
    {
      "inputs": [],
      "name": "pause",
      "outputs": [],
      "stateMutability": "nonpayable",
      "type": "function"
    },
    {
      "inputs": [],
      "name": "paused",
      "outputs": [
        {
          "internalType": "bool",
          "name": "",
          "type": "bool"
        }
      ],
      "stateMutability": "view",
      "type": "function"
    },
    {
      "inputs": [],
      "name": "pendingOwner",
      "outputs": [
        {
          "internalType": "address",
          "name": "",
          "type": "address"
        }
      ],
      "stateMutability": "view",
      "type": "function"
    },
    {
      "inputs": [
        {
          "internalType": "address",
          "name": "owner",
          "type": "address"
        },
        {
          "internalType": "address",
          "name": "spender",
          "type": "address"
        },
        {
          "internalType": "uint256",
          "name": "value",
          "type": "uint256"
        },
        {
          "internalType": "uint256",
          "name": "deadline",
          "type": "uint256"
        },
        {
          "internalType": "uint8",
          "name": "v",
          "type": "uint8"
        },
        {
          "internalType": "bytes32",
          "name": "r",
          "type": "bytes32"
        },
        {
          "internalType": "bytes32",
          "name": "s",
          "type": "bytes32"
        }
      ],
      "name": "permit",
      "outputs": [],
      "stateMutability": "nonpayable",
      "type": "function"
    },
    {
      "inputs": [
        {
          "internalType": "uint256",
          "name": "assets",
          "type": "uint256"
        }
      ],
      "name": "previewDeposit",
      "outputs": [
        {
          "internalType": "uint256",
          "name": "",
          "type": "uint256"
        }
      ],
      "stateMutability": "view",
      "type": "function"
    },
    {
      "inputs": [
        {
          "internalType": "uint256",
          "name": "ibtAmount",
          "type": "uint256"
        }
      ],
      "name": "previewDepositWithIBT",
      "outputs": [
        {
          "internalType": "uint256",
          "name": "",
          "type": "uint256"
        }
      ],
      "stateMutability": "view",
      "type": "function"
    },
    {
      "inputs": [
        {
          "internalType": "uint256",
          "name": "shares",
          "type": "uint256"
        }
      ],
      "name": "previewMint",
      "outputs": [
        {
          "internalType": "uint256",
          "name": "",
          "type": "uint256"
        }
      ],
      "stateMutability": "view",
      "type": "function"
    },
    {
      "inputs": [
        {
          "internalType": "uint256",
          "name": "shares",
          "type": "uint256"
        }
      ],
      "name": "previewRedeem",
      "outputs": [
        {
          "internalType": "uint256",
          "name": "",
          "type": "uint256"
        }
      ],
      "stateMutability": "view",
      "type": "function"
    },
    {
      "inputs": [
        {
          "internalType": "uint256",
          "name": "assets",
          "type": "uint256"
        }
      ],
      "name": "previewWithdraw",
      "outputs": [
        {
          "internalType": "uint256",
          "name": "",
          "type": "uint256"
        }
      ],
      "stateMutability": "view",
      "type": "function"
    },
    {
      "inputs": [
        {
          "internalType": "uint256",
          "name": "shares",
          "type": "uint256"
        },
        {
          "internalType": "address",
          "name": "receiver",
          "type": "address"
        },
        {
          "internalType": "address",
          "name": "owner",
          "type": "address"
        }
      ],
      "name": "redeem",
      "outputs": [
        {
          "internalType": "uint256",
          "name": "assets",
          "type": "uint256"
        }
      ],
      "stateMutability": "nonpayable",
      "type": "function"
    },
    {
      "inputs": [],
      "name": "renounceOwnership",
      "outputs": [],
      "stateMutability": "nonpayable",
      "type": "function"
    },
    {
      "inputs": [
        {
          "internalType": "uint256",
          "name": "_newIndex",
          "type": "uint256"
        }
      ],
      "name": "setPoolIndex",
      "outputs": [],
      "stateMutability": "nonpayable",
      "type": "function"
    },
    {
      "inputs": [],
      "name": "symbol",
      "outputs": [
        {
          "internalType": "string",
          "name": "",
          "type": "string"
        }
      ],
      "stateMutability": "view",
      "type": "function"
    },
    {
      "inputs": [],
      "name": "totalAssets",
      "outputs": [
        {
          "internalType": "uint256",
          "name": "",
          "type": "uint256"
        }
      ],
      "stateMutability": "view",
      "type": "function"
    },
    {
      "inputs": [],
      "name": "totalSupply",
      "outputs": [
        {
          "internalType": "uint256",
          "name": "",
          "type": "uint256"
        }
      ],
      "stateMutability": "view",
      "type": "function"
    },
    {
      "inputs": [
        {
          "internalType": "address",
          "name": "to",
          "type": "address"
        },
        {
          "internalType": "uint256",
          "name": "amount",
          "type": "uint256"
        }
      ],
      "name": "transfer",
      "outputs": [
        {
          "internalType": "bool",
          "name": "",
          "type": "bool"
        }
      ],
      "stateMutability": "nonpayable",
      "type": "function"
    },
    {
      "inputs": [
        {
          "internalType": "address",
          "name": "from",
          "type": "address"
        },
        {
          "internalType": "address",
          "name": "to",
          "type": "address"
        },
        {
          "internalType": "uint256",
          "name": "amount",
          "type": "uint256"
        }
      ],
      "name": "transferFrom",
      "outputs": [
        {
          "internalType": "bool",
          "name": "",
          "type": "bool"
        }
      ],
      "stateMutability": "nonpayable",
      "type": "function"
    },
    {
      "inputs": [
        {
          "internalType": "address",
          "name": "newOwner",
          "type": "address"
        }
      ],
      "name": "transferOwnership",
      "outputs": [],
      "stateMutability": "nonpayable",
      "type": "function"
    },
    {
      "inputs": [],
      "name": "unPause",
      "outputs": [],
      "stateMutability": "nonpayable",
      "type": "function"
    },
    {
      "inputs": [
        {
          "internalType": "uint256",
          "name": "newFees",
          "type": "uint256"
        }
      ],
      "name": "updateFees",
      "outputs": [],
      "stateMutability": "nonpayable",
      "type": "function"
    },
    {
      "inputs": [
        {
          "internalType": "uint256",
          "name": "assets",
          "type": "uint256"
        },
        {
          "internalType": "address",
          "name": "receiver",
          "type": "address"
        },
        {
          "internalType": "address",
          "name": "owner",
          "type": "address"
        }
      ],
      "name": "withdraw",
      "outputs": [
        {
          "internalType": "uint256",
          "name": "shares",
          "type": "uint256"
        }
      ],
      "stateMutability": "nonpayable",
      "type": "function"
    }
  ],
  "bytecode": {
    "object": "0x60806040523480156200001157600080fd5b506200001c62000022565b620000e3565b600054610100900460ff16156200008f5760405162461bcd60e51b815260206004820152602760248201527f496e697469616c697a61626c653a20636f6e747261637420697320696e697469604482015266616c697a696e6760c81b606482015260840160405180910390fd5b60005460ff90811614620000e1576000805460ff191660ff9081179091556040519081527f7f26b83ff96e1f2b6a682f133852f6798a09c465da95921460cefb38474024989060200160405180910390a15b565b614c2c80620000f36000396000f3fe608060405234801561001057600080fd5b50600436106102955760003560e01c80638456cb5911610167578063c6e6f592116100ce578063e30c397811610087578063e30c397814610555578063e425e8b514610566578063ef8b30f71461056e578063f2fde38b14610581578063f7b188a514610594578063fb8983041461059c57600080fd5b8063c6e6f592146102c5578063ce96cb7714610509578063d2eb57bb1461051c578063d505accf1461052f578063d905777e146104fb578063dd62ed3e1461054257600080fd5b8063adb724bf11610120578063adb724bf146104ac578063b3d7f6b9146103a8578063b460af94146104be578063ba087652146104d1578063bafc0f14146104e8578063c63d75b6146104fb57600080fd5b80638456cb591461044f5780638da5cb5b1461045757806394bf804d1461046857806395d89b411461047e578063a457c2d714610486578063a9059cbb1461049957600080fd5b8063395093511161020b5780636e553f65116101c45780636e553f65146103dd57806370a08231146103f0578063715018a61461041957806378dacee11461042157806379ba5097146104345780637ecebe001461043c57600080fd5b8063395093511461036d5780633ca7c82d14610380578063402d267d146103935780634cdad506146103a857806352461562146103bc5780635c975abb146103d157600080fd5b806318160ddd1161025d57806318160ddd1461030c57806323b872dd14610314578063313ce5671461032757806333cd7a80146103365780633644e5151461033f57806338d52e0f1461034757600080fd5b806301e1d1141461029a57806306fdde03146102b057806307a2d13a146102c5578063095ea7b3146102d65780630a28a477146102f9575b600080fd5b60005b6040519081526020015b60405180910390f35b6102b86105af565b6040516102a79190614333565b61029d6102d3366004614366565b90565b6102e96102e4366004614394565b610641565b60405190151581526020016102a7565b61029d610307366004614366565b61065b565b60355461029d565b6102e96103223660046143c0565b610919565b604051601281526020016102a7565b6101965461029d565b61029d61093f565b610197546001600160a01b03165b6040516001600160a01b0390911681526020016102a7565b6102e961037b366004614394565b61094e565b61029d61038e366004614366565b610970565b61029d6103a1366004614401565b5060001990565b61029d6103b6366004614366565b50600090565b6103cf6103ca366004614366565b61097b565b005b6101305460ff166102e9565b61029d6103eb36600461441e565b6109bf565b61029d6103fe366004614401565b6001600160a01b031660009081526033602052604090205490565b6103cf610aab565b6103cf61042f366004614366565b610abf565b6103cf610b24565b61029d61044a366004614401565b610ba3565b6103cf610bc1565b60cc546001600160a01b0316610355565b61029d61047636600461441e565b600092915050565b6102b8610bd1565b6102e9610494366004614394565b610be0565b6102e96104a7366004614394565b610c66565b61019a546001600160a01b0316610355565b61029d6104cc36600461444e565b610c74565b61029d6104df36600461444e565b60009392505050565b61029d6104f636600461441e565b6113d2565b61029d6103b6366004614401565b61029d610517366004614401565b6114d1565b6103cf61052a36600461457e565b6114ef565b6103cf61053d36600461462a565b6119db565b61029d61055036600461469b565b611b3f565b60fe546001600160a01b0316610355565b61029d611b6a565b61029d61057c366004614366565b6120c7565b6103cf61058f366004614401565b61218c565b6103cf6121fd565b61029d6105aa366004614366565b61220d565b6060603680546105be906146c9565b80601f01602080910402602001604051908101604052809291908181526020018280546105ea906146c9565b80156106375780601f1061060c57610100808354040283529160200191610637565b820191906000526020600020905b81548152906001019060200180831161061a57829003601f168201915b5050505050905090565b60003361064f8185856122d8565b60019150505b92915050565b61019b5461019a5461019454604051632dadcf5160e11b81526001600160a01b039283166004820152602481019190915260009283921690635b5b9ea290604401600060405180830381865afa1580156106b9573d6000803e3d6000fd5b505050506040513d6000823e601f3d908101601f191682016040526106e191908101906146fd565b90506000816000015190506000816001600160a01b031663fc0c546a6040518163ffffffff1660e01b8152600401602060405180830381865afa15801561072c573d6000803e3d6000fd5b505050506040513d601f19601f8201168201806040525081019061075091906147bb565b905060008590506000600161076460355490565b6101955461077290856147ee565b61077c9190614805565b6107869190614827565b610195546040516370a0823160e01b81523060048201529192506000916001600160a01b038616906370a0823190602401602060405180830381865afa1580156107d4573d6000803e3d6000fd5b505050506040513d601f19601f820116820180604052508101906107f8919061483a565b61080290846147ee565b61080c9190614805565b6040516327d8462f60e11b8152600481018290526000602482018190529192506001600160a01b03871690634fb08c5e90604401602060405180830381865afa15801561085d573d6000803e3d6000fd5b505050506040513d601f19601f82011682018060405250810190610881919061483a565b610198546040516303d1689d60e11b8152600481018390529192506000916064916001600160a01b0316906307a2d13a90602401602060405180830381865afa1580156108d2573d6000803e3d6000fd5b505050506040513d601f19601f820116820180604052508101906108f6919061483a565b61090190605f6147ee565b61090b9190614805565b9a9950505050505050505050565b6000336109278582856123fc565b610932858585612476565b60019150505b9392505050565b6000610949612621565b905090565b60003361064f8185856109618383611b3f565b61096b9190614853565b6122d8565b60006106558261269c565b61098361270b565b6101948190556040518181527f76dd6491fa6d672bd26747a48657f494e25010650a259ec25d9d1fd98103e75f9060200160405180910390a150565b60006109c9612765565b610197546109e2906001600160a01b03163330866127c0565b6101975461019954610a01916001600160a01b0390811691168561282b565b6101995461019a5461019454610197546040516329f9f3f760e01b81526001600160a01b03948516946329f9f3f794610a4d949082169390928a92909116906000903090600401614866565b6020604051808303816000875af1158015610a6c573d6000803e3d6000fd5b505050506040513d601f19601f82011682018060405250810190610a90919061483a565b50829050610aa0338385846128dd565b610655600161016255565b610ab361270b565b610abd600061294b565b565b610ac761270b565b670de0b6b3a7640000811115610af0576040516315118d7560e11b815260040160405180910390fd5b61019681905560405181907f8c4d35e54a3f2ef1134138fd8ea3daee6a3c89e10d2665996babdf70261e2c7690600090a250565b60fe5433906001600160a01b03168114610b975760405162461bcd60e51b815260206004820152602960248201527f4f776e61626c6532537465703a2063616c6c6572206973206e6f7420746865206044820152683732bb9037bbb732b960b91b60648201526084015b60405180910390fd5b610ba08161294b565b50565b6001600160a01b038116600090815260996020526040812054610655565b610bc961270b565b610abd612964565b6060603780546105be906146c9565b60003381610bee8286611b3f565b905083811015610c4e5760405162461bcd60e51b815260206004820152602560248201527f45524332303a2064656372656173656420616c6c6f77616e63652062656c6f77604482015264207a65726f60d81b6064820152608401610b8e565b610c5b82868684036122d8565b506001949350505050565b60003361064f818585612476565b60006001600160a01b0382163314610c9f57604051632e6c18c960e11b815260040160405180910390fd5b83905080610cc2836001600160a01b031660009081526033602052604090205490565b1015610ce157604051631ce9bb1f60e11b815260040160405180910390fd5b61019b5461019a5461019454604051632dadcf5160e11b81526001600160a01b03928316600482015260248101919091526000929190911690635b5b9ea290604401600060405180830381865afa158015610d40573d6000803e3d6000fd5b505050506040513d6000823e601f3d908101601f19168201604052610d6891908101906146fd565b805160408051600481526024810182526020810180516001600160e01b0316637e062a3560e11b179052905192935090916000916001600160a01b03841691610db1919061489e565b6000604051808303816000865af19150503d8060008114610dee576040519150601f19603f3d011682016040523d82523d6000602084013e610df3565b606091505b50915050600081806020019051810190610e0d91906147bb565b905060006001610e1c60355490565b61019554610e2a90896147ee565b610e349190614805565b610e3e9190614827565b610195546040516370a0823160e01b81523060048201529192506000916001600160a01b038516906370a0823190602401602060405180830381865afa158015610e8c573d6000803e3d6000fd5b505050506040513d601f19601f82011682018060405250810190610eb0919061483a565b610eba90846147ee565b610ec49190614805565b9050610ed3338a8a8d8b6129bf565b604080518082018252600080825260208201819052915182916001600160a01b03891691635b36389c91610f0c918791906024016148ba565b6040516020818303038152906040529060e01b6020820180516001600160e01b038381831617835250505050604051610f45919061489e565b6000604051808303816000865af19150503d8060008114610f82576040519150601f19603f3d011682016040523d82523d6000602084013e610f87565b606091505b509150915081610ff05760405162461bcd60e51b815260206004820152602e60248201527f436f756c64206e6f742072656d6f7665206c69717569646974792066726f6d2060448201526d1d1a194818dd5c9d99481c1bdbdb60921b6064820152608401610b8e565b6040805180820191829052610198546370a0823160e01b90925230604482015260009181906001600160a01b03166370a0823160648301602060405180830381865afa158015611044573d6000803e3d6000fd5b505050506040513d601f19601f82011682018060405250810190611068919061483a565b815261019a546040516370a0823160e01b81523060048201526020909201916001600160a01b03909116906370a0823190602401602060405180830381865afa1580156110b9573d6000803e3d6000fd5b505050506040513d601f19601f820116820180604052508101906110dd919061483a565b815250905060006101955461019a60009054906101000a90046001600160a01b03166001600160a01b03166304aa50ad6040518163ffffffff1660e01b81526004016020604051808303816000875af115801561113e573d6000803e3d6000fd5b505050506040513d601f19601f8201168201806040525081019061116291906147bb565b6040516370a0823160e01b81523060048201526001600160a01b0391909116906370a0823190602401602060405180830381865afa1580156111a8573d6000803e3d6000fd5b505050506040513d601f19601f820116820180604052508101906111cc919061483a565b6111d690886147ee565b6111e09190614805565b9050806000036111f057806111fb565b6111fb600182614827565b602083015190915081111561129d5761019a54604080516304aa50ad60e01b81529051611292926001600160a01b0316916304aa50ad91600480830192602092919082900301816000875af1158015611258573d6000803e3d6000fd5b505050506040513d601f19601f8201168201806040525081019061127c91906147bb565b60208401518f9061128d9085614827565b612a30565b5060208101516112cd565b602082015181116112cd5761019a546112cd906001600160a01b03168e83856001602002015161128d9190614827565b61019a546040516303d1689d60e11b8152600481018390526001600160a01b039091169063b460af949082906307a2d13a90602401602060405180830381865afa15801561131f573d6000803e3d6000fd5b505050506040513d601f19601f82011682018060405250810190611343919061483a565b8f306040518463ffffffff1660e01b815260040161137d939291909283526001600160a01b03918216602084015216604082015260600190565b6020604051808303816000875af115801561139c573d6000803e3d6000fd5b505050506040513d601f19601f820116820180604052508101906113c0919061483a565b50505050505050505050509392505050565b60006113dc612765565b610198546113f5906001600160a01b03163330866127c0565b6101985461019954611414916001600160a01b0390811691168561282b565b6101995461019a54610194546040516381f5f54760e01b81526001600160a01b039283166004820152602481019190915260448101869052600060648201523060848201529116906381f5f5479060a4016020604051808303816000875af1158015611484573d6000803e3d6000fd5b505050506040513d601f19601f820116820180604052508101906114a8919061483a565b5060006114b48461269c565b90508091506114c5338483856128dd565b50610655600161016255565b6001600160a01b038116600090815260336020526040812054610655565b600054610100900460ff161580801561150f5750600054600160ff909116105b806115295750303b158015611529575060005460ff166001145b61158c5760405162461bcd60e51b815260206004820152602e60248201527f496e697469616c697a61626c653a20636f6e747261637420697320616c72656160448201526d191e481a5b9a5d1a585b1a5e995960921b6064820152608401610b8e565b6000805460ff1916600117905580156115af576000805461ff0019166101001790555b6001600160a01b0384166116195760405162461bcd60e51b815260206004820152602b60248201527f4c505661756c743a20707420636f6e74726163742063616e6e6f74206265207a60448201526a65726f206164647265737360a81b6064820152608401610b8e565b6001600160a01b03831661164057604051633fb99ccb60e11b815260040160405180910390fd5b61164a8787612a65565b61165387612a9a565b61165b612ae4565b611663612b13565b61166b612b42565b836001600160a01b03166338d52e0f6040518163ffffffff1660e01b8152600401602060405180830381865afa1580156116a9573d6000803e3d6000fd5b505050506040513d601f19601f820116820180604052508101906116cd91906147bb565b61019780546001600160a01b039283166001600160a01b03199182161790915561019487905561019a80549287169290911682179055604080516331913fa560e21b8152905163c644fe949160048082019260209290919082900301816000875af1158015611740573d6000803e3d6000fd5b505050506040513d601f19601f8201168201806040525081019061176491906147bb565b61019860006101000a8154816001600160a01b0302191690836001600160a01b031602179055506000836001600160a01b031663509414ad6040518163ffffffff1660e01b8152600401602060405180830381865afa1580156117cb573d6000803e3d6000fd5b505050506040513d601f19601f820116820180604052508101906117ef91906147bb565b90506001600160a01b03811661181857604051632528646960e01b815260040160405180910390fd5b61019b80546001600160a01b0319166001600160a01b0383811691909117909155610197546040805163313ce56760e01b81529051919092169163313ce5679160048083019260209291908290030181865afa15801561187c573d6000803e3d6000fd5b505050506040513d601f19601f820116820180604052508101906118a0919061490b565b6118ab90600a614a0c565b610195819055506000846001600160a01b0316630e5f99c56040518163ffffffff1660e01b8152600401602060405180830381865afa1580156118f2573d6000803e3d6000fd5b505050506040513d601f19601f8201168201806040525081019061191691906147bb565b90506001600160a01b03811661193f576040516314e1f75760e11b815260040160405180910390fd5b61019980546001600160a01b0319166001600160a01b038316179055670de0b6b3a7640000841115611984576040516315118d7560e11b815260040160405180910390fd5b505061019682905580156119d2576000805461ff0019169055604051600181527f7f26b83ff96e1f2b6a682f133852f6798a09c465da95921460cefb38474024989060200160405180910390a15b50505050505050565b83421115611a2b5760405162461bcd60e51b815260206004820152601d60248201527f45524332305065726d69743a206578706972656420646561646c696e650000006044820152606401610b8e565b60007f6e71edae12b1b97f4d1f60370fef10105fa2faae0126114a169c64845d6126c9888888611a5a8c612b71565b6040805160208101969096526001600160a01b0394851690860152929091166060840152608083015260a082015260c0810186905260e0016040516020818303038152906040528051906020012090506000611ab582612b99565b90506000611ac582878787612be7565b9050896001600160a01b0316816001600160a01b031614611b285760405162461bcd60e51b815260206004820152601e60248201527f45524332305065726d69743a20696e76616c6964207369676e617475726500006044820152606401610b8e565b611b338a8a8a6122d8565b50505050505050505050565b6001600160a01b03918216600090815260346020908152604080832093909416825291909152205490565b6000611b74612c11565b61019a546040805163406cf22960e01b815290516000926001600160a01b03169163406cf229916004808301926020929190829003018187875af1158015611bc0573d6000803e3d6000fd5b505050506040513d601f19601f82011682018060405250810190611be4919061483a565b905080600003611bf657600091505090565b61019a54604051632cd1b6c360e21b8152600481018390526000916001600160a01b03169063b346db0c90602401602060405180830381865afa158015611c41573d6000803e3d6000fd5b505050506040513d601f19601f82011682018060405250810190611c65919061483a565b61019a5461019b5461019454604051632dadcf5160e11b81526001600160a01b039384166004820181905260248201929092529394509260009290911690635b5b9ea290604401600060405180830381865afa158015611cc9573d6000803e3d6000fd5b505050506040513d6000823e601f3d908101601f19168201604052611cf191908101906146fd565b90506000611d0484836000015185612c58565b61019a549091506000906001600160a01b0316633ca7c82d611d268488614827565b6040518263ffffffff1660e01b8152600401611d4491815260200190565b602060405180830381865afa158015611d61573d6000803e3d6000fd5b505050506040513d601f19601f82011682018060405250810190611d85919061483a565b61019a54604051632cd1b6c360e21b8152600481018390529192506001600160a01b031690633ca7c82d90829063b346db0c90602401602060405180830381865afa158015611dd8573d6000803e3d6000fd5b505050506040513d601f19601f82011682018060405250810190611dfc919061483a565b6040518263ffffffff1660e01b8152600401611e1a91815260200190565b602060405180830381865afa158015611e37573d6000803e3d6000fd5b505050506040513d601f19601f82011682018060405250810190611e5b919061483a565b61019a546040516363737ac960e11b8152600481018390529192506000916001600160a01b039091169063c6e6f59290602401602060405180830381865afa158015611eab573d6000803e3d6000fd5b505050506040513d601f19601f82011682018060405250810190611ecf919061483a565b905060008085600001516001600160a01b0316638d8ea727604051806040016040528088815260200186815250604051602401611f0c9190614a1b565b6040516020818303038152906040529060e01b6020820180516001600160e01b038381831617835250505050604051611f45919061489e565b6000604051808303816000865af19150503d8060008114611f82576040519150601f19603f3d011682016040523d82523d6000602084013e611f87565b606091505b509150915081611faa576040516317fe0d9160e31b815260040160405180910390fd5b600081806020019051810190611fc0919061483a565b6101975461019954919250611fe2916001600160a01b0391821691168c61282b565b61019960009054906101000a90046001600160a01b03166001600160a01b03166329f9f3f789610194548d61019760009054906101000a90046001600160a01b031686306040518763ffffffff1660e01b815260040161204796959493929190614866565b6020604051808303816000875af1158015612066573d6000803e3d6000fd5b505050506040513d601f19601f8201168201806040525081019061208a919061483a565b9a508a8a7f45b6c590b89e8cb17c4ed42dcd3379988971ceaf15fd6daae6a876716205fe2860405160405180910390a35050505050505050505090565b61019a546040805163204f83f960e01b815290516000926001600160a01b03169163204f83f99160048083019260209291908290030181865afa158015612112573d6000803e3d6000fd5b505050506040513d601f19601f82011682018060405250810190612136919061483a565b42111561217e5760405162461bcd60e51b8152602060048201526016602482015275131415985d5b1d0e8815985d5b1d08195e1c1a5c995960521b6044820152606401610b8e565b612186612c11565b81610655565b61219461270b565b60fe80546001600160a01b0383166001600160a01b031990911681179091556121c560cc546001600160a01b031690565b6001600160a01b03167f38d16b8cac22d99fc7c124b9cd0de2d3fa1faef420bfe791d8c362d765e2270060405160405180910390a350565b61220561270b565b610abd613193565b61019a546040805163204f83f960e01b815290516000926001600160a01b03169163204f83f99160048083019260209291908290030181865afa158015612258573d6000803e3d6000fd5b505050506040513d601f19601f8201168201806040525081019061227c919061483a565b4211156122c45760405162461bcd60e51b8152602060048201526016602482015275131415985d5b1d0e8815985d5b1d08195e1c1a5c995960521b6044820152606401610b8e565b6122cc612c11565b6106556102d38361269c565b6001600160a01b03831661233a5760405162461bcd60e51b8152602060048201526024808201527f45524332303a20617070726f76652066726f6d20746865207a65726f206164646044820152637265737360e01b6064820152608401610b8e565b6001600160a01b03821661239b5760405162461bcd60e51b815260206004820152602260248201527f45524332303a20617070726f766520746f20746865207a65726f206164647265604482015261737360f01b6064820152608401610b8e565b6001600160a01b0383811660008181526034602090815260408083209487168084529482529182902085905590518481527f8c5be1e5ebec7d5bd14f71427d1e84f3dd0314c0f7b2291e5b200ac8c7c3b925910160405180910390a3505050565b60006124088484611b3f565b9050600019811461247057818110156124635760405162461bcd60e51b815260206004820152601d60248201527f45524332303a20696e73756666696369656e7420616c6c6f77616e63650000006044820152606401610b8e565b61247084848484036122d8565b50505050565b6001600160a01b0383166124da5760405162461bcd60e51b815260206004820152602560248201527f45524332303a207472616e736665722066726f6d20746865207a65726f206164604482015264647265737360d81b6064820152608401610b8e565b6001600160a01b03821661253c5760405162461bcd60e51b815260206004820152602360248201527f45524332303a207472616e7366657220746f20746865207a65726f206164647260448201526265737360e81b6064820152608401610b8e565b6001600160a01b038316600090815260336020526040902054818110156125b45760405162461bcd60e51b815260206004820152602660248201527f45524332303a207472616e7366657220616d6f756e7420657863656564732062604482015265616c616e636560d01b6064820152608401610b8e565b6001600160a01b0380851660008181526033602052604080822086860390559286168082529083902080548601905591517fddf252ad1be2c89b69c2b068fc378daa952ba7f163c4a11628f55a4df523b3ef906126149086815260200190565b60405180910390a3612470565b60006109497f8b73c3c69bb8fe3d512ecc4cf759cc79239f7b179b0ffacaa9a75d522b39400f61265060655490565b6066546040805160208101859052908101839052606081018290524660808201523060a082015260009060c0016040516020818303038152906040528051906020012090509392505050565b610198546040516303d1689d60e11b8152600481018390526000916001600160a01b0316906307a2d13a90602401602060405180830381865afa1580156126e7573d6000803e3d6000fd5b505050506040513d601f19601f82011682018060405250810190610655919061483a565b60cc546001600160a01b03163314610abd5760405162461bcd60e51b815260206004820181905260248201527f4f776e61626c653a2063616c6c6572206973206e6f7420746865206f776e65726044820152606401610b8e565b600261016254036127b85760405162461bcd60e51b815260206004820152601f60248201527f5265656e7472616e637947756172643a207265656e7472616e742063616c6c006044820152606401610b8e565b600261016255565b6040516001600160a01b03808516602483015283166044820152606481018290526124709085906323b872dd60e01b906084015b60408051601f198184030181529190526020810180516001600160e01b03166001600160e01b0319909316929092179091526131cd565b604051636eb1769f60e11b81523060048201526001600160a01b038381166024830152600091839186169063dd62ed3e90604401602060405180830381865afa15801561287c573d6000803e3d6000fd5b505050506040513d601f19601f820116820180604052508101906128a0919061483a565b6128aa9190614853565b6040516001600160a01b03851660248201526044810182905290915061247090859063095ea7b360e01b906064016127f4565b6128e7838261329f565b826001600160a01b0316846001600160a01b03167fdcbc1c05240f31ff3ad067ef1ee35ce4997762752e3a095284754544f4c709d78484604051612935929190918252602082015260400190565b60405180910390a350505050565b600161016255565b60fe80546001600160a01b0319169055610ba081613360565b61296c612c11565b610130805460ff191660011790557f62e78cea01bee320cd4e420270b5ea74000d11b0c9f74754ebdbfc544b05a2586129a23390565b6040516001600160a01b03909116815260200160405180910390a1565b6129c983826133b2565b826001600160a01b0316846001600160a01b0316866001600160a01b03167ffbde797d201c681b91056529119e0b02407c7bb96a4a2c75c01fc9667232c8db8585604051612a21929190918252602082015260400190565b60405180910390a45050505050565b6040516001600160a01b038316602482015260448101829052612a6090849063a9059cbb60e01b906064016127f4565b505050565b600054610100900460ff16612a8c5760405162461bcd60e51b8152600401610b8e90614a4c565b612a9682826134e6565b5050565b600054610100900460ff16612ac15760405162461bcd60e51b8152600401610b8e90614a4c565b610ba081604051806040016040528060018152602001603160f81b815250613526565b600054610100900460ff16612b0b5760405162461bcd60e51b8152600401610b8e90614a4c565b610abd613567565b600054610100900460ff16612b3a5760405162461bcd60e51b8152600401610b8e90614a4c565b610abd613597565b600054610100900460ff16612b695760405162461bcd60e51b8152600401610b8e90614a4c565b610abd6135cb565b6001600160a01b03811660009081526099602052604090208054600181018255905b50919050565b6000610655612ba6612621565b8360405161190160f01b6020820152602281018390526042810182905260009060620160405160208183030381529060405280519060200120905092915050565b6000806000612bf8878787876135f2565b91509150612c05816136b6565b5090505b949350505050565b6101305460ff1615610abd5760405162461bcd60e51b815260206004820152601060248201526f14185d5cd8589b194e881c185d5cd95960821b6044820152606401610b8e565b6000612cc5604051806101a00160405280600081526020016000815260200160008152602001600081526020016000815260200160008152602001600081526020016000815260200160008152602001600081526020016000815260200160008152602001600081525090565b600080612cd186613800565b9092509050612ce08183614805565b8352612ceb866138e1565b606086015260408086019190915260208086019290925280516331913fa560e21b815290516000926001600160a01b0389169263c644fe949260048083019392829003018187875af1158015612d45573d6000803e3d6000fd5b505050506040513d601f19601f82011682018060405250810190612d6991906147bb565b6001600160a01b031663313ce5676040518163ffffffff1660e01b8152600401602060405180830381865afa158015612da6573d6000803e3d6000fd5b505050506040513d601f19601f82011682018060405250810190612dca919061490b565b612dd590600a614a0c565b9050612de086613a1e565b60808501819052845189918391612df6916147ee565b612e009190614805565b612e0b906001614853565b612e16906001614805565b612e2091906147ee565b612e2a9089614827565b60c08501819052600090612e3e9085614853565b905060008560c001518a612e529190614827565b612e5c9085614853565b9050612e896040518060800160405280600081526020016000815260200160008152602001600081525090565b602080880151825260408089015191830191909152810183905260608101829052612eb381613b5d565b60a08801525084841115612ece5761010086018a9052612ed7565b60006101008701525b6000886001600160a01b031663c644fe946040518163ffffffff1660e01b81526004016020604051808303816000875af1158015612f19573d6000803e3d6000fd5b505050506040513d601f19601f82011682018060405250810190612f3d91906147bb565b9050806001600160a01b03166307a2d13a8860c001518d612f5e9190614827565b6040518263ffffffff1660e01b8152600401612f7c91815260200190565b602060405180830381865afa158015612f99573d6000803e3d6000fd5b505050506040513d601f19601f82011682018060405250810190612fbd919061483a565b61016088018190526040516363737ac960e11b815260048101919091526001600160a01b038a169063c6e6f59290602401602060405180830381865afa15801561300b573d6000803e3d6000fd5b505050506040513d601f19601f8201168201806040525081019061302f919061483a565b610180880190815260408051808201825260c08a015181529151602083015251638d8ea72760e01b81526001600160a01b038c1691638d8ea727916130779190600401614a1b565b602060405180830381865afa158015613094573d6000803e3d6000fd5b505050506040513d601f19601f820116820180604052508101906130b8919061483a565b87610120018181525050896001600160a01b0316638d8ea72760405180604001604052808a610100015181526020018a61010001518f6130f89190614827565b8152506040518263ffffffff1660e01b81526004016131179190614a1b565b602060405180830381865afa158015613134573d6000803e3d6000fd5b505050506040513d601f19601f82011682018060405250810190613158919061483a565b6101408801819052610120880151111561317f578660c00151975050505050505050610938565b866101000151975050505050505050610938565b61319b614058565b610130805460ff191690557f5db9ee0a495bf2e6ff9c91a7834c1ba4fdd244a5e8aa4e537bd38aeae4b073aa336129a2565b6000613222826040518060400160405280602081526020017f5361666545524332303a206c6f772d6c6576656c2063616c6c206661696c6564815250856001600160a01b03166140a29092919063ffffffff16565b805190915015612a6057808060200190518101906132409190614a97565b612a605760405162461bcd60e51b815260206004820152602a60248201527f5361666545524332303a204552433230206f7065726174696f6e20646964206e6044820152691bdd081cdd58d8d9595960b21b6064820152608401610b8e565b6001600160a01b0382166132f55760405162461bcd60e51b815260206004820152601f60248201527f45524332303a206d696e7420746f20746865207a65726f2061646472657373006044820152606401610b8e565b80603560008282546133079190614853565b90915550506001600160a01b0382166000818152603360209081526040808320805486019055518481527fddf252ad1be2c89b69c2b068fc378daa952ba7f163c4a11628f55a4df523b3ef910160405180910390a35050565b60cc80546001600160a01b038381166001600160a01b0319831681179093556040519116919082907f8be0079c531659141344cd1fd0a4f28419497f9722a3daafe3b4186f6b6457e090600090a35050565b6001600160a01b0382166134125760405162461bcd60e51b815260206004820152602160248201527f45524332303a206275726e2066726f6d20746865207a65726f206164647265736044820152607360f81b6064820152608401610b8e565b6001600160a01b038216600090815260336020526040902054818110156134865760405162461bcd60e51b815260206004820152602260248201527f45524332303a206275726e20616d6f756e7420657863656564732062616c616e604482015261636560f01b6064820152608401610b8e565b6001600160a01b03831660008181526033602090815260408083208686039055603580548790039055518581529192917fddf252ad1be2c89b69c2b068fc378daa952ba7f163c4a11628f55a4df523b3ef910160405180910390a3505050565b600054610100900460ff1661350d5760405162461bcd60e51b8152600401610b8e90614a4c565b60366135198382614b07565b506037612a608282614b07565b600054610100900460ff1661354d5760405162461bcd60e51b8152600401610b8e90614a4c565b815160209283012081519190920120606591909155606655565b600054610100900460ff1661358e5760405162461bcd60e51b8152600401610b8e90614a4c565b610abd3361294b565b600054610100900460ff166135be5760405162461bcd60e51b8152600401610b8e90614a4c565b610130805460ff19169055565b600054610100900460ff166129435760405162461bcd60e51b8152600401610b8e90614a4c565b6000807f7fffffffffffffffffffffffffffffff5d576e7357a4501ddfe92f46681b20a083111561362957506000905060036136ad565b6040805160008082526020820180845289905260ff881692820192909252606081018690526080810185905260019060a0016020604051602081039080840390855afa15801561367d573d6000803e3d6000fd5b5050604051601f1901519150506001600160a01b0381166136a6576000600192509250506136ad565b9150600090505b94509492505050565b60008160048111156136ca576136ca614bc7565b036136d25750565b60018160048111156136e6576136e6614bc7565b036137335760405162461bcd60e51b815260206004820152601860248201527f45434453413a20696e76616c6964207369676e617475726500000000000000006044820152606401610b8e565b600281600481111561374757613747614bc7565b036137945760405162461bcd60e51b815260206004820152601f60248201527f45434453413a20696e76616c6964207369676e6174757265206c656e677468006044820152606401610b8e565b60038160048111156137a8576137a8614bc7565b03610ba05760405162461bcd60e51b815260206004820152602260248201527f45434453413a20696e76616c6964207369676e6174757265202773272076616c604482015261756560f01b6064820152608401610b8e565b604051634903b0d160e01b81526000600482018190529081906001600160a01b03841690634903b0d190602401602060405180830381865afa15801561384a573d6000803e3d6000fd5b505050506040513d601f19601f8201168201806040525081019061386e919061483a565b604051634903b0d160e01b8152600160048201529092506001600160a01b03841690634903b0d190602401602060405180830381865afa1580156138b6573d6000803e3d6000fd5b505050506040513d601f19601f820116820180604052508101906138da919061483a565b9050915091565b6000806000836001600160a01b031663f446c1d06040518163ffffffff1660e01b81526004016020604051808303816000875af1158015613926573d6000803e3d6000fd5b505050506040513d601f19601f8201168201806040525081019061394a919061483a565b9250836001600160a01b031663b13739296040518163ffffffff1660e01b81526004016020604051808303816000875af115801561398c573d6000803e3d6000fd5b505050506040513d601f19601f820116820180604052508101906139b0919061483a565b9150836001600160a01b0316630f529ba26040518163ffffffff1660e01b81526004016020604051808303816000875af11580156139f2573d6000803e3d6000fd5b505050506040513d601f19601f82011682018060405250810190613a16919061483a565b929491935050565b600080826001600160a01b031663c644fe946040518163ffffffff1660e01b81526004016020604051808303816000875af1158015613a61573d6000803e3d6000fd5b505050506040513d601f19601f82011682018060405250810190613a8591906147bb565b6001600160a01b031663313ce5676040518163ffffffff1660e01b8152600401602060405180830381865afa158015613ac2573d6000803e3d6000fd5b505050506040513d601f19601f82011682018060405250810190613ae6919061490b565b613af190600a614a0c565b604051633ca7c82d60e01b8152600481018290529091506001600160a01b03841690633ca7c82d90602401602060405180830381865afa158015613b39573d6000803e3d6000fd5b505050506040513d601f19601f82011682018060405250810190610938919061483a565b6000613b676142f1565b826060015183604001511015613b8d576060830151815260408301516020820152613b9f565b60408301518152606083015160208201525b8051633b9ac9ff108015613bc1575080516d314dc6448d9338c15b0a00000001115b613bde57604051633504526f60e11b815260040160405180910390fd5b80516020820151655af3107a3fff9190613c0090670de0b6b3a76400006147ee565b613c0a9190614805565b11613c2857604051636c3b1a1760e11b815260040160405180910390fd5b6000613c33826140b1565b613c3e9060026147ee565b60208301518351919250600091613c559190614853565b905060005b60ff81101561403e576020840151845184916000918391908290613c8690673782dace9d9000006147ee565b613c909190614805565b613c9a91906147ee565b613ca49190614805565b905060008860200151670de0b6b3a7640000613cc09190614853565b905081811115613ce657613cd48282614827565b613cdf906001614853565b9050613cfe565b613cf08183614827565b613cfb906001614853565b90505b885160208a0151600091906127109084908181613d238d670de0b6b3a76400006147ee565b613d2d9190614805565b613d3791906147ee565b613d419190614805565b613d4b91906147ee565b613d5591906147ee565b613d5f9190614805565b9050600082613d7685673782dace9d9000006147ee565b613d809190614805565b90506000670de0b6b3a7640000613d978a846147ee565b613da19190614805565b85613dad8560026147ee565b613db79190614805565b670de0b6b3a7640000613dca858c6147ee565b613dd49190614805565b613dde908b614853565b613de89190614853565b613df29190614827565b9050600081613e018a82614853565b613e0b908c6147ee565b613e159190614805565b9050600082613e248c806147ee565b613e2e9190614805565b905086670de0b6b3a76400001115613e9f5786613e5381670de0b6b3a7640000614827565b670de0b6b3a7640000613e668689614805565b613e70908f6147ee565b613e7a9190614805565b613e8491906147ee565b613e8e9190614805565b613e989082614853565b9050613efa565b86613eb2670de0b6b3a764000082614827565b670de0b6b3a7640000613ec58689614805565b613ecf908f6147ee565b613ed99190614805565b613ee391906147ee565b613eed9190614805565b613ef79082614827565b90505b80821115613f1357613f0c8183614827565b9a50613f2c565b6002613f1f8383614827565b613f299190614805565b9a505b6000888c1115613f4757613f40898d614827565b9050613f54565b613f518c8a614827565b90505b613f65662386f26fc100008d614161565b613f7582655af3107a40006147ee565b101561402257600099505b60028a101561400f5760008c8e8c60028110613f9e57613f9e6148f5565b6020020151613fb590670de0b6b3a76400006147ee565b613fbf9190614805565b9050662386f26fc0ffff81118015613fdf575068056bc75e2d6310000181105b613ffc57604051633b8443df60e11b815260040160405180910390fd5b508961400781614bdd565b9a5050613f80565b50999d9c50505050505050505050505050565b505050505050505050808061403690614bdd565b915050613c5a565b50604051636806e97360e11b815260040160405180910390fd5b6101305460ff16610abd5760405162461bcd60e51b815260206004820152601460248201527314185d5cd8589b194e881b9bdd081c185d5cd95960621b6044820152606401610b8e565b6060612c098484600085614178565b805160009081805b60ff81101561403e5760208501518551849160029183916140d9916147ee565b6140e39190614805565b6140ed9086614853565b6140f79190614805565b9350808411156141125761410b8185614827565b925061411f565b61411c8482614827565b92505b60018311158061413f57508361413d84670de0b6b3a76400006147ee565b105b1561414e575091949350505050565b508061415981614bdd565b9150506140b9565b6000818310156141715781610938565b5090919050565b6060824710156141d95760405162461bcd60e51b815260206004820152602660248201527f416464726573733a20696e73756666696369656e742062616c616e636520666f6044820152651c8818d85b1b60d21b6064820152608401610b8e565b600080866001600160a01b031685876040516141f5919061489e565b60006040518083038185875af1925050503d8060008114614232576040519150601f19603f3d011682016040523d82523d6000602084013e614237565b606091505b509150915061424887838387614253565b979650505050505050565b606083156142c25782516000036142bb576001600160a01b0385163b6142bb5760405162461bcd60e51b815260206004820152601d60248201527f416464726573733a2063616c6c20746f206e6f6e2d636f6e74726163740000006044820152606401610b8e565b5081612c09565b612c0983838151156142d75781518083602001fd5b8060405162461bcd60e51b8152600401610b8e9190614333565b60405180604001604052806002906020820280368337509192915050565b60005b8381101561432a578181015183820152602001614312565b50506000910152565b602081526000825180602084015261435281604085016020870161430f565b601f01601f19169190910160400192915050565b60006020828403121561437857600080fd5b5035919050565b6001600160a01b0381168114610ba057600080fd5b600080604083850312156143a757600080fd5b82356143b28161437f565b946020939093013593505050565b6000806000606084860312156143d557600080fd5b83356143e08161437f565b925060208401356143f08161437f565b929592945050506040919091013590565b60006020828403121561441357600080fd5b81356109388161437f565b6000806040838503121561443157600080fd5b8235915060208301356144438161437f565b809150509250929050565b60008060006060848603121561446357600080fd5b8335925060208401356144758161437f565b915060408401356144858161437f565b809150509250925092565b634e487b7160e01b600052604160045260246000fd5b6040805190810167ffffffffffffffff811182821017156144c9576144c9614490565b60405290565b604051601f8201601f1916810167ffffffffffffffff811182821017156144f8576144f8614490565b604052919050565b600067ffffffffffffffff82111561451a5761451a614490565b50601f01601f191660200190565b600082601f83011261453957600080fd5b813561454c61454782614500565b6144cf565b81815284602083860101111561456157600080fd5b816020850160208301376000918101602001919091529392505050565b60008060008060008060c0878903121561459757600080fd5b863567ffffffffffffffff808211156145af57600080fd5b6145bb8a838b01614528565b975060208901359150808211156145d157600080fd5b506145de89828a01614528565b9550506040870135935060608701356145f68161437f565b925060808701356146068161437f565b8092505060a087013590509295509295509295565b60ff81168114610ba057600080fd5b600080600080600080600060e0888a03121561464557600080fd5b87356146508161437f565b965060208801356146608161437f565b95506040880135945060608801359350608088013561467e8161461b565b9699959850939692959460a0840135945060c09093013592915050565b600080604083850312156146ae57600080fd5b82356146b98161437f565b915060208301356144438161437f565b600181811c908216806146dd57607f821691505b602082108103612b9357634e487b7160e01b600052602260045260246000fd5b6000602080838503121561471057600080fd5b825167ffffffffffffffff8082111561472857600080fd5b908401906040828703121561473c57600080fd5b6147446144a6565b825161474f8161437f565b8152828401518281111561476257600080fd5b80840193505086601f84011261477757600080fd5b8251915061478761454783614500565b828152878584860101111561479b57600080fd5b6147aa8386830187870161430f565b938101939093525090949350505050565b6000602082840312156147cd57600080fd5b81516109388161437f565b634e487b7160e01b600052601160045260246000fd5b8082028115828204841417610655576106556147d8565b60008261482257634e487b7160e01b600052601260045260246000fd5b500490565b81810381811115610655576106556147d8565b60006020828403121561484c57600080fd5b5051919050565b80820180821115610655576106556147d8565b6001600160a01b039687168152602081019590955260408501939093529084166060840152608083015290911660a082015260c00190565b600082516148b081846020870161430f565b9190910192915050565b8281526060810160208083018460005b60028110156148ea57815160ff16835291830191908301906001016148ca565b505050509392505050565b634e487b7160e01b600052603260045260246000fd5b60006020828403121561491d57600080fd5b81516109388161461b565b600181815b80851115614963578160001904821115614949576149496147d8565b8085161561495657918102915b93841c939080029061492d565b509250929050565b60008261497a57506001610655565b8161498757506000610655565b816001811461499d57600281146149a7576149c3565b6001915050610655565b60ff8411156149b8576149b86147d8565b50506001821b610655565b5060208310610133831016604e8410600b84101617156149e6575081810a610655565b6149f08383614928565b8060001904821115614a0457614a046147d8565b029392505050565b600061093860ff84168361496b565b60408101818360005b6002811015614a43578151835260209283019290910190600101614a24565b50505092915050565b6020808252602b908201527f496e697469616c697a61626c653a20636f6e7472616374206973206e6f74206960408201526a6e697469616c697a696e6760a81b606082015260800190565b600060208284031215614aa957600080fd5b8151801515811461093857600080fd5b601f821115612a6057600081815260208120601f850160051c81016020861015614ae05750805b601f850160051c820191505b81811015614aff57828155600101614aec565b505050505050565b815167ffffffffffffffff811115614b2157614b21614490565b614b3581614b2f84546146c9565b84614ab9565b602080601f831160018114614b6a5760008415614b525750858301515b600019600386901b1c1916600185901b178555614aff565b600085815260208120601f198616915b82811015614b9957888601518255948401946001909101908401614b7a565b5085821015614bb75787850151600019600388901b60f8161c191681555b5050505050600190811b01905550565b634e487b7160e01b600052602160045260246000fd5b600060018201614bef57614bef6147d8565b506001019056fea2646970667358221220288b8e7666c12ae18e633229d6f36b93fde05457d633e2a418fbd04ea9915cbe64736f6c63430008110033",
    "linkReferences": {}
  },
  "methodIdentifiers": {
    "DOMAIN_SEPARATOR()": "3644e515",
    "acceptOwnership()": "79ba5097",
    "allowance(address,address)": "dd62ed3e",
    "approve(address,uint256)": "095ea7b3",
    "asset()": "38d52e0f",
    "balanceOf(address)": "70a08231",
    "compoundInterest()": "e425e8b5",
    "convertToAssets(uint256)": "07a2d13a",
    "convertToAssetsOfIBT(uint256)": "3ca7c82d",
    "convertToShares(uint256)": "c6e6f592",
    "decimals()": "313ce567",
    "decreaseAllowance(address,uint256)": "a457c2d7",
    "deposit(uint256,address)": "6e553f65",
    "depositWithIBT(uint256,address)": "bafc0f14",
    "gePerformanceFee()": "33cd7a80",
    "getPrincipalToken()": "adb724bf",
    "increaseAllowance(address,uint256)": "39509351",
    "initialize(string,string,uint256,address,address,uint256)": "d2eb57bb",
    "maxDeposit(address)": "402d267d",
    "maxMint(address)": "c63d75b6",
    "maxRedeem(address)": "d905777e",
    "maxWithdraw(address)": "ce96cb77",
    "mint(uint256,address)": "94bf804d",
    "name()": "06fdde03",
    "nonces(address)": "7ecebe00",
    "owner()": "8da5cb5b",
    "pause()": "8456cb59",
    "paused()": "5c975abb",
    "pendingOwner()": "e30c3978",
    "permit(address,address,uint256,uint256,uint8,bytes32,bytes32)": "d505accf",
    "previewDeposit(uint256)": "ef8b30f7",
    "previewDepositWithIBT(uint256)": "fb898304",
    "previewMint(uint256)": "b3d7f6b9",
    "previewRedeem(uint256)": "4cdad506",
    "previewWithdraw(uint256)": "0a28a477",
    "redeem(uint256,address,address)": "ba087652",
    "renounceOwnership()": "715018a6",
    "setPoolIndex(uint256)": "52461562",
    "symbol()": "95d89b41",
    "totalAssets()": "01e1d114",
    "totalSupply()": "18160ddd",
    "transfer(address,uint256)": "a9059cbb",
    "transferFrom(address,address,uint256)": "23b872dd",
    "transferOwnership(address)": "f2fde38b",
    "unPause()": "f7b188a5",
    "updateFees(uint256)": "78dacee1",
    "withdraw(uint256,address,address)": "b460af94"
  },
  "id": 107
}