{
  "abi": [
    {
      "inputs": [],
      "stateMutability": "nonpayable",
      "type": "constructor"
    },
    {
      "inputs": [],
      "name": "ImplementationAlreadyAddedError",
      "type": "error"
    },
    {
      "inputs": [],
      "name": "ImplementationInvalidError",
      "type": "error"
    },
    {
      "inputs": [],
      "name": "ImplementationZeroAddressError",
      "type": "error"
    },
    {
      "inputs": [],
      "name": "PrincipalTokenMismatchError",
      "type": "error"
    },
    {
      "inputs": [],
      "name": "RegistryZeroAddressError",
      "type": "error"
    },
    {
      "anonymous": false,
      "inputs": [
        {
          "indexed": true,
          "internalType": "address",
          "name": "implementation",
          "type": "address"
        }
      ],
      "name": "ImplementationAdded",
      "type": "event"
    },
    {
      "anonymous": false,
      "inputs": [
        {
          "indexed": true,
          "internalType": "address",
          "name": "implementation",
          "type": "address"
        }
      ],
      "name": "ImplementationRemoved",
      "type": "event"
    },
    {
      "anonymous": false,
      "inputs": [
        {
          "indexed": false,
          "internalType": "uint8",
          "name": "version",
          "type": "uint8"
        }
      ],
      "name": "Initialized",
      "type": "event"
    },
    {
      "anonymous": false,
      "inputs": [
        {
          "indexed": true,
          "internalType": "address",
          "name": "lpVault",
          "type": "address"
        },
        {
          "indexed": true,
          "internalType": "address",
          "name": "implementation",
          "type": "address"
        },
        {
          "indexed": true,
          "internalType": "address",
          "name": "principalToken",
          "type": "address"
        }
      ],
      "name": "LPVaultDeployed",
      "type": "event"
    },
    {
      "anonymous": false,
      "inputs": [
        {
          "indexed": true,
          "internalType": "address",
          "name": "previousOwner",
          "type": "address"
        },
        {
          "indexed": true,
          "internalType": "address",
          "name": "newOwner",
          "type": "address"
        }
      ],
      "name": "OwnershipTransferStarted",
      "type": "event"
    },
    {
      "anonymous": false,
      "inputs": [
        {
          "indexed": true,
          "internalType": "address",
          "name": "previousOwner",
          "type": "address"
        },
        {
          "indexed": true,
          "internalType": "address",
          "name": "newOwner",
          "type": "address"
        }
      ],
      "name": "OwnershipTransferred",
      "type": "event"
    },
    {
      "anonymous": false,
      "inputs": [
        {
          "indexed": true,
          "internalType": "address",
          "name": "oldRegistry",
          "type": "address"
        },
        {
          "indexed": true,
          "internalType": "address",
          "name": "newRegistry",
          "type": "address"
        }
      ],
      "name": "RegistryUpdated",
      "type": "event"
    },
    {
      "inputs": [],
      "name": "acceptOwnership",
      "outputs": [],
      "stateMutability": "nonpayable",
      "type": "function"
    },
    {
      "inputs": [
        {
          "internalType": "address",
          "name": "_implementation",
          "type": "address"
        }
      ],
      "name": "addImplementation",
      "outputs": [],
      "stateMutability": "nonpayable",
      "type": "function"
    },
    {
      "inputs": [
        {
          "internalType": "address",
          "name": "_implementation",
          "type": "address"
        },
        {
          "internalType": "address",
          "name": "_principalToken",
          "type": "address"
        },
        {
          "internalType": "bytes",
          "name": "_data",
          "type": "bytes"
        }
      ],
      "name": "deployLPVault",
      "outputs": [
        {
          "internalType": "address",
          "name": "lpVault",
          "type": "address"
        }
      ],
      "stateMutability": "nonpayable",
      "type": "function"
    },
    {
      "inputs": [
        {
          "internalType": "address",
          "name": "_principalToken",
          "type": "address"
        }
      ],
      "name": "getLPVaultsForPrincipalToken",
      "outputs": [
        {
          "internalType": "address[]",
          "name": "",
          "type": "address[]"
        }
      ],
      "stateMutability": "view",
      "type": "function"
    },
    {
      "inputs": [],
      "name": "getRegistry",
      "outputs": [
        {
          "internalType": "address",
          "name": "",
          "type": "address"
        }
      ],
      "stateMutability": "view",
      "type": "function"
    },
    {
      "inputs": [
        {
          "internalType": "address",
          "name": "_registry",
          "type": "address"
        }
      ],
      "name": "initialize",
      "outputs": [],
      "stateMutability": "nonpayable",
      "type": "function"
    },
    {
      "inputs": [
        {
          "internalType": "address",
          "name": "_implementation",
          "type": "address"
        }
      ],
      "name": "isImplementationValid",
      "outputs": [
        {
          "internalType": "bool",
          "name": "",
          "type": "bool"
        }
      ],
      "stateMutability": "view",
      "type": "function"
    },
    {
      "inputs": [],
      "name": "owner",
      "outputs": [
        {
          "internalType": "address",
          "name": "",
          "type": "address"
        }
      ],
      "stateMutability": "view",
      "type": "function"
    },
    {
      "inputs": [],
      "name": "pendingOwner",
      "outputs": [
        {
          "internalType": "address",
          "name": "",
          "type": "address"
        }
      ],
      "stateMutability": "view",
      "type": "function"
    },
    {
      "inputs": [
        {
          "internalType": "address",
          "name": "_implementation",
          "type": "address"
        }
      ],
      "name": "removeImplementation",
      "outputs": [],
      "stateMutability": "nonpayable",
      "type": "function"
    },
    {
      "inputs": [],
      "name": "renounceOwnership",
      "outputs": [],
      "stateMutability": "nonpayable",
      "type": "function"
    },
    {
      "inputs": [
        {
          "internalType": "address",
          "name": "_registry",
          "type": "address"
        }
      ],
      "name": "setRegistry",
      "outputs": [],
      "stateMutability": "nonpayable",
      "type": "function"
    },
    {
      "inputs": [
        {
          "internalType": "address",
          "name": "newOwner",
          "type": "address"
        }
      ],
      "name": "transferOwnership",
      "outputs": [],
      "stateMutability": "nonpayable",
      "type": "function"
    }
  ],
  "bytecode": {
    "object": "0x608060405234801561001057600080fd5b5061001961001e565b6100dd565b600054610100900460ff161561008a5760405162461bcd60e51b815260206004820152602760248201527f496e697469616c697a61626c653a20636f6e747261637420697320696e697469604482015266616c697a696e6760c81b606482015260840160405180910390fd5b60005460ff908116146100db576000805460ff191660ff9081179091556040519081527f7f26b83ff96e1f2b6a682f133852f6798a09c465da95921460cefb38474024989060200160405180910390a15b565b61151e806100ec6000396000f3fe60806040523480156200001157600080fd5b5060043610620000e05760003560e01c8063946dffde1162000097578063c4d66de8116200006e578063c4d66de814620001e7578063c6e2a40014620001fe578063e30c39781462000215578063f2fde38b146200022757600080fd5b8063946dffde146200016a578063a91ee0dc14620001aa578063a99616a514620001c157600080fd5b806322175a3214620000e55780634dceb16614620000fe5780635ab1bd531462000132578063715018a6146200014457806379ba5097146200014e5780638da5cb5b1462000158575b600080fd5b620000fc620000f636600462000991565b6200023e565b005b620001156200010f366004620009ce565b620002d7565b6040516001600160a01b0390911681526020015b60405180910390f35b6097546001600160a01b031662000115565b620000fc6200043c565b620000fc62000454565b6033546001600160a01b031662000115565b620001996200017b36600462000991565b6001600160a01b031660009081526098602052604090205460ff1690565b604051901515815260200162000129565b620000fc620001bb36600462000991565b620004d6565b620001d8620001d236600462000991565b62000564565b60405162000129919062000ab2565b620000fc620001f836600462000991565b620005dc565b620000fc6200020f36600462000991565b62000702565b6065546001600160a01b031662000115565b620000fc6200023836600462000991565b620007c7565b620002486200083b565b6001600160a01b03811660009081526098602052604090205460ff16620002825760405163d9a53e8f60e01b815260040160405180910390fd5b6040516001600160a01b038216907faf23121e2402485071dadf421078b368d7b67e54cabcc81540563c5d6bf1a4c390600090a26001600160a01b03166000908152609860205260409020805460ff19169055565b60008382604051620002e9906200096d565b620002f692919062000b01565b604051809103906000f08015801562000313573d6000803e3d6000fd5b509050826001600160a01b0316816001600160a01b031663adb724bf6040518163ffffffff1660e01b8152600401602060405180830381865afa1580156200035f573d6000803e3d6000fd5b505050506040513d601f19601f8201168201806040525081019062000385919062000b69565b6001600160a01b031614620003ad5760405163543d166160e11b815260040160405180910390fd5b826001600160a01b0316846001600160a01b0316826001600160a01b03167f70491df1363288147716f63c69ba69c988564086c0479ca0ee5c3896b8d5c59c60405160405180910390a46001600160a01b0392831660009081526099602090815260408220805460018101825590835291200180546001600160a01b0319169382169390931790925550919050565b620004466200083b565b62000452600062000897565b565b60655433906001600160a01b03168114620004c85760405162461bcd60e51b815260206004820152602960248201527f4f776e61626c6532537465703a2063616c6c6572206973206e6f7420746865206044820152683732bb9037bbb732b960b91b60648201526084015b60405180910390fd5b620004d38162000897565b50565b620004e06200083b565b6001600160a01b038116620005085760405163f18048e960e01b815260040160405180910390fd5b6097546040516001600160a01b038084169216907f482b97c53e48ffa324a976e2738053e9aff6eee04d8aac63b10e19411d869b8290600090a3609780546001600160a01b0319166001600160a01b0392909216919091179055565b6001600160a01b038116600090815260996020908152604091829020805483518184028101840190945280845260609392830182828015620005d057602002820191906000526020600020905b81546001600160a01b03168152600190910190602001808311620005b1575b50505050509050919050565b600054610100900460ff1615808015620005fd5750600054600160ff909116105b80620006195750303b15801562000619575060005460ff166001145b6200067e5760405162461bcd60e51b815260206004820152602e60248201527f496e697469616c697a61626c653a20636f6e747261637420697320616c72656160448201526d191e481a5b9a5d1a585b1a5e995960921b6064820152608401620004bf565b6000805460ff191660011790558015620006a2576000805461ff0019166101001790555b620006ac620008b2565b620006b782620004d6565b8015620006fe576000805461ff0019169055604051600181527f7f26b83ff96e1f2b6a682f133852f6798a09c465da95921460cefb38474024989060200160405180910390a15b5050565b6200070c6200083b565b6001600160a01b0381166200073457604051630e0c911f60e11b815260040160405180910390fd5b6001600160a01b03811660009081526098602052604090205460ff16156200076f57604051639336390d60e01b815260040160405180910390fd5b6040516001600160a01b038216907f331cedc71f28c46d467691770675b586e8aa77a0d4fe09f257d01ef00bc1545890600090a26001600160a01b03166000908152609860205260409020805460ff19166001179055565b620007d16200083b565b606580546001600160a01b0383166001600160a01b03199091168117909155620008036033546001600160a01b031690565b6001600160a01b03167f38d16b8cac22d99fc7c124b9cd0de2d3fa1faef420bfe791d8c362d765e2270060405160405180910390a350565b6033546001600160a01b03163314620004525760405162461bcd60e51b815260206004820181905260248201527f4f776e61626c653a2063616c6c6572206973206e6f7420746865206f776e65726044820152606401620004bf565b606580546001600160a01b0319169055620004d381620008e6565b600054610100900460ff16620008dc5760405162461bcd60e51b8152600401620004bf9062000b89565b6200045262000938565b603380546001600160a01b038381166001600160a01b0319831681179093556040519116919082907f8be0079c531659141344cd1fd0a4f28419497f9722a3daafe3b4186f6b6457e090600090a35050565b600054610100900460ff16620009625760405162461bcd60e51b8152600401620004bf9062000b89565b620004523362000897565b6109148062000bd583390190565b6001600160a01b0381168114620004d357600080fd5b600060208284031215620009a457600080fd5b8135620009b1816200097b565b9392505050565b634e487b7160e01b600052604160045260246000fd5b600080600060608486031215620009e457600080fd5b8335620009f1816200097b565b9250602084013562000a03816200097b565b9150604084013567ffffffffffffffff8082111562000a2157600080fd5b818601915086601f83011262000a3657600080fd5b81358181111562000a4b5762000a4b620009b8565b604051601f8201601f19908116603f0116810190838211818310171562000a765762000a76620009b8565b8160405282815289602084870101111562000a9057600080fd5b8260208601602083013760006020848301015280955050505050509250925092565b6020808252825182820181905260009190848201906040850190845b8181101562000af55783516001600160a01b03168352928401929184019160010162000ace565b50909695505050505050565b60018060a01b038316815260006020604081840152835180604085015260005b8181101562000b3f5785810183015185820160600152820162000b21565b8181111562000b52576000606083870101525b50601f01601f191692909201606001949350505050565b60006020828403121562000b7c57600080fd5b8151620009b1816200097b565b6020808252602b908201527f496e697469616c697a61626c653a20636f6e7472616374206973206e6f74206960408201526a6e697469616c697a696e6760a81b60608201526080019056fe608060405260405161091438038061091483398101604081905261002291610463565b61002e82826000610035565b505061058d565b61003e83610100565b6040516001600160a01b038416907f1cf3b03a6cf19fa2baba4df148e9dcabedea7f8a5c07840e207e5c089be95d3e90600090a260008251118061007f5750805b156100fb576100f9836001600160a01b0316635c60da1b6040518163ffffffff1660e01b8152600401602060405180830381865afa1580156100c5573d6000803e3d6000fd5b505050506040513d601f19601f820116820180604052508101906100e99190610523565b836102a360201b6100291760201c565b505b505050565b610113816102cf60201b6100551760201c565b6101725760405162461bcd60e51b815260206004820152602560248201527f455243313936373a206e657720626561636f6e206973206e6f74206120636f6e6044820152641d1c9858dd60da1b60648201526084015b60405180910390fd5b6101e6816001600160a01b0316635c60da1b6040518163ffffffff1660e01b8152600401602060405180830381865afa1580156101b3573d6000803e3d6000fd5b505050506040513d601f19601f820116820180604052508101906101d79190610523565b6102cf60201b6100551760201c565b61024b5760405162461bcd60e51b815260206004820152603060248201527f455243313936373a20626561636f6e20696d706c656d656e746174696f6e206960448201526f1cc81b9bdd08184818dbdb9d1c9858dd60821b6064820152608401610169565b806102827fa3f0ad74e5423aebfd80d3ef4346578335a9a72aeaee59ff6cb3582b35133d5060001b6102de60201b6100641760201c565b80546001600160a01b0319166001600160a01b039290921691909117905550565b60606102c883836040518060600160405280602781526020016108ed602791396102e1565b9392505050565b6001600160a01b03163b151590565b90565b6060600080856001600160a01b0316856040516102fe919061053e565b600060405180830381855af49150503d8060008114610339576040519150601f19603f3d011682016040523d82523d6000602084013e61033e565b606091505b5090925090506103508683838761035a565b9695505050505050565b606083156103c95782516000036103c2576001600160a01b0385163b6103c25760405162461bcd60e51b815260206004820152601d60248201527f416464726573733a2063616c6c20746f206e6f6e2d636f6e74726163740000006044820152606401610169565b50816103d3565b6103d383836103db565b949350505050565b8151156103eb5781518083602001fd5b8060405162461bcd60e51b8152600401610169919061055a565b80516001600160a01b038116811461041c57600080fd5b919050565b634e487b7160e01b600052604160045260246000fd5b60005b8381101561045257818101518382015260200161043a565b838111156100f95750506000910152565b6000806040838503121561047657600080fd5b61047f83610405565b60208401519092506001600160401b038082111561049c57600080fd5b818501915085601f8301126104b057600080fd5b8151818111156104c2576104c2610421565b604051601f8201601f19908116603f011681019083821181831017156104ea576104ea610421565b8160405282815288602084870101111561050357600080fd5b610514836020830160208801610437565b80955050505050509250929050565b60006020828403121561053557600080fd5b6102c882610405565b60008251610550818460208701610437565b9190910192915050565b6020815260008251806020840152610579816040850160208701610437565b601f01601f19169190910160400192915050565b6103518061059c6000396000f3fe60806040523661001357610011610017565b005b6100115b610027610022610067565b610100565b565b606061004e83836040518060600160405280602781526020016102f560279139610124565b9392505050565b6001600160a01b03163b151590565b90565b600061009a7fa3f0ad74e5423aebfd80d3ef4346578335a9a72aeaee59ff6cb3582b35133d50546001600160a01b031690565b6001600160a01b0316635c60da1b6040518163ffffffff1660e01b8152600401602060405180830381865afa1580156100d7573d6000803e3d6000fd5b505050506040513d601f19601f820116820180604052508101906100fb919061024c565b905090565b3660008037600080366000845af43d6000803e80801561011f573d6000f35b3d6000fd5b6060600080856001600160a01b03168560405161014191906102a5565b600060405180830381855af49150503d806000811461017c576040519150601f19603f3d011682016040523d82523d6000602084013e610181565b606091505b50915091506101928683838761019c565b9695505050505050565b60608315610210578251600003610209576001600160a01b0385163b6102095760405162461bcd60e51b815260206004820152601d60248201527f416464726573733a2063616c6c20746f206e6f6e2d636f6e747261637400000060448201526064015b60405180910390fd5b508161021a565b61021a8383610222565b949350505050565b8151156102325781518083602001fd5b8060405162461bcd60e51b815260040161020091906102c1565b60006020828403121561025e57600080fd5b81516001600160a01b038116811461004e57600080fd5b60005b83811015610290578181015183820152602001610278565b8381111561029f576000848401525b50505050565b600082516102b7818460208701610275565b9190910192915050565b60208152600082518060208401526102e0816040850160208701610275565b601f01601f1916919091016040019291505056fe416464726573733a206c6f772d6c6576656c2064656c65676174652063616c6c206661696c6564a26469706673582212206ea3749d3f44f7b5a93ef58b0fb6c9847a4ee4b69872c58535c03f2899109cf464736f6c634300080d0033416464726573733a206c6f772d6c6576656c2064656c65676174652063616c6c206661696c6564a26469706673582212201b037b794087d2700e046b07f0295e368772bae5b844f27fe58678bdb8d20e4764736f6c634300080d0033",
    "linkReferences": {}
  },
  "methodIdentifiers": {
    "acceptOwnership()": "79ba5097",
    "addImplementation(address)": "c6e2a400",
    "deployLPVault(address,address,bytes)": "4dceb166",
    "getLPVaultsForPrincipalToken(address)": "a99616a5",
    "getRegistry()": "5ab1bd53",
    "initialize(address)": "c4d66de8",
    "isImplementationValid(address)": "946dffde",
    "owner()": "8da5cb5b",
    "pendingOwner()": "e30c3978",
    "removeImplementation(address)": "22175a32",
    "renounceOwnership()": "715018a6",
    "setRegistry(address)": "a91ee0dc",
    "transferOwnership(address)": "f2fde38b"
  },
  "id": 75
}