{
  "abi": [
    {
      "inputs": [
        {
          "internalType": "address",
          "name": "_registry",
          "type": "address"
        }
      ],
      "stateMutability": "nonpayable",
      "type": "constructor"
    },
    {
      "inputs": [
        {
          "internalType": "address",
          "name": "authority",
          "type": "address"
        }
      ],
      "name": "AccessManagedInvalidAuthority",
      "type": "error"
    },
    {
      "inputs": [
        {
          "internalType": "address",
          "name": "caller",
          "type": "address"
        },
        {
          "internalType": "uint32",
          "name": "delay",
          "type": "uint32"
        }
      ],
      "name": "AccessManagedRequiredDelay",
      "type": "error"
    },
    {
      "inputs": [
        {
          "internalType": "address",
          "name": "caller",
          "type": "address"
        }
      ],
      "name": "AccessManagedUnauthorized",
      "type": "error"
    },
    {
      "inputs": [
        {
          "internalType": "address",
          "name": "target",
          "type": "address"
        }
      ],
      "name": "AddressEmptyCode",
      "type": "error"
    },
    {
      "inputs": [
        {
          "internalType": "address",
          "name": "account",
          "type": "address"
        }
      ],
      "name": "AddressInsufficientBalance",
      "type": "error"
    },
    {
      "inputs": [],
      "name": "AssetValueZero",
      "type": "error"
    },
    {
      "inputs": [],
      "name": "CallerIsNotFeeCollector",
      "type": "error"
    },
    {
      "inputs": [],
      "name": "CallerNotOwner",
      "type": "error"
    },
    {
      "inputs": [],
      "name": "CannotMintZeroShares",
      "type": "error"
    },
    {
      "inputs": [],
      "name": "CannotWithdrawForZeroAssets",
      "type": "error"
    },
    {
      "inputs": [],
      "name": "DeadlinePassed",
      "type": "error"
    },
    {
      "inputs": [],
      "name": "ECDSAInvalidSignature",
      "type": "error"
    },
    {
      "inputs": [
        {
          "internalType": "uint256",
          "name": "length",
          "type": "uint256"
        }
      ],
      "name": "ECDSAInvalidSignatureLength",
      "type": "error"
    },
    {
      "inputs": [
        {
          "internalType": "bytes32",
          "name": "s",
          "type": "bytes32"
        }
      ],
      "name": "ECDSAInvalidSignatureS",
      "type": "error"
    },
    {
      "inputs": [
        {
          "internalType": "address",
          "name": "spender",
          "type": "address"
        },
        {
          "internalType": "uint256",
          "name": "allowance",
          "type": "uint256"
        },
        {
          "internalType": "uint256",
          "name": "needed",
          "type": "uint256"
        }
      ],
      "name": "ERC20InsufficientAllowance",
      "type": "error"
    },
    {
      "inputs": [
        {
          "internalType": "address",
          "name": "sender",
          "type": "address"
        },
        {
          "internalType": "uint256",
          "name": "balance",
          "type": "uint256"
        },
        {
          "internalType": "uint256",
          "name": "needed",
          "type": "uint256"
        }
      ],
      "name": "ERC20InsufficientBalance",
      "type": "error"
    },
    {
      "inputs": [
        {
          "internalType": "address",
          "name": "approver",
          "type": "address"
        }
      ],
      "name": "ERC20InvalidApprover",
      "type": "error"
    },
    {
      "inputs": [
        {
          "internalType": "address",
          "name": "receiver",
          "type": "address"
        }
      ],
      "name": "ERC20InvalidReceiver",
      "type": "error"
    },
    {
      "inputs": [
        {
          "internalType": "address",
          "name": "sender",
          "type": "address"
        }
      ],
      "name": "ERC20InvalidSender",
      "type": "error"
    },
    {
      "inputs": [
        {
          "internalType": "address",
          "name": "spender",
          "type": "address"
        }
      ],
      "name": "ERC20InvalidSpender",
      "type": "error"
    },
    {
      "inputs": [
        {
          "internalType": "uint256",
          "name": "deadline",
          "type": "uint256"
        }
      ],
      "name": "ERC2612ExpiredSignature",
      "type": "error"
    },
    {
      "inputs": [
        {
          "internalType": "address",
          "name": "signer",
          "type": "address"
        },
        {
          "internalType": "address",
          "name": "owner",
          "type": "address"
        }
      ],
      "name": "ERC2612InvalidSigner",
      "type": "error"
    },
    {
      "inputs": [],
      "name": "ERC5143SlippageProtectionFailed",
      "type": "error"
    },
    {
      "inputs": [],
      "name": "EnforcedPause",
      "type": "error"
    },
    {
      "inputs": [],
      "name": "ExpectedPause",
      "type": "error"
    },
    {
      "inputs": [],
      "name": "FailedInnerCall",
      "type": "error"
    },
    {
      "inputs": [],
      "name": "FailedToAddInitialLiquidity",
      "type": "error"
    },
    {
      "inputs": [],
      "name": "InsufficientLiquidity",
      "type": "error"
    },
    {
      "inputs": [
        {
          "internalType": "address",
          "name": "account",
          "type": "address"
        },
        {
          "internalType": "uint256",
          "name": "currentNonce",
          "type": "uint256"
        }
      ],
      "name": "InvalidAccountNonce",
      "type": "error"
    },
    {
      "inputs": [],
      "name": "InvalidInitialization",
      "type": "error"
    },
    {
      "inputs": [],
      "name": "MathOverflowedMulDiv",
      "type": "error"
    },
    {
      "inputs": [],
      "name": "NoSharesInVault",
      "type": "error"
    },
    {
      "inputs": [],
      "name": "NotEnoughShares",
      "type": "error"
    },
    {
      "inputs": [],
      "name": "NotInitializing",
      "type": "error"
    },
    {
      "inputs": [
        {
          "internalType": "address",
          "name": "owner",
          "type": "address"
        }
      ],
      "name": "OwnableInvalidOwner",
      "type": "error"
    },
    {
      "inputs": [
        {
          "internalType": "address",
          "name": "account",
          "type": "address"
        }
      ],
      "name": "OwnableUnauthorizedAccount",
      "type": "error"
    },
    {
      "inputs": [],
      "name": "PTNotExpired",
      "type": "error"
    },
    {
      "inputs": [],
      "name": "RedeemZeroAssets",
      "type": "error"
    },
    {
      "inputs": [],
      "name": "ReentrancyGuardReentrantCall",
      "type": "error"
    },
    {
      "inputs": [],
      "name": "RolloverFreezed",
      "type": "error"
    },
    {
      "inputs": [
        {
          "internalType": "int256",
          "name": "value",
          "type": "int256"
        }
      ],
      "name": "SafeCastOverflowedIntToUint",
      "type": "error"
    },
    {
      "inputs": [
        {
          "internalType": "uint256",
          "name": "value",
          "type": "uint256"
        }
      ],
      "name": "SafeCastOverflowedUintToInt",
      "type": "error"
    },
    {
      "inputs": [
        {
          "internalType": "address",
          "name": "token",
          "type": "address"
        }
      ],
      "name": "SafeERC20FailedOperation",
      "type": "error"
    },
    {
      "inputs": [],
      "name": "SecantMethodICFailing",
      "type": "error"
    },
    {
      "inputs": [],
      "name": "ZeroAddressError",
      "type": "error"
    },
    {
      "anonymous": false,
      "inputs": [
        {
          "indexed": true,
          "internalType": "address",
          "name": "owner",
          "type": "address"
        },
        {
          "indexed": true,
          "internalType": "address",
          "name": "spender",
          "type": "address"
        },
        {
          "indexed": false,
          "internalType": "uint256",
          "name": "value",
          "type": "uint256"
        }
      ],
      "name": "Approval",
      "type": "event"
    },
    {
      "anonymous": false,
      "inputs": [
        {
          "indexed": false,
          "internalType": "address",
          "name": "authority",
          "type": "address"
        }
      ],
      "name": "AuthorityUpdated",
      "type": "event"
    },
    {
      "anonymous": false,
      "inputs": [
        {
          "indexed": true,
          "internalType": "address",
          "name": "_oldCurvePool",
          "type": "address"
        },
        {
          "indexed": true,
          "internalType": "address",
          "name": "_newCurvePool",
          "type": "address"
        }
      ],
      "name": "CurvePoolUpdated",
      "type": "event"
    },
    {
      "anonymous": false,
      "inputs": [
        {
          "indexed": true,
          "internalType": "address",
          "name": "sender",
          "type": "address"
        },
        {
          "indexed": true,
          "internalType": "address",
          "name": "owner",
          "type": "address"
        },
        {
          "indexed": false,
          "internalType": "uint256",
          "name": "assets",
          "type": "uint256"
        },
        {
          "indexed": false,
          "internalType": "uint256",
          "name": "shares",
          "type": "uint256"
        }
      ],
      "name": "Deposit",
      "type": "event"
    },
    {
      "anonymous": false,
      "inputs": [],
      "name": "EIP712DomainChanged",
      "type": "event"
    },
    {
      "anonymous": false,
      "inputs": [
        {
          "indexed": true,
          "internalType": "address",
          "name": "_user",
          "type": "address"
        },
        {
          "indexed": false,
          "internalType": "uint256",
          "name": "_feesInIBT",
          "type": "uint256"
        }
      ],
      "name": "FeeClaimed",
      "type": "event"
    },
    {
      "anonymous": false,
      "inputs": [
        {
          "indexed": true,
          "internalType": "uint256",
          "name": "_oldPrice",
          "type": "uint256"
        },
        {
          "indexed": true,
          "internalType": "uint256",
          "name": "_newPrice",
          "type": "uint256"
        }
      ],
      "name": "InitialPriceUpdated",
      "type": "event"
    },
    {
      "anonymous": false,
      "inputs": [
        {
          "indexed": false,
          "internalType": "uint64",
          "name": "version",
          "type": "uint64"
        }
      ],
      "name": "Initialized",
      "type": "event"
    },
    {
      "anonymous": false,
      "inputs": [
        {
          "indexed": true,
          "internalType": "address",
          "name": "previousOwner",
          "type": "address"
        },
        {
          "indexed": true,
          "internalType": "address",
          "name": "newOwner",
          "type": "address"
        }
      ],
      "name": "OwnershipTransferStarted",
      "type": "event"
    },
    {
      "anonymous": false,
      "inputs": [
        {
          "indexed": true,
          "internalType": "address",
          "name": "previousOwner",
          "type": "address"
        },
        {
          "indexed": true,
          "internalType": "address",
          "name": "newOwner",
          "type": "address"
        }
      ],
      "name": "OwnershipTransferred",
      "type": "event"
    },
    {
      "anonymous": false,
      "inputs": [
        {
          "indexed": false,
          "internalType": "address",
          "name": "account",
          "type": "address"
        }
      ],
      "name": "Paused",
      "type": "event"
    },
    {
      "anonymous": false,
      "inputs": [
        {
          "indexed": true,
          "internalType": "address",
          "name": "_freezer",
          "type": "address"
        },
        {
          "indexed": true,
          "internalType": "bool",
          "name": "_freezedRollover",
          "type": "bool"
        }
      ],
      "name": "RolloverFreezedStatusChanged",
      "type": "event"
    },
    {
      "anonymous": false,
      "inputs": [
        {
          "indexed": true,
          "internalType": "address",
          "name": "from",
          "type": "address"
        },
        {
          "indexed": true,
          "internalType": "address",
          "name": "to",
          "type": "address"
        },
        {
          "indexed": false,
          "internalType": "uint256",
          "name": "value",
          "type": "uint256"
        }
      ],
      "name": "Transfer",
      "type": "event"
    },
    {
      "anonymous": false,
      "inputs": [
        {
          "indexed": false,
          "internalType": "address",
          "name": "account",
          "type": "address"
        }
      ],
      "name": "Unpaused",
      "type": "event"
    },
    {
      "anonymous": false,
      "inputs": [
        {
          "indexed": true,
          "internalType": "address",
          "name": "sender",
          "type": "address"
        },
        {
          "indexed": true,
          "internalType": "address",
          "name": "receiver",
          "type": "address"
        },
        {
          "indexed": true,
          "internalType": "address",
          "name": "owner",
          "type": "address"
        },
        {
          "indexed": false,
          "internalType": "uint256",
          "name": "assets",
          "type": "uint256"
        },
        {
          "indexed": false,
          "internalType": "uint256",
          "name": "shares",
          "type": "uint256"
        }
      ],
      "name": "Withdraw",
      "type": "event"
    },
    {
      "inputs": [],
      "name": "DOMAIN_SEPARATOR",
      "outputs": [
        {
          "internalType": "bytes32",
          "name": "",
          "type": "bytes32"
        }
      ],
      "stateMutability": "view",
      "type": "function"
    },
    {
      "inputs": [],
      "name": "acceptOwnership",
      "outputs": [],
      "stateMutability": "nonpayable",
      "type": "function"
    },
    {
      "inputs": [
        {
          "internalType": "address",
          "name": "owner",
          "type": "address"
        },
        {
          "internalType": "address",
          "name": "spender",
          "type": "address"
        }
      ],
      "name": "allowance",
      "outputs": [
        {
          "internalType": "uint256",
          "name": "",
          "type": "uint256"
        }
      ],
      "stateMutability": "view",
      "type": "function"
    },
    {
      "inputs": [
        {
          "internalType": "address",
          "name": "spender",
          "type": "address"
        },
        {
          "internalType": "uint256",
          "name": "value",
          "type": "uint256"
        }
      ],
      "name": "approve",
      "outputs": [
        {
          "internalType": "bool",
          "name": "",
          "type": "bool"
        }
      ],
      "stateMutability": "nonpayable",
      "type": "function"
    },
    {
      "inputs": [],
      "name": "asset",
      "outputs": [
        {
          "internalType": "address",
          "name": "",
          "type": "address"
        }
      ],
      "stateMutability": "view",
      "type": "function"
    },
    {
      "inputs": [],
      "name": "authority",
      "outputs": [
        {
          "internalType": "address",
          "name": "",
          "type": "address"
        }
      ],
      "stateMutability": "view",
      "type": "function"
    },
    {
      "inputs": [
        {
          "internalType": "address",
          "name": "account",
          "type": "address"
        }
      ],
      "name": "balanceOf",
      "outputs": [
        {
          "internalType": "uint256",
          "name": "",
          "type": "uint256"
        }
      ],
      "stateMutability": "view",
      "type": "function"
    },
    {
      "inputs": [],
      "name": "claimFees",
      "outputs": [
        {
          "internalType": "uint256",
          "name": "_feesInIBT",
          "type": "uint256"
        }
      ],
      "stateMutability": "nonpayable",
      "type": "function"
    },
    {
      "inputs": [
        {
          "internalType": "uint256",
          "name": "shares",
          "type": "uint256"
        }
      ],
      "name": "convertToAssets",
      "outputs": [
        {
          "internalType": "uint256",
          "name": "",
          "type": "uint256"
        }
      ],
      "stateMutability": "view",
      "type": "function"
    },
    {
      "inputs": [
        {
          "internalType": "uint256",
          "name": "assets",
          "type": "uint256"
        }
      ],
      "name": "convertToShares",
      "outputs": [
        {
          "internalType": "uint256",
          "name": "",
          "type": "uint256"
        }
      ],
      "stateMutability": "view",
      "type": "function"
    },
    {
      "inputs": [],
      "name": "decimals",
      "outputs": [
        {
          "internalType": "uint8",
          "name": "",
          "type": "uint8"
        }
      ],
      "stateMutability": "view",
      "type": "function"
    },
    {
      "inputs": [
        {
          "internalType": "uint256",
          "name": "assets",
          "type": "uint256"
        },
        {
          "internalType": "address",
          "name": "receiver",
          "type": "address"
        }
      ],
      "name": "deposit",
      "outputs": [
        {
          "internalType": "uint256",
          "name": "shares",
          "type": "uint256"
        }
      ],
      "stateMutability": "nonpayable",
      "type": "function"
    },
    {
      "inputs": [
        {
          "internalType": "uint256",
          "name": "assets",
          "type": "uint256"
        },
        {
          "internalType": "address",
          "name": "receiver",
          "type": "address"
        },
        {
          "internalType": "uint256",
          "name": "minShares",
          "type": "uint256"
        }
      ],
      "name": "deposit",
      "outputs": [
        {
          "internalType": "uint256",
          "name": "shares",
          "type": "uint256"
        }
      ],
      "stateMutability": "nonpayable",
      "type": "function"
    },
    {
      "inputs": [
        {
          "internalType": "uint256",
          "name": "ibts",
          "type": "uint256"
        },
        {
          "internalType": "address",
          "name": "receiver",
          "type": "address"
        },
        {
          "internalType": "uint256",
          "name": "minShares",
          "type": "uint256"
        }
      ],
      "name": "depositWithIBT",
      "outputs": [
        {
          "internalType": "uint256",
          "name": "shares",
          "type": "uint256"
        }
      ],
      "stateMutability": "nonpayable",
      "type": "function"
    },
    {
      "inputs": [
        {
          "internalType": "uint256",
          "name": "ibts",
          "type": "uint256"
        },
        {
          "internalType": "address",
          "name": "receiver",
          "type": "address"
        }
      ],
      "name": "depositWithIBT",
      "outputs": [
        {
          "internalType": "uint256",
          "name": "shares",
          "type": "uint256"
        }
      ],
      "stateMutability": "nonpayable",
      "type": "function"
    },
    {
      "inputs": [],
      "name": "eip712Domain",
      "outputs": [
        {
          "internalType": "bytes1",
          "name": "fields",
          "type": "bytes1"
        },
        {
          "internalType": "string",
          "name": "name",
          "type": "string"
        },
        {
          "internalType": "string",
          "name": "version",
          "type": "string"
        },
        {
          "internalType": "uint256",
          "name": "chainId",
          "type": "uint256"
        },
        {
          "internalType": "address",
          "name": "verifyingContract",
          "type": "address"
        },
        {
          "internalType": "bytes32",
          "name": "salt",
          "type": "bytes32"
        },
        {
          "internalType": "uint256[]",
          "name": "extensions",
          "type": "uint256[]"
        }
      ],
      "stateMutability": "view",
      "type": "function"
    },
    {
      "inputs": [
        {
          "internalType": "address",
          "name": "receiver",
          "type": "address"
        },
        {
          "internalType": "address",
          "name": "owner",
          "type": "address"
        }
      ],
      "name": "eject",
      "outputs": [
        {
          "internalType": "uint256",
          "name": "assets",
          "type": "uint256"
        },
        {
          "internalType": "uint256",
          "name": "pts",
          "type": "uint256"
        },
        {
          "internalType": "uint256",
          "name": "yts",
          "type": "uint256"
        }
      ],
      "stateMutability": "nonpayable",
      "type": "function"
    },
    {
      "inputs": [],
      "name": "freezeRollover",
      "outputs": [],
      "stateMutability": "nonpayable",
      "type": "function"
    },
    {
      "inputs": [],
      "name": "getCurvePool",
      "outputs": [
        {
          "internalType": "address",
          "name": "",
          "type": "address"
        }
      ],
      "stateMutability": "view",
      "type": "function"
    },
    {
      "inputs": [],
      "name": "getPT",
      "outputs": [
        {
          "internalType": "address",
          "name": "",
          "type": "address"
        }
      ],
      "stateMutability": "view",
      "type": "function"
    },
    {
      "inputs": [],
      "name": "getTotalFeesInIBT",
      "outputs": [
        {
          "internalType": "uint256",
          "name": "",
          "type": "uint256"
        }
      ],
      "stateMutability": "view",
      "type": "function"
    },
    {
      "inputs": [
        {
          "internalType": "address",
          "name": "_curvePool",
          "type": "address"
        },
        {
          "internalType": "address",
          "name": "_initialAuthority",
          "type": "address"
        }
      ],
      "name": "initialize",
      "outputs": [],
      "stateMutability": "nonpayable",
      "type": "function"
    },
    {
      "inputs": [],
      "name": "isConsumingScheduledOp",
      "outputs": [
        {
          "internalType": "bytes4",
          "name": "",
          "type": "bytes4"
        }
      ],
      "stateMutability": "view",
      "type": "function"
    },
    {
      "inputs": [
        {
          "internalType": "address",
          "name": "",
          "type": "address"
        }
      ],
      "name": "maxDeposit",
      "outputs": [
        {
          "internalType": "uint256",
          "name": "",
          "type": "uint256"
        }
      ],
      "stateMutability": "pure",
      "type": "function"
    },
    {
      "inputs": [
        {
          "internalType": "address",
          "name": "",
          "type": "address"
        }
      ],
      "name": "maxMint",
      "outputs": [
        {
          "internalType": "uint256",
          "name": "",
          "type": "uint256"
        }
      ],
      "stateMutability": "pure",
      "type": "function"
    },
    {
      "inputs": [
        {
          "internalType": "address",
          "name": "owner",
          "type": "address"
        }
      ],
      "name": "maxRedeem",
      "outputs": [
        {
          "internalType": "uint256",
          "name": "",
          "type": "uint256"
        }
      ],
      "stateMutability": "view",
      "type": "function"
    },
    {
      "inputs": [
        {
          "internalType": "address",
          "name": "owner",
          "type": "address"
        }
      ],
      "name": "maxWithdraw",
      "outputs": [
        {
          "internalType": "uint256",
          "name": "",
          "type": "uint256"
        }
      ],
      "stateMutability": "view",
      "type": "function"
    },
    {
      "inputs": [
        {
          "internalType": "uint256",
          "name": "shares",
          "type": "uint256"
        },
        {
          "internalType": "address",
          "name": "receiver",
          "type": "address"
        },
        {
          "internalType": "uint256",
          "name": "maxAssets",
          "type": "uint256"
        }
      ],
      "name": "mint",
      "outputs": [
        {
          "internalType": "uint256",
          "name": "assets",
          "type": "uint256"
        }
      ],
      "stateMutability": "nonpayable",
      "type": "function"
    },
    {
      "inputs": [
        {
          "internalType": "uint256",
          "name": "shares",
          "type": "uint256"
        },
        {
          "internalType": "address",
          "name": "receiver",
          "type": "address"
        }
      ],
      "name": "mint",
      "outputs": [
        {
          "internalType": "uint256",
          "name": "assets",
          "type": "uint256"
        }
      ],
      "stateMutability": "nonpayable",
      "type": "function"
    },
    {
      "inputs": [],
      "name": "name",
      "outputs": [
        {
          "internalType": "string",
          "name": "",
          "type": "string"
        }
      ],
      "stateMutability": "view",
      "type": "function"
    },
    {
      "inputs": [
        {
          "internalType": "address",
          "name": "owner",
          "type": "address"
        }
      ],
      "name": "nonces",
      "outputs": [
        {
          "internalType": "uint256",
          "name": "",
          "type": "uint256"
        }
      ],
      "stateMutability": "view",
      "type": "function"
    },
    {
      "inputs": [],
      "name": "owner",
      "outputs": [
        {
          "internalType": "address",
          "name": "",
          "type": "address"
        }
      ],
      "stateMutability": "view",
      "type": "function"
    },
    {
      "inputs": [],
      "name": "pause",
      "outputs": [],
      "stateMutability": "nonpayable",
      "type": "function"
    },
    {
      "inputs": [],
      "name": "paused",
      "outputs": [
        {
          "internalType": "bool",
          "name": "",
          "type": "bool"
        }
      ],
      "stateMutability": "view",
      "type": "function"
    },
    {
      "inputs": [],
      "name": "pendingOwner",
      "outputs": [
        {
          "internalType": "address",
          "name": "",
          "type": "address"
        }
      ],
      "stateMutability": "view",
      "type": "function"
    },
    {
      "inputs": [
        {
          "internalType": "address",
          "name": "owner",
          "type": "address"
        },
        {
          "internalType": "address",
          "name": "spender",
          "type": "address"
        },
        {
          "internalType": "uint256",
          "name": "value",
          "type": "uint256"
        },
        {
          "internalType": "uint256",
          "name": "deadline",
          "type": "uint256"
        },
        {
          "internalType": "uint8",
          "name": "v",
          "type": "uint8"
        },
        {
          "internalType": "bytes32",
          "name": "r",
          "type": "bytes32"
        },
        {
          "internalType": "bytes32",
          "name": "s",
          "type": "bytes32"
        }
      ],
      "name": "permit",
      "outputs": [],
      "stateMutability": "nonpayable",
      "type": "function"
    },
    {
      "inputs": [
        {
          "internalType": "uint256",
          "name": "assets",
          "type": "uint256"
        }
      ],
      "name": "previewDeposit",
      "outputs": [
        {
          "internalType": "uint256",
          "name": "",
          "type": "uint256"
        }
      ],
      "stateMutability": "view",
      "type": "function"
    },
    {
      "inputs": [
        {
          "internalType": "uint256",
          "name": "shares",
          "type": "uint256"
        }
      ],
      "name": "previewMint",
      "outputs": [
        {
          "internalType": "uint256",
          "name": "assets",
          "type": "uint256"
        }
      ],
      "stateMutability": "view",
      "type": "function"
    },
    {
      "inputs": [
        {
          "internalType": "uint256",
          "name": "shares",
          "type": "uint256"
        }
      ],
      "name": "previewRedeem",
      "outputs": [
        {
          "internalType": "uint256",
          "name": "assets",
          "type": "uint256"
        }
      ],
      "stateMutability": "view",
      "type": "function"
    },
    {
      "inputs": [
        {
          "internalType": "uint256",
          "name": "assets",
          "type": "uint256"
        }
      ],
      "name": "previewWithdraw",
      "outputs": [
        {
          "internalType": "uint256",
          "name": "",
          "type": "uint256"
        }
      ],
      "stateMutability": "view",
      "type": "function"
    },
    {
      "inputs": [
        {
          "internalType": "uint256",
          "name": "shares",
          "type": "uint256"
        },
        {
          "internalType": "address",
          "name": "receiver",
          "type": "address"
        },
        {
          "internalType": "address",
          "name": "owner",
          "type": "address"
        },
        {
          "internalType": "uint256",
          "name": "minAssets",
          "type": "uint256"
        }
      ],
      "name": "redeem",
      "outputs": [
        {
          "internalType": "uint256",
          "name": "assets",
          "type": "uint256"
        }
      ],
      "stateMutability": "nonpayable",
      "type": "function"
    },
    {
      "inputs": [
        {
          "internalType": "uint256",
          "name": "shares",
          "type": "uint256"
        },
        {
          "internalType": "address",
          "name": "receiver",
          "type": "address"
        },
        {
          "internalType": "address",
          "name": "owner",
          "type": "address"
        }
      ],
      "name": "redeem",
      "outputs": [
        {
          "internalType": "uint256",
          "name": "assets",
          "type": "uint256"
        }
      ],
      "stateMutability": "nonpayable",
      "type": "function"
    },
    {
      "inputs": [],
      "name": "renounceOwnership",
      "outputs": [],
      "stateMutability": "nonpayable",
      "type": "function"
    },
    {
      "inputs": [],
      "name": "rollover",
      "outputs": [
        {
          "internalType": "address",
          "name": "newPT",
          "type": "address"
        },
        {
          "internalType": "address",
          "name": "newCurvePool",
          "type": "address"
        }
      ],
      "stateMutability": "nonpayable",
      "type": "function"
    },
    {
      "inputs": [
        {
          "internalType": "address",
          "name": "newAuthority",
          "type": "address"
        }
      ],
      "name": "setAuthority",
      "outputs": [],
      "stateMutability": "nonpayable",
      "type": "function"
    },
    {
      "inputs": [
        {
          "internalType": "uint256",
          "name": "newPrice",
          "type": "uint256"
        }
      ],
      "name": "setRolloverPoolPrice",
      "outputs": [],
      "stateMutability": "nonpayable",
      "type": "function"
    },
    {
      "inputs": [],
      "name": "symbol",
      "outputs": [
        {
          "internalType": "string",
          "name": "",
          "type": "string"
        }
      ],
      "stateMutability": "view",
      "type": "function"
    },
    {
      "inputs": [],
      "name": "totalAssets",
      "outputs": [
        {
          "internalType": "uint256",
          "name": "",
          "type": "uint256"
        }
      ],
      "stateMutability": "view",
      "type": "function"
    },
    {
      "inputs": [],
      "name": "totalSupply",
      "outputs": [
        {
          "internalType": "uint256",
          "name": "",
          "type": "uint256"
        }
      ],
      "stateMutability": "view",
      "type": "function"
    },
    {
      "inputs": [
        {
          "internalType": "address",
          "name": "to",
          "type": "address"
        },
        {
          "internalType": "uint256",
          "name": "value",
          "type": "uint256"
        }
      ],
      "name": "transfer",
      "outputs": [
        {
          "internalType": "bool",
          "name": "",
          "type": "bool"
        }
      ],
      "stateMutability": "nonpayable",
      "type": "function"
    },
    {
      "inputs": [
        {
          "internalType": "address",
          "name": "from",
          "type": "address"
        },
        {
          "internalType": "address",
          "name": "to",
          "type": "address"
        },
        {
          "internalType": "uint256",
          "name": "value",
          "type": "uint256"
        }
      ],
      "name": "transferFrom",
      "outputs": [
        {
          "internalType": "bool",
          "name": "",
          "type": "bool"
        }
      ],
      "stateMutability": "nonpayable",
      "type": "function"
    },
    {
      "inputs": [
        {
          "internalType": "address",
          "name": "newOwner",
          "type": "address"
        }
      ],
      "name": "transferOwnership",
      "outputs": [],
      "stateMutability": "nonpayable",
      "type": "function"
    },
    {
      "inputs": [],
      "name": "unPause",
      "outputs": [],
      "stateMutability": "nonpayable",
      "type": "function"
    },
    {
      "inputs": [],
      "name": "unfreezeRollover",
      "outputs": [],
      "stateMutability": "nonpayable",
      "type": "function"
    },
    {
      "inputs": [
        {
          "internalType": "uint256",
          "name": "assets",
          "type": "uint256"
        },
        {
          "internalType": "address",
          "name": "receiver",
          "type": "address"
        },
        {
          "internalType": "address",
          "name": "owner",
          "type": "address"
        },
        {
          "internalType": "uint256",
          "name": "maxShares",
          "type": "uint256"
        }
      ],
      "name": "withdraw",
      "outputs": [
        {
          "internalType": "uint256",
          "name": "shares",
          "type": "uint256"
        }
      ],
      "stateMutability": "nonpayable",
      "type": "function"
    },
    {
      "inputs": [
        {
          "internalType": "uint256",
          "name": "assets",
          "type": "uint256"
        },
        {
          "internalType": "address",
          "name": "receiver",
          "type": "address"
        },
        {
          "internalType": "address",
          "name": "owner",
          "type": "address"
        }
      ],
      "name": "withdraw",
      "outputs": [
        {
          "internalType": "uint256",
          "name": "shares",
          "type": "uint256"
        }
      ],
      "stateMutability": "nonpayable",
      "type": "function"
    }
  ],
  "bytecode": {
    "object": "0x60a06040523480156200001157600080fd5b5060405162005e5138038062005e5183398101604081905262000034916200012e565b6001600160a01b0381166200005c57604051633efa09af60e01b815260040160405180910390fd5b6001600160a01b038116608052620000736200007a565b5062000160565b7ff0c57e16840df040f15088dc2f81fe391c3923bec73e23a9662efc9c229c6a00805468010000000000000000900460ff1615620000cb5760405163f92ee8a960e01b815260040160405180910390fd5b80546001600160401b03908116146200012b5780546001600160401b0319166001600160401b0390811782556040519081527fc7f505b2f371ae2175ee4913f4499e1f2633a7b5936321eed1cdaeb6115181d29060200160405180910390a15b50565b6000602082840312156200014157600080fd5b81516001600160a01b03811681146200015957600080fd5b9392505050565b608051615cab620001a66000396000818161115f015281816114a70152818161155001528181612cf401528181612db501528181612f4001526130630152615cab6000f3fe608060405234801561001057600080fd5b50600436106103785760003560e01c80638456cb59116101d3578063bafc0f1411610104578063d505accf116100a2578063e30c39781161007c578063e30c39781461074d578063ef8b30f714610755578063f2fde38b14610768578063f7b188a51461077b57600080fd5b8063d505accf14610714578063d905777e14610727578063dd62ed3e1461073a57600080fd5b8063c63d75b6116100de578063c63d75b6146104ac578063c6e6f592146106e6578063ce96cb77146106f9578063d294f0931461070c57600080fd5b8063bafc0f14146106b8578063bc157ac1146106cb578063bf7e214f146106de57600080fd5b8063a318c1a411610171578063b056b49a1161014b578063b056b49a14610657578063b3d7f6b91461067f578063b460af9414610692578063ba087652146106a557600080fd5b8063a318c1a41461061e578063a9059cbb14610631578063aa7e7a7a1461064457600080fd5b80638fb36037116101ad5780638fb36037146105cf57806394bf804d146105f057806395d89b41146106035780639f40a7b31461060b57600080fd5b80638456cb59146105a457806384b0196e146105ac5780638da5cb5b146105c757600080fd5b806338d52e0f116102ad57806370a082311161024b5780637a9e5e4b116102255780637a9e5e4b1461053d5780637ecebe0014610550578063836850df14610563578063836a10401461059157600080fd5b806370a082311461051a578063715018a61461052d57806379ba50971461053557600080fd5b80634cdad506116102875780634cdad506146104d45780634f5867a4146104e75780635c975abb146104ef5780636e553f651461050757600080fd5b806338d52e0f1461049b578063402d267d146104ac578063485cc955146104c157600080fd5b806318160ddd1161031a578063277a04d6116102f4578063277a04d6146104555780632f41943c14610468578063313ce567146104795780633644e5151461049357600080fd5b806318160ddd146104085780631f3f915e1461041d57806323b872dd1461044257600080fd5b8063095ea7b311610356578063095ea7b3146103c05780630a28a477146103e35780630faea4db146103f657806313d323501461040057600080fd5b806301e1d1141461037d57806306fdde031461039857806307a2d13a146103ad575b600080fd5b610385610783565b6040519081526020015b60405180910390f35b6103a0610821565b60405161038f9190615363565b6103856103bb366004615376565b6108ca565b6103d36103ce3660046153a4565b6108db565b604051901515815260200161038f565b6103856103f1366004615376565b6108f3565b6103fe610b3f565b005b6103fe610b98565b600080516020615bf683398151915254610385565b6007546001600160a01b03165b6040516001600160a01b03909116815260200161038f565b6103d36104503660046153d0565b610beb565b610385610463366004615411565b610c11565b6006546001600160a01b031661042a565b610481610c40565b60405160ff909116815260200161038f565b610385610cae565b6004546001600160a01b031661042a565b6103856104ba366004615438565b5060001990565b6103fe6104cf366004615455565b610cb8565b6103856104e2366004615376565b6112d6565b600154610385565b600080516020615c368339815191525460ff166103d3565b61038561051536600461548e565b61131b565b610385610528366004615438565b61169d565b6103fe6116d0565b6103fe6116e4565b6103fe61054b366004615438565b611731565b61038561055e366004615438565b6117b8565b610576610571366004615455565b6117c3565b6040805193845260208401929092529082015260600161038f565b61038561059f366004615411565b611899565b6103fe6118c8565b6105b46118d9565b60405161038f97969594939291906154b3565b61042a611985565b6105d76119ba565b6040516001600160e01b0319909116815260200161038f565b6103856105fe36600461548e565b6119f3565b6103a0611a63565b610385610619366004615549565b611aa2565b61038561062c366004615549565b611ada565b6103d361063f3660046153a4565b611b0a565b6103fe610652366004615376565b611b18565b61065f611ba7565b604080516001600160a01b0393841681529290911660208301520161038f565b61038561068d366004615376565b6129bb565b6103856106a0366004615591565b6129dd565b6103856106b3366004615591565b612ac8565b6103856106c636600461548e565b612ba5565b6103856106d9366004615411565b612ee0565b61042a612eec565b6103856106f4366004615376565b612f03565b610385610707366004615438565b613051565b61038561305f565b6103fe6107223660046155e2565b6131d0565b610385610735366004615438565b613329565b610385610748366004615455565b613334565b61042a61337e565b610385610763366004615376565b6133a7565b6103fe610776366004615438565b6133dd565b6103fe613462565b60065460075460008054604051631a24629d60e01b81526001600160a01b03948516600482015293909216602484015260448301919091529073__$2e5cb1d16906b942c945c10875b8e5b0f0$__90631a24629d90606401602060405180830381865af41580156107f8573d6000803e3d6000fd5b505050506040513d601f19601f8201168201806040525081019061081c9190615653565b905090565b60606000600080516020615bd68339815191525b90508060030180546108469061566c565b80601f01602080910402602001604051908101604052809291908181526020018280546108729061566c565b80156108bf5780601f10610894576101008083540402835291602001916108bf565b820191906000526020600020905b8154815290600101906020018083116108a257829003601f168201915b505050505091505090565b60006108d582613473565b92915050565b6000336108e9818585613530565b5060019392505050565b60008061090c600080516020615bf68339815191525490565b9050801580610919575082155b156109275750600092915050565b60008061093385613542565b61093f906000196156b6565b905060006109e36109de61096266b1a2bc2ec50000670de0b6b3a76400006156e6565b6006546040516363737ac960e11b8152600481018b9052670de0b6b3a7640000916001600160a01b03169063c6e6f59290602401602060405180830381865afa1580156109b3573d6000803e3d6000fd5b505050506040513d601f19601f820116820180604052508101906109d79190615653565b9190613573565b613542565b905060006109f087613542565b610a046109de6109ff85613637565b613473565b610a0e91906156f9565b90506000811215610a32576040516384e1508960e01b815260040160405180910390fd5b6000610a3d86613542565b905060005b6014811015610aec57610a596103e86000196156b6565b8312158015610a6a57506103e88313155b80610a7457508285145b610aec576000610a8486856156f9565b610a8e88876156f9565b610a9890866156b6565b610aa2919061572f565b610aac90866156f9565b94965092945084925083610abf8a613542565b610ace6109de6109ff88613637565b610ad891906156f9565b93505080610ae59061576b565b9050610a42565b5080831380610b065750808312158015610b065750600082125b15610b245760405163bb55fd2760e01b815260040160405180910390fd5b610b2d83613637565b98975050505050505050565b50919050565b610b4c335b60003661365d565b6009805460ff60a01b1916600160a01b90811791829055604051910460ff1615159033907f7d855da5b2ec71717980c346fd951ea2449614b865ceb658ec17bc586a88c21590600090a3565b610ba133610b44565b6009805460ff60a01b191690819055604051600160a01b90910460ff1615159033907f7d855da5b2ec71717980c346fd951ea2449614b865ceb658ec17bc586a88c21590600090a3565b600033610bf9858285613763565b610c048585856137c9565b60019150505b9392505050565b6000610c1d8484612ba5565b905081811015610c0a57604051630f033da760e41b815260040160405180910390fd5b6005546040805163313ce56760e01b815290516000926001600160a01b03169163313ce5679160048083019260209291908290030181865afa158015610c8a573d6000803e3d6000fd5b505050506040513d601f19601f8201168201806040525081019061081c9190615784565b600061081c613828565b7ff0c57e16840df040f15088dc2f81fe391c3923bec73e23a9662efc9c229c6a008054600160401b810460ff16159067ffffffffffffffff16600081158015610cfe5750825b905060008267ffffffffffffffff166001148015610d1b5750303b155b905081158015610d29575080155b15610d475760405163f92ee8a960e01b815260040160405180910390fd5b845467ffffffffffffffff191660011785558315610d7157845460ff60401b1916600160401b1785555b6001600160a01b0387161580610d8e57506001600160a01b038616155b15610dac57604051633efa09af60e01b815260040160405180910390fd5b60405163c661065760e01b8152600160048201526000906001600160a01b0389169063c661065790602401602060405180830381865afa158015610df4573d6000803e3d6000fd5b505050506040513d601f19601f82011682018060405250810190610e1891906157a1565b6001600160a01b03166395d89b416040518163ffffffff1660e01b8152600401600060405180830381865afa158015610e55573d6000803e3d6000fd5b505050506040513d6000823e601f3d908101601f19168201604052610e7d91908101906157d4565b90506000610e8a82613832565b9050610e9e81610e9984613860565b613888565b610ea78161389a565b610eb0336138c5565b610eb86138d6565b610ec06138e6565b610ec9886138f6565b600780546001600160a01b0319166001600160a01b038b1690811790915560405163c661065760e01b81526001600482015263c661065790602401602060405180830381865afa158015610f21573d6000803e3d6000fd5b505050506040513d601f19601f82011682018060405250810190610f4591906157a1565b600680546001600160a01b0319166001600160a01b03929092169182179055604080516338d52e0f60e01b815290516338d52e0f916004808201926020929091908290030181865afa158015610f9f573d6000803e3d6000fd5b505050506040513d601f19601f82011682018060405250810190610fc391906157a1565b600480546001600160a01b0319166001600160a01b039283161781556006546040805163204f83f960e01b81529051919093169263204f83f992818101926020929091908290030181865afa158015611020573d6000803e3d6000fd5b505050506040513d601f19601f820116820180604052508101906110449190615653565b600355600654604080516331913fa560e21b815290516001600160a01b039092169163c644fe94916004808201926020929091908290030181865afa158015611091573d6000803e3d6000fd5b505050506040513d601f19601f820116820180604052508101906110b591906157a1565b600580546001600160a01b0319166001600160a01b0392831617905560075460408051637e062a3560e11b81529051919092169163fc0c546a9160048083019260209291908290030181865afa158015611113573d6000803e3d6000fd5b505050506040513d601f19601f8201168201806040525081019061113791906157a1565b600860006101000a8154816001600160a01b0302191690836001600160a01b031602179055507f00000000000000000000000000000000000000000000000000000000000000006001600160a01b03166388cc58e46040518163ffffffff1660e01b8152600401602060405180830381865afa1580156111bb573d6000803e3d6000fd5b505050506040513d601f19601f820116820180604052508101906111df91906157a1565b600980546001600160a01b0319166001600160a01b03928316908117909155600754604051632401321360e01b81529216600483015290632401321390602401602060405180830381865afa15801561123c573d6000803e3d6000fd5b505050506040513d601f19601f820116820180604052508101906112609190615653565b60025560035442106112855760405163387b2e5560e11b815260040160405180910390fd5b505083156112cd57845460ff60401b19168555604051600181527fc7f505b2f371ae2175ee4913f4499e1f2633a7b5936321eed1cdaeb6115181d29060200160405180910390a15b50505050505050565b6000806112ef600080516020615bf68339815191525490565b9050808311156113125760405163bb55fd2760e01b815260040160405180910390fd5b610c0a83613473565b60006003548042106113405760405163387b2e5560e11b815260040160405180910390fd5b611348613907565b611350613938565b600660009054906101000a90046001600160a01b03166001600160a01b031663406cf2296040518163ffffffff1660e01b81526004016020604051808303816000875af11580156113a5573d6000803e3d6000fd5b505050506040513d601f19601f820116820180604052508101906113c99190615653565b506113d3846133a7565b9150816000036113f65760405163777d63e360e01b815260040160405180910390fd5b60045461140e906001600160a01b0316333087613970565b60055460045461142b916001600160a01b039182169116866139d7565b600554604051636e553f6560e01b8152600481018690523060248201526000916001600160a01b031690636e553f65906044016020604051808303816000875af115801561147d573d6000803e3d6000fd5b505050506040513d601f19601f820116820180604052508101906114a19190615653565b905060007f00000000000000000000000000000000000000000000000000000000000000006001600160a01b0316634f4a9a526040518163ffffffff1660e01b8152600401602060405180830381865afa158015611503573d6000803e3d6000fd5b505050506040513d601f19601f820116820180604052508101906115279190615653565b905060006115358383613a61565b905061154081613a76565b61154a8184615881565b925060007f00000000000000000000000000000000000000000000000000000000000000006001600160a01b0316630e5f99c56040518163ffffffff1660e01b8152600401602060405180830381865afa1580156115ac573d6000803e3d6000fd5b505050506040513d601f19601f820116820180604052508101906115d091906157a1565b6005549091506115ea906001600160a01b031682866139d7565b600754604051630480868d60e41b81526001600160a01b03918216600482015260248101869052600060448201523060648201529082169063480868d0906084016020604051808303816000875af115801561164a573d6000803e3d6000fd5b505050506040513d601f19601f8201168201806040525081019061166e9190615653565b5061167b33888a89613a9b565b505050506116966001600080516020615c5683398151915255565b5092915050565b600080600080516020615bd68339815191525b6001600160a01b0390931660009081526020939093525050604090205490565b6116d8613b15565b6116e26000613b47565b565b33806116ee61337e565b6001600160a01b0316146117255760405163118cdaa760e01b81526001600160a01b03821660048201526024015b60405180910390fd5b61172e81613b47565b50565b3361173a612eec565b6001600160a01b0316816001600160a01b0316146117755760405162d1953b60e31b81526001600160a01b038216600482015260240161171c565b816001600160a01b03163b6000036117ab576040516361798f2f60e11b81526001600160a01b038316600482015260240161171c565b6117b482613b7f565b5050565b60006108d582613be0565b60008060006003548042106117eb5760405163387b2e5560e11b815260040160405180910390fd5b6117f3613907565b6117fb613938565b61180485613c09565b600061180f8661169d565b90506000611829600080516020615bf68339815191525490565b90506000611836836112d6565b90508060000361185957604051633a969ed360e21b815260040160405180910390fd5b611866338a8a8487613cab565b611871838a84613d1c565b9650965096505050506118916001600080516020615c5683398151915255565b509250925092565b60006118a584846119f3565b905081811115610c0a57604051630f033da760e41b815260040160405180910390fd5b6118d133610b44565b6116e2613f86565b60006060808280808381600080516020615c16833981519152805490915015801561190657506001810154155b61194a5760405162461bcd60e51b81526020600482015260156024820152741152540dcc4c8e88155b9a5b9a5d1a585b1a5e9959605a1b604482015260640161171c565b611952613fe9565b61195a614028565b60408051600080825260208201909252600f60f81b9c939b5091995046985030975095509350915050565b6000807f9016d09d72d40fdae2fd8ceac6b6234c7706214fd39c1cd1e609a0528c1993005b546001600160a01b031692915050565b600080516020615bb6833981519152805460009190600160a01b900460ff166119e45760006119ed565b638fb3603760e01b5b91505090565b600080611a0c600080516020615bf68339815191525490565b905080600003611a2f57604051631b95c9a760e21b815260040160405180910390fd5b611a38846108ca565b9150611a4f84611a47846133a7565b849190613573565b9150611a5b828461131b565b505092915050565b7f52c63247e1f47db19d5ce0460030c497f067ca4cebf71ba98eeadabe20bace048054606091600080516020615bd6833981519152916108469061566c565b6000611aaf858585612ac8565b905081811015611ad257604051630f033da760e41b815260040160405180910390fd5b949350505050565b6000611ae78585856129dd565b905081811115611ad257604051630f033da760e41b815260040160405180910390fd5b6000336108e98185856137c9565b62093a80600354611b299190615881565b804210611b495760405163387b2e5560e11b815260040160405180910390fd5b611b51611985565b6001600160a01b0316336001600160a01b031614611b7257611b7233610b44565b6002546040518391907fa5f888acc774d5970a90f6aef4fdbe1bab1ba87ae5a896c55e4b64e4ba0d194d90600090a350600255565b600080600354421015611bcd5760405163790ab91960e11b815260040160405180910390fd5b611bd5613907565b600954600160a01b900460ff1680611bed5750600254155b15611c0b5760405163d148cccb60e01b815260040160405180910390fd5b6008546040516370a0823160e01b81523060048201526000916001600160a01b0316906370a0823190602401602060405180830381865afa158015611c54573d6000803e3d6000fd5b505050506040513d601f19601f82011682018060405250810190611c789190615653565b6007546040805180820182526000808252602082015290516316cd8e2760e21b81529293506001600160a01b0390911691635b36389c91611cbe918591906004016158b7565b600060405180830381600087803b158015611cd857600080fd5b505af1158015611cec573d6000803e3d6000fd5b505060065460405163cc83496960e01b81523060048201526001600160a01b03909116925063cc83496991506024016020604051808303816000875af1158015611d3a573d6000803e3d6000fd5b505050506040513d601f19601f82011682018060405250810190611d5e9190615653565b50600480546040516370a0823160e01b815230928101929092526000916001600160a01b03909116906370a0823190602401602060405180830381865afa158015611dad573d6000803e3d6000fd5b505050506040513d601f19601f82011682018060405250810190611dd19190615653565b6004805460055460405163095ea7b360e01b81526001600160a01b039182169381019390935260248301849052929350919091169063095ea7b3906044016020604051808303816000875af1158015611e2e573d6000803e3d6000fd5b505050506040513d601f19601f82011682018060405250810190611e5291906158e0565b50600554604051636e553f6560e01b8152600481018390523060248201526001600160a01b0390911690636e553f65906044016020604051808303816000875af1158015611ea4573d6000803e3d6000fd5b505050506040513d601f19601f82011682018060405250810190611ec89190615653565b50600080546005546040516370a0823160e01b81523060048201526001600160a01b03909116906370a0823190602401602060405180830381865afa158015611f15573d6000803e3d6000fd5b505050506040513d601f19601f82011682018060405250810190611f399190615653565b611f439190615881565b6009546005546006546040805163ad2e8c9b60e01b815290519495506001600160a01b039384169463bc9a960494938416939092169163ad2e8c9b916004808201926020929091908290030181865afa158015611fa4573d6000803e3d6000fd5b505050506040513d601f19601f82011682018060405250810190611fc89190615653565b6040516001600160e01b031960e085901b1681526001600160a01b03909216600483015260248201526044016020604051808303816000875af1158015612013573d6000803e3d6000fd5b505050506040513d601f19601f8201168201806040525081019061203791906157a1565b600680546001600160a01b0319166001600160a01b0383169081179091556040805163204f83f960e01b81529051929750909163204f83f9916004808201926020929091908290030181865afa158015612095573d6000803e3d6000fd5b505050506040513d601f19601f820116820180604052508101906120b99190615653565b6003556007546040805161014081018252600080825260208201819052918101829052606081018290526080810182905260a0810182905260c0810182905260e0810182905261010081018290526101208101919091526001600160a01b0390911690816001600160a01b031663f446c1d06040518163ffffffff1660e01b8152600401602060405180830381865afa15801561215a573d6000803e3d6000fd5b505050506040513d601f19601f8201168201806040525081019061217e9190615653565b816000018181525050816001600160a01b031663b13739296040518163ffffffff1660e01b8152600401602060405180830381865afa1580156121c5573d6000803e3d6000fd5b505050506040513d601f19601f820116820180604052508101906121e99190615653565b816020018181525050816001600160a01b03166392526c0c6040518163ffffffff1660e01b8152600401602060405180830381865afa158015612230573d6000803e3d6000fd5b505050506040513d601f19601f820116820180604052508101906122549190615653565b816040018181525050816001600160a01b031663ee8de6756040518163ffffffff1660e01b8152600401602060405180830381865afa15801561229b573d6000803e3d6000fd5b505050506040513d601f19601f820116820180604052508101906122bf9190615653565b816060018181525050816001600160a01b03166349fe9e776040518163ffffffff1660e01b8152600401602060405180830381865afa158015612306573d6000803e3d6000fd5b505050506040513d601f19601f8201168201806040525081019061232a9190615653565b816080018181525050816001600160a01b03166372d4f0e26040518163ffffffff1660e01b8152600401602060405180830381865afa158015612371573d6000803e3d6000fd5b505050506040513d601f19601f820116820180604052508101906123959190615653565b8160a0018181525050816001600160a01b031663083812e56040518163ffffffff1660e01b8152600401602060405180830381865afa1580156123dc573d6000803e3d6000fd5b505050506040513d601f19601f820116820180604052508101906124009190615653565b8160c0018181525050816001600160a01b031663fee3f7f96040518163ffffffff1660e01b8152600401602060405180830381865afa158015612447573d6000803e3d6000fd5b505050506040513d601f19601f8201168201806040525081019061246b9190615653565b8160e0018181525050816001600160a01b031663662b62746040518163ffffffff1660e01b8152600401602060405180830381865afa1580156124b2573d6000803e3d6000fd5b505050506040513d601f19601f820116820180604052508101906124d69190615653565b6101008201908152600254610120830190815260095460065460408051633b09235f60e21b81526001600160a01b039283166004820152865160248201526020870151604482015290860151606482015260608601516084820152608086015160a482015260a086015160c482015260c086015160e482015260e086015161010482015293516101248501529151610144840152169063ec248d7c90610164016020604051808303816000875af1158015612595573d6000803e3d6000fd5b505050506040513d601f19601f820116820180604052508101906125b991906157a1565b600780546001600160a01b0319166001600160a01b03831690811790915560408051637e062a3560e11b81529051929850909163fc0c546a916004808201926020929091908290030181865afa158015612617573d6000803e3d6000fd5b505050506040513d601f19601f8201168201806040525081019061263b91906157a1565b600880546001600160a01b0319166001600160a01b03928316179055600254600654604051635d1c218960e11b8152600481018790526024810192909252909116604482015260009073__$2e5cb1d16906b942c945c10875b8e5b0f0$__9063ba38431290606401602060405180830381865af41580156126c0573d6000803e3d6000fd5b505050506040513d601f19601f820116820180604052508101906126e49190615653565b90506126f08185615881565b60055460065460405163095ea7b360e01b81526001600160a01b03918216600482015260248101849052929650169063095ea7b3906044016020604051808303816000875af1158015612747573d6000803e3d6000fd5b505050506040513d601f19601f8201168201806040525081019061276b91906158e0565b50600654604051632ebf03c560e21b8152600481018690523060248201526000916001600160a01b03169063bafc0f14906044016020604051808303816000875af11580156127be573d6000803e3d6000fd5b505050506040513d601f19601f820116820180604052508101906127e29190615653565b60055460075460405163095ea7b360e01b81526001600160a01b03918216600482015260248101869052929350169063095ea7b3906044016020604051808303816000875af1158015612839573d6000803e3d6000fd5b505050506040513d601f19601f8201168201806040525081019061285d91906158e0565b5060065460075460405163095ea7b360e01b81526001600160a01b0391821660048201526024810184905291169063095ea7b3906044016020604051808303816000875af11580156128b3573d6000803e3d6000fd5b505050506040513d601f19601f820116820180604052508101906128d791906158e0565b506007546040805180820182528481526020810184905290516000926001600160a01b031691630b4c7e4d91612912919085906024016158fb565b6040516020818303038152906040529060e01b6020820180516001600160e01b03838183161783525050505060405161294b9190615919565b6000604051808303816000865af19150503d8060008114612988576040519150601f19603f3d011682016040523d82523d6000602084013e61298d565b606091505b50509050806129af5760405163d3b875a760e01b815260040160405180910390fd5b50505050505050509091565b60006129c6826108ca565b90506108d5826129d5836133a7565b839190613573565b6000600354804210612a025760405163387b2e5560e11b815260040160405180910390fd5b612a0a613907565b612a12613938565b84600003612a3357604051630e8b71cb60e21b815260040160405180910390fd5b612a3c83613c09565b6000612a478461169d565b9050612a52866108f3565b925080831115612a7557604051633c57b48560e21b815260040160405180910390fd5b6000612a8d600080516020615bf68339815191525490565b9050612a9c3387878a88613cab565b612aa7848783614040565b5050612ac06001600080516020615c5683398151915255565b509392505050565b6000600354804210612aed5760405163387b2e5560e11b815260040160405180910390fd5b612af5613907565b612afd613938565b612b068361169d565b851115612b2657604051633c57b48560e21b815260040160405180910390fd5b612b2f83613c09565b612b38856112d6565b915081600003612b5b576040516310c8015f60e11b815260040160405180910390fd5b6000612b73600080516020615bf68339815191525490565b9050612b82338686868a613cab565b612b8d868683614040565b50612ac06001600080516020615c5683398151915255565b6000600354804210612bca5760405163387b2e5560e11b815260040160405180910390fd5b612bd2613907565b612bda613938565b600660009054906101000a90046001600160a01b03166001600160a01b031663406cf2296040518163ffffffff1660e01b81526004016020604051808303816000875af1158015612c2f573d6000803e3d6000fd5b505050506040513d601f19601f82011682018060405250810190612c539190615653565b506005546040516303d1689d60e11b8152600481018690526000916001600160a01b0316906307a2d13a90602401602060405180830381865afa158015612c9e573d6000803e3d6000fd5b505050506040513d601f19601f82011682018060405250810190612cc29190615653565b9050612ccd816133a7565b925082600003612cf05760405163777d63e360e01b815260040160405180910390fd5b60007f00000000000000000000000000000000000000000000000000000000000000006001600160a01b0316634f4a9a526040518163ffffffff1660e01b8152600401602060405180830381865afa158015612d50573d6000803e3d6000fd5b505050506040513d601f19601f82011682018060405250810190612d749190615653565b90506000612d828783613a61565b9050612d8d81613a76565b600554612da5906001600160a01b031633308a613970565b612daf8188615881565b965060007f00000000000000000000000000000000000000000000000000000000000000006001600160a01b0316630e5f99c56040518163ffffffff1660e01b8152600401602060405180830381865afa158015612e11573d6000803e3d6000fd5b505050506040513d601f19601f82011682018060405250810190612e3591906157a1565b600554909150612e4f906001600160a01b0316828a6139d7565b600754604051630480868d60e41b81526001600160a01b039182166004820152602481018a9052600060448201523060648201529082169063480868d0906084016020604051808303816000875af1158015612eaf573d6000803e3d6000fd5b505050506040513d601f19601f82011682018060405250810190612ed39190615653565b5061167b33888689613a9b565b6000610c1d848461131b565b600080600080516020615bb68339815191526119aa565b600073__$2e5cb1d16906b942c945c10875b8e5b0f0$__63b336f88683612f36600080516020615bf68339815191525490565b612f3e610783565b7f00000000000000000000000000000000000000000000000000000000000000006001600160a01b0316634f4a9a526040518163ffffffff1660e01b8152600401602060405180830381865afa158015612f9c573d6000803e3d6000fd5b505050506040513d601f19601f82011682018060405250810190612fc09190615653565b60065460075460405160e088901b6001600160e01b031916815260048101969096526024860194909452604485019290925260648401526001600160a01b0390811660848401521660a482015260c401602060405180830381865af415801561302d573d6000803e3d6000fd5b505050506040513d601f19601f820116820180604052508101906108d59190615653565b60006108d56104e28361169d565b60007f00000000000000000000000000000000000000000000000000000000000000006001600160a01b03166312fde4b76040518163ffffffff1660e01b8152600401602060405180830381865afa1580156130bf573d6000803e3d6000fd5b505050506040513d601f19601f820116820180604052508101906130e391906157a1565b6001600160a01b0316336001600160a01b0316146131145760405163a97a58a160e01b815260040160405180910390fd5b5060008054908055600554604051635d043b2960e11b8152600481018390523360248201523060448201526001600160a01b039091169063ba087652906064016020604051808303816000875af1158015613173573d6000803e3d6000fd5b505050506040513d601f19601f820116820180604052508101906131979190615653565b5060405181815233907f20ca5094f3a20c321cbe4123d0f01b276b81df0fa24cd4d83d9253956035d8639060200160405180910390a290565b834211156131f45760405163313c898160e11b81526004810185905260240161171c565b60007f6e71edae12b1b97f4d1f60370fef10105fa2faae0126114a169c64845d6126c98888886132608c6001600160a01b031660009081527f5ab42ced628888259c08ac98db1eb0cf702fc1501344311d8b100cd1bfe4bb006020526040902080546001810190915590565b6040805160208101969096526001600160a01b0394851690860152929091166060840152608083015260a082015260c0810186905260e00160405160208183030381529060405280519060200120905060006132bb826144ed565b905060006132cb8287878761451a565b9050896001600160a01b0316816001600160a01b031614613312576040516325c0072360e11b81526001600160a01b0380831660048301528b16602482015260440161171c565b61331d8a8a8a613530565b50505050505050505050565b60006108d58261169d565b6001600160a01b0391821660009081527f52c63247e1f47db19d5ce0460030c497f067ca4cebf71ba98eeadabe20bace016020908152604080832093909416825291909152205490565b6000807f237e158222e3e6968b72b9db0d8043aacf074ad9f650f0d1606b4d82ee432c006119aa565b60006003548042106133cc5760405163387b2e5560e11b815260040160405180910390fd5b6133d4613907565b610c0a83612f03565b6133e5613b15565b7f237e158222e3e6968b72b9db0d8043aacf074ad9f650f0d1606b4d82ee432c0080546001600160a01b0319166001600160a01b0383169081178255613429611985565b6001600160a01b03167f38d16b8cac22d99fc7c124b9cd0de2d3fa1faef420bfe791d8c362d765e2270060405160405180910390a35050565b61346b33610b44565b6116e2614548565b60008061348c600080516020615bf68339815191525490565b600654600754600054604051629d31eb60e41b815260048101889052602481018590526001600160a01b039384166044820152929091166064830152608482015290915073__$2e5cb1d16906b942c945c10875b8e5b0f0$__906309d31eb09060a401602060405180830381865af415801561350c573d6000803e3d6000fd5b505050506040513d601f19601f82011682018060405250810190610c0a9190615653565b61353d838383600161458e565b505050565b60006001600160ff1b0382111561356f5760405163123baf0360e11b81526004810183905260240161171c565b5090565b60008383028160001985870982811083820303915050806000036135aa578382816135a0576135a0615719565b0492505050610c0a565b8084116135ca5760405163227bc15360e01b815260040160405180910390fd5b6000848688096000868103871696879004966002600389028118808a02820302808a02820302808a02820302808a02820302808a02820302808a02909103029181900381900460010186841190950394909402919094039290920491909117919091029150509392505050565b60008082121561356f57604051635467221960e11b81526004810183905260240161171c565b600080516020615bb683398151915260008061369861367a612eec565b873061368a600460008a8c615935565b6136939161595f565b614676565b915091508161375b5763ffffffff81161561373857825460ff60a01b1916600160a01b1783556136c6612eec565b6001600160a01b03166394c7d7ee8787876040518463ffffffff1660e01b81526004016136f59392919061598d565b600060405180830381600087803b15801561370f57600080fd5b505af1158015613723573d6000803e3d6000fd5b5050845460ff60a01b191685555061375b9050565b60405162d1953b60e31b81526001600160a01b038716600482015260240161171c565b505050505050565b600061376f8484613334565b905060001981146137c357818110156137b457604051637dc7a0d960e11b81526001600160a01b0384166004820152602481018290526044810183905260640161171c565b6137c38484848403600061458e565b50505050565b6001600160a01b0383166137f357604051634b637e8f60e11b81526000600482015260240161171c565b6001600160a01b03821661381d5760405163ec442f0560e01b81526000600482015260240161171c565b61353d838383614782565b600061081c6148b2565b60606108d56040518060400160405280600a81526020016902628102b30bab63a1d160b51b81525083614926565b60606108d5604051806040016040528060048152602001634c50562d60e01b81525083614926565b613890614952565b6117b4828261499b565b6138a2614952565b61172e81604051806040016040528060018152602001603160f81b8152506149ec565b6138cd614952565b61172e81614a4d565b6138de614952565b6116e2614a7f565b6138ee614952565b6116e2614aa0565b6138fe614952565b61172e81614aa8565b600080516020615c368339815191525460ff16156116e25760405163d93c066560e01b815260040160405180910390fd5b600080516020615c5683398151915280546001190161396a57604051633ee5aeb560e01b815260040160405180910390fd5b60029055565b6040516001600160a01b0384811660248301528381166044830152606482018390526137c39186918216906323b872dd906084015b604051602081830303815290604052915060e01b6020820180516001600160e01b038381831617835250505050614ab9565b604051636eb1769f60e11b81523060048201526001600160a01b0383811660248301526000919085169063dd62ed3e90604401602060405180830381865afa158015613a27573d6000803e3d6000fd5b505050506040513d601f19601f82011682018060405250810190613a4b9190615653565b90506137c38484613a5c85856156e6565b614b1c565b6000610c0a8284670de0b6b3a7640000613573565b80600054613a8491906156e6565b600055600154613a959082906156e6565b60015550565b613aa58382614bac565b826001600160a01b0316846001600160a01b03167fdcbc1c05240f31ff3ad067ef1ee35ce4997762752e3a095284754544f4c709d78484604051613af3929190918252602082015260400190565b60405180910390a350505050565b6001600080516020615c5683398151915255565b33613b1e611985565b6001600160a01b0316146116e25760405163118cdaa760e01b815233600482015260240161171c565b7f237e158222e3e6968b72b9db0d8043aacf074ad9f650f0d1606b4d82ee432c0080546001600160a01b03191681556117b482614be2565b600080516020615bb683398151915280546001600160a01b0383166001600160a01b03199091168117825560408051918252517f2f658b440c35314f52658ea8a740e05b284cdc84dc9ae01e891f21b8933e7cad9181900360200190a15050565b6000807f5ab42ced628888259c08ac98db1eb0cf702fc1501344311d8b100cd1bfe4bb006116b0565b336001600160a01b03821614613c3257604051632e6c18c960e11b815260040160405180910390fd5b600660009054906101000a90046001600160a01b03166001600160a01b031663406cf2296040518163ffffffff1660e01b81526004016020604051808303816000875af1158015613c87573d6000803e3d6000fd5b505050506040513d601f19601f820116820180604052508101906117b49190615653565b613cb58382614c53565b826001600160a01b0316846001600160a01b0316866001600160a01b03167ffbde797d201c681b91056529119e0b02407c7bb96a4a2c75c01fc9667232c8db8585604051613d0d929190918252602082015260400190565b60405180910390a45050505050565b6005546040516370a0823160e01b81523060048201526000918291829182916001600160a01b03909116906370a0823190602401602060405180830381865afa158015613d6d573d6000803e3d6000fd5b505050506040513d601f19601f82011682018060405250810190613d919190615653565b600654600754604051629e8a3160e61b8152600481018b9052602481018990526001600160a01b039283166044820152911660648201529091506000908190819073__$2e5cb1d16906b942c945c10875b8e5b0f0$__906327a28c4090608401606060405180830381865af4158015613e0e573d6000803e3d6000fd5b505050506040513d601f19601f82011682018060405250810190613e3291906159cd565b9250925092508015613e5f576006549295508592613e5a906001600160a01b03168a85614c89565b613eee565b829450613eee8986600660009054906101000a90046001600160a01b03166001600160a01b03166304aa50ad6040518163ffffffff1660e01b8152600401602060405180830381865afa158015613eba573d6000803e3d6000fd5b505050506040513d601f19601f82011682018060405250810190613ede91906157a1565b6001600160a01b03169190614c89565b600480546040516370a0823160e01b81523092810192909252613f69916001600160a01b03909116906370a0823190602401602060405180830381865afa158015613f3d573d6000803e3d6000fd5b505050506040513d601f19601f82011682018060405250810190613f619190615653565b8b908a613573565b9650613f778783868c614cba565b96505050505093509350939050565b613f8e613907565b600080516020615c36833981519152805460ff191660011781557f62e78cea01bee320cd4e420270b5ea74000d11b0c9f74754ebdbfc544b05a258335b6040516001600160a01b03909116815260200160405180910390a150565b7fa16a46d94261c7517cc8ff89f61c0ce93598e3c849801011dee649a6a557d1028054606091600080516020615c16833981519152916108469061566c565b60606000600080516020615c16833981519152610835565b6005546040516370a0823160e01b81523060048201526000916001600160a01b0316906370a0823190602401602060405180830381865afa158015614089573d6000803e3d6000fd5b505050506040513d601f19601f820116820180604052508101906140ad9190615653565b600654600754604051629e8a3160e61b815260048101889052602481018690526001600160a01b039283166044820152911660648201529091506000908190819073__$2e5cb1d16906b942c945c10875b8e5b0f0$__906327a28c4090608401606060405180830381865af415801561412a573d6000803e3d6000fd5b505050506040513d601f19601f8201168201806040525081019061414e91906159cd565b92509250925080156141fc57600754600654614177916001600160a01b039182169116856139d7565b60075460405163ce7d650360e01b81526001600160a01b039091169063ce7d6503906141b3906001906000908890829081903090600401615a02565b6020604051808303816000875af11580156141d2573d6000803e3d6000fd5b505050506040513d601f19601f820116820180604052508101906141f69190615653565b50614458565b6005546040516370a0823160e01b815230600482015260009186916001600160a01b03909116906370a0823190602401602060405180830381865afa158015614249573d6000803e3d6000fd5b505050506040513d601f19601f8201168201806040525081019061426d9190615653565b6142779190615881565b600754600554919250614297916001600160a01b039081169116836139d7565b60075460405163ce7d650360e01b81526000916001600160a01b03169063ce7d6503906142d39084906001908790839081903090600401615a02565b6020604051808303816000875af11580156142f2573d6000803e3d6000fd5b505050506040513d601f19601f820116820180604052508101906143169190615653565b9050848111156143de57600061432c8683615881565b60075460065491925061434c916001600160a01b039081169116836139d7565b60075460405163ce7d650360e01b81526001600160a01b039091169063ce7d650390614388906001906000908690829081903090600401615a02565b6020604051808303816000875af11580156143a7573d6000803e3d6000fd5b505050506040513d601f19601f820116820180604052508101906143cb9190615653565b506143d686866156e6565b945050614455565b6143e88186615881565b94508415614448576144488886600660009054906101000a90046001600160a01b03166001600160a01b03166304aa50ad6040518163ffffffff1660e01b8152600401602060405180830381865afa158015613eba573d6000803e3d6000fd5b61445281856156e6565b93505b50505b600480546040516370a0823160e01b815230928101929092526000916144d4916001600160a01b0316906370a0823190602401602060405180830381865afa1580156144a8573d6000803e3d6000fd5b505050506040513d601f19601f820116820180604052508101906144cc9190615653565b899088613573565b90506144e28184878a614cba565b505050505050505050565b60006108d56144fa613828565b8360405161190160f01b8152600281019290925260228201526042902090565b60008060008061452c88888888614ed5565b92509250925061453c8282614fa4565b50909695505050505050565b61455061505d565b600080516020615c36833981519152805460ff191681557f5db9ee0a495bf2e6ff9c91a7834c1ba4fdd244a5e8aa4e537bd38aeae4b073aa33613fcb565b600080516020615bd68339815191526001600160a01b0385166145c75760405163e602df0560e01b81526000600482015260240161171c565b6001600160a01b0384166145f157604051634a1406b160e11b81526000600482015260240161171c565b6001600160a01b0380861660009081526001830160209081526040808320938816835292905220839055811561466f57836001600160a01b0316856001600160a01b03167f8c5be1e5ebec7d5bd14f71427d1e84f3dd0314c0f7b2291e5b200ac8c7c3b9258560405161466691815260200190565b60405180910390a35b5050505050565b6040516001600160a01b03848116602483015283811660448301526001600160e01b03198316606483015260009182918291829189169060840160408051601f198184030181529181526020820180516001600160e01b031663b700961360e01b179052516146e59190615919565b600060405180830381855afa9150503d8060008114614720576040519150601f19603f3d011682016040523d82523d6000602084013e614725565b606091505b50915091508115614777576040815110614757578080602001905181019061474d9190615a35565b9094509250614777565b6020815110614777578080602001905181019061477491906158e0565b93505b505094509492505050565b600080516020615bd68339815191526001600160a01b0384166147be57818160020160008282546147b391906156e6565b909155506148309050565b6001600160a01b038416600090815260208290526040902054828110156148115760405163391434e360e21b81526001600160a01b0386166004820152602481018290526044810184905260640161171c565b6001600160a01b03851660009081526020839052604090209083900390555b6001600160a01b03831661484e57600281018054839003905561486d565b6001600160a01b03831660009081526020829052604090208054830190555b826001600160a01b0316846001600160a01b03167fddf252ad1be2c89b69c2b068fc378daa952ba7f163c4a11628f55a4df523b3ef84604051613af391815260200190565b60007f8b73c3c69bb8fe3d512ecc4cf759cc79239f7b179b0ffacaa9a75d522b39400f6148dd61508d565b6148e56150f7565b60408051602081019490945283019190915260608201524660808201523060a082015260c00160405160208183030381529060405280519060200120905090565b6060828260405160200161493b929190615a6a565b604051602081830303815290604052905092915050565b7ff0c57e16840df040f15088dc2f81fe391c3923bec73e23a9662efc9c229c6a0054600160401b900460ff166116e257604051631afcd79f60e31b815260040160405180910390fd5b6149a3614952565b600080516020615bd68339815191527f52c63247e1f47db19d5ce0460030c497f067ca4cebf71ba98eeadabe20bace036149dd8482615adf565b50600481016137c38382615adf565b6149f4614952565b600080516020615c168339815191527fa16a46d94261c7517cc8ff89f61c0ce93598e3c849801011dee649a6a557d102614a2e8482615adf565b5060038101614a3d8382615adf565b5060008082556001909101555050565b614a55614952565b6001600160a01b03811661172557604051631e4fbdf760e01b81526000600482015260240161171c565b614a87614952565b600080516020615c36833981519152805460ff19169055565b613b01614952565b614ab0614952565b61172e81613b7f565b6000614ace6001600160a01b0384168361513b565b90508051600014158015614af3575080806020019051810190614af191906158e0565b155b1561353d57604051635274afe760e01b81526001600160a01b038416600482015260240161171c565b604080516001600160a01b038416602482015260448082018490528251808303909101815260649091019091526020810180516001600160e01b031663095ea7b360e01b179052614b6d8482615149565b6137c3576040516001600160a01b03848116602483015260006044830152614ba291869182169063095ea7b3906064016139a5565b6137c38482614ab9565b6001600160a01b038216614bd65760405163ec442f0560e01b81526000600482015260240161171c565b6117b460008383614782565b7f9016d09d72d40fdae2fd8ceac6b6234c7706214fd39c1cd1e609a0528c19930080546001600160a01b031981166001600160a01b03848116918217845560405192169182907f8be0079c531659141344cd1fd0a4f28419497f9722a3daafe3b4186f6b6457e090600090a3505050565b6001600160a01b038216614c7d57604051634b637e8f60e11b81526000600482015260240161171c565b6117b482600083614782565b6040516001600160a01b0383811660248301526044820183905261353d91859182169063a9059cbb906064016139a5565b6006546040516303d1689d60e11b81526004810185905260009182916001600160a01b03909116906307a2d13a90602401602060405180830381865afa158015614d08573d6000803e3d6000fd5b505050506040513d601f19601f82011682018060405250810190614d2c9190615653565b600654604051632d182be560e21b815260048101839052306024820181905260448201529192506001600160a01b03169063b460af94906064016020604051808303816000875af1158015614d85573d6000803e3d6000fd5b505050506040513d601f19601f82011682018060405250810190614da99190615653565b506005546040516370a0823160e01b81523060048201526000916001600160a01b03169063ba08765290879083906370a0823190602401602060405180830381865afa158015614dfd573d6000803e3d6000fd5b505050506040513d601f19601f82011682018060405250810190614e219190615653565b614e2b9190615881565b6040516001600160e01b031960e084901b1681526004810191909152306024820181905260448201526064016020604051808303816000875af1158015614e76573d6000803e3d6000fd5b505050506040513d601f19601f82011682018060405250810190614e9a9190615653565b905080614ea783896156e6565b614eb191906156e6565b600454909350614ecb906001600160a01b03168585614c89565b5050949350505050565b600080807f7fffffffffffffffffffffffffffffff5d576e7357a4501ddfe92f46681b20a0841115614f105750600091506003905082614f9a565b604080516000808252602082018084528a905260ff891692820192909252606081018790526080810186905260019060a0016020604051602081039080840390855afa158015614f64573d6000803e3d6000fd5b5050604051601f1901519150506001600160a01b038116614f9057506000925060019150829050614f9a565b9250600091508190505b9450945094915050565b6000826003811115614fb857614fb8615b9f565b03614fc1575050565b6001826003811115614fd557614fd5615b9f565b03614ff35760405163f645eedf60e01b815260040160405180910390fd5b600282600381111561500757615007615b9f565b036150285760405163fce698f760e01b81526004810182905260240161171c565b600382600381111561503c5761503c615b9f565b036117b4576040516335e2f38360e21b81526004810182905260240161171c565b600080516020615c368339815191525460ff166116e257604051638dfc202b60e01b815260040160405180910390fd5b6000600080516020615c16833981519152816150a7613fe9565b8051909150156150bf57805160209091012092915050565b815480156150ce579392505050565b7fc5d2460186f7233c927e7db2dcc703c0e500b653ca82273b7bfad8045d85a470935050505090565b6000600080516020615c1683398151915281615111614028565b80519091501561512957805160209091012092915050565b600182015480156150ce579392505050565b6060610c0a838360006151f1565b6000806000846001600160a01b0316846040516151669190615919565b6000604051808303816000865af19150503d80600081146151a3576040519150601f19603f3d011682016040523d82523d6000602084013e6151a8565b606091505b50915091508180156151d25750805115806151d25750808060200190518101906151d291906158e0565b80156151e857506000856001600160a01b03163b115b95945050505050565b6060814710156152165760405163cd78605960e01b815230600482015260240161171c565b600080856001600160a01b031684866040516152329190615919565b60006040518083038185875af1925050503d806000811461526f576040519150601f19603f3d011682016040523d82523d6000602084013e615274565b606091505b509150915061528486838361528e565b9695505050505050565b6060826152a35761529e826152ea565b610c0a565b81511580156152ba57506001600160a01b0384163b155b156152e357604051639996b31560e01b81526001600160a01b038516600482015260240161171c565b5080610c0a565b8051156152fa5780518082602001fd5b604051630a12f52160e11b815260040160405180910390fd5b60005b8381101561532e578181015183820152602001615316565b50506000910152565b6000815180845261534f816020860160208601615313565b601f01601f19169290920160200192915050565b602081526000610c0a6020830184615337565b60006020828403121561538857600080fd5b5035919050565b6001600160a01b038116811461172e57600080fd5b600080604083850312156153b757600080fd5b82356153c28161538f565b946020939093013593505050565b6000806000606084860312156153e557600080fd5b83356153f08161538f565b925060208401356154008161538f565b929592945050506040919091013590565b60008060006060848603121561542657600080fd5b8335925060208401356154008161538f565b60006020828403121561544a57600080fd5b8135610c0a8161538f565b6000806040838503121561546857600080fd5b82356154738161538f565b915060208301356154838161538f565b809150509250929050565b600080604083850312156154a157600080fd5b8235915060208301356154838161538f565b60ff60f81b881681526000602060e0818401526154d360e084018a615337565b83810360408501526154e5818a615337565b606085018990526001600160a01b038816608086015260a0850187905284810360c0860152855180825283870192509083019060005b818110156155375783518352928401929184019160010161551b565b50909c9b505050505050505050505050565b6000806000806080858703121561555f57600080fd5b8435935060208501356155718161538f565b925060408501356155818161538f565b9396929550929360600135925050565b6000806000606084860312156155a657600080fd5b8335925060208401356155b88161538f565b915060408401356155c88161538f565b809150509250925092565b60ff8116811461172e57600080fd5b600080600080600080600060e0888a0312156155fd57600080fd5b87356156088161538f565b965060208801356156188161538f565b955060408801359450606088013593506080880135615636816155d3565b9699959850939692959460a0840135945060c09093013592915050565b60006020828403121561566557600080fd5b5051919050565b600181811c9082168061568057607f821691505b602082108103610b3957634e487b7160e01b600052602260045260246000fd5b634e487b7160e01b600052601160045260246000fd5b80820260008212600160ff1b841416156156d2576156d26156a0565b81810583148215176108d5576108d56156a0565b808201808211156108d5576108d56156a0565b8181036000831280158383131683831282161715611696576116966156a0565b634e487b7160e01b600052601260045260246000fd5b60008261574c57634e487b7160e01b600052601260045260246000fd5b600160ff1b821460001984141615615766576157666156a0565b500590565b60006001820161577d5761577d6156a0565b5060010190565b60006020828403121561579657600080fd5b8151610c0a816155d3565b6000602082840312156157b357600080fd5b8151610c0a8161538f565b634e487b7160e01b600052604160045260246000fd5b6000602082840312156157e657600080fd5b815167ffffffffffffffff808211156157fe57600080fd5b818401915084601f83011261581257600080fd5b815181811115615824576158246157be565b604051601f8201601f19908116603f0116810190838211818310171561584c5761584c6157be565b8160405282815287602084870101111561586557600080fd5b615876836020830160208801615313565b979650505050505050565b818103818111156108d5576108d56156a0565b8060005b60028110156137c3578151845260209384019390910190600101615898565b82815260608101610c0a6020830184615894565b805180151581146158db57600080fd5b919050565b6000602082840312156158f257600080fd5b610c0a826158cb565b606081016159098285615894565b60ff831660408301529392505050565b6000825161592b818460208701615313565b9190910192915050565b6000808585111561594557600080fd5b8386111561595257600080fd5b5050820193919092039150565b6001600160e01b03198135818116916004851015611a5b5760049490940360031b84901b1690921692915050565b6001600160a01b03841681526040602082018190528101829052818360608301376000818301606090810191909152601f909201601f1916010192915050565b6000806000606084860312156159e257600080fd5b83519250602084015191506159f9604085016158cb565b90509250925092565b958652602086019490945260408501929092526060840152151560808301526001600160a01b031660a082015260c00190565b60008060408385031215615a4857600080fd5b615a51836158cb565b9150602083015163ffffffff8116811461548357600080fd5b60008351615a7c818460208801615313565b835190830190615a90818360208801615313565b01949350505050565b601f82111561353d57600081815260208120601f850160051c81016020861015615ac05750805b601f850160051c820191505b8181101561375b57828155600101615acc565b815167ffffffffffffffff811115615af957615af96157be565b615b0d81615b07845461566c565b84615a99565b602080601f831160018114615b425760008415615b2a5750858301515b600019600386901b1c1916600185901b17855561375b565b600085815260208120601f198616915b82811015615b7157888601518255948401946001909101908401615b52565b5085821015615b8f5787850151600019600388901b60f8161c191681555b5050505050600190811b01905550565b634e487b7160e01b600052602160045260246000fdfef3177357ab46d8af007ab3fdb9af81da189e1068fefdc0073dca88a2cab40a0052c63247e1f47db19d5ce0460030c497f067ca4cebf71ba98eeadabe20bace0052c63247e1f47db19d5ce0460030c497f067ca4cebf71ba98eeadabe20bace02a16a46d94261c7517cc8ff89f61c0ce93598e3c849801011dee649a6a557d100cd5ed15c6e187e77e9aee88184c21f4f2182ab5827cb3b7e07fbedcd63f033009b779b17422d0df92223018b32b4d1fa46e071723d6817e2486d003becc55f00a264697066735822122063de3ac47a422fab56aa69291aa82b4138026da516a17681aeb30ae720b628c064736f6c63430008140033",
    "linkReferences": {
      "src/util/lib/LPVaultUtil.sol": {
        "LPVaultUtil": [
          {
            "start": 2404,
            "length": 20
          },
          {
            "start": 10284,
            "length": 20
          },
          {
            "start": 12461,
            "length": 20
          },
          {
            "start": 13944,
            "length": 20
          },
          {
            "start": 16250,
            "length": 20
          },
          {
            "start": 17046,
            "length": 20
          }
        ]
      }
    }
  },
  "methodIdentifiers": {
    "DOMAIN_SEPARATOR()": "3644e515",
    "acceptOwnership()": "79ba5097",
    "allowance(address,address)": "dd62ed3e",
    "approve(address,uint256)": "095ea7b3",
    "asset()": "38d52e0f",
    "authority()": "bf7e214f",
    "balanceOf(address)": "70a08231",
    "claimFees()": "d294f093",
    "convertToAssets(uint256)": "07a2d13a",
    "convertToShares(uint256)": "c6e6f592",
    "decimals()": "313ce567",
    "deposit(uint256,address)": "6e553f65",
    "deposit(uint256,address,uint256)": "bc157ac1",
    "depositWithIBT(uint256,address)": "bafc0f14",
    "depositWithIBT(uint256,address,uint256)": "277a04d6",
    "eip712Domain()": "84b0196e",
    "eject(address,address)": "836850df",
    "freezeRollover()": "0faea4db",
    "getCurvePool()": "1f3f915e",
    "getPT()": "2f41943c",
    "getTotalFeesInIBT()": "4f5867a4",
    "initialize(address,address)": "485cc955",
    "isConsumingScheduledOp()": "8fb36037",
    "maxDeposit(address)": "402d267d",
    "maxMint(address)": "c63d75b6",
    "maxRedeem(address)": "d905777e",
    "maxWithdraw(address)": "ce96cb77",
    "mint(uint256,address)": "94bf804d",
    "mint(uint256,address,uint256)": "836a1040",
    "name()": "06fdde03",
    "nonces(address)": "7ecebe00",
    "owner()": "8da5cb5b",
    "pause()": "8456cb59",
    "paused()": "5c975abb",
    "pendingOwner()": "e30c3978",
    "permit(address,address,uint256,uint256,uint8,bytes32,bytes32)": "d505accf",
    "previewDeposit(uint256)": "ef8b30f7",
    "previewMint(uint256)": "b3d7f6b9",
    "previewRedeem(uint256)": "4cdad506",
    "previewWithdraw(uint256)": "0a28a477",
    "redeem(uint256,address,address)": "ba087652",
    "redeem(uint256,address,address,uint256)": "9f40a7b3",
    "renounceOwnership()": "715018a6",
    "rollover()": "b056b49a",
    "setAuthority(address)": "7a9e5e4b",
    "setRolloverPoolPrice(uint256)": "aa7e7a7a",
    "symbol()": "95d89b41",
    "totalAssets()": "01e1d114",
    "totalSupply()": "18160ddd",
    "transfer(address,uint256)": "a9059cbb",
    "transferFrom(address,address,uint256)": "23b872dd",
    "transferOwnership(address)": "f2fde38b",
    "unPause()": "f7b188a5",
    "unfreezeRollover()": "13d32350",
    "withdraw(uint256,address,address)": "b460af94",
    "withdraw(uint256,address,address,uint256)": "a318c1a4"
  },
  "id": 128
}