{
  "abi": [
    {
      "inputs": [],
      "stateMutability": "nonpayable",
      "type": "constructor"
    },
    {
      "inputs": [],
      "name": "CouldNotFetchExpectedLPAmount",
      "type": "error"
    },
    {
      "inputs": [],
      "name": "DepositStrategyFailed",
      "type": "error"
    },
    {
      "inputs": [],
      "name": "FailedToConverge",
      "type": "error"
    },
    {
      "inputs": [],
      "name": "FeeGreaterThanMaxValue",
      "type": "error"
    },
    {
      "inputs": [],
      "name": "RegistryAddressNotSet",
      "type": "error"
    },
    {
      "inputs": [],
      "name": "TokenFactoryAddressNotSet",
      "type": "error"
    },
    {
      "inputs": [],
      "name": "UnsafeValueForDeposits",
      "type": "error"
    },
    {
      "inputs": [],
      "name": "UnsafeValueForX0",
      "type": "error"
    },
    {
      "inputs": [],
      "name": "UnsafeValueForX1",
      "type": "error"
    },
    {
      "inputs": [],
      "name": "ZapAddressNotSet",
      "type": "error"
    },
    {
      "anonymous": false,
      "inputs": [
        {
          "indexed": true,
          "internalType": "address",
          "name": "owner",
          "type": "address"
        },
        {
          "indexed": true,
          "internalType": "address",
          "name": "spender",
          "type": "address"
        },
        {
          "indexed": false,
          "internalType": "uint256",
          "name": "value",
          "type": "uint256"
        }
      ],
      "name": "Approval",
      "type": "event"
    },
    {
      "anonymous": false,
      "inputs": [
        {
          "indexed": true,
          "internalType": "address",
          "name": "sender",
          "type": "address"
        },
        {
          "indexed": true,
          "internalType": "address",
          "name": "owner",
          "type": "address"
        },
        {
          "indexed": false,
          "internalType": "uint256",
          "name": "assets",
          "type": "uint256"
        },
        {
          "indexed": false,
          "internalType": "uint256",
          "name": "shares",
          "type": "uint256"
        }
      ],
      "name": "Deposit",
      "type": "event"
    },
    {
      "anonymous": false,
      "inputs": [
        {
          "indexed": true,
          "internalType": "uint256",
          "name": "fees",
          "type": "uint256"
        }
      ],
      "name": "FeeUpdated",
      "type": "event"
    },
    {
      "anonymous": false,
      "inputs": [
        {
          "indexed": false,
          "internalType": "uint8",
          "name": "version",
          "type": "uint8"
        }
      ],
      "name": "Initialized",
      "type": "event"
    },
    {
      "anonymous": false,
      "inputs": [
        {
          "indexed": true,
          "internalType": "uint256",
          "name": "yieldInUnderlying",
          "type": "uint256"
        },
        {
          "indexed": true,
          "internalType": "uint256",
          "name": "lptAmount",
          "type": "uint256"
        }
      ],
      "name": "InterestCompounded",
      "type": "event"
    },
    {
      "anonymous": false,
      "inputs": [
        {
          "indexed": true,
          "internalType": "address",
          "name": "previousOwner",
          "type": "address"
        },
        {
          "indexed": true,
          "internalType": "address",
          "name": "newOwner",
          "type": "address"
        }
      ],
      "name": "OwnershipTransferStarted",
      "type": "event"
    },
    {
      "anonymous": false,
      "inputs": [
        {
          "indexed": true,
          "internalType": "address",
          "name": "previousOwner",
          "type": "address"
        },
        {
          "indexed": true,
          "internalType": "address",
          "name": "newOwner",
          "type": "address"
        }
      ],
      "name": "OwnershipTransferred",
      "type": "event"
    },
    {
      "anonymous": false,
      "inputs": [
        {
          "indexed": false,
          "internalType": "address",
          "name": "account",
          "type": "address"
        }
      ],
      "name": "Paused",
      "type": "event"
    },
    {
      "anonymous": false,
      "inputs": [
        {
          "indexed": false,
          "internalType": "uint256",
          "name": "_newIndex",
          "type": "uint256"
        }
      ],
      "name": "PoolIndexUpdated",
      "type": "event"
    },
    {
      "anonymous": false,
      "inputs": [
        {
          "indexed": true,
          "internalType": "address",
          "name": "from",
          "type": "address"
        },
        {
          "indexed": true,
          "internalType": "address",
          "name": "to",
          "type": "address"
        },
        {
          "indexed": false,
          "internalType": "uint256",
          "name": "value",
          "type": "uint256"
        }
      ],
      "name": "Transfer",
      "type": "event"
    },
    {
      "anonymous": false,
      "inputs": [
        {
          "indexed": false,
          "internalType": "address",
          "name": "account",
          "type": "address"
        }
      ],
      "name": "Unpaused",
      "type": "event"
    },
    {
      "anonymous": false,
      "inputs": [
        {
          "indexed": true,
          "internalType": "address",
          "name": "sender",
          "type": "address"
        },
        {
          "indexed": true,
          "internalType": "address",
          "name": "receiver",
          "type": "address"
        },
        {
          "indexed": true,
          "internalType": "address",
          "name": "owner",
          "type": "address"
        },
        {
          "indexed": false,
          "internalType": "uint256",
          "name": "assets",
          "type": "uint256"
        },
        {
          "indexed": false,
          "internalType": "uint256",
          "name": "shares",
          "type": "uint256"
        }
      ],
      "name": "Withdraw",
      "type": "event"
    },
    {
      "inputs": [],
      "name": "DOMAIN_SEPARATOR",
      "outputs": [
        {
          "internalType": "bytes32",
          "name": "",
          "type": "bytes32"
        }
      ],
      "stateMutability": "view",
      "type": "function"
    },
    {
      "inputs": [],
      "name": "acceptOwnership",
      "outputs": [],
      "stateMutability": "nonpayable",
      "type": "function"
    },
    {
      "inputs": [
        {
          "internalType": "address",
          "name": "owner",
          "type": "address"
        },
        {
          "internalType": "address",
          "name": "spender",
          "type": "address"
        }
      ],
      "name": "allowance",
      "outputs": [
        {
          "internalType": "uint256",
          "name": "",
          "type": "uint256"
        }
      ],
      "stateMutability": "view",
      "type": "function"
    },
    {
      "inputs": [
        {
          "internalType": "address",
          "name": "spender",
          "type": "address"
        },
        {
          "internalType": "uint256",
          "name": "amount",
          "type": "uint256"
        }
      ],
      "name": "approve",
      "outputs": [
        {
          "internalType": "bool",
          "name": "",
          "type": "bool"
        }
      ],
      "stateMutability": "nonpayable",
      "type": "function"
    },
    {
      "inputs": [],
      "name": "asset",
      "outputs": [
        {
          "internalType": "address",
          "name": "",
          "type": "address"
        }
      ],
      "stateMutability": "view",
      "type": "function"
    },
    {
      "inputs": [
        {
          "internalType": "address",
          "name": "account",
          "type": "address"
        }
      ],
      "name": "balanceOf",
      "outputs": [
        {
          "internalType": "uint256",
          "name": "",
          "type": "uint256"
        }
      ],
      "stateMutability": "view",
      "type": "function"
    },
    {
      "inputs": [],
      "name": "compoundInterest",
      "outputs": [
        {
          "internalType": "uint256",
          "name": "lpAmount",
          "type": "uint256"
        }
      ],
      "stateMutability": "nonpayable",
      "type": "function"
    },
    {
      "inputs": [
        {
          "internalType": "uint256",
          "name": "shares",
          "type": "uint256"
        }
      ],
      "name": "convertToAssets",
      "outputs": [
        {
          "internalType": "uint256",
          "name": "",
          "type": "uint256"
        }
      ],
      "stateMutability": "view",
      "type": "function"
    },
    {
      "inputs": [
        {
          "internalType": "uint256",
          "name": "ibtAmount",
          "type": "uint256"
        }
      ],
      "name": "convertToAssetsOfIBT",
      "outputs": [
        {
          "internalType": "uint256",
          "name": "",
          "type": "uint256"
        }
      ],
      "stateMutability": "view",
      "type": "function"
    },
    {
      "inputs": [
        {
          "internalType": "uint256",
          "name": "assets",
          "type": "uint256"
        }
      ],
      "name": "convertToShares",
      "outputs": [
        {
          "internalType": "uint256",
          "name": "",
          "type": "uint256"
        }
      ],
      "stateMutability": "view",
      "type": "function"
    },
    {
      "inputs": [],
      "name": "decimals",
      "outputs": [
        {
          "internalType": "uint8",
          "name": "",
          "type": "uint8"
        }
      ],
      "stateMutability": "view",
      "type": "function"
    },
    {
      "inputs": [
        {
          "internalType": "address",
          "name": "spender",
          "type": "address"
        },
        {
          "internalType": "uint256",
          "name": "subtractedValue",
          "type": "uint256"
        }
      ],
      "name": "decreaseAllowance",
      "outputs": [
        {
          "internalType": "bool",
          "name": "",
          "type": "bool"
        }
      ],
      "stateMutability": "nonpayable",
      "type": "function"
    },
    {
      "inputs": [
        {
          "internalType": "uint256",
          "name": "assets",
          "type": "uint256"
        },
        {
          "internalType": "address",
          "name": "receiver",
          "type": "address"
        }
      ],
      "name": "deposit",
      "outputs": [
        {
          "internalType": "uint256",
          "name": "shares",
          "type": "uint256"
        }
      ],
      "stateMutability": "nonpayable",
      "type": "function"
    },
    {
      "inputs": [
        {
          "internalType": "uint256",
          "name": "ibtAmount",
          "type": "uint256"
        },
        {
          "internalType": "address",
          "name": "receiver",
          "type": "address"
        }
      ],
      "name": "depositWithIBT",
      "outputs": [
        {
          "internalType": "uint256",
          "name": "shares",
          "type": "uint256"
        }
      ],
      "stateMutability": "nonpayable",
      "type": "function"
    },
    {
      "inputs": [],
      "name": "gePerformanceFee",
      "outputs": [
        {
          "internalType": "uint256",
          "name": "",
          "type": "uint256"
        }
      ],
      "stateMutability": "view",
      "type": "function"
    },
    {
      "inputs": [
        {
          "internalType": "address",
          "name": "spender",
          "type": "address"
        },
        {
          "internalType": "uint256",
          "name": "addedValue",
          "type": "uint256"
        }
      ],
      "name": "increaseAllowance",
      "outputs": [
        {
          "internalType": "bool",
          "name": "",
          "type": "bool"
        }
      ],
      "stateMutability": "nonpayable",
      "type": "function"
    },
    {
      "inputs": [
        {
          "internalType": "string",
          "name": "_name",
          "type": "string"
        },
        {
          "internalType": "string",
          "name": "_symbol",
          "type": "string"
        },
        {
          "internalType": "uint256",
          "name": "_poolIndex",
          "type": "uint256"
        },
        {
          "internalType": "address",
          "name": "_principalToken",
          "type": "address"
        },
        {
          "internalType": "uint256",
          "name": "_performanceFee",
          "type": "uint256"
        }
      ],
      "name": "initialize",
      "outputs": [],
      "stateMutability": "nonpayable",
      "type": "function"
    },
    {
      "inputs": [
        {
          "internalType": "address",
          "name": "",
          "type": "address"
        }
      ],
      "name": "maxDeposit",
      "outputs": [
        {
          "internalType": "uint256",
          "name": "",
          "type": "uint256"
        }
      ],
      "stateMutability": "pure",
      "type": "function"
    },
    {
      "inputs": [
        {
          "internalType": "address",
          "name": "",
          "type": "address"
        }
      ],
      "name": "maxMint",
      "outputs": [
        {
          "internalType": "uint256",
          "name": "",
          "type": "uint256"
        }
      ],
      "stateMutability": "view",
      "type": "function"
    },
    {
      "inputs": [
        {
          "internalType": "address",
          "name": "owner",
          "type": "address"
        }
      ],
      "name": "maxRedeem",
      "outputs": [
        {
          "internalType": "uint256",
          "name": "",
          "type": "uint256"
        }
      ],
      "stateMutability": "view",
      "type": "function"
    },
    {
      "inputs": [
        {
          "internalType": "address",
          "name": "owner",
          "type": "address"
        }
      ],
      "name": "maxWithdraw",
      "outputs": [
        {
          "internalType": "uint256",
          "name": "",
          "type": "uint256"
        }
      ],
      "stateMutability": "view",
      "type": "function"
    },
    {
      "inputs": [
        {
          "internalType": "uint256",
          "name": "shares",
          "type": "uint256"
        },
        {
          "internalType": "address",
          "name": "receiver",
          "type": "address"
        }
      ],
      "name": "mint",
      "outputs": [
        {
          "internalType": "uint256",
          "name": "assets",
          "type": "uint256"
        }
      ],
      "stateMutability": "nonpayable",
      "type": "function"
    },
    {
      "inputs": [],
      "name": "name",
      "outputs": [
        {
          "internalType": "string",
          "name": "",
          "type": "string"
        }
      ],
      "stateMutability": "view",
      "type": "function"
    },
    {
      "inputs": [
        {
          "internalType": "address",
          "name": "owner",
          "type": "address"
        }
      ],
      "name": "nonces",
      "outputs": [
        {
          "internalType": "uint256",
          "name": "",
          "type": "uint256"
        }
      ],
      "stateMutability": "view",
      "type": "function"
    },
    {
      "inputs": [],
      "name": "owner",
      "outputs": [
        {
          "internalType": "address",
          "name": "",
          "type": "address"
        }
      ],
      "stateMutability": "view",
      "type": "function"
    },
    {
      "inputs": [],
      "name": "pause",
      "outputs": [],
      "stateMutability": "nonpayable",
      "type": "function"
    },
    {
      "inputs": [],
      "name": "paused",
      "outputs": [
        {
          "internalType": "bool",
          "name": "",
          "type": "bool"
        }
      ],
      "stateMutability": "view",
      "type": "function"
    },
    {
      "inputs": [],
      "name": "pendingOwner",
      "outputs": [
        {
          "internalType": "address",
          "name": "",
          "type": "address"
        }
      ],
      "stateMutability": "view",
      "type": "function"
    },
    {
      "inputs": [
        {
          "internalType": "address",
          "name": "owner",
          "type": "address"
        },
        {
          "internalType": "address",
          "name": "spender",
          "type": "address"
        },
        {
          "internalType": "uint256",
          "name": "value",
          "type": "uint256"
        },
        {
          "internalType": "uint256",
          "name": "deadline",
          "type": "uint256"
        },
        {
          "internalType": "uint8",
          "name": "v",
          "type": "uint8"
        },
        {
          "internalType": "bytes32",
          "name": "r",
          "type": "bytes32"
        },
        {
          "internalType": "bytes32",
          "name": "s",
          "type": "bytes32"
        }
      ],
      "name": "permit",
      "outputs": [],
      "stateMutability": "nonpayable",
      "type": "function"
    },
    {
      "inputs": [
        {
          "internalType": "uint256",
          "name": "assets",
          "type": "uint256"
        }
      ],
      "name": "previewDeposit",
      "outputs": [
        {
          "internalType": "uint256",
          "name": "",
          "type": "uint256"
        }
      ],
      "stateMutability": "view",
      "type": "function"
    },
    {
      "inputs": [
        {
          "internalType": "uint256",
          "name": "ibtAmount",
          "type": "uint256"
        }
      ],
      "name": "previewDepositWithIBT",
      "outputs": [
        {
          "internalType": "uint256",
          "name": "",
          "type": "uint256"
        }
      ],
      "stateMutability": "view",
      "type": "function"
    },
    {
      "inputs": [
        {
          "internalType": "uint256",
          "name": "shares",
          "type": "uint256"
        }
      ],
      "name": "previewMint",
      "outputs": [
        {
          "internalType": "uint256",
          "name": "",
          "type": "uint256"
        }
      ],
      "stateMutability": "view",
      "type": "function"
    },
    {
      "inputs": [
        {
          "internalType": "uint256",
          "name": "shares",
          "type": "uint256"
        }
      ],
      "name": "previewRedeem",
      "outputs": [
        {
          "internalType": "uint256",
          "name": "",
          "type": "uint256"
        }
      ],
      "stateMutability": "view",
      "type": "function"
    },
    {
      "inputs": [
        {
          "internalType": "uint256",
          "name": "assets",
          "type": "uint256"
        }
      ],
      "name": "previewWithdraw",
      "outputs": [
        {
          "internalType": "uint256",
          "name": "",
          "type": "uint256"
        }
      ],
      "stateMutability": "view",
      "type": "function"
    },
    {
      "inputs": [
        {
          "internalType": "uint256",
          "name": "shares",
          "type": "uint256"
        },
        {
          "internalType": "address",
          "name": "receiver",
          "type": "address"
        },
        {
          "internalType": "address",
          "name": "owner",
          "type": "address"
        }
      ],
      "name": "redeem",
      "outputs": [
        {
          "internalType": "uint256",
          "name": "assets",
          "type": "uint256"
        }
      ],
      "stateMutability": "nonpayable",
      "type": "function"
    },
    {
      "inputs": [],
      "name": "renounceOwnership",
      "outputs": [],
      "stateMutability": "nonpayable",
      "type": "function"
    },
    {
      "inputs": [
        {
          "internalType": "uint256",
          "name": "_newIndex",
          "type": "uint256"
        }
      ],
      "name": "setPoolIndex",
      "outputs": [],
      "stateMutability": "nonpayable",
      "type": "function"
    },
    {
      "inputs": [],
      "name": "symbol",
      "outputs": [
        {
          "internalType": "string",
          "name": "",
          "type": "string"
        }
      ],
      "stateMutability": "view",
      "type": "function"
    },
    {
      "inputs": [],
      "name": "totalAssets",
      "outputs": [
        {
          "internalType": "uint256",
          "name": "",
          "type": "uint256"
        }
      ],
      "stateMutability": "view",
      "type": "function"
    },
    {
      "inputs": [],
      "name": "totalSupply",
      "outputs": [
        {
          "internalType": "uint256",
          "name": "",
          "type": "uint256"
        }
      ],
      "stateMutability": "view",
      "type": "function"
    },
    {
      "inputs": [
        {
          "internalType": "address",
          "name": "to",
          "type": "address"
        },
        {
          "internalType": "uint256",
          "name": "amount",
          "type": "uint256"
        }
      ],
      "name": "transfer",
      "outputs": [
        {
          "internalType": "bool",
          "name": "",
          "type": "bool"
        }
      ],
      "stateMutability": "nonpayable",
      "type": "function"
    },
    {
      "inputs": [
        {
          "internalType": "address",
          "name": "from",
          "type": "address"
        },
        {
          "internalType": "address",
          "name": "to",
          "type": "address"
        },
        {
          "internalType": "uint256",
          "name": "amount",
          "type": "uint256"
        }
      ],
      "name": "transferFrom",
      "outputs": [
        {
          "internalType": "bool",
          "name": "",
          "type": "bool"
        }
      ],
      "stateMutability": "nonpayable",
      "type": "function"
    },
    {
      "inputs": [
        {
          "internalType": "address",
          "name": "newOwner",
          "type": "address"
        }
      ],
      "name": "transferOwnership",
      "outputs": [],
      "stateMutability": "nonpayable",
      "type": "function"
    },
    {
      "inputs": [],
      "name": "unPause",
      "outputs": [],
      "stateMutability": "nonpayable",
      "type": "function"
    },
    {
      "inputs": [
        {
          "internalType": "uint256",
          "name": "newFees",
          "type": "uint256"
        }
      ],
      "name": "updateFees",
      "outputs": [],
      "stateMutability": "nonpayable",
      "type": "function"
    },
    {
      "inputs": [
        {
          "internalType": "uint256",
          "name": "assets",
          "type": "uint256"
        },
        {
          "internalType": "address",
          "name": "receiver",
          "type": "address"
        },
        {
          "internalType": "address",
          "name": "owner",
          "type": "address"
        }
      ],
      "name": "withdraw",
      "outputs": [
        {
          "internalType": "uint256",
          "name": "shares",
          "type": "uint256"
        }
      ],
      "stateMutability": "nonpayable",
      "type": "function"
    }
  ],
  "bytecode": {
    "object": "0x60806040523480156200001157600080fd5b506200001c62000022565b620000e3565b600054610100900460ff16156200008f5760405162461bcd60e51b815260206004820152602760248201527f496e697469616c697a61626c653a20636f6e747261637420697320696e697469604482015266616c697a696e6760c81b606482015260840160405180910390fd5b60005460ff90811614620000e1576000805460ff191660ff9081179091556040519081527f7f26b83ff96e1f2b6a682f133852f6798a09c465da95921460cefb38474024989060200160405180910390a15b565b613dde80620000f36000396000f3fe608060405234801561001057600080fd5b506004361061028a5760003560e01c80638456cb591161015c578063c6e6f592116100ce578063e425e8b511610087578063e425e8b5146104fd578063ef8b30f714610505578063f2fde38b14610518578063f7b188a51461052b578063fb89830414610533578063fede02761461054657600080fd5b8063c6e6f592146102ba578063ce96cb77146104b8578063d505accf146104c6578063d905777e146104b8578063dd62ed3e146104d9578063e30c3978146104ec57600080fd5b8063a9059cbb11610120578063a9059cbb1461047b578063b3d7f6b9146102ee578063b460af941461048e578063ba0876521461048e578063bafc0f14146104a5578063c63d75b6146104b857600080fd5b80638456cb59146104315780638da5cb5b1461043957806394bf804d1461044a57806395d89b4114610460578063a457c2d71461046857600080fd5b806339509351116102005780636e553f65116101b95780636e553f65146103bf57806370a08231146103d2578063715018a6146103fb57806378dacee11461040357806379ba5097146104165780637ecebe001461041e57600080fd5b806339509351146103635780633ca7c82d14610376578063402d267d146103895780634cdad506146102ee578063524615621461039e5780635c975abb146103b357600080fd5b806318160ddd1161025257806318160ddd1461030257806323b872dd1461030a578063313ce5671461031d57806333cd7a801461032c5780633644e5151461033557806338d52e0f1461033d57600080fd5b806301e1d1141461028f57806306fdde03146102a557806307a2d13a146102ba578063095ea7b3146102cb5780630a28a477146102ee575b600080fd5b60005b6040519081526020015b60405180910390f35b6102ad610559565b60405161029c919061353d565b6102926102c8366004613570565b90565b6102de6102d936600461359e565b6105eb565b604051901515815260200161029c565b6102926102fc366004613570565b50600090565b603554610292565b6102de6103183660046135ca565b610605565b6040516012815260200161029c565b61019654610292565b61029261062b565b610197546001600160a01b03165b6040516001600160a01b03909116815260200161029c565b6102de61037136600461359e565b61063a565b610292610384366004613570565b61065c565b61029261039736600461360b565b5060001990565b6103b16103ac366004613570565b610667565b005b6101305460ff166102de565b6102926103cd366004613628565b6106ab565b6102926103e036600461360b565b6001600160a01b031660009081526033602052604090205490565b6103b1610797565b6103b1610411366004613570565b6107ab565b6103b1610810565b61029261042c36600461360b565b61088f565b6103b16108ad565b60cc546001600160a01b031661034b565b610292610458366004613628565b600092915050565b6102ad6108bd565b6102de61047636600461359e565b6108cc565b6102de61048936600461359e565b610952565b61029261049c366004613658565b60009392505050565b6102926104b3366004613628565b610960565b6102926102fc36600461360b565b6103b16104d43660046136a9565b610a5f565b6102926104e736600461371a565b610bc3565b60fe546001600160a01b031661034b565b610292610bee565b610292610513366004613570565b61114b565b6103b161052636600461360b565b611210565b6103b1611281565b610292610541366004613570565b611291565b6103b1610554366004613836565b61135c565b606060368054610568906138be565b80601f0160208091040260200160405190810160405280929190818152602001828054610594906138be565b80156105e15780601f106105b6576101008083540402835291602001916105e1565b820191906000526020600020905b8154815290600101906020018083116105c457829003601f168201915b5050505050905090565b6000336105f98185856118b3565b60019150505b92915050565b6000336106138582856119d7565b61061e858585611a51565b60019150505b9392505050565b6000610635611bfc565b905090565b6000336105f981858561064d8383610bc3565b6106579190613908565b6118b3565b60006105ff82611c77565b61066f611ce6565b6101948190556040518181527f76dd6491fa6d672bd26747a48657f494e25010650a259ec25d9d1fd98103e75f9060200160405180910390a150565b60006106b5611d40565b610197546106ce906001600160a01b0316333086611d9b565b61019754610199546106ed916001600160a01b03908116911685611e06565b6101995461019a5461019454610197546040516329f9f3f760e01b81526001600160a01b03948516946329f9f3f794610739949082169390928a9290911690600090309060040161391b565b6020604051808303816000875af1158015610758573d6000803e3d6000fd5b505050506040513d601f19601f8201168201806040525081019061077c9190613953565b5082905061078c33838584611eb8565b6105ff600161016255565b61079f611ce6565b6107a96000611f26565b565b6107b3611ce6565b670de0b6b3a76400008111156107dc576040516315118d7560e11b815260040160405180910390fd5b61019681905560405181907f8c4d35e54a3f2ef1134138fd8ea3daee6a3c89e10d2665996babdf70261e2c7690600090a250565b60fe5433906001600160a01b031681146108835760405162461bcd60e51b815260206004820152602960248201527f4f776e61626c6532537465703a2063616c6c6572206973206e6f7420746865206044820152683732bb9037bbb732b960b91b60648201526084015b60405180910390fd5b61088c81611f26565b50565b6001600160a01b0381166000908152609960205260408120546105ff565b6108b5611ce6565b6107a9611f3f565b606060378054610568906138be565b600033816108da8286610bc3565b90508381101561093a5760405162461bcd60e51b815260206004820152602560248201527f45524332303a2064656372656173656420616c6c6f77616e63652062656c6f77604482015264207a65726f60d81b606482015260840161087a565b61094782868684036118b3565b506001949350505050565b6000336105f9818585611a51565b600061096a611d40565b61019854610983906001600160a01b0316333086611d9b565b61019854610199546109a2916001600160a01b03908116911685611e06565b6101995461019a54610194546040516381f5f54760e01b81526001600160a01b039283166004820152602481019190915260448101869052600060648201523060848201529116906381f5f5479060a4016020604051808303816000875af1158015610a12573d6000803e3d6000fd5b505050506040513d601f19601f82011682018060405250810190610a369190613953565b506000610a4284611c77565b9050809150610a5333848385611eb8565b506105ff600161016255565b83421115610aaf5760405162461bcd60e51b815260206004820152601d60248201527f45524332305065726d69743a206578706972656420646561646c696e65000000604482015260640161087a565b60007f6e71edae12b1b97f4d1f60370fef10105fa2faae0126114a169c64845d6126c9888888610ade8c611f9a565b6040805160208101969096526001600160a01b0394851690860152929091166060840152608083015260a082015260c0810186905260e0016040516020818303038152906040528051906020012090506000610b3982611fc2565b90506000610b4982878787612010565b9050896001600160a01b0316816001600160a01b031614610bac5760405162461bcd60e51b815260206004820152601e60248201527f45524332305065726d69743a20696e76616c6964207369676e61747572650000604482015260640161087a565b610bb78a8a8a6118b3565b50505050505050505050565b6001600160a01b03918216600090815260346020908152604080832093909416825291909152205490565b6000610bf861203a565b61019a546040805163406cf22960e01b815290516000926001600160a01b03169163406cf229916004808301926020929190829003018187875af1158015610c44573d6000803e3d6000fd5b505050506040513d601f19601f82011682018060405250810190610c689190613953565b905080600003610c7a57600091505090565b61019a54604051632cd1b6c360e21b8152600481018390526000916001600160a01b03169063b346db0c90602401602060405180830381865afa158015610cc5573d6000803e3d6000fd5b505050506040513d601f19601f82011682018060405250810190610ce99190613953565b61019a5461019b5461019454604051632dadcf5160e11b81526001600160a01b039384166004820181905260248201929092529394509260009290911690635b5b9ea290604401600060405180830381865afa158015610d4d573d6000803e3d6000fd5b505050506040513d6000823e601f3d908101601f19168201604052610d75919081019061396c565b90506000610d8884836000015185612081565b61019a549091506000906001600160a01b0316633ca7c82d610daa8488613a2a565b6040518263ffffffff1660e01b8152600401610dc891815260200190565b602060405180830381865afa158015610de5573d6000803e3d6000fd5b505050506040513d601f19601f82011682018060405250810190610e099190613953565b61019a54604051632cd1b6c360e21b8152600481018390529192506001600160a01b031690633ca7c82d90829063b346db0c90602401602060405180830381865afa158015610e5c573d6000803e3d6000fd5b505050506040513d601f19601f82011682018060405250810190610e809190613953565b6040518263ffffffff1660e01b8152600401610e9e91815260200190565b602060405180830381865afa158015610ebb573d6000803e3d6000fd5b505050506040513d601f19601f82011682018060405250810190610edf9190613953565b61019a546040516363737ac960e11b8152600481018390529192506000916001600160a01b039091169063c6e6f59290602401602060405180830381865afa158015610f2f573d6000803e3d6000fd5b505050506040513d601f19601f82011682018060405250810190610f539190613953565b905060008085600001516001600160a01b0316638d8ea727604051806040016040528088815260200186815250604051602401610f909190613a3d565b6040516020818303038152906040529060e01b6020820180516001600160e01b038381831617835250505050604051610fc99190613a6e565b6000604051808303816000865af19150503d8060008114611006576040519150601f19603f3d011682016040523d82523d6000602084013e61100b565b606091505b50915091508161102e576040516317fe0d9160e31b815260040160405180910390fd5b6000818060200190518101906110449190613953565b6101975461019954919250611066916001600160a01b0391821691168c611e06565b61019960009054906101000a90046001600160a01b03166001600160a01b03166329f9f3f789610194548d61019760009054906101000a90046001600160a01b031686306040518763ffffffff1660e01b81526004016110cb9695949392919061391b565b6020604051808303816000875af11580156110ea573d6000803e3d6000fd5b505050506040513d601f19601f8201168201806040525081019061110e9190613953565b9a508a8a7f45b6c590b89e8cb17c4ed42dcd3379988971ceaf15fd6daae6a876716205fe2860405160405180910390a35050505050505050505090565b61019a546040805163204f83f960e01b815290516000926001600160a01b03169163204f83f99160048083019260209291908290030181865afa158015611196573d6000803e3d6000fd5b505050506040513d601f19601f820116820180604052508101906111ba9190613953565b4211156112025760405162461bcd60e51b8152602060048201526016602482015275131415985d5b1d0e8815985d5b1d08195e1c1a5c995960521b604482015260640161087a565b61120a61203a565b816105ff565b611218611ce6565b60fe80546001600160a01b0383166001600160a01b0319909116811790915561124960cc546001600160a01b031690565b6001600160a01b03167f38d16b8cac22d99fc7c124b9cd0de2d3fa1faef420bfe791d8c362d765e2270060405160405180910390a350565b611289611ce6565b6107a96123c0565b61019a546040805163204f83f960e01b815290516000926001600160a01b03169163204f83f99160048083019260209291908290030181865afa1580156112dc573d6000803e3d6000fd5b505050506040513d601f19601f820116820180604052508101906113009190613953565b4211156113485760405162461bcd60e51b8152602060048201526016602482015275131415985d5b1d0e8815985d5b1d08195e1c1a5c995960521b604482015260640161087a565b61135061203a565b6105ff6102c883611c77565b600054610100900460ff161580801561137c5750600054600160ff909116105b806113965750303b158015611396575060005460ff166001145b6113f95760405162461bcd60e51b815260206004820152602e60248201527f496e697469616c697a61626c653a20636f6e747261637420697320616c72656160448201526d191e481a5b9a5d1a585b1a5e995960921b606482015260840161087a565b6000805460ff19166001179055801561141c576000805461ff0019166101001790555b6001600160a01b0383166114865760405162461bcd60e51b815260206004820152602b60248201527f4c505661756c743a20707420636f6e74726163742063616e6e6f74206265207a60448201526a65726f206164647265737360a81b606482015260840161087a565b61149086866123fa565b6114998661242f565b6114a1612479565b6114a96124a8565b6114b16124d7565b826001600160a01b03166338d52e0f6040518163ffffffff1660e01b8152600401602060405180830381865afa1580156114ef573d6000803e3d6000fd5b505050506040513d601f19601f820116820180604052508101906115139190613a8a565b61019780546001600160a01b039283166001600160a01b03199182161790915561019486905561019a80549286169290911682179055604080516331913fa560e21b8152905163c644fe949160048082019260209290919082900301816000875af1158015611586573d6000803e3d6000fd5b505050506040513d601f19601f820116820180604052508101906115aa9190613a8a565b61019880546001600160a01b0319166001600160a01b0392831617905561019a5460408051631e43bc3d60e31b81529051600093929092169163f21de1e8916004808201926020929091908290030181865afa15801561160e573d6000803e3d6000fd5b505050506040513d601f19601f820116820180604052508101906116329190613a8a565b90506001600160a01b03811661165b57604051633fb99ccb60e11b815260040160405180910390fd5b6000816001600160a01b031663509414ad6040518163ffffffff1660e01b8152600401602060405180830381865afa15801561169b573d6000803e3d6000fd5b505050506040513d601f19601f820116820180604052508101906116bf9190613a8a565b90506001600160a01b0381166116e857604051632528646960e01b815260040160405180910390fd5b61019b80546001600160a01b0319166001600160a01b0383811691909117909155610197546040805163313ce56760e01b81529051919092169163313ce5679160048083019260209291908290030181865afa15801561174c573d6000803e3d6000fd5b505050506040513d601f19601f820116820180604052508101906117709190613aa7565b61177b90600a613ba8565b6101955561019a546040805163fefd6d4960e01b815290516000926001600160a01b03169163fefd6d499160048083019260209291908290030181865afa1580156117ca573d6000803e3d6000fd5b505050506040513d601f19601f820116820180604052508101906117ee9190613a8a565b90506001600160a01b038116611817576040516314e1f75760e11b815260040160405180910390fd5b61019980546001600160a01b0319166001600160a01b038316179055670de0b6b3a764000085111561185c576040516315118d7560e11b815260040160405180910390fd5b50505061019682905580156118ab576000805461ff0019169055604051600181527f7f26b83ff96e1f2b6a682f133852f6798a09c465da95921460cefb38474024989060200160405180910390a15b505050505050565b6001600160a01b0383166119155760405162461bcd60e51b8152602060048201526024808201527f45524332303a20617070726f76652066726f6d20746865207a65726f206164646044820152637265737360e01b606482015260840161087a565b6001600160a01b0382166119765760405162461bcd60e51b815260206004820152602260248201527f45524332303a20617070726f766520746f20746865207a65726f206164647265604482015261737360f01b606482015260840161087a565b6001600160a01b0383811660008181526034602090815260408083209487168084529482529182902085905590518481527f8c5be1e5ebec7d5bd14f71427d1e84f3dd0314c0f7b2291e5b200ac8c7c3b925910160405180910390a3505050565b60006119e38484610bc3565b90506000198114611a4b5781811015611a3e5760405162461bcd60e51b815260206004820152601d60248201527f45524332303a20696e73756666696369656e7420616c6c6f77616e6365000000604482015260640161087a565b611a4b84848484036118b3565b50505050565b6001600160a01b038316611ab55760405162461bcd60e51b815260206004820152602560248201527f45524332303a207472616e736665722066726f6d20746865207a65726f206164604482015264647265737360d81b606482015260840161087a565b6001600160a01b038216611b175760405162461bcd60e51b815260206004820152602360248201527f45524332303a207472616e7366657220746f20746865207a65726f206164647260448201526265737360e81b606482015260840161087a565b6001600160a01b03831660009081526033602052604090205481811015611b8f5760405162461bcd60e51b815260206004820152602660248201527f45524332303a207472616e7366657220616d6f756e7420657863656564732062604482015265616c616e636560d01b606482015260840161087a565b6001600160a01b0380851660008181526033602052604080822086860390559286168082529083902080548601905591517fddf252ad1be2c89b69c2b068fc378daa952ba7f163c4a11628f55a4df523b3ef90611bef9086815260200190565b60405180910390a3611a4b565b60006106357f8b73c3c69bb8fe3d512ecc4cf759cc79239f7b179b0ffacaa9a75d522b39400f611c2b60655490565b6066546040805160208101859052908101839052606081018290524660808201523060a082015260009060c0016040516020818303038152906040528051906020012090509392505050565b610198546040516303d1689d60e11b8152600481018390526000916001600160a01b0316906307a2d13a90602401602060405180830381865afa158015611cc2573d6000803e3d6000fd5b505050506040513d601f19601f820116820180604052508101906105ff9190613953565b60cc546001600160a01b031633146107a95760405162461bcd60e51b815260206004820181905260248201527f4f776e61626c653a2063616c6c6572206973206e6f7420746865206f776e6572604482015260640161087a565b60026101625403611d935760405162461bcd60e51b815260206004820152601f60248201527f5265656e7472616e637947756172643a207265656e7472616e742063616c6c00604482015260640161087a565b600261016255565b6040516001600160a01b0380851660248301528316604482015260648101829052611a4b9085906323b872dd60e01b906084015b60408051601f198184030181529190526020810180516001600160e01b03166001600160e01b03199093169290921790915261250b565b604051636eb1769f60e11b81523060048201526001600160a01b038381166024830152600091839186169063dd62ed3e90604401602060405180830381865afa158015611e57573d6000803e3d6000fd5b505050506040513d601f19601f82011682018060405250810190611e7b9190613953565b611e859190613908565b6040516001600160a01b038516602482015260448101829052909150611a4b90859063095ea7b360e01b90606401611dcf565b611ec283826125dd565b826001600160a01b0316846001600160a01b03167fdcbc1c05240f31ff3ad067ef1ee35ce4997762752e3a095284754544f4c709d78484604051611f10929190918252602082015260400190565b60405180910390a350505050565b600161016255565b60fe80546001600160a01b031916905561088c8161269e565b611f4761203a565b610130805460ff191660011790557f62e78cea01bee320cd4e420270b5ea74000d11b0c9f74754ebdbfc544b05a258611f7d3390565b6040516001600160a01b03909116815260200160405180910390a1565b6001600160a01b03811660009081526099602052604090208054600181018255905b50919050565b60006105ff611fcf611bfc565b8360405161190160f01b6020820152602281018390526042810182905260009060620160405160208183030381529060405280519060200120905092915050565b6000806000612021878787876126f0565b9150915061202e816127b4565b5090505b949350505050565b6101305460ff16156107a95760405162461bcd60e51b815260206004820152601060248201526f14185d5cd8589b194e881c185d5cd95960821b604482015260640161087a565b60006120d26040518061012001604052806000815260200160008152602001600081526020016000815260200160008152602001600081526020016000815260200160008152602001600081525090565b6000806120de866128fe565b90925090506120ed8183613bb7565b83526120f8866129df565b606086015260408086019190915260208086019290925280516331913fa560e21b815290516000926001600160a01b0389169263c644fe949260048083019392829003018187875af1158015612152573d6000803e3d6000fd5b505050506040513d601f19601f820116820180604052508101906121769190613a8a565b6001600160a01b031663313ce5676040518163ffffffff1660e01b8152600401602060405180830381865afa1580156121b3573d6000803e3d6000fd5b505050506040513d601f19601f820116820180604052508101906121d79190613aa7565b6121e290600a613ba8565b90506121ed86612b1c565b6080850181905284518991839161220391613bd9565b61220d9190613bb7565b612218906001613908565b612223906001613bb7565b61222d9190613bd9565b6122379089613a2a565b60c0850181905260009061224b9085613908565b905060008560c001518a61225f9190613a2a565b6122699085613908565b90506122966040518060800160405280600081526020016000815260200160008152602001600081525090565b6020808801518252604080890151918301919091528101839052606081018290526122c081612c5b565b60a088015285851115612302576122d78b87613908565b61010088018c9052604082018190526060820186905292506122f881612c5b565b60e088015261234e565b838b88608001516123139190613bd9565b61231d9190613bb7565b6123279086613908565b60006101008901526040820187905260608201819052915061234881612c5b565b60e08801525b86606001518760a00151118061236b575086606001518760e00151115b6123885760405163ab1bb75360e01b815260040160405180910390fd5b8660a001518760e0015111156123ac57866101000151975050505050505050610624565b50505060c090930151979650505050505050565b6123c8613156565b610130805460ff191690557f5db9ee0a495bf2e6ff9c91a7834c1ba4fdd244a5e8aa4e537bd38aeae4b073aa33611f7d565b600054610100900460ff166124215760405162461bcd60e51b815260040161087a90613bf0565b61242b82826131a0565b5050565b600054610100900460ff166124565760405162461bcd60e51b815260040161087a90613bf0565b61088c81604051806040016040528060018152602001603160f81b8152506131e0565b600054610100900460ff166124a05760405162461bcd60e51b815260040161087a90613bf0565b6107a9613221565b600054610100900460ff166124cf5760405162461bcd60e51b815260040161087a90613bf0565b6107a9613251565b600054610100900460ff166124fe5760405162461bcd60e51b815260040161087a90613bf0565b6107a9613285565b505050565b6000612560826040518060400160405280602081526020017f5361666545524332303a206c6f772d6c6576656c2063616c6c206661696c6564815250856001600160a01b03166132ac9092919063ffffffff16565b805190915015612506578080602001905181019061257e9190613c3b565b6125065760405162461bcd60e51b815260206004820152602a60248201527f5361666545524332303a204552433230206f7065726174696f6e20646964206e6044820152691bdd081cdd58d8d9595960b21b606482015260840161087a565b6001600160a01b0382166126335760405162461bcd60e51b815260206004820152601f60248201527f45524332303a206d696e7420746f20746865207a65726f206164647265737300604482015260640161087a565b80603560008282546126459190613908565b90915550506001600160a01b0382166000818152603360209081526040808320805486019055518481527fddf252ad1be2c89b69c2b068fc378daa952ba7f163c4a11628f55a4df523b3ef910160405180910390a35050565b60cc80546001600160a01b038381166001600160a01b0319831681179093556040519116919082907f8be0079c531659141344cd1fd0a4f28419497f9722a3daafe3b4186f6b6457e090600090a35050565b6000807f7fffffffffffffffffffffffffffffff5d576e7357a4501ddfe92f46681b20a083111561272757506000905060036127ab565b6040805160008082526020820180845289905260ff881692820192909252606081018690526080810185905260019060a0016020604051602081039080840390855afa15801561277b573d6000803e3d6000fd5b5050604051601f1901519150506001600160a01b0381166127a4576000600192509250506127ab565b9150600090505b94509492505050565b60008160048111156127c8576127c8613c5d565b036127d05750565b60018160048111156127e4576127e4613c5d565b036128315760405162461bcd60e51b815260206004820152601860248201527f45434453413a20696e76616c6964207369676e61747572650000000000000000604482015260640161087a565b600281600481111561284557612845613c5d565b036128925760405162461bcd60e51b815260206004820152601f60248201527f45434453413a20696e76616c6964207369676e6174757265206c656e67746800604482015260640161087a565b60038160048111156128a6576128a6613c5d565b0361088c5760405162461bcd60e51b815260206004820152602260248201527f45434453413a20696e76616c6964207369676e6174757265202773272076616c604482015261756560f01b606482015260840161087a565b604051634903b0d160e01b81526000600482018190529081906001600160a01b03841690634903b0d190602401602060405180830381865afa158015612948573d6000803e3d6000fd5b505050506040513d601f19601f8201168201806040525081019061296c9190613953565b604051634903b0d160e01b8152600160048201529092506001600160a01b03841690634903b0d190602401602060405180830381865afa1580156129b4573d6000803e3d6000fd5b505050506040513d601f19601f820116820180604052508101906129d89190613953565b9050915091565b6000806000836001600160a01b031663f446c1d06040518163ffffffff1660e01b81526004016020604051808303816000875af1158015612a24573d6000803e3d6000fd5b505050506040513d601f19601f82011682018060405250810190612a489190613953565b9250836001600160a01b031663b13739296040518163ffffffff1660e01b81526004016020604051808303816000875af1158015612a8a573d6000803e3d6000fd5b505050506040513d601f19601f82011682018060405250810190612aae9190613953565b9150836001600160a01b0316630f529ba26040518163ffffffff1660e01b81526004016020604051808303816000875af1158015612af0573d6000803e3d6000fd5b505050506040513d601f19601f82011682018060405250810190612b149190613953565b929491935050565b600080826001600160a01b031663c644fe946040518163ffffffff1660e01b81526004016020604051808303816000875af1158015612b5f573d6000803e3d6000fd5b505050506040513d601f19601f82011682018060405250810190612b839190613a8a565b6001600160a01b031663313ce5676040518163ffffffff1660e01b8152600401602060405180830381865afa158015612bc0573d6000803e3d6000fd5b505050506040513d601f19601f82011682018060405250810190612be49190613aa7565b612bef90600a613ba8565b604051633ca7c82d60e01b8152600481018290529091506001600160a01b03841690633ca7c82d90602401602060405180830381865afa158015612c37573d6000803e3d6000fd5b505050506040513d601f19601f820116820180604052508101906106249190613953565b6000612c656134fb565b826060015183604001511015612c8b576060830151815260408301516020820152612c9d565b60408301518152606083015160208201525b8051633b9ac9ff108015612cbf575080516d314dc6448d9338c15b0a00000001115b612cdc57604051633504526f60e11b815260040160405180910390fd5b80516020820151655af3107a3fff9190612cfe90670de0b6b3a7640000613bd9565b612d089190613bb7565b11612d2657604051636c3b1a1760e11b815260040160405180910390fd5b6000612d31826132bb565b612d3c906002613bd9565b60208301518351919250600091612d539190613908565b905060005b60ff81101561313c576020840151845184916000918391908290612d8490673782dace9d900000613bd9565b612d8e9190613bb7565b612d989190613bd9565b612da29190613bb7565b905060008860200151670de0b6b3a7640000612dbe9190613908565b905081811115612de457612dd28282613a2a565b612ddd906001613908565b9050612dfc565b612dee8183613a2a565b612df9906001613908565b90505b885160208a0151600091906127109084908181612e218d670de0b6b3a7640000613bd9565b612e2b9190613bb7565b612e359190613bd9565b612e3f9190613bb7565b612e499190613bd9565b612e539190613bd9565b612e5d9190613bb7565b9050600082612e7485673782dace9d900000613bd9565b612e7e9190613bb7565b90506000670de0b6b3a7640000612e958a84613bd9565b612e9f9190613bb7565b85612eab856002613bd9565b612eb59190613bb7565b670de0b6b3a7640000612ec8858c613bd9565b612ed29190613bb7565b612edc908b613908565b612ee69190613908565b612ef09190613a2a565b9050600081612eff8a82613908565b612f09908c613bd9565b612f139190613bb7565b9050600082612f228c80613bd9565b612f2c9190613bb7565b905086670de0b6b3a76400001115612f9d5786612f5181670de0b6b3a7640000613a2a565b670de0b6b3a7640000612f648689613bb7565b612f6e908f613bd9565b612f789190613bb7565b612f829190613bd9565b612f8c9190613bb7565b612f969082613908565b9050612ff8565b86612fb0670de0b6b3a764000082613a2a565b670de0b6b3a7640000612fc38689613bb7565b612fcd908f613bd9565b612fd79190613bb7565b612fe19190613bd9565b612feb9190613bb7565b612ff59082613a2a565b90505b808211156130115761300a8183613a2a565b9a5061302a565b600261301d8383613a2a565b6130279190613bb7565b9a505b6000888c11156130455761303e898d613a2a565b9050613052565b61304f8c8a613a2a565b90505b613063662386f26fc100008d61336b565b61307382655af3107a4000613bd9565b101561312057600099505b60028a101561310d5760008c8e8c6002811061309c5761309c613c73565b60200201516130b390670de0b6b3a7640000613bd9565b6130bd9190613bb7565b9050662386f26fc0ffff811180156130dd575068056bc75e2d6310000181105b6130fa57604051633b8443df60e11b815260040160405180910390fd5b508961310581613c89565b9a505061307e565b50999d9c50505050505050505050505050565b505050505050505050808061313490613c89565b915050612d58565b50604051636806e97360e11b815260040160405180910390fd5b6101305460ff166107a95760405162461bcd60e51b815260206004820152601460248201527314185d5cd8589b194e881b9bdd081c185d5cd95960621b604482015260640161087a565b600054610100900460ff166131c75760405162461bcd60e51b815260040161087a90613bf0565b60366131d38382613ce8565b5060376125068282613ce8565b600054610100900460ff166132075760405162461bcd60e51b815260040161087a90613bf0565b815160209283012081519190920120606591909155606655565b600054610100900460ff166132485760405162461bcd60e51b815260040161087a90613bf0565b6107a933611f26565b600054610100900460ff166132785760405162461bcd60e51b815260040161087a90613bf0565b610130805460ff19169055565b600054610100900460ff16611f1e5760405162461bcd60e51b815260040161087a90613bf0565b60606120328484600085613382565b805160009081805b60ff81101561313c5760208501518551849160029183916132e391613bd9565b6132ed9190613bb7565b6132f79086613908565b6133019190613bb7565b93508084111561331c576133158185613a2a565b9250613329565b6133268482613a2a565b92505b60018311158061334957508361334784670de0b6b3a7640000613bd9565b105b15613358575091949350505050565b508061336381613c89565b9150506132c3565b60008183101561337b5781610624565b5090919050565b6060824710156133e35760405162461bcd60e51b815260206004820152602660248201527f416464726573733a20696e73756666696369656e742062616c616e636520666f6044820152651c8818d85b1b60d21b606482015260840161087a565b600080866001600160a01b031685876040516133ff9190613a6e565b60006040518083038185875af1925050503d806000811461343c576040519150601f19603f3d011682016040523d82523d6000602084013e613441565b606091505b50915091506134528783838761345d565b979650505050505050565b606083156134cc5782516000036134c5576001600160a01b0385163b6134c55760405162461bcd60e51b815260206004820152601d60248201527f416464726573733a2063616c6c20746f206e6f6e2d636f6e7472616374000000604482015260640161087a565b5081612032565b61203283838151156134e15781518083602001fd5b8060405162461bcd60e51b815260040161087a919061353d565b60405180604001604052806002906020820280368337509192915050565b60005b8381101561353457818101518382015260200161351c565b50506000910152565b602081526000825180602084015261355c816040850160208701613519565b601f01601f19169190910160400192915050565b60006020828403121561358257600080fd5b5035919050565b6001600160a01b038116811461088c57600080fd5b600080604083850312156135b157600080fd5b82356135bc81613589565b946020939093013593505050565b6000806000606084860312156135df57600080fd5b83356135ea81613589565b925060208401356135fa81613589565b929592945050506040919091013590565b60006020828403121561361d57600080fd5b813561062481613589565b6000806040838503121561363b57600080fd5b82359150602083013561364d81613589565b809150509250929050565b60008060006060848603121561366d57600080fd5b83359250602084013561367f81613589565b9150604084013561368f81613589565b809150509250925092565b60ff8116811461088c57600080fd5b600080600080600080600060e0888a0312156136c457600080fd5b87356136cf81613589565b965060208801356136df81613589565b9550604088013594506060880135935060808801356136fd8161369a565b9699959850939692959460a0840135945060c09093013592915050565b6000806040838503121561372d57600080fd5b823561373881613589565b9150602083013561364d81613589565b634e487b7160e01b600052604160045260246000fd5b6040805190810167ffffffffffffffff8111828210171561378157613781613748565b60405290565b604051601f8201601f1916810167ffffffffffffffff811182821017156137b0576137b0613748565b604052919050565b600067ffffffffffffffff8211156137d2576137d2613748565b50601f01601f191660200190565b600082601f8301126137f157600080fd5b81356138046137ff826137b8565b613787565b81815284602083860101111561381957600080fd5b816020850160208301376000918101602001919091529392505050565b600080600080600060a0868803121561384e57600080fd5b853567ffffffffffffffff8082111561386657600080fd5b61387289838a016137e0565b9650602088013591508082111561388857600080fd5b50613895888289016137e0565b9450506040860135925060608601356138ad81613589565b949793965091946080013592915050565b600181811c908216806138d257607f821691505b602082108103611fbc57634e487b7160e01b600052602260045260246000fd5b634e487b7160e01b600052601160045260246000fd5b808201808211156105ff576105ff6138f2565b6001600160a01b039687168152602081019590955260408501939093529084166060840152608083015290911660a082015260c00190565b60006020828403121561396557600080fd5b5051919050565b6000602080838503121561397f57600080fd5b825167ffffffffffffffff8082111561399757600080fd5b90840190604082870312156139ab57600080fd5b6139b361375e565b82516139be81613589565b815282840151828111156139d157600080fd5b80840193505086601f8401126139e657600080fd5b825191506139f66137ff836137b8565b8281528785848601011115613a0a57600080fd5b613a1983868301878701613519565b938101939093525090949350505050565b818103818111156105ff576105ff6138f2565b60408101818360005b6002811015613a65578151835260209283019290910190600101613a46565b50505092915050565b60008251613a80818460208701613519565b9190910192915050565b600060208284031215613a9c57600080fd5b815161062481613589565b600060208284031215613ab957600080fd5b81516106248161369a565b600181815b80851115613aff578160001904821115613ae557613ae56138f2565b80851615613af257918102915b93841c9390800290613ac9565b509250929050565b600082613b16575060016105ff565b81613b23575060006105ff565b8160018114613b395760028114613b4357613b5f565b60019150506105ff565b60ff841115613b5457613b546138f2565b50506001821b6105ff565b5060208310610133831016604e8410600b8410161715613b82575081810a6105ff565b613b8c8383613ac4565b8060001904821115613ba057613ba06138f2565b029392505050565b600061062460ff841683613b07565b600082613bd457634e487b7160e01b600052601260045260246000fd5b500490565b80820281158282048414176105ff576105ff6138f2565b6020808252602b908201527f496e697469616c697a61626c653a20636f6e7472616374206973206e6f74206960408201526a6e697469616c697a696e6760a81b606082015260800190565b600060208284031215613c4d57600080fd5b8151801515811461062457600080fd5b634e487b7160e01b600052602160045260246000fd5b634e487b7160e01b600052603260045260246000fd5b600060018201613c9b57613c9b6138f2565b5060010190565b601f82111561250657600081815260208120601f850160051c81016020861015613cc95750805b601f850160051c820191505b818110156118ab57828155600101613cd5565b815167ffffffffffffffff811115613d0257613d02613748565b613d1681613d1084546138be565b84613ca2565b602080601f831160018114613d4b5760008415613d335750858301515b600019600386901b1c1916600185901b1785556118ab565b600085815260208120601f198616915b82811015613d7a57888601518255948401946001909101908401613d5b565b5085821015613d985787850151600019600388901b60f8161c191681555b5050505050600190811b0190555056fea2646970667358221220cacebe7e12da59ea293f4747fbc3709b7a525b76ab00cd0965812b46bc79bc4964736f6c63430008110033",
    "linkReferences": {}
  },
  "methodIdentifiers": {
    "DOMAIN_SEPARATOR()": "3644e515",
    "acceptOwnership()": "79ba5097",
    "allowance(address,address)": "dd62ed3e",
    "approve(address,uint256)": "095ea7b3",
    "asset()": "38d52e0f",
    "balanceOf(address)": "70a08231",
    "compoundInterest()": "e425e8b5",
    "convertToAssets(uint256)": "07a2d13a",
    "convertToAssetsOfIBT(uint256)": "3ca7c82d",
    "convertToShares(uint256)": "c6e6f592",
    "decimals()": "313ce567",
    "decreaseAllowance(address,uint256)": "a457c2d7",
    "deposit(uint256,address)": "6e553f65",
    "depositWithIBT(uint256,address)": "bafc0f14",
    "gePerformanceFee()": "33cd7a80",
    "increaseAllowance(address,uint256)": "39509351",
    "initialize(string,string,uint256,address,uint256)": "fede0276",
    "maxDeposit(address)": "402d267d",
    "maxMint(address)": "c63d75b6",
    "maxRedeem(address)": "d905777e",
    "maxWithdraw(address)": "ce96cb77",
    "mint(uint256,address)": "94bf804d",
    "name()": "06fdde03",
    "nonces(address)": "7ecebe00",
    "owner()": "8da5cb5b",
    "pause()": "8456cb59",
    "paused()": "5c975abb",
    "pendingOwner()": "e30c3978",
    "permit(address,address,uint256,uint256,uint8,bytes32,bytes32)": "d505accf",
    "previewDeposit(uint256)": "ef8b30f7",
    "previewDepositWithIBT(uint256)": "fb898304",
    "previewMint(uint256)": "b3d7f6b9",
    "previewRedeem(uint256)": "4cdad506",
    "previewWithdraw(uint256)": "0a28a477",
    "redeem(uint256,address,address)": "ba087652",
    "renounceOwnership()": "715018a6",
    "setPoolIndex(uint256)": "52461562",
    "symbol()": "95d89b41",
    "totalAssets()": "01e1d114",
    "totalSupply()": "18160ddd",
    "transfer(address,uint256)": "a9059cbb",
    "transferFrom(address,address,uint256)": "23b872dd",
    "transferOwnership(address)": "f2fde38b",
    "unPause()": "f7b188a5",
    "updateFees(uint256)": "78dacee1",
    "withdraw(uint256,address,address)": "b460af94"
  },
  "id": 105
}