{
  "abi": [
    {
      "inputs": [],
      "stateMutability": "nonpayable",
      "type": "constructor"
    },
    {
      "inputs": [],
      "name": "AssetsValueLessThanMinValue",
      "type": "error"
    },
    {
      "inputs": [],
      "name": "AssetsValueMoreThanMaxValue",
      "type": "error"
    },
    {
      "inputs": [],
      "name": "CallerIsNotFeeCollector",
      "type": "error"
    },
    {
      "inputs": [],
      "name": "CallerIsNotOwner",
      "type": "error"
    },
    {
      "inputs": [],
      "name": "CallerIsNotYtContract",
      "type": "error"
    },
    {
      "inputs": [],
      "name": "FeeMoreThanMaxValue",
      "type": "error"
    },
    {
      "inputs": [],
      "name": "NetYieldZero",
      "type": "error"
    },
    {
      "inputs": [],
      "name": "PrincipalTokenExpired",
      "type": "error"
    },
    {
      "inputs": [],
      "name": "PrincipalTokenNotExpired",
      "type": "error"
    },
    {
      "inputs": [],
      "name": "PrincipalTokenRateError",
      "type": "error"
    },
    {
      "inputs": [],
      "name": "RatesAtExpiryAlreadyStored",
      "type": "error"
    },
    {
      "inputs": [],
      "name": "RatesAtExpiryNotStored",
      "type": "error"
    },
    {
      "inputs": [],
      "name": "SharesValueLessThanMinValue",
      "type": "error"
    },
    {
      "inputs": [],
      "name": "SharesValueMoreThanMaxValue",
      "type": "error"
    },
    {
      "inputs": [],
      "name": "TransferValueExceedsYieldBalance",
      "type": "error"
    },
    {
      "inputs": [],
      "name": "ZeroAddressError",
      "type": "error"
    },
    {
      "anonymous": false,
      "inputs": [
        {
          "indexed": true,
          "internalType": "address",
          "name": "owner",
          "type": "address"
        },
        {
          "indexed": true,
          "internalType": "address",
          "name": "spender",
          "type": "address"
        },
        {
          "indexed": false,
          "internalType": "uint256",
          "name": "value",
          "type": "uint256"
        }
      ],
      "name": "Approval",
      "type": "event"
    },
    {
      "anonymous": false,
      "inputs": [
        {
          "indexed": true,
          "internalType": "address",
          "name": "sender",
          "type": "address"
        },
        {
          "indexed": true,
          "internalType": "address",
          "name": "owner",
          "type": "address"
        },
        {
          "indexed": false,
          "internalType": "uint256",
          "name": "assets",
          "type": "uint256"
        },
        {
          "indexed": false,
          "internalType": "uint256",
          "name": "shares",
          "type": "uint256"
        }
      ],
      "name": "Deposit",
      "type": "event"
    },
    {
      "anonymous": false,
      "inputs": [
        {
          "indexed": true,
          "internalType": "address",
          "name": "_feeCollector",
          "type": "address"
        },
        {
          "indexed": false,
          "internalType": "uint256",
          "name": "_feesInIBT",
          "type": "uint256"
        }
      ],
      "name": "FeeClaimed",
      "type": "event"
    },
    {
      "anonymous": false,
      "inputs": [
        {
          "indexed": false,
          "internalType": "uint8",
          "name": "version",
          "type": "uint8"
        }
      ],
      "name": "Initialized",
      "type": "event"
    },
    {
      "anonymous": false,
      "inputs": [
        {
          "indexed": true,
          "internalType": "address",
          "name": "previousOwner",
          "type": "address"
        },
        {
          "indexed": true,
          "internalType": "address",
          "name": "newOwner",
          "type": "address"
        }
      ],
      "name": "OwnershipTransferStarted",
      "type": "event"
    },
    {
      "anonymous": false,
      "inputs": [
        {
          "indexed": true,
          "internalType": "address",
          "name": "previousOwner",
          "type": "address"
        },
        {
          "indexed": true,
          "internalType": "address",
          "name": "newOwner",
          "type": "address"
        }
      ],
      "name": "OwnershipTransferred",
      "type": "event"
    },
    {
      "anonymous": false,
      "inputs": [
        {
          "indexed": false,
          "internalType": "address",
          "name": "account",
          "type": "address"
        }
      ],
      "name": "Paused",
      "type": "event"
    },
    {
      "anonymous": false,
      "inputs": [
        {
          "indexed": true,
          "internalType": "uint256",
          "name": "oldProtocolFee",
          "type": "uint256"
        },
        {
          "indexed": true,
          "internalType": "uint256",
          "name": "newProtocolFee",
          "type": "uint256"
        }
      ],
      "name": "ProtocolFeeUpdated",
      "type": "event"
    },
    {
      "anonymous": false,
      "inputs": [
        {
          "indexed": true,
          "internalType": "uint256",
          "name": "_ibtRate",
          "type": "uint256"
        },
        {
          "indexed": true,
          "internalType": "uint256",
          "name": "_ptRate",
          "type": "uint256"
        }
      ],
      "name": "RatesStoredAtExpiry",
      "type": "event"
    },
    {
      "anonymous": false,
      "inputs": [
        {
          "indexed": true,
          "internalType": "address",
          "name": "from",
          "type": "address"
        },
        {
          "indexed": true,
          "internalType": "address",
          "name": "to",
          "type": "address"
        },
        {
          "indexed": false,
          "internalType": "uint256",
          "name": "assets",
          "type": "uint256"
        }
      ],
      "name": "Redeem",
      "type": "event"
    },
    {
      "anonymous": false,
      "inputs": [
        {
          "indexed": true,
          "internalType": "address",
          "name": "from",
          "type": "address"
        },
        {
          "indexed": true,
          "internalType": "address",
          "name": "to",
          "type": "address"
        },
        {
          "indexed": false,
          "internalType": "uint256",
          "name": "value",
          "type": "uint256"
        }
      ],
      "name": "Transfer",
      "type": "event"
    },
    {
      "anonymous": false,
      "inputs": [
        {
          "indexed": false,
          "internalType": "address",
          "name": "account",
          "type": "address"
        }
      ],
      "name": "Unpaused",
      "type": "event"
    },
    {
      "anonymous": false,
      "inputs": [
        {
          "indexed": true,
          "internalType": "address",
          "name": "feeCollector",
          "type": "address"
        }
      ],
      "name": "UpdatedFeeCollector",
      "type": "event"
    },
    {
      "anonymous": false,
      "inputs": [
        {
          "indexed": true,
          "internalType": "address",
          "name": "zapDepositor",
          "type": "address"
        }
      ],
      "name": "UpdatedZapDepositor",
      "type": "event"
    },
    {
      "anonymous": false,
      "inputs": [
        {
          "indexed": true,
          "internalType": "address",
          "name": "sender",
          "type": "address"
        },
        {
          "indexed": true,
          "internalType": "address",
          "name": "receiver",
          "type": "address"
        },
        {
          "indexed": true,
          "internalType": "address",
          "name": "owner",
          "type": "address"
        },
        {
          "indexed": false,
          "internalType": "uint256",
          "name": "assets",
          "type": "uint256"
        },
        {
          "indexed": false,
          "internalType": "uint256",
          "name": "shares",
          "type": "uint256"
        }
      ],
      "name": "Withdraw",
      "type": "event"
    },
    {
      "anonymous": false,
      "inputs": [
        {
          "indexed": true,
          "internalType": "address",
          "name": "yt",
          "type": "address"
        }
      ],
      "name": "YTDeployed",
      "type": "event"
    },
    {
      "anonymous": false,
      "inputs": [
        {
          "indexed": true,
          "internalType": "address",
          "name": "receiver",
          "type": "address"
        },
        {
          "indexed": false,
          "internalType": "uint256",
          "name": "yield",
          "type": "uint256"
        }
      ],
      "name": "YieldTransferred",
      "type": "event"
    },
    {
      "anonymous": false,
      "inputs": [
        {
          "indexed": true,
          "internalType": "address",
          "name": "user",
          "type": "address"
        },
        {
          "indexed": true,
          "internalType": "uint256",
          "name": "yield",
          "type": "uint256"
        }
      ],
      "name": "YieldUpdated",
      "type": "event"
    },
    {
      "inputs": [],
      "name": "DOMAIN_SEPARATOR",
      "outputs": [
        {
          "internalType": "bytes32",
          "name": "",
          "type": "bytes32"
        }
      ],
      "stateMutability": "view",
      "type": "function"
    },
    {
      "inputs": [],
      "name": "acceptOwnership",
      "outputs": [],
      "stateMutability": "nonpayable",
      "type": "function"
    },
    {
      "inputs": [
        {
          "internalType": "address",
          "name": "owner",
          "type": "address"
        },
        {
          "internalType": "address",
          "name": "spender",
          "type": "address"
        }
      ],
      "name": "allowance",
      "outputs": [
        {
          "internalType": "uint256",
          "name": "",
          "type": "uint256"
        }
      ],
      "stateMutability": "view",
      "type": "function"
    },
    {
      "inputs": [
        {
          "internalType": "address",
          "name": "spender",
          "type": "address"
        },
        {
          "internalType": "uint256",
          "name": "amount",
          "type": "uint256"
        }
      ],
      "name": "approve",
      "outputs": [
        {
          "internalType": "bool",
          "name": "",
          "type": "bool"
        }
      ],
      "stateMutability": "nonpayable",
      "type": "function"
    },
    {
      "inputs": [],
      "name": "asset",
      "outputs": [
        {
          "internalType": "address",
          "name": "",
          "type": "address"
        }
      ],
      "stateMutability": "view",
      "type": "function"
    },
    {
      "inputs": [
        {
          "internalType": "address",
          "name": "account",
          "type": "address"
        }
      ],
      "name": "balanceOf",
      "outputs": [
        {
          "internalType": "uint256",
          "name": "",
          "type": "uint256"
        }
      ],
      "stateMutability": "view",
      "type": "function"
    },
    {
      "inputs": [
        {
          "internalType": "address",
          "name": "_from",
          "type": "address"
        },
        {
          "internalType": "address",
          "name": "_to",
          "type": "address"
        }
      ],
      "name": "beforeYtTransfer",
      "outputs": [],
      "stateMutability": "nonpayable",
      "type": "function"
    },
    {
      "inputs": [],
      "name": "claimFees",
      "outputs": [
        {
          "internalType": "uint256",
          "name": "",
          "type": "uint256"
        }
      ],
      "stateMutability": "nonpayable",
      "type": "function"
    },
    {
      "inputs": [],
      "name": "claimYield",
      "outputs": [
        {
          "internalType": "uint256",
          "name": "",
          "type": "uint256"
        }
      ],
      "stateMutability": "nonpayable",
      "type": "function"
    },
    {
      "inputs": [
        {
          "internalType": "uint256",
          "name": "_amount",
          "type": "uint256"
        }
      ],
      "name": "claimYieldOfAmount",
      "outputs": [
        {
          "internalType": "uint256",
          "name": "",
          "type": "uint256"
        }
      ],
      "stateMutability": "nonpayable",
      "type": "function"
    },
    {
      "inputs": [
        {
          "internalType": "uint256",
          "name": "assets",
          "type": "uint256"
        },
        {
          "internalType": "uint256",
          "name": "_ibtRate",
          "type": "uint256"
        }
      ],
      "name": "convertAssetsToIBTWithRate",
      "outputs": [
        {
          "internalType": "uint256",
          "name": "",
          "type": "uint256"
        }
      ],
      "stateMutability": "view",
      "type": "function"
    },
    {
      "inputs": [
        {
          "internalType": "uint256",
          "name": "ibtAmount",
          "type": "uint256"
        },
        {
          "internalType": "uint256",
          "name": "_ibtRate",
          "type": "uint256"
        }
      ],
      "name": "convertIBTToAssetsWithRate",
      "outputs": [
        {
          "internalType": "uint256",
          "name": "",
          "type": "uint256"
        }
      ],
      "stateMutability": "view",
      "type": "function"
    },
    {
      "inputs": [
        {
          "internalType": "uint256",
          "name": "shares",
          "type": "uint256"
        }
      ],
      "name": "convertToAssets",
      "outputs": [
        {
          "internalType": "uint256",
          "name": "assets",
          "type": "uint256"
        }
      ],
      "stateMutability": "view",
      "type": "function"
    },
    {
      "inputs": [
        {
          "internalType": "uint256",
          "name": "ibtAmount",
          "type": "uint256"
        }
      ],
      "name": "convertToAssetsOfIBT",
      "outputs": [
        {
          "internalType": "uint256",
          "name": "",
          "type": "uint256"
        }
      ],
      "stateMutability": "view",
      "type": "function"
    },
    {
      "inputs": [
        {
          "internalType": "uint256",
          "name": "shares",
          "type": "uint256"
        },
        {
          "internalType": "uint256",
          "name": "_ptRate",
          "type": "uint256"
        }
      ],
      "name": "convertToAssetsWithRate",
      "outputs": [
        {
          "internalType": "uint256",
          "name": "assets",
          "type": "uint256"
        }
      ],
      "stateMutability": "view",
      "type": "function"
    },
    {
      "inputs": [
        {
          "internalType": "uint256",
          "name": "underlyingAmount",
          "type": "uint256"
        }
      ],
      "name": "convertToPrincipal",
      "outputs": [
        {
          "internalType": "uint256",
          "name": "",
          "type": "uint256"
        }
      ],
      "stateMutability": "view",
      "type": "function"
    },
    {
      "inputs": [
        {
          "internalType": "uint256",
          "name": "assets",
          "type": "uint256"
        }
      ],
      "name": "convertToShares",
      "outputs": [
        {
          "internalType": "uint256",
          "name": "shares",
          "type": "uint256"
        }
      ],
      "stateMutability": "view",
      "type": "function"
    },
    {
      "inputs": [
        {
          "internalType": "uint256",
          "name": "assets",
          "type": "uint256"
        }
      ],
      "name": "convertToSharesOfIBT",
      "outputs": [
        {
          "internalType": "uint256",
          "name": "",
          "type": "uint256"
        }
      ],
      "stateMutability": "view",
      "type": "function"
    },
    {
      "inputs": [
        {
          "internalType": "uint256",
          "name": "assets",
          "type": "uint256"
        },
        {
          "internalType": "uint256",
          "name": "_ptRate",
          "type": "uint256"
        }
      ],
      "name": "convertToSharesWithRate",
      "outputs": [
        {
          "internalType": "uint256",
          "name": "shares",
          "type": "uint256"
        }
      ],
      "stateMutability": "view",
      "type": "function"
    },
    {
      "inputs": [
        {
          "internalType": "uint256",
          "name": "principalAmount",
          "type": "uint256"
        }
      ],
      "name": "convertToUnderlying",
      "outputs": [
        {
          "internalType": "uint256",
          "name": "",
          "type": "uint256"
        }
      ],
      "stateMutability": "view",
      "type": "function"
    },
    {
      "inputs": [],
      "name": "decimals",
      "outputs": [
        {
          "internalType": "uint8",
          "name": "",
          "type": "uint8"
        }
      ],
      "stateMutability": "view",
      "type": "function"
    },
    {
      "inputs": [
        {
          "internalType": "address",
          "name": "spender",
          "type": "address"
        },
        {
          "internalType": "uint256",
          "name": "subtractedValue",
          "type": "uint256"
        }
      ],
      "name": "decreaseAllowance",
      "outputs": [
        {
          "internalType": "bool",
          "name": "",
          "type": "bool"
        }
      ],
      "stateMutability": "nonpayable",
      "type": "function"
    },
    {
      "inputs": [
        {
          "internalType": "uint256",
          "name": "assets",
          "type": "uint256"
        },
        {
          "internalType": "address",
          "name": "receiver",
          "type": "address"
        }
      ],
      "name": "deposit",
      "outputs": [
        {
          "internalType": "uint256",
          "name": "shares",
          "type": "uint256"
        }
      ],
      "stateMutability": "nonpayable",
      "type": "function"
    },
    {
      "inputs": [
        {
          "internalType": "uint256",
          "name": "assets",
          "type": "uint256"
        },
        {
          "internalType": "address",
          "name": "receiver",
          "type": "address"
        },
        {
          "internalType": "uint256",
          "name": "minShares",
          "type": "uint256"
        }
      ],
      "name": "deposit",
      "outputs": [
        {
          "internalType": "uint256",
          "name": "",
          "type": "uint256"
        }
      ],
      "stateMutability": "nonpayable",
      "type": "function"
    },
    {
      "inputs": [
        {
          "internalType": "uint256",
          "name": "ibtAmount",
          "type": "uint256"
        },
        {
          "internalType": "address",
          "name": "receiver",
          "type": "address"
        },
        {
          "internalType": "uint256",
          "name": "minShares",
          "type": "uint256"
        }
      ],
      "name": "depositWithIBT",
      "outputs": [
        {
          "internalType": "uint256",
          "name": "",
          "type": "uint256"
        }
      ],
      "stateMutability": "nonpayable",
      "type": "function"
    },
    {
      "inputs": [
        {
          "internalType": "uint256",
          "name": "ibtAmount",
          "type": "uint256"
        },
        {
          "internalType": "address",
          "name": "receiver",
          "type": "address"
        }
      ],
      "name": "depositWithIBT",
      "outputs": [
        {
          "internalType": "uint256",
          "name": "shares",
          "type": "uint256"
        }
      ],
      "stateMutability": "nonpayable",
      "type": "function"
    },
    {
      "inputs": [],
      "name": "getAssetUnit",
      "outputs": [
        {
          "internalType": "uint256",
          "name": "",
          "type": "uint256"
        }
      ],
      "stateMutability": "view",
      "type": "function"
    },
    {
      "inputs": [
        {
          "internalType": "address",
          "name": "_user",
          "type": "address"
        }
      ],
      "name": "getCurrentYieldInIBTOfUser",
      "outputs": [
        {
          "internalType": "uint256",
          "name": "_yieldOfUserInIBT",
          "type": "uint256"
        }
      ],
      "stateMutability": "view",
      "type": "function"
    },
    {
      "inputs": [],
      "name": "getFeeCollectorAddress",
      "outputs": [
        {
          "internalType": "address",
          "name": "",
          "type": "address"
        }
      ],
      "stateMutability": "view",
      "type": "function"
    },
    {
      "inputs": [],
      "name": "getIBT",
      "outputs": [
        {
          "internalType": "address",
          "name": "",
          "type": "address"
        }
      ],
      "stateMutability": "view",
      "type": "function"
    },
    {
      "inputs": [],
      "name": "getIBTRate",
      "outputs": [
        {
          "internalType": "uint256",
          "name": "",
          "type": "uint256"
        }
      ],
      "stateMutability": "view",
      "type": "function"
    },
    {
      "inputs": [],
      "name": "getIBTRateAtExpiry",
      "outputs": [
        {
          "internalType": "uint256",
          "name": "",
          "type": "uint256"
        }
      ],
      "stateMutability": "view",
      "type": "function"
    },
    {
      "inputs": [],
      "name": "getIBTUnit",
      "outputs": [
        {
          "internalType": "uint256",
          "name": "",
          "type": "uint256"
        }
      ],
      "stateMutability": "view",
      "type": "function"
    },
    {
      "inputs": [],
      "name": "getPTRate",
      "outputs": [
        {
          "internalType": "uint256",
          "name": "",
          "type": "uint256"
        }
      ],
      "stateMutability": "view",
      "type": "function"
    },
    {
      "inputs": [],
      "name": "getPTRateAtExpiry",
      "outputs": [
        {
          "internalType": "uint256",
          "name": "",
          "type": "uint256"
        }
      ],
      "stateMutability": "view",
      "type": "function"
    },
    {
      "inputs": [],
      "name": "getProtocolFee",
      "outputs": [
        {
          "internalType": "uint256",
          "name": "",
          "type": "uint256"
        }
      ],
      "stateMutability": "view",
      "type": "function"
    },
    {
      "inputs": [],
      "name": "getRegistry",
      "outputs": [
        {
          "internalType": "address",
          "name": "",
          "type": "address"
        }
      ],
      "stateMutability": "view",
      "type": "function"
    },
    {
      "inputs": [],
      "name": "getRegistryAddress",
      "outputs": [
        {
          "internalType": "address",
          "name": "",
          "type": "address"
        }
      ],
      "stateMutability": "view",
      "type": "function"
    },
    {
      "inputs": [],
      "name": "getUnclaimedFeesInIBT",
      "outputs": [
        {
          "internalType": "uint256",
          "name": "",
          "type": "uint256"
        }
      ],
      "stateMutability": "view",
      "type": "function"
    },
    {
      "inputs": [],
      "name": "getYT",
      "outputs": [
        {
          "internalType": "address",
          "name": "",
          "type": "address"
        }
      ],
      "stateMutability": "view",
      "type": "function"
    },
    {
      "inputs": [],
      "name": "getZapDepositor",
      "outputs": [
        {
          "internalType": "address",
          "name": "",
          "type": "address"
        }
      ],
      "stateMutability": "view",
      "type": "function"
    },
    {
      "inputs": [],
      "name": "getZapDepositorAddress",
      "outputs": [
        {
          "internalType": "address",
          "name": "",
          "type": "address"
        }
      ],
      "stateMutability": "view",
      "type": "function"
    },
    {
      "inputs": [
        {
          "internalType": "address",
          "name": "spender",
          "type": "address"
        },
        {
          "internalType": "uint256",
          "name": "addedValue",
          "type": "uint256"
        }
      ],
      "name": "increaseAllowance",
      "outputs": [
        {
          "internalType": "bool",
          "name": "",
          "type": "bool"
        }
      ],
      "stateMutability": "nonpayable",
      "type": "function"
    },
    {
      "inputs": [
        {
          "internalType": "string",
          "name": "_name",
          "type": "string"
        },
        {
          "internalType": "string",
          "name": "_symbol",
          "type": "string"
        },
        {
          "internalType": "address",
          "name": "_ibt",
          "type": "address"
        },
        {
          "internalType": "uint256",
          "name": "_expiry",
          "type": "uint256"
        },
        {
          "internalType": "uint256",
          "name": "_protocolFee",
          "type": "uint256"
        },
        {
          "internalType": "address",
          "name": "_registry",
          "type": "address"
        },
        {
          "internalType": "address",
          "name": "_ytBeacon",
          "type": "address"
        }
      ],
      "name": "initialize",
      "outputs": [],
      "stateMutability": "nonpayable",
      "type": "function"
    },
    {
      "inputs": [],
      "name": "maturity",
      "outputs": [
        {
          "internalType": "uint256",
          "name": "",
          "type": "uint256"
        }
      ],
      "stateMutability": "view",
      "type": "function"
    },
    {
      "inputs": [
        {
          "internalType": "address",
          "name": "",
          "type": "address"
        }
      ],
      "name": "maxDeposit",
      "outputs": [
        {
          "internalType": "uint256",
          "name": "",
          "type": "uint256"
        }
      ],
      "stateMutability": "pure",
      "type": "function"
    },
    {
      "inputs": [
        {
          "internalType": "address",
          "name": "",
          "type": "address"
        }
      ],
      "name": "maxMint",
      "outputs": [
        {
          "internalType": "uint256",
          "name": "",
          "type": "uint256"
        }
      ],
      "stateMutability": "pure",
      "type": "function"
    },
    {
      "inputs": [
        {
          "internalType": "address",
          "name": "owner",
          "type": "address"
        }
      ],
      "name": "maxRedeem",
      "outputs": [
        {
          "internalType": "uint256",
          "name": "",
          "type": "uint256"
        }
      ],
      "stateMutability": "view",
      "type": "function"
    },
    {
      "inputs": [
        {
          "internalType": "address",
          "name": "owner",
          "type": "address"
        }
      ],
      "name": "maxWithdraw",
      "outputs": [
        {
          "internalType": "uint256",
          "name": "",
          "type": "uint256"
        }
      ],
      "stateMutability": "view",
      "type": "function"
    },
    {
      "inputs": [
        {
          "internalType": "uint256",
          "name": "shares",
          "type": "uint256"
        },
        {
          "internalType": "address",
          "name": "receiver",
          "type": "address"
        },
        {
          "internalType": "uint256",
          "name": "maxAssets",
          "type": "uint256"
        }
      ],
      "name": "mint",
      "outputs": [
        {
          "internalType": "uint256",
          "name": "",
          "type": "uint256"
        }
      ],
      "stateMutability": "nonpayable",
      "type": "function"
    },
    {
      "inputs": [
        {
          "internalType": "uint256",
          "name": "shares",
          "type": "uint256"
        },
        {
          "internalType": "address",
          "name": "receiver",
          "type": "address"
        }
      ],
      "name": "mint",
      "outputs": [
        {
          "internalType": "uint256",
          "name": "",
          "type": "uint256"
        }
      ],
      "stateMutability": "nonpayable",
      "type": "function"
    },
    {
      "inputs": [],
      "name": "name",
      "outputs": [
        {
          "internalType": "string",
          "name": "",
          "type": "string"
        }
      ],
      "stateMutability": "view",
      "type": "function"
    },
    {
      "inputs": [
        {
          "internalType": "address",
          "name": "owner",
          "type": "address"
        }
      ],
      "name": "nonces",
      "outputs": [
        {
          "internalType": "uint256",
          "name": "",
          "type": "uint256"
        }
      ],
      "stateMutability": "view",
      "type": "function"
    },
    {
      "inputs": [],
      "name": "owner",
      "outputs": [
        {
          "internalType": "address",
          "name": "",
          "type": "address"
        }
      ],
      "stateMutability": "view",
      "type": "function"
    },
    {
      "inputs": [],
      "name": "pause",
      "outputs": [],
      "stateMutability": "nonpayable",
      "type": "function"
    },
    {
      "inputs": [],
      "name": "paused",
      "outputs": [
        {
          "internalType": "bool",
          "name": "",
          "type": "bool"
        }
      ],
      "stateMutability": "view",
      "type": "function"
    },
    {
      "inputs": [],
      "name": "pendingOwner",
      "outputs": [
        {
          "internalType": "address",
          "name": "",
          "type": "address"
        }
      ],
      "stateMutability": "view",
      "type": "function"
    },
    {
      "inputs": [
        {
          "internalType": "address",
          "name": "owner",
          "type": "address"
        },
        {
          "internalType": "address",
          "name": "spender",
          "type": "address"
        },
        {
          "internalType": "uint256",
          "name": "value",
          "type": "uint256"
        },
        {
          "internalType": "uint256",
          "name": "deadline",
          "type": "uint256"
        },
        {
          "internalType": "uint8",
          "name": "v",
          "type": "uint8"
        },
        {
          "internalType": "bytes32",
          "name": "r",
          "type": "bytes32"
        },
        {
          "internalType": "bytes32",
          "name": "s",
          "type": "bytes32"
        }
      ],
      "name": "permit",
      "outputs": [],
      "stateMutability": "nonpayable",
      "type": "function"
    },
    {
      "inputs": [
        {
          "internalType": "uint256",
          "name": "assets",
          "type": "uint256"
        }
      ],
      "name": "previewDeposit",
      "outputs": [
        {
          "internalType": "uint256",
          "name": "",
          "type": "uint256"
        }
      ],
      "stateMutability": "view",
      "type": "function"
    },
    {
      "inputs": [
        {
          "internalType": "uint256",
          "name": "shares",
          "type": "uint256"
        }
      ],
      "name": "previewMint",
      "outputs": [
        {
          "internalType": "uint256",
          "name": "",
          "type": "uint256"
        }
      ],
      "stateMutability": "view",
      "type": "function"
    },
    {
      "inputs": [
        {
          "internalType": "uint256",
          "name": "shares",
          "type": "uint256"
        }
      ],
      "name": "previewRedeem",
      "outputs": [
        {
          "internalType": "uint256",
          "name": "",
          "type": "uint256"
        }
      ],
      "stateMutability": "view",
      "type": "function"
    },
    {
      "inputs": [
        {
          "internalType": "uint256",
          "name": "assets",
          "type": "uint256"
        }
      ],
      "name": "previewWithdraw",
      "outputs": [
        {
          "internalType": "uint256",
          "name": "",
          "type": "uint256"
        }
      ],
      "stateMutability": "view",
      "type": "function"
    },
    {
      "inputs": [
        {
          "internalType": "uint256",
          "name": "shares",
          "type": "uint256"
        },
        {
          "internalType": "address",
          "name": "receiver",
          "type": "address"
        },
        {
          "internalType": "address",
          "name": "owner",
          "type": "address"
        },
        {
          "internalType": "uint256",
          "name": "minAssets",
          "type": "uint256"
        }
      ],
      "name": "redeem",
      "outputs": [
        {
          "internalType": "uint256",
          "name": "",
          "type": "uint256"
        }
      ],
      "stateMutability": "nonpayable",
      "type": "function"
    },
    {
      "inputs": [
        {
          "internalType": "uint256",
          "name": "shares",
          "type": "uint256"
        },
        {
          "internalType": "address",
          "name": "receiver",
          "type": "address"
        },
        {
          "internalType": "address",
          "name": "owner",
          "type": "address"
        }
      ],
      "name": "redeem",
      "outputs": [
        {
          "internalType": "uint256",
          "name": "assets",
          "type": "uint256"
        }
      ],
      "stateMutability": "nonpayable",
      "type": "function"
    },
    {
      "inputs": [],
      "name": "renounceOwnership",
      "outputs": [],
      "stateMutability": "nonpayable",
      "type": "function"
    },
    {
      "inputs": [
        {
          "internalType": "address",
          "name": "_feeCollector",
          "type": "address"
        }
      ],
      "name": "setFeeCollector",
      "outputs": [],
      "stateMutability": "nonpayable",
      "type": "function"
    },
    {
      "inputs": [
        {
          "internalType": "uint256",
          "name": "newProtocolFee",
          "type": "uint256"
        }
      ],
      "name": "setProtocolFee",
      "outputs": [],
      "stateMutability": "nonpayable",
      "type": "function"
    },
    {
      "inputs": [],
      "name": "storeRatesAtExpiry",
      "outputs": [
        {
          "internalType": "uint256",
          "name": "_ibtRate",
          "type": "uint256"
        },
        {
          "internalType": "uint256",
          "name": "_ptRate",
          "type": "uint256"
        }
      ],
      "stateMutability": "nonpayable",
      "type": "function"
    },
    {
      "inputs": [],
      "name": "symbol",
      "outputs": [
        {
          "internalType": "string",
          "name": "",
          "type": "string"
        }
      ],
      "stateMutability": "view",
      "type": "function"
    },
    {
      "inputs": [],
      "name": "totalAssets",
      "outputs": [
        {
          "internalType": "uint256",
          "name": "",
          "type": "uint256"
        }
      ],
      "stateMutability": "view",
      "type": "function"
    },
    {
      "inputs": [],
      "name": "totalSupply",
      "outputs": [
        {
          "internalType": "uint256",
          "name": "",
          "type": "uint256"
        }
      ],
      "stateMutability": "view",
      "type": "function"
    },
    {
      "inputs": [
        {
          "internalType": "address",
          "name": "to",
          "type": "address"
        },
        {
          "internalType": "uint256",
          "name": "amount",
          "type": "uint256"
        }
      ],
      "name": "transfer",
      "outputs": [
        {
          "internalType": "bool",
          "name": "",
          "type": "bool"
        }
      ],
      "stateMutability": "nonpayable",
      "type": "function"
    },
    {
      "inputs": [
        {
          "internalType": "address",
          "name": "from",
          "type": "address"
        },
        {
          "internalType": "address",
          "name": "to",
          "type": "address"
        },
        {
          "internalType": "uint256",
          "name": "amount",
          "type": "uint256"
        }
      ],
      "name": "transferFrom",
      "outputs": [
        {
          "internalType": "bool",
          "name": "",
          "type": "bool"
        }
      ],
      "stateMutability": "nonpayable",
      "type": "function"
    },
    {
      "inputs": [
        {
          "internalType": "address",
          "name": "newOwner",
          "type": "address"
        }
      ],
      "name": "transferOwnership",
      "outputs": [],
      "stateMutability": "nonpayable",
      "type": "function"
    },
    {
      "inputs": [],
      "name": "unPause",
      "outputs": [],
      "stateMutability": "nonpayable",
      "type": "function"
    },
    {
      "inputs": [],
      "name": "underlying",
      "outputs": [
        {
          "internalType": "address",
          "name": "",
          "type": "address"
        }
      ],
      "stateMutability": "view",
      "type": "function"
    },
    {
      "inputs": [
        {
          "internalType": "address",
          "name": "_user",
          "type": "address"
        }
      ],
      "name": "updateYield",
      "outputs": [
        {
          "internalType": "uint256",
          "name": "updatedUserYieldInIBT",
          "type": "uint256"
        }
      ],
      "stateMutability": "nonpayable",
      "type": "function"
    },
    {
      "inputs": [],
      "name": "updateZapDepositor",
      "outputs": [],
      "stateMutability": "nonpayable",
      "type": "function"
    },
    {
      "inputs": [
        {
          "internalType": "uint256",
          "name": "assets",
          "type": "uint256"
        },
        {
          "internalType": "address",
          "name": "receiver",
          "type": "address"
        },
        {
          "internalType": "address",
          "name": "owner",
          "type": "address"
        },
        {
          "internalType": "uint256",
          "name": "maxShares",
          "type": "uint256"
        }
      ],
      "name": "withdraw",
      "outputs": [
        {
          "internalType": "uint256",
          "name": "",
          "type": "uint256"
        }
      ],
      "stateMutability": "nonpayable",
      "type": "function"
    },
    {
      "inputs": [
        {
          "internalType": "uint256",
          "name": "assets",
          "type": "uint256"
        },
        {
          "internalType": "address",
          "name": "receiver",
          "type": "address"
        },
        {
          "internalType": "address",
          "name": "owner",
          "type": "address"
        }
      ],
      "name": "withdraw",
      "outputs": [
        {
          "internalType": "uint256",
          "name": "shares",
          "type": "uint256"
        }
      ],
      "stateMutability": "nonpayable",
      "type": "function"
    },
    {
      "inputs": [
        {
          "internalType": "address",
          "name": "receiver",
          "type": "address"
        },
        {
          "internalType": "address",
          "name": "owner",
          "type": "address"
        }
      ],
      "name": "withdrawAfterExpiry",
      "outputs": [
        {
          "internalType": "uint256",
          "name": "withdrawnAssets",
          "type": "uint256"
        }
      ],
      "stateMutability": "nonpayable",
      "type": "function"
    },
    {
      "inputs": [
        {
          "internalType": "address",
          "name": "",
          "type": "address"
        }
      ],
      "name": "yieldOfUserInIBT",
      "outputs": [
        {
          "internalType": "uint256",
          "name": "",
          "type": "uint256"
        }
      ],
      "stateMutability": "view",
      "type": "function"
    }
  ],
  "bytecode": {
    "object": "0x60806040523480156200001157600080fd5b506200001c62000022565b620000e3565b600054610100900460ff16156200008f5760405162461bcd60e51b815260206004820152602760248201527f496e697469616c697a61626c653a20636f6e747261637420697320696e697469604482015266616c697a696e6760c81b606482015260840160405180910390fd5b60005460ff90811614620000e1576000805460ff191660ff9081179091556040519081527f7f26b83ff96e1f2b6a682f133852f6798a09c465da95921460cefb38474024989060200160405180910390a15b565b615a4d80620000f36000396000f3fe60806040523480156200001157600080fd5b5060043610620004f95760003560e01c806379ba50971162000295578063b460af94116200016d578063d505accf11620000df578063efd98dc2116200009e578063efd98dc21462000a8e578063f21de1e8146200077a578063f2fde38b1462000a98578063f7b188a51462000aaf578063f90d63db1462000ab9578063fefd6d4914620005b157600080fd5b8063d505accf1462000a20578063d905777e1462000a37578063dd62ed3e1462000a4e578063e30c39781462000a65578063ef8b30f71462000a7757600080fd5b8063c63d75b6116200012c578063c63d75b614620006e5578063c644fe9414620009ec578063c6e6f5921462000621578063ce96cb7714620009ff578063d294f0931462000a1657600080fd5b8063b460af94146200097d578063ba0876521462000994578063bafc0f1414620009ab578063bc157ac114620009c2578063bf2d75fb14620009d957600080fd5b8063a1c5b3e11162000207578063a9059cbb11620001c6578063a9059cbb1462000938578063aca505f7146200071e578063b2b84d94146200094f578063b346db0c1462000966578063b3d7f6b9146200055b57600080fd5b8063a1c5b3e114620008df578063a318c1a414620008e9578063a42dce801462000900578063a457c2d71462000917578063a5a41031146200092e57600080fd5b80638da5cb5b11620002545780638da5cb5b146200087557806394bf804d146200088757806395d89b41146200089e5780639f40a7b314620008a8578063a13c91a314620008bf57600080fd5b806379ba5097146200081c5780637cafde7f14620008265780637ecebe00146200083d578063836a104014620008545780638456cb59146200086b57600080fd5b806338d52e0f11620003d55780635ab1bd5311620003475780636f307dc311620003065780636f307dc314620006a457806370a0823114620007c5578063714d422b14620007f1578063715018a614620007fb57806375ba1dac1462000735578063787dce3d146200080557600080fd5b80635ab1bd53146200077a5780635c975abb146200078d57806367936420146200079a5780636956df1714620007a45780636e553f6514620007ae57600080fd5b806340f5e56b116200039457806340f5e56b146200070757806344ba8add146200071e57806347609bd414620007355780634cdad506146200074c5780634f72ec2f146200076357600080fd5b806338d52e0f14620006a45780633950935114620006b75780633ca7c82d14620006ce578063402d267d14620006e5578063406cf22914620006fd57600080fd5b80631f2b4f24116200046f578063277a04d6116200042e578063277a04d614620006385780632b930fa3146200064f5780632c660fbc1462000659578063313ce567146200067d5780633644e515146200069a57600080fd5b80631f2b4f2414620005df578063204f83f914620005e957806321b62f9614620005f357806323b872dd146200060a57806325a8d87d146200062157600080fd5b80630a28a47711620004bc5780630a28a477146200059a5780630e5f99c514620005b1578063138695a714620005ca57806318160ddd14620005d65780631dc7f521146200055b57600080fd5b806301e1d11414620004fe57806304aa50ad146200051b57806306fdde03146200054257806307a2d13a146200055b578063095ea7b31462000572575b600080fd5b6200050862000ad0565b6040519081526020015b60405180910390f35b610196546001600160a01b03165b6040516001600160a01b03909116815260200162000512565b6200054c62000b58565b6040516200051291906200476b565b620005086200056c36600462004780565b62000bf2565b6200058962000583366004620047b0565b62000c05565b604051901515815260200162000512565b62000508620005ab36600462004780565b62000c1f565b610194546201000090046001600160a01b031662000529565b620005d462000cce565b005b60355462000508565b6101975462000508565b61019d5462000508565b6200050862000604366004620047df565b62000dae565b620005896200061b3660046200481d565b62001077565b620005086200063236600462004780565b620010a1565b620005086200064936600462004863565b620010ae565b62000508620010e9565b620005086200066a3660046200488d565b6101a46020526000908152604090205481565b6200068762001119565b60405160ff909116815260200162000512565b6200050862001190565b610195546001600160a01b031662000529565b62000589620006c8366004620047b0565b6200119c565b62000508620006df36600462004780565b620011c4565b62000508620006f63660046200488d565b5060001990565b62000508620011d1565b620005d4620007183660046200497e565b62001249565b620005086200072f36600462004a3c565b62001772565b620005086200074636600462004a3c565b62001791565b620005086200075d36600462004780565b620017a5565b620005d462000774366004620047df565b6200182d565b6101a1546001600160a01b031662000529565b6101625460ff1662000589565b6101985462000508565b6200050862001876565b62000508620007bf36600462004a5f565b620018a6565b62000508620007d63660046200488d565b6001600160a01b031660009081526033602052604090205490565b61019f5462000508565b620005d4620019b4565b620005d46200081636600462004780565b620019cc565b620005d462001a36565b620005086200083736600462004780565b62001ab4565b620005086200084e3660046200488d565b62001dae565b620005086200086536600462004863565b62001dcd565b620005d462001dff565b60cc546001600160a01b031662000529565b620005086200089836600462004a5f565b62001e13565b6200054c62001e37565b62000508620008b936600462004a87565b62001e48565b620008c962001e85565b6040805192835260208301919091520162000512565b61019b5462000508565b62000508620008fa36600462004a87565b62001f2e565b620005d4620009113660046200488d565b62001f62565b6200058962000928366004620047b0565b62001fdf565b6101a05462000508565b6200058962000949366004620047b0565b6200206b565b62000508620009603660046200488d565b6200207b565b620005086200097736600462004780565b6200209b565b620005086200098e36600462004ad4565b620020a8565b62000508620009a536600462004ad4565b62002428565b62000508620009bc36600462004a5f565b620025ad565b62000508620009d336600462004863565b6200261d565b61019a546001600160a01b031662000529565b61019e546001600160a01b031662000529565b6200050862000a103660046200488d565b6200262c565b620005086200276d565b620005d462000a3136600462004b2b565b62002883565b6200050862000a483660046200488d565b620029f3565b6200050862000a5f366004620047df565b62002a28565b60fe546001600160a01b031662000529565b6200050862000a8836600462004780565b62002a53565b61019c5462000508565b620005d462000aa93660046200488d565b62002a8f565b620005d462002b03565b6200050862000aca3660046200488d565b62002b17565b61019e546040516370a0823160e01b815230600482015260009182916001600160a01b03909116906370a0823190602401602060405180830381865afa15801562000b1f573d6000803e3d6000fd5b505050506040513d601f19601f8201168201806040525081019062000b45919062004ba3565b905062000b5281620011c4565b91505090565b60606036805462000b699062004bbd565b80601f016020809104026020016040519081016040528092919081815260200182805462000b979062004bbd565b801562000be85780601f1062000bbc5761010080835404028352916020019162000be8565b820191906000526020600020905b81548152906001019060200180831162000bca57829003601f168201915b5050505050905090565b600062000bff8262002c04565b92915050565b60003362000c1581858562002c25565b5060019392505050565b600062000c2b62002d4d565b60008062000c3862002d96565b91509150600062000c4b33848462002dd5565b9050600062000c8d670de0b6b3a76400006101a054670de0b6b3a764000062000c75919062004c09565b62000c81908562004c1f565b620006df919062004c4f565b905080861162000ca35750600095945050505050565b62000cba62000cb3828862004c09565b8562001791565b9695505050505050565b505050505b919050565b62000cd862002e1d565b6101a160009054906101000a90046001600160a01b03166001600160a01b0316630e5f99c56040518163ffffffff1660e01b8152600401602060405180830381865afa15801562000d2d573d6000803e3d6000fd5b505050506040513d601f19601f8201168201806040525081019062000d53919062004c72565b610194805462010000600160b01b031916620100006001600160a01b03938416810291909117918290556040519104909116907f1e905582c079dde1c881fd4c1b17901d640dbeb6e590d726a1a3c42cc7da1c3d90600090a2565b600061019d5442101562000dd557604051630cf27fc360e11b815260040160405180910390fd5b62000ddf62002e79565b62000de962002d4d565b6001600160a01b038216331462000e1357604051636db2465f60e01b815260040160405180910390fd5b600062000e2083620029f3565b9050600062000e2f82620017a5565b905062000e40338686848662002ed6565b600062000e4d8562002b17565b6001600160a01b03861660009081526101a4602052604081208190556101a05491925090670de0b6b3a76400009062000e87908462004c1f565b62000e93919062004c4f565b905062000ea08162002f4a565b62000eac818362004c09565b9150866001600160a01b03167f756e93dd7a18a6d27429a3d68659332413f14c4494d1dc68a987dfaba5c1ca8b62000ee484620011c4565b60405190815260200160405180910390a262000f0082620011c4565b62000f0c908462004c92565b61019e54604051632d182be560e21b81529196506001600160a01b03169063b460af949062000f449088908b90309060040162004ca8565b6020604051808303816000875af115801562000f64573d6000803e3d6000fd5b505050506040513d601f19601f8201168201806040525081019062000f8a919062004ba3565b50610196546040516305ea542b60e21b81526001600160a01b0388811660048301529091169063bd6e3f7d90889083906317a950ac90602401602060405180830381865afa15801562000fe1573d6000803e3d6000fd5b505050506040513d601f19601f8201168201806040525081019062001007919062004ba3565b6040516001600160e01b031960e085901b1681526001600160a01b0390921660048301526024820152604401600060405180830381600087803b1580156200104e57600080fd5b505af115801562001063573d6000803e3d6000fd5b505050505050505062000bff600161013055565b6000336200108785828562002f7f565b6200109485858562003000565b60019150505b9392505050565b600062000bff82620031b3565b600080620010bd8585620025ad565b905082811015620010e157604051631733f94560e31b815260040160405180910390fd5b949350505050565b6101945460009060ff16620011115760405163176d08c960e21b815260040160405180910390fd5b5061019c5490565b61019e546040805163313ce56760e01b815290516000926001600160a01b03169163313ce5679160048083019260209291908290030181865afa15801562001165573d6000803e3d6000fd5b505050506040513d601f19601f820116820180604052508101906200118b919062004cc7565b905090565b60006200118b620031d5565b60003362000c15818585620011b2838362002a28565b620011be919062004c92565b62002c25565b600062000bff8262003252565b610196546040516305ea542b60e21b81523360048201526000916200118b916001600160a01b03909116906317a950ac90602401602060405180830381865afa15801562001223573d6000803e3d6000fd5b505050506040513d601f19601f8201168201806040525081019062000837919062004ba3565b600054610100900460ff16158080156200126a5750600054600160ff909116105b80620012865750303b15801562001286575060005460ff166001145b620012ef5760405162461bcd60e51b815260206004820152602e60248201527f496e697469616c697a61626c653a20636f6e747261637420697320616c72656160448201526d191e481a5b9a5d1a585b1a5e995960921b60648201526084015b60405180910390fd5b6000805460ff19166001179055801562001313576000805461ff0019166101001790555b6001600160a01b03821615806200133157506001600160a01b038616155b156200135057604051633efa09af60e01b815260040160405180910390fd5b856001600160a01b03166338d52e0f6040518163ffffffff1660e01b8152600401602060405180830381865afa1580156200138f573d6000803e3d6000fd5b505050506040513d601f19601f82011682018060405250810190620013b5919062004c72565b61019580546001600160a01b0319166001600160a01b0392909216919091179055620013e2428662004c92565b61019d819055506000866001600160a01b03166395d89b416040518163ffffffff1660e01b8152600401600060405180830381865afa1580156200142a573d6000803e3d6000fd5b505050506040513d6000823e601f3d908101601f1916820160405262001454919081019062004ce7565b90506000620014678261019d54620032c5565b9050620014758a8262003331565b620014808a6200336b565b6200148a620033ba565b62001494620033ee565b6200149e62003422565b876001600160a01b031663313ce5676040518163ffffffff1660e01b8152600401602060405180830381865afa158015620014dd573d6000803e3d6000fd5b505050506040513d601f19601f8201168201806040525081019062001503919062004cc7565b6200151090600a62004e5b565b61019755610195546040805163313ce56760e01b815290516001600160a01b039092169163313ce567916004808201926020929091908290030181865afa15801562001560573d6000803e3d6000fd5b505050506040513d601f19601f8201168201806040525081019062001586919062004cc7565b6200159390600a62004e5b565b6101985561019e80546001600160a01b0319166001600160a01b038a1617905561019d54600090620015c790849062003456565b9050620015f96040518060400160405280600b81526020016a2cb4b2b632102a37b5b2b760a91b8152508287620034df565b61019680546001600160a01b0319166001600160a01b0392909216919091179055610197546200162990620011c4565b61019c556101985461019b55670de0b6b3a76400008711156200165f5760405163585727cf60e11b815260040160405180910390fd5b6101a08790556101a180546001600160a01b0388166001600160a01b03199091168117909155610194805461ff00191661010017905560408051630e5f99c560e01b81529051630e5f99c5916004808201926020929091908290030181865afa158015620016d1573d6000803e3d6000fd5b505050506040513d601f19601f82011682018060405250810190620016f7919062004c72565b61019460026101000a8154816001600160a01b0302191690836001600160a01b03160217905550505050801562001768576000805461ff0019169055604051600181527f7f26b83ff96e1f2b6a682f133852f6798a09c465da95921460cefb38474024989060200160405180910390a15b5050505050505050565b6101975460009062001785838562004c1f565b6200109a919062004c4f565b600081610197548462001785919062004c1f565b600061019d54421015620017cc57604051630cf27fc360e11b815260040160405180910390fd5b620017d662002d4d565b6101945460ff161562001814576000620017f48361019b5462001772565b90506000620018078261019c5462001791565b9050620010e181620011c4565b60405163176d08c960e21b815260040160405180910390fd5b610196546001600160a01b031633146200185a5760405163f65cb3c760e01b815260040160405180910390fd5b620018658262002b17565b50620018718162002b17565b505050565b6101945460009060ff166200189e5760405163176d08c960e21b815260040160405180910390fd5b5061019b5490565b600061019d54421115620018cd5760405163ba47162960e01b815260040160405180910390fd5b620018d762002e79565b620018e162002d4d565b61019554620018fc906001600160a01b0316333086620035ab565b6101955461019e546200191d916001600160a01b0390811691168562003618565b61019e54604051636e553f6560e01b8152600481018590523060248201526000916001600160a01b031690636e553f65906044016020604051808303816000875af115801562001971573d6000803e3d6000fd5b505050506040513d601f19601f8201168201806040525081019062001997919062004ba3565b9050620019a58184620036d1565b91505062000bff600161013055565b620019be62002e1d565b620019ca6000620037a8565b565b620019d662002e1d565b670de0b6b3a764000081111562001a005760405163585727cf60e11b815260040160405180910390fd5b6101a0546040518291907fb404cac19fb1cbeff98d325795b08886e3cd8fe8cb1a2f193aac66f13fb239c390600090a36101a055565b60fe5433906001600160a01b0316811462001aa65760405162461bcd60e51b815260206004820152602960248201527f4f776e61626c6532537465703a2063616c6c6572206973206e6f7420746865206044820152683732bb9037bbb732b960b91b6064820152608401620012e6565b62001ab181620037a8565b50565b600061019d5442111562001adb5760405163ba47162960e01b815260040160405180910390fd5b33600062001ae98262002b17565b610196546040516305ea542b60e21b81526001600160a01b038581166004830152929350600092909116906317a950ac90602401602060405180830381865afa15801562001b3b573d6000803e3d6000fd5b505050506040513d601f19601f8201168201806040525081019062001b61919062004ba3565b9050811580159062001b7b57508415158062001b7b575080155b1562001da35780851162001b90578462001b92565b805b94506000811562001bbf5762001bb9610197548762001bb2919062004c1f565b83620037c3565b62001bc4565b610197545b6101975490915062001bd7828562004c1f565b62001be3919062004c4f565b6001600160a01b03851660009081526101a4602052604090205490935083111562001c21576040516333d0fe7160e21b815260040160405180910390fd5b6001600160a01b03841660009081526101a460205260408120805485929062001c4c90849062004c09565b90915550506101a054600090670de0b6b3a76400009062001c6e908662004c1f565b62001c7a919062004c4f565b905062001c878162002f4a565b62001c93818562004c09565b9350600062001ca285620011c4565b9050856001600160a01b03167f756e93dd7a18a6d27429a3d68659332413f14c4494d1dc68a987dfaba5c1ca8b8260405162001ce091815260200190565b60405180910390a261019454610100900460ff1662001d1757610194805461ff001916610100179055955062000cc9945050505050565b61019e54604051632d182be560e21b81526001600160a01b039091169063b460af949062001d4e9084908a90309060040162004ca8565b6020604051808303816000875af115801562001d6e573d6000803e3d6000fd5b505050506040513d601f19601f8201168201806040525081019062001d94919062004ba3565b50955062000cc9945050505050565b506000949350505050565b6001600160a01b03811660009081526099602052604081205462000bff565b60008062001ddc858562001e13565b905082811115620010e15760405162b1b7d560e01b815260040160405180910390fd5b62001e0962002e1d565b620019ca62003802565b60008062001e218462000bf2565b905062001e2f8184620018a6565b509392505050565b60606037805462000b699062004bbd565b60008062001e5886868662002428565b90508281101562001e7c57604051636eacc14760e11b815260040160405180910390fd5b95945050505050565b60008061019d5442101562001ead57604051630cf27fc360e11b815260040160405180910390fd5b6101945460ff161562001ed3576040516333072e9d60e11b815260040160405180910390fd5b610194805460ff1916600117905562001eeb62003860565b61019c81905561019b829055604051909350909150819083907f86f6956dfa46dcc6315cbb9f8917848f94efdedd075e2500cb1edfcf9102917290600090a39091565b60008062001f3e868686620020a8565b90508281111562001e7c57604051634e1bd77160e11b815260040160405180910390fd5b62001f6c62002e1d565b6001600160a01b03811662001f9457604051633efa09af60e01b815260040160405180910390fd5b61019a80546001600160a01b0319166001600160a01b0383169081179091556040517ff97f0ac0b801f3b371667c7a2c930d65f33a0a01307fab585a6aa2bcf111252290600090a250565b6000338162001fef828662002a28565b905083811015620020515760405162461bcd60e51b815260206004820152602560248201527f45524332303a2064656372656173656420616c6c6f77616e63652062656c6f77604482015264207a65726f60d81b6064820152608401620012e6565b62002060828686840362002c25565b506001949350505050565b60003362000c1581858562003000565b60008060006200208a62002d96565b91509150620010e184838362002dd5565b600062000bff82620038b7565b600061019d54421115620020cf5760405163ba47162960e01b815260040160405180910390fd5b620020d962002d4d565b620020e362002e79565b6001600160a01b03821633146200210d57604051636db2465f60e01b815260040160405180910390fd5b60006200211a8362002b17565b9050600062002129846200262c565b9050858110156200214c5760405162b1b7d560e01b815260040160405180910390fd5b610196546040516305ea542b60e21b81526001600160a01b03868116600483015260009216906317a950ac90602401602060405180830381865afa15801562002199573d6000803e3d6000fd5b505050506040513d601f19601f82011682018060405250810190620021bf919062004ba3565b90506000620021e3866001600160a01b031660009081526033602052604090205490565b9050818111620021f45780620021f6565b815b9050600062002209620009778362000bf2565b90508060000362002223576000955050505050506200241c565b6000670de0b6b3a76400006101a054876200223f919062004c1f565b6200224b919062004c4f565b905060006200225a8b6200209b565b905060006200226a838962004c09565b821115620022ad5750848362002281848a62004c09565b6200228d908462004c09565b62002299908762004c1f565b620022a5919062004c4f565b985062002305565b620022b9838962004c09565b600003620022da576040516344cc445360e11b815260040160405180910390fd5b620022e6838962004c09565b620022f2878462004c1f565b620022fe919062004c4f565b9050600098505b610194805461ff00191690556200231c8162001ab4565b506101965460405163bd6e3f7d60e01b81526001600160a01b038c81166004830152602482018c90529091169063bd6e3f7d90604401600060405180830381600087803b1580156200236d57600080fd5b505af115801562002382573d6000803e3d6000fd5b5050505062002395338c8c8f8d62002ed6565b61019e54604051632d182be560e21b81526001600160a01b039091169063b460af9490620023cc908f908f90309060040162004ca8565b6020604051808303816000875af1158015620023ec573d6000803e3d6000fd5b505050506040513d601f19601f8201168201806040525081019062002412919062004ba3565b5050505050505050505b6200109a600161013055565b600061019d544210156200244f57604051630cf27fc360e11b815260040160405180910390fd5b6200245962002e79565b6200246362002d4d565b6001600160a01b03821633146200248d57604051636db2465f60e01b815260040160405180910390fd5b6200249882620029f3565b841115620024b957604051634e1bd77160e11b815260040160405180910390fd5b620024c484620017a5565b9050620024d5338484848862002ed6565b61019e54604051632d182be560e21b81526001600160a01b039091169063b460af94906200250c9084908790309060040162004ca8565b6020604051808303816000875af11580156200252c573d6000803e3d6000fd5b505050506040513d601f19601f8201168201806040525081019062002552919062004ba3565b50826001600160a01b0316826001600160a01b03167fd12200efa34901b99367694174c3b0d32c99585fdf37c7c26892136ddd0836d9836040516200259991815260200190565b60405180910390a36200109a600161013055565b600061019d54421115620025d45760405163ba47162960e01b815260040160405180910390fd5b620025de62002d4d565b620025e862002e79565b61019e5462002603906001600160a01b0316333086620035ab565b6200260f8383620036d1565b905062000bff600161013055565b600080620010bd8585620018a6565b60006200263862002d4d565b6001600160a01b038216600090815260336020526040812054610196546040516305ea542b60e21b81526001600160a01b038681166004830152929350600092909116906317a950ac90602401602060405180830381865afa158015620026a3573d6000803e3d6000fd5b505050506040513d601f19601f82011682018060405250810190620026c9919062004ba3565b9050600061019d544211620026f157818311620026e75782620026e9565b815b9050620026f4565b50815b6000806200270162002d96565b9150915060006200271488848462002dd5565b905062002722848462001772565b62002755670de0b6b3a7640000836101a054670de0b6b3a764000062002749919062004c09565b62000c81919062004c1f565b62002761919062004c92565b98975050505050505050565b61019a546000906001600160a01b031633146200279d5760405163a97a58a160e01b815260040160405180910390fd5b61019f546000620027ae82620011c4565b600061019f5561019e5461019a54604051632d182be560e21b81529293506001600160a01b039182169263b460af9492620027f3928692911690309060040162004ca8565b6020604051808303816000875af115801562002813573d6000803e3d6000fd5b505050506040513d601f19601f8201168201806040525081019062002839919062004ba3565b5061019a546040518381526001600160a01b03909116907f20ca5094f3a20c321cbe4123d0f01b276b81df0fa24cd4d83d9253956035d8639060200160405180910390a292915050565b83421115620028d55760405162461bcd60e51b815260206004820152601d60248201527f45524332305065726d69743a206578706972656420646561646c696e650000006044820152606401620012e6565b60007f6e71edae12b1b97f4d1f60370fef10105fa2faae0126114a169c64845d6126c9888888620029068c620038eb565b6040805160208101969096526001600160a01b0394851690860152929091166060840152608083015260a082015260c0810186905260e0016040516020818303038152906040528051906020012090506000620029638262003913565b90506000620029758287878762003964565b9050896001600160a01b0316816001600160a01b031614620029da5760405162461bcd60e51b815260206004820152601e60248201527f45524332305065726d69743a20696e76616c6964207369676e617475726500006044820152606401620012e6565b620029e78a8a8a62002c25565b50505050505050505050565b600061019d5442101562002a0957600062000bff565b6001600160a01b03821660009081526033602052604090205462000bff565b6001600160a01b03918216600090815260346020908152604080832093909416825291909152205490565b600061019d5442111562002a7a5760405163ba47162960e01b815260040160405180910390fd5b62002a8462002d4d565b62000bff82620010a1565b62002a9962002e1d565b60fe80546001600160a01b0383166001600160a01b0319909116811790915562002acb60cc546001600160a01b031690565b6001600160a01b03167f38d16b8cac22d99fc7c124b9cd0de2d3fa1faef420bfe791d8c362d765e2270060405160405180910390a350565b62002b0d62002e1d565b620019ca62003990565b600080600062002b26620039cd565b6001600160a01b03861660009081526101a260209081526040808320546101a39092529091205492945090925090811562002bb25762002b6a868385848862003a11565b6001600160a01b03871660008181526101a460205260408082208490555192975087927f18cb9436df0c2ab8f3a0284742076c6ddf8a478776316b4b0d008d79372354909190a35b82821462002bd7576001600160a01b03861660009081526101a2602052604090208390555b83811462000cc4576001600160a01b03861660009081526101a36020526040902084905550505050919050565b60008062002c1162002d96565b506101975490915062001785828562004c1f565b6001600160a01b03831662002c895760405162461bcd60e51b8152602060048201526024808201527f45524332303a20617070726f76652066726f6d20746865207a65726f206164646044820152637265737360e01b6064820152608401620012e6565b6001600160a01b03821662002cec5760405162461bcd60e51b815260206004820152602260248201527f45524332303a20617070726f766520746f20746865207a65726f206164647265604482015261737360f01b6064820152608401620012e6565b6001600160a01b0383811660008181526034602090815260408083209487168084529482529182902085905590518481527f8c5be1e5ebec7d5bd14f71427d1e84f3dd0314c0f7b2291e5b200ac8c7c3b925910160405180910390a3505050565b6101625460ff1615620019ca5760405162461bcd60e51b815260206004820152601060248201526f14185d5cd8589b194e881c185d5cd95960821b6044820152606401620012e6565b60008061019d54421062002dbf576101945460ff16156200181457505061019b5461019c549091565b62002dc962003860565b915091509091565b9091565b6001600160a01b03831660009081526101a260209081526040808320546101a3909252822054811562002e145762002e11868386848962003a11565b92505b50509392505050565b60cc546001600160a01b03163314620019ca5760405162461bcd60e51b815260206004820181905260248201527f4f776e61626c653a2063616c6c6572206973206e6f7420746865206f776e65726044820152606401620012e6565b6002610130540362002ece5760405162461bcd60e51b815260206004820152601f60248201527f5265656e7472616e637947756172643a207265656e7472616e742063616c6c006044820152606401620012e6565b600261013055565b62002ee2838262003c1f565b826001600160a01b0316846001600160a01b0316866001600160a01b03167ffbde797d201c681b91056529119e0b02407c7bb96a4a2c75c01fc9667232c8db858560405162002f3b929190918252602082015260400190565b60405180910390a45050505050565b8061019f5462002f5b919062004c92565b61019f556101995462002f7090829062004c92565b6101995550565b600161013055565b600062002f8d848462002a28565b9050600019811462002ffa578181101562002feb5760405162461bcd60e51b815260206004820152601d60248201527f45524332303a20696e73756666696369656e7420616c6c6f77616e63650000006044820152606401620012e6565b62002ffa848484840362002c25565b50505050565b6001600160a01b038316620030665760405162461bcd60e51b815260206004820152602560248201527f45524332303a207472616e736665722066726f6d20746865207a65726f206164604482015264647265737360d81b6064820152608401620012e6565b6001600160a01b038216620030ca5760405162461bcd60e51b815260206004820152602360248201527f45524332303a207472616e7366657220746f20746865207a65726f206164647260448201526265737360e81b6064820152608401620012e6565b6001600160a01b03831660009081526033602052604090205481811015620031445760405162461bcd60e51b815260206004820152602660248201527f45524332303a207472616e7366657220616d6f756e7420657863656564732062604482015265616c616e636560d01b6064820152608401620012e6565b6001600160a01b0380851660008181526033602052604080822086860390559286168082529083902080548601905591517fddf252ad1be2c89b69c2b068fc378daa952ba7f163c4a11628f55a4df523b3ef90620031a59086815260200190565b60405180910390a362002ffa565b600080620031c062002d96565b50905080610197548462001785919062004c1f565b60006200118b7f8b73c3c69bb8fe3d512ecc4cf759cc79239f7b179b0ffacaa9a75d522b39400f6200320660655490565b6066546040805160208101859052908101839052606081018290524660808201523060a082015260009060c0016040516020818303038152906040528051906020012090509392505050565b61019e546040516303d1689d60e11b8152600481018390526000916001600160a01b0316906307a2d13a906024015b602060405180830381865afa1580156200329f573d6000803e3d6000fd5b505050506040513d601f19601f8201168201806040525081019062000bff919062004ba3565b60606000620032d48362003d57565b90506000620032fd85604051806040016040528060018152602001602d60f81b81525062003e9f565b905062001e7c6200332a6040518060400160405280600381526020016250542d60e81b8152508362003e9f565b8362003e9f565b600054610100900460ff166200335b5760405162461bcd60e51b8152600401620012e69062004e6c565b62003367828262003ecd565b5050565b600054610100900460ff16620033955760405162461bcd60e51b8152600401620012e69062004e6c565b62001ab181604051806040016040528060018152602001603160f81b81525062003f14565b600054610100900460ff16620033e45760405162461bcd60e51b8152600401620012e69062004e6c565b620019ca62003f58565b600054610100900460ff16620034185760405162461bcd60e51b8152600401620012e69062004e6c565b620019ca62003f8d565b600054610100900460ff166200344c5760405162461bcd60e51b8152600401620012e69062004e6c565b620019ca62003fc4565b60606000620034658362003d57565b905060006200348e85604051806040016040528060018152602001602d60f81b81525062003e9f565b905062001e7c6200332a6040518060400160405280600381526020016250542d60e81b815250620034d9604051806040016040528060018152602001607960f81b8152508562003e9f565b62003e9f565b6000808263077f224a60e01b868630604051602401620035029392919062004eb7565b60408051601f198184030181529181526020820180516001600160e01b03166001600160e01b0319909416939093179092529051620035419062004709565b6200354e92919062004ef9565b604051809103906000f0801580156200356b573d6000803e3d6000fd5b506040519091506001600160a01b038216907f10aa3cadb8a18de745ab06d0fba238e60656c418d78284b27ab6ea75b7b789e490600090a2949350505050565b6040516001600160a01b038085166024830152831660448201526064810182905262002ffa9085906323b872dd60e01b906084015b60408051601f198184030181529190526020810180516001600160e01b03166001600160e01b03199093169290921790915262003fee565b604051636eb1769f60e11b81523060048201526001600160a01b038381166024830152600091839186169063dd62ed3e90604401602060405180830381865afa1580156200366a573d6000803e3d6000fd5b505050506040513d601f19601f8201168201806040525081019062003690919062004ba3565b6200369c919062004c92565b6040516001600160a01b03851660248201526044810182905290915062002ffa90859063095ea7b360e01b90606401620035e0565b6000620036de8262002b17565b506000620036ec84620011c4565b9050620036f981620010a1565b610194549092506201000090046001600160a01b031633036200372a576200372433338385620040c7565b62003738565b6200373833848385620040c7565b610196546040516340c10f1960e01b81526001600160a01b03858116600483015260248201859052909116906340c10f1990604401600060405180830381600087803b1580156200378857600080fd5b505af11580156200379d573d6000803e3d6000fd5b505050505092915050565b60fe80546001600160a01b031916905562001ab18162004130565b60008215620037f95781620037da60018562004c09565b620037e6919062004c4f565b620037f390600162004c92565b6200109a565b50600092915050565b6200380c62002d4d565b610162805460ff191660011790557f62e78cea01bee320cd4e420270b5ea74000d11b0c9f74754ebdbfc544b05a258620038433390565b6040516001600160a01b03909116815260200160405180910390a1565b60008060006200387361019754620011c4565b9050600061019c5482106200388c5761019b54620038ad565b61019c548261019b54620038a1919062004c1f565b620038ad919062004c4f565b9491935090915050565b61019e546040516363737ac960e11b8152600481018390526000916001600160a01b03169063c6e6f5929060240162003281565b6001600160a01b03811660009081526099602052604090208054600181018255905b50919050565b600062000bff62003923620031d5565b8360405161190160f01b6020820152602281018390526042810182905260009060620160405160208183030381529060405280519060200120905092915050565b6000806000620039778787878762004182565b9150915062003986816200424b565b5095945050505050565b6200399a620043a8565b610162805460ff191690557f5db9ee0a495bf2e6ff9c91a7834c1ba4fdd244a5e8aa4e537bd38aeae4b073aa3362003843565b600080620039da62002d96565b61019d549193509150421162002dd15761019c548114620039fc5761019c8190555b61019b54821462002dd15761019b8290559091565b6001600160a01b0385811660008181526101a46020526040808220546101965491516305ea542b60e21b8152600481019490945291938493849392849216906317a950ac90602401602060405180830381865afa15801562003a77573d6000803e3d6000fd5b505050506040513d601f19601f8201168201806040525081019062003a9d919062004ba3565b9050600062003ab862003ab1838a62001772565b8b62001791565b9050868814801562003ac957508989145b1562003add57829550505050505062001e7c565b868814801562003aec57508989115b1562003b235762003b0d8162003b038c8c62004c09565b61019854620043f4565b945062003b1b858a62001791565b935062003c04565b8688111562003bec5789891062003b6a5762003b458162003b038c8c62004c09565b62003b568362003b038a8c62004c09565b62003b62919062004c92565b945062003be0565b600062003b7d8362003b038a8c62004c09565b9050600062003ba762003b918c8e62004c09565b62003b9d908562004c1f565b61019854620037c3565b905081811162003bc35762003bbd818362004c09565b62003bc6565b60005b96506064871062003bd8578662003bdb565b60005b965050505b62003b1b858a62001791565b60405162101da360e61b815260040160405180910390fd5b62003c10848462004c92565b9b9a5050505050505050505050565b6001600160a01b03821662003c815760405162461bcd60e51b815260206004820152602160248201527f45524332303a206275726e2066726f6d20746865207a65726f206164647265736044820152607360f81b6064820152608401620012e6565b6001600160a01b0382166000908152603360205260409020548181101562003cf75760405162461bcd60e51b815260206004820152602260248201527f45524332303a206275726e20616d6f756e7420657863656564732062616c616e604482015261636560f01b6064820152608401620012e6565b6001600160a01b03831660008181526033602090815260408083208686039055603580548790039055518581529192917fddf252ad1be2c89b69c2b068fc378daa952ba7f163c4a11628f55a4df523b3ef910160405180910390a3505050565b60608160000362003d7f5750506040805180820190915260018152600360fc1b602082015290565b8160005b811562003daf578062003d968162004f1f565b915062003da79050600a8362004c4f565b915062003d83565b60008167ffffffffffffffff81111562003dcd5762003dcd620048ad565b6040519080825280601f01601f19166020018201604052801562003df8576020820181803683370190505b509050815b851562003e965762003e1160018262004c09565b9050600062003e22600a8862004c4f565b62003e2f90600a62004c1f565b62003e3b908862004c09565b62003e4890603062004f3b565b905060008160f81b90508084848151811062003e685762003e6862004f57565b60200101906001600160f81b031916908160001a90535062003e8c600a8962004c4f565b9750505062003dfd565b50949350505050565b6060828260405160200162003eb692919062004f6d565b604051602081830303815290604052905092915050565b600054610100900460ff1662003ef75760405162461bcd60e51b8152600401620012e69062004e6c565b603662003f05838262004ff2565b50603762001871828262004ff2565b600054610100900460ff1662003f3e5760405162461bcd60e51b8152600401620012e69062004e6c565b815160209283012081519190920120606591909155606655565b600054610100900460ff1662003f825760405162461bcd60e51b8152600401620012e69062004e6c565b620019ca33620037a8565b600054610100900460ff1662003fb75760405162461bcd60e51b8152600401620012e69062004e6c565b610162805460ff19169055565b600054610100900460ff1662002f775760405162461bcd60e51b8152600401620012e69062004e6c565b600062004045826040518060400160405280602081526020017f5361666545524332303a206c6f772d6c6576656c2063616c6c206661696c6564815250856001600160a01b0316620044a99092919063ffffffff16565b805190915015620018715780806020019051810190620040669190620050bf565b620018715760405162461bcd60e51b815260206004820152602a60248201527f5361666545524332303a204552433230206f7065726174696f6e20646964206e6044820152691bdd081cdd58d8d9595960b21b6064820152608401620012e6565b620040d38382620044ba565b826001600160a01b0316846001600160a01b03167fdcbc1c05240f31ff3ad067ef1ee35ce4997762752e3a095284754544f4c709d7848460405162004122929190918252602082015260400190565b60405180910390a350505050565b60cc80546001600160a01b038381166001600160a01b0319831681179093556040519116919082907f8be0079c531659141344cd1fd0a4f28419497f9722a3daafe3b4186f6b6457e090600090a35050565b6000807f7fffffffffffffffffffffffffffffff5d576e7357a4501ddfe92f46681b20a0831115620041bb575060009050600362004242565b6040805160008082526020820180845289905260ff881692820192909252606081018690526080810185905260019060a0016020604051602081039080840390855afa15801562004210573d6000803e3d6000fd5b5050604051601f1901519150506001600160a01b0381166200423b5760006001925092505062004242565b9150600090505b94509492505050565b6000816004811115620042625762004262620050e3565b036200426b5750565b6001816004811115620042825762004282620050e3565b03620042d15760405162461bcd60e51b815260206004820152601860248201527f45434453413a20696e76616c6964207369676e617475726500000000000000006044820152606401620012e6565b6002816004811115620042e857620042e8620050e3565b03620043375760405162461bcd60e51b815260206004820152601f60248201527f45434453413a20696e76616c6964207369676e6174757265206c656e677468006044820152606401620012e6565b60038160048111156200434e576200434e620050e3565b0362001ab15760405162461bcd60e51b815260206004820152602260248201527f45434453413a20696e76616c6964207369676e6174757265202773272076616c604482015261756560f01b6064820152608401620012e6565b6101625460ff16620019ca5760405162461bcd60e51b815260206004820152601460248201527314185d5cd8589b194e881b9bdd081c185d5cd95960621b6044820152606401620012e6565b6000808060001985870985870292508281108382030391505080600003620044335783828162004428576200442862004c39565b04925050506200109a565b8084116200444057600080fd5b60008486880960026001871981018816978890046003810283188082028403028082028403028082028403028082028403028082028403029081029092039091026000889003889004909101858311909403939093029303949094049190911702949350505050565b6060620010e184846000856200457f565b6001600160a01b038216620045125760405162461bcd60e51b815260206004820152601f60248201527f45524332303a206d696e7420746f20746865207a65726f2061646472657373006044820152606401620012e6565b806035600082825462004526919062004c92565b90915550506001600160a01b0382166000818152603360209081526040808320805486019055518481527fddf252ad1be2c89b69c2b068fc378daa952ba7f163c4a11628f55a4df523b3ef910160405180910390a35050565b606082471015620045e25760405162461bcd60e51b815260206004820152602660248201527f416464726573733a20696e73756666696369656e742062616c616e636520666f6044820152651c8818d85b1b60d21b6064820152608401620012e6565b600080866001600160a01b03168587604051620046009190620050f9565b60006040518083038185875af1925050503d80600081146200463f576040519150601f19603f3d011682016040523d82523d6000602084013e62004644565b606091505b5091509150620046578783838762004662565b979650505050505050565b60608315620046d6578251600003620046ce576001600160a01b0385163b620046ce5760405162461bcd60e51b815260206004820152601d60248201527f416464726573733a2063616c6c20746f206e6f6e2d636f6e74726163740000006044820152606401620012e6565b5081620010e1565b620010e18383815115620046ed5781518083602001fd5b8060405162461bcd60e51b8152600401620012e691906200476b565b610900806200511883390190565b60005b83811015620047345781810151838201526020016200471a565b50506000910152565b600081518084526200475781602086016020860162004717565b601f01601f19169290920160200192915050565b6020815260006200109a60208301846200473d565b6000602082840312156200479357600080fd5b5035919050565b6001600160a01b038116811462001ab157600080fd5b60008060408385031215620047c457600080fd5b8235620047d1816200479a565b946020939093013593505050565b60008060408385031215620047f357600080fd5b823562004800816200479a565b9150602083013562004812816200479a565b809150509250929050565b6000806000606084860312156200483357600080fd5b833562004840816200479a565b9250602084013562004852816200479a565b929592945050506040919091013590565b6000806000606084860312156200487957600080fd5b83359250602084013562004852816200479a565b600060208284031215620048a057600080fd5b81356200109a816200479a565b634e487b7160e01b600052604160045260246000fd5b604051601f8201601f1916810167ffffffffffffffff81118282101715620048ef57620048ef620048ad565b604052919050565b600067ffffffffffffffff821115620049145762004914620048ad565b50601f01601f191660200190565b600082601f8301126200493457600080fd5b81356200494b6200494582620048f7565b620048c3565b8181528460208386010111156200496157600080fd5b816020850160208301376000918101602001919091529392505050565b600080600080600080600060e0888a0312156200499a57600080fd5b873567ffffffffffffffff80821115620049b357600080fd5b620049c18b838c0162004922565b985060208a0135915080821115620049d857600080fd5b50620049e78a828b0162004922565b9650506040880135620049fa816200479a565b9450606088013593506080880135925060a088013562004a1a816200479a565b915060c088013562004a2c816200479a565b8091505092959891949750929550565b6000806040838503121562004a5057600080fd5b50508035926020909101359150565b6000806040838503121562004a7357600080fd5b82359150602083013562004812816200479a565b6000806000806080858703121562004a9e57600080fd5b84359350602085013562004ab2816200479a565b9250604085013562004ac4816200479a565b9396929550929360600135925050565b60008060006060848603121562004aea57600080fd5b83359250602084013562004afe816200479a565b9150604084013562004b10816200479a565b809150509250925092565b60ff8116811462001ab157600080fd5b600080600080600080600060e0888a03121562004b4757600080fd5b873562004b54816200479a565b9650602088013562004b66816200479a565b95506040880135945060608801359350608088013562004b868162004b1b565b9699959850939692959460a0840135945060c09093013592915050565b60006020828403121562004bb657600080fd5b5051919050565b600181811c9082168062004bd257607f821691505b6020821081036200390d57634e487b7160e01b600052602260045260246000fd5b634e487b7160e01b600052601160045260246000fd5b8181038181111562000bff5762000bff62004bf3565b808202811582820484141762000bff5762000bff62004bf3565b634e487b7160e01b600052601260045260246000fd5b60008262004c6d57634e487b7160e01b600052601260045260246000fd5b500490565b60006020828403121562004c8557600080fd5b81516200109a816200479a565b8082018082111562000bff5762000bff62004bf3565b9283526001600160a01b03918216602084015216604082015260600190565b60006020828403121562004cda57600080fd5b81516200109a8162004b1b565b60006020828403121562004cfa57600080fd5b815167ffffffffffffffff81111562004d1257600080fd5b8201601f8101841362004d2457600080fd5b805162004d356200494582620048f7565b81815285602083850101111562004d4b57600080fd5b62001e7c82602083016020860162004717565b600181815b8085111562004d9f57816000190482111562004d835762004d8362004bf3565b8085161562004d9157918102915b93841c939080029062004d63565b509250929050565b60008262004db85750600162000bff565b8162004dc75750600062000bff565b816001811462004de0576002811462004deb5762004e0b565b600191505062000bff565b60ff84111562004dff5762004dff62004bf3565b50506001821b62000bff565b5060208310610133831016604e8410600b841016171562004e30575081810a62000bff565b62004e3c838362004d5e565b806000190482111562004e535762004e5362004bf3565b029392505050565b60006200109a60ff84168362004da7565b6020808252602b908201527f496e697469616c697a61626c653a20636f6e7472616374206973206e6f74206960408201526a6e697469616c697a696e6760a81b606082015260800190565b60608152600062004ecc60608301866200473d565b828103602084015262004ee081866200473d565b91505060018060a01b0383166040830152949350505050565b6001600160a01b0383168152604060208201819052600090620010e1908301846200473d565b60006001820162004f345762004f3462004bf3565b5060010190565b60ff818116838216019081111562000bff5762000bff62004bf3565b634e487b7160e01b600052603260045260246000fd5b6000835162004f8181846020880162004717565b83519083019062004f9781836020880162004717565b01949350505050565b601f8211156200187157600081815260208120601f850160051c8101602086101562004fc95750805b601f850160051c820191505b8181101562004fea5782815560010162004fd5565b505050505050565b815167ffffffffffffffff8111156200500f576200500f620048ad565b620050278162005020845462004bbd565b8462004fa0565b602080601f8311600181146200505f5760008415620050465750858301515b600019600386901b1c1916600185901b17855562004fea565b600085815260208120601f198616915b8281101562005090578886015182559484019460019091019084016200506f565b5085821015620050af5787850151600019600388901b60f8161c191681555b5050505050600190811b01905550565b600060208284031215620050d257600080fd5b815180151581146200109a57600080fd5b634e487b7160e01b600052602160045260246000fd5b600082516200510d81846020870162004717565b919091019291505056fe60806040526040516109003803806109008339810160408190526100229161045b565b61002e82826000610035565b5050610585565b61003e83610100565b6040516001600160a01b038416907f1cf3b03a6cf19fa2baba4df148e9dcabedea7f8a5c07840e207e5c089be95d3e90600090a260008251118061007f5750805b156100fb576100f9836001600160a01b0316635c60da1b6040518163ffffffff1660e01b8152600401602060405180830381865afa1580156100c5573d6000803e3d6000fd5b505050506040513d601f19601f820116820180604052508101906100e9919061051b565b836102a360201b6100291760201c565b505b505050565b610113816102cf60201b6100551760201c565b6101725760405162461bcd60e51b815260206004820152602560248201527f455243313936373a206e657720626561636f6e206973206e6f74206120636f6e6044820152641d1c9858dd60da1b60648201526084015b60405180910390fd5b6101e6816001600160a01b0316635c60da1b6040518163ffffffff1660e01b8152600401602060405180830381865afa1580156101b3573d6000803e3d6000fd5b505050506040513d601f19601f820116820180604052508101906101d7919061051b565b6102cf60201b6100551760201c565b61024b5760405162461bcd60e51b815260206004820152603060248201527f455243313936373a20626561636f6e20696d706c656d656e746174696f6e206960448201526f1cc81b9bdd08184818dbdb9d1c9858dd60821b6064820152608401610169565b806102827fa3f0ad74e5423aebfd80d3ef4346578335a9a72aeaee59ff6cb3582b35133d5060001b6102de60201b6100641760201c565b80546001600160a01b0319166001600160a01b039290921691909117905550565b60606102c883836040518060600160405280602781526020016108d9602791396102e1565b9392505050565b6001600160a01b03163b151590565b90565b6060600080856001600160a01b0316856040516102fe9190610536565b600060405180830381855af49150503d8060008114610339576040519150601f19603f3d011682016040523d82523d6000602084013e61033e565b606091505b5090925090506103508683838761035a565b9695505050505050565b606083156103c95782516000036103c2576001600160a01b0385163b6103c25760405162461bcd60e51b815260206004820152601d60248201527f416464726573733a2063616c6c20746f206e6f6e2d636f6e74726163740000006044820152606401610169565b50816103d3565b6103d383836103db565b949350505050565b8151156103eb5781518083602001fd5b8060405162461bcd60e51b81526004016101699190610552565b80516001600160a01b038116811461041c57600080fd5b919050565b634e487b7160e01b600052604160045260246000fd5b60005b8381101561045257818101518382015260200161043a565b50506000910152565b6000806040838503121561046e57600080fd5b61047783610405565b60208401519092506001600160401b038082111561049457600080fd5b818501915085601f8301126104a857600080fd5b8151818111156104ba576104ba610421565b604051601f8201601f19908116603f011681019083821181831017156104e2576104e2610421565b816040528281528860208487010111156104fb57600080fd5b61050c836020830160208801610437565b80955050505050509250929050565b60006020828403121561052d57600080fd5b6102c882610405565b60008251610548818460208701610437565b9190910192915050565b6020815260008251806020840152610571816040850160208701610437565b601f01601f19169190910160400192915050565b610345806105946000396000f3fe60806040523661001357610011610017565b005b6100115b610027610022610067565b610100565b565b606061004e83836040518060600160405280602781526020016102e960279139610124565b9392505050565b6001600160a01b03163b151590565b90565b600061009a7fa3f0ad74e5423aebfd80d3ef4346578335a9a72aeaee59ff6cb3582b35133d50546001600160a01b031690565b6001600160a01b0316635c60da1b6040518163ffffffff1660e01b8152600401602060405180830381865afa1580156100d7573d6000803e3d6000fd5b505050506040513d601f19601f820116820180604052508101906100fb919061024c565b905090565b3660008037600080366000845af43d6000803e80801561011f573d6000f35b3d6000fd5b6060600080856001600160a01b0316856040516101419190610299565b600060405180830381855af49150503d806000811461017c576040519150601f19603f3d011682016040523d82523d6000602084013e610181565b606091505b50915091506101928683838761019c565b9695505050505050565b60608315610210578251600003610209576001600160a01b0385163b6102095760405162461bcd60e51b815260206004820152601d60248201527f416464726573733a2063616c6c20746f206e6f6e2d636f6e747261637400000060448201526064015b60405180910390fd5b508161021a565b61021a8383610222565b949350505050565b8151156102325781518083602001fd5b8060405162461bcd60e51b815260040161020091906102b5565b60006020828403121561025e57600080fd5b81516001600160a01b038116811461004e57600080fd5b60005b83811015610290578181015183820152602001610278565b50506000910152565b600082516102ab818460208701610275565b9190910192915050565b60208152600082518060208401526102d4816040850160208701610275565b601f01601f1916919091016040019291505056fe416464726573733a206c6f772d6c6576656c2064656c65676174652063616c6c206661696c6564a26469706673582212201ee55915b041c5198daaf4757954d2d95f61fe9bb99630d5e3e9cbaf4894428764736f6c63430008110033416464726573733a206c6f772d6c6576656c2064656c65676174652063616c6c206661696c6564a264697066735822122041386169b6ac1783d6f3e7f7590dc65d82b569669e7502287a829e7181b03e9564736f6c63430008110033",
    "linkReferences": {}
  },
  "methodIdentifiers": {
    "DOMAIN_SEPARATOR()": "3644e515",
    "acceptOwnership()": "79ba5097",
    "allowance(address,address)": "dd62ed3e",
    "approve(address,uint256)": "095ea7b3",
    "asset()": "38d52e0f",
    "balanceOf(address)": "70a08231",
    "beforeYtTransfer(address,address)": "4f72ec2f",
    "claimFees()": "d294f093",
    "claimYield()": "406cf229",
    "claimYieldOfAmount(uint256)": "7cafde7f",
    "convertAssetsToIBTWithRate(uint256,uint256)": "47609bd4",
    "convertIBTToAssetsWithRate(uint256,uint256)": "44ba8add",
    "convertToAssets(uint256)": "07a2d13a",
    "convertToAssetsOfIBT(uint256)": "3ca7c82d",
    "convertToAssetsWithRate(uint256,uint256)": "aca505f7",
    "convertToPrincipal(uint256)": "25a8d87d",
    "convertToShares(uint256)": "c6e6f592",
    "convertToSharesOfIBT(uint256)": "b346db0c",
    "convertToSharesWithRate(uint256,uint256)": "75ba1dac",
    "convertToUnderlying(uint256)": "1dc7f521",
    "decimals()": "313ce567",
    "decreaseAllowance(address,uint256)": "a457c2d7",
    "deposit(uint256,address)": "6e553f65",
    "deposit(uint256,address,uint256)": "bc157ac1",
    "depositWithIBT(uint256,address)": "bafc0f14",
    "depositWithIBT(uint256,address,uint256)": "277a04d6",
    "getAssetUnit()": "67936420",
    "getCurrentYieldInIBTOfUser(address)": "b2b84d94",
    "getFeeCollectorAddress()": "bf2d75fb",
    "getIBT()": "c644fe94",
    "getIBTRate()": "efd98dc2",
    "getIBTRateAtExpiry()": "2b930fa3",
    "getIBTUnit()": "1f2b4f24",
    "getPTRate()": "a1c5b3e1",
    "getPTRateAtExpiry()": "6956df17",
    "getProtocolFee()": "a5a41031",
    "getRegistry()": "5ab1bd53",
    "getRegistryAddress()": "f21de1e8",
    "getUnclaimedFeesInIBT()": "714d422b",
    "getYT()": "04aa50ad",
    "getZapDepositor()": "0e5f99c5",
    "getZapDepositorAddress()": "fefd6d49",
    "increaseAllowance(address,uint256)": "39509351",
    "initialize(string,string,address,uint256,uint256,address,address)": "40f5e56b",
    "maturity()": "204f83f9",
    "maxDeposit(address)": "402d267d",
    "maxMint(address)": "c63d75b6",
    "maxRedeem(address)": "d905777e",
    "maxWithdraw(address)": "ce96cb77",
    "mint(uint256,address)": "94bf804d",
    "mint(uint256,address,uint256)": "836a1040",
    "name()": "06fdde03",
    "nonces(address)": "7ecebe00",
    "owner()": "8da5cb5b",
    "pause()": "8456cb59",
    "paused()": "5c975abb",
    "pendingOwner()": "e30c3978",
    "permit(address,address,uint256,uint256,uint8,bytes32,bytes32)": "d505accf",
    "previewDeposit(uint256)": "ef8b30f7",
    "previewMint(uint256)": "b3d7f6b9",
    "previewRedeem(uint256)": "4cdad506",
    "previewWithdraw(uint256)": "0a28a477",
    "redeem(uint256,address,address)": "ba087652",
    "redeem(uint256,address,address,uint256)": "9f40a7b3",
    "renounceOwnership()": "715018a6",
    "setFeeCollector(address)": "a42dce80",
    "setProtocolFee(uint256)": "787dce3d",
    "storeRatesAtExpiry()": "a13c91a3",
    "symbol()": "95d89b41",
    "totalAssets()": "01e1d114",
    "totalSupply()": "18160ddd",
    "transfer(address,uint256)": "a9059cbb",
    "transferFrom(address,address,uint256)": "23b872dd",
    "transferOwnership(address)": "f2fde38b",
    "unPause()": "f7b188a5",
    "underlying()": "6f307dc3",
    "updateYield(address)": "f90d63db",
    "updateZapDepositor()": "138695a7",
    "withdraw(uint256,address,address)": "b460af94",
    "withdraw(uint256,address,address,uint256)": "a318c1a4",
    "withdrawAfterExpiry(address,address)": "21b62f96",
    "yieldOfUserInIBT(address)": "2c660fbc"
  },
  "id": 106
}