{
  "abi": [
    {
      "inputs": [
        {
          "internalType": "address",
          "name": "_principalTokenBeaconUpgradeable",
          "type": "address"
        },
        {
          "internalType": "address",
          "name": "_ytBeaconUpgradeable",
          "type": "address"
        }
      ],
      "stateMutability": "nonpayable",
      "type": "constructor"
    },
    {
      "inputs": [],
      "name": "BeaconNotSet",
      "type": "error"
    },
    {
      "inputs": [],
      "name": "CurveFactoryNotSet",
      "type": "error"
    },
    {
      "inputs": [],
      "name": "DeploymentFailed",
      "type": "error"
    },
    {
      "inputs": [],
      "name": "FailedToFetchCurveFactoryAddress",
      "type": "error"
    },
    {
      "inputs": [],
      "name": "ZeroAddressError",
      "type": "error"
    },
    {
      "anonymous": false,
      "inputs": [
        {
          "indexed": true,
          "internalType": "address",
          "name": "curveAddressProvider",
          "type": "address"
        }
      ],
      "name": "CurveAddressProviderSet",
      "type": "event"
    },
    {
      "anonymous": false,
      "inputs": [
        {
          "indexed": true,
          "internalType": "address",
          "name": "newFactory",
          "type": "address"
        }
      ],
      "name": "CurveFactoryChanged",
      "type": "event"
    },
    {
      "anonymous": false,
      "inputs": [
        {
          "indexed": true,
          "internalType": "address",
          "name": "poolAddress",
          "type": "address"
        },
        {
          "indexed": false,
          "internalType": "address",
          "name": "ibt",
          "type": "address"
        },
        {
          "indexed": false,
          "internalType": "address",
          "name": "pt",
          "type": "address"
        }
      ],
      "name": "CurvePoolDeployed",
      "type": "event"
    },
    {
      "anonymous": false,
      "inputs": [
        {
          "indexed": false,
          "internalType": "uint8",
          "name": "version",
          "type": "uint8"
        }
      ],
      "name": "Initialized",
      "type": "event"
    },
    {
      "anonymous": false,
      "inputs": [
        {
          "indexed": true,
          "internalType": "address",
          "name": "previousOwner",
          "type": "address"
        },
        {
          "indexed": true,
          "internalType": "address",
          "name": "newOwner",
          "type": "address"
        }
      ],
      "name": "OwnershipTransferStarted",
      "type": "event"
    },
    {
      "anonymous": false,
      "inputs": [
        {
          "indexed": true,
          "internalType": "address",
          "name": "previousOwner",
          "type": "address"
        },
        {
          "indexed": true,
          "internalType": "address",
          "name": "newOwner",
          "type": "address"
        }
      ],
      "name": "OwnershipTransferred",
      "type": "event"
    },
    {
      "anonymous": false,
      "inputs": [
        {
          "indexed": true,
          "internalType": "address",
          "name": "curvePool",
          "type": "address"
        },
        {
          "indexed": true,
          "internalType": "address",
          "name": "principalToken",
          "type": "address"
        }
      ],
      "name": "PoolAdded",
      "type": "event"
    },
    {
      "anonymous": false,
      "inputs": [
        {
          "indexed": true,
          "internalType": "address",
          "name": "_principalToken",
          "type": "address"
        },
        {
          "indexed": true,
          "internalType": "address",
          "name": "_poolCreator",
          "type": "address"
        }
      ],
      "name": "PrincipalTokenDeployed",
      "type": "event"
    },
    {
      "anonymous": false,
      "inputs": [
        {
          "indexed": true,
          "internalType": "address",
          "name": "oldRegistry",
          "type": "address"
        },
        {
          "indexed": true,
          "internalType": "address",
          "name": "newRegistry",
          "type": "address"
        }
      ],
      "name": "RegistryUpdated",
      "type": "event"
    },
    {
      "inputs": [],
      "name": "acceptOwnership",
      "outputs": [],
      "stateMutability": "nonpayable",
      "type": "function"
    },
    {
      "inputs": [],
      "name": "curveAddressProvider",
      "outputs": [
        {
          "internalType": "address",
          "name": "",
          "type": "address"
        }
      ],
      "stateMutability": "view",
      "type": "function"
    },
    {
      "inputs": [
        {
          "internalType": "string",
          "name": "name_",
          "type": "string"
        },
        {
          "internalType": "string",
          "name": "symbol_",
          "type": "string"
        },
        {
          "internalType": "address",
          "name": "ibt_",
          "type": "address"
        },
        {
          "internalType": "uint256",
          "name": "maturity_",
          "type": "uint256"
        },
        {
          "internalType": "uint256",
          "name": "protocolFee_",
          "type": "uint256"
        },
        {
          "internalType": "address",
          "name": "registry_",
          "type": "address"
        },
        {
          "internalType": "address",
          "name": "principalTokenAdmin",
          "type": "address"
        }
      ],
      "name": "deployPrincipalToken",
      "outputs": [
        {
          "internalType": "address",
          "name": "principalToken",
          "type": "address"
        },
        {
          "internalType": "address",
          "name": "curvePoolAddress",
          "type": "address"
        }
      ],
      "stateMutability": "nonpayable",
      "type": "function"
    },
    {
      "inputs": [],
      "name": "getCurveFactoryAddress",
      "outputs": [
        {
          "internalType": "address",
          "name": "",
          "type": "address"
        }
      ],
      "stateMutability": "view",
      "type": "function"
    },
    {
      "inputs": [
        {
          "internalType": "address",
          "name": "_principalToken",
          "type": "address"
        },
        {
          "internalType": "uint256",
          "name": "poolIndex",
          "type": "uint256"
        }
      ],
      "name": "getPool",
      "outputs": [
        {
          "components": [
            {
              "internalType": "address",
              "name": "pool",
              "type": "address"
            },
            {
              "internalType": "string",
              "name": "poolProtocolName",
              "type": "string"
            }
          ],
          "internalType": "struct StructUtil.PoolData",
          "name": "pool",
          "type": "tuple"
        }
      ],
      "stateMutability": "view",
      "type": "function"
    },
    {
      "inputs": [],
      "name": "getRegistryAddress",
      "outputs": [
        {
          "internalType": "address",
          "name": "",
          "type": "address"
        }
      ],
      "stateMutability": "view",
      "type": "function"
    },
    {
      "inputs": [],
      "name": "initialize",
      "outputs": [],
      "stateMutability": "nonpayable",
      "type": "function"
    },
    {
      "inputs": [],
      "name": "owner",
      "outputs": [
        {
          "internalType": "address",
          "name": "",
          "type": "address"
        }
      ],
      "stateMutability": "view",
      "type": "function"
    },
    {
      "inputs": [],
      "name": "pendingOwner",
      "outputs": [
        {
          "internalType": "address",
          "name": "",
          "type": "address"
        }
      ],
      "stateMutability": "view",
      "type": "function"
    },
    {
      "inputs": [],
      "name": "renounceOwnership",
      "outputs": [],
      "stateMutability": "nonpayable",
      "type": "function"
    },
    {
      "inputs": [
        {
          "internalType": "address",
          "name": "curveAddressProvider_",
          "type": "address"
        }
      ],
      "name": "setCurveAddressProvider",
      "outputs": [],
      "stateMutability": "nonpayable",
      "type": "function"
    },
    {
      "inputs": [
        {
          "internalType": "address",
          "name": "_newRegistry",
          "type": "address"
        }
      ],
      "name": "setRegistry",
      "outputs": [],
      "stateMutability": "nonpayable",
      "type": "function"
    },
    {
      "inputs": [
        {
          "internalType": "address",
          "name": "newOwner",
          "type": "address"
        }
      ],
      "name": "transferOwnership",
      "outputs": [],
      "stateMutability": "nonpayable",
      "type": "function"
    }
  ],
  "bytecode": {
    "object": "0x60c06040523480156200001157600080fd5b50604051620020c8380380620020c8833981016040819052620000349162000174565b6001600160a01b03821615806200005257506001600160a01b038116155b156200007157604051633efa09af60e01b815260040160405180910390fd5b6001600160a01b03808316608052811660a0526200008e62000096565b5050620001ac565b600054610100900460ff1615620001035760405162461bcd60e51b815260206004820152602760248201527f496e697469616c697a61626c653a20636f6e747261637420697320696e697469604482015266616c697a696e6760c81b606482015260840160405180910390fd5b60005460ff9081161462000155576000805460ff191660ff9081179091556040519081527f7f26b83ff96e1f2b6a682f133852f6798a09c465da95921460cefb38474024989060200160405180910390a15b565b80516001600160a01b03811681146200016f57600080fd5b919050565b600080604083850312156200018857600080fd5b620001938362000157565b9150620001a36020840162000157565b90509250929050565b60805160a051611eef620001d9600039600061029d015260008181610226015261026e0152611eef6000f3fe60806040523480156200001157600080fd5b5060043610620000e05760003560e01c80638da5cb5b1162000097578063d1136096116200006e578063d113609614620001d4578063e30c397814620001e6578063f21de1e814620001f8578063f2fde38b146200020a57600080fd5b80638da5cb5b14620001945780639bc3d09814620001a6578063a91ee0dc14620001bd57600080fd5b806333f1bbcc14620000e55780633d6e738814620001215780635b5b9ea2146200014e578063715018a6146200017457806379ba509714620001805780638129fc1c146200018a575b600080fd5b620000fc620000f636600462000f0a565b62000221565b604080516001600160a01b039384168152929091166020830152015b60405180910390f35b609a5462000135906001600160a01b031681565b6040516001600160a01b03909116815260200162000118565b620001656200015f36600462000fc8565b620003ee565b6040516200011891906200104b565b6200017e62000501565b005b6200017e62000519565b6200017e6200059b565b6033546001600160a01b031662000135565b6200017e620001b736600462001082565b620006b4565b6200017e620001ce36600462001082565b6200073f565b6097546001600160a01b031662000135565b6065546001600160a01b031662000135565b6098546001600160a01b031662000135565b6200017e6200021b36600462001082565b620007cd565b6000807f00000000000000000000000000000000000000000000000000000000000000006001600160a01b03166200026c5760405163773aae1f60e11b815260040160405180910390fd5b7f00000000000000000000000000000000000000000000000000000000000000006340f5e56b60e01b8a8a8a8a8a8a7f0000000000000000000000000000000000000000000000000000000000000000604051602401620002d49796959493929190620010a9565b60408051601f198184030181529181526020820180516001600160e01b03166001600160e01b0319909416939093179092529051620003139062000e1d565b620003209291906200110e565b604051809103906000f0801580156200033d573d6000803e3d6000fd5b5060405190925033906001600160a01b038416907f0664f6df454a59ac1a42ad6e71f8109a39a1681415ea1acb15e2355d9446d1e090600090a360405163f2fde38b60e01b81526001600160a01b03848116600483015283169063f2fde38b90602401600060405180830381600087803b158015620003bb57600080fd5b505af1158015620003d0573d6000803e3d6000fd5b50505050620003e0828862000841565b905097509795505050505050565b6040805180820190915260008152606060208201526001600160a01b038316600090815260996020526040902080548390811062000430576200043062001134565b60009182526020918290206040805180820190915260029092020180546001600160a01b03168252600181018054929391929184019162000471906200114a565b80601f01602080910402602001604051908101604052809291908181526020018280546200049f906200114a565b8015620004f05780601f10620004c457610100808354040283529160200191620004f0565b820191906000526020600020905b815481529060010190602001808311620004d257829003601f168201915b505050505081525050905092915050565b6200050b62000af7565b62000517600062000b53565b565b60655433906001600160a01b031681146200058d5760405162461bcd60e51b815260206004820152602960248201527f4f776e61626c6532537465703a2063616c6c6572206973206e6f7420746865206044820152683732bb9037bbb732b960b91b60648201526084015b60405180910390fd5b620005988162000b53565b50565b600054610100900460ff1615808015620005bc5750600054600160ff909116105b80620005d85750303b158015620005d8575060005460ff166001145b6200063d5760405162461bcd60e51b815260206004820152602e60248201527f496e697469616c697a61626c653a20636f6e747261637420697320616c72656160448201526d191e481a5b9a5d1a585b1a5e995960921b606482015260840162000584565b6000805460ff19166001179055801562000661576000805461ff0019166101001790555b6200066b62000b6e565b801562000598576000805461ff0019169055604051600181527f7f26b83ff96e1f2b6a682f133852f6798a09c465da95921460cefb38474024989060200160405180910390a150565b620006be62000af7565b6001600160a01b038116620006e657604051633efa09af60e01b815260040160405180910390fd5b6040516001600160a01b038216907f48595b0c6ad20fb5dc4bbce6134112d1c63908e36de330ff3ae2588af19fa9ea90600090a2609a80546001600160a01b0319166001600160a01b0383161790556200059862000ba2565b6200074962000af7565b6001600160a01b0381166200077157604051633efa09af60e01b815260040160405180910390fd5b6098546040516001600160a01b038084169216907f482b97c53e48ffa324a976e2738053e9aff6eee04d8aac63b10e19411d869b8290600090a3609880546001600160a01b0319166001600160a01b0392909216919091179055565b620007d762000af7565b606580546001600160a01b0383166001600160a01b03199091168117909155620008096033546001600160a01b031690565b6001600160a01b03167f38d16b8cac22d99fc7c124b9cd0de2d3fa1faef420bfe791d8c362d765e2270060405160405180910390a350565b60006200084d62000e2b565b6001600160a01b038084168083529085166020808401919091526040805163313ce56760e01b815290516000939263313ce56792600480820193918290030181865afa158015620008a2573d6000803e3d6000fd5b505050506040513d601f19601f82011682018060405250810190620008c8919062001186565b620008d590600a620012c0565b6040516363737ac960e11b8152600481018290529091506000906001600160a01b0387169063c6e6f59290602401602060405180830381865afa15801562000921573d6000803e3d6000fd5b505050506040513d601f19601f82011682018060405250810190620009479190620012d1565b6097549091506001600160a01b03166200097457604051630474a4af60e01b815260040160405180910390fd5b600080609760009054906101000a90046001600160a01b03166001600160a01b031663c955fa0486630bebc200655af3107a400062e4e1c06302faf0806402540be4006611c37937e08000650500918bd80064012a05f2006102588e604051602401620009ec9b9a999897969594939291906200131f565b6040516020818303038152906040529060e01b6020820180516001600160e01b03838183161783525050505060405162000a27919062001410565b6000604051808303816000865af19150503d806000811462000a66576040519150601f19603f3d011682016040523d82523d6000602084013e62000a6b565b606091505b50915091508162000a8f57604051633011642560e01b815260040160405180910390fd5b6020810151955062000aa2868962000cc9565b8451604080516001600160a01b0392831681528a83166020820152918816917f3c7b686d948efcba31c9cfd1aeae78faac70fe0c1ed90d151d49c75e85027a91910160405180910390a2505050505092915050565b6033546001600160a01b03163314620005175760405162461bcd60e51b815260206004820181905260248201527f4f776e61626c653a2063616c6c6572206973206e6f7420746865206f776e6572604482015260640162000584565b606580546001600160a01b0319169055620005988162000d96565b600054610100900460ff1662000b985760405162461bcd60e51b815260040162000584906200142e565b6200051762000de8565b609a54604080516006602480830182905283518084039091018152604490920183526020820180516001600160e01b031663124fd3dd60e21b1790529151919260009283926001600160a01b039092169162000bfe9162001410565b6000604051808303816000865af19150503d806000811462000c3d576040519150601f19603f3d011682016040523d82523d6000602084013e62000c42565b606091505b50915091508162000c66576040516308b5780160e01b815260040160405180910390fd5b8080602001905181019062000c7c919062001479565b609780546001600160a01b0319166001600160a01b039290921691821790556040517f6c3db3b505f1ce26138fce10683cfc5e051aa53990b272acf8944fb87c76b9fb90600090a2505050565b604080518082018252606060208083019182526001600160a01b038681168452845180860186526005815264437572766560d81b81840152835285811660009081526099835294852080546001808201835591875292909520845160029093020180546001600160a01b031916929091169190911781559051919283929082019062000d569082620014ec565b50506040516001600160a01b0380851692508516907f95f865c2808f8b2a85eea2611db7843150ee7835ef1403f9755918a97d76933c90600090a3505050565b603380546001600160a01b038381166001600160a01b0319831681179093556040519116919082907f8be0079c531659141344cd1fd0a4f28419497f9722a3daafe3b4186f6b6457e090600090a35050565b600054610100900460ff1662000e125760405162461bcd60e51b815260040162000584906200142e565b620005173362000b53565b61090080620015ba83390190565b60405180604001604052806002906020820280368337509192915050565b634e487b7160e01b600052604160045260246000fd5b600082601f83011262000e7157600080fd5b813567ffffffffffffffff8082111562000e8f5762000e8f62000e49565b604051601f8301601f19908116603f0116810190828211818310171562000eba5762000eba62000e49565b8160405283815286602085880101111562000ed457600080fd5b836020870160208301376000602085830101528094505050505092915050565b6001600160a01b03811681146200059857600080fd5b600080600080600080600060e0888a03121562000f2657600080fd5b873567ffffffffffffffff8082111562000f3f57600080fd5b62000f4d8b838c0162000e5f565b985060208a013591508082111562000f6457600080fd5b5062000f738a828b0162000e5f565b965050604088013562000f868162000ef4565b9450606088013593506080880135925060a088013562000fa68162000ef4565b915060c088013562000fb88162000ef4565b8091505092959891949750929550565b6000806040838503121562000fdc57600080fd5b823562000fe98162000ef4565b946020939093013593505050565b60005b838110156200101457818101518382015260200162000ffa565b50506000910152565b600081518084526200103781602086016020860162000ff7565b601f01601f19169290920160200192915050565b602080825282516001600160a01b0316828201528201516040808301526000906200107a60608401826200101d565b949350505050565b6000602082840312156200109557600080fd5b8135620010a28162000ef4565b9392505050565b60e081526000620010be60e083018a6200101d565b8281036020840152620010d2818a6200101d565b6001600160a01b03988916604085015260608401979097525050608081019390935290841660a083015290921660c09092019190915292915050565b6001600160a01b03831681526040602082018190526000906200107a908301846200101d565b634e487b7160e01b600052603260045260246000fd5b600181811c908216806200115f57607f821691505b6020821081036200118057634e487b7160e01b600052602260045260246000fd5b50919050565b6000602082840312156200119957600080fd5b815160ff81168114620010a257600080fd5b634e487b7160e01b600052601160045260246000fd5b600181815b8085111562001202578160001904821115620011e657620011e6620011ab565b80851615620011f457918102915b93841c9390800290620011c6565b509250929050565b6000826200121b57506001620012ba565b816200122a57506000620012ba565b81600181146200124357600281146200124e576200126e565b6001915050620012ba565b60ff841115620012625762001262620011ab565b50506001821b620012ba565b5060208310610133831016604e8410600b841016171562001293575081810a620012ba565b6200129f8383620011c1565b8060001904821115620012b657620012b6620011ab565b0290505b92915050565b6000620010a260ff8416836200120a565b600060208284031215620012e457600080fd5b5051919050565b8060005b6002811015620013195781516001600160a01b0316845260209384019390910190600101620012ef565b50505050565b60006101c0808352600b81840152506a46565f504f4f4c5f41505760a81b6101e083015261020080602084015262001370818401600a815269105415cbd4150bd2509560b21b602082015260400190565b91505062001382604083018e620012eb565b63ffffffff8c16608083015265ffffffffffff8b1660a083015262ffffff8a1660c083015263ffffffff891660e083015264ffffffffff881661010083015266ffffffffffffff871661012083015265ffffffffffff861661014083015264ffffffffff851661016083015261ffff8416610180830152826101a08301529c9b505050505050505050505050565b600082516200142481846020870162000ff7565b9190910192915050565b6020808252602b908201527f496e697469616c697a61626c653a20636f6e7472616374206973206e6f74206960408201526a6e697469616c697a696e6760a81b606082015260800190565b6000602082840312156200148c57600080fd5b8151620010a28162000ef4565b601f821115620014e757600081815260208120601f850160051c81016020861015620014c25750805b601f850160051c820191505b81811015620014e357828155600101620014ce565b5050505b505050565b815167ffffffffffffffff81111562001509576200150962000e49565b62001521816200151a84546200114a565b8462001499565b602080601f831160018114620015595760008415620015405750858301515b600019600386901b1c1916600185901b178555620014e3565b600085815260208120601f198616915b828110156200158a5788860151825594840194600190910190840162001569565b5085821015620015a95787850151600019600388901b60f8161c191681555b5050505050600190811b0190555056fe60806040526040516109003803806109008339810160408190526100229161045b565b61002e82826000610035565b5050610585565b61003e83610100565b6040516001600160a01b038416907f1cf3b03a6cf19fa2baba4df148e9dcabedea7f8a5c07840e207e5c089be95d3e90600090a260008251118061007f5750805b156100fb576100f9836001600160a01b0316635c60da1b6040518163ffffffff1660e01b8152600401602060405180830381865afa1580156100c5573d6000803e3d6000fd5b505050506040513d601f19601f820116820180604052508101906100e9919061051b565b836102a360201b6100291760201c565b505b505050565b610113816102cf60201b6100551760201c565b6101725760405162461bcd60e51b815260206004820152602560248201527f455243313936373a206e657720626561636f6e206973206e6f74206120636f6e6044820152641d1c9858dd60da1b60648201526084015b60405180910390fd5b6101e6816001600160a01b0316635c60da1b6040518163ffffffff1660e01b8152600401602060405180830381865afa1580156101b3573d6000803e3d6000fd5b505050506040513d601f19601f820116820180604052508101906101d7919061051b565b6102cf60201b6100551760201c565b61024b5760405162461bcd60e51b815260206004820152603060248201527f455243313936373a20626561636f6e20696d706c656d656e746174696f6e206960448201526f1cc81b9bdd08184818dbdb9d1c9858dd60821b6064820152608401610169565b806102827fa3f0ad74e5423aebfd80d3ef4346578335a9a72aeaee59ff6cb3582b35133d5060001b6102de60201b6100641760201c565b80546001600160a01b0319166001600160a01b039290921691909117905550565b60606102c883836040518060600160405280602781526020016108d9602791396102e1565b9392505050565b6001600160a01b03163b151590565b90565b6060600080856001600160a01b0316856040516102fe9190610536565b600060405180830381855af49150503d8060008114610339576040519150601f19603f3d011682016040523d82523d6000602084013e61033e565b606091505b5090925090506103508683838761035a565b9695505050505050565b606083156103c95782516000036103c2576001600160a01b0385163b6103c25760405162461bcd60e51b815260206004820152601d60248201527f416464726573733a2063616c6c20746f206e6f6e2d636f6e74726163740000006044820152606401610169565b50816103d3565b6103d383836103db565b949350505050565b8151156103eb5781518083602001fd5b8060405162461bcd60e51b81526004016101699190610552565b80516001600160a01b038116811461041c57600080fd5b919050565b634e487b7160e01b600052604160045260246000fd5b60005b8381101561045257818101518382015260200161043a565b50506000910152565b6000806040838503121561046e57600080fd5b61047783610405565b60208401519092506001600160401b038082111561049457600080fd5b818501915085601f8301126104a857600080fd5b8151818111156104ba576104ba610421565b604051601f8201601f19908116603f011681019083821181831017156104e2576104e2610421565b816040528281528860208487010111156104fb57600080fd5b61050c836020830160208801610437565b80955050505050509250929050565b60006020828403121561052d57600080fd5b6102c882610405565b60008251610548818460208701610437565b9190910192915050565b6020815260008251806020840152610571816040850160208701610437565b601f01601f19169190910160400192915050565b610345806105946000396000f3fe60806040523661001357610011610017565b005b6100115b610027610022610067565b610100565b565b606061004e83836040518060600160405280602781526020016102e960279139610124565b9392505050565b6001600160a01b03163b151590565b90565b600061009a7fa3f0ad74e5423aebfd80d3ef4346578335a9a72aeaee59ff6cb3582b35133d50546001600160a01b031690565b6001600160a01b0316635c60da1b6040518163ffffffff1660e01b8152600401602060405180830381865afa1580156100d7573d6000803e3d6000fd5b505050506040513d601f19601f820116820180604052508101906100fb919061024c565b905090565b3660008037600080366000845af43d6000803e80801561011f573d6000f35b3d6000fd5b6060600080856001600160a01b0316856040516101419190610299565b600060405180830381855af49150503d806000811461017c576040519150601f19603f3d011682016040523d82523d6000602084013e610181565b606091505b50915091506101928683838761019c565b9695505050505050565b60608315610210578251600003610209576001600160a01b0385163b6102095760405162461bcd60e51b815260206004820152601d60248201527f416464726573733a2063616c6c20746f206e6f6e2d636f6e747261637400000060448201526064015b60405180910390fd5b508161021a565b61021a8383610222565b949350505050565b8151156102325781518083602001fd5b8060405162461bcd60e51b815260040161020091906102b5565b60006020828403121561025e57600080fd5b81516001600160a01b038116811461004e57600080fd5b60005b83811015610290578181015183820152602001610278565b50506000910152565b600082516102ab818460208701610275565b9190910192915050565b60208152600082518060208401526102d4816040850160208701610275565b601f01601f1916919091016040019291505056fe416464726573733a206c6f772d6c6576656c2064656c65676174652063616c6c206661696c6564a26469706673582212201ee55915b041c5198daaf4757954d2d95f61fe9bb99630d5e3e9cbaf4894428764736f6c63430008110033416464726573733a206c6f772d6c6576656c2064656c65676174652063616c6c206661696c6564a26469706673582212206fb789f5c964168103ec4bbb8b6654199f3ac9653d5bee8f8375f76b4012f07964736f6c63430008110033",
    "linkReferences": {}
  },
  "methodIdentifiers": {
    "acceptOwnership()": "79ba5097",
    "curveAddressProvider()": "3d6e7388",
    "deployPrincipalToken(string,string,address,uint256,uint256,address,address)": "33f1bbcc",
    "getCurveFactoryAddress()": "d1136096",
    "getPool(address,uint256)": "5b5b9ea2",
    "getRegistryAddress()": "f21de1e8",
    "initialize()": "8129fc1c",
    "owner()": "8da5cb5b",
    "pendingOwner()": "e30c3978",
    "renounceOwnership()": "715018a6",
    "setCurveAddressProvider(address)": "9bc3d098",
    "setRegistry(address)": "a91ee0dc",
    "transferOwnership(address)": "f2fde38b"
  },
  "id": 81
}