{
  "abi": [
    {
      "inputs": [],
      "stateMutability": "nonpayable",
      "type": "constructor"
    },
    {
      "inputs": [],
      "name": "AssetsValueLessThanMinValue",
      "type": "error"
    },
    {
      "inputs": [],
      "name": "AssetsValueMoreThanMaxValue",
      "type": "error"
    },
    {
      "inputs": [],
      "name": "CallerIsNotFeeCollector",
      "type": "error"
    },
    {
      "inputs": [],
      "name": "CallerIsNotOwner",
      "type": "error"
    },
    {
      "inputs": [],
      "name": "CallerIsNotYtContract",
      "type": "error"
    },
    {
      "inputs": [],
      "name": "FeeMoreThanMaxValue",
      "type": "error"
    },
    {
      "inputs": [],
      "name": "NetYieldZero",
      "type": "error"
    },
    {
      "inputs": [],
      "name": "PrincipalTokenExpired",
      "type": "error"
    },
    {
      "inputs": [],
      "name": "PrincipalTokenNotExpired",
      "type": "error"
    },
    {
      "inputs": [],
      "name": "PrincipalTokenRateError",
      "type": "error"
    },
    {
      "inputs": [],
      "name": "RatesAtExpiryAlreadyStored",
      "type": "error"
    },
    {
      "inputs": [],
      "name": "RatesAtExpiryNotStored",
      "type": "error"
    },
    {
      "inputs": [],
      "name": "SharesValueLessThanMinValue",
      "type": "error"
    },
    {
      "inputs": [],
      "name": "SharesValueMoreThanMaxValue",
      "type": "error"
    },
    {
      "inputs": [],
      "name": "TransferValueExceedsYieldBalance",
      "type": "error"
    },
    {
      "inputs": [],
      "name": "ZeroAddressError",
      "type": "error"
    },
    {
      "anonymous": false,
      "inputs": [
        {
          "indexed": true,
          "internalType": "address",
          "name": "owner",
          "type": "address"
        },
        {
          "indexed": true,
          "internalType": "address",
          "name": "spender",
          "type": "address"
        },
        {
          "indexed": false,
          "internalType": "uint256",
          "name": "value",
          "type": "uint256"
        }
      ],
      "name": "Approval",
      "type": "event"
    },
    {
      "anonymous": false,
      "inputs": [
        {
          "indexed": true,
          "internalType": "address",
          "name": "sender",
          "type": "address"
        },
        {
          "indexed": true,
          "internalType": "address",
          "name": "owner",
          "type": "address"
        },
        {
          "indexed": false,
          "internalType": "uint256",
          "name": "assets",
          "type": "uint256"
        },
        {
          "indexed": false,
          "internalType": "uint256",
          "name": "shares",
          "type": "uint256"
        }
      ],
      "name": "Deposit",
      "type": "event"
    },
    {
      "anonymous": false,
      "inputs": [
        {
          "indexed": true,
          "internalType": "address",
          "name": "_feeCollector",
          "type": "address"
        },
        {
          "indexed": false,
          "internalType": "uint256",
          "name": "_feesInIBT",
          "type": "uint256"
        }
      ],
      "name": "FeeClaimed",
      "type": "event"
    },
    {
      "anonymous": false,
      "inputs": [
        {
          "indexed": false,
          "internalType": "uint8",
          "name": "version",
          "type": "uint8"
        }
      ],
      "name": "Initialized",
      "type": "event"
    },
    {
      "anonymous": false,
      "inputs": [
        {
          "indexed": true,
          "internalType": "address",
          "name": "previousOwner",
          "type": "address"
        },
        {
          "indexed": true,
          "internalType": "address",
          "name": "newOwner",
          "type": "address"
        }
      ],
      "name": "OwnershipTransferStarted",
      "type": "event"
    },
    {
      "anonymous": false,
      "inputs": [
        {
          "indexed": true,
          "internalType": "address",
          "name": "previousOwner",
          "type": "address"
        },
        {
          "indexed": true,
          "internalType": "address",
          "name": "newOwner",
          "type": "address"
        }
      ],
      "name": "OwnershipTransferred",
      "type": "event"
    },
    {
      "anonymous": false,
      "inputs": [
        {
          "indexed": false,
          "internalType": "address",
          "name": "account",
          "type": "address"
        }
      ],
      "name": "Paused",
      "type": "event"
    },
    {
      "anonymous": false,
      "inputs": [
        {
          "indexed": true,
          "internalType": "uint256",
          "name": "oldProtocolFee",
          "type": "uint256"
        },
        {
          "indexed": true,
          "internalType": "uint256",
          "name": "newProtocolFee",
          "type": "uint256"
        }
      ],
      "name": "ProtocolFeeUpdated",
      "type": "event"
    },
    {
      "anonymous": false,
      "inputs": [
        {
          "indexed": true,
          "internalType": "uint256",
          "name": "_ibtRate",
          "type": "uint256"
        },
        {
          "indexed": true,
          "internalType": "uint256",
          "name": "_ptRate",
          "type": "uint256"
        }
      ],
      "name": "RatesStoredAtExpiry",
      "type": "event"
    },
    {
      "anonymous": false,
      "inputs": [
        {
          "indexed": true,
          "internalType": "address",
          "name": "from",
          "type": "address"
        },
        {
          "indexed": true,
          "internalType": "address",
          "name": "to",
          "type": "address"
        },
        {
          "indexed": false,
          "internalType": "uint256",
          "name": "assets",
          "type": "uint256"
        }
      ],
      "name": "Redeem",
      "type": "event"
    },
    {
      "anonymous": false,
      "inputs": [
        {
          "indexed": true,
          "internalType": "address",
          "name": "from",
          "type": "address"
        },
        {
          "indexed": true,
          "internalType": "address",
          "name": "to",
          "type": "address"
        },
        {
          "indexed": false,
          "internalType": "uint256",
          "name": "value",
          "type": "uint256"
        }
      ],
      "name": "Transfer",
      "type": "event"
    },
    {
      "anonymous": false,
      "inputs": [
        {
          "indexed": false,
          "internalType": "address",
          "name": "account",
          "type": "address"
        }
      ],
      "name": "Unpaused",
      "type": "event"
    },
    {
      "anonymous": false,
      "inputs": [
        {
          "indexed": true,
          "internalType": "address",
          "name": "feeCollector",
          "type": "address"
        }
      ],
      "name": "UpdatedFeeCollector",
      "type": "event"
    },
    {
      "anonymous": false,
      "inputs": [
        {
          "indexed": true,
          "internalType": "address",
          "name": "sender",
          "type": "address"
        },
        {
          "indexed": true,
          "internalType": "address",
          "name": "receiver",
          "type": "address"
        },
        {
          "indexed": true,
          "internalType": "address",
          "name": "owner",
          "type": "address"
        },
        {
          "indexed": false,
          "internalType": "uint256",
          "name": "assets",
          "type": "uint256"
        },
        {
          "indexed": false,
          "internalType": "uint256",
          "name": "shares",
          "type": "uint256"
        }
      ],
      "name": "Withdraw",
      "type": "event"
    },
    {
      "anonymous": false,
      "inputs": [
        {
          "indexed": true,
          "internalType": "address",
          "name": "yt",
          "type": "address"
        }
      ],
      "name": "YTDeployed",
      "type": "event"
    },
    {
      "anonymous": false,
      "inputs": [
        {
          "indexed": true,
          "internalType": "address",
          "name": "receiver",
          "type": "address"
        },
        {
          "indexed": false,
          "internalType": "uint256",
          "name": "_yield",
          "type": "uint256"
        }
      ],
      "name": "YieldTransferred",
      "type": "event"
    },
    {
      "anonymous": false,
      "inputs": [
        {
          "indexed": true,
          "internalType": "address",
          "name": "user",
          "type": "address"
        },
        {
          "indexed": true,
          "internalType": "uint256",
          "name": "_yield",
          "type": "uint256"
        }
      ],
      "name": "YieldUpdated",
      "type": "event"
    },
    {
      "inputs": [],
      "name": "DOMAIN_SEPARATOR",
      "outputs": [
        {
          "internalType": "bytes32",
          "name": "",
          "type": "bytes32"
        }
      ],
      "stateMutability": "view",
      "type": "function"
    },
    {
      "inputs": [],
      "name": "acceptOwnership",
      "outputs": [],
      "stateMutability": "nonpayable",
      "type": "function"
    },
    {
      "inputs": [
        {
          "internalType": "address",
          "name": "owner",
          "type": "address"
        },
        {
          "internalType": "address",
          "name": "spender",
          "type": "address"
        }
      ],
      "name": "allowance",
      "outputs": [
        {
          "internalType": "uint256",
          "name": "",
          "type": "uint256"
        }
      ],
      "stateMutability": "view",
      "type": "function"
    },
    {
      "inputs": [
        {
          "internalType": "address",
          "name": "spender",
          "type": "address"
        },
        {
          "internalType": "uint256",
          "name": "amount",
          "type": "uint256"
        }
      ],
      "name": "approve",
      "outputs": [
        {
          "internalType": "bool",
          "name": "",
          "type": "bool"
        }
      ],
      "stateMutability": "nonpayable",
      "type": "function"
    },
    {
      "inputs": [],
      "name": "asset",
      "outputs": [
        {
          "internalType": "address",
          "name": "",
          "type": "address"
        }
      ],
      "stateMutability": "view",
      "type": "function"
    },
    {
      "inputs": [
        {
          "internalType": "address",
          "name": "account",
          "type": "address"
        }
      ],
      "name": "balanceOf",
      "outputs": [
        {
          "internalType": "uint256",
          "name": "",
          "type": "uint256"
        }
      ],
      "stateMutability": "view",
      "type": "function"
    },
    {
      "inputs": [
        {
          "internalType": "address",
          "name": "_from",
          "type": "address"
        },
        {
          "internalType": "address",
          "name": "_to",
          "type": "address"
        }
      ],
      "name": "beforeYtTransfer",
      "outputs": [],
      "stateMutability": "nonpayable",
      "type": "function"
    },
    {
      "inputs": [],
      "name": "claimFees",
      "outputs": [
        {
          "internalType": "uint256",
          "name": "",
          "type": "uint256"
        }
      ],
      "stateMutability": "nonpayable",
      "type": "function"
    },
    {
      "inputs": [],
      "name": "claimYield",
      "outputs": [
        {
          "internalType": "uint256",
          "name": "",
          "type": "uint256"
        }
      ],
      "stateMutability": "nonpayable",
      "type": "function"
    },
    {
      "inputs": [
        {
          "internalType": "uint256",
          "name": "_amount",
          "type": "uint256"
        }
      ],
      "name": "claimYieldOfAmount",
      "outputs": [
        {
          "internalType": "uint256",
          "name": "",
          "type": "uint256"
        }
      ],
      "stateMutability": "nonpayable",
      "type": "function"
    },
    {
      "inputs": [
        {
          "internalType": "uint256",
          "name": "assets",
          "type": "uint256"
        },
        {
          "internalType": "uint256",
          "name": "_ibtRate",
          "type": "uint256"
        }
      ],
      "name": "convertAssetsToIBTWithRate",
      "outputs": [
        {
          "internalType": "uint256",
          "name": "",
          "type": "uint256"
        }
      ],
      "stateMutability": "view",
      "type": "function"
    },
    {
      "inputs": [
        {
          "internalType": "uint256",
          "name": "ibtAmount",
          "type": "uint256"
        },
        {
          "internalType": "uint256",
          "name": "_ibtRate",
          "type": "uint256"
        }
      ],
      "name": "convertIBTToAssetsWithRate",
      "outputs": [
        {
          "internalType": "uint256",
          "name": "",
          "type": "uint256"
        }
      ],
      "stateMutability": "view",
      "type": "function"
    },
    {
      "inputs": [
        {
          "internalType": "uint256",
          "name": "shares",
          "type": "uint256"
        }
      ],
      "name": "convertToAssets",
      "outputs": [
        {
          "internalType": "uint256",
          "name": "assets",
          "type": "uint256"
        }
      ],
      "stateMutability": "view",
      "type": "function"
    },
    {
      "inputs": [
        {
          "internalType": "uint256",
          "name": "ibtAmount",
          "type": "uint256"
        }
      ],
      "name": "convertToAssetsOfIBT",
      "outputs": [
        {
          "internalType": "uint256",
          "name": "",
          "type": "uint256"
        }
      ],
      "stateMutability": "view",
      "type": "function"
    },
    {
      "inputs": [
        {
          "internalType": "uint256",
          "name": "shares",
          "type": "uint256"
        },
        {
          "internalType": "uint256",
          "name": "_ptRate",
          "type": "uint256"
        }
      ],
      "name": "convertToAssetsWithRate",
      "outputs": [
        {
          "internalType": "uint256",
          "name": "assets",
          "type": "uint256"
        }
      ],
      "stateMutability": "view",
      "type": "function"
    },
    {
      "inputs": [
        {
          "internalType": "uint256",
          "name": "underlyingAmount",
          "type": "uint256"
        }
      ],
      "name": "convertToPrincipal",
      "outputs": [
        {
          "internalType": "uint256",
          "name": "",
          "type": "uint256"
        }
      ],
      "stateMutability": "view",
      "type": "function"
    },
    {
      "inputs": [
        {
          "internalType": "uint256",
          "name": "assets",
          "type": "uint256"
        }
      ],
      "name": "convertToShares",
      "outputs": [
        {
          "internalType": "uint256",
          "name": "shares",
          "type": "uint256"
        }
      ],
      "stateMutability": "view",
      "type": "function"
    },
    {
      "inputs": [
        {
          "internalType": "uint256",
          "name": "assets",
          "type": "uint256"
        }
      ],
      "name": "convertToSharesOfIBT",
      "outputs": [
        {
          "internalType": "uint256",
          "name": "",
          "type": "uint256"
        }
      ],
      "stateMutability": "view",
      "type": "function"
    },
    {
      "inputs": [
        {
          "internalType": "uint256",
          "name": "assets",
          "type": "uint256"
        },
        {
          "internalType": "uint256",
          "name": "_ptRate",
          "type": "uint256"
        }
      ],
      "name": "convertToSharesWithRate",
      "outputs": [
        {
          "internalType": "uint256",
          "name": "shares",
          "type": "uint256"
        }
      ],
      "stateMutability": "view",
      "type": "function"
    },
    {
      "inputs": [
        {
          "internalType": "uint256",
          "name": "principalAmount",
          "type": "uint256"
        }
      ],
      "name": "convertToUnderlying",
      "outputs": [
        {
          "internalType": "uint256",
          "name": "",
          "type": "uint256"
        }
      ],
      "stateMutability": "view",
      "type": "function"
    },
    {
      "inputs": [],
      "name": "decimals",
      "outputs": [
        {
          "internalType": "uint8",
          "name": "",
          "type": "uint8"
        }
      ],
      "stateMutability": "view",
      "type": "function"
    },
    {
      "inputs": [
        {
          "internalType": "address",
          "name": "spender",
          "type": "address"
        },
        {
          "internalType": "uint256",
          "name": "subtractedValue",
          "type": "uint256"
        }
      ],
      "name": "decreaseAllowance",
      "outputs": [
        {
          "internalType": "bool",
          "name": "",
          "type": "bool"
        }
      ],
      "stateMutability": "nonpayable",
      "type": "function"
    },
    {
      "inputs": [
        {
          "internalType": "uint256",
          "name": "assets",
          "type": "uint256"
        },
        {
          "internalType": "address",
          "name": "ptReceiver",
          "type": "address"
        },
        {
          "internalType": "address",
          "name": "ytReceiver",
          "type": "address"
        }
      ],
      "name": "deposit",
      "outputs": [
        {
          "internalType": "uint256",
          "name": "shares",
          "type": "uint256"
        }
      ],
      "stateMutability": "nonpayable",
      "type": "function"
    },
    {
      "inputs": [
        {
          "internalType": "uint256",
          "name": "assets",
          "type": "uint256"
        },
        {
          "internalType": "address",
          "name": "receiver",
          "type": "address"
        }
      ],
      "name": "deposit",
      "outputs": [
        {
          "internalType": "uint256",
          "name": "shares",
          "type": "uint256"
        }
      ],
      "stateMutability": "nonpayable",
      "type": "function"
    },
    {
      "inputs": [
        {
          "internalType": "uint256",
          "name": "assets",
          "type": "uint256"
        },
        {
          "internalType": "address",
          "name": "receiver",
          "type": "address"
        },
        {
          "internalType": "uint256",
          "name": "minShares",
          "type": "uint256"
        }
      ],
      "name": "deposit",
      "outputs": [
        {
          "internalType": "uint256",
          "name": "",
          "type": "uint256"
        }
      ],
      "stateMutability": "nonpayable",
      "type": "function"
    },
    {
      "inputs": [
        {
          "internalType": "uint256",
          "name": "ibtAmount",
          "type": "uint256"
        },
        {
          "internalType": "address",
          "name": "ptReceiver",
          "type": "address"
        },
        {
          "internalType": "address",
          "name": "ytReceiver",
          "type": "address"
        }
      ],
      "name": "depositWithIBT",
      "outputs": [
        {
          "internalType": "uint256",
          "name": "shares",
          "type": "uint256"
        }
      ],
      "stateMutability": "nonpayable",
      "type": "function"
    },
    {
      "inputs": [
        {
          "internalType": "uint256",
          "name": "ibtAmount",
          "type": "uint256"
        },
        {
          "internalType": "address",
          "name": "receiver",
          "type": "address"
        },
        {
          "internalType": "uint256",
          "name": "minShares",
          "type": "uint256"
        }
      ],
      "name": "depositWithIBT",
      "outputs": [
        {
          "internalType": "uint256",
          "name": "",
          "type": "uint256"
        }
      ],
      "stateMutability": "nonpayable",
      "type": "function"
    },
    {
      "inputs": [
        {
          "internalType": "uint256",
          "name": "ibtAmount",
          "type": "uint256"
        },
        {
          "internalType": "address",
          "name": "receiver",
          "type": "address"
        }
      ],
      "name": "depositWithIBT",
      "outputs": [
        {
          "internalType": "uint256",
          "name": "shares",
          "type": "uint256"
        }
      ],
      "stateMutability": "nonpayable",
      "type": "function"
    },
    {
      "inputs": [],
      "name": "getAssetUnit",
      "outputs": [
        {
          "internalType": "uint256",
          "name": "",
          "type": "uint256"
        }
      ],
      "stateMutability": "view",
      "type": "function"
    },
    {
      "inputs": [
        {
          "internalType": "address",
          "name": "_user",
          "type": "address"
        }
      ],
      "name": "getCurrentYieldInIBTOfUser",
      "outputs": [
        {
          "internalType": "uint256",
          "name": "_yieldOfUserInIBT",
          "type": "uint256"
        }
      ],
      "stateMutability": "view",
      "type": "function"
    },
    {
      "inputs": [],
      "name": "getFeeCollectorAddress",
      "outputs": [
        {
          "internalType": "address",
          "name": "",
          "type": "address"
        }
      ],
      "stateMutability": "view",
      "type": "function"
    },
    {
      "inputs": [],
      "name": "getIBT",
      "outputs": [
        {
          "internalType": "address",
          "name": "",
          "type": "address"
        }
      ],
      "stateMutability": "view",
      "type": "function"
    },
    {
      "inputs": [],
      "name": "getIBTRate",
      "outputs": [
        {
          "internalType": "uint256",
          "name": "",
          "type": "uint256"
        }
      ],
      "stateMutability": "view",
      "type": "function"
    },
    {
      "inputs": [],
      "name": "getIBTRateAtExpiry",
      "outputs": [
        {
          "internalType": "uint256",
          "name": "",
          "type": "uint256"
        }
      ],
      "stateMutability": "view",
      "type": "function"
    },
    {
      "inputs": [],
      "name": "getIBTUnit",
      "outputs": [
        {
          "internalType": "uint256",
          "name": "",
          "type": "uint256"
        }
      ],
      "stateMutability": "view",
      "type": "function"
    },
    {
      "inputs": [],
      "name": "getPTRate",
      "outputs": [
        {
          "internalType": "uint256",
          "name": "",
          "type": "uint256"
        }
      ],
      "stateMutability": "view",
      "type": "function"
    },
    {
      "inputs": [],
      "name": "getPTRateAtExpiry",
      "outputs": [
        {
          "internalType": "uint256",
          "name": "",
          "type": "uint256"
        }
      ],
      "stateMutability": "view",
      "type": "function"
    },
    {
      "inputs": [],
      "name": "getProtocolFee",
      "outputs": [
        {
          "internalType": "uint256",
          "name": "",
          "type": "uint256"
        }
      ],
      "stateMutability": "view",
      "type": "function"
    },
    {
      "inputs": [],
      "name": "getUnclaimedFeesInIBT",
      "outputs": [
        {
          "internalType": "uint256",
          "name": "",
          "type": "uint256"
        }
      ],
      "stateMutability": "view",
      "type": "function"
    },
    {
      "inputs": [],
      "name": "getYT",
      "outputs": [
        {
          "internalType": "address",
          "name": "",
          "type": "address"
        }
      ],
      "stateMutability": "view",
      "type": "function"
    },
    {
      "inputs": [
        {
          "internalType": "address",
          "name": "spender",
          "type": "address"
        },
        {
          "internalType": "uint256",
          "name": "addedValue",
          "type": "uint256"
        }
      ],
      "name": "increaseAllowance",
      "outputs": [
        {
          "internalType": "bool",
          "name": "",
          "type": "bool"
        }
      ],
      "stateMutability": "nonpayable",
      "type": "function"
    },
    {
      "inputs": [
        {
          "internalType": "string",
          "name": "_name",
          "type": "string"
        },
        {
          "internalType": "string",
          "name": "_symbol",
          "type": "string"
        },
        {
          "internalType": "address",
          "name": "_ibt",
          "type": "address"
        },
        {
          "internalType": "uint256",
          "name": "_expiry",
          "type": "uint256"
        },
        {
          "internalType": "uint256",
          "name": "_protocolFee",
          "type": "uint256"
        },
        {
          "internalType": "address",
          "name": "_ytBeacon",
          "type": "address"
        }
      ],
      "name": "initialize",
      "outputs": [],
      "stateMutability": "nonpayable",
      "type": "function"
    },
    {
      "inputs": [],
      "name": "maturity",
      "outputs": [
        {
          "internalType": "uint256",
          "name": "",
          "type": "uint256"
        }
      ],
      "stateMutability": "view",
      "type": "function"
    },
    {
      "inputs": [
        {
          "internalType": "address",
          "name": "",
          "type": "address"
        }
      ],
      "name": "maxDeposit",
      "outputs": [
        {
          "internalType": "uint256",
          "name": "",
          "type": "uint256"
        }
      ],
      "stateMutability": "pure",
      "type": "function"
    },
    {
      "inputs": [
        {
          "internalType": "address",
          "name": "",
          "type": "address"
        }
      ],
      "name": "maxMint",
      "outputs": [
        {
          "internalType": "uint256",
          "name": "",
          "type": "uint256"
        }
      ],
      "stateMutability": "pure",
      "type": "function"
    },
    {
      "inputs": [
        {
          "internalType": "address",
          "name": "owner",
          "type": "address"
        }
      ],
      "name": "maxRedeem",
      "outputs": [
        {
          "internalType": "uint256",
          "name": "",
          "type": "uint256"
        }
      ],
      "stateMutability": "view",
      "type": "function"
    },
    {
      "inputs": [
        {
          "internalType": "address",
          "name": "owner",
          "type": "address"
        }
      ],
      "name": "maxWithdraw",
      "outputs": [
        {
          "internalType": "uint256",
          "name": "",
          "type": "uint256"
        }
      ],
      "stateMutability": "view",
      "type": "function"
    },
    {
      "inputs": [
        {
          "internalType": "uint256",
          "name": "shares",
          "type": "uint256"
        },
        {
          "internalType": "address",
          "name": "receiver",
          "type": "address"
        },
        {
          "internalType": "uint256",
          "name": "maxAssets",
          "type": "uint256"
        }
      ],
      "name": "mint",
      "outputs": [
        {
          "internalType": "uint256",
          "name": "",
          "type": "uint256"
        }
      ],
      "stateMutability": "nonpayable",
      "type": "function"
    },
    {
      "inputs": [
        {
          "internalType": "uint256",
          "name": "shares",
          "type": "uint256"
        },
        {
          "internalType": "address",
          "name": "receiver",
          "type": "address"
        }
      ],
      "name": "mint",
      "outputs": [
        {
          "internalType": "uint256",
          "name": "",
          "type": "uint256"
        }
      ],
      "stateMutability": "nonpayable",
      "type": "function"
    },
    {
      "inputs": [],
      "name": "name",
      "outputs": [
        {
          "internalType": "string",
          "name": "",
          "type": "string"
        }
      ],
      "stateMutability": "view",
      "type": "function"
    },
    {
      "inputs": [
        {
          "internalType": "address",
          "name": "owner",
          "type": "address"
        }
      ],
      "name": "nonces",
      "outputs": [
        {
          "internalType": "uint256",
          "name": "",
          "type": "uint256"
        }
      ],
      "stateMutability": "view",
      "type": "function"
    },
    {
      "inputs": [],
      "name": "owner",
      "outputs": [
        {
          "internalType": "address",
          "name": "",
          "type": "address"
        }
      ],
      "stateMutability": "view",
      "type": "function"
    },
    {
      "inputs": [],
      "name": "pause",
      "outputs": [],
      "stateMutability": "nonpayable",
      "type": "function"
    },
    {
      "inputs": [],
      "name": "paused",
      "outputs": [
        {
          "internalType": "bool",
          "name": "",
          "type": "bool"
        }
      ],
      "stateMutability": "view",
      "type": "function"
    },
    {
      "inputs": [],
      "name": "pendingOwner",
      "outputs": [
        {
          "internalType": "address",
          "name": "",
          "type": "address"
        }
      ],
      "stateMutability": "view",
      "type": "function"
    },
    {
      "inputs": [
        {
          "internalType": "address",
          "name": "owner",
          "type": "address"
        },
        {
          "internalType": "address",
          "name": "spender",
          "type": "address"
        },
        {
          "internalType": "uint256",
          "name": "value",
          "type": "uint256"
        },
        {
          "internalType": "uint256",
          "name": "deadline",
          "type": "uint256"
        },
        {
          "internalType": "uint8",
          "name": "v",
          "type": "uint8"
        },
        {
          "internalType": "bytes32",
          "name": "r",
          "type": "bytes32"
        },
        {
          "internalType": "bytes32",
          "name": "s",
          "type": "bytes32"
        }
      ],
      "name": "permit",
      "outputs": [],
      "stateMutability": "nonpayable",
      "type": "function"
    },
    {
      "inputs": [
        {
          "internalType": "uint256",
          "name": "assets",
          "type": "uint256"
        }
      ],
      "name": "previewDeposit",
      "outputs": [
        {
          "internalType": "uint256",
          "name": "",
          "type": "uint256"
        }
      ],
      "stateMutability": "view",
      "type": "function"
    },
    {
      "inputs": [
        {
          "internalType": "uint256",
          "name": "shares",
          "type": "uint256"
        }
      ],
      "name": "previewMint",
      "outputs": [
        {
          "internalType": "uint256",
          "name": "",
          "type": "uint256"
        }
      ],
      "stateMutability": "view",
      "type": "function"
    },
    {
      "inputs": [
        {
          "internalType": "uint256",
          "name": "shares",
          "type": "uint256"
        }
      ],
      "name": "previewRedeem",
      "outputs": [
        {
          "internalType": "uint256",
          "name": "",
          "type": "uint256"
        }
      ],
      "stateMutability": "view",
      "type": "function"
    },
    {
      "inputs": [
        {
          "internalType": "uint256",
          "name": "assets",
          "type": "uint256"
        }
      ],
      "name": "previewWithdraw",
      "outputs": [
        {
          "internalType": "uint256",
          "name": "",
          "type": "uint256"
        }
      ],
      "stateMutability": "view",
      "type": "function"
    },
    {
      "inputs": [
        {
          "internalType": "uint256",
          "name": "shares",
          "type": "uint256"
        },
        {
          "internalType": "address",
          "name": "receiver",
          "type": "address"
        },
        {
          "internalType": "address",
          "name": "owner",
          "type": "address"
        },
        {
          "internalType": "uint256",
          "name": "minAssets",
          "type": "uint256"
        }
      ],
      "name": "redeem",
      "outputs": [
        {
          "internalType": "uint256",
          "name": "",
          "type": "uint256"
        }
      ],
      "stateMutability": "nonpayable",
      "type": "function"
    },
    {
      "inputs": [
        {
          "internalType": "uint256",
          "name": "shares",
          "type": "uint256"
        },
        {
          "internalType": "address",
          "name": "receiver",
          "type": "address"
        },
        {
          "internalType": "address",
          "name": "owner",
          "type": "address"
        }
      ],
      "name": "redeem",
      "outputs": [
        {
          "internalType": "uint256",
          "name": "assets",
          "type": "uint256"
        }
      ],
      "stateMutability": "nonpayable",
      "type": "function"
    },
    {
      "inputs": [],
      "name": "renounceOwnership",
      "outputs": [],
      "stateMutability": "nonpayable",
      "type": "function"
    },
    {
      "inputs": [
        {
          "internalType": "address",
          "name": "_feeCollector",
          "type": "address"
        }
      ],
      "name": "setFeeCollector",
      "outputs": [],
      "stateMutability": "nonpayable",
      "type": "function"
    },
    {
      "inputs": [
        {
          "internalType": "uint256",
          "name": "newProtocolFee",
          "type": "uint256"
        }
      ],
      "name": "setProtocolFee",
      "outputs": [],
      "stateMutability": "nonpayable",
      "type": "function"
    },
    {
      "inputs": [],
      "name": "storeRatesAtExpiry",
      "outputs": [
        {
          "internalType": "uint256",
          "name": "_ibtRate",
          "type": "uint256"
        },
        {
          "internalType": "uint256",
          "name": "_ptRate",
          "type": "uint256"
        }
      ],
      "stateMutability": "nonpayable",
      "type": "function"
    },
    {
      "inputs": [],
      "name": "symbol",
      "outputs": [
        {
          "internalType": "string",
          "name": "",
          "type": "string"
        }
      ],
      "stateMutability": "view",
      "type": "function"
    },
    {
      "inputs": [],
      "name": "totalAssets",
      "outputs": [
        {
          "internalType": "uint256",
          "name": "",
          "type": "uint256"
        }
      ],
      "stateMutability": "view",
      "type": "function"
    },
    {
      "inputs": [],
      "name": "totalSupply",
      "outputs": [
        {
          "internalType": "uint256",
          "name": "",
          "type": "uint256"
        }
      ],
      "stateMutability": "view",
      "type": "function"
    },
    {
      "inputs": [
        {
          "internalType": "address",
          "name": "to",
          "type": "address"
        },
        {
          "internalType": "uint256",
          "name": "amount",
          "type": "uint256"
        }
      ],
      "name": "transfer",
      "outputs": [
        {
          "internalType": "bool",
          "name": "",
          "type": "bool"
        }
      ],
      "stateMutability": "nonpayable",
      "type": "function"
    },
    {
      "inputs": [
        {
          "internalType": "address",
          "name": "from",
          "type": "address"
        },
        {
          "internalType": "address",
          "name": "to",
          "type": "address"
        },
        {
          "internalType": "uint256",
          "name": "amount",
          "type": "uint256"
        }
      ],
      "name": "transferFrom",
      "outputs": [
        {
          "internalType": "bool",
          "name": "",
          "type": "bool"
        }
      ],
      "stateMutability": "nonpayable",
      "type": "function"
    },
    {
      "inputs": [
        {
          "internalType": "address",
          "name": "newOwner",
          "type": "address"
        }
      ],
      "name": "transferOwnership",
      "outputs": [],
      "stateMutability": "nonpayable",
      "type": "function"
    },
    {
      "inputs": [],
      "name": "unPause",
      "outputs": [],
      "stateMutability": "nonpayable",
      "type": "function"
    },
    {
      "inputs": [],
      "name": "underlying",
      "outputs": [
        {
          "internalType": "address",
          "name": "",
          "type": "address"
        }
      ],
      "stateMutability": "view",
      "type": "function"
    },
    {
      "inputs": [
        {
          "internalType": "address",
          "name": "_user",
          "type": "address"
        }
      ],
      "name": "updateYield",
      "outputs": [
        {
          "internalType": "uint256",
          "name": "updatedUserYieldInIBT",
          "type": "uint256"
        }
      ],
      "stateMutability": "nonpayable",
      "type": "function"
    },
    {
      "inputs": [
        {
          "internalType": "uint256",
          "name": "assets",
          "type": "uint256"
        },
        {
          "internalType": "address",
          "name": "receiver",
          "type": "address"
        },
        {
          "internalType": "address",
          "name": "owner",
          "type": "address"
        },
        {
          "internalType": "uint256",
          "name": "maxShares",
          "type": "uint256"
        }
      ],
      "name": "withdraw",
      "outputs": [
        {
          "internalType": "uint256",
          "name": "",
          "type": "uint256"
        }
      ],
      "stateMutability": "nonpayable",
      "type": "function"
    },
    {
      "inputs": [
        {
          "internalType": "uint256",
          "name": "assets",
          "type": "uint256"
        },
        {
          "internalType": "address",
          "name": "receiver",
          "type": "address"
        },
        {
          "internalType": "address",
          "name": "owner",
          "type": "address"
        }
      ],
      "name": "withdraw",
      "outputs": [
        {
          "internalType": "uint256",
          "name": "shares",
          "type": "uint256"
        }
      ],
      "stateMutability": "nonpayable",
      "type": "function"
    },
    {
      "inputs": [
        {
          "internalType": "address",
          "name": "receiver",
          "type": "address"
        },
        {
          "internalType": "address",
          "name": "owner",
          "type": "address"
        }
      ],
      "name": "withdrawAfterExpiry",
      "outputs": [
        {
          "internalType": "uint256",
          "name": "withdrawnAssets",
          "type": "uint256"
        }
      ],
      "stateMutability": "nonpayable",
      "type": "function"
    },
    {
      "inputs": [
        {
          "internalType": "address",
          "name": "",
          "type": "address"
        }
      ],
      "name": "yieldOfUserInIBT",
      "outputs": [
        {
          "internalType": "uint256",
          "name": "",
          "type": "uint256"
        }
      ],
      "stateMutability": "view",
      "type": "function"
    }
  ],
  "bytecode": {
    "object": "0x60806040523480156200001157600080fd5b506200001c62000022565b620000e3565b600054610100900460ff16156200008f5760405162461bcd60e51b815260206004820152602760248201527f496e697469616c697a61626c653a20636f6e747261637420697320696e697469604482015266616c697a696e6760c81b606482015260840160405180910390fd5b60005460ff90811614620000e1576000805460ff191660ff9081179091556040519081527f7f26b83ff96e1f2b6a682f133852f6798a09c465da95921460cefb38474024989060200160405180910390a15b565b61589480620000f36000396000f3fe60806040523480156200001157600080fd5b5060043610620004d55760003560e01c806379ba50971162000289578063b460af941162000161578063d294f09311620000d3578063ef8b30f71162000092578063ef8b30f71462000a51578063efd98dc21462000a68578063f2fde38b1462000a72578063f7b188a51462000a89578063f90d63db1462000a9357600080fd5b8063d294f09314620009f0578063d505accf14620009fa578063d905777e1462000a11578063dd62ed3e1462000a28578063e30c39781462000a3f57600080fd5b8063c63d75b61162000120578063c63d75b614620006d0578063c644fe9414620009af578063c6e6f59214620005ef578063cd084de514620009c2578063ce96cb7714620009d957600080fd5b8063b460af941462000940578063ba0876521462000957578063bafc0f14146200096e578063bc157ac11462000985578063bf2d75fb146200099c57600080fd5b8063a1c5b3e111620001fb578063a9059cbb11620001ba578063a9059cbb14620008fb578063aca505f714620006f2578063b2b84d941462000912578063b346db0c1462000929578063b3d7f6b9146200053757600080fd5b8063a1c5b3e114620008a2578063a318c1a414620008ac578063a42dce8014620008c3578063a457c2d714620008da578063a5a4103114620008f157600080fd5b80638da5cb5b11620002485780638da5cb5b146200083857806394bf804d146200084a57806395d89b4114620008615780639f40a7b3146200086b578063a13c91a3146200088257600080fd5b806379ba509714620007df5780637cafde7f14620007e95780637ecebe001462000800578063836a104014620008175780638456cb59146200082e57600080fd5b80633644e51511620003bd5780635c975abb116200032f57806370a0823111620002ee57806370a082311462000788578063714d422b14620007b4578063715018a614620007be57806375ba1dac1462000709578063787dce3d14620007c857600080fd5b80635c975abb146200075057806367936420146200075d5780636956df1714620007675780636e553f6514620007715780636f307dc3146200068957600080fd5b8063406cf229116200037c578063406cf22914620006e857806344ba8add14620006f257806347609bd414620007095780634cdad50614620007205780634f72ec2f146200073757600080fd5b80633644e515146200067f57806338d52e0f14620006895780633950935114620006a25780633ca7c82d14620006b9578063402d267d14620006d057600080fd5b80631f2b4f241162000457578063277a04d61162000416578063277a04d614620006065780632b930fa3146200061d5780632c660fbc14620006275780632e2d2984146200064b578063313ce567146200066257600080fd5b80631f2b4f2414620005ad578063204f83f914620005b757806321b62f9614620005c157806323b872dd14620005d857806325a8d87d14620005ef57600080fd5b8063095ea7b311620004a4578063095ea7b3146200054e5780630a28a47714620005765780630ad225bc146200058d57806318160ddd14620005a45780631dc7f521146200053757600080fd5b806301e1d11414620004da57806304aa50ad14620004f757806306fdde03146200051e57806307a2d13a1462000537575b600080fd5b620004e462000aaa565b6040519081526020015b60405180910390f35b610195546001600160a01b03165b6040516001600160a01b039091168152602001620004ee565b6200052862000b32565b604051620004ee9190620045c8565b620004e462000548366004620045dd565b62000bcc565b620005656200055f3660046200460d565b62000bdf565b6040519015158152602001620004ee565b620004e462000587366004620045dd565b62000bf9565b620004e46200059e3660046200463c565b62000ca8565b603554620004e4565b61019654620004e4565b61019c54620004e4565b620004e4620005d236600462004683565b62000d20565b62000565620005e9366004620046c1565b62000fe9565b620004e462000600366004620045dd565b62001011565b620004e46200061736600462004707565b6200101e565b620004e462001059565b620004e46200063836600462004731565b6101a26020526000908152604090205481565b620004e46200065c3660046200463c565b62001089565b6200066c620011a4565b60405160ff9091168152602001620004ee565b620004e46200121b565b610194546201000090046001600160a01b031662000505565b62000565620006b33660046200460d565b62001227565b620004e4620006ca366004620045dd565b6200124f565b620004e4620006e136600462004731565b5060001990565b620004e46200125c565b620004e46200070336600462004751565b620012d4565b620004e46200071a36600462004751565b620012f3565b620004e462000731366004620045dd565b62001307565b6200074e6200074836600462004683565b6200138f565b005b6101625460ff1662000565565b61019754620004e4565b620004e4620013d8565b620004e46200078236600462004774565b62001408565b620004e46200079936600462004731565b6001600160a01b031660009081526033602052604090205490565b61019e54620004e4565b6200074e62001417565b6200074e620007d9366004620045dd565b6200142f565b6200074e62001499565b620004e4620007fa366004620045dd565b6200151b565b620004e46200081136600462004731565b62001805565b620004e46200082836600462004707565b62001824565b6200074e62001856565b60cc546001600160a01b031662000505565b620004e46200085b36600462004774565b6200186a565b620005286200188e565b620004e46200087c3660046200479c565b6200189f565b6200088c620018dc565b60408051928352602083019190915201620004ee565b61019a54620004e4565b620004e4620008bd3660046200479c565b62001985565b6200074e620008d436600462004731565b620019b9565b62000565620008eb3660046200460d565b62001a36565b61019f54620004e4565b620005656200090c3660046200460d565b62001ab7565b620004e46200092336600462004731565b62001ac7565b620004e46200093a366004620045dd565b62001ae7565b620004e4620009513660046200463c565b62001af4565b620004e4620009683660046200463c565b62001e84565b620004e46200097f36600462004774565b62002009565b620004e46200099636600462004707565b62002018565b610199546001600160a01b031662000505565b61019d546001600160a01b031662000505565b6200074e620009d3366004620048ba565b62002027565b620004e4620009ea36600462004731565b620024b7565b620004e4620025f8565b6200074e62000a0b36600462004972565b6200270e565b620004e462000a2236600462004731565b6200287e565b620004e462000a3936600462004683565b620028b3565b60fe546001600160a01b031662000505565b620004e462000a62366004620045dd565b620028de565b61019b54620004e4565b6200074e62000a8336600462004731565b6200291a565b6200074e6200298e565b620004e462000aa436600462004731565b620029a2565b61019d546040516370a0823160e01b815230600482015260009182916001600160a01b03909116906370a0823190602401602060405180830381865afa15801562000af9573d6000803e3d6000fd5b505050506040513d601f19601f8201168201806040525081019062000b1f9190620049ea565b905062000b2c816200124f565b91505090565b60606036805462000b439062004a04565b80601f016020809104026020016040519081016040528092919081815260200182805462000b719062004a04565b801562000bc25780601f1062000b965761010080835404028352916020019162000bc2565b820191906000526020600020905b81548152906001019060200180831162000ba457829003601f168201915b5050505050905090565b600062000bd98262002a8f565b92915050565b60003362000bef81858562002ab0565b5060019392505050565b600062000c0562002bd8565b60008062000c1262002c21565b91509150600062000c2533848462002c60565b9050600062000c67670de0b6b3a764000061019f54670de0b6b3a764000062000c4f919062004a50565b62000c5b908562004a66565b620006ca919062004a96565b905080861162000c7d5750600095945050505050565b62000c9462000c8d828862004a50565b85620012f3565b9695505050505050565b505050505b919050565b600061019c5442111562000ccf5760405163ba47162960e01b815260040160405180910390fd5b62000cd962002bd8565b62000ce362002ca8565b61019d5462000cfe906001600160a01b031633308762002d05565b62000d0b84848462002d78565b905062000d19600161013055565b9392505050565b600061019c5442101562000d4757604051630cf27fc360e11b815260040160405180910390fd5b62000d5162002ca8565b62000d5b62002bd8565b6001600160a01b038216331462000d8557604051636db2465f60e01b815260040160405180910390fd5b600062000d92836200287e565b9050600062000da18262001307565b905062000db2338686848662002e29565b600062000dbf85620029a2565b6001600160a01b03861660009081526101a26020526040812081905561019f5491925090670de0b6b3a76400009062000df9908462004a66565b62000e05919062004a96565b905062000e128162002e9d565b62000e1e818362004a50565b9150866001600160a01b03167f756e93dd7a18a6d27429a3d68659332413f14c4494d1dc68a987dfaba5c1ca8b62000e56846200124f565b60405190815260200160405180910390a262000e72826200124f565b62000e7e908462004ab9565b61019d54604051632d182be560e21b81529196506001600160a01b03169063b460af949062000eb69088908b90309060040162004acf565b6020604051808303816000875af115801562000ed6573d6000803e3d6000fd5b505050506040513d601f19601f8201168201806040525081019062000efc9190620049ea565b50610195546040516305ea542b60e21b81526001600160a01b0388811660048301529091169063bd6e3f7d90889083906317a950ac90602401602060405180830381865afa15801562000f53573d6000803e3d6000fd5b505050506040513d601f19601f8201168201806040525081019062000f799190620049ea565b6040516001600160e01b031960e085901b1681526001600160a01b0390921660048301526024820152604401600060405180830381600087803b15801562000fc057600080fd5b505af115801562000fd5573d6000803e3d6000fd5b505050505050505062000bd9600161013055565b60003362000ff985828562002eca565b6200100685858562002f45565b506001949350505050565b600062000bd982620030f8565b6000806200102d858562002009565b9050828110156200105157604051631733f94560e31b815260040160405180910390fd5b949350505050565b6101945460009060ff16620010815760405163176d08c960e21b815260040160405180910390fd5b5061019b5490565b600061019c54421115620010b05760405163ba47162960e01b815260040160405180910390fd5b620010ba62002ca8565b620010c462002bd8565b61019454620010e5906201000090046001600160a01b031633308762002d05565b6101945461019d546200110c916001600160a01b036201000090910481169116866200311a565b61019d54604051636e553f6560e01b8152600481018690523060248201526000916001600160a01b031690636e553f65906044016020604051808303816000875af115801562001160573d6000803e3d6000fd5b505050506040513d601f19601f82011682018060405250810190620011869190620049ea565b90506200119581858562002d78565b91505062000d19600161013055565b61019d546040805163313ce56760e01b815290516000926001600160a01b03169163313ce5679160048083019260209291908290030181865afa158015620011f0573d6000803e3d6000fd5b505050506040513d601f19601f8201168201806040525081019062001216919062004aee565b905090565b600062001216620031d3565b60003362000bef8185856200123d8383620028b3565b62001249919062004ab9565b62002ab0565b600062000bd98262003250565b610195546040516305ea542b60e21b815233600482015260009162001216916001600160a01b03909116906317a950ac90602401602060405180830381865afa158015620012ae573d6000803e3d6000fd5b505050506040513d601f19601f82011682018060405250810190620007fa9190620049ea565b61019654600090620012e7838562004a66565b62000d19919062004a96565b6000816101965484620012e7919062004a66565b600061019c544210156200132e57604051630cf27fc360e11b815260040160405180910390fd5b6200133862002bd8565b6101945460ff161562001376576000620013568361019a54620012d4565b90506000620013698261019b54620012f3565b905062001051816200124f565b60405163176d08c960e21b815260040160405180910390fd5b610195546001600160a01b03163314620013bc5760405163f65cb3c760e01b815260040160405180910390fd5b620013c782620029a2565b50620013d381620029a2565b505050565b6101945460009060ff16620014005760405163176d08c960e21b815260040160405180910390fd5b5061019a5490565b600062000d1983838462001089565b62001421620032c3565b6200142d60006200331f565b565b62001439620032c3565b670de0b6b3a7640000811115620014635760405163585727cf60e11b815260040160405180910390fd5b61019f546040518291907fb404cac19fb1cbeff98d325795b08886e3cd8fe8cb1a2f193aac66f13fb239c390600090a361019f55565b60fe5433906001600160a01b031681146200150d5760405162461bcd60e51b815260206004820152602960248201527f4f776e61626c6532537465703a2063616c6c6572206973206e6f7420746865206044820152683732bb9037bbb732b960b91b60648201526084015b60405180910390fd5b62001518816200331f565b50565b600061019c54421115620015425760405163ba47162960e01b815260040160405180910390fd5b3360006200155082620029a2565b610195546040516305ea542b60e21b81526001600160a01b038581166004830152929350600092909116906317a950ac90602401602060405180830381865afa158015620015a2573d6000803e3d6000fd5b505050506040513d601f19601f82011682018060405250810190620015c89190620049ea565b90508115801590620015e2575084151580620015e2575080155b15620017fa57808511620015f75784620015f9565b805b945060008115620016265762001620610196548762001619919062004a66565b836200333a565b6200162b565b610196545b610196549091506200163e828562004a66565b6200164a919062004a96565b6001600160a01b03851660009081526101a2602052604090205490935083111562001688576040516333d0fe7160e21b815260040160405180910390fd5b6001600160a01b03841660009081526101a2602052604081208054859290620016b390849062004a50565b909155505061019f54600090670de0b6b3a764000090620016d5908662004a66565b620016e1919062004a96565b9050620016ee8162002e9d565b620016fa818562004a50565b9350600062001709856200124f565b9050856001600160a01b03167f756e93dd7a18a6d27429a3d68659332413f14c4494d1dc68a987dfaba5c1ca8b826040516200174791815260200190565b60405180910390a261019454610100900460ff166200176e57955062000ca3945050505050565b61019d54604051632d182be560e21b81526001600160a01b039091169063b460af9490620017a59084908a90309060040162004acf565b6020604051808303816000875af1158015620017c5573d6000803e3d6000fd5b505050506040513d601f19601f82011682018060405250810190620017eb9190620049ea565b50955062000ca3945050505050565b506000949350505050565b6001600160a01b03811660009081526099602052604081205462000bd9565b6000806200183385856200186a565b905082811115620010515760405162b1b7d560e01b815260040160405180910390fd5b62001860620032c3565b6200142d62003379565b600080620018788462000bcc565b905062001886818462001408565b509392505050565b60606037805462000b439062004a04565b600080620018af86868662001e84565b905082811015620018d357604051636eacc14760e11b815260040160405180910390fd5b95945050505050565b60008061019c544210156200190457604051630cf27fc360e11b815260040160405180910390fd5b6101945460ff16156200192a576040516333072e9d60e11b815260040160405180910390fd5b610194805460ff1916600117905562001942620033d7565b61019b81905561019a829055604051909350909150819083907f86f6956dfa46dcc6315cbb9f8917848f94efdedd075e2500cb1edfcf9102917290600090a39091565b6000806200199586868662001af4565b905082811115620018d357604051634e1bd77160e11b815260040160405180910390fd5b620019c3620032c3565b6001600160a01b038116620019eb57604051633efa09af60e01b815260040160405180910390fd5b61019980546001600160a01b0319166001600160a01b0383169081179091556040517ff97f0ac0b801f3b371667c7a2c930d65f33a0a01307fab585a6aa2bcf111252290600090a250565b6000338162001a468286620028b3565b90508381101562001aa85760405162461bcd60e51b815260206004820152602560248201527f45524332303a2064656372656173656420616c6c6f77616e63652062656c6f77604482015264207a65726f60d81b606482015260840162001504565b62001006828686840362002ab0565b60003362000bef81858562002f45565b600080600062001ad662002c21565b915091506200105184838362002c60565b600062000bd9826200342e565b600061019c5442111562001b1b5760405163ba47162960e01b815260040160405180910390fd5b62001b2562002bd8565b62001b2f62002ca8565b6001600160a01b038216331462001b5957604051636db2465f60e01b815260040160405180910390fd5b600062001b6683620029a2565b9050600062001b7584620024b7565b90508581101562001b985760405162b1b7d560e01b815260040160405180910390fd5b610195546040516305ea542b60e21b81526001600160a01b03868116600483015260009216906317a950ac90602401602060405180830381865afa15801562001be5573d6000803e3d6000fd5b505050506040513d601f19601f8201168201806040525081019062001c0b9190620049ea565b9050600062001c2f866001600160a01b031660009081526033602052604090205490565b905081811162001c40578062001c42565b815b9050600062001c556200093a8362000bcc565b90508060000362001c6f5760009550505050505062001e78565b6000670de0b6b3a764000061019f548762001c8b919062004a66565b62001c97919062004a96565b9050600062001ca68b62001ae7565b9050600062001cb6838962004a50565b82111562001cf95750848362001ccd848a62004a50565b62001cd9908462004a50565b62001ce5908762004a66565b62001cf1919062004a96565b985062001d51565b62001d05838962004a50565b60000362001d26576040516344cc445360e11b815260040160405180910390fd5b62001d32838962004a50565b62001d3e878462004a66565b62001d4a919062004a96565b9050600098505b610194805461ff001916905562001d68816200151b565b50610194805461ff0019166101001790556101955460405163bd6e3f7d60e01b81526001600160a01b038c81166004830152602482018c90529091169063bd6e3f7d90604401600060405180830381600087803b15801562001dc957600080fd5b505af115801562001dde573d6000803e3d6000fd5b5050505062001df1338c8c8f8d62002e29565b61019d54604051632d182be560e21b81526001600160a01b039091169063b460af949062001e28908f908f90309060040162004acf565b6020604051808303816000875af115801562001e48573d6000803e3d6000fd5b505050506040513d601f19601f8201168201806040525081019062001e6e9190620049ea565b5050505050505050505b62000d19600161013055565b600061019c5442101562001eab57604051630cf27fc360e11b815260040160405180910390fd5b62001eb562002ca8565b62001ebf62002bd8565b6001600160a01b038216331462001ee957604051636db2465f60e01b815260040160405180910390fd5b62001ef4826200287e565b84111562001f1557604051634e1bd77160e11b815260040160405180910390fd5b62001f208462001307565b905062001f31338484848862002e29565b61019d54604051632d182be560e21b81526001600160a01b039091169063b460af949062001f689084908790309060040162004acf565b6020604051808303816000875af115801562001f88573d6000803e3d6000fd5b505050506040513d601f19601f8201168201806040525081019062001fae9190620049ea565b50826001600160a01b0316826001600160a01b03167fd12200efa34901b99367694174c3b0d32c99585fdf37c7c26892136ddd0836d98360405162001ff591815260200190565b60405180910390a362000d19600161013055565b600062000d1983838462000ca8565b6000806200102d858562001408565b600054610100900460ff1615808015620020485750600054600160ff909116105b80620020645750303b15801562002064575060005460ff166001145b620020c95760405162461bcd60e51b815260206004820152602e60248201527f496e697469616c697a61626c653a20636f6e747261637420697320616c72656160448201526d191e481a5b9a5d1a585b1a5e995960921b606482015260840162001504565b6000805460ff191660011790558015620020ed576000805461ff0019166101001790555b6001600160a01b03821615806200210b57506001600160a01b038516155b156200212a57604051633efa09af60e01b815260040160405180910390fd5b846001600160a01b03166338d52e0f6040518163ffffffff1660e01b8152600401602060405180830381865afa15801562002169573d6000803e3d6000fd5b505050506040513d601f19601f820116820180604052508101906200218f919062004b0e565b61019480546001600160a01b0392909216620100000262010000600160b01b0319909216919091179055620021c5428562004ab9565b61019c819055506000856001600160a01b03166395d89b416040518163ffffffff1660e01b8152600401600060405180830381865afa1580156200220d573d6000803e3d6000fd5b505050506040513d6000823e601f3d908101601f1916820160405262002237919081019062004b2e565b905060006200224a8261019c5462003462565b9050620022588982620034ce565b620022638962003508565b6200226d62003557565b620022776200358b565b62002281620035bf565b866001600160a01b031663313ce5676040518163ffffffff1660e01b8152600401602060405180830381865afa158015620022c0573d6000803e3d6000fd5b505050506040513d601f19601f82011682018060405250810190620022e6919062004aee565b620022f390600a62004ca2565b6101968190555061019460029054906101000a90046001600160a01b03166001600160a01b031663313ce5676040518163ffffffff1660e01b8152600401602060405180830381865afa1580156200234f573d6000803e3d6000fd5b505050506040513d601f19601f8201168201806040525081019062002375919062004aee565b6200238290600a62004ca2565b6101975561019d80546001600160a01b0319166001600160a01b03891617905561019c54600090620023b6908490620035f3565b9050620023e86040518060400160405280600b81526020016a2cb4b2b632102a37b5b2b760a91b81525082876200367c565b61019580546001600160a01b0319166001600160a01b03929092169190911790556101965462002418906200124f565b61019b556101975461019a55670de0b6b3a76400008611156200244e5760405163585727cf60e11b815260040160405180910390fd5b50505061019f839055610194805461ff0019166101001790558015620024ae576000805461ff0019169055604051600181527f7f26b83ff96e1f2b6a682f133852f6798a09c465da95921460cefb38474024989060200160405180910390a15b50505050505050565b6000620024c362002bd8565b6001600160a01b038216600090815260336020526040812054610195546040516305ea542b60e21b81526001600160a01b038681166004830152929350600092909116906317a950ac90602401602060405180830381865afa1580156200252e573d6000803e3d6000fd5b505050506040513d601f19601f82011682018060405250810190620025549190620049ea565b9050600061019c5442116200257c5781831162002572578262002574565b815b90506200257f565b50815b6000806200258c62002c21565b9150915060006200259f88848462002c60565b9050620025ad8484620012d4565b620025e0670de0b6b3a76400008361019f54670de0b6b3a7640000620025d4919062004a50565b62000c5b919062004a66565b620025ec919062004ab9565b98975050505050505050565b610199546000906001600160a01b03163314620026285760405163a97a58a160e01b815260040160405180910390fd5b61019e54600062002639826200124f565b600061019e5561019d5461019954604051632d182be560e21b81529293506001600160a01b039182169263b460af94926200267e928692911690309060040162004acf565b6020604051808303816000875af11580156200269e573d6000803e3d6000fd5b505050506040513d601f19601f82011682018060405250810190620026c49190620049ea565b50610199546040518381526001600160a01b03909116907f20ca5094f3a20c321cbe4123d0f01b276b81df0fa24cd4d83d9253956035d8639060200160405180910390a292915050565b83421115620027605760405162461bcd60e51b815260206004820152601d60248201527f45524332305065726d69743a206578706972656420646561646c696e65000000604482015260640162001504565b60007f6e71edae12b1b97f4d1f60370fef10105fa2faae0126114a169c64845d6126c9888888620027918c62003748565b6040805160208101969096526001600160a01b0394851690860152929091166060840152608083015260a082015260c0810186905260e0016040516020818303038152906040528051906020012090506000620027ee8262003770565b905060006200280082878787620037c1565b9050896001600160a01b0316816001600160a01b031614620028655760405162461bcd60e51b815260206004820152601e60248201527f45524332305065726d69743a20696e76616c6964207369676e61747572650000604482015260640162001504565b620028728a8a8a62002ab0565b50505050505050505050565b600061019c544210156200289457600062000bd9565b6001600160a01b03821660009081526033602052604090205462000bd9565b6001600160a01b03918216600090815260346020908152604080832093909416825291909152205490565b600061019c54421115620029055760405163ba47162960e01b815260040160405180910390fd5b6200290f62002bd8565b62000bd98262001011565b62002924620032c3565b60fe80546001600160a01b0383166001600160a01b031990911681179091556200295660cc546001600160a01b031690565b6001600160a01b03167f38d16b8cac22d99fc7c124b9cd0de2d3fa1faef420bfe791d8c362d765e2270060405160405180910390a350565b62002998620032c3565b6200142d620037ed565b6000806000620029b16200382a565b6001600160a01b03861660009081526101a060209081526040808320546101a19092529091205492945090925090811562002a3d57620029f586838584886200386e565b6001600160a01b03871660008181526101a260205260408082208490555192975087927f18cb9436df0c2ab8f3a0284742076c6ddf8a478776316b4b0d008d79372354909190a35b82821462002a62576001600160a01b03861660009081526101a0602052604090208390555b83811462000c9e576001600160a01b03861660009081526101a16020526040902084905550505050919050565b60008062002a9c62002c21565b5061019654909150620012e7828562004a66565b6001600160a01b03831662002b145760405162461bcd60e51b8152602060048201526024808201527f45524332303a20617070726f76652066726f6d20746865207a65726f206164646044820152637265737360e01b606482015260840162001504565b6001600160a01b03821662002b775760405162461bcd60e51b815260206004820152602260248201527f45524332303a20617070726f766520746f20746865207a65726f206164647265604482015261737360f01b606482015260840162001504565b6001600160a01b0383811660008181526034602090815260408083209487168084529482529182902085905590518481527f8c5be1e5ebec7d5bd14f71427d1e84f3dd0314c0f7b2291e5b200ac8c7c3b925910160405180910390a3505050565b6101625460ff16156200142d5760405162461bcd60e51b815260206004820152601060248201526f14185d5cd8589b194e881c185d5cd95960821b604482015260640162001504565b60008061019c54421062002c4a576101945460ff16156200137657505061019a5461019b549091565b62002c54620033d7565b915091509091565b9091565b6001600160a01b03831660009081526101a060209081526040808320546101a1909252822054811562002c9f5762002c9c86838684896200386e565b92505b50509392505050565b6002610130540362002cfd5760405162461bcd60e51b815260206004820152601f60248201527f5265656e7472616e637947756172643a207265656e7472616e742063616c6c00604482015260640162001504565b600261013055565b6040516001600160a01b038085166024830152831660448201526064810182905262002d729085906323b872dd60e01b906084015b60408051601f198184030181529190526020810180516001600160e01b03166001600160e01b03199093169290921790915262003a7c565b50505050565b600062002d8582620029a2565b50600062002d93856200124f565b905062002da08162001011565b915062002db03385838562003b55565b610195546040516340c10f1960e01b81526001600160a01b03858116600483015260248201859052909116906340c10f1990604401600060405180830381600087803b15801562002e0057600080fd5b505af115801562002e15573d6000803e3d6000fd5b50505050509392505050565b600161013055565b62002e35838262003bbe565b826001600160a01b0316846001600160a01b0316866001600160a01b03167ffbde797d201c681b91056529119e0b02407c7bb96a4a2c75c01fc9667232c8db858560405162002e8e929190918252602082015260400190565b60405180910390a45050505050565b8061019e5462002eae919062004ab9565b61019e556101985462002ec390829062004ab9565b6101985550565b600062002ed88484620028b3565b9050600019811462002d72578181101562002f365760405162461bcd60e51b815260206004820152601d60248201527f45524332303a20696e73756666696369656e7420616c6c6f77616e6365000000604482015260640162001504565b62002d72848484840362002ab0565b6001600160a01b03831662002fab5760405162461bcd60e51b815260206004820152602560248201527f45524332303a207472616e736665722066726f6d20746865207a65726f206164604482015264647265737360d81b606482015260840162001504565b6001600160a01b0382166200300f5760405162461bcd60e51b815260206004820152602360248201527f45524332303a207472616e7366657220746f20746865207a65726f206164647260448201526265737360e81b606482015260840162001504565b6001600160a01b03831660009081526033602052604090205481811015620030895760405162461bcd60e51b815260206004820152602660248201527f45524332303a207472616e7366657220616d6f756e7420657863656564732062604482015265616c616e636560d01b606482015260840162001504565b6001600160a01b0380851660008181526033602052604080822086860390559286168082529083902080548601905591517fddf252ad1be2c89b69c2b068fc378daa952ba7f163c4a11628f55a4df523b3ef90620030ea9086815260200190565b60405180910390a362002d72565b6000806200310562002c21565b509050806101965484620012e7919062004a66565b604051636eb1769f60e11b81523060048201526001600160a01b038381166024830152600091839186169063dd62ed3e90604401602060405180830381865afa1580156200316c573d6000803e3d6000fd5b505050506040513d601f19601f82011682018060405250810190620031929190620049ea565b6200319e919062004ab9565b6040516001600160a01b03851660248201526044810182905290915062002d7290859063095ea7b360e01b9060640162002d3a565b6000620012167f8b73c3c69bb8fe3d512ecc4cf759cc79239f7b179b0ffacaa9a75d522b39400f6200320460655490565b6066546040805160208101859052908101839052606081018290524660808201523060a082015260009060c0016040516020818303038152906040528051906020012090509392505050565b61019d546040516303d1689d60e11b8152600481018390526000916001600160a01b0316906307a2d13a906024015b602060405180830381865afa1580156200329d573d6000803e3d6000fd5b505050506040513d601f19601f8201168201806040525081019062000bd99190620049ea565b60cc546001600160a01b031633146200142d5760405162461bcd60e51b815260206004820181905260248201527f4f776e61626c653a2063616c6c6572206973206e6f7420746865206f776e6572604482015260640162001504565b60fe80546001600160a01b0319169055620015188162003cf6565b600082156200337057816200335160018562004a50565b6200335d919062004a96565b6200336a90600162004ab9565b62000d19565b50600092915050565b6200338362002bd8565b610162805460ff191660011790557f62e78cea01bee320cd4e420270b5ea74000d11b0c9f74754ebdbfc544b05a258620033ba3390565b6040516001600160a01b03909116815260200160405180910390a1565b6000806000620033ea610196546200124f565b9050600061019b548210620034035761019a5462003424565b61019b548261019a5462003418919062004a66565b62003424919062004a96565b9491935090915050565b61019d546040516363737ac960e11b8152600481018390526000916001600160a01b03169063c6e6f592906024016200327f565b60606000620034718362003d48565b905060006200349a85604051806040016040528060018152602001602d60f81b81525062003e90565b9050620018d3620034c76040518060400160405280600381526020016250542d60e81b8152508362003e90565b8362003e90565b600054610100900460ff16620034f85760405162461bcd60e51b8152600401620015049062004cb3565b62003504828262003ebe565b5050565b600054610100900460ff16620035325760405162461bcd60e51b8152600401620015049062004cb3565b6200151881604051806040016040528060018152602001603160f81b81525062003f05565b600054610100900460ff16620035815760405162461bcd60e51b8152600401620015049062004cb3565b6200142d62003f49565b600054610100900460ff16620035b55760405162461bcd60e51b8152600401620015049062004cb3565b6200142d62003f7e565b600054610100900460ff16620035e95760405162461bcd60e51b8152600401620015049062004cb3565b6200142d62003fb5565b60606000620036028362003d48565b905060006200362b85604051806040016040528060018152602001602d60f81b81525062003e90565b9050620018d3620034c76040518060400160405280600381526020016250542d60e81b81525062003676604051806040016040528060018152602001607960f81b8152508562003e90565b62003e90565b6000808263077f224a60e01b8686306040516024016200369f9392919062004cfe565b60408051601f198184030181529181526020820180516001600160e01b03166001600160e01b0319909416939093179092529051620036de9062004566565b620036eb92919062004d40565b604051809103906000f08015801562003708573d6000803e3d6000fd5b506040519091506001600160a01b038216907f10aa3cadb8a18de745ab06d0fba238e60656c418d78284b27ab6ea75b7b789e490600090a2949350505050565b6001600160a01b03811660009081526099602052604090208054600181018255905b50919050565b600062000bd962003780620031d3565b8360405161190160f01b6020820152602281018390526042810182905260009060620160405160208183030381529060405280519060200120905092915050565b6000806000620037d48787878762003fdf565b91509150620037e381620040a8565b5095945050505050565b620037f762004205565b610162805460ff191690557f5db9ee0a495bf2e6ff9c91a7834c1ba4fdd244a5e8aa4e537bd38aeae4b073aa33620033ba565b6000806200383762002c21565b61019c549193509150421162002c5c5761019b548114620038595761019b8190555b61019a54821462002c5c5761019a8290559091565b6001600160a01b0385811660008181526101a26020526040808220546101955491516305ea542b60e21b8152600481019490945291938493849392849216906317a950ac90602401602060405180830381865afa158015620038d4573d6000803e3d6000fd5b505050506040513d601f19601f82011682018060405250810190620038fa9190620049ea565b90506000620039156200390e838a620012d4565b8b620012f3565b905086881480156200392657508989145b156200393a578295505050505050620018d3565b86881480156200394957508989115b1562003980576200396a81620039608c8c62004a50565b6101975462004251565b945062003978858a620012f3565b935062003a61565b8688111562003a4957898910620039c757620039a281620039608c8c62004a50565b620039b383620039608a8c62004a50565b620039bf919062004ab9565b945062003a3d565b6000620039da83620039608a8c62004a50565b9050600062003a04620039ee8c8e62004a50565b620039fa908562004a66565b610197546200333a565b905081811162003a205762003a1a818362004a50565b62003a23565b60005b96506064871062003a35578662003a38565b60005b965050505b62003978858a620012f3565b60405162101da360e61b815260040160405180910390fd5b62003a6d848462004ab9565b9b9a5050505050505050505050565b600062003ad3826040518060400160405280602081526020017f5361666545524332303a206c6f772d6c6576656c2063616c6c206661696c6564815250856001600160a01b0316620043069092919063ffffffff16565b805190915015620013d3578080602001905181019062003af4919062004d66565b620013d35760405162461bcd60e51b815260206004820152602a60248201527f5361666545524332303a204552433230206f7065726174696f6e20646964206e6044820152691bdd081cdd58d8d9595960b21b606482015260840162001504565b62003b61838262004317565b826001600160a01b0316846001600160a01b03167fdcbc1c05240f31ff3ad067ef1ee35ce4997762752e3a095284754544f4c709d7848460405162003bb0929190918252602082015260400190565b60405180910390a350505050565b6001600160a01b03821662003c205760405162461bcd60e51b815260206004820152602160248201527f45524332303a206275726e2066726f6d20746865207a65726f206164647265736044820152607360f81b606482015260840162001504565b6001600160a01b0382166000908152603360205260409020548181101562003c965760405162461bcd60e51b815260206004820152602260248201527f45524332303a206275726e20616d6f756e7420657863656564732062616c616e604482015261636560f01b606482015260840162001504565b6001600160a01b03831660008181526033602090815260408083208686039055603580548790039055518581529192917fddf252ad1be2c89b69c2b068fc378daa952ba7f163c4a11628f55a4df523b3ef910160405180910390a3505050565b60cc80546001600160a01b038381166001600160a01b0319831681179093556040519116919082907f8be0079c531659141344cd1fd0a4f28419497f9722a3daafe3b4186f6b6457e090600090a35050565b60608160000362003d705750506040805180820190915260018152600360fc1b602082015290565b8160005b811562003da0578062003d878162004d8a565b915062003d989050600a8362004a96565b915062003d74565b60008167ffffffffffffffff81111562003dbe5762003dbe620047e9565b6040519080825280601f01601f19166020018201604052801562003de9576020820181803683370190505b509050815b851562003e875762003e0260018262004a50565b9050600062003e13600a8862004a96565b62003e2090600a62004a66565b62003e2c908862004a50565b62003e3990603062004da6565b905060008160f81b90508084848151811062003e595762003e5962004dc2565b60200101906001600160f81b031916908160001a90535062003e7d600a8962004a96565b9750505062003dee565b50949350505050565b6060828260405160200162003ea792919062004dd8565b604051602081830303815290604052905092915050565b600054610100900460ff1662003ee85760405162461bcd60e51b8152600401620015049062004cb3565b603662003ef6838262004e5d565b506037620013d3828262004e5d565b600054610100900460ff1662003f2f5760405162461bcd60e51b8152600401620015049062004cb3565b815160209283012081519190920120606591909155606655565b600054610100900460ff1662003f735760405162461bcd60e51b8152600401620015049062004cb3565b6200142d336200331f565b600054610100900460ff1662003fa85760405162461bcd60e51b8152600401620015049062004cb3565b610162805460ff19169055565b600054610100900460ff1662002e215760405162461bcd60e51b8152600401620015049062004cb3565b6000807f7fffffffffffffffffffffffffffffff5d576e7357a4501ddfe92f46681b20a08311156200401857506000905060036200409f565b6040805160008082526020820180845289905260ff881692820192909252606081018690526080810185905260019060a0016020604051602081039080840390855afa1580156200406d573d6000803e3d6000fd5b5050604051601f1901519150506001600160a01b03811662004098576000600192509250506200409f565b9150600090505b94509492505050565b6000816004811115620040bf57620040bf62004f2a565b03620040c85750565b6001816004811115620040df57620040df62004f2a565b036200412e5760405162461bcd60e51b815260206004820152601860248201527f45434453413a20696e76616c6964207369676e61747572650000000000000000604482015260640162001504565b600281600481111562004145576200414562004f2a565b03620041945760405162461bcd60e51b815260206004820152601f60248201527f45434453413a20696e76616c6964207369676e6174757265206c656e67746800604482015260640162001504565b6003816004811115620041ab57620041ab62004f2a565b03620015185760405162461bcd60e51b815260206004820152602260248201527f45434453413a20696e76616c6964207369676e6174757265202773272076616c604482015261756560f01b606482015260840162001504565b6101625460ff166200142d5760405162461bcd60e51b815260206004820152601460248201527314185d5cd8589b194e881b9bdd081c185d5cd95960621b604482015260640162001504565b6000808060001985870985870292508281108382030391505080600003620042905783828162004285576200428562004a80565b049250505062000d19565b8084116200429d57600080fd5b60008486880960026001871981018816978890046003810283188082028403028082028403028082028403028082028403028082028403029081029092039091026000889003889004909101858311909403939093029303949094049190911702949350505050565b6060620010518484600085620043dc565b6001600160a01b0382166200436f5760405162461bcd60e51b815260206004820152601f60248201527f45524332303a206d696e7420746f20746865207a65726f206164647265737300604482015260640162001504565b806035600082825462004383919062004ab9565b90915550506001600160a01b0382166000818152603360209081526040808320805486019055518481527fddf252ad1be2c89b69c2b068fc378daa952ba7f163c4a11628f55a4df523b3ef910160405180910390a35050565b6060824710156200443f5760405162461bcd60e51b815260206004820152602660248201527f416464726573733a20696e73756666696369656e742062616c616e636520666f6044820152651c8818d85b1b60d21b606482015260840162001504565b600080866001600160a01b031685876040516200445d919062004f40565b60006040518083038185875af1925050503d80600081146200449c576040519150601f19603f3d011682016040523d82523d6000602084013e620044a1565b606091505b5091509150620044b487838387620044bf565b979650505050505050565b60608315620045335782516000036200452b576001600160a01b0385163b6200452b5760405162461bcd60e51b815260206004820152601d60248201527f416464726573733a2063616c6c20746f206e6f6e2d636f6e7472616374000000604482015260640162001504565b508162001051565b6200105183838151156200454a5781518083602001fd5b8060405162461bcd60e51b8152600401620015049190620045c8565b6109008062004f5f83390190565b60005b838110156200459157818101518382015260200162004577565b50506000910152565b60008151808452620045b481602086016020860162004574565b601f01601f19169290920160200192915050565b60208152600062000d1960208301846200459a565b600060208284031215620045f057600080fd5b5035919050565b6001600160a01b03811681146200151857600080fd5b600080604083850312156200462157600080fd5b82356200462e81620045f7565b946020939093013593505050565b6000806000606084860312156200465257600080fd5b8335925060208401356200466681620045f7565b915060408401356200467881620045f7565b809150509250925092565b600080604083850312156200469757600080fd5b8235620046a481620045f7565b91506020830135620046b681620045f7565b809150509250929050565b600080600060608486031215620046d757600080fd5b8335620046e481620045f7565b92506020840135620046f681620045f7565b929592945050506040919091013590565b6000806000606084860312156200471d57600080fd5b833592506020840135620046f681620045f7565b6000602082840312156200474457600080fd5b813562000d1981620045f7565b600080604083850312156200476557600080fd5b50508035926020909101359150565b600080604083850312156200478857600080fd5b823591506020830135620046b681620045f7565b60008060008060808587031215620047b357600080fd5b843593506020850135620047c781620045f7565b92506040850135620047d981620045f7565b9396929550929360600135925050565b634e487b7160e01b600052604160045260246000fd5b604051601f8201601f1916810167ffffffffffffffff811182821017156200482b576200482b620047e9565b604052919050565b600067ffffffffffffffff821115620048505762004850620047e9565b50601f01601f191660200190565b600082601f8301126200487057600080fd5b813562004887620048818262004833565b620047ff565b8181528460208386010111156200489d57600080fd5b816020850160208301376000918101602001919091529392505050565b60008060008060008060c08789031215620048d457600080fd5b863567ffffffffffffffff80821115620048ed57600080fd5b620048fb8a838b016200485e565b975060208901359150808211156200491257600080fd5b506200492189828a016200485e565b95505060408701356200493481620045f7565b9350606087013592506080870135915060a08701356200495481620045f7565b809150509295509295509295565b60ff811681146200151857600080fd5b600080600080600080600060e0888a0312156200498e57600080fd5b87356200499b81620045f7565b96506020880135620049ad81620045f7565b955060408801359450606088013593506080880135620049cd8162004962565b9699959850939692959460a0840135945060c09093013592915050565b600060208284031215620049fd57600080fd5b5051919050565b600181811c9082168062004a1957607f821691505b6020821081036200376a57634e487b7160e01b600052602260045260246000fd5b634e487b7160e01b600052601160045260246000fd5b8181038181111562000bd95762000bd962004a3a565b808202811582820484141762000bd95762000bd962004a3a565b634e487b7160e01b600052601260045260246000fd5b60008262004ab457634e487b7160e01b600052601260045260246000fd5b500490565b8082018082111562000bd95762000bd962004a3a565b9283526001600160a01b03918216602084015216604082015260600190565b60006020828403121562004b0157600080fd5b815162000d198162004962565b60006020828403121562004b2157600080fd5b815162000d1981620045f7565b60006020828403121562004b4157600080fd5b815167ffffffffffffffff81111562004b5957600080fd5b8201601f8101841362004b6b57600080fd5b805162004b7c620048818262004833565b81815285602083850101111562004b9257600080fd5b620018d382602083016020860162004574565b600181815b8085111562004be657816000190482111562004bca5762004bca62004a3a565b8085161562004bd857918102915b93841c939080029062004baa565b509250929050565b60008262004bff5750600162000bd9565b8162004c0e5750600062000bd9565b816001811462004c27576002811462004c325762004c52565b600191505062000bd9565b60ff84111562004c465762004c4662004a3a565b50506001821b62000bd9565b5060208310610133831016604e8410600b841016171562004c77575081810a62000bd9565b62004c83838362004ba5565b806000190482111562004c9a5762004c9a62004a3a565b029392505050565b600062000d1960ff84168362004bee565b6020808252602b908201527f496e697469616c697a61626c653a20636f6e7472616374206973206e6f74206960408201526a6e697469616c697a696e6760a81b606082015260800190565b60608152600062004d1360608301866200459a565b828103602084015262004d2781866200459a565b91505060018060a01b0383166040830152949350505050565b6001600160a01b038316815260406020820181905260009062001051908301846200459a565b60006020828403121562004d7957600080fd5b8151801515811462000d1957600080fd5b60006001820162004d9f5762004d9f62004a3a565b5060010190565b60ff818116838216019081111562000bd95762000bd962004a3a565b634e487b7160e01b600052603260045260246000fd5b6000835162004dec81846020880162004574565b83519083019062004e0281836020880162004574565b01949350505050565b601f821115620013d357600081815260208120601f850160051c8101602086101562004e345750805b601f850160051c820191505b8181101562004e555782815560010162004e40565b505050505050565b815167ffffffffffffffff81111562004e7a5762004e7a620047e9565b62004e928162004e8b845462004a04565b8462004e0b565b602080601f83116001811462004eca576000841562004eb15750858301515b600019600386901b1c1916600185901b17855562004e55565b600085815260208120601f198616915b8281101562004efb5788860151825594840194600190910190840162004eda565b508582101562004f1a5787850151600019600388901b60f8161c191681555b5050505050600190811b01905550565b634e487b7160e01b600052602160045260246000fd5b6000825162004f5481846020870162004574565b919091019291505056fe60806040526040516109003803806109008339810160408190526100229161045b565b61002e82826000610035565b5050610585565b61003e83610100565b6040516001600160a01b038416907f1cf3b03a6cf19fa2baba4df148e9dcabedea7f8a5c07840e207e5c089be95d3e90600090a260008251118061007f5750805b156100fb576100f9836001600160a01b0316635c60da1b6040518163ffffffff1660e01b8152600401602060405180830381865afa1580156100c5573d6000803e3d6000fd5b505050506040513d601f19601f820116820180604052508101906100e9919061051b565b836102a360201b6100291760201c565b505b505050565b610113816102cf60201b6100551760201c565b6101725760405162461bcd60e51b815260206004820152602560248201527f455243313936373a206e657720626561636f6e206973206e6f74206120636f6e6044820152641d1c9858dd60da1b60648201526084015b60405180910390fd5b6101e6816001600160a01b0316635c60da1b6040518163ffffffff1660e01b8152600401602060405180830381865afa1580156101b3573d6000803e3d6000fd5b505050506040513d601f19601f820116820180604052508101906101d7919061051b565b6102cf60201b6100551760201c565b61024b5760405162461bcd60e51b815260206004820152603060248201527f455243313936373a20626561636f6e20696d706c656d656e746174696f6e206960448201526f1cc81b9bdd08184818dbdb9d1c9858dd60821b6064820152608401610169565b806102827fa3f0ad74e5423aebfd80d3ef4346578335a9a72aeaee59ff6cb3582b35133d5060001b6102de60201b6100641760201c565b80546001600160a01b0319166001600160a01b039290921691909117905550565b60606102c883836040518060600160405280602781526020016108d9602791396102e1565b9392505050565b6001600160a01b03163b151590565b90565b6060600080856001600160a01b0316856040516102fe9190610536565b600060405180830381855af49150503d8060008114610339576040519150601f19603f3d011682016040523d82523d6000602084013e61033e565b606091505b5090925090506103508683838761035a565b9695505050505050565b606083156103c95782516000036103c2576001600160a01b0385163b6103c25760405162461bcd60e51b815260206004820152601d60248201527f416464726573733a2063616c6c20746f206e6f6e2d636f6e74726163740000006044820152606401610169565b50816103d3565b6103d383836103db565b949350505050565b8151156103eb5781518083602001fd5b8060405162461bcd60e51b81526004016101699190610552565b80516001600160a01b038116811461041c57600080fd5b919050565b634e487b7160e01b600052604160045260246000fd5b60005b8381101561045257818101518382015260200161043a565b50506000910152565b6000806040838503121561046e57600080fd5b61047783610405565b60208401519092506001600160401b038082111561049457600080fd5b818501915085601f8301126104a857600080fd5b8151818111156104ba576104ba610421565b604051601f8201601f19908116603f011681019083821181831017156104e2576104e2610421565b816040528281528860208487010111156104fb57600080fd5b61050c836020830160208801610437565b80955050505050509250929050565b60006020828403121561052d57600080fd5b6102c882610405565b60008251610548818460208701610437565b9190910192915050565b6020815260008251806020840152610571816040850160208701610437565b601f01601f19169190910160400192915050565b610345806105946000396000f3fe60806040523661001357610011610017565b005b6100115b610027610022610067565b610100565b565b606061004e83836040518060600160405280602781526020016102e960279139610124565b9392505050565b6001600160a01b03163b151590565b90565b600061009a7fa3f0ad74e5423aebfd80d3ef4346578335a9a72aeaee59ff6cb3582b35133d50546001600160a01b031690565b6001600160a01b0316635c60da1b6040518163ffffffff1660e01b8152600401602060405180830381865afa1580156100d7573d6000803e3d6000fd5b505050506040513d601f19601f820116820180604052508101906100fb919061024c565b905090565b3660008037600080366000845af43d6000803e80801561011f573d6000f35b3d6000fd5b6060600080856001600160a01b0316856040516101419190610299565b600060405180830381855af49150503d806000811461017c576040519150601f19603f3d011682016040523d82523d6000602084013e610181565b606091505b50915091506101928683838761019c565b9695505050505050565b60608315610210578251600003610209576001600160a01b0385163b6102095760405162461bcd60e51b815260206004820152601d60248201527f416464726573733a2063616c6c20746f206e6f6e2d636f6e747261637400000060448201526064015b60405180910390fd5b508161021a565b61021a8383610222565b949350505050565b8151156102325781518083602001fd5b8060405162461bcd60e51b815260040161020091906102b5565b60006020828403121561025e57600080fd5b81516001600160a01b038116811461004e57600080fd5b60005b83811015610290578181015183820152602001610278565b50506000910152565b600082516102ab818460208701610275565b9190910192915050565b60208152600082518060208401526102d4816040850160208701610275565b601f01601f1916919091016040019291505056fe416464726573733a206c6f772d6c6576656c2064656c65676174652063616c6c206661696c6564a26469706673582212201ee55915b041c5198daaf4757954d2d95f61fe9bb99630d5e3e9cbaf4894428764736f6c63430008110033416464726573733a206c6f772d6c6576656c2064656c65676174652063616c6c206661696c6564a2646970667358221220f35fa293d03962ac92d12c66eb212e4f823a02c7de15c406152b80eadaddea5e64736f6c63430008110033",
    "linkReferences": {}
  },
  "methodIdentifiers": {
    "DOMAIN_SEPARATOR()": "3644e515",
    "acceptOwnership()": "79ba5097",
    "allowance(address,address)": "dd62ed3e",
    "approve(address,uint256)": "095ea7b3",
    "asset()": "38d52e0f",
    "balanceOf(address)": "70a08231",
    "beforeYtTransfer(address,address)": "4f72ec2f",
    "claimFees()": "d294f093",
    "claimYield()": "406cf229",
    "claimYieldOfAmount(uint256)": "7cafde7f",
    "convertAssetsToIBTWithRate(uint256,uint256)": "47609bd4",
    "convertIBTToAssetsWithRate(uint256,uint256)": "44ba8add",
    "convertToAssets(uint256)": "07a2d13a",
    "convertToAssetsOfIBT(uint256)": "3ca7c82d",
    "convertToAssetsWithRate(uint256,uint256)": "aca505f7",
    "convertToPrincipal(uint256)": "25a8d87d",
    "convertToShares(uint256)": "c6e6f592",
    "convertToSharesOfIBT(uint256)": "b346db0c",
    "convertToSharesWithRate(uint256,uint256)": "75ba1dac",
    "convertToUnderlying(uint256)": "1dc7f521",
    "decimals()": "313ce567",
    "decreaseAllowance(address,uint256)": "a457c2d7",
    "deposit(uint256,address)": "6e553f65",
    "deposit(uint256,address,address)": "2e2d2984",
    "deposit(uint256,address,uint256)": "bc157ac1",
    "depositWithIBT(uint256,address)": "bafc0f14",
    "depositWithIBT(uint256,address,address)": "0ad225bc",
    "depositWithIBT(uint256,address,uint256)": "277a04d6",
    "getAssetUnit()": "67936420",
    "getCurrentYieldInIBTOfUser(address)": "b2b84d94",
    "getFeeCollectorAddress()": "bf2d75fb",
    "getIBT()": "c644fe94",
    "getIBTRate()": "efd98dc2",
    "getIBTRateAtExpiry()": "2b930fa3",
    "getIBTUnit()": "1f2b4f24",
    "getPTRate()": "a1c5b3e1",
    "getPTRateAtExpiry()": "6956df17",
    "getProtocolFee()": "a5a41031",
    "getUnclaimedFeesInIBT()": "714d422b",
    "getYT()": "04aa50ad",
    "increaseAllowance(address,uint256)": "39509351",
    "initialize(string,string,address,uint256,uint256,address)": "cd084de5",
    "maturity()": "204f83f9",
    "maxDeposit(address)": "402d267d",
    "maxMint(address)": "c63d75b6",
    "maxRedeem(address)": "d905777e",
    "maxWithdraw(address)": "ce96cb77",
    "mint(uint256,address)": "94bf804d",
    "mint(uint256,address,uint256)": "836a1040",
    "name()": "06fdde03",
    "nonces(address)": "7ecebe00",
    "owner()": "8da5cb5b",
    "pause()": "8456cb59",
    "paused()": "5c975abb",
    "pendingOwner()": "e30c3978",
    "permit(address,address,uint256,uint256,uint8,bytes32,bytes32)": "d505accf",
    "previewDeposit(uint256)": "ef8b30f7",
    "previewMint(uint256)": "b3d7f6b9",
    "previewRedeem(uint256)": "4cdad506",
    "previewWithdraw(uint256)": "0a28a477",
    "redeem(uint256,address,address)": "ba087652",
    "redeem(uint256,address,address,uint256)": "9f40a7b3",
    "renounceOwnership()": "715018a6",
    "setFeeCollector(address)": "a42dce80",
    "setProtocolFee(uint256)": "787dce3d",
    "storeRatesAtExpiry()": "a13c91a3",
    "symbol()": "95d89b41",
    "totalAssets()": "01e1d114",
    "totalSupply()": "18160ddd",
    "transfer(address,uint256)": "a9059cbb",
    "transferFrom(address,address,uint256)": "23b872dd",
    "transferOwnership(address)": "f2fde38b",
    "unPause()": "f7b188a5",
    "underlying()": "6f307dc3",
    "updateYield(address)": "f90d63db",
    "withdraw(uint256,address,address)": "b460af94",
    "withdraw(uint256,address,address,uint256)": "a318c1a4",
    "withdrawAfterExpiry(address,address)": "21b62f96",
    "yieldOfUserInIBT(address)": "2c660fbc"
  },
  "id": 88
}