{
  "abi": [
    {
      "inputs": [
        {
          "internalType": "address",
          "name": "_principalTokenBeaconUpgradeable",
          "type": "address"
        },
        {
          "internalType": "address",
          "name": "_ytBeaconUpgradeable",
          "type": "address"
        }
      ],
      "stateMutability": "nonpayable",
      "type": "constructor"
    },
    {
      "inputs": [
        {
          "internalType": "string",
          "name": "reason",
          "type": "string"
        }
      ],
      "name": "PrincipalTokenFactoryError",
      "type": "error"
    },
    {
      "anonymous": false,
      "inputs": [
        {
          "indexed": true,
          "internalType": "address",
          "name": "curveAddressProvider",
          "type": "address"
        }
      ],
      "name": "CurveAddressProviderSet",
      "type": "event"
    },
    {
      "anonymous": false,
      "inputs": [
        {
          "indexed": true,
          "internalType": "address",
          "name": "newFactory",
          "type": "address"
        }
      ],
      "name": "CurveFactoryChanged",
      "type": "event"
    },
    {
      "anonymous": false,
      "inputs": [
        {
          "indexed": true,
          "internalType": "address",
          "name": "poolAddress",
          "type": "address"
        },
        {
          "indexed": false,
          "internalType": "address",
          "name": "ibt",
          "type": "address"
        },
        {
          "indexed": false,
          "internalType": "address",
          "name": "pt",
          "type": "address"
        }
      ],
      "name": "CurvePoolDeployed",
      "type": "event"
    },
    {
      "anonymous": false,
      "inputs": [
        {
          "indexed": false,
          "internalType": "uint8",
          "name": "version",
          "type": "uint8"
        }
      ],
      "name": "Initialized",
      "type": "event"
    },
    {
      "anonymous": false,
      "inputs": [
        {
          "indexed": true,
          "internalType": "address",
          "name": "previousOwner",
          "type": "address"
        },
        {
          "indexed": true,
          "internalType": "address",
          "name": "newOwner",
          "type": "address"
        }
      ],
      "name": "OwnershipTransferStarted",
      "type": "event"
    },
    {
      "anonymous": false,
      "inputs": [
        {
          "indexed": true,
          "internalType": "address",
          "name": "previousOwner",
          "type": "address"
        },
        {
          "indexed": true,
          "internalType": "address",
          "name": "newOwner",
          "type": "address"
        }
      ],
      "name": "OwnershipTransferred",
      "type": "event"
    },
    {
      "anonymous": false,
      "inputs": [
        {
          "indexed": true,
          "internalType": "address",
          "name": "curvePool",
          "type": "address"
        },
        {
          "indexed": true,
          "internalType": "address",
          "name": "principalToken",
          "type": "address"
        }
      ],
      "name": "PoolAdded",
      "type": "event"
    },
    {
      "anonymous": false,
      "inputs": [
        {
          "indexed": true,
          "internalType": "address",
          "name": "_principalToken",
          "type": "address"
        },
        {
          "indexed": true,
          "internalType": "address",
          "name": "_poolCreator",
          "type": "address"
        }
      ],
      "name": "PrincipalTokenDeployed",
      "type": "event"
    },
    {
      "anonymous": false,
      "inputs": [
        {
          "indexed": true,
          "internalType": "address",
          "name": "oldRegistry",
          "type": "address"
        },
        {
          "indexed": true,
          "internalType": "address",
          "name": "newRegistry",
          "type": "address"
        }
      ],
      "name": "RegistryUpdated",
      "type": "event"
    },
    {
      "inputs": [],
      "name": "acceptOwnership",
      "outputs": [],
      "stateMutability": "nonpayable",
      "type": "function"
    },
    {
      "inputs": [],
      "name": "curveAddressProvider",
      "outputs": [
        {
          "internalType": "address",
          "name": "",
          "type": "address"
        }
      ],
      "stateMutability": "view",
      "type": "function"
    },
    {
      "inputs": [
        {
          "internalType": "string",
          "name": "name_",
          "type": "string"
        },
        {
          "internalType": "string",
          "name": "symbol_",
          "type": "string"
        },
        {
          "internalType": "address",
          "name": "ibt_",
          "type": "address"
        },
        {
          "internalType": "uint256",
          "name": "maturity_",
          "type": "uint256"
        },
        {
          "internalType": "uint256",
          "name": "max_fees_",
          "type": "uint256"
        },
        {
          "internalType": "address",
          "name": "registry_",
          "type": "address"
        },
        {
          "internalType": "address",
          "name": "principalTokenAdmin",
          "type": "address"
        }
      ],
      "name": "deployPrincipalToken",
      "outputs": [
        {
          "internalType": "address",
          "name": "principalToken",
          "type": "address"
        },
        {
          "internalType": "address",
          "name": "curvePoolAddress",
          "type": "address"
        }
      ],
      "stateMutability": "nonpayable",
      "type": "function"
    },
    {
      "inputs": [],
      "name": "getCurveFactoryAddress",
      "outputs": [
        {
          "internalType": "address",
          "name": "",
          "type": "address"
        }
      ],
      "stateMutability": "view",
      "type": "function"
    },
    {
      "inputs": [
        {
          "internalType": "address",
          "name": "_principalToken",
          "type": "address"
        },
        {
          "internalType": "uint256",
          "name": "poolIndex",
          "type": "uint256"
        }
      ],
      "name": "getPool",
      "outputs": [
        {
          "components": [
            {
              "internalType": "address",
              "name": "pool",
              "type": "address"
            },
            {
              "internalType": "string",
              "name": "poolProtocolName",
              "type": "string"
            }
          ],
          "internalType": "struct StructUtil.PoolData",
          "name": "pool",
          "type": "tuple"
        }
      ],
      "stateMutability": "view",
      "type": "function"
    },
    {
      "inputs": [],
      "name": "getRegistryAddress",
      "outputs": [
        {
          "internalType": "address",
          "name": "",
          "type": "address"
        }
      ],
      "stateMutability": "view",
      "type": "function"
    },
    {
      "inputs": [],
      "name": "initialize",
      "outputs": [],
      "stateMutability": "nonpayable",
      "type": "function"
    },
    {
      "inputs": [],
      "name": "owner",
      "outputs": [
        {
          "internalType": "address",
          "name": "",
          "type": "address"
        }
      ],
      "stateMutability": "view",
      "type": "function"
    },
    {
      "inputs": [],
      "name": "pendingOwner",
      "outputs": [
        {
          "internalType": "address",
          "name": "",
          "type": "address"
        }
      ],
      "stateMutability": "view",
      "type": "function"
    },
    {
      "inputs": [],
      "name": "renounceOwnership",
      "outputs": [],
      "stateMutability": "nonpayable",
      "type": "function"
    },
    {
      "inputs": [
        {
          "internalType": "address",
          "name": "curveAddressProvider_",
          "type": "address"
        }
      ],
      "name": "setCurveAddressProvider",
      "outputs": [],
      "stateMutability": "nonpayable",
      "type": "function"
    },
    {
      "inputs": [
        {
          "internalType": "address",
          "name": "_newRegistry",
          "type": "address"
        }
      ],
      "name": "setRegistry",
      "outputs": [],
      "stateMutability": "nonpayable",
      "type": "function"
    },
    {
      "inputs": [
        {
          "internalType": "address",
          "name": "newOwner",
          "type": "address"
        }
      ],
      "name": "transferOwnership",
      "outputs": [],
      "stateMutability": "nonpayable",
      "type": "function"
    }
  ],
  "bytecode": {
    "object": "0x60c06040523480156200001157600080fd5b506040516200226f3803806200226f83398101604081905262000034916200020f565b6001600160a01b038216620000aa576040516323625a5960e21b815260206004820152603060248201527f5072696e636970616c546f6b656e20626561636f6e206164647265737320736860448201526f6f756c64206e6f74206265207a65726f60801b60648201526084015b60405180910390fd5b6001600160a01b0381166200010f576040516323625a5960e21b8152602060048201526024808201527f595420626561636f6e20616464726573732073686f756c64206e6f74206265206044820152637a65726f60e01b6064820152608401620000a1565b6001600160a01b03808316608052811660a0526200012c62000134565b505062000247565b600054610100900460ff16156200019e5760405162461bcd60e51b815260206004820152602760248201527f496e697469616c697a61626c653a20636f6e747261637420697320696e697469604482015266616c697a696e6760c81b6064820152608401620000a1565b60005460ff90811614620001f0576000805460ff191660ff9081179091556040519081527f7f26b83ff96e1f2b6a682f133852f6798a09c465da95921460cefb38474024989060200160405180910390a15b565b80516001600160a01b03811681146200020a57600080fd5b919050565b600080604083850312156200022357600080fd5b6200022e83620001f2565b91506200023e60208401620001f2565b90509250929050565b60805160a051611ffb6200027460003960006102d201526000818161022601526102a30152611ffb6000f3fe60806040523480156200001157600080fd5b5060043610620000e05760003560e01c80638da5cb5b1162000097578063d1136096116200006e578063d113609614620001d4578063e30c397814620001e6578063f21de1e814620001f8578063f2fde38b146200020a57600080fd5b80638da5cb5b14620001945780639bc3d09814620001a6578063a91ee0dc14620001bd57600080fd5b806333f1bbcc14620000e55780633d6e738814620001215780635b5b9ea2146200014e578063715018a6146200017457806379ba509714620001805780638129fc1c146200018a575b600080fd5b620000fc620000f63660046200111b565b62000221565b604080516001600160a01b039384168152929091166020830152015b60405180910390f35b609a5462000135906001600160a01b031681565b6040516001600160a01b03909116815260200162000118565b620001656200015f366004620011d9565b62000423565b60405162000118919062001269565b6200017e62000536565b005b6200017e6200054e565b6200017e620005cc565b6033546001600160a01b031662000135565b6200017e620001b7366004620012a0565b620006e5565b6200017e620001ce366004620012a0565b620007bb565b6097546001600160a01b031662000135565b6065546001600160a01b031662000135565b6098546001600160a01b031662000135565b6200017e6200021b366004620012a0565b62000886565b6000807f00000000000000000000000000000000000000000000000000000000000000006001600160a01b0316620002a1576040516323625a5960e21b815260206004820181905260248201527f5072696e636970616c546f6b656e20626561636f6e206973206e6f742073657460448201526064015b60405180910390fd5b7f00000000000000000000000000000000000000000000000000000000000000006340f5e56b60e01b8a8a8a8a8a8a7f0000000000000000000000000000000000000000000000000000000000000000604051602401620003099796959493929190620012c7565b60408051601f198184030181529181526020820180516001600160e01b03166001600160e01b0319909416939093179092529051620003489062000f88565b620003559291906200132c565b604051809103906000f08015801562000372573d6000803e3d6000fd5b5060405190925033906001600160a01b038416907f0664f6df454a59ac1a42ad6e71f8109a39a1681415ea1acb15e2355d9446d1e090600090a360405163f2fde38b60e01b81526001600160a01b03848116600483015283169063f2fde38b90602401600060405180830381600087803b158015620003f057600080fd5b505af115801562000405573d6000803e3d6000fd5b50505050620004158288620008fa565b905097509795505050505050565b6040805180820190915260008152606060208201526001600160a01b038316600090815260996020526040902080548390811062000465576200046562001352565b60009182526020918290206040805180820190915260029092020180546001600160a01b031682526001810180549293919291840191620004a69062001368565b80601f0160208091040260200160405190810160405280929190818152602001828054620004d49062001368565b8015620005255780601f10620004f95761010080835404028352916020019162000525565b820191906000526020600020905b8154815290600101906020018083116200050757829003601f168201915b505050505081525050905092915050565b6200054062000c06565b6200054c600062000c62565b565b60655433906001600160a01b03168114620005be5760405162461bcd60e51b815260206004820152602960248201527f4f776e61626c6532537465703a2063616c6c6572206973206e6f7420746865206044820152683732bb9037bbb732b960b91b606482015260840162000298565b620005c98162000c62565b50565b600054610100900460ff1615808015620005ed5750600054600160ff909116105b80620006095750303b15801562000609575060005460ff166001145b6200066e5760405162461bcd60e51b815260206004820152602e60248201527f496e697469616c697a61626c653a20636f6e747261637420697320616c72656160448201526d191e481a5b9a5d1a585b1a5e995960921b606482015260840162000298565b6000805460ff19166001179055801562000692576000805461ff0019166101001790555b6200069c62000c7d565b8015620005c9576000805461ff0019169055604051600181527f7f26b83ff96e1f2b6a682f133852f6798a09c465da95921460cefb38474024989060200160405180910390a150565b620006ef62000c06565b6001600160a01b03811662000762576040516323625a5960e21b815260206004820152603160248201527f43616e6e6f742073657420637572766520616464726573732070726f766964656044820152707220746f207a65726f206164647265737360781b606482015260840162000298565b6040516001600160a01b038216907f48595b0c6ad20fb5dc4bbce6134112d1c63908e36de330ff3ae2588af19fa9ea90600090a2609a80546001600160a01b0319166001600160a01b038316179055620005c962000cb1565b620007c562000c06565b6001600160a01b0381166200082a576040516323625a5960e21b815260206004820152602360248201527f43616e6e6f742073657420726567697374727920746f207a65726f206164647260448201526265737360e81b606482015260840162000298565b6098546040516001600160a01b038084169216907f482b97c53e48ffa324a976e2738053e9aff6eee04d8aac63b10e19411d869b8290600090a3609880546001600160a01b0319166001600160a01b0392909216919091179055565b6200089062000c06565b606580546001600160a01b0383166001600160a01b03199091168117909155620008c26033546001600160a01b031690565b6001600160a01b03167f38d16b8cac22d99fc7c124b9cd0de2d3fa1faef420bfe791d8c362d765e2270060405160405180910390a350565b60006200090662000f96565b6001600160a01b038084168083529085166020808401919091526040805163313ce56760e01b815290516000939263313ce56792600480820193918290030181865afa1580156200095b573d6000803e3d6000fd5b505050506040513d601f19601f82011682018060405250810190620009819190620013a4565b6200098e90600a620014de565b6040516363737ac960e11b8152600481018290529091506000906001600160a01b0387169063c6e6f59290602401602060405180830381865afa158015620009da573d6000803e3d6000fd5b505050506040513d601f19601f8201168201806040525081019062000a009190620014ef565b6097549091506001600160a01b031662000a5e576040516323625a5960e21b815260206004820181905260248201527f437572766520666163746f72792061646472657373206973206e6f7420736574604482015260640162000298565b600080609760009054906101000a90046001600160a01b03166001600160a01b031663c955fa0486630bebc200655af3107a400062e4e1c06302faf0806402540be4006611c37937e08000650500918bd80064012a05f2006102588e60405160240162000ad69b9a9998979695949392919062001537565b6040516020818303038152906040529060e01b6020820180516001600160e01b03838183161783525050505060405162000b11919062001628565b6000604051808303816000865af19150503d806000811462000b50576040519150601f19603f3d011682016040523d82523d6000602084013e62000b55565b606091505b50915091508162000b9e576040516323625a5960e21b815260206004820152601160248201527011195c1b1bde5b595b9d0819985a5b1959607a1b604482015260640162000298565b6020810151955062000bb1868962000e2f565b8451604080516001600160a01b0392831681528a83166020820152918816917f3c7b686d948efcba31c9cfd1aeae78faac70fe0c1ed90d151d49c75e85027a91910160405180910390a2505050505092915050565b6033546001600160a01b031633146200054c5760405162461bcd60e51b815260206004820181905260248201527f4f776e61626c653a2063616c6c6572206973206e6f7420746865206f776e6572604482015260640162000298565b606580546001600160a01b0319169055620005c98162000f01565b600054610100900460ff1662000ca75760405162461bcd60e51b8152600401620002989062001646565b6200054c62000f53565b609a54604080516006602480830182905283518084039091018152604490920183526020820180516001600160e01b031663124fd3dd60e21b1790529151919260009283926001600160a01b039092169162000d0d9162001628565b6000604051808303816000865af19150503d806000811462000d4c576040519150601f19603f3d011682016040523d82523d6000602084013e62000d51565b606091505b50915091508162000dcc576040516323625a5960e21b815260206004820152603f60248201527f436f756c64206e6f7420666574636820637572766520666163746f727920616460448201527f64726573732066726f6d2074686520616464726573732070726f766964657200606482015260840162000298565b8080602001905181019062000de2919062001691565b609780546001600160a01b0319166001600160a01b039290921691821790556040517f6c3db3b505f1ce26138fce10683cfc5e051aa53990b272acf8944fb87c76b9fb90600090a2505050565b604080518082018252606060208083019182526001600160a01b038681168452845180860186526005815264437572766560d81b81840152835285811660009081526099835294852080546001808201835591875295839020855160029097020180546001600160a01b03191696909216959095178155915180519394859462000ec193918501929091019062000fb4565b50506040516001600160a01b0380851692508516907f95f865c2808f8b2a85eea2611db7843150ee7835ef1403f9755918a97d76933c90600090a3505050565b603380546001600160a01b038381166001600160a01b0319831681179093556040519116919082907f8be0079c531659141344cd1fd0a4f28419497f9722a3daafe3b4186f6b6457e090600090a35050565b600054610100900460ff1662000f7d5760405162461bcd60e51b8152600401620002989062001646565b6200054c3362000c62565b61091480620016b283390190565b60405180604001604052806002906020820280368337509192915050565b82805462000fc29062001368565b90600052602060002090601f01602090048101928262000fe6576000855562001031565b82601f106200100157805160ff191683800117855562001031565b8280016001018555821562001031579182015b828111156200103157825182559160200191906001019062001014565b506200103f92915062001043565b5090565b5b808211156200103f576000815560010162001044565b634e487b7160e01b600052604160045260246000fd5b600082601f8301126200108257600080fd5b813567ffffffffffffffff80821115620010a057620010a06200105a565b604051601f8301601f19908116603f01168101908282118183101715620010cb57620010cb6200105a565b81604052838152866020858801011115620010e557600080fd5b836020870160208301376000602085830101528094505050505092915050565b6001600160a01b0381168114620005c957600080fd5b600080600080600080600060e0888a0312156200113757600080fd5b873567ffffffffffffffff808211156200115057600080fd5b6200115e8b838c0162001070565b985060208a01359150808211156200117557600080fd5b50620011848a828b0162001070565b9650506040880135620011978162001105565b9450606088013593506080880135925060a0880135620011b78162001105565b915060c0880135620011c98162001105565b8091505092959891949750929550565b60008060408385031215620011ed57600080fd5b8235620011fa8162001105565b946020939093013593505050565b60005b83811015620012255781810151838201526020016200120b565b8381111562001235576000848401525b50505050565b600081518084526200125581602086016020860162001208565b601f01601f19169290920160200192915050565b602080825282516001600160a01b0316828201528201516040808301526000906200129860608401826200123b565b949350505050565b600060208284031215620012b357600080fd5b8135620012c08162001105565b9392505050565b60e081526000620012dc60e083018a6200123b565b8281036020840152620012f0818a6200123b565b6001600160a01b03988916604085015260608401979097525050608081019390935290841660a083015290921660c09092019190915292915050565b6001600160a01b038316815260406020820181905260009062001298908301846200123b565b634e487b7160e01b600052603260045260246000fd5b600181811c908216806200137d57607f821691505b6020821081036200139e57634e487b7160e01b600052602260045260246000fd5b50919050565b600060208284031215620013b757600080fd5b815160ff81168114620012c057600080fd5b634e487b7160e01b600052601160045260246000fd5b600181815b8085111562001420578160001904821115620014045762001404620013c9565b808516156200141257918102915b93841c9390800290620013e4565b509250929050565b6000826200143957506001620014d8565b816200144857506000620014d8565b81600181146200146157600281146200146c576200148c565b6001915050620014d8565b60ff841115620014805762001480620013c9565b50506001821b620014d8565b5060208310610133831016604e8410600b8410161715620014b1575081810a620014d8565b620014bd8383620013df565b8060001904821115620014d457620014d4620013c9565b0290505b92915050565b6000620012c060ff84168362001428565b6000602082840312156200150257600080fd5b5051919050565b8060005b6002811015620012355781516001600160a01b03168452602093840193909101906001016200150d565b60006101c0808352600b81840152506a46565f504f4f4c5f41505760a81b6101e083015261020080602084015262001588818401600a815269105415cbd4150bd2509560b21b602082015260400190565b9150506200159a604083018e62001509565b63ffffffff8c16608083015265ffffffffffff8b1660a083015262ffffff8a1660c083015263ffffffff891660e083015264ffffffffff881661010083015266ffffffffffffff871661012083015265ffffffffffff861661014083015264ffffffffff851661016083015261ffff8416610180830152826101a08301529c9b505050505050505050505050565b600082516200163c81846020870162001208565b9190910192915050565b6020808252602b908201527f496e697469616c697a61626c653a20636f6e7472616374206973206e6f74206960408201526a6e697469616c697a696e6760a81b606082015260800190565b600060208284031215620016a457600080fd5b8151620012c0816200110556fe608060405260405161091438038061091483398101604081905261002291610463565b61002e82826000610035565b505061058d565b61003e83610100565b6040516001600160a01b038416907f1cf3b03a6cf19fa2baba4df148e9dcabedea7f8a5c07840e207e5c089be95d3e90600090a260008251118061007f5750805b156100fb576100f9836001600160a01b0316635c60da1b6040518163ffffffff1660e01b8152600401602060405180830381865afa1580156100c5573d6000803e3d6000fd5b505050506040513d601f19601f820116820180604052508101906100e99190610523565b836102a360201b6100291760201c565b505b505050565b610113816102cf60201b6100551760201c565b6101725760405162461bcd60e51b815260206004820152602560248201527f455243313936373a206e657720626561636f6e206973206e6f74206120636f6e6044820152641d1c9858dd60da1b60648201526084015b60405180910390fd5b6101e6816001600160a01b0316635c60da1b6040518163ffffffff1660e01b8152600401602060405180830381865afa1580156101b3573d6000803e3d6000fd5b505050506040513d601f19601f820116820180604052508101906101d79190610523565b6102cf60201b6100551760201c565b61024b5760405162461bcd60e51b815260206004820152603060248201527f455243313936373a20626561636f6e20696d706c656d656e746174696f6e206960448201526f1cc81b9bdd08184818dbdb9d1c9858dd60821b6064820152608401610169565b806102827fa3f0ad74e5423aebfd80d3ef4346578335a9a72aeaee59ff6cb3582b35133d5060001b6102de60201b6100641760201c565b80546001600160a01b0319166001600160a01b039290921691909117905550565b60606102c883836040518060600160405280602781526020016108ed602791396102e1565b9392505050565b6001600160a01b03163b151590565b90565b6060600080856001600160a01b0316856040516102fe919061053e565b600060405180830381855af49150503d8060008114610339576040519150601f19603f3d011682016040523d82523d6000602084013e61033e565b606091505b5090925090506103508683838761035a565b9695505050505050565b606083156103c95782516000036103c2576001600160a01b0385163b6103c25760405162461bcd60e51b815260206004820152601d60248201527f416464726573733a2063616c6c20746f206e6f6e2d636f6e74726163740000006044820152606401610169565b50816103d3565b6103d383836103db565b949350505050565b8151156103eb5781518083602001fd5b8060405162461bcd60e51b8152600401610169919061055a565b80516001600160a01b038116811461041c57600080fd5b919050565b634e487b7160e01b600052604160045260246000fd5b60005b8381101561045257818101518382015260200161043a565b838111156100f95750506000910152565b6000806040838503121561047657600080fd5b61047f83610405565b60208401519092506001600160401b038082111561049c57600080fd5b818501915085601f8301126104b057600080fd5b8151818111156104c2576104c2610421565b604051601f8201601f19908116603f011681019083821181831017156104ea576104ea610421565b8160405282815288602084870101111561050357600080fd5b610514836020830160208801610437565b80955050505050509250929050565b60006020828403121561053557600080fd5b6102c882610405565b60008251610550818460208701610437565b9190910192915050565b6020815260008251806020840152610579816040850160208701610437565b601f01601f19169190910160400192915050565b6103518061059c6000396000f3fe60806040523661001357610011610017565b005b6100115b610027610022610067565b610100565b565b606061004e83836040518060600160405280602781526020016102f560279139610124565b9392505050565b6001600160a01b03163b151590565b90565b600061009a7fa3f0ad74e5423aebfd80d3ef4346578335a9a72aeaee59ff6cb3582b35133d50546001600160a01b031690565b6001600160a01b0316635c60da1b6040518163ffffffff1660e01b8152600401602060405180830381865afa1580156100d7573d6000803e3d6000fd5b505050506040513d601f19601f820116820180604052508101906100fb919061024c565b905090565b3660008037600080366000845af43d6000803e80801561011f573d6000f35b3d6000fd5b6060600080856001600160a01b03168560405161014191906102a5565b600060405180830381855af49150503d806000811461017c576040519150601f19603f3d011682016040523d82523d6000602084013e610181565b606091505b50915091506101928683838761019c565b9695505050505050565b60608315610210578251600003610209576001600160a01b0385163b6102095760405162461bcd60e51b815260206004820152601d60248201527f416464726573733a2063616c6c20746f206e6f6e2d636f6e747261637400000060448201526064015b60405180910390fd5b508161021a565b61021a8383610222565b949350505050565b8151156102325781518083602001fd5b8060405162461bcd60e51b815260040161020091906102c1565b60006020828403121561025e57600080fd5b81516001600160a01b038116811461004e57600080fd5b60005b83811015610290578181015183820152602001610278565b8381111561029f576000848401525b50505050565b600082516102b7818460208701610275565b9190910192915050565b60208152600082518060208401526102e0816040850160208701610275565b601f01601f1916919091016040019291505056fe416464726573733a206c6f772d6c6576656c2064656c65676174652063616c6c206661696c6564a26469706673582212206ea3749d3f44f7b5a93ef58b0fb6c9847a4ee4b69872c58535c03f2899109cf464736f6c634300080d0033416464726573733a206c6f772d6c6576656c2064656c65676174652063616c6c206661696c6564a2646970667358221220116146051b7b8951713613636c0b76fde678817e7a655bff9d9ae90a692ebbf964736f6c634300080d0033",
    "linkReferences": {}
  },
  "methodIdentifiers": {
    "acceptOwnership()": "79ba5097",
    "curveAddressProvider()": "3d6e7388",
    "deployPrincipalToken(string,string,address,uint256,uint256,address,address)": "33f1bbcc",
    "getCurveFactoryAddress()": "d1136096",
    "getPool(address,uint256)": "5b5b9ea2",
    "getRegistryAddress()": "f21de1e8",
    "initialize()": "8129fc1c",
    "owner()": "8da5cb5b",
    "pendingOwner()": "e30c3978",
    "renounceOwnership()": "715018a6",
    "setCurveAddressProvider(address)": "9bc3d098",
    "setRegistry(address)": "a91ee0dc",
    "transferOwnership(address)": "f2fde38b"
  },
  "id": 68
}