{
  "abi": [
    {
      "inputs": [
        {
          "internalType": "address",
          "name": "_principalTokenBeaconUpgradeable",
          "type": "address"
        },
        {
          "internalType": "address",
          "name": "_ytBeaconUpgradeable",
          "type": "address"
        }
      ],
      "stateMutability": "nonpayable",
      "type": "constructor"
    },
    {
      "inputs": [],
      "name": "BeaconNotSet",
      "type": "error"
    },
    {
      "inputs": [],
      "name": "CurveFactoryNotSet",
      "type": "error"
    },
    {
      "inputs": [],
      "name": "CurvePoolInitialPriceNotSet",
      "type": "error"
    },
    {
      "inputs": [],
      "name": "DeploymentFailed",
      "type": "error"
    },
    {
      "inputs": [],
      "name": "FailedToFetchCurveFactoryAddress",
      "type": "error"
    },
    {
      "inputs": [],
      "name": "ZeroAddressError",
      "type": "error"
    },
    {
      "anonymous": false,
      "inputs": [
        {
          "indexed": true,
          "internalType": "address",
          "name": "curveAddressProvider",
          "type": "address"
        }
      ],
      "name": "CurveAddressProviderSet",
      "type": "event"
    },
    {
      "anonymous": false,
      "inputs": [
        {
          "indexed": true,
          "internalType": "address",
          "name": "newFactory",
          "type": "address"
        }
      ],
      "name": "CurveFactoryChanged",
      "type": "event"
    },
    {
      "anonymous": false,
      "inputs": [
        {
          "indexed": true,
          "internalType": "address",
          "name": "poolAddress",
          "type": "address"
        },
        {
          "indexed": false,
          "internalType": "address",
          "name": "ibt",
          "type": "address"
        },
        {
          "indexed": false,
          "internalType": "address",
          "name": "pt",
          "type": "address"
        }
      ],
      "name": "CurvePoolDeployed",
      "type": "event"
    },
    {
      "anonymous": false,
      "inputs": [
        {
          "indexed": false,
          "internalType": "uint8",
          "name": "version",
          "type": "uint8"
        }
      ],
      "name": "Initialized",
      "type": "event"
    },
    {
      "anonymous": false,
      "inputs": [
        {
          "indexed": true,
          "internalType": "address",
          "name": "previousOwner",
          "type": "address"
        },
        {
          "indexed": true,
          "internalType": "address",
          "name": "newOwner",
          "type": "address"
        }
      ],
      "name": "OwnershipTransferStarted",
      "type": "event"
    },
    {
      "anonymous": false,
      "inputs": [
        {
          "indexed": true,
          "internalType": "address",
          "name": "previousOwner",
          "type": "address"
        },
        {
          "indexed": true,
          "internalType": "address",
          "name": "newOwner",
          "type": "address"
        }
      ],
      "name": "OwnershipTransferred",
      "type": "event"
    },
    {
      "anonymous": false,
      "inputs": [
        {
          "indexed": true,
          "internalType": "address",
          "name": "curvePool",
          "type": "address"
        },
        {
          "indexed": true,
          "internalType": "address",
          "name": "principalToken",
          "type": "address"
        }
      ],
      "name": "PoolAdded",
      "type": "event"
    },
    {
      "anonymous": false,
      "inputs": [
        {
          "indexed": true,
          "internalType": "uint256",
          "name": "_poolInitialPrice",
          "type": "uint256"
        }
      ],
      "name": "PoolInitialPriceSet",
      "type": "event"
    },
    {
      "anonymous": false,
      "inputs": [
        {
          "indexed": true,
          "internalType": "address",
          "name": "_principalToken",
          "type": "address"
        },
        {
          "indexed": true,
          "internalType": "address",
          "name": "_poolCreator",
          "type": "address"
        }
      ],
      "name": "PrincipalTokenDeployed",
      "type": "event"
    },
    {
      "anonymous": false,
      "inputs": [
        {
          "indexed": true,
          "internalType": "address",
          "name": "oldRegistry",
          "type": "address"
        },
        {
          "indexed": true,
          "internalType": "address",
          "name": "newRegistry",
          "type": "address"
        }
      ],
      "name": "RegistryUpdated",
      "type": "event"
    },
    {
      "inputs": [],
      "name": "acceptOwnership",
      "outputs": [],
      "stateMutability": "nonpayable",
      "type": "function"
    },
    {
      "inputs": [],
      "name": "curveAddressProvider",
      "outputs": [
        {
          "internalType": "address",
          "name": "",
          "type": "address"
        }
      ],
      "stateMutability": "view",
      "type": "function"
    },
    {
      "inputs": [
        {
          "internalType": "string",
          "name": "name_",
          "type": "string"
        },
        {
          "internalType": "string",
          "name": "symbol_",
          "type": "string"
        },
        {
          "internalType": "address",
          "name": "ibt_",
          "type": "address"
        },
        {
          "internalType": "uint256",
          "name": "maturity_",
          "type": "uint256"
        },
        {
          "internalType": "uint256",
          "name": "protocolFee_",
          "type": "uint256"
        },
        {
          "internalType": "address",
          "name": "principalTokenAdmin",
          "type": "address"
        }
      ],
      "name": "deployPrincipalToken",
      "outputs": [
        {
          "internalType": "address",
          "name": "principalToken",
          "type": "address"
        },
        {
          "internalType": "address",
          "name": "curvePoolAddress",
          "type": "address"
        }
      ],
      "stateMutability": "nonpayable",
      "type": "function"
    },
    {
      "inputs": [],
      "name": "getCurveFactoryAddress",
      "outputs": [
        {
          "internalType": "address",
          "name": "",
          "type": "address"
        }
      ],
      "stateMutability": "view",
      "type": "function"
    },
    {
      "inputs": [
        {
          "internalType": "address",
          "name": "_principalToken",
          "type": "address"
        },
        {
          "internalType": "uint256",
          "name": "poolIndex",
          "type": "uint256"
        }
      ],
      "name": "getPool",
      "outputs": [
        {
          "components": [
            {
              "internalType": "address",
              "name": "pool",
              "type": "address"
            },
            {
              "internalType": "string",
              "name": "poolProtocolName",
              "type": "string"
            }
          ],
          "internalType": "struct StructUtil.PoolData",
          "name": "pool",
          "type": "tuple"
        }
      ],
      "stateMutability": "view",
      "type": "function"
    },
    {
      "inputs": [],
      "name": "getPoolInitialPrice",
      "outputs": [
        {
          "internalType": "uint256",
          "name": "",
          "type": "uint256"
        }
      ],
      "stateMutability": "view",
      "type": "function"
    },
    {
      "inputs": [],
      "name": "getRegistryAddress",
      "outputs": [
        {
          "internalType": "address",
          "name": "",
          "type": "address"
        }
      ],
      "stateMutability": "view",
      "type": "function"
    },
    {
      "inputs": [],
      "name": "initialize",
      "outputs": [],
      "stateMutability": "nonpayable",
      "type": "function"
    },
    {
      "inputs": [],
      "name": "owner",
      "outputs": [
        {
          "internalType": "address",
          "name": "",
          "type": "address"
        }
      ],
      "stateMutability": "view",
      "type": "function"
    },
    {
      "inputs": [],
      "name": "pendingOwner",
      "outputs": [
        {
          "internalType": "address",
          "name": "",
          "type": "address"
        }
      ],
      "stateMutability": "view",
      "type": "function"
    },
    {
      "inputs": [],
      "name": "renounceOwnership",
      "outputs": [],
      "stateMutability": "nonpayable",
      "type": "function"
    },
    {
      "inputs": [
        {
          "internalType": "address",
          "name": "curveAddressProvider_",
          "type": "address"
        }
      ],
      "name": "setCurveAddressProvider",
      "outputs": [],
      "stateMutability": "nonpayable",
      "type": "function"
    },
    {
      "inputs": [
        {
          "internalType": "uint256",
          "name": "price",
          "type": "uint256"
        }
      ],
      "name": "setPoolInitialPrice",
      "outputs": [],
      "stateMutability": "nonpayable",
      "type": "function"
    },
    {
      "inputs": [
        {
          "internalType": "address",
          "name": "_newRegistry",
          "type": "address"
        }
      ],
      "name": "setRegistry",
      "outputs": [],
      "stateMutability": "nonpayable",
      "type": "function"
    },
    {
      "inputs": [
        {
          "internalType": "address",
          "name": "newOwner",
          "type": "address"
        }
      ],
      "name": "transferOwnership",
      "outputs": [],
      "stateMutability": "nonpayable",
      "type": "function"
    }
  ],
  "bytecode": {
    "object": "0x60c06040523480156200001157600080fd5b5060405162001f0738038062001f07833981016040819052620000349162000174565b6001600160a01b03821615806200005257506001600160a01b038116155b156200007157604051633efa09af60e01b815260040160405180910390fd5b6001600160a01b03808316608052811660a0526200008e62000096565b5050620001ac565b600054610100900460ff1615620001035760405162461bcd60e51b815260206004820152602760248201527f496e697469616c697a61626c653a20636f6e747261637420697320696e697469604482015266616c697a696e6760c81b606482015260840160405180910390fd5b60005460ff9081161462000155576000805460ff191660ff9081179091556040519081527f7f26b83ff96e1f2b6a682f133852f6798a09c465da95921460cefb38474024989060200160405180910390a15b565b80516001600160a01b03811681146200016f57600080fd5b919050565b600080604083850312156200018857600080fd5b620001938362000157565b9150620001a36020840162000157565b90509250929050565b60805160a051611d2e620001d9600039600061072401526000818161068a01526106f60152611d2e6000f3fe60806040523480156200001157600080fd5b5060043610620001095760003560e01c80639bc3d09811620000a3578063e30c3978116200006e578063e30c39781462000226578063e61074471462000238578063f21de1e8146200024a578063f2fde38b146200025c57600080fd5b80639bc3d09814620001ae578063a91ee0dc14620001c5578063ae86411114620001dc578063d1136096146200021457600080fd5b806379ba509711620000e457806379ba509714620001715780637afca653146200017b5780638129fc1c14620001925780638da5cb5b146200019c57600080fd5b80633d6e7388146200010e5780635b5b9ea2146200013f578063715018a61462000165575b600080fd5b609b5462000122906001600160a01b031681565b6040516001600160a01b0390911681526020015b60405180910390f35b620001566200015036600462000e07565b62000273565b60405162000136919062000e8a565b6200016f62000386565b005b6200016f6200039e565b6200016f6200018c36600462000ec1565b62000420565b6200016f62000453565b6033546001600160a01b031662000122565b6200016f620001bf36600462000edb565b6200056c565b6200016f620001d636600462000edb565b620005f7565b620001f3620001ed36600462000fad565b62000685565b604080516001600160a01b0393841681529290911660208301520162000136565b6097546001600160a01b031662000122565b6065546001600160a01b031662000122565b60995460405190815260200162000136565b6098546001600160a01b031662000122565b6200016f6200026d36600462000edb565b62000873565b6040805180820190915260008152606060208201526001600160a01b0383166000908152609a60205260409020805483908110620002b557620002b562001055565b60009182526020918290206040805180820190915260029092020180546001600160a01b031682526001810180549293919291840191620002f6906200106b565b80601f016020809104026020016040519081016040528092919081815260200182805462000324906200106b565b8015620003755780601f10620003495761010080835404028352916020019162000375565b820191906000526020600020905b8154815290600101906020018083116200035757829003601f168201915b505050505081525050905092915050565b62000390620008e7565b6200039c600062000943565b565b60655433906001600160a01b03168114620004125760405162461bcd60e51b815260206004820152602960248201527f4f776e61626c6532537465703a2063616c6c6572206973206e6f7420746865206044820152683732bb9037bbb732b960b91b60648201526084015b60405180910390fd5b6200041d8162000943565b50565b609981905560405181907ffc6e3dd4e2ac21460d60c4249a271740330434039478d08b5aea4adc7c2ba2ae90600090a250565b600054610100900460ff1615808015620004745750600054600160ff909116105b80620004905750303b15801562000490575060005460ff166001145b620004f55760405162461bcd60e51b815260206004820152602e60248201527f496e697469616c697a61626c653a20636f6e747261637420697320616c72656160448201526d191e481a5b9a5d1a585b1a5e995960921b606482015260840162000409565b6000805460ff19166001179055801562000519576000805461ff0019166101001790555b620005236200095e565b80156200041d576000805461ff0019169055604051600181527f7f26b83ff96e1f2b6a682f133852f6798a09c465da95921460cefb38474024989060200160405180910390a150565b62000576620008e7565b6001600160a01b0381166200059e57604051633efa09af60e01b815260040160405180910390fd5b6040516001600160a01b038216907f48595b0c6ad20fb5dc4bbce6134112d1c63908e36de330ff3ae2588af19fa9ea90600090a2609b80546001600160a01b0319166001600160a01b0383161790556200041d62000992565b62000601620008e7565b6001600160a01b0381166200062957604051633efa09af60e01b815260040160405180910390fd5b6098546040516001600160a01b038084169216907f482b97c53e48ffa324a976e2738053e9aff6eee04d8aac63b10e19411d869b8290600090a3609880546001600160a01b0319166001600160a01b0392909216919091179055565b6000807f00000000000000000000000000000000000000000000000000000000000000006001600160a01b0316620006d05760405163773aae1f60e11b815260040160405180910390fd5b609954600003620006f457604051638d32270760e01b815260040160405180910390fd5b7f000000000000000000000000000000000000000000000000000000000000000063cd084de560e01b89898989897f00000000000000000000000000000000000000000000000000000000000000006040516024016200075a96959493929190620010a7565b60408051601f198184030181529181526020820180516001600160e01b03166001600160e01b0319909416939093179092529051620007999062000dc5565b620007a692919062001104565b604051809103906000f080158015620007c3573d6000803e3d6000fd5b5060405190925033906001600160a01b038416907f0664f6df454a59ac1a42ad6e71f8109a39a1681415ea1acb15e2355d9446d1e090600090a360405163f2fde38b60e01b81526001600160a01b03848116600483015283169063f2fde38b90602401600060405180830381600087803b1580156200084157600080fd5b505af115801562000856573d6000803e3d6000fd5b5050505062000866828762000ab9565b9050965096945050505050565b6200087d620008e7565b606580546001600160a01b0383166001600160a01b03199091168117909155620008af6033546001600160a01b031690565b6001600160a01b03167f38d16b8cac22d99fc7c124b9cd0de2d3fa1faef420bfe791d8c362d765e2270060405160405180910390a350565b6033546001600160a01b031633146200039c5760405162461bcd60e51b815260206004820181905260248201527f4f776e61626c653a2063616c6c6572206973206e6f7420746865206f776e6572604482015260640162000409565b606580546001600160a01b03191690556200041d8162000c71565b600054610100900460ff16620009885760405162461bcd60e51b815260040162000409906200112a565b6200039c62000cc3565b609b54604080516006602480830182905283518084039091018152604490920183526020820180516001600160e01b031663124fd3dd60e21b1790529151919260009283926001600160a01b0390921691620009ee9162001175565b6000604051808303816000865af19150503d806000811462000a2d576040519150601f19603f3d011682016040523d82523d6000602084013e62000a32565b606091505b50915091508162000a56576040516308b5780160e01b815260040160405180910390fd5b8080602001905181019062000a6c919062001193565b609780546001600160a01b0319166001600160a01b039290921691821790556040517f6c3db3b505f1ce26138fce10683cfc5e051aa53990b272acf8944fb87c76b9fb90600090a2505050565b600062000ac562000dd3565b6001600160a01b03808416825284811660208301526097541662000afc57604051630474a4af60e01b815260040160405180910390fd5b60975460995460405160009283926001600160a01b039091169163c955fa049162000b68918791630bebc20091655af3107a400091624c4b40916302aea540916402540be400916611c37937e0800091650500918bd8009164012a05f2009161025891602401620011e7565b6040516020818303038152906040529060e01b6020820180516001600160e01b03838183161783525050505060405162000ba3919062001175565b6000604051808303816000865af19150503d806000811462000be2576040519150601f19603f3d011682016040523d82523d6000602084013e62000be7565b606091505b50915091508162000c0b57604051633011642560e01b815260040160405180910390fd5b6020810151935062000c1e848762000cf8565b8251604080516001600160a01b0392831681528883166020820152918616917f3c7b686d948efcba31c9cfd1aeae78faac70fe0c1ed90d151d49c75e85027a91910160405180910390a250505092915050565b603380546001600160a01b038381166001600160a01b0319831681179093556040519116919082907f8be0079c531659141344cd1fd0a4f28419497f9722a3daafe3b4186f6b6457e090600090a35050565b600054610100900460ff1662000ced5760405162461bcd60e51b815260040162000409906200112a565b6200039c3362000943565b604080518082018252606060208083019182526001600160a01b038681168452845180860186526005815264437572766560d81b8184015283528581166000908152609a835294852080546001808201835591875292909520845160029093020180546001600160a01b031916929091169190911781559051919283929082019062000d8590826200132b565b50506040516001600160a01b0380851692508516907f95f865c2808f8b2a85eea2611db7843150ee7835ef1403f9755918a97d76933c90600090a3505050565b61090080620013f983390190565b60405180604001604052806002906020820280368337509192915050565b6001600160a01b03811681146200041d57600080fd5b6000806040838503121562000e1b57600080fd5b823562000e288162000df1565b946020939093013593505050565b60005b8381101562000e5357818101518382015260200162000e39565b50506000910152565b6000815180845262000e7681602086016020860162000e36565b601f01601f19169290920160200192915050565b602080825282516001600160a01b03168282015282015160408083015260009062000eb9606084018262000e5c565b949350505050565b60006020828403121562000ed457600080fd5b5035919050565b60006020828403121562000eee57600080fd5b813562000efb8162000df1565b9392505050565b634e487b7160e01b600052604160045260246000fd5b600082601f83011262000f2a57600080fd5b813567ffffffffffffffff8082111562000f485762000f4862000f02565b604051601f8301601f19908116603f0116810190828211818310171562000f735762000f7362000f02565b8160405283815286602085880101111562000f8d57600080fd5b836020870160208301376000602085830101528094505050505092915050565b60008060008060008060c0878903121562000fc757600080fd5b863567ffffffffffffffff8082111562000fe057600080fd5b62000fee8a838b0162000f18565b975060208901359150808211156200100557600080fd5b506200101489828a0162000f18565b9550506040870135620010278162000df1565b9350606087013592506080870135915060a0870135620010478162000df1565b809150509295509295509295565b634e487b7160e01b600052603260045260246000fd5b600181811c908216806200108057607f821691505b602082108103620010a157634e487b7160e01b600052602260045260246000fd5b50919050565b60c081526000620010bc60c083018962000e5c565b8281036020840152620010d0818962000e5c565b6001600160a01b03978816604085015260608401969096525050608081019290925290921660a09092019190915292915050565b6001600160a01b038316815260406020820181905260009062000eb99083018462000e5c565b6020808252602b908201527f496e697469616c697a61626c653a20636f6e7472616374206973206e6f74206960408201526a6e697469616c697a696e6760a81b606082015260800190565b600082516200118981846020870162000e36565b9190910192915050565b600060208284031215620011a657600080fd5b815162000efb8162000df1565b8060005b6002811015620011e15781516001600160a01b0316845260209384019390910190600101620011b7565b50505050565b60006101c0808352600b81840152506a46565f504f4f4c5f41505760a81b6101e083015261020080602084015262001238818401600a815269105415cbd4150bd2509560b21b602082015260400190565b9150506200124a604083018e620011b3565b63ffffffff8c16608083015265ffffffffffff8b1660a083015262ffffff8a1660c083015263ffffffff891660e083015264ffffffffff881661010083015266ffffffffffffff871661012083015265ffffffffffff861661014083015264ffffffffff851661016083015261ffff8416610180830152826101a08301529c9b505050505050505050505050565b601f8211156200132657600081815260208120601f850160051c81016020861015620013015750805b601f850160051c820191505b8181101562001322578281556001016200130d565b5050505b505050565b815167ffffffffffffffff81111562001348576200134862000f02565b62001360816200135984546200106b565b84620012d8565b602080601f8311600181146200139857600084156200137f5750858301515b600019600386901b1c1916600185901b17855562001322565b600085815260208120601f198616915b82811015620013c957888601518255948401946001909101908401620013a8565b5085821015620013e85787850151600019600388901b60f8161c191681555b5050505050600190811b0190555056fe60806040526040516109003803806109008339810160408190526100229161045b565b61002e82826000610035565b5050610585565b61003e83610100565b6040516001600160a01b038416907f1cf3b03a6cf19fa2baba4df148e9dcabedea7f8a5c07840e207e5c089be95d3e90600090a260008251118061007f5750805b156100fb576100f9836001600160a01b0316635c60da1b6040518163ffffffff1660e01b8152600401602060405180830381865afa1580156100c5573d6000803e3d6000fd5b505050506040513d601f19601f820116820180604052508101906100e9919061051b565b836102a360201b6100291760201c565b505b505050565b610113816102cf60201b6100551760201c565b6101725760405162461bcd60e51b815260206004820152602560248201527f455243313936373a206e657720626561636f6e206973206e6f74206120636f6e6044820152641d1c9858dd60da1b60648201526084015b60405180910390fd5b6101e6816001600160a01b0316635c60da1b6040518163ffffffff1660e01b8152600401602060405180830381865afa1580156101b3573d6000803e3d6000fd5b505050506040513d601f19601f820116820180604052508101906101d7919061051b565b6102cf60201b6100551760201c565b61024b5760405162461bcd60e51b815260206004820152603060248201527f455243313936373a20626561636f6e20696d706c656d656e746174696f6e206960448201526f1cc81b9bdd08184818dbdb9d1c9858dd60821b6064820152608401610169565b806102827fa3f0ad74e5423aebfd80d3ef4346578335a9a72aeaee59ff6cb3582b35133d5060001b6102de60201b6100641760201c565b80546001600160a01b0319166001600160a01b039290921691909117905550565b60606102c883836040518060600160405280602781526020016108d9602791396102e1565b9392505050565b6001600160a01b03163b151590565b90565b6060600080856001600160a01b0316856040516102fe9190610536565b600060405180830381855af49150503d8060008114610339576040519150601f19603f3d011682016040523d82523d6000602084013e61033e565b606091505b5090925090506103508683838761035a565b9695505050505050565b606083156103c95782516000036103c2576001600160a01b0385163b6103c25760405162461bcd60e51b815260206004820152601d60248201527f416464726573733a2063616c6c20746f206e6f6e2d636f6e74726163740000006044820152606401610169565b50816103d3565b6103d383836103db565b949350505050565b8151156103eb5781518083602001fd5b8060405162461bcd60e51b81526004016101699190610552565b80516001600160a01b038116811461041c57600080fd5b919050565b634e487b7160e01b600052604160045260246000fd5b60005b8381101561045257818101518382015260200161043a565b50506000910152565b6000806040838503121561046e57600080fd5b61047783610405565b60208401519092506001600160401b038082111561049457600080fd5b818501915085601f8301126104a857600080fd5b8151818111156104ba576104ba610421565b604051601f8201601f19908116603f011681019083821181831017156104e2576104e2610421565b816040528281528860208487010111156104fb57600080fd5b61050c836020830160208801610437565b80955050505050509250929050565b60006020828403121561052d57600080fd5b6102c882610405565b60008251610548818460208701610437565b9190910192915050565b6020815260008251806020840152610571816040850160208701610437565b601f01601f19169190910160400192915050565b610345806105946000396000f3fe60806040523661001357610011610017565b005b6100115b610027610022610067565b610100565b565b606061004e83836040518060600160405280602781526020016102e960279139610124565b9392505050565b6001600160a01b03163b151590565b90565b600061009a7fa3f0ad74e5423aebfd80d3ef4346578335a9a72aeaee59ff6cb3582b35133d50546001600160a01b031690565b6001600160a01b0316635c60da1b6040518163ffffffff1660e01b8152600401602060405180830381865afa1580156100d7573d6000803e3d6000fd5b505050506040513d601f19601f820116820180604052508101906100fb919061024c565b905090565b3660008037600080366000845af43d6000803e80801561011f573d6000f35b3d6000fd5b6060600080856001600160a01b0316856040516101419190610299565b600060405180830381855af49150503d806000811461017c576040519150601f19603f3d011682016040523d82523d6000602084013e610181565b606091505b50915091506101928683838761019c565b9695505050505050565b60608315610210578251600003610209576001600160a01b0385163b6102095760405162461bcd60e51b815260206004820152601d60248201527f416464726573733a2063616c6c20746f206e6f6e2d636f6e747261637400000060448201526064015b60405180910390fd5b508161021a565b61021a8383610222565b949350505050565b8151156102325781518083602001fd5b8060405162461bcd60e51b815260040161020091906102b5565b60006020828403121561025e57600080fd5b81516001600160a01b038116811461004e57600080fd5b60005b83811015610290578181015183820152602001610278565b50506000910152565b600082516102ab818460208701610275565b9190910192915050565b60208152600082518060208401526102d4816040850160208701610275565b601f01601f1916919091016040019291505056fe416464726573733a206c6f772d6c6576656c2064656c65676174652063616c6c206661696c6564a26469706673582212201ee55915b041c5198daaf4757954d2d95f61fe9bb99630d5e3e9cbaf4894428764736f6c63430008110033416464726573733a206c6f772d6c6576656c2064656c65676174652063616c6c206661696c6564a26469706673582212200c4005a195c9565fc5365ca552cc8d5c8455268ce551229a1f30fff56b14cb7864736f6c63430008110033",
    "linkReferences": {}
  },
  "methodIdentifiers": {
    "acceptOwnership()": "79ba5097",
    "curveAddressProvider()": "3d6e7388",
    "deployPrincipalToken(string,string,address,uint256,uint256,address)": "ae864111",
    "getCurveFactoryAddress()": "d1136096",
    "getPool(address,uint256)": "5b5b9ea2",
    "getPoolInitialPrice()": "e6107447",
    "getRegistryAddress()": "f21de1e8",
    "initialize()": "8129fc1c",
    "owner()": "8da5cb5b",
    "pendingOwner()": "e30c3978",
    "renounceOwnership()": "715018a6",
    "setCurveAddressProvider(address)": "9bc3d098",
    "setPoolInitialPrice(uint256)": "7afca653",
    "setRegistry(address)": "a91ee0dc",
    "transferOwnership(address)": "f2fde38b"
  },
  "id": 71
}