{
  "abi": [
    {
      "inputs": [],
      "stateMutability": "nonpayable",
      "type": "constructor"
    },
    {
      "inputs": [
        {
          "internalType": "string",
          "name": "reason",
          "type": "string"
        }
      ],
      "name": "PrincipalTokenError",
      "type": "error"
    },
    {
      "anonymous": false,
      "inputs": [
        {
          "indexed": true,
          "internalType": "address",
          "name": "owner",
          "type": "address"
        },
        {
          "indexed": true,
          "internalType": "address",
          "name": "spender",
          "type": "address"
        },
        {
          "indexed": false,
          "internalType": "uint256",
          "name": "value",
          "type": "uint256"
        }
      ],
      "name": "Approval",
      "type": "event"
    },
    {
      "anonymous": false,
      "inputs": [
        {
          "indexed": true,
          "internalType": "address",
          "name": "sender",
          "type": "address"
        },
        {
          "indexed": true,
          "internalType": "address",
          "name": "owner",
          "type": "address"
        },
        {
          "indexed": false,
          "internalType": "uint256",
          "name": "assets",
          "type": "uint256"
        },
        {
          "indexed": false,
          "internalType": "uint256",
          "name": "shares",
          "type": "uint256"
        }
      ],
      "name": "Deposit",
      "type": "event"
    },
    {
      "anonymous": false,
      "inputs": [
        {
          "indexed": true,
          "internalType": "address",
          "name": "_feeCollector",
          "type": "address"
        },
        {
          "indexed": false,
          "internalType": "uint256",
          "name": "_feesInIBT",
          "type": "uint256"
        }
      ],
      "name": "FeeClaimed",
      "type": "event"
    },
    {
      "anonymous": false,
      "inputs": [
        {
          "indexed": false,
          "internalType": "uint8",
          "name": "version",
          "type": "uint8"
        }
      ],
      "name": "Initialized",
      "type": "event"
    },
    {
      "anonymous": false,
      "inputs": [
        {
          "indexed": true,
          "internalType": "uint256",
          "name": "oldMaxFee",
          "type": "uint256"
        },
        {
          "indexed": true,
          "internalType": "uint256",
          "name": "newMaxFee",
          "type": "uint256"
        }
      ],
      "name": "MaxProtocolFeeUpdated",
      "type": "event"
    },
    {
      "anonymous": false,
      "inputs": [
        {
          "indexed": true,
          "internalType": "address",
          "name": "previousOwner",
          "type": "address"
        },
        {
          "indexed": true,
          "internalType": "address",
          "name": "newOwner",
          "type": "address"
        }
      ],
      "name": "OwnershipTransferStarted",
      "type": "event"
    },
    {
      "anonymous": false,
      "inputs": [
        {
          "indexed": true,
          "internalType": "address",
          "name": "previousOwner",
          "type": "address"
        },
        {
          "indexed": true,
          "internalType": "address",
          "name": "newOwner",
          "type": "address"
        }
      ],
      "name": "OwnershipTransferred",
      "type": "event"
    },
    {
      "anonymous": false,
      "inputs": [
        {
          "indexed": false,
          "internalType": "address",
          "name": "account",
          "type": "address"
        }
      ],
      "name": "Paused",
      "type": "event"
    },
    {
      "anonymous": false,
      "inputs": [
        {
          "indexed": true,
          "internalType": "uint256",
          "name": "_ibtRate",
          "type": "uint256"
        },
        {
          "indexed": true,
          "internalType": "uint256",
          "name": "_ptRate",
          "type": "uint256"
        }
      ],
      "name": "RatesStoredAtExpiry",
      "type": "event"
    },
    {
      "anonymous": false,
      "inputs": [
        {
          "indexed": true,
          "internalType": "address",
          "name": "from",
          "type": "address"
        },
        {
          "indexed": true,
          "internalType": "address",
          "name": "to",
          "type": "address"
        },
        {
          "indexed": false,
          "internalType": "uint256",
          "name": "assets",
          "type": "uint256"
        }
      ],
      "name": "Redeem",
      "type": "event"
    },
    {
      "anonymous": false,
      "inputs": [
        {
          "indexed": true,
          "internalType": "address",
          "name": "from",
          "type": "address"
        },
        {
          "indexed": true,
          "internalType": "address",
          "name": "to",
          "type": "address"
        },
        {
          "indexed": false,
          "internalType": "uint256",
          "name": "value",
          "type": "uint256"
        }
      ],
      "name": "Transfer",
      "type": "event"
    },
    {
      "anonymous": false,
      "inputs": [
        {
          "indexed": false,
          "internalType": "address",
          "name": "account",
          "type": "address"
        }
      ],
      "name": "Unpaused",
      "type": "event"
    },
    {
      "anonymous": false,
      "inputs": [
        {
          "indexed": true,
          "internalType": "address",
          "name": "feeCollector",
          "type": "address"
        }
      ],
      "name": "UpdatedFeeCollector",
      "type": "event"
    },
    {
      "anonymous": false,
      "inputs": [
        {
          "indexed": true,
          "internalType": "address",
          "name": "zapDepositor",
          "type": "address"
        }
      ],
      "name": "UpdatedZapDepositor",
      "type": "event"
    },
    {
      "anonymous": false,
      "inputs": [
        {
          "indexed": true,
          "internalType": "address",
          "name": "sender",
          "type": "address"
        },
        {
          "indexed": true,
          "internalType": "address",
          "name": "receiver",
          "type": "address"
        },
        {
          "indexed": true,
          "internalType": "address",
          "name": "owner",
          "type": "address"
        },
        {
          "indexed": false,
          "internalType": "uint256",
          "name": "assets",
          "type": "uint256"
        },
        {
          "indexed": false,
          "internalType": "uint256",
          "name": "shares",
          "type": "uint256"
        }
      ],
      "name": "Withdraw",
      "type": "event"
    },
    {
      "anonymous": false,
      "inputs": [
        {
          "indexed": true,
          "internalType": "address",
          "name": "yt",
          "type": "address"
        }
      ],
      "name": "YTDeployed",
      "type": "event"
    },
    {
      "anonymous": false,
      "inputs": [
        {
          "indexed": true,
          "internalType": "address",
          "name": "receiver",
          "type": "address"
        },
        {
          "indexed": false,
          "internalType": "uint256",
          "name": "_yield",
          "type": "uint256"
        }
      ],
      "name": "YieldTransferred",
      "type": "event"
    },
    {
      "anonymous": false,
      "inputs": [
        {
          "indexed": true,
          "internalType": "address",
          "name": "user",
          "type": "address"
        },
        {
          "indexed": true,
          "internalType": "uint256",
          "name": "_yield",
          "type": "uint256"
        }
      ],
      "name": "YieldUpdated",
      "type": "event"
    },
    {
      "inputs": [],
      "name": "DOMAIN_SEPARATOR",
      "outputs": [
        {
          "internalType": "bytes32",
          "name": "",
          "type": "bytes32"
        }
      ],
      "stateMutability": "view",
      "type": "function"
    },
    {
      "inputs": [],
      "name": "acceptOwnership",
      "outputs": [],
      "stateMutability": "nonpayable",
      "type": "function"
    },
    {
      "inputs": [
        {
          "internalType": "address",
          "name": "owner",
          "type": "address"
        },
        {
          "internalType": "address",
          "name": "spender",
          "type": "address"
        }
      ],
      "name": "allowance",
      "outputs": [
        {
          "internalType": "uint256",
          "name": "",
          "type": "uint256"
        }
      ],
      "stateMutability": "view",
      "type": "function"
    },
    {
      "inputs": [
        {
          "internalType": "address",
          "name": "spender",
          "type": "address"
        },
        {
          "internalType": "uint256",
          "name": "amount",
          "type": "uint256"
        }
      ],
      "name": "approve",
      "outputs": [
        {
          "internalType": "bool",
          "name": "",
          "type": "bool"
        }
      ],
      "stateMutability": "nonpayable",
      "type": "function"
    },
    {
      "inputs": [],
      "name": "asset",
      "outputs": [
        {
          "internalType": "address",
          "name": "",
          "type": "address"
        }
      ],
      "stateMutability": "view",
      "type": "function"
    },
    {
      "inputs": [
        {
          "internalType": "address",
          "name": "account",
          "type": "address"
        }
      ],
      "name": "balanceOf",
      "outputs": [
        {
          "internalType": "uint256",
          "name": "",
          "type": "uint256"
        }
      ],
      "stateMutability": "view",
      "type": "function"
    },
    {
      "inputs": [
        {
          "internalType": "address",
          "name": "_from",
          "type": "address"
        },
        {
          "internalType": "address",
          "name": "_to",
          "type": "address"
        }
      ],
      "name": "beforeYtTransfer",
      "outputs": [],
      "stateMutability": "nonpayable",
      "type": "function"
    },
    {
      "inputs": [],
      "name": "claimFees",
      "outputs": [
        {
          "internalType": "uint256",
          "name": "",
          "type": "uint256"
        }
      ],
      "stateMutability": "nonpayable",
      "type": "function"
    },
    {
      "inputs": [],
      "name": "claimYield",
      "outputs": [
        {
          "internalType": "uint256",
          "name": "",
          "type": "uint256"
        }
      ],
      "stateMutability": "nonpayable",
      "type": "function"
    },
    {
      "inputs": [
        {
          "internalType": "uint256",
          "name": "_amount",
          "type": "uint256"
        }
      ],
      "name": "claimYieldOfAmount",
      "outputs": [
        {
          "internalType": "uint256",
          "name": "",
          "type": "uint256"
        }
      ],
      "stateMutability": "nonpayable",
      "type": "function"
    },
    {
      "inputs": [
        {
          "internalType": "uint256",
          "name": "assets",
          "type": "uint256"
        },
        {
          "internalType": "uint256",
          "name": "_ibtRate",
          "type": "uint256"
        }
      ],
      "name": "convertAssetsToIBTWithRate",
      "outputs": [
        {
          "internalType": "uint256",
          "name": "",
          "type": "uint256"
        }
      ],
      "stateMutability": "view",
      "type": "function"
    },
    {
      "inputs": [
        {
          "internalType": "uint256",
          "name": "ibtAmount",
          "type": "uint256"
        },
        {
          "internalType": "uint256",
          "name": "_ibtRate",
          "type": "uint256"
        }
      ],
      "name": "convertIBTToAssetsWithRate",
      "outputs": [
        {
          "internalType": "uint256",
          "name": "",
          "type": "uint256"
        }
      ],
      "stateMutability": "view",
      "type": "function"
    },
    {
      "inputs": [
        {
          "internalType": "uint256",
          "name": "shares",
          "type": "uint256"
        }
      ],
      "name": "convertToAssets",
      "outputs": [
        {
          "internalType": "uint256",
          "name": "assets",
          "type": "uint256"
        }
      ],
      "stateMutability": "view",
      "type": "function"
    },
    {
      "inputs": [
        {
          "internalType": "uint256",
          "name": "ibtAmount",
          "type": "uint256"
        }
      ],
      "name": "convertToAssetsOfIBT",
      "outputs": [
        {
          "internalType": "uint256",
          "name": "",
          "type": "uint256"
        }
      ],
      "stateMutability": "view",
      "type": "function"
    },
    {
      "inputs": [
        {
          "internalType": "uint256",
          "name": "shares",
          "type": "uint256"
        },
        {
          "internalType": "uint256",
          "name": "_ptRate",
          "type": "uint256"
        }
      ],
      "name": "convertToAssetsWithRate",
      "outputs": [
        {
          "internalType": "uint256",
          "name": "assets",
          "type": "uint256"
        }
      ],
      "stateMutability": "view",
      "type": "function"
    },
    {
      "inputs": [
        {
          "internalType": "uint256",
          "name": "underlyingAmount",
          "type": "uint256"
        }
      ],
      "name": "convertToPrincipal",
      "outputs": [
        {
          "internalType": "uint256",
          "name": "",
          "type": "uint256"
        }
      ],
      "stateMutability": "view",
      "type": "function"
    },
    {
      "inputs": [
        {
          "internalType": "uint256",
          "name": "assets",
          "type": "uint256"
        }
      ],
      "name": "convertToShares",
      "outputs": [
        {
          "internalType": "uint256",
          "name": "shares",
          "type": "uint256"
        }
      ],
      "stateMutability": "view",
      "type": "function"
    },
    {
      "inputs": [
        {
          "internalType": "uint256",
          "name": "assets",
          "type": "uint256"
        }
      ],
      "name": "convertToSharesOfIBT",
      "outputs": [
        {
          "internalType": "uint256",
          "name": "",
          "type": "uint256"
        }
      ],
      "stateMutability": "view",
      "type": "function"
    },
    {
      "inputs": [
        {
          "internalType": "uint256",
          "name": "assets",
          "type": "uint256"
        },
        {
          "internalType": "uint256",
          "name": "_ptRate",
          "type": "uint256"
        }
      ],
      "name": "convertToSharesWithRate",
      "outputs": [
        {
          "internalType": "uint256",
          "name": "shares",
          "type": "uint256"
        }
      ],
      "stateMutability": "view",
      "type": "function"
    },
    {
      "inputs": [
        {
          "internalType": "uint256",
          "name": "principalAmount",
          "type": "uint256"
        }
      ],
      "name": "convertToUnderlying",
      "outputs": [
        {
          "internalType": "uint256",
          "name": "",
          "type": "uint256"
        }
      ],
      "stateMutability": "view",
      "type": "function"
    },
    {
      "inputs": [],
      "name": "decimals",
      "outputs": [
        {
          "internalType": "uint8",
          "name": "",
          "type": "uint8"
        }
      ],
      "stateMutability": "view",
      "type": "function"
    },
    {
      "inputs": [
        {
          "internalType": "address",
          "name": "spender",
          "type": "address"
        },
        {
          "internalType": "uint256",
          "name": "subtractedValue",
          "type": "uint256"
        }
      ],
      "name": "decreaseAllowance",
      "outputs": [
        {
          "internalType": "bool",
          "name": "",
          "type": "bool"
        }
      ],
      "stateMutability": "nonpayable",
      "type": "function"
    },
    {
      "inputs": [
        {
          "internalType": "uint256",
          "name": "assets",
          "type": "uint256"
        },
        {
          "internalType": "address",
          "name": "receiver",
          "type": "address"
        }
      ],
      "name": "deposit",
      "outputs": [
        {
          "internalType": "uint256",
          "name": "shares",
          "type": "uint256"
        }
      ],
      "stateMutability": "nonpayable",
      "type": "function"
    },
    {
      "inputs": [
        {
          "internalType": "uint256",
          "name": "assets",
          "type": "uint256"
        },
        {
          "internalType": "address",
          "name": "receiver",
          "type": "address"
        },
        {
          "internalType": "uint256",
          "name": "minShares",
          "type": "uint256"
        }
      ],
      "name": "deposit",
      "outputs": [
        {
          "internalType": "uint256",
          "name": "",
          "type": "uint256"
        }
      ],
      "stateMutability": "nonpayable",
      "type": "function"
    },
    {
      "inputs": [
        {
          "internalType": "uint256",
          "name": "ibtAmount",
          "type": "uint256"
        },
        {
          "internalType": "address",
          "name": "receiver",
          "type": "address"
        },
        {
          "internalType": "uint256",
          "name": "minShares",
          "type": "uint256"
        }
      ],
      "name": "depositWithIBT",
      "outputs": [
        {
          "internalType": "uint256",
          "name": "",
          "type": "uint256"
        }
      ],
      "stateMutability": "nonpayable",
      "type": "function"
    },
    {
      "inputs": [
        {
          "internalType": "uint256",
          "name": "ibtAmount",
          "type": "uint256"
        },
        {
          "internalType": "address",
          "name": "receiver",
          "type": "address"
        }
      ],
      "name": "depositWithIBT",
      "outputs": [
        {
          "internalType": "uint256",
          "name": "shares",
          "type": "uint256"
        }
      ],
      "stateMutability": "nonpayable",
      "type": "function"
    },
    {
      "inputs": [],
      "name": "getAssetUnit",
      "outputs": [
        {
          "internalType": "uint256",
          "name": "",
          "type": "uint256"
        }
      ],
      "stateMutability": "view",
      "type": "function"
    },
    {
      "inputs": [
        {
          "internalType": "address",
          "name": "_user",
          "type": "address"
        }
      ],
      "name": "getCurrentYieldInIBTOfUser",
      "outputs": [
        {
          "internalType": "uint256",
          "name": "_yieldOfUserInIBT",
          "type": "uint256"
        }
      ],
      "stateMutability": "view",
      "type": "function"
    },
    {
      "inputs": [],
      "name": "getFeeCollectorAddress",
      "outputs": [
        {
          "internalType": "address",
          "name": "",
          "type": "address"
        }
      ],
      "stateMutability": "view",
      "type": "function"
    },
    {
      "inputs": [],
      "name": "getIBT",
      "outputs": [
        {
          "internalType": "address",
          "name": "",
          "type": "address"
        }
      ],
      "stateMutability": "view",
      "type": "function"
    },
    {
      "inputs": [],
      "name": "getIBTRate",
      "outputs": [
        {
          "internalType": "uint256",
          "name": "",
          "type": "uint256"
        }
      ],
      "stateMutability": "view",
      "type": "function"
    },
    {
      "inputs": [],
      "name": "getIBTRateAtExpiry",
      "outputs": [
        {
          "internalType": "uint256",
          "name": "",
          "type": "uint256"
        }
      ],
      "stateMutability": "view",
      "type": "function"
    },
    {
      "inputs": [],
      "name": "getIBTUnit",
      "outputs": [
        {
          "internalType": "uint256",
          "name": "",
          "type": "uint256"
        }
      ],
      "stateMutability": "view",
      "type": "function"
    },
    {
      "inputs": [],
      "name": "getMaxProtocolFee",
      "outputs": [
        {
          "internalType": "uint256",
          "name": "",
          "type": "uint256"
        }
      ],
      "stateMutability": "view",
      "type": "function"
    },
    {
      "inputs": [],
      "name": "getPTRate",
      "outputs": [
        {
          "internalType": "uint256",
          "name": "",
          "type": "uint256"
        }
      ],
      "stateMutability": "view",
      "type": "function"
    },
    {
      "inputs": [],
      "name": "getPTRateAtExpiry",
      "outputs": [
        {
          "internalType": "uint256",
          "name": "",
          "type": "uint256"
        }
      ],
      "stateMutability": "view",
      "type": "function"
    },
    {
      "inputs": [],
      "name": "getRegistry",
      "outputs": [
        {
          "internalType": "address",
          "name": "",
          "type": "address"
        }
      ],
      "stateMutability": "view",
      "type": "function"
    },
    {
      "inputs": [],
      "name": "getRegistryAddress",
      "outputs": [
        {
          "internalType": "address",
          "name": "",
          "type": "address"
        }
      ],
      "stateMutability": "view",
      "type": "function"
    },
    {
      "inputs": [],
      "name": "getUnclaimedFeesInIBT",
      "outputs": [
        {
          "internalType": "uint256",
          "name": "",
          "type": "uint256"
        }
      ],
      "stateMutability": "view",
      "type": "function"
    },
    {
      "inputs": [],
      "name": "getYT",
      "outputs": [
        {
          "internalType": "address",
          "name": "",
          "type": "address"
        }
      ],
      "stateMutability": "view",
      "type": "function"
    },
    {
      "inputs": [],
      "name": "getZapDepositor",
      "outputs": [
        {
          "internalType": "address",
          "name": "",
          "type": "address"
        }
      ],
      "stateMutability": "view",
      "type": "function"
    },
    {
      "inputs": [],
      "name": "getZapDepositorAddress",
      "outputs": [
        {
          "internalType": "address",
          "name": "",
          "type": "address"
        }
      ],
      "stateMutability": "view",
      "type": "function"
    },
    {
      "inputs": [
        {
          "internalType": "address",
          "name": "spender",
          "type": "address"
        },
        {
          "internalType": "uint256",
          "name": "addedValue",
          "type": "uint256"
        }
      ],
      "name": "increaseAllowance",
      "outputs": [
        {
          "internalType": "bool",
          "name": "",
          "type": "bool"
        }
      ],
      "stateMutability": "nonpayable",
      "type": "function"
    },
    {
      "inputs": [
        {
          "internalType": "string",
          "name": "_name",
          "type": "string"
        },
        {
          "internalType": "string",
          "name": "_symbol",
          "type": "string"
        },
        {
          "internalType": "address",
          "name": "_ibt",
          "type": "address"
        },
        {
          "internalType": "uint256",
          "name": "_expiry",
          "type": "uint256"
        },
        {
          "internalType": "uint256",
          "name": "_max_fees",
          "type": "uint256"
        },
        {
          "internalType": "address",
          "name": "_registry",
          "type": "address"
        },
        {
          "internalType": "address",
          "name": "_ytBeacon",
          "type": "address"
        }
      ],
      "name": "initialize",
      "outputs": [],
      "stateMutability": "nonpayable",
      "type": "function"
    },
    {
      "inputs": [],
      "name": "maturity",
      "outputs": [
        {
          "internalType": "uint256",
          "name": "",
          "type": "uint256"
        }
      ],
      "stateMutability": "view",
      "type": "function"
    },
    {
      "inputs": [
        {
          "internalType": "address",
          "name": "",
          "type": "address"
        }
      ],
      "name": "maxDeposit",
      "outputs": [
        {
          "internalType": "uint256",
          "name": "",
          "type": "uint256"
        }
      ],
      "stateMutability": "pure",
      "type": "function"
    },
    {
      "inputs": [
        {
          "internalType": "address",
          "name": "",
          "type": "address"
        }
      ],
      "name": "maxMint",
      "outputs": [
        {
          "internalType": "uint256",
          "name": "",
          "type": "uint256"
        }
      ],
      "stateMutability": "pure",
      "type": "function"
    },
    {
      "inputs": [
        {
          "internalType": "address",
          "name": "owner",
          "type": "address"
        }
      ],
      "name": "maxRedeem",
      "outputs": [
        {
          "internalType": "uint256",
          "name": "",
          "type": "uint256"
        }
      ],
      "stateMutability": "view",
      "type": "function"
    },
    {
      "inputs": [
        {
          "internalType": "address",
          "name": "owner",
          "type": "address"
        }
      ],
      "name": "maxWithdraw",
      "outputs": [
        {
          "internalType": "uint256",
          "name": "",
          "type": "uint256"
        }
      ],
      "stateMutability": "view",
      "type": "function"
    },
    {
      "inputs": [
        {
          "internalType": "uint256",
          "name": "shares",
          "type": "uint256"
        },
        {
          "internalType": "address",
          "name": "receiver",
          "type": "address"
        },
        {
          "internalType": "uint256",
          "name": "maxAssets",
          "type": "uint256"
        }
      ],
      "name": "mint",
      "outputs": [
        {
          "internalType": "uint256",
          "name": "",
          "type": "uint256"
        }
      ],
      "stateMutability": "nonpayable",
      "type": "function"
    },
    {
      "inputs": [
        {
          "internalType": "uint256",
          "name": "shares",
          "type": "uint256"
        },
        {
          "internalType": "address",
          "name": "receiver",
          "type": "address"
        }
      ],
      "name": "mint",
      "outputs": [
        {
          "internalType": "uint256",
          "name": "",
          "type": "uint256"
        }
      ],
      "stateMutability": "nonpayable",
      "type": "function"
    },
    {
      "inputs": [],
      "name": "name",
      "outputs": [
        {
          "internalType": "string",
          "name": "",
          "type": "string"
        }
      ],
      "stateMutability": "view",
      "type": "function"
    },
    {
      "inputs": [
        {
          "internalType": "address",
          "name": "owner",
          "type": "address"
        }
      ],
      "name": "nonces",
      "outputs": [
        {
          "internalType": "uint256",
          "name": "",
          "type": "uint256"
        }
      ],
      "stateMutability": "view",
      "type": "function"
    },
    {
      "inputs": [],
      "name": "owner",
      "outputs": [
        {
          "internalType": "address",
          "name": "",
          "type": "address"
        }
      ],
      "stateMutability": "view",
      "type": "function"
    },
    {
      "inputs": [],
      "name": "pause",
      "outputs": [],
      "stateMutability": "nonpayable",
      "type": "function"
    },
    {
      "inputs": [],
      "name": "paused",
      "outputs": [
        {
          "internalType": "bool",
          "name": "",
          "type": "bool"
        }
      ],
      "stateMutability": "view",
      "type": "function"
    },
    {
      "inputs": [],
      "name": "pendingOwner",
      "outputs": [
        {
          "internalType": "address",
          "name": "",
          "type": "address"
        }
      ],
      "stateMutability": "view",
      "type": "function"
    },
    {
      "inputs": [
        {
          "internalType": "address",
          "name": "owner",
          "type": "address"
        },
        {
          "internalType": "address",
          "name": "spender",
          "type": "address"
        },
        {
          "internalType": "uint256",
          "name": "value",
          "type": "uint256"
        },
        {
          "internalType": "uint256",
          "name": "deadline",
          "type": "uint256"
        },
        {
          "internalType": "uint8",
          "name": "v",
          "type": "uint8"
        },
        {
          "internalType": "bytes32",
          "name": "r",
          "type": "bytes32"
        },
        {
          "internalType": "bytes32",
          "name": "s",
          "type": "bytes32"
        }
      ],
      "name": "permit",
      "outputs": [],
      "stateMutability": "nonpayable",
      "type": "function"
    },
    {
      "inputs": [
        {
          "internalType": "uint256",
          "name": "assets",
          "type": "uint256"
        }
      ],
      "name": "previewDeposit",
      "outputs": [
        {
          "internalType": "uint256",
          "name": "",
          "type": "uint256"
        }
      ],
      "stateMutability": "view",
      "type": "function"
    },
    {
      "inputs": [
        {
          "internalType": "uint256",
          "name": "shares",
          "type": "uint256"
        }
      ],
      "name": "previewMint",
      "outputs": [
        {
          "internalType": "uint256",
          "name": "",
          "type": "uint256"
        }
      ],
      "stateMutability": "view",
      "type": "function"
    },
    {
      "inputs": [
        {
          "internalType": "uint256",
          "name": "shares",
          "type": "uint256"
        }
      ],
      "name": "previewRedeem",
      "outputs": [
        {
          "internalType": "uint256",
          "name": "",
          "type": "uint256"
        }
      ],
      "stateMutability": "view",
      "type": "function"
    },
    {
      "inputs": [
        {
          "internalType": "uint256",
          "name": "assets",
          "type": "uint256"
        }
      ],
      "name": "previewWithdraw",
      "outputs": [
        {
          "internalType": "uint256",
          "name": "",
          "type": "uint256"
        }
      ],
      "stateMutability": "view",
      "type": "function"
    },
    {
      "inputs": [
        {
          "internalType": "uint256",
          "name": "shares",
          "type": "uint256"
        },
        {
          "internalType": "address",
          "name": "receiver",
          "type": "address"
        },
        {
          "internalType": "address",
          "name": "owner",
          "type": "address"
        },
        {
          "internalType": "uint256",
          "name": "minAssets",
          "type": "uint256"
        }
      ],
      "name": "redeem",
      "outputs": [
        {
          "internalType": "uint256",
          "name": "",
          "type": "uint256"
        }
      ],
      "stateMutability": "nonpayable",
      "type": "function"
    },
    {
      "inputs": [
        {
          "internalType": "uint256",
          "name": "shares",
          "type": "uint256"
        },
        {
          "internalType": "address",
          "name": "receiver",
          "type": "address"
        },
        {
          "internalType": "address",
          "name": "owner",
          "type": "address"
        }
      ],
      "name": "redeem",
      "outputs": [
        {
          "internalType": "uint256",
          "name": "assets",
          "type": "uint256"
        }
      ],
      "stateMutability": "nonpayable",
      "type": "function"
    },
    {
      "inputs": [],
      "name": "renounceOwnership",
      "outputs": [],
      "stateMutability": "nonpayable",
      "type": "function"
    },
    {
      "inputs": [
        {
          "internalType": "address",
          "name": "_feeCollector",
          "type": "address"
        }
      ],
      "name": "setFeeCollector",
      "outputs": [],
      "stateMutability": "nonpayable",
      "type": "function"
    },
    {
      "inputs": [
        {
          "internalType": "uint256",
          "name": "newMaxFee",
          "type": "uint256"
        }
      ],
      "name": "setMaxProtocolFee",
      "outputs": [],
      "stateMutability": "nonpayable",
      "type": "function"
    },
    {
      "inputs": [],
      "name": "storeRatesAtExpiry",
      "outputs": [
        {
          "internalType": "uint256",
          "name": "_ibtRate",
          "type": "uint256"
        },
        {
          "internalType": "uint256",
          "name": "_ptRate",
          "type": "uint256"
        }
      ],
      "stateMutability": "nonpayable",
      "type": "function"
    },
    {
      "inputs": [],
      "name": "symbol",
      "outputs": [
        {
          "internalType": "string",
          "name": "",
          "type": "string"
        }
      ],
      "stateMutability": "view",
      "type": "function"
    },
    {
      "inputs": [],
      "name": "totalAssets",
      "outputs": [
        {
          "internalType": "uint256",
          "name": "",
          "type": "uint256"
        }
      ],
      "stateMutability": "view",
      "type": "function"
    },
    {
      "inputs": [],
      "name": "totalSupply",
      "outputs": [
        {
          "internalType": "uint256",
          "name": "",
          "type": "uint256"
        }
      ],
      "stateMutability": "view",
      "type": "function"
    },
    {
      "inputs": [
        {
          "internalType": "address",
          "name": "to",
          "type": "address"
        },
        {
          "internalType": "uint256",
          "name": "amount",
          "type": "uint256"
        }
      ],
      "name": "transfer",
      "outputs": [
        {
          "internalType": "bool",
          "name": "",
          "type": "bool"
        }
      ],
      "stateMutability": "nonpayable",
      "type": "function"
    },
    {
      "inputs": [
        {
          "internalType": "address",
          "name": "from",
          "type": "address"
        },
        {
          "internalType": "address",
          "name": "to",
          "type": "address"
        },
        {
          "internalType": "uint256",
          "name": "amount",
          "type": "uint256"
        }
      ],
      "name": "transferFrom",
      "outputs": [
        {
          "internalType": "bool",
          "name": "",
          "type": "bool"
        }
      ],
      "stateMutability": "nonpayable",
      "type": "function"
    },
    {
      "inputs": [
        {
          "internalType": "address",
          "name": "newOwner",
          "type": "address"
        }
      ],
      "name": "transferOwnership",
      "outputs": [],
      "stateMutability": "nonpayable",
      "type": "function"
    },
    {
      "inputs": [],
      "name": "unPause",
      "outputs": [],
      "stateMutability": "nonpayable",
      "type": "function"
    },
    {
      "inputs": [],
      "name": "underlying",
      "outputs": [
        {
          "internalType": "address",
          "name": "",
          "type": "address"
        }
      ],
      "stateMutability": "view",
      "type": "function"
    },
    {
      "inputs": [
        {
          "internalType": "address",
          "name": "_user",
          "type": "address"
        }
      ],
      "name": "updateYield",
      "outputs": [
        {
          "internalType": "uint256",
          "name": "updatedUserYieldInIBT",
          "type": "uint256"
        }
      ],
      "stateMutability": "nonpayable",
      "type": "function"
    },
    {
      "inputs": [],
      "name": "updateZapDepositor",
      "outputs": [],
      "stateMutability": "nonpayable",
      "type": "function"
    },
    {
      "inputs": [
        {
          "internalType": "uint256",
          "name": "assets",
          "type": "uint256"
        },
        {
          "internalType": "address",
          "name": "receiver",
          "type": "address"
        },
        {
          "internalType": "address",
          "name": "owner",
          "type": "address"
        },
        {
          "internalType": "uint256",
          "name": "maxShares",
          "type": "uint256"
        }
      ],
      "name": "withdraw",
      "outputs": [
        {
          "internalType": "uint256",
          "name": "",
          "type": "uint256"
        }
      ],
      "stateMutability": "nonpayable",
      "type": "function"
    },
    {
      "inputs": [
        {
          "internalType": "uint256",
          "name": "assets",
          "type": "uint256"
        },
        {
          "internalType": "address",
          "name": "receiver",
          "type": "address"
        },
        {
          "internalType": "address",
          "name": "owner",
          "type": "address"
        }
      ],
      "name": "withdraw",
      "outputs": [
        {
          "internalType": "uint256",
          "name": "shares",
          "type": "uint256"
        }
      ],
      "stateMutability": "nonpayable",
      "type": "function"
    },
    {
      "inputs": [
        {
          "internalType": "address",
          "name": "receiver",
          "type": "address"
        },
        {
          "internalType": "address",
          "name": "owner",
          "type": "address"
        }
      ],
      "name": "withdrawAfterExpiry",
      "outputs": [
        {
          "internalType": "uint256",
          "name": "withdrawnAssets",
          "type": "uint256"
        }
      ],
      "stateMutability": "nonpayable",
      "type": "function"
    },
    {
      "inputs": [
        {
          "internalType": "address",
          "name": "",
          "type": "address"
        }
      ],
      "name": "yieldOfUserInIBT",
      "outputs": [
        {
          "internalType": "uint256",
          "name": "",
          "type": "uint256"
        }
      ],
      "stateMutability": "view",
      "type": "function"
    }
  ],
  "bytecode": {
    "object": "0x60806040523480156200001157600080fd5b506200001c62000022565b620000e3565b600054610100900460ff16156200008f5760405162461bcd60e51b815260206004820152602760248201527f496e697469616c697a61626c653a20636f6e747261637420697320696e697469604482015266616c697a696e6760c81b606482015260840160405180910390fd5b60005460ff90811614620000e1576000805460ff191660ff9081179091556040519081527f7f26b83ff96e1f2b6a682f133852f6798a09c465da95921460cefb38474024989060200160405180910390a15b565b615f9780620000f36000396000f3fe60806040523480156200001157600080fd5b5060043610620004f95760003560e01c806379ba50971162000295578063b460af94116200016d578063d505accf11620000df578063efd98dc2116200009e578063efd98dc21462000a8e578063f21de1e81462000784578063f2fde38b1462000a98578063f7b188a51462000aaf578063f90d63db1462000ab9578063fefd6d4914620005bb57600080fd5b8063d505accf1462000a20578063d905777e1462000a37578063dd62ed3e1462000a4e578063e30c39781462000a65578063ef8b30f71462000a7757600080fd5b8063c63d75b6116200012c578063c63d75b614620006ef578063c644fe9414620009ec578063c6e6f592146200062b578063ce96cb7714620009ff578063d294f0931462000a1657600080fd5b8063b460af94146200097d578063ba0876521462000994578063bafc0f1414620009ab578063bc157ac114620009c2578063bf2d75fb14620009d957600080fd5b8063a1c5b3e11162000207578063a9059cbb11620001c6578063a9059cbb1462000938578063aca505f71462000728578063b2b84d94146200094f578063b346db0c1462000966578063b3d7f6b9146200056557600080fd5b8063a1c5b3e114620008d2578063a318c1a414620008dc578063a42dce8014620008f3578063a457c2d7146200090a578063a6089139146200092157600080fd5b80638da5cb5b11620002545780638da5cb5b146200086857806394bf804d146200087a57806395d89b4114620008915780639f40a7b3146200089b578063a13c91a314620008b257600080fd5b806379ba5097146200080f5780637cafde7f14620008195780637ecebe001462000830578063836a104014620008475780638456cb59146200085e57600080fd5b80633644e51511620003d55780634f72ec2f11620003475780636e553f6511620003065780636e553f6514620007b85780636f307dc314620006ae57806370a0823114620007cf578063714d422b14620007fb578063715018a6146200080557806375ba1dac146200073f57600080fd5b80634f72ec2f146200076d5780635ab1bd5314620007845780635c975abb14620007975780636793642014620007a45780636956df1714620007ae57600080fd5b8063406cf2291162000394578063406cf229146200070757806340f5e56b146200071157806344ba8add146200072857806347609bd4146200073f5780634cdad506146200075657600080fd5b80633644e51514620006a457806338d52e0f14620006ae5780633950935114620006c15780633ca7c82d14620006d8578063402d267d14620006ef57600080fd5b80631dc7f521116200046f57806325a8d87d116200042e57806325a8d87d146200062b578063277a04d614620006425780632b930fa314620006595780632c660fbc1462000663578063313ce567146200068757600080fd5b80631dc7f52114620005655780631f2b4f2414620005e9578063204f83f914620005f357806321b62f9614620005fd57806323b872dd146200061457600080fd5b8063095ea7b311620004bc578063095ea7b3146200057c5780630a28a47714620005a45780630e5f99c514620005bb578063138695a714620005d457806318160ddd14620005e057600080fd5b806301e1d11414620004fe57806303b91a85146200051b57806304aa50ad146200052557806306fdde03146200054c57806307a2d13a1462000565575b600080fd5b6200050862000ad0565b6040519081526020015b60405180910390f35b6101a05462000508565b610196546001600160a01b03165b6040516001600160a01b03909116815260200162000512565b6200055662000b58565b60405162000512919062004cb9565b620005086200057636600462004cce565b62000bf2565b620005936200058d36600462004cfe565b62000c05565b604051901515815260200162000512565b62000508620005b536600462004cce565b62000c1f565b610194546201000090046001600160a01b031662000533565b620005de62000cce565b005b60355462000508565b6101975462000508565b61019d5462000508565b620005086200060e36600462004d2d565b62000dae565b620005936200062536600462004d6b565b62001084565b620005086200063c36600462004cce565b620010ae565b620005086200065336600462004db1565b620010bb565b6200050862001133565b620005086200067436600462004ddb565b6101a46020526000908152604090205481565b6200069162001194565b60405160ff909116815260200162000512565b620005086200120b565b610195546001600160a01b031662000533565b62000593620006d236600462004cfe565b62001217565b62000508620006e936600462004cce565b6200123f565b620005086200070036600462004ddb565b5060001990565b620005086200124c565b620005de6200072236600462004ecc565b620012c4565b620005086200073936600462004f8a565b62001876565b620005086200075036600462004f8a565b62001895565b620005086200076736600462004cce565b620018a9565b620005de6200077e36600462004d2d565b62001964565b6101a1546001600160a01b031662000533565b6101625460ff1662000593565b6101985462000508565b62000508620019d6565b62000508620007c936600462004fad565b62001a37565b62000508620007e036600462004ddb565b6001600160a01b031660009081526033602052604090205490565b61019f5462000508565b620005de62001b47565b620005de62001b5f565b620005086200082a36600462004cce565b62001bdd565b620005086200084136600462004ddb565b62001f15565b620005086200085836600462004db1565b62001f34565b620005de62001fa2565b60cc546001600160a01b031662000533565b620005086200088b36600462004fad565b62001fb6565b6200055662001fda565b62000508620008ac36600462004fd5565b62001feb565b620008bc62002065565b6040805192835260208301919091520162000512565b61019b5462000508565b62000508620008ed36600462004fd5565b62002141565b620005de6200090436600462004ddb565b620021a6565b620005936200091b36600462004cfe565b62002265565b620005de6200093236600462004cce565b620022f1565b620005936200094936600462004cfe565b6200235d565b620005086200096036600462004ddb565b6200236d565b620005086200097736600462004cce565b6200238d565b620005086200098e36600462005022565b6200239a565b62000508620009a536600462005022565b620027ab565b62000508620009bc36600462004fad565b6200295c565b62000508620009d336600462004db1565b620029ce565b61019a546001600160a01b031662000533565b61019e546001600160a01b031662000533565b6200050862000a1036600462004ddb565b62002a32565b6200050862002b73565b620005de62000a3136600462005079565b62002cba565b6200050862000a4836600462004ddb565b62002e2a565b6200050862000a5f36600462004d2d565b62002e5f565b60fe546001600160a01b031662000533565b6200050862000a8836600462004cce565b62002e8a565b61019c5462000508565b620005de62000aa936600462004ddb565b62002ec8565b620005de62002f3c565b6200050862000aca36600462004ddb565b62002f50565b61019e546040516370a0823160e01b815230600482015260009182916001600160a01b03909116906370a0823190602401602060405180830381865afa15801562000b1f573d6000803e3d6000fd5b505050506040513d601f19601f8201168201806040525081019062000b459190620050f1565b905062000b52816200123f565b91505090565b60606036805462000b69906200510b565b80601f016020809104026020016040519081016040528092919081815260200182805462000b97906200510b565b801562000be85780601f1062000bbc5761010080835404028352916020019162000be8565b820191906000526020600020905b81548152906001019060200180831162000bca57829003601f168201915b5050505050905090565b600062000bff826200303d565b92915050565b60003362000c158185856200305e565b5060019392505050565b600062000c2b62003186565b60008062000c38620031cf565b91509150600062000c4b3384846200320e565b9050600062000c8d670de0b6b3a76400006101a054670de0b6b3a764000062000c75919062005157565b62000c81908562005171565b620006e99190620051a9565b905080861162000ca35750600095945050505050565b62000cba62000cb3828862005157565b8562001895565b9695505050505050565b505050505b919050565b62000cd862003256565b6101a160009054906101000a90046001600160a01b03166001600160a01b0316630e5f99c56040518163ffffffff1660e01b8152600401602060405180830381865afa15801562000d2d573d6000803e3d6000fd5b505050506040513d601f19601f8201168201806040525081019062000d539190620051cc565b610194805462010000600160b01b031916620100006001600160a01b03938416810291909117918290556040519104909116907f1e905582c079dde1c881fd4c1b17901d640dbeb6e590d726a1a3c42cc7da1c3d90600090a2565b600061019d5442101562000de0576040516320383cfd60e21b815260040162000dd790620051ec565b60405180910390fd5b62000dea620032b2565b62000df462003186565b6001600160a01b038216331462000e20576040516320383cfd60e21b815260040162000dd7906200521a565b600062000e2d8362002e2a565b9050600062000e3c82620018a9565b905062000e4d33868684866200330f565b600062000e5a8562002f50565b6001600160a01b03861660009081526101a4602052604081208190556101a05491925090670de0b6b3a76400009062000e94908462005171565b62000ea09190620051a9565b905062000ead8162003383565b62000eb9818362005157565b9150866001600160a01b03167f756e93dd7a18a6d27429a3d68659332413f14c4494d1dc68a987dfaba5c1ca8b62000ef1846200123f565b60405190815260200160405180910390a262000f0d826200123f565b62000f1990846200525e565b61019e54604051632d182be560e21b81529196506001600160a01b03169063b460af949062000f519088908b90309060040162005279565b6020604051808303816000875af115801562000f71573d6000803e3d6000fd5b505050506040513d601f19601f8201168201806040525081019062000f979190620050f1565b50610196546040516305ea542b60e21b81526001600160a01b0388811660048301529091169063bd6e3f7d90889083906317a950ac90602401602060405180830381865afa15801562000fee573d6000803e3d6000fd5b505050506040513d601f19601f82011682018060405250810190620010149190620050f1565b6040516001600160e01b031960e085901b1681526001600160a01b0390921660048301526024820152604401600060405180830381600087803b1580156200105b57600080fd5b505af115801562001070573d6000803e3d6000fd5b505050505050505062000bff600161013055565b60003362001094858285620033b8565b620010a185858562003439565b60019150505b9392505050565b600062000bff82620035ec565b600080620010ca85856200295c565b9050828110156200112b576040516320383cfd60e21b8152602060048201526024808201527f455243353134333a204465706f73697420736c6970706167652070726f7465636044820152633a34b7b760e11b606482015260840162000dd7565b949350505050565b6101945460009060ff166200118c576040516320383cfd60e21b815260206004820152601e60248201527f526174657320617420657870697279206e6f742073746f726564207965740000604482015260640162000dd7565b5061019c5490565b61019e546040805163313ce56760e01b815290516000926001600160a01b03169163313ce5679160048083019260209291908290030181865afa158015620011e0573d6000803e3d6000fd5b505050506040513d601f19601f8201168201806040525081019062001206919062005298565b905090565b6000620012066200360e565b60003362000c158185856200122d838362002e5f565b6200123991906200525e565b6200305e565b600062000bff826200368b565b610196546040516305ea542b60e21b815233600482015260009162001206916001600160a01b03909116906317a950ac90602401602060405180830381865afa1580156200129e573d6000803e3d6000fd5b505050506040513d601f19601f820116820180604052508101906200082a9190620050f1565b600054610100900460ff1615808015620012e55750600054600160ff909116105b80620013015750303b15801562001301575060005460ff166001145b620013665760405162461bcd60e51b815260206004820152602e60248201527f496e697469616c697a61626c653a20636f6e747261637420697320616c72656160448201526d191e481a5b9a5d1a585b1a5e995960921b606482015260840162000dd7565b6000805460ff1916600117905580156200138a576000805461ff0019166101001790555b6001600160a01b038216620013f9576040516320383cfd60e21b815260206004820152602d60248201527f595420626561636f6e20616464726573732073686f756c64206e6f742062652060448201526c657175616c20746f207a65726f60981b606482015260840162000dd7565b6001600160a01b03861662001452576040516320383cfd60e21b815260206004820152601e60248201527f43616e6e6f74207365742069627420746f207a65726f20616464726573730000604482015260640162000dd7565b856001600160a01b03166338d52e0f6040518163ffffffff1660e01b8152600401602060405180830381865afa15801562001491573d6000803e3d6000fd5b505050506040513d601f19601f82011682018060405250810190620014b79190620051cc565b61019580546001600160a01b0319166001600160a01b0392909216919091179055620014e442866200525e565b61019d819055506000866001600160a01b03166395d89b416040518163ffffffff1660e01b8152600401600060405180830381865afa1580156200152c573d6000803e3d6000fd5b505050506040513d6000823e601f3d908101601f19168201604052620015569190810190620052b8565b90506000620015698261019d54620036fe565b9050620015778a826200376a565b620015828a620037a4565b6200158c620037f3565b6200159662003827565b620015a06200385b565b876001600160a01b031663313ce5676040518163ffffffff1660e01b8152600401602060405180830381865afa158015620015df573d6000803e3d6000fd5b505050506040513d601f19601f8201168201806040525081019062001605919062005298565b6200161290600a6200542c565b61019755610195546040805163313ce56760e01b815290516001600160a01b039092169163313ce567916004808201926020929091908290030181865afa15801562001662573d6000803e3d6000fd5b505050506040513d601f19601f8201168201806040525081019062001688919062005298565b6200169590600a6200542c565b6101985561019e80546001600160a01b0319166001600160a01b038a1617905561019d54600090620016c99084906200388f565b9050620016fb6040518060400160405280600b81526020016a2cb4b2b632102a37b5b2b760a91b815250828762003918565b61019680546001600160a01b0319166001600160a01b0392909216919091179055610197546200172b906200123f565b61019c556101985461019b55670de0b6b3a764000087111562001763576040516320383cfd60e21b815260040162000dd7906200543d565b6101a08790556101a180546001600160a01b0388166001600160a01b03199091168117909155610194805461ff00191661010017905560408051630e5f99c560e01b81529051630e5f99c5916004808201926020929091908290030181865afa158015620017d5573d6000803e3d6000fd5b505050506040513d601f19601f82011682018060405250810190620017fb9190620051cc565b61019460026101000a8154816001600160a01b0302191690836001600160a01b0316021790555050505080156200186c576000805461ff0019169055604051600181527f7f26b83ff96e1f2b6a682f133852f6798a09c465da95921460cefb38474024989060200160405180910390a15b5050505050505050565b6101975460009062001889838562005171565b620010a79190620051a9565b600081610197548462001889919062005171565b600061019d54421015620018d2576040516320383cfd60e21b815260040162000dd790620051ec565b620018dc62003186565b6101945460ff16156200191a576000620018fa8361019b5462001876565b905060006200190d8261019c5462001895565b90506200112b816200123f565b6040516320383cfd60e21b815260206004820152601a60248201527f526174657320617420657870697279206e6f742073746f726564000000000000604482015260640162000dd7565b610196546001600160a01b03163314620019ba576040516320383cfd60e21b815260206004820152601560248201527410d85b1b195c881cda1bdd5b190818994818481655605a1b604482015260640162000dd7565b620019c58262002f50565b50620019d18162002f50565b505050565b6101945460009060ff1662001a2f576040516320383cfd60e21b815260206004820152601e60248201527f526174657320617420657870697279206e6f742073746f726564207965740000604482015260640162000dd7565b5061019b5490565b600061019d5442111562001a60576040516320383cfd60e21b815260040162000dd7906200547e565b62001a6a620032b2565b62001a7462003186565b6101955462001a8f906001600160a01b0316333086620039e4565b6101955461019e5462001ab0916001600160a01b0390811691168562003a51565b61019e54604051636e553f6560e01b8152600481018590523060248201526000916001600160a01b031690636e553f65906044016020604051808303816000875af115801562001b04573d6000803e3d6000fd5b505050506040513d601f19601f8201168201806040525081019062001b2a9190620050f1565b905062001b38818462003b0a565b91505062000bff600161013055565b62001b5162003256565b62001b5d600062003be1565b565b60fe5433906001600160a01b0316811462001bcf5760405162461bcd60e51b815260206004820152602960248201527f4f776e61626c6532537465703a2063616c6c6572206973206e6f7420746865206044820152683732bb9037bbb732b960b91b606482015260840162000dd7565b62001bda8162003be1565b50565b600061019d5442111562001c06576040516320383cfd60e21b815260040162000dd7906200547e565b33600062001c148262002f50565b610196546040516305ea542b60e21b81526001600160a01b038581166004830152929350600092909116906317a950ac90602401602060405180830381865afa15801562001c66573d6000803e3d6000fd5b505050506040513d601f19601f8201168201806040525081019062001c8c9190620050f1565b9050811580159062001ca657508415158062001ca6575080155b1562001f0a5780851162001cbb578462001cbd565b805b94506000811562001cea5762001ce4610197548762001cdd919062005171565b8362003bfc565b62001cef565b610197545b6101975490915062001d02828562005171565b62001d0e9190620051a9565b6001600160a01b03851660009081526101a4602052604090205490935083111562001d88576040516320383cfd60e21b815260206004820152602260248201527f5969656c64546f5472616e7366657220657863656564732075736572207969656044820152611b1960f21b606482015260840162000dd7565b6001600160a01b03841660009081526101a460205260408120805485929062001db390849062005157565b90915550506101a054600090670de0b6b3a76400009062001dd5908662005171565b62001de19190620051a9565b905062001dee8162003383565b62001dfa818562005157565b9350600062001e09856200123f565b9050856001600160a01b03167f756e93dd7a18a6d27429a3d68659332413f14c4494d1dc68a987dfaba5c1ca8b8260405162001e4791815260200190565b60405180910390a261019454610100900460ff1662001e7e57610194805461ff001916610100179055955062000cc9945050505050565b61019e54604051632d182be560e21b81526001600160a01b039091169063b460af949062001eb59084908a90309060040162005279565b6020604051808303816000875af115801562001ed5573d6000803e3d6000fd5b505050506040513d601f19601f8201168201806040525081019062001efb9190620050f1565b50955062000cc9945050505050565b506000949350505050565b6001600160a01b03811660009081526099602052604081205462000bff565b60008062001f43858562001fb6565b9050828111156200112b576040516320383cfd60e21b815260206004820152602160248201527f455243353134333a204d696e7420736c6970706167652070726f74656374696f6044820152603760f91b606482015260840162000dd7565b62001fac62003256565b62001b5d62003c3b565b60008062001fc48462000bf2565b905062001fd2818462001a37565b509392505050565b60606037805462000b69906200510b565b60008062001ffb868686620027ab565b9050828110156200205c576040516320383cfd60e21b815260206004820152602360248201527f455243353134333a2052656465656d20736c6970706167652070726f7465637460448201526234b7b760e91b606482015260840162000dd7565b95945050505050565b60008061019d544210156200208f576040516320383cfd60e21b815260040162000dd790620051ec565b6101945460ff1615620020e6576040516320383cfd60e21b815260206004820152601e60248201527f52617465732061742065787069727920616c72656164792073746f7265640000604482015260640162000dd7565b610194805460ff19166001179055620020fe62003c99565b61019c81905561019b829055604051909350909150819083907f86f6956dfa46dcc6315cbb9f8917848f94efdedd075e2500cb1edfcf9102917290600090a39091565b600080620021518686866200239a565b9050828111156200205c576040516320383cfd60e21b815260206004820152601c60248201527f576974686472617720736c6970706167652070726f74656374696f6e00000000604482015260640162000dd7565b620021b062003256565b6001600160a01b0381166200221a576040516320383cfd60e21b815260206004820152602860248201527f43616e6e6f74207365742066656520636f6c6c6563746f7220746f207a65726f604482015267206164647265737360c01b606482015260840162000dd7565b61019a80546001600160a01b0319166001600160a01b0383169081179091556040517ff97f0ac0b801f3b371667c7a2c930d65f33a0a01307fab585a6aa2bcf111252290600090a250565b6000338162002275828662002e5f565b905083811015620022d75760405162461bcd60e51b815260206004820152602560248201527f45524332303a2064656372656173656420616c6c6f77616e63652062656c6f77604482015264207a65726f60d81b606482015260840162000dd7565b620022e682868684036200305e565b506001949350505050565b620022fb62003256565b670de0b6b3a764000081111562002327576040516320383cfd60e21b815260040162000dd7906200543d565b6101a0546040518291907f6868f9bfe82e163820855cc99b15f5784f59e4192cd924d2e744ee70d84542d190600090a36101a055565b60003362000c1581858562003439565b60008060006200237c620031cf565b915091506200112b8483836200320e565b600062000bff8262003cf0565b600061019d54421115620023c3576040516320383cfd60e21b815260040162000dd7906200547e565b620023cd62003186565b620023d7620032b2565b6001600160a01b038216331462002403576040516320383cfd60e21b815260040162000dd7906200521a565b6000620024108362002f50565b905060006200241f8462002a32565b90508581101562002480576040516320383cfd60e21b815260206004820152602360248201527f496e70757420616d6f756e742065786365656473207769746864726177206c696044820152621b5a5d60ea1b606482015260840162000dd7565b610196546040516305ea542b60e21b81526001600160a01b03868116600483015260009216906317a950ac90602401602060405180830381865afa158015620024cd573d6000803e3d6000fd5b505050506040513d601f19601f82011682018060405250810190620024f39190620050f1565b9050600062002517866001600160a01b031660009081526033602052604090205490565b90508181116200252857806200252a565b815b905060006200253d620009778362000bf2565b90508060000362002557576000955050505050506200279f565b6000670de0b6b3a76400006101a0548762002573919062005171565b6200257f9190620051a9565b905060006200258e8b6200238d565b905060006200259e838962005157565b821115620025e157508483620025b5848a62005157565b620025c1908462005157565b620025cd908762005171565b620025d99190620051a9565b985062002688565b620025ed838962005157565b6000036200265d576040516320383cfd60e21b815260206004820152603560248201527f4e6574207969656c642069732030207768657265617320737570706f73656420604482015274746f20636f7665722074686520776974686472617760581b606482015260840162000dd7565b62002669838962005157565b62002675878462005171565b620026819190620051a9565b9050600098505b610194805461ff00191690556200269f8162001bdd565b506101965460405163bd6e3f7d60e01b81526001600160a01b038c81166004830152602482018c90529091169063bd6e3f7d90604401600060405180830381600087803b158015620026f057600080fd5b505af115801562002705573d6000803e3d6000fd5b5050505062002718338c8c8f8d6200330f565b61019e54604051632d182be560e21b81526001600160a01b039091169063b460af94906200274f908f908f90309060040162005279565b6020604051808303816000875af11580156200276f573d6000803e3d6000fd5b505050506040513d601f19601f82011682018060405250810190620027959190620050f1565b5050505050505050505b620010a7600161013055565b600061019d54421015620027d4576040516320383cfd60e21b815260040162000dd790620051ec565b620027de620032b2565b620027e862003186565b6001600160a01b038216331462002814576040516320383cfd60e21b815260040162000dd7906200521a565b6200281f8262002e2a565b84111562002868576040516320383cfd60e21b81526020600482015260146024820152730a4cac8cacada40dadee4ca40e8d0c2dc40dac2f60631b604482015260640162000dd7565b6200287384620018a9565b90506200288433848484886200330f565b61019e54604051632d182be560e21b81526001600160a01b039091169063b460af9490620028bb9084908790309060040162005279565b6020604051808303816000875af1158015620028db573d6000803e3d6000fd5b505050506040513d601f19601f82011682018060405250810190620029019190620050f1565b50826001600160a01b0316826001600160a01b03167fd12200efa34901b99367694174c3b0d32c99585fdf37c7c26892136ddd0836d9836040516200294891815260200190565b60405180910390a3620010a7600161013055565b600061019d5442111562002985576040516320383cfd60e21b815260040162000dd7906200547e565b6200298f62003186565b62002999620032b2565b61019e54620029b4906001600160a01b0316333086620039e4565b620029c0838362003b0a565b905062000bff600161013055565b600080620029dd858562001a37565b9050828110156200112b576040516320383cfd60e21b815260206004820152601b60248201527f4465706f73697420736c6970706167652070726f74656374696f6e0000000000604482015260640162000dd7565b600062002a3e62003186565b6001600160a01b038216600090815260336020526040812054610196546040516305ea542b60e21b81526001600160a01b038681166004830152929350600092909116906317a950ac90602401602060405180830381865afa15801562002aa9573d6000803e3d6000fd5b505050506040513d601f19601f8201168201806040525081019062002acf9190620050f1565b9050600061019d54421162002af75781831162002aed578262002aef565b815b905062002afa565b50815b60008062002b07620031cf565b91509150600062002b1a8884846200320e565b905062002b28848462001876565b62002b5b670de0b6b3a7640000836101a054670de0b6b3a764000062002b4f919062005157565b62000c81919062005171565b62002b6791906200525e565b98975050505050505050565b61019a546000906001600160a01b0316331462002bd4576040516320383cfd60e21b815260206004820152601e60248201527f43616c6c65722073686f756c64206265204645455f434f4c4c4543544f520000604482015260640162000dd7565b61019f54600062002be5826200123f565b600061019f5561019e5461019a54604051632d182be560e21b81529293506001600160a01b039182169263b460af949262002c2a928692911690309060040162005279565b6020604051808303816000875af115801562002c4a573d6000803e3d6000fd5b505050506040513d601f19601f8201168201806040525081019062002c709190620050f1565b5061019a546040518381526001600160a01b03909116907f20ca5094f3a20c321cbe4123d0f01b276b81df0fa24cd4d83d9253956035d8639060200160405180910390a292915050565b8342111562002d0c5760405162461bcd60e51b815260206004820152601d60248201527f45524332305065726d69743a206578706972656420646561646c696e65000000604482015260640162000dd7565b60007f6e71edae12b1b97f4d1f60370fef10105fa2faae0126114a169c64845d6126c988888862002d3d8c62003d24565b6040805160208101969096526001600160a01b0394851690860152929091166060840152608083015260a082015260c0810186905260e001604051602081830303815290604052805190602001209050600062002d9a8262003d4c565b9050600062002dac8287878762003d9d565b9050896001600160a01b0316816001600160a01b03161462002e115760405162461bcd60e51b815260206004820152601e60248201527f45524332305065726d69743a20696e76616c6964207369676e61747572650000604482015260640162000dd7565b62002e1e8a8a8a6200305e565b50505050505050505050565b600061019d5442101562002e4057600062000bff565b6001600160a01b03821660009081526033602052604090205462000bff565b6001600160a01b03918216600090815260346020908152604080832093909416825291909152205490565b600061019d5442111562002eb3576040516320383cfd60e21b815260040162000dd7906200547e565b62002ebd62003186565b62000bff82620010ae565b62002ed262003256565b60fe80546001600160a01b0383166001600160a01b0319909116811790915562002f0460cc546001600160a01b031690565b6001600160a01b03167f38d16b8cac22d99fc7c124b9cd0de2d3fa1faef420bfe791d8c362d765e2270060405160405180910390a350565b62002f4662003256565b62001b5d62003dc9565b600080600062002f5f62003e06565b6001600160a01b03861660009081526101a260209081526040808320546101a39092529091205492945090925090811562002feb5762002fa3868385848862003e4a565b6001600160a01b03871660008181526101a460205260408082208490555192975087927f18cb9436df0c2ab8f3a0284742076c6ddf8a478776316b4b0d008d79372354909190a35b82821462003010576001600160a01b03861660009081526101a2602052604090208390555b83811462000cc4576001600160a01b03861660009081526101a36020526040902084905550505050919050565b6000806200304a620031cf565b506101975490915062001889828562005171565b6001600160a01b038316620030c25760405162461bcd60e51b8152602060048201526024808201527f45524332303a20617070726f76652066726f6d20746865207a65726f206164646044820152637265737360e01b606482015260840162000dd7565b6001600160a01b038216620031255760405162461bcd60e51b815260206004820152602260248201527f45524332303a20617070726f766520746f20746865207a65726f206164647265604482015261737360f01b606482015260840162000dd7565b6001600160a01b0383811660008181526034602090815260408083209487168084529482529182902085905590518481527f8c5be1e5ebec7d5bd14f71427d1e84f3dd0314c0f7b2291e5b200ac8c7c3b925910160405180910390a3505050565b6101625460ff161562001b5d5760405162461bcd60e51b815260206004820152601060248201526f14185d5cd8589b194e881c185d5cd95960821b604482015260640162000dd7565b60008061019d544210620031f8576101945460ff16156200191a57505061019b5461019c549091565b6200320262003c99565b915091509091565b9091565b6001600160a01b03831660009081526101a260209081526040808320546101a390925282205481156200324d576200324a868386848962003e4a565b92505b50509392505050565b60cc546001600160a01b0316331462001b5d5760405162461bcd60e51b815260206004820181905260248201527f4f776e61626c653a2063616c6c6572206973206e6f7420746865206f776e6572604482015260640162000dd7565b60026101305403620033075760405162461bcd60e51b815260206004820152601f60248201527f5265656e7472616e637947756172643a207265656e7472616e742063616c6c00604482015260640162000dd7565b600261013055565b6200331b8382620040b0565b826001600160a01b0316846001600160a01b0316866001600160a01b03167ffbde797d201c681b91056529119e0b02407c7bb96a4a2c75c01fc9667232c8db858560405162003374929190918252602082015260400190565b60405180910390a45050505050565b8061019f546200339491906200525e565b61019f5561019954620033a99082906200525e565b6101995550565b600161013055565b6000620033c6848462002e5f565b90506000198114620034335781811015620034245760405162461bcd60e51b815260206004820152601d60248201527f45524332303a20696e73756666696369656e7420616c6c6f77616e6365000000604482015260640162000dd7565b6200343384848484036200305e565b50505050565b6001600160a01b0383166200349f5760405162461bcd60e51b815260206004820152602560248201527f45524332303a207472616e736665722066726f6d20746865207a65726f206164604482015264647265737360d81b606482015260840162000dd7565b6001600160a01b038216620035035760405162461bcd60e51b815260206004820152602360248201527f45524332303a207472616e7366657220746f20746865207a65726f206164647260448201526265737360e81b606482015260840162000dd7565b6001600160a01b038316600090815260336020526040902054818110156200357d5760405162461bcd60e51b815260206004820152602660248201527f45524332303a207472616e7366657220616d6f756e7420657863656564732062604482015265616c616e636560d01b606482015260840162000dd7565b6001600160a01b0380851660008181526033602052604080822086860390559286168082529083902080548601905591517fddf252ad1be2c89b69c2b068fc378daa952ba7f163c4a11628f55a4df523b3ef90620035de9086815260200190565b60405180910390a362003433565b600080620035f9620031cf565b50905080610197548462001889919062005171565b6000620012067f8b73c3c69bb8fe3d512ecc4cf759cc79239f7b179b0ffacaa9a75d522b39400f6200363f60655490565b6066546040805160208101859052908101839052606081018290524660808201523060a082015260009060c0016040516020818303038152906040528051906020012090509392505050565b61019e546040516303d1689d60e11b8152600481018390526000916001600160a01b0316906307a2d13a906024015b602060405180830381865afa158015620036d8573d6000803e3d6000fd5b505050506040513d601f19601f8201168201806040525081019062000bff9190620050f1565b606060006200370d83620041e8565b905060006200373685604051806040016040528060018152602001602d60f81b81525062004330565b90506200205c620037636040518060400160405280600381526020016250542d60e81b8152508362004330565b8362004330565b600054610100900460ff16620037945760405162461bcd60e51b815260040162000dd790620054b5565b620037a082826200435e565b5050565b600054610100900460ff16620037ce5760405162461bcd60e51b815260040162000dd790620054b5565b62001bda81604051806040016040528060018152602001603160f81b815250620043b3565b600054610100900460ff166200381d5760405162461bcd60e51b815260040162000dd790620054b5565b62001b5d620043f7565b600054610100900460ff16620038515760405162461bcd60e51b815260040162000dd790620054b5565b62001b5d6200442c565b600054610100900460ff16620038855760405162461bcd60e51b815260040162000dd790620054b5565b62001b5d62004463565b606060006200389e83620041e8565b90506000620038c785604051806040016040528060018152602001602d60f81b81525062004330565b90506200205c620037636040518060400160405280600381526020016250542d60e81b81525062003912604051806040016040528060018152602001607960f81b8152508562004330565b62004330565b6000808263077f224a60e01b8686306040516024016200393b9392919062005500565b60408051601f198184030181529181526020820180516001600160e01b03166001600160e01b03199094169390931790925290516200397a9062004ba8565b6200398792919062005542565b604051809103906000f080158015620039a4573d6000803e3d6000fd5b506040519091506001600160a01b038216907f10aa3cadb8a18de745ab06d0fba238e60656c418d78284b27ab6ea75b7b789e490600090a2949350505050565b6040516001600160a01b0380851660248301528316604482015260648101829052620034339085906323b872dd60e01b906084015b60408051601f198184030181529190526020810180516001600160e01b03166001600160e01b0319909316929092179091526200448d565b604051636eb1769f60e11b81523060048201526001600160a01b038381166024830152600091839186169063dd62ed3e90604401602060405180830381865afa15801562003aa3573d6000803e3d6000fd5b505050506040513d601f19601f8201168201806040525081019062003ac99190620050f1565b62003ad591906200525e565b6040516001600160a01b0385166024820152604481018290529091506200343390859063095ea7b360e01b9060640162003a19565b600062003b178262002f50565b50600062003b25846200123f565b905062003b3281620010ae565b610194549092506201000090046001600160a01b0316330362003b635762003b5d3333838562004566565b62003b71565b62003b713384838562004566565b610196546040516340c10f1960e01b81526001600160a01b03858116600483015260248201859052909116906340c10f1990604401600060405180830381600087803b15801562003bc157600080fd5b505af115801562003bd6573d6000803e3d6000fd5b505050505092915050565b60fe80546001600160a01b031916905562001bda81620045cf565b6000821562003c32578162003c1360018562005157565b62003c1f9190620051a9565b62003c2c9060016200525e565b620010a7565b50600092915050565b62003c4562003186565b610162805460ff191660011790557f62e78cea01bee320cd4e420270b5ea74000d11b0c9f74754ebdbfc544b05a25862003c7c3390565b6040516001600160a01b03909116815260200160405180910390a1565b600080600062003cac610197546200123f565b9050600061019c54821062003cc55761019b5462003ce6565b61019c548261019b5462003cda919062005171565b62003ce69190620051a9565b9491935090915050565b61019e546040516363737ac960e11b8152600481018390526000916001600160a01b03169063c6e6f59290602401620036ba565b6001600160a01b03811660009081526099602052604090208054600181018255905b50919050565b600062000bff62003d5c6200360e565b8360405161190160f01b6020820152602281018390526042810182905260009060620160405160208183030381529060405280519060200120905092915050565b600080600062003db08787878762004621565b9150915062003dbf81620046ea565b5095945050505050565b62003dd362004847565b610162805460ff191690557f5db9ee0a495bf2e6ff9c91a7834c1ba4fdd244a5e8aa4e537bd38aeae4b073aa3362003c7c565b60008062003e13620031cf565b61019d54919350915042116200320a5761019c54811462003e355761019c8190555b61019b5482146200320a5761019b8290559091565b6001600160a01b0385811660008181526101a46020526040808220546101965491516305ea542b60e21b8152600481019490945291938493849392849216906317a950ac90602401602060405180830381865afa15801562003eb0573d6000803e3d6000fd5b505050506040513d601f19601f8201168201806040525081019062003ed69190620050f1565b9050600062003ef162003eea838a62001876565b8b62001895565b9050868814801562003f0257508989145b1562003f165782955050505050506200205c565b868814801562003f2557508989115b1562003f5c5762003f468162003f3c8c8c62005157565b6101985462004893565b945062003f54858a62001895565b935062004095565b86881115620040255789891062003fa35762003f7e8162003f3c8c8c62005157565b62003f8f8362003f3c8a8c62005157565b62003f9b91906200525e565b945062004019565b600062003fb68362003f3c8a8c62005157565b9050600062003fe062003fca8c8e62005157565b62003fd6908562005171565b6101985462003bfc565b905081811162003ffc5762003ff6818362005157565b62003fff565b60005b96506064871062004011578662004014565b60005b965050505b62003f54858a62001895565b6040516320383cfd60e21b815260206004820152603860248201527f5054207261746520696e63726561736564206f72206e6f20505420646570656760448201527f2062757420494254207261746520646563726561736564210000000000000000606482015260840162000dd7565b620040a184846200525e565b9b9a5050505050505050505050565b6001600160a01b038216620041125760405162461bcd60e51b815260206004820152602160248201527f45524332303a206275726e2066726f6d20746865207a65726f206164647265736044820152607360f81b606482015260840162000dd7565b6001600160a01b03821660009081526033602052604090205481811015620041885760405162461bcd60e51b815260206004820152602260248201527f45524332303a206275726e20616d6f756e7420657863656564732062616c616e604482015261636560f01b606482015260840162000dd7565b6001600160a01b03831660008181526033602090815260408083208686039055603580548790039055518581529192917fddf252ad1be2c89b69c2b068fc378daa952ba7f163c4a11628f55a4df523b3ef910160405180910390a3505050565b606081600003620042105750506040805180820190915260018152600360fc1b602082015290565b8160005b8115620042405780620042278162005568565b9150620042389050600a83620051a9565b915062004214565b60008167ffffffffffffffff8111156200425e576200425e62004dfb565b6040519080825280601f01601f19166020018201604052801562004289576020820181803683370190505b509050815b85156200432757620042a260018262005157565b90506000620042b3600a88620051a9565b620042c090600a62005171565b620042cc908862005157565b620042d990603062005584565b905060008160f81b905080848481518110620042f957620042f9620055ac565b60200101906001600160f81b031916908160001a9053506200431d600a89620051a9565b975050506200428e565b50949350505050565b6060828260405160200162004347929190620055c2565b604051602081830303815290604052905092915050565b600054610100900460ff16620043885760405162461bcd60e51b815260040162000dd790620054b5565b81516200439d90603690602085019062004bb6565b508051620019d190603790602084019062004bb6565b600054610100900460ff16620043dd5760405162461bcd60e51b815260040162000dd790620054b5565b815160209283012081519190920120606591909155606655565b600054610100900460ff16620044215760405162461bcd60e51b815260040162000dd790620054b5565b62001b5d3362003be1565b600054610100900460ff16620044565760405162461bcd60e51b815260040162000dd790620054b5565b610162805460ff19169055565b600054610100900460ff16620033b05760405162461bcd60e51b815260040162000dd790620054b5565b6000620044e4826040518060400160405280602081526020017f5361666545524332303a206c6f772d6c6576656c2063616c6c206661696c6564815250856001600160a01b0316620049489092919063ffffffff16565b805190915015620019d15780806020019051810190620045059190620055f5565b620019d15760405162461bcd60e51b815260206004820152602a60248201527f5361666545524332303a204552433230206f7065726174696f6e20646964206e6044820152691bdd081cdd58d8d9595960b21b606482015260840162000dd7565b62004572838262004959565b826001600160a01b0316846001600160a01b03167fdcbc1c05240f31ff3ad067ef1ee35ce4997762752e3a095284754544f4c709d78484604051620045c1929190918252602082015260400190565b60405180910390a350505050565b60cc80546001600160a01b038381166001600160a01b0319831681179093556040519116919082907f8be0079c531659141344cd1fd0a4f28419497f9722a3daafe3b4186f6b6457e090600090a35050565b6000807f7fffffffffffffffffffffffffffffff5d576e7357a4501ddfe92f46681b20a08311156200465a5750600090506003620046e1565b6040805160008082526020820180845289905260ff881692820192909252606081018690526080810185905260019060a0016020604051602081039080840390855afa158015620046af573d6000803e3d6000fd5b5050604051601f1901519150506001600160a01b038116620046da57600060019250925050620046e1565b9150600090505b94509492505050565b600081600481111562004701576200470162005619565b036200470a5750565b600181600481111562004721576200472162005619565b03620047705760405162461bcd60e51b815260206004820152601860248201527f45434453413a20696e76616c6964207369676e61747572650000000000000000604482015260640162000dd7565b600281600481111562004787576200478762005619565b03620047d65760405162461bcd60e51b815260206004820152601f60248201527f45434453413a20696e76616c6964207369676e6174757265206c656e67746800604482015260640162000dd7565b6003816004811115620047ed57620047ed62005619565b0362001bda5760405162461bcd60e51b815260206004820152602260248201527f45434453413a20696e76616c6964207369676e6174757265202773272076616c604482015261756560f01b606482015260840162000dd7565b6101625460ff1662001b5d5760405162461bcd60e51b815260206004820152601460248201527314185d5cd8589b194e881b9bdd081c185d5cd95960621b604482015260640162000dd7565b6000808060001985870985870292508281108382030391505080600003620048d257838281620048c757620048c762005193565b0492505050620010a7565b808411620048df57600080fd5b60008486880960026001871981018816978890046003810283188082028403028082028403028082028403028082028403028082028403029081029092039091026000889003889004909101858311909403939093029303949094049190911702949350505050565b60606200112b848460008562004a1e565b6001600160a01b038216620049b15760405162461bcd60e51b815260206004820152601f60248201527f45524332303a206d696e7420746f20746865207a65726f206164647265737300604482015260640162000dd7565b8060356000828254620049c591906200525e565b90915550506001600160a01b0382166000818152603360209081526040808320805486019055518481527fddf252ad1be2c89b69c2b068fc378daa952ba7f163c4a11628f55a4df523b3ef910160405180910390a35050565b60608247101562004a815760405162461bcd60e51b815260206004820152602660248201527f416464726573733a20696e73756666696369656e742062616c616e636520666f6044820152651c8818d85b1b60d21b606482015260840162000dd7565b600080866001600160a01b0316858760405162004a9f91906200562f565b60006040518083038185875af1925050503d806000811462004ade576040519150601f19603f3d011682016040523d82523d6000602084013e62004ae3565b606091505b509150915062004af68783838762004b01565b979650505050505050565b6060831562004b7557825160000362004b6d576001600160a01b0385163b62004b6d5760405162461bcd60e51b815260206004820152601d60248201527f416464726573733a2063616c6c20746f206e6f6e2d636f6e7472616374000000604482015260640162000dd7565b50816200112b565b6200112b838381511562004b8c5781518083602001fd5b8060405162461bcd60e51b815260040162000dd7919062004cb9565b610914806200564e83390190565b82805462004bc4906200510b565b90600052602060002090601f01602090048101928262004be8576000855562004c33565b82601f1062004c0357805160ff191683800117855562004c33565b8280016001018555821562004c33579182015b8281111562004c3357825182559160200191906001019062004c16565b5062004c4192915062004c45565b5090565b5b8082111562004c41576000815560010162004c46565b60005b8381101562004c7957818101518382015260200162004c5f565b83811115620034335750506000910152565b6000815180845262004ca581602086016020860162004c5c565b601f01601f19169290920160200192915050565b602081526000620010a7602083018462004c8b565b60006020828403121562004ce157600080fd5b5035919050565b6001600160a01b038116811462001bda57600080fd5b6000806040838503121562004d1257600080fd5b823562004d1f8162004ce8565b946020939093013593505050565b6000806040838503121562004d4157600080fd5b823562004d4e8162004ce8565b9150602083013562004d608162004ce8565b809150509250929050565b60008060006060848603121562004d8157600080fd5b833562004d8e8162004ce8565b9250602084013562004da08162004ce8565b929592945050506040919091013590565b60008060006060848603121562004dc757600080fd5b83359250602084013562004da08162004ce8565b60006020828403121562004dee57600080fd5b8135620010a78162004ce8565b634e487b7160e01b600052604160045260246000fd5b604051601f8201601f1916810167ffffffffffffffff8111828210171562004e3d5762004e3d62004dfb565b604052919050565b600067ffffffffffffffff82111562004e625762004e6262004dfb565b50601f01601f191660200190565b600082601f83011262004e8257600080fd5b813562004e9962004e938262004e45565b62004e11565b81815284602083860101111562004eaf57600080fd5b816020850160208301376000918101602001919091529392505050565b600080600080600080600060e0888a03121562004ee857600080fd5b873567ffffffffffffffff8082111562004f0157600080fd5b62004f0f8b838c0162004e70565b985060208a013591508082111562004f2657600080fd5b5062004f358a828b0162004e70565b965050604088013562004f488162004ce8565b9450606088013593506080880135925060a088013562004f688162004ce8565b915060c088013562004f7a8162004ce8565b8091505092959891949750929550565b6000806040838503121562004f9e57600080fd5b50508035926020909101359150565b6000806040838503121562004fc157600080fd5b82359150602083013562004d608162004ce8565b6000806000806080858703121562004fec57600080fd5b843593506020850135620050008162004ce8565b92506040850135620050128162004ce8565b9396929550929360600135925050565b6000806000606084860312156200503857600080fd5b8335925060208401356200504c8162004ce8565b915060408401356200505e8162004ce8565b809150509250925092565b60ff8116811462001bda57600080fd5b600080600080600080600060e0888a0312156200509557600080fd5b8735620050a28162004ce8565b96506020880135620050b48162004ce8565b955060408801359450606088013593506080880135620050d48162005069565b9699959850939692959460a0840135945060c09093013592915050565b6000602082840312156200510457600080fd5b5051919050565b600181811c908216806200512057607f821691505b60208210810362003d4657634e487b7160e01b600052602260045260246000fd5b634e487b7160e01b600052601160045260246000fd5b6000828210156200516c576200516c62005141565b500390565b60008160001904831182151516156200518e576200518e62005141565b500290565b634e487b7160e01b600052601260045260246000fd5b600082620051c757634e487b7160e01b600052601260045260246000fd5b500490565b600060208284031215620051df57600080fd5b8151620010a78162004ce8565b60208082526014908201527343616c6c6564206265666f72652065787069727960601b604082015260600190565b60208082526024908201527f43616c6c65722073686f756c6420626520746865206f776e6572206f662073686040820152636172657360e01b606082015260800190565b6000821982111562005274576200527462005141565b500190565b9283526001600160a01b03918216602084015216604082015260600190565b600060208284031215620052ab57600080fd5b8151620010a78162005069565b600060208284031215620052cb57600080fd5b815167ffffffffffffffff811115620052e357600080fd5b8201601f81018413620052f557600080fd5b80516200530662004e938262004e45565b8181528560208385010111156200531c57600080fd5b6200205c82602083016020860162004c5c565b600181815b808511156200537057816000190482111562005354576200535462005141565b808516156200536257918102915b93841c939080029062005334565b509250929050565b600082620053895750600162000bff565b81620053985750600062000bff565b8160018114620053b15760028114620053bc57620053dc565b600191505062000bff565b60ff841115620053d057620053d062005141565b50506001821b62000bff565b5060208310610133831016604e8410600b841016171562005401575081810a62000bff565b6200540d83836200532f565b806000190482111562005424576200542462005141565b029392505050565b6000620010a760ff84168362005378565b60208082526021908201527f4d617820666565732073686f756c64206265206c657373207468616e203130306040820152602560f81b606082015260800190565b60208082526017908201527f5072696e636970616c20546f6b656e2065787069726564000000000000000000604082015260600190565b6020808252602b908201527f496e697469616c697a61626c653a20636f6e7472616374206973206e6f74206960408201526a6e697469616c697a696e6760a81b606082015260800190565b60608152600062005515606083018662004c8b565b828103602084015262005529818662004c8b565b91505060018060a01b0383166040830152949350505050565b6001600160a01b03831681526040602082018190526000906200112b9083018462004c8b565b6000600182016200557d576200557d62005141565b5060010190565b600060ff821660ff84168060ff03821115620055a457620055a462005141565b019392505050565b634e487b7160e01b600052603260045260246000fd5b60008351620055d681846020880162004c5c565b835190830190620055ec81836020880162004c5c565b01949350505050565b6000602082840312156200560857600080fd5b81518015158114620010a757600080fd5b634e487b7160e01b600052602160045260246000fd5b600082516200564381846020870162004c5c565b919091019291505056fe608060405260405161091438038061091483398101604081905261002291610463565b61002e82826000610035565b505061058d565b61003e83610100565b6040516001600160a01b038416907f1cf3b03a6cf19fa2baba4df148e9dcabedea7f8a5c07840e207e5c089be95d3e90600090a260008251118061007f5750805b156100fb576100f9836001600160a01b0316635c60da1b6040518163ffffffff1660e01b8152600401602060405180830381865afa1580156100c5573d6000803e3d6000fd5b505050506040513d601f19601f820116820180604052508101906100e99190610523565b836102a360201b6100291760201c565b505b505050565b610113816102cf60201b6100551760201c565b6101725760405162461bcd60e51b815260206004820152602560248201527f455243313936373a206e657720626561636f6e206973206e6f74206120636f6e6044820152641d1c9858dd60da1b60648201526084015b60405180910390fd5b6101e6816001600160a01b0316635c60da1b6040518163ffffffff1660e01b8152600401602060405180830381865afa1580156101b3573d6000803e3d6000fd5b505050506040513d601f19601f820116820180604052508101906101d79190610523565b6102cf60201b6100551760201c565b61024b5760405162461bcd60e51b815260206004820152603060248201527f455243313936373a20626561636f6e20696d706c656d656e746174696f6e206960448201526f1cc81b9bdd08184818dbdb9d1c9858dd60821b6064820152608401610169565b806102827fa3f0ad74e5423aebfd80d3ef4346578335a9a72aeaee59ff6cb3582b35133d5060001b6102de60201b6100641760201c565b80546001600160a01b0319166001600160a01b039290921691909117905550565b60606102c883836040518060600160405280602781526020016108ed602791396102e1565b9392505050565b6001600160a01b03163b151590565b90565b6060600080856001600160a01b0316856040516102fe919061053e565b600060405180830381855af49150503d8060008114610339576040519150601f19603f3d011682016040523d82523d6000602084013e61033e565b606091505b5090925090506103508683838761035a565b9695505050505050565b606083156103c95782516000036103c2576001600160a01b0385163b6103c25760405162461bcd60e51b815260206004820152601d60248201527f416464726573733a2063616c6c20746f206e6f6e2d636f6e74726163740000006044820152606401610169565b50816103d3565b6103d383836103db565b949350505050565b8151156103eb5781518083602001fd5b8060405162461bcd60e51b8152600401610169919061055a565b80516001600160a01b038116811461041c57600080fd5b919050565b634e487b7160e01b600052604160045260246000fd5b60005b8381101561045257818101518382015260200161043a565b838111156100f95750506000910152565b6000806040838503121561047657600080fd5b61047f83610405565b60208401519092506001600160401b038082111561049c57600080fd5b818501915085601f8301126104b057600080fd5b8151818111156104c2576104c2610421565b604051601f8201601f19908116603f011681019083821181831017156104ea576104ea610421565b8160405282815288602084870101111561050357600080fd5b610514836020830160208801610437565b80955050505050509250929050565b60006020828403121561053557600080fd5b6102c882610405565b60008251610550818460208701610437565b9190910192915050565b6020815260008251806020840152610579816040850160208701610437565b601f01601f19169190910160400192915050565b6103518061059c6000396000f3fe60806040523661001357610011610017565b005b6100115b610027610022610067565b610100565b565b606061004e83836040518060600160405280602781526020016102f560279139610124565b9392505050565b6001600160a01b03163b151590565b90565b600061009a7fa3f0ad74e5423aebfd80d3ef4346578335a9a72aeaee59ff6cb3582b35133d50546001600160a01b031690565b6001600160a01b0316635c60da1b6040518163ffffffff1660e01b8152600401602060405180830381865afa1580156100d7573d6000803e3d6000fd5b505050506040513d601f19601f820116820180604052508101906100fb919061024c565b905090565b3660008037600080366000845af43d6000803e80801561011f573d6000f35b3d6000fd5b6060600080856001600160a01b03168560405161014191906102a5565b600060405180830381855af49150503d806000811461017c576040519150601f19603f3d011682016040523d82523d6000602084013e610181565b606091505b50915091506101928683838761019c565b9695505050505050565b60608315610210578251600003610209576001600160a01b0385163b6102095760405162461bcd60e51b815260206004820152601d60248201527f416464726573733a2063616c6c20746f206e6f6e2d636f6e747261637400000060448201526064015b60405180910390fd5b508161021a565b61021a8383610222565b949350505050565b8151156102325781518083602001fd5b8060405162461bcd60e51b815260040161020091906102c1565b60006020828403121561025e57600080fd5b81516001600160a01b038116811461004e57600080fd5b60005b83811015610290578181015183820152602001610278565b8381111561029f576000848401525b50505050565b600082516102b7818460208701610275565b9190910192915050565b60208152600082518060208401526102e0816040850160208701610275565b601f01601f1916919091016040019291505056fe416464726573733a206c6f772d6c6576656c2064656c65676174652063616c6c206661696c6564a26469706673582212206ea3749d3f44f7b5a93ef58b0fb6c9847a4ee4b69872c58535c03f2899109cf464736f6c634300080d0033416464726573733a206c6f772d6c6576656c2064656c65676174652063616c6c206661696c6564a264697066735822122063b39de6e21cda1c333772d97a9c070aead2ebb7da5133dc562e6f30f2d25f7d64736f6c634300080d0033",
    "linkReferences": {}
  },
  "methodIdentifiers": {
    "DOMAIN_SEPARATOR()": "3644e515",
    "acceptOwnership()": "79ba5097",
    "allowance(address,address)": "dd62ed3e",
    "approve(address,uint256)": "095ea7b3",
    "asset()": "38d52e0f",
    "balanceOf(address)": "70a08231",
    "beforeYtTransfer(address,address)": "4f72ec2f",
    "claimFees()": "d294f093",
    "claimYield()": "406cf229",
    "claimYieldOfAmount(uint256)": "7cafde7f",
    "convertAssetsToIBTWithRate(uint256,uint256)": "47609bd4",
    "convertIBTToAssetsWithRate(uint256,uint256)": "44ba8add",
    "convertToAssets(uint256)": "07a2d13a",
    "convertToAssetsOfIBT(uint256)": "3ca7c82d",
    "convertToAssetsWithRate(uint256,uint256)": "aca505f7",
    "convertToPrincipal(uint256)": "25a8d87d",
    "convertToShares(uint256)": "c6e6f592",
    "convertToSharesOfIBT(uint256)": "b346db0c",
    "convertToSharesWithRate(uint256,uint256)": "75ba1dac",
    "convertToUnderlying(uint256)": "1dc7f521",
    "decimals()": "313ce567",
    "decreaseAllowance(address,uint256)": "a457c2d7",
    "deposit(uint256,address)": "6e553f65",
    "deposit(uint256,address,uint256)": "bc157ac1",
    "depositWithIBT(uint256,address)": "bafc0f14",
    "depositWithIBT(uint256,address,uint256)": "277a04d6",
    "getAssetUnit()": "67936420",
    "getCurrentYieldInIBTOfUser(address)": "b2b84d94",
    "getFeeCollectorAddress()": "bf2d75fb",
    "getIBT()": "c644fe94",
    "getIBTRate()": "efd98dc2",
    "getIBTRateAtExpiry()": "2b930fa3",
    "getIBTUnit()": "1f2b4f24",
    "getMaxProtocolFee()": "03b91a85",
    "getPTRate()": "a1c5b3e1",
    "getPTRateAtExpiry()": "6956df17",
    "getRegistry()": "5ab1bd53",
    "getRegistryAddress()": "f21de1e8",
    "getUnclaimedFeesInIBT()": "714d422b",
    "getYT()": "04aa50ad",
    "getZapDepositor()": "0e5f99c5",
    "getZapDepositorAddress()": "fefd6d49",
    "increaseAllowance(address,uint256)": "39509351",
    "initialize(string,string,address,uint256,uint256,address,address)": "40f5e56b",
    "maturity()": "204f83f9",
    "maxDeposit(address)": "402d267d",
    "maxMint(address)": "c63d75b6",
    "maxRedeem(address)": "d905777e",
    "maxWithdraw(address)": "ce96cb77",
    "mint(uint256,address)": "94bf804d",
    "mint(uint256,address,uint256)": "836a1040",
    "name()": "06fdde03",
    "nonces(address)": "7ecebe00",
    "owner()": "8da5cb5b",
    "pause()": "8456cb59",
    "paused()": "5c975abb",
    "pendingOwner()": "e30c3978",
    "permit(address,address,uint256,uint256,uint8,bytes32,bytes32)": "d505accf",
    "previewDeposit(uint256)": "ef8b30f7",
    "previewMint(uint256)": "b3d7f6b9",
    "previewRedeem(uint256)": "4cdad506",
    "previewWithdraw(uint256)": "0a28a477",
    "redeem(uint256,address,address)": "ba087652",
    "redeem(uint256,address,address,uint256)": "9f40a7b3",
    "renounceOwnership()": "715018a6",
    "setFeeCollector(address)": "a42dce80",
    "setMaxProtocolFee(uint256)": "a6089139",
    "storeRatesAtExpiry()": "a13c91a3",
    "symbol()": "95d89b41",
    "totalAssets()": "01e1d114",
    "totalSupply()": "18160ddd",
    "transfer(address,uint256)": "a9059cbb",
    "transferFrom(address,address,uint256)": "23b872dd",
    "transferOwnership(address)": "f2fde38b",
    "unPause()": "f7b188a5",
    "underlying()": "6f307dc3",
    "updateYield(address)": "f90d63db",
    "updateZapDepositor()": "138695a7",
    "withdraw(uint256,address,address)": "b460af94",
    "withdraw(uint256,address,address,uint256)": "a318c1a4",
    "withdrawAfterExpiry(address,address)": "21b62f96",
    "yieldOfUserInIBT(address)": "2c660fbc"
  },
  "id": 83
}