{
  "abi": [
    {
      "inputs": [
        {
          "internalType": "address",
          "name": "_registry",
          "type": "address"
        }
      ],
      "stateMutability": "nonpayable",
      "type": "constructor"
    },
    {
      "inputs": [
        {
          "internalType": "address",
          "name": "authority",
          "type": "address"
        }
      ],
      "name": "AccessManagedInvalidAuthority",
      "type": "error"
    },
    {
      "inputs": [
        {
          "internalType": "address",
          "name": "caller",
          "type": "address"
        },
        {
          "internalType": "uint32",
          "name": "delay",
          "type": "uint32"
        }
      ],
      "name": "AccessManagedRequiredDelay",
      "type": "error"
    },
    {
      "inputs": [
        {
          "internalType": "address",
          "name": "caller",
          "type": "address"
        }
      ],
      "name": "AccessManagedUnauthorized",
      "type": "error"
    },
    {
      "inputs": [
        {
          "internalType": "address",
          "name": "target",
          "type": "address"
        }
      ],
      "name": "AddressEmptyCode",
      "type": "error"
    },
    {
      "inputs": [],
      "name": "AddressError",
      "type": "error"
    },
    {
      "inputs": [
        {
          "internalType": "address",
          "name": "account",
          "type": "address"
        }
      ],
      "name": "AddressInsufficientBalance",
      "type": "error"
    },
    {
      "inputs": [],
      "name": "BeaconNotSet",
      "type": "error"
    },
    {
      "inputs": [],
      "name": "ECDSAInvalidSignature",
      "type": "error"
    },
    {
      "inputs": [
        {
          "internalType": "uint256",
          "name": "length",
          "type": "uint256"
        }
      ],
      "name": "ECDSAInvalidSignatureLength",
      "type": "error"
    },
    {
      "inputs": [
        {
          "internalType": "bytes32",
          "name": "s",
          "type": "bytes32"
        }
      ],
      "name": "ECDSAInvalidSignatureS",
      "type": "error"
    },
    {
      "inputs": [
        {
          "internalType": "address",
          "name": "spender",
          "type": "address"
        },
        {
          "internalType": "uint256",
          "name": "allowance",
          "type": "uint256"
        },
        {
          "internalType": "uint256",
          "name": "needed",
          "type": "uint256"
        }
      ],
      "name": "ERC20InsufficientAllowance",
      "type": "error"
    },
    {
      "inputs": [
        {
          "internalType": "address",
          "name": "sender",
          "type": "address"
        },
        {
          "internalType": "uint256",
          "name": "balance",
          "type": "uint256"
        },
        {
          "internalType": "uint256",
          "name": "needed",
          "type": "uint256"
        }
      ],
      "name": "ERC20InsufficientBalance",
      "type": "error"
    },
    {
      "inputs": [
        {
          "internalType": "address",
          "name": "approver",
          "type": "address"
        }
      ],
      "name": "ERC20InvalidApprover",
      "type": "error"
    },
    {
      "inputs": [
        {
          "internalType": "address",
          "name": "receiver",
          "type": "address"
        }
      ],
      "name": "ERC20InvalidReceiver",
      "type": "error"
    },
    {
      "inputs": [
        {
          "internalType": "address",
          "name": "sender",
          "type": "address"
        }
      ],
      "name": "ERC20InvalidSender",
      "type": "error"
    },
    {
      "inputs": [
        {
          "internalType": "address",
          "name": "spender",
          "type": "address"
        }
      ],
      "name": "ERC20InvalidSpender",
      "type": "error"
    },
    {
      "inputs": [
        {
          "internalType": "uint256",
          "name": "deadline",
          "type": "uint256"
        }
      ],
      "name": "ERC2612ExpiredSignature",
      "type": "error"
    },
    {
      "inputs": [
        {
          "internalType": "address",
          "name": "signer",
          "type": "address"
        },
        {
          "internalType": "address",
          "name": "owner",
          "type": "address"
        }
      ],
      "name": "ERC2612InvalidSigner",
      "type": "error"
    },
    {
      "inputs": [],
      "name": "ERC5143SlippageProtectionFailed",
      "type": "error"
    },
    {
      "inputs": [],
      "name": "EnforcedPause",
      "type": "error"
    },
    {
      "inputs": [],
      "name": "ExpectedPause",
      "type": "error"
    },
    {
      "inputs": [],
      "name": "FailedInnerCall",
      "type": "error"
    },
    {
      "inputs": [],
      "name": "FlashLoanCallbackFailed",
      "type": "error"
    },
    {
      "inputs": [],
      "name": "FlashLoanExceedsMaxAmount",
      "type": "error"
    },
    {
      "inputs": [
        {
          "internalType": "address",
          "name": "account",
          "type": "address"
        },
        {
          "internalType": "uint256",
          "name": "currentNonce",
          "type": "uint256"
        }
      ],
      "name": "InvalidAccountNonce",
      "type": "error"
    },
    {
      "inputs": [],
      "name": "InvalidAssetDecimals",
      "type": "error"
    },
    {
      "inputs": [],
      "name": "InvalidIBTDecimals",
      "type": "error"
    },
    {
      "inputs": [],
      "name": "InvalidInitialization",
      "type": "error"
    },
    {
      "inputs": [],
      "name": "MathOverflowedMulDiv",
      "type": "error"
    },
    {
      "inputs": [],
      "name": "NotInitializing",
      "type": "error"
    },
    {
      "inputs": [],
      "name": "PTExpired",
      "type": "error"
    },
    {
      "inputs": [],
      "name": "PTNotExpired",
      "type": "error"
    },
    {
      "inputs": [],
      "name": "PTRateError",
      "type": "error"
    },
    {
      "inputs": [],
      "name": "PTRateError",
      "type": "error"
    },
    {
      "inputs": [],
      "name": "RatesAtExpiryAlreadyStored",
      "type": "error"
    },
    {
      "inputs": [],
      "name": "RatesAtExpiryNotStored",
      "type": "error"
    },
    {
      "inputs": [],
      "name": "ReentrancyGuardReentrantCall",
      "type": "error"
    },
    {
      "inputs": [
        {
          "internalType": "address",
          "name": "token",
          "type": "address"
        }
      ],
      "name": "SafeERC20FailedOperation",
      "type": "error"
    },
    {
      "inputs": [],
      "name": "TransferValueExceedsYieldBalance",
      "type": "error"
    },
    {
      "inputs": [],
      "name": "UnsufficientBalance",
      "type": "error"
    },
    {
      "inputs": [],
      "name": "WrongCaller",
      "type": "error"
    },
    {
      "anonymous": false,
      "inputs": [
        {
          "indexed": true,
          "internalType": "address",
          "name": "owner",
          "type": "address"
        },
        {
          "indexed": true,
          "internalType": "address",
          "name": "spender",
          "type": "address"
        },
        {
          "indexed": false,
          "internalType": "uint256",
          "name": "value",
          "type": "uint256"
        }
      ],
      "name": "Approval",
      "type": "event"
    },
    {
      "anonymous": false,
      "inputs": [
        {
          "indexed": false,
          "internalType": "address",
          "name": "authority",
          "type": "address"
        }
      ],
      "name": "AuthorityUpdated",
      "type": "event"
    },
    {
      "anonymous": false,
      "inputs": [
        {
          "indexed": true,
          "internalType": "address",
          "name": "sender",
          "type": "address"
        },
        {
          "indexed": true,
          "internalType": "address",
          "name": "owner",
          "type": "address"
        },
        {
          "indexed": false,
          "internalType": "uint256",
          "name": "assets",
          "type": "uint256"
        },
        {
          "indexed": false,
          "internalType": "uint256",
          "name": "shares",
          "type": "uint256"
        }
      ],
      "name": "Deposit",
      "type": "event"
    },
    {
      "anonymous": false,
      "inputs": [],
      "name": "EIP712DomainChanged",
      "type": "event"
    },
    {
      "anonymous": false,
      "inputs": [
        {
          "indexed": true,
          "internalType": "address",
          "name": "_feeCollector",
          "type": "address"
        },
        {
          "indexed": false,
          "internalType": "uint256",
          "name": "_feesInIBT",
          "type": "uint256"
        }
      ],
      "name": "FeeClaimed",
      "type": "event"
    },
    {
      "anonymous": false,
      "inputs": [
        {
          "indexed": false,
          "internalType": "uint64",
          "name": "version",
          "type": "uint64"
        }
      ],
      "name": "Initialized",
      "type": "event"
    },
    {
      "anonymous": false,
      "inputs": [
        {
          "indexed": false,
          "internalType": "address",
          "name": "account",
          "type": "address"
        }
      ],
      "name": "Paused",
      "type": "event"
    },
    {
      "anonymous": false,
      "inputs": [
        {
          "indexed": true,
          "internalType": "uint256",
          "name": "_ibtRate",
          "type": "uint256"
        },
        {
          "indexed": true,
          "internalType": "uint256",
          "name": "_ptRate",
          "type": "uint256"
        }
      ],
      "name": "RatesStoredAtExpiry",
      "type": "event"
    },
    {
      "anonymous": false,
      "inputs": [
        {
          "indexed": true,
          "internalType": "address",
          "name": "from",
          "type": "address"
        },
        {
          "indexed": true,
          "internalType": "address",
          "name": "to",
          "type": "address"
        },
        {
          "indexed": false,
          "internalType": "uint256",
          "name": "assets",
          "type": "uint256"
        }
      ],
      "name": "Redeem",
      "type": "event"
    },
    {
      "anonymous": false,
      "inputs": [
        {
          "indexed": true,
          "internalType": "address",
          "name": "from",
          "type": "address"
        },
        {
          "indexed": true,
          "internalType": "address",
          "name": "to",
          "type": "address"
        },
        {
          "indexed": false,
          "internalType": "uint256",
          "name": "value",
          "type": "uint256"
        }
      ],
      "name": "Transfer",
      "type": "event"
    },
    {
      "anonymous": false,
      "inputs": [
        {
          "indexed": false,
          "internalType": "address",
          "name": "account",
          "type": "address"
        }
      ],
      "name": "Unpaused",
      "type": "event"
    },
    {
      "anonymous": false,
      "inputs": [
        {
          "indexed": true,
          "internalType": "address",
          "name": "sender",
          "type": "address"
        },
        {
          "indexed": true,
          "internalType": "address",
          "name": "receiver",
          "type": "address"
        },
        {
          "indexed": true,
          "internalType": "address",
          "name": "owner",
          "type": "address"
        },
        {
          "indexed": false,
          "internalType": "uint256",
          "name": "assets",
          "type": "uint256"
        },
        {
          "indexed": false,
          "internalType": "uint256",
          "name": "shares",
          "type": "uint256"
        }
      ],
      "name": "Withdraw",
      "type": "event"
    },
    {
      "anonymous": false,
      "inputs": [
        {
          "indexed": true,
          "internalType": "address",
          "name": "yt",
          "type": "address"
        }
      ],
      "name": "YTDeployed",
      "type": "event"
    },
    {
      "anonymous": false,
      "inputs": [
        {
          "indexed": true,
          "internalType": "address",
          "name": "owner",
          "type": "address"
        },
        {
          "indexed": true,
          "internalType": "address",
          "name": "receiver",
          "type": "address"
        },
        {
          "indexed": false,
          "internalType": "uint256",
          "name": "yieldInAsset",
          "type": "uint256"
        }
      ],
      "name": "YieldClaimed",
      "type": "event"
    },
    {
      "anonymous": false,
      "inputs": [
        {
          "indexed": true,
          "internalType": "address",
          "name": "user",
          "type": "address"
        },
        {
          "indexed": true,
          "internalType": "uint256",
          "name": "yield",
          "type": "uint256"
        }
      ],
      "name": "YieldUpdated",
      "type": "event"
    },
    {
      "inputs": [],
      "name": "DOMAIN_SEPARATOR",
      "outputs": [
        {
          "internalType": "bytes32",
          "name": "",
          "type": "bytes32"
        }
      ],
      "stateMutability": "view",
      "type": "function"
    },
    {
      "inputs": [
        {
          "internalType": "address",
          "name": "owner",
          "type": "address"
        },
        {
          "internalType": "address",
          "name": "spender",
          "type": "address"
        }
      ],
      "name": "allowance",
      "outputs": [
        {
          "internalType": "uint256",
          "name": "",
          "type": "uint256"
        }
      ],
      "stateMutability": "view",
      "type": "function"
    },
    {
      "inputs": [
        {
          "internalType": "address",
          "name": "spender",
          "type": "address"
        },
        {
          "internalType": "uint256",
          "name": "value",
          "type": "uint256"
        }
      ],
      "name": "approve",
      "outputs": [
        {
          "internalType": "bool",
          "name": "",
          "type": "bool"
        }
      ],
      "stateMutability": "nonpayable",
      "type": "function"
    },
    {
      "inputs": [],
      "name": "asset",
      "outputs": [
        {
          "internalType": "address",
          "name": "",
          "type": "address"
        }
      ],
      "stateMutability": "view",
      "type": "function"
    },
    {
      "inputs": [],
      "name": "authority",
      "outputs": [
        {
          "internalType": "address",
          "name": "",
          "type": "address"
        }
      ],
      "stateMutability": "view",
      "type": "function"
    },
    {
      "inputs": [
        {
          "internalType": "address",
          "name": "account",
          "type": "address"
        }
      ],
      "name": "balanceOf",
      "outputs": [
        {
          "internalType": "uint256",
          "name": "",
          "type": "uint256"
        }
      ],
      "stateMutability": "view",
      "type": "function"
    },
    {
      "inputs": [
        {
          "internalType": "address",
          "name": "_from",
          "type": "address"
        },
        {
          "internalType": "address",
          "name": "_to",
          "type": "address"
        }
      ],
      "name": "beforeYtTransfer",
      "outputs": [],
      "stateMutability": "nonpayable",
      "type": "function"
    },
    {
      "inputs": [],
      "name": "claimFees",
      "outputs": [
        {
          "internalType": "uint256",
          "name": "assets",
          "type": "uint256"
        }
      ],
      "stateMutability": "nonpayable",
      "type": "function"
    },
    {
      "inputs": [],
      "name": "claimYield",
      "outputs": [
        {
          "internalType": "uint256",
          "name": "",
          "type": "uint256"
        }
      ],
      "stateMutability": "nonpayable",
      "type": "function"
    },
    {
      "inputs": [
        {
          "internalType": "uint256",
          "name": "_amount",
          "type": "uint256"
        }
      ],
      "name": "claimYieldOfYTAmount",
      "outputs": [
        {
          "internalType": "uint256",
          "name": "yieldToTransferInAsset",
          "type": "uint256"
        }
      ],
      "stateMutability": "nonpayable",
      "type": "function"
    },
    {
      "inputs": [
        {
          "internalType": "uint256",
          "name": "shares",
          "type": "uint256"
        }
      ],
      "name": "convertToAssets",
      "outputs": [
        {
          "internalType": "uint256",
          "name": "assets",
          "type": "uint256"
        }
      ],
      "stateMutability": "view",
      "type": "function"
    },
    {
      "inputs": [
        {
          "internalType": "uint256",
          "name": "ibts",
          "type": "uint256"
        }
      ],
      "name": "convertToAssetsOfIBT",
      "outputs": [
        {
          "internalType": "uint256",
          "name": "",
          "type": "uint256"
        }
      ],
      "stateMutability": "view",
      "type": "function"
    },
    {
      "inputs": [
        {
          "internalType": "uint256",
          "name": "shares",
          "type": "uint256"
        },
        {
          "internalType": "uint256",
          "name": "rate",
          "type": "uint256"
        }
      ],
      "name": "convertToAssetsWithRate",
      "outputs": [
        {
          "internalType": "uint256",
          "name": "assets",
          "type": "uint256"
        }
      ],
      "stateMutability": "view",
      "type": "function"
    },
    {
      "inputs": [
        {
          "internalType": "uint256",
          "name": "underlyingAmount",
          "type": "uint256"
        }
      ],
      "name": "convertToPrincipal",
      "outputs": [
        {
          "internalType": "uint256",
          "name": "",
          "type": "uint256"
        }
      ],
      "stateMutability": "view",
      "type": "function"
    },
    {
      "inputs": [
        {
          "internalType": "uint256",
          "name": "assets",
          "type": "uint256"
        }
      ],
      "name": "convertToShares",
      "outputs": [
        {
          "internalType": "uint256",
          "name": "shares",
          "type": "uint256"
        }
      ],
      "stateMutability": "view",
      "type": "function"
    },
    {
      "inputs": [
        {
          "internalType": "uint256",
          "name": "assets",
          "type": "uint256"
        }
      ],
      "name": "convertToSharesOfIBT",
      "outputs": [
        {
          "internalType": "uint256",
          "name": "",
          "type": "uint256"
        }
      ],
      "stateMutability": "view",
      "type": "function"
    },
    {
      "inputs": [
        {
          "internalType": "uint256",
          "name": "assets",
          "type": "uint256"
        },
        {
          "internalType": "uint256",
          "name": "rate",
          "type": "uint256"
        }
      ],
      "name": "convertToSharesWithRate",
      "outputs": [
        {
          "internalType": "uint256",
          "name": "shares",
          "type": "uint256"
        }
      ],
      "stateMutability": "view",
      "type": "function"
    },
    {
      "inputs": [
        {
          "internalType": "uint256",
          "name": "principalAmount",
          "type": "uint256"
        }
      ],
      "name": "convertToUnderlying",
      "outputs": [
        {
          "internalType": "uint256",
          "name": "",
          "type": "uint256"
        }
      ],
      "stateMutability": "view",
      "type": "function"
    },
    {
      "inputs": [],
      "name": "decimals",
      "outputs": [
        {
          "internalType": "uint8",
          "name": "",
          "type": "uint8"
        }
      ],
      "stateMutability": "view",
      "type": "function"
    },
    {
      "inputs": [
        {
          "internalType": "uint256",
          "name": "assets",
          "type": "uint256"
        },
        {
          "internalType": "address",
          "name": "ptReceiver",
          "type": "address"
        },
        {
          "internalType": "address",
          "name": "ytReceiver",
          "type": "address"
        }
      ],
      "name": "deposit",
      "outputs": [
        {
          "internalType": "uint256",
          "name": "shares",
          "type": "uint256"
        }
      ],
      "stateMutability": "nonpayable",
      "type": "function"
    },
    {
      "inputs": [
        {
          "internalType": "uint256",
          "name": "assets",
          "type": "uint256"
        },
        {
          "internalType": "address",
          "name": "receiver",
          "type": "address"
        }
      ],
      "name": "deposit",
      "outputs": [
        {
          "internalType": "uint256",
          "name": "shares",
          "type": "uint256"
        }
      ],
      "stateMutability": "nonpayable",
      "type": "function"
    },
    {
      "inputs": [
        {
          "internalType": "uint256",
          "name": "assets",
          "type": "uint256"
        },
        {
          "internalType": "address",
          "name": "ptReceiver",
          "type": "address"
        },
        {
          "internalType": "address",
          "name": "ytReceiver",
          "type": "address"
        },
        {
          "internalType": "uint256",
          "name": "minShares",
          "type": "uint256"
        }
      ],
      "name": "deposit",
      "outputs": [
        {
          "internalType": "uint256",
          "name": "shares",
          "type": "uint256"
        }
      ],
      "stateMutability": "nonpayable",
      "type": "function"
    },
    {
      "inputs": [
        {
          "internalType": "uint256",
          "name": "ibts",
          "type": "uint256"
        },
        {
          "internalType": "address",
          "name": "ptReceiver",
          "type": "address"
        },
        {
          "internalType": "address",
          "name": "ytReceiver",
          "type": "address"
        }
      ],
      "name": "depositWithIBT",
      "outputs": [
        {
          "internalType": "uint256",
          "name": "shares",
          "type": "uint256"
        }
      ],
      "stateMutability": "nonpayable",
      "type": "function"
    },
    {
      "inputs": [
        {
          "internalType": "uint256",
          "name": "ibts",
          "type": "uint256"
        },
        {
          "internalType": "address",
          "name": "receiver",
          "type": "address"
        }
      ],
      "name": "depositWithIBT",
      "outputs": [
        {
          "internalType": "uint256",
          "name": "shares",
          "type": "uint256"
        }
      ],
      "stateMutability": "nonpayable",
      "type": "function"
    },
    {
      "inputs": [
        {
          "internalType": "uint256",
          "name": "ibts",
          "type": "uint256"
        },
        {
          "internalType": "address",
          "name": "ptReceiver",
          "type": "address"
        },
        {
          "internalType": "address",
          "name": "ytReceiver",
          "type": "address"
        },
        {
          "internalType": "uint256",
          "name": "minShares",
          "type": "uint256"
        }
      ],
      "name": "depositWithIBT",
      "outputs": [
        {
          "internalType": "uint256",
          "name": "shares",
          "type": "uint256"
        }
      ],
      "stateMutability": "nonpayable",
      "type": "function"
    },
    {
      "inputs": [],
      "name": "eip712Domain",
      "outputs": [
        {
          "internalType": "bytes1",
          "name": "fields",
          "type": "bytes1"
        },
        {
          "internalType": "string",
          "name": "name",
          "type": "string"
        },
        {
          "internalType": "string",
          "name": "version",
          "type": "string"
        },
        {
          "internalType": "uint256",
          "name": "chainId",
          "type": "uint256"
        },
        {
          "internalType": "address",
          "name": "verifyingContract",
          "type": "address"
        },
        {
          "internalType": "bytes32",
          "name": "salt",
          "type": "bytes32"
        },
        {
          "internalType": "uint256[]",
          "name": "extensions",
          "type": "uint256[]"
        }
      ],
      "stateMutability": "view",
      "type": "function"
    },
    {
      "inputs": [
        {
          "internalType": "address",
          "name": "_token",
          "type": "address"
        },
        {
          "internalType": "uint256",
          "name": "_amount",
          "type": "uint256"
        }
      ],
      "name": "flashFee",
      "outputs": [
        {
          "internalType": "uint256",
          "name": "",
          "type": "uint256"
        }
      ],
      "stateMutability": "view",
      "type": "function"
    },
    {
      "inputs": [
        {
          "internalType": "contract IERC3156FlashBorrower",
          "name": "_receiver",
          "type": "address"
        },
        {
          "internalType": "address",
          "name": "_token",
          "type": "address"
        },
        {
          "internalType": "uint256",
          "name": "_amount",
          "type": "uint256"
        },
        {
          "internalType": "bytes",
          "name": "_data",
          "type": "bytes"
        }
      ],
      "name": "flashLoan",
      "outputs": [
        {
          "internalType": "bool",
          "name": "",
          "type": "bool"
        }
      ],
      "stateMutability": "nonpayable",
      "type": "function"
    },
    {
      "inputs": [
        {
          "internalType": "address",
          "name": "_user",
          "type": "address"
        }
      ],
      "name": "getCurrentYieldInIBTOfUser",
      "outputs": [
        {
          "internalType": "uint256",
          "name": "_yieldOfUserInIBT",
          "type": "uint256"
        }
      ],
      "stateMutability": "view",
      "type": "function"
    },
    {
      "inputs": [],
      "name": "getDuration",
      "outputs": [
        {
          "internalType": "uint256",
          "name": "",
          "type": "uint256"
        }
      ],
      "stateMutability": "view",
      "type": "function"
    },
    {
      "inputs": [],
      "name": "getIBT",
      "outputs": [
        {
          "internalType": "address",
          "name": "",
          "type": "address"
        }
      ],
      "stateMutability": "view",
      "type": "function"
    },
    {
      "inputs": [],
      "name": "getIBTRate",
      "outputs": [
        {
          "internalType": "uint256",
          "name": "",
          "type": "uint256"
        }
      ],
      "stateMutability": "view",
      "type": "function"
    },
    {
      "inputs": [],
      "name": "getIBTRateAtExpiry",
      "outputs": [
        {
          "internalType": "uint256",
          "name": "",
          "type": "uint256"
        }
      ],
      "stateMutability": "view",
      "type": "function"
    },
    {
      "inputs": [],
      "name": "getIBTUnit",
      "outputs": [
        {
          "internalType": "uint256",
          "name": "",
          "type": "uint256"
        }
      ],
      "stateMutability": "view",
      "type": "function"
    },
    {
      "inputs": [],
      "name": "getPTRate",
      "outputs": [
        {
          "internalType": "uint256",
          "name": "",
          "type": "uint256"
        }
      ],
      "stateMutability": "view",
      "type": "function"
    },
    {
      "inputs": [],
      "name": "getPTRateAtExpiry",
      "outputs": [
        {
          "internalType": "uint256",
          "name": "",
          "type": "uint256"
        }
      ],
      "stateMutability": "view",
      "type": "function"
    },
    {
      "inputs": [],
      "name": "getTotalFeesInIBT",
      "outputs": [
        {
          "internalType": "uint256",
          "name": "",
          "type": "uint256"
        }
      ],
      "stateMutability": "view",
      "type": "function"
    },
    {
      "inputs": [],
      "name": "getUnclaimedFeesInIBT",
      "outputs": [
        {
          "internalType": "uint256",
          "name": "",
          "type": "uint256"
        }
      ],
      "stateMutability": "view",
      "type": "function"
    },
    {
      "inputs": [],
      "name": "getYT",
      "outputs": [
        {
          "internalType": "address",
          "name": "",
          "type": "address"
        }
      ],
      "stateMutability": "view",
      "type": "function"
    },
    {
      "inputs": [
        {
          "internalType": "address",
          "name": "",
          "type": "address"
        }
      ],
      "name": "ibtRateOfUser",
      "outputs": [
        {
          "internalType": "uint256",
          "name": "",
          "type": "uint256"
        }
      ],
      "stateMutability": "view",
      "type": "function"
    },
    {
      "inputs": [
        {
          "internalType": "address",
          "name": "_ibt",
          "type": "address"
        },
        {
          "internalType": "uint256",
          "name": "_duration",
          "type": "uint256"
        },
        {
          "internalType": "address",
          "name": "_initialAuthority",
          "type": "address"
        }
      ],
      "name": "initialize",
      "outputs": [],
      "stateMutability": "nonpayable",
      "type": "function"
    },
    {
      "inputs": [],
      "name": "isConsumingScheduledOp",
      "outputs": [
        {
          "internalType": "bytes4",
          "name": "",
          "type": "bytes4"
        }
      ],
      "stateMutability": "view",
      "type": "function"
    },
    {
      "inputs": [],
      "name": "maturity",
      "outputs": [
        {
          "internalType": "uint256",
          "name": "",
          "type": "uint256"
        }
      ],
      "stateMutability": "view",
      "type": "function"
    },
    {
      "inputs": [
        {
          "internalType": "address",
          "name": "",
          "type": "address"
        }
      ],
      "name": "maxDeposit",
      "outputs": [
        {
          "internalType": "uint256",
          "name": "",
          "type": "uint256"
        }
      ],
      "stateMutability": "pure",
      "type": "function"
    },
    {
      "inputs": [
        {
          "internalType": "address",
          "name": "_token",
          "type": "address"
        }
      ],
      "name": "maxFlashLoan",
      "outputs": [
        {
          "internalType": "uint256",
          "name": "",
          "type": "uint256"
        }
      ],
      "stateMutability": "view",
      "type": "function"
    },
    {
      "inputs": [
        {
          "internalType": "address",
          "name": "",
          "type": "address"
        }
      ],
      "name": "maxMint",
      "outputs": [
        {
          "internalType": "uint256",
          "name": "",
          "type": "uint256"
        }
      ],
      "stateMutability": "pure",
      "type": "function"
    },
    {
      "inputs": [
        {
          "internalType": "address",
          "name": "owner",
          "type": "address"
        }
      ],
      "name": "maxRedeem",
      "outputs": [
        {
          "internalType": "uint256",
          "name": "",
          "type": "uint256"
        }
      ],
      "stateMutability": "view",
      "type": "function"
    },
    {
      "inputs": [
        {
          "internalType": "address",
          "name": "owner",
          "type": "address"
        }
      ],
      "name": "maxWithdraw",
      "outputs": [
        {
          "internalType": "uint256",
          "name": "",
          "type": "uint256"
        }
      ],
      "stateMutability": "view",
      "type": "function"
    },
    {
      "inputs": [
        {
          "internalType": "address",
          "name": "owner",
          "type": "address"
        }
      ],
      "name": "maxWithdrawAndClaimAll",
      "outputs": [
        {
          "internalType": "uint256",
          "name": "",
          "type": "uint256"
        }
      ],
      "stateMutability": "view",
      "type": "function"
    },
    {
      "inputs": [
        {
          "internalType": "uint256",
          "name": "shares",
          "type": "uint256"
        },
        {
          "internalType": "address",
          "name": "ptReceiver",
          "type": "address"
        },
        {
          "internalType": "address",
          "name": "ytReceiver",
          "type": "address"
        },
        {
          "internalType": "uint256",
          "name": "maxAssets",
          "type": "uint256"
        }
      ],
      "name": "mint",
      "outputs": [
        {
          "internalType": "uint256",
          "name": "assets",
          "type": "uint256"
        }
      ],
      "stateMutability": "nonpayable",
      "type": "function"
    },
    {
      "inputs": [
        {
          "internalType": "uint256",
          "name": "shares",
          "type": "uint256"
        },
        {
          "internalType": "address",
          "name": "receiver",
          "type": "address"
        }
      ],
      "name": "mint",
      "outputs": [
        {
          "internalType": "uint256",
          "name": "assets",
          "type": "uint256"
        }
      ],
      "stateMutability": "nonpayable",
      "type": "function"
    },
    {
      "inputs": [
        {
          "internalType": "uint256",
          "name": "shares",
          "type": "uint256"
        },
        {
          "internalType": "address",
          "name": "ptReceiver",
          "type": "address"
        },
        {
          "internalType": "address",
          "name": "ytReceiver",
          "type": "address"
        }
      ],
      "name": "mint",
      "outputs": [
        {
          "internalType": "uint256",
          "name": "assets",
          "type": "uint256"
        }
      ],
      "stateMutability": "nonpayable",
      "type": "function"
    },
    {
      "inputs": [],
      "name": "name",
      "outputs": [
        {
          "internalType": "string",
          "name": "",
          "type": "string"
        }
      ],
      "stateMutability": "view",
      "type": "function"
    },
    {
      "inputs": [
        {
          "internalType": "address",
          "name": "owner",
          "type": "address"
        }
      ],
      "name": "nonces",
      "outputs": [
        {
          "internalType": "uint256",
          "name": "",
          "type": "uint256"
        }
      ],
      "stateMutability": "view",
      "type": "function"
    },
    {
      "inputs": [],
      "name": "pause",
      "outputs": [],
      "stateMutability": "nonpayable",
      "type": "function"
    },
    {
      "inputs": [],
      "name": "paused",
      "outputs": [
        {
          "internalType": "bool",
          "name": "",
          "type": "bool"
        }
      ],
      "stateMutability": "view",
      "type": "function"
    },
    {
      "inputs": [
        {
          "internalType": "address",
          "name": "owner",
          "type": "address"
        },
        {
          "internalType": "address",
          "name": "spender",
          "type": "address"
        },
        {
          "internalType": "uint256",
          "name": "value",
          "type": "uint256"
        },
        {
          "internalType": "uint256",
          "name": "deadline",
          "type": "uint256"
        },
        {
          "internalType": "uint8",
          "name": "v",
          "type": "uint8"
        },
        {
          "internalType": "bytes32",
          "name": "r",
          "type": "bytes32"
        },
        {
          "internalType": "bytes32",
          "name": "s",
          "type": "bytes32"
        }
      ],
      "name": "permit",
      "outputs": [],
      "stateMutability": "nonpayable",
      "type": "function"
    },
    {
      "inputs": [
        {
          "internalType": "uint256",
          "name": "assets",
          "type": "uint256"
        }
      ],
      "name": "previewDeposit",
      "outputs": [
        {
          "internalType": "uint256",
          "name": "",
          "type": "uint256"
        }
      ],
      "stateMutability": "view",
      "type": "function"
    },
    {
      "inputs": [
        {
          "internalType": "uint256",
          "name": "ibts",
          "type": "uint256"
        }
      ],
      "name": "previewDepositWithIBT",
      "outputs": [
        {
          "internalType": "uint256",
          "name": "",
          "type": "uint256"
        }
      ],
      "stateMutability": "view",
      "type": "function"
    },
    {
      "inputs": [
        {
          "internalType": "uint256",
          "name": "shares",
          "type": "uint256"
        }
      ],
      "name": "previewMint",
      "outputs": [
        {
          "internalType": "uint256",
          "name": "",
          "type": "uint256"
        }
      ],
      "stateMutability": "view",
      "type": "function"
    },
    {
      "inputs": [
        {
          "internalType": "uint256",
          "name": "shares",
          "type": "uint256"
        }
      ],
      "name": "previewRedeem",
      "outputs": [
        {
          "internalType": "uint256",
          "name": "",
          "type": "uint256"
        }
      ],
      "stateMutability": "view",
      "type": "function"
    },
    {
      "inputs": [
        {
          "internalType": "uint256",
          "name": "assets",
          "type": "uint256"
        }
      ],
      "name": "previewWithdraw",
      "outputs": [
        {
          "internalType": "uint256",
          "name": "",
          "type": "uint256"
        }
      ],
      "stateMutability": "view",
      "type": "function"
    },
    {
      "inputs": [
        {
          "internalType": "uint256",
          "name": "ibts",
          "type": "uint256"
        }
      ],
      "name": "previewWithdrawInIBT",
      "outputs": [
        {
          "internalType": "uint256",
          "name": "",
          "type": "uint256"
        }
      ],
      "stateMutability": "view",
      "type": "function"
    },
    {
      "inputs": [
        {
          "internalType": "address",
          "name": "",
          "type": "address"
        }
      ],
      "name": "ptRateOfUser",
      "outputs": [
        {
          "internalType": "uint256",
          "name": "",
          "type": "uint256"
        }
      ],
      "stateMutability": "view",
      "type": "function"
    },
    {
      "inputs": [
        {
          "internalType": "uint256",
          "name": "shares",
          "type": "uint256"
        },
        {
          "internalType": "address",
          "name": "receiver",
          "type": "address"
        },
        {
          "internalType": "address",
          "name": "owner",
          "type": "address"
        },
        {
          "internalType": "uint256",
          "name": "minAssets",
          "type": "uint256"
        }
      ],
      "name": "redeem",
      "outputs": [
        {
          "internalType": "uint256",
          "name": "assets",
          "type": "uint256"
        }
      ],
      "stateMutability": "nonpayable",
      "type": "function"
    },
    {
      "inputs": [
        {
          "internalType": "uint256",
          "name": "shares",
          "type": "uint256"
        },
        {
          "internalType": "address",
          "name": "receiver",
          "type": "address"
        },
        {
          "internalType": "address",
          "name": "owner",
          "type": "address"
        }
      ],
      "name": "redeem",
      "outputs": [
        {
          "internalType": "uint256",
          "name": "assets",
          "type": "uint256"
        }
      ],
      "stateMutability": "nonpayable",
      "type": "function"
    },
    {
      "inputs": [
        {
          "internalType": "address",
          "name": "newAuthority",
          "type": "address"
        }
      ],
      "name": "setAuthority",
      "outputs": [],
      "stateMutability": "nonpayable",
      "type": "function"
    },
    {
      "inputs": [],
      "name": "storeRatesAtExpiry",
      "outputs": [],
      "stateMutability": "nonpayable",
      "type": "function"
    },
    {
      "inputs": [],
      "name": "symbol",
      "outputs": [
        {
          "internalType": "string",
          "name": "",
          "type": "string"
        }
      ],
      "stateMutability": "view",
      "type": "function"
    },
    {
      "inputs": [],
      "name": "totalAssets",
      "outputs": [
        {
          "internalType": "uint256",
          "name": "",
          "type": "uint256"
        }
      ],
      "stateMutability": "view",
      "type": "function"
    },
    {
      "inputs": [],
      "name": "totalSupply",
      "outputs": [
        {
          "internalType": "uint256",
          "name": "",
          "type": "uint256"
        }
      ],
      "stateMutability": "view",
      "type": "function"
    },
    {
      "inputs": [
        {
          "internalType": "address",
          "name": "to",
          "type": "address"
        },
        {
          "internalType": "uint256",
          "name": "value",
          "type": "uint256"
        }
      ],
      "name": "transfer",
      "outputs": [
        {
          "internalType": "bool",
          "name": "",
          "type": "bool"
        }
      ],
      "stateMutability": "nonpayable",
      "type": "function"
    },
    {
      "inputs": [
        {
          "internalType": "address",
          "name": "from",
          "type": "address"
        },
        {
          "internalType": "address",
          "name": "to",
          "type": "address"
        },
        {
          "internalType": "uint256",
          "name": "value",
          "type": "uint256"
        }
      ],
      "name": "transferFrom",
      "outputs": [
        {
          "internalType": "bool",
          "name": "",
          "type": "bool"
        }
      ],
      "stateMutability": "nonpayable",
      "type": "function"
    },
    {
      "inputs": [],
      "name": "unPause",
      "outputs": [],
      "stateMutability": "nonpayable",
      "type": "function"
    },
    {
      "inputs": [],
      "name": "underlying",
      "outputs": [
        {
          "internalType": "address",
          "name": "",
          "type": "address"
        }
      ],
      "stateMutability": "view",
      "type": "function"
    },
    {
      "inputs": [
        {
          "internalType": "address",
          "name": "_user",
          "type": "address"
        }
      ],
      "name": "updateYield",
      "outputs": [
        {
          "internalType": "uint256",
          "name": "updatedUserYieldInIBT",
          "type": "uint256"
        }
      ],
      "stateMutability": "nonpayable",
      "type": "function"
    },
    {
      "inputs": [
        {
          "internalType": "uint256",
          "name": "assets",
          "type": "uint256"
        },
        {
          "internalType": "address",
          "name": "receiver",
          "type": "address"
        },
        {
          "internalType": "address",
          "name": "owner",
          "type": "address"
        },
        {
          "internalType": "uint256",
          "name": "maxShares",
          "type": "uint256"
        }
      ],
      "name": "withdraw",
      "outputs": [
        {
          "internalType": "uint256",
          "name": "shares",
          "type": "uint256"
        }
      ],
      "stateMutability": "nonpayable",
      "type": "function"
    },
    {
      "inputs": [
        {
          "internalType": "uint256",
          "name": "assets",
          "type": "uint256"
        },
        {
          "internalType": "address",
          "name": "receiver",
          "type": "address"
        },
        {
          "internalType": "address",
          "name": "owner",
          "type": "address"
        }
      ],
      "name": "withdraw",
      "outputs": [
        {
          "internalType": "uint256",
          "name": "shares",
          "type": "uint256"
        }
      ],
      "stateMutability": "nonpayable",
      "type": "function"
    },
    {
      "inputs": [
        {
          "internalType": "address",
          "name": "receiver",
          "type": "address"
        }
      ],
      "name": "withdrawAfterExpiry",
      "outputs": [
        {
          "internalType": "uint256",
          "name": "assets",
          "type": "uint256"
        }
      ],
      "stateMutability": "nonpayable",
      "type": "function"
    },
    {
      "inputs": [
        {
          "internalType": "address",
          "name": "receiver",
          "type": "address"
        }
      ],
      "name": "withdrawAndClaimAll",
      "outputs": [
        {
          "internalType": "uint256",
          "name": "assets",
          "type": "uint256"
        }
      ],
      "stateMutability": "nonpayable",
      "type": "function"
    },
    {
      "inputs": [
        {
          "internalType": "uint256",
          "name": "ibts",
          "type": "uint256"
        },
        {
          "internalType": "address",
          "name": "receiver",
          "type": "address"
        },
        {
          "internalType": "address",
          "name": "owner",
          "type": "address"
        },
        {
          "internalType": "uint256",
          "name": "maxShares",
          "type": "uint256"
        }
      ],
      "name": "withdrawInIBT",
      "outputs": [
        {
          "internalType": "uint256",
          "name": "shares",
          "type": "uint256"
        }
      ],
      "stateMutability": "nonpayable",
      "type": "function"
    },
    {
      "inputs": [
        {
          "internalType": "uint256",
          "name": "ibts",
          "type": "uint256"
        },
        {
          "internalType": "address",
          "name": "receiver",
          "type": "address"
        },
        {
          "internalType": "address",
          "name": "owner",
          "type": "address"
        }
      ],
      "name": "withdrawInIBT",
      "outputs": [
        {
          "internalType": "uint256",
          "name": "shares",
          "type": "uint256"
        }
      ],
      "stateMutability": "nonpayable",
      "type": "function"
    },
    {
      "inputs": [
        {
          "internalType": "address",
          "name": "",
          "type": "address"
        }
      ],
      "name": "yieldOfUserInIBT",
      "outputs": [
        {
          "internalType": "uint256",
          "name": "",
          "type": "uint256"
        }
      ],
      "stateMutability": "view",
      "type": "function"
    }
  ],
  "bytecode": {
    "object": "0x60a06040523480156200001157600080fd5b50604051620060ea380380620060ea83398101604081905262000034916200012e565b6001600160a01b0381166200005c57604051630c59659760e31b815260040160405180910390fd5b6001600160a01b038116608052620000736200007a565b5062000160565b7ff0c57e16840df040f15088dc2f81fe391c3923bec73e23a9662efc9c229c6a00805468010000000000000000900460ff1615620000cb5760405163f92ee8a960e01b815260040160405180910390fd5b80546001600160401b03908116146200012b5780546001600160401b0319166001600160401b0390811782556040519081527fc7f505b2f371ae2175ee4913f4499e1f2633a7b5936321eed1cdaeb6115181d29060200160405180910390a15b50565b6000602082840312156200014157600080fd5b81516001600160a01b03811681146200015957600080fd5b9392505050565b608051615f28620001c2600039600081816117a901528181611bba01528181611d4b01528181612556015281816127d80152818161282301528181612b6c01528181612cd001528181612edd015281816130550152613dda0152615f286000f3fe60806040523480156200001157600080fd5b5060043610620005055760003560e01c80637ecebe0011620002a1578063bf7e214f116200016d578063d905777e11620000df578063e4cca4b0116200009e578063e4cca4b01462000b4a578063ef8b30f71462000b61578063efd98dc21462000b78578063f7b188a51462000b81578063f90d63db1462000b8b578063fb8983041462000ba257600080fd5b8063d905777e1462000ad7578063d9d98ce41462000aee578063da39b3e71462000b05578063dd62ed3e1462000b1c578063dde5f6e81462000b3357600080fd5b8063cc834969116200012c578063cc8349691462000a71578063ce96cb771462000a88578063d294f0931462000a9f578063d4b6e0bd1462000aa9578063d505accf1462000ac057600080fd5b8063bf7e214f1462000a38578063c350a1b51462000a42578063c63d75b61462000714578063c644fe941462000a59578063c6e6f592146200066957600080fd5b8063a318c1a41162000213578063b2b84d9411620001d2578063b2b84d9414620009ae578063b346db0c14620009c5578063b3d7f6b914620009dc578063b460af9414620009f3578063ba0876521462000a0a578063bafc0f141462000a2157600080fd5b8063a318c1a41462000949578063a9059cbb1462000960578063a95398d91462000977578063aca505f7146200098e578063ad2e8c9b14620009a557600080fd5b806394bf804d116200026057806394bf804d14620008fe57806395d89b4114620009155780639f40a7b3146200091f578063a13c91a31462000936578063a1c5b3e1146200094057600080fd5b80637ecebe0014620008835780638415c42e146200089a5780638456cb5914620008b157806384b0196e14620008bb5780638fb3603714620008da57600080fd5b80633644e51511620003e15780635c975abb11620003535780636e553f6511620003125780636e553f65146200081e5780636f307dc314620006eb57806370a082311462000835578063714d422b146200084c57806375ba1dac14620008555780637a9e5e4b146200086c57600080fd5b80635c975abb14620007a95780635cffe9de14620007c3578063613255ab14620007da57806368f5e0e314620007f15780636956df17146200081457600080fd5b8063480634b911620003a0578063480634b914620007365780634c53f49c146200074d5780634cdad50614620007705780634f5867a414620007875780634f72ec2f146200079057600080fd5b80633644e51514620006e157806338d52e0f14620006eb5780633ca7c82d14620006fd578063402d267d1462000714578063406cf229146200072c57600080fd5b80631dc7f521116200047b57806325a8d87d116200043a57806325a8d87d14620006695780632b930fa314620006805780632c660fbc146200068a5780632e2d298414620006ad578063313ce56714620006c457600080fd5b80631dc7f52114620005945780631f2b4f241462000629578063204f83f914620006325780632377150a146200063b57806323b872dd146200065257600080fd5b806307a2d13a11620004c857806307a2d13a1462000594578063095ea7b314620005ab5780630a28a47714620005d35780630ad225bc14620005ea57806318160ddd146200060157600080fd5b806301e1d114146200050a5780630449e1cd146200052757806304aa50ad146200053e57806306fdde031462000564578063074ee446146200057d575b600080fd5b6200051462000bb9565b6040519081526020015b60405180910390f35b620005146200053836600462004d5a565b62000c37565b6002546001600160a01b03165b6040516001600160a01b0390911681526020016200051e565b6200056e62000c72565b6040516200051e919062004dfb565b620005146200058e36600462004d5a565b62000d24565b62000514620005a536600462004e10565b62000d33565b620005c2620005bc36600462004e2a565b62000d46565b60405190151581526020016200051e565b62000514620005e436600462004e10565b62000d60565b62000514620005fb36600462004e59565b62000da0565b7f52c63247e1f47db19d5ce0460030c497f067ca4cebf71ba98eeadabe20bace025462000514565b60035462000514565b60085462000514565b620005146200064c36600462004ea0565b62000e4b565b620005c26200066336600462004ec0565b62001067565b620005146200067a36600462004e10565b6200108f565b620005146200109c565b620005146200069b36600462004ea0565b600c6020526000908152604090205481565b62000514620006be36600462004e59565b620010c8565b620006ce6200120d565b60405160ff90911681526020016200051e565b6200051462001288565b6001546001600160a01b03166200054b565b620005146200070e36600462004e10565b62001294565b620005146200072536600462004ea0565b5060001990565b620005146200130b565b620005146200074736600462004e10565b62001382565b620005146200075e36600462004ea0565b600b6020526000908152604090205481565b620005146200078136600462004e10565b620013c1565b60055462000514565b620007a7620007a136600462004f06565b62001435565b005b60008051602062005eb38339815191525460ff16620005c2565b620005c2620007d436600462004f44565b6200147d565b62000514620007eb36600462004ea0565b620015d4565b620005146200080236600462004ea0565b600a6020526000908152604090205481565b620005146200162f565b620005146200082f36600462004fec565b6200165b565b620005146200084636600462004ea0565b6200166a565b60045462000514565b620005146200086636600462005014565b6200169e565b620007a76200087d36600462004ea0565b620016af565b620005146200089436600462004ea0565b62001742565b62000514620008ab36600462004ea0565b6200174f565b620007a7620017ef565b620008c56200180a565b6040516200051e979695949392919062005037565b620008e4620018be565b6040516001600160e01b031990911681526020016200051e565b620005146200090f36600462004fec565b620018fa565b6200056e62001909565b620005146200093036600462004d5a565b6200194b565b620007a76200197e565b60065462000514565b620005146200095a36600462004d5a565b62001a13565b620005c26200097136600462004e2a565b62001a22565b620005146200098836600462004e10565b62001a32565b620005146200099f36600462005014565b62001cd4565b60095462000514565b62000514620009bf36600462004ea0565b62001ce5565b62000514620009d636600462004e10565b62001d05565b62000514620009ed36600462004e10565b62001d3d565b6200051462000a0436600462004e59565b62001d82565b6200051462000a1b36600462004e59565b62001e4c565b6200051462000a3236600462004fec565b62001fe1565b6200054b62001ff0565b620007a762000a53366004620050d3565b6200200d565b6000546201000090046001600160a01b03166200054b565b6200051462000a8236600462004ea0565b620024c8565b6200051462000a9936600462004ea0565b62002772565b620005146200281f565b6200051462000aba36600462004d5a565b6200299c565b620007a762000ad13660046200511f565b620029ab565b6200051462000ae836600462004ea0565b62002b0f565b6200051462000aff36600462004e2a565b62002b2f565b6200051462000b1636600462004e59565b62002b91565b6200051462000b2d36600462004f06565b62002bb5565b6200051462000b4436600462004e59565b62002bff565b6200051462000b5b36600462004d5a565b62002c72565b6200051462000b7236600462004e10565b62002c81565b60075462000514565b620007a762002cf5565b6200051462000b9c36600462004ea0565b62002d0a565b6200051462000bb336600462004e10565b62002e9d565b600080546040516370a0823160e01b815230600482015262000c32916201000090046001600160a01b0316906370a0823190602401602060405180830381865afa15801562000c0c573d6000803e3d6000fd5b505050506040513d601f19601f820116820180604052508101906200070e919062005197565b905090565b600062000c4685858562002bff565b90508181111562000c6a57604051630f033da760e41b815260040160405180910390fd5b949350505050565b6060600060008051602062005e738339815191525b905080600301805462000c9a90620051b1565b80601f016020809104026020016040519081016040528092919081815260200182805462000cc890620051b1565b801562000d195780601f1062000ced5761010080835404028352916020019162000d19565b820191906000526020600020905b81548152906001019060200180831162000cfb57829003601f168201915b505050505091505090565b600062000c4685858562002b91565b600062000d408262002f0e565b92915050565b60003362000d5681858562002f52565b5060019392505050565b600060085442111562000d8657604051632de15cad60e11b815260040160405180910390fd5b62000d9062002f61565b62000d40826200108f565b919050565b600060085442111562000dc657604051632de15cad60e11b815260040160405180910390fd5b62000dd062002f61565b62000dda62002f94565b60005462000dfa906201000090046001600160a01b031633308762002fce565b62000e078484846200303d565b90508060000362000e2b5760405163e833ec5160e01b815260040160405180910390fd5b62000e44600160008051602062005ed383398151915255565b9392505050565b600060085442111562000e7157604051632de15cad60e11b815260040160405180910390fd5b62000e7b62002f61565b62000e8562002f94565b62000e903362002d0a565b506002546040516305ea542b60e21b81523360048201526000916001600160a01b0316906317a950ac90602401602060405180830381865afa15801562000edb573d6000803e3d6000fd5b505050506040513d601f19601f8201168201806040525081019062000f01919062005197565b6000805461ff0019169055905062000f198162001a32565b9150600062000f28336200166a565b905081811162000f39578062000f3b565b815b905062000f488162000d33565b62000f54908462005203565b60025460405163bd6e3f7d60e01b8152336004820152602481018490529194506001600160a01b03169063bd6e3f7d90604401600060405180830381600087803b15801562000fa257600080fd5b505af115801562000fb7573d6000803e3d6000fd5b5050505062000fca33853386856200313c565b600054604051632d182be560e21b8152620100009091046001600160a01b03169063b460af9490620010059086908890309060040162005219565b6020604051808303816000875af115801562001025573d6000803e3d6000fd5b505050506040513d601f19601f820116820180604052508101906200104b919062005197565b50505062000d9b600160008051602062005ed383398151915255565b60003362001077858285620031b0565b6200108485858562003217565b506001949350505050565b600062000d40826200327c565b6000805460ff16620010c15760405163176d08c960e21b815260040160405180910390fd5b5060075490565b6000600854421115620010ee57604051632de15cad60e11b815260040160405180910390fd5b620010f862002f94565b6200110262002f61565b6001546200111c906001600160a01b031633308762002fce565b60005460015462001142916001600160a01b0391821691620100009091041686620032bf565b60008054604051636e553f6560e01b815260048101879052306024820152620100009091046001600160a01b031690636e553f65906044016020604051808303816000875af11580156200119a573d6000803e3d6000fd5b505050506040513d601f19601f82011682018060405250810190620011c0919062005197565b9050620011cf8185856200303d565b915081600003620011f35760405163e833ec5160e01b815260040160405180910390fd5b5062000e44600160008051602062005ed383398151915255565b60008060029054906101000a90046001600160a01b03166001600160a01b031663313ce5676040518163ffffffff1660e01b8152600401602060405180830381865afa15801562001262573d6000803e3d6000fd5b505050506040513d601f19601f8201168201806040525081019062000c32919062005238565b600062000c3262003350565b600080546040516303d1689d60e11b815260048101849052620100009091046001600160a01b0316906307a2d13a906024015b602060405180830381865afa158015620012e5573d6000803e3d6000fd5b505050506040513d601f19601f8201168201806040525081019062000d40919062005197565b6002546040516305ea542b60e21b815233600482015260009162000c32916001600160a01b03909116906317a950ac90602401602060405180830381865afa1580156200135c573d6000803e3d6000fd5b505050506040513d601f19601f8201168201806040525081019062000988919062005197565b6000600854421115620013a857604051632de15cad60e11b815260040160405180910390fd5b620013b262002f61565b62000d406200067a8362001294565b6000600854421015620013e75760405163790ab91960e11b815260040160405180910390fd5b620013f162002f61565b60005460ff16156200141c5762000d406200070e620014138460065462001cd4565b6007546200169e565b60405163176d08c960e21b815260040160405180910390fd5b6002546001600160a01b03163314620014615760405163068690bf60e11b815260040160405180910390fd5b6200146c8262002d0a565b50620014788162002d0a565b505050565b60006200148a85620015d4565b841115620014ab576040516310a5983560e11b815260040160405180910390fd5b6000620014b9868662002b2f565b600054909150620014db906201000090046001600160a01b031688876200335c565b6040516323e30c8b60e01b81527f439148f0bbc682ca079e46d6e2c2f0c1e3b820f1a291b069d8882abf8cf18dd9906001600160a01b038916906323e30c8b90620015359033908b908b9088908c908c9060040162005281565b6020604051808303816000875af115801562001555573d6000803e3d6000fd5b505050506040513d601f19601f820116820180604052508101906200157b919062005197565b146200159a57604051637d65916160e01b815260040160405180910390fd5b620015c78730620015ac848962005203565b6000546201000090046001600160a01b031692919062002fce565b5060019695505050505050565b600080546001600160a01b03838116620100009092041614620015f957506000919050565b6000546040516370a0823160e01b8152306004820152620100009091046001600160a01b0316906370a0823190602401620012c7565b6000805460ff16620016545760405163176d08c960e21b815260040160405180910390fd5b5060065490565b600062000e44838384620010c8565b60008060008051602062005e738339815191525b6001600160a01b0390931660009081526020939093525050604090205490565b600062000e4483836003546200338f565b33620016ba62001ff0565b6001600160a01b0316816001600160a01b031614620016fb5760405162d1953b60e31b81526001600160a01b03821660048201526024015b60405180910390fd5b816001600160a01b03163b60000362001733576040516361798f2f60e11b81526001600160a01b0383166004820152602401620016f2565b6200173e82620033c0565b5050565b600062000d408262003422565b60006200175b62002f61565b600080620017686200344c565b9150915060006200177b85848462003487565b9050620017e6620017a26200179b62001794886200356d565b8662001cd4565b846200169e565b620017ce837f000000000000000000000000000000000000000000000000000000000000000062003603565b620017da9084620052ca565b6200070e919062005203565b95945050505050565b620017fe335b6000366200367f565b6200180862003798565b565b6000606080828080838160008051602062005e9383398151915280549091501580156200183957506001810154155b6200187f5760405162461bcd60e51b81526020600482015260156024820152741152540dcc4c8e88155b9a5b9a5d1a585b1a5e9959605a1b6044820152606401620016f2565b62001889620037fe565b6200189362003840565b60408051600080825260208201909252600f60f81b9c939b5091995046985030975095509350915050565b60008051602062005e53833981519152805460009190600160a01b900460ff16620018eb576000620018f4565b638fb3603760e01b5b91505090565b600062000e4483838462002b91565b7f52c63247e1f47db19d5ce0460030c497f067ca4cebf71ba98eeadabe20bace04805460609160008051602062005e738339815191529162000c9a90620051b1565b60006200195a85858562001e4c565b90508181101562000c6a57604051630f033da760e41b815260040160405180910390fd5b600854421015620019a25760405163790ab91960e11b815260040160405180910390fd5b60005460ff1615620019c7576040516333072e9d60e11b815260040160405180910390fd5b6000805460ff19166001179055620019de6200385a565b600781905560068290556040517f86f6956dfa46dcc6315cbb9f8917848f94efdedd075e2500cb1edfcf9102917290600090a3565b600062000c4685858562001d82565b60003362000d5681858562003217565b600060085442111562001a5857604051632de15cad60e11b815260040160405180910390fd5b600062001a653362002d0a565b6002546040516305ea542b60e21b81523360048201529192506000916001600160a01b03909116906317a950ac90602401602060405180830381865afa15801562001ab4573d6000803e3d6000fd5b505050506040513d601f19601f8201168201806040525081019062001ada919062005197565b9050811580159062001af457508315158062001af4575080155b1562001ccd5780841162001b09578362001b0b565b805b93506000811562001b375762001b316003548662001b2a9190620052f6565b83620038a0565b62001b3b565b6003545b905062001b568160035485620038fc9092919063ffffffff16565b336000908152600c602052604090205490935083111562001b8a576040516333d0fe7160e21b815260040160405180910390fd5b336000908152600c60205260408120805485929062001bab908490620052ca565b909155506000905062001bdf847f000000000000000000000000000000000000000000000000000000000000000062003603565b905062001bec81620039c6565b62001bfc6200070e8286620052ca565b604051818152909550339081907ff3055bc8d92d9c8d2f12b45d112dd345cd2cfd17292b8d65c5642ac6f912dfd79060200160405180910390a3600054610100900460ff161562001cca57600054604051632d182be560e21b8152620100009091046001600160a01b03169063b460af949062001c829088903390309060040162005219565b6020604051808303816000875af115801562001ca2573d6000803e3d6000fd5b505050506040513d601f19601f8201168201806040525081019062001cc8919062005197565b505b50505b5050919050565b600062000e448383600354620039ef565b600080600062001cf46200344c565b9150915062000c6a84838362003487565b600080546040516363737ac960e11b815260048101849052620100009091046001600160a01b03169063c6e6f59290602401620012c7565b600062000d4062001d7083307f0000000000000000000000000000000000000000000000000000000000000000620039fe565b62001d7c9084620052ca565b62002f0e565b600060085442111562001da857604051632de15cad60e11b815260040160405180910390fd5b62001db262002f61565b62001dbc62002f94565b62001dc984848462003b18565b600054604051632d182be560e21b81529192506201000090046001600160a01b03169063b460af949062001e069087908790309060040162005219565b6020604051808303816000875af115801562001e26573d6000803e3d6000fd5b505050506040513d601f19601f82011682018060405250810190620011f3919062005197565b600060085442101562001e725760405163790ab91960e11b815260040160405180910390fd5b62001e7c62002f94565b62001e8662002f61565b6001600160a01b038216331462001eb05760405163068690bf60e11b815260040160405180910390fd5b62001ebb8262002b0f565b84111562001edc57604051639a5ce56160e01b815260040160405180910390fd5b62001ee784620013c1565b905062001ef833848484886200313c565b600054604051632d182be560e21b8152620100009091046001600160a01b03169063b460af949062001f339084908790309060040162005219565b6020604051808303816000875af115801562001f53573d6000803e3d6000fd5b505050506040513d601f19601f8201168201806040525081019062001f79919062005197565b50826001600160a01b0316826001600160a01b03167fd12200efa34901b99367694174c3b0d32c99585fdf37c7c26892136ddd0836d98360405162001fc091815260200190565b60405180910390a362000e44600160008051602062005ed383398151915255565b600062000e4483838462000da0565b60008051602062005e53833981519152546001600160a01b031690565b7ff0c57e16840df040f15088dc2f81fe391c3923bec73e23a9662efc9c229c6a008054600160401b810460ff16159067ffffffffffffffff16600081158015620020545750825b905060008267ffffffffffffffff166001148015620020725750303b155b90508115801562002081575080155b15620020a05760405163f92ee8a960e01b815260040160405180910390fd5b845467ffffffffffffffff191660011785558315620020cb57845460ff60401b1916600160401b1785555b6001600160a01b0388161580620020e957506001600160a01b038616155b156200210857604051630c59659760e31b815260040160405180910390fd5b876001600160a01b03166338d52e0f6040518163ffffffff1660e01b8152600401602060405180830381865afa15801562002147573d6000803e3d6000fd5b505050506040513d601f19601f820116820180604052508101906200216d919062005310565b600180546001600160a01b0319166001600160a01b039290921691909117905560098790556200219e428862005203565b6008819055506000886001600160a01b03166395d89b416040518163ffffffff1660e01b8152600401600060405180830381865afa158015620021e5573d6000803e3d6000fd5b505050506040513d6000823e601f3d908101601f191682016040526200220f919081019062005330565b90506000620022218260085462003c00565b90506200223c81620022368460085462003c86565b62003ceb565b620022478162003d01565b6200225162003d33565b6200225b62003d47565b620022668862003d5b565b60008a6001600160a01b031663313ce5676040518163ffffffff1660e01b8152600401602060405180830381865afa158015620022a7573d6000803e3d6000fd5b505050506040513d601f19601f82011682018060405250810190620022cd919062005238565b60ff1690506000600160009054906101000a90046001600160a01b03166001600160a01b031663313ce5676040518163ffffffff1660e01b8152600401602060405180830381865afa15801562002328573d6000803e3d6000fd5b505050506040513d601f19601f820116820180604052508101906200234e919062005238565b60ff1690506004821080620023635750601282115b156200238257604051634814eb0560e11b815260040160405180910390fd5b6004811080620023925750601281115b15620023b15760405163e236476560e01b815260040160405180910390fd5b6000805462010000600160b01b031916620100006001600160a01b038f1602179055620023e082600a620054e6565b6003819055620023f09062001294565b6007556200240081600a620054e6565b600681905550620024426040518060400160405280600b81526020016a2cb4b2b632102a37b5b2b760a91b8152506200243c8660085462003d70565b62003dd5565b600280546001600160a01b03929092166001600160a01b031990921691909117905550506000805461ff00191661010017905550508315620024be57845460ff60401b19168555604051600181527fc7f505b2f371ae2175ee4913f4499e1f2633a7b5936321eed1cdaeb6115181d29060200160405180910390a15b5050505050505050565b6000600854421015620024ee5760405163790ab91960e11b815260040160405180910390fd5b620024f862002f94565b6200250262002f61565b60006200250f3362002b0f565b90506200251c81620013c1565b91506200252d33843385856200313c565b60006200253a3362002d0a565b336000908152600c602052604081208190559091506200257b827f000000000000000000000000000000000000000000000000000000000000000062003603565b90506200258881620039c6565b60006200259a6200070e8385620052ca565b9050856001600160a01b0316336001600160a01b03167ff3055bc8d92d9c8d2f12b45d112dd345cd2cfd17292b8d65c5642ac6f912dfd783604051620025e291815260200190565b60405180910390a36002546040516305ea542b60e21b815233600482018190526001600160a01b039092169163bd6e3f7d9183906317a950ac90602401602060405180830381865afa1580156200263d573d6000803e3d6000fd5b505050506040513d601f19601f8201168201806040525081019062002663919062005197565b6040516001600160e01b031960e085901b1681526001600160a01b0390921660048301526024820152604401600060405180830381600087803b158015620026aa57600080fd5b505af1158015620026bf573d6000803e3d6000fd5b505050508085620026d1919062005203565b600054604051632d182be560e21b81529196506201000090046001600160a01b03169063b460af94906200270e9088908a90309060040162005219565b6020604051808303816000875af11580156200272e573d6000803e3d6000fd5b505050506040513d601f19601f8201168201806040525081019062002754919062005197565b505050505062000d9b600160008051602062005ed383398151915255565b60006200277e62002f61565b6008544211620027975762000d40620005a5836200356d565b6000620027a8620007818462002b0f565b9050600080620027b76200344c565b915091506000620027ca86848462003487565b90508362002809620027fd837f000000000000000000000000000000000000000000000000000000000000000062003603565b6200070e9084620052ca565b62002815919062005203565b9695505050505050565b60007f00000000000000000000000000000000000000000000000000000000000000006001600160a01b03166312fde4b76040518163ffffffff1660e01b8152600401602060405180830381865afa15801562002880573d6000803e3d6000fd5b505050506040513d601f19601f82011682018060405250810190620028a6919062005310565b6001600160a01b0316336001600160a01b031614620028d85760405163068690bf60e11b815260040160405180910390fd5b60048054600080835554604051635d043b2960e11b81529192620100009091046001600160a01b03169163ba087652916200291a918591339130910162005219565b6020604051808303816000875af11580156200293a573d6000803e3d6000fd5b505050506040513d601f19601f8201168201806040525081019062002960919062005197565b60405182815290925033907f20ca5094f3a20c321cbe4123d0f01b276b81df0fa24cd4d83d9253956035d8639060200160405180910390a25090565b60006200195a85858562000da0565b83421115620029d15760405163313c898160e11b815260048101859052602401620016f2565b60007f6e71edae12b1b97f4d1f60370fef10105fa2faae0126114a169c64845d6126c988888862002a3e8c6001600160a01b031660009081527f5ab42ced628888259c08ac98db1eb0cf702fc1501344311d8b100cd1bfe4bb006020526040902080546001810190915590565b6040805160208101969096526001600160a01b0394851690860152929091166060840152608083015260a082015260c0810186905260e001604051602081830303815290604052805190602001209050600062002a9b8262003f4f565b9050600062002aad8287878762003f7f565b9050896001600160a01b0316816001600160a01b03161462002af6576040516325c0072360e11b81526001600160a01b0380831660048301528b166024820152604401620016f2565b62002b038a8a8a62002f52565b50505050505050505050565b600060085442101562002b2457600062000d40565b62000d40826200166a565b600080546001600160a01b0384811662010000909204161462002b6557604051630c59659760e31b815260040160405180910390fd5b62000e44827f000000000000000000000000000000000000000000000000000000000000000062003fb1565b600062002b9e8462000d33565b905062002bad818484620010c8565b509392505050565b6001600160a01b0391821660009081527f52c63247e1f47db19d5ce0460030c497f067ca4cebf71ba98eeadabe20bace016020908152604080832093909416825291909152205490565b600060085442111562002c2557604051632de15cad60e11b815260040160405180910390fd5b62002c2f62002f61565b62002c3962002f94565b62002c5062002c488562001294565b848462003b18565b60005490915062000e2b906201000090046001600160a01b031684866200335c565b60006200195a858585620010c8565b600060085442111562002ca757604051632de15cad60e11b815260040160405180910390fd5b62002cb162002f61565b600062002cbe8362001d05565b905062000e446200067a620027fd83307f0000000000000000000000000000000000000000000000000000000000000000620039fe565b62002d0033620017f5565b6200180862003ff6565b600080600062002d1962004040565b6001600160a01b0386166000908152600a6020526040902054919350915080821462002d5b576001600160a01b0385166000908152600a602052604090208290555b6001600160a01b0385166000908152600b602052604090205483811462002d98576001600160a01b0386166000908152600b602052604090208490555b811562001cca576001600160a01b038087166000908152600c6020526040908190205460035460025492516326ab940f60e21b815273__$2a6e3de051b846e41cc798b842c22784ec$__94639aae503c9462002e0a948d9490938a938c938b938f9390929190911690600401620054f4565b602060405180830381865af415801562002e28573d6000803e3d6000fd5b505050506040513d601f19601f8201168201806040525081019062002e4e919062005197565b6001600160a01b0387166000818152600c60205260408082208490555192975087927f18cb9436df0c2ab8f3a0284742076c6ddf8a478776316b4b0d008d79372354909190a350505050919050565b600060085442111562002ec357604051632de15cad60e11b815260040160405180910390fd5b62002ecd62002f61565b62000d406200067a62002f0284307f0000000000000000000000000000000000000000000000000000000000000000620039fe565b6200070e9085620052ca565b60008062002f1b6200344c565b5090508060000362002f405760405163e833ec5160e01b815260040160405180910390fd5b60035462000e449084908390620038fc565b6200147883838360016200407f565b60008051602062005eb38339815191525460ff1615620018085760405163d93c066560e01b815260040160405180910390fd5b60008051602062005ed383398151915280546001190162002fc857604051633ee5aeb560e01b815260040160405180910390fd5b60029055565b6040516001600160a01b038481166024830152838116604483015260648201839052620030379186918216906323b872dd906084015b604051602081830303815290604052915060e01b6020820180516001600160e01b0383818316178352505050506200416e565b50505050565b60006200304a8262002d0a565b5060006200307a85307f0000000000000000000000000000000000000000000000000000000000000000620039fe565b90506200308781620039c6565b6000620030996200070e8388620052ca565b9050620030a6816200108f565b9250620030b633868386620041d8565b6002546040516340c10f1960e01b81526001600160a01b03868116600483015260248201869052909116906340c10f1990604401600060405180830381600087803b1580156200310557600080fd5b505af11580156200311a573d6000803e3d6000fd5b5050505050509392505050565b600160008051602062005ed383398151915255565b62003148838262004241565b826001600160a01b0316846001600160a01b0316866001600160a01b03167ffbde797d201c681b91056529119e0b02407c7bb96a4a2c75c01fc9667232c8db8585604051620031a1929190918252602082015260400190565b60405180910390a45050505050565b6000620031be848462002bb5565b905060001981146200303757818110156200320657604051637dc7a0d960e11b81526001600160a01b03841660048201526024810182905260448101839052606401620016f2565b62003037848484840360006200407f565b6001600160a01b0383166200324357604051634b637e8f60e11b815260006004820152602401620016f2565b6001600160a01b0382166200326f5760405163ec442f0560e01b815260006004820152602401620016f2565b6200147883838362004276565b600080620032896200344c565b50905080600003620032ae5760405163e833ec5160e01b815260040160405180910390fd5b60035462000e4490849083620038fc565b604051636eb1769f60e11b81523060048201526001600160a01b0383811660248301526000919085169063dd62ed3e90604401602060405180830381865afa15801562003310573d6000803e3d6000fd5b505050506040513d601f19601f8201168201806040525081019062003336919062005197565b90506200303784846200334a858562005203565b620043b0565b600062000c3262004447565b6040516001600160a01b038381166024830152604482018390526200147891859182169063a9059cbb9060640162003004565b600082600003620033b35760405163e833ec5160e01b815260040160405180910390fd5b62000c6a848385620038fc565b60008051602062005e5383398151915280546001600160a01b0383166001600160a01b03199091168117825560408051918252517f2f658b440c35314f52658ea8a740e05b284cdc84dc9ae01e891f21b8933e7cad9181900360200190a15050565b6000807f5ab42ced628888259c08ac98db1eb0cf702fc1501344311d8b100cd1bfe4bb006200167e565b6000806008544210620034715760005460ff16156200141c5750506006546007549091565b6200347b6200385a565b915091509091565b9091565b6001600160a01b0383166000908152600a6020908152604080832054600b835281842054600c909352908320549091908215620035635773__$2a6e3de051b846e41cc798b842c22784ec$__639aae503c88838689878c600354600260009054906101000a90046001600160a01b03166040518963ffffffff1660e01b81526004016200351c989796959493929190620054f4565b602060405180830381865af41580156200353a573d6000803e3d6000fd5b505050506040513d601f19601f8201168201806040525081019062003560919062005197565b93505b5050509392505050565b6000806200357b836200166a565b6002546040516305ea542b60e21b81526001600160a01b038681166004830152929350600092909116906317a950ac90602401602060405180830381865afa158015620035cc573d6000803e3d6000fd5b505050506040513d601f19601f82011682018060405250810190620035f2919062005197565b905080821162000e44578162000c6a565b600062000e44826001600160a01b0316633819e5d36040518163ffffffff1660e01b8152600401602060405180830381865afa15801562003648573d6000803e3d6000fd5b505050506040513d601f19601f820116820180604052508101906200366e919062005197565b8490670de0b6b3a7640000620038fc565b60008051602062005e53833981519152600080620036c3620036a062001ff0565b8730620036b2600460008a8c6200553a565b620036bd9162005566565b620044bf565b9150915081620037905763ffffffff8116156200376c57825460ff60a01b1916600160a01b178355620036f562001ff0565b6001600160a01b03166394c7d7ee8787876040518463ffffffff1660e01b8152600401620037269392919062005597565b600060405180830381600087803b1580156200374157600080fd5b505af115801562003756573d6000803e3d6000fd5b5050845460ff60a01b1916855550620037909050565b60405162d1953b60e31b81526001600160a01b0387166004820152602401620016f2565b505050505050565b620037a262002f61565b60008051602062005eb3833981519152805460ff191660011781557f62e78cea01bee320cd4e420270b5ea74000d11b0c9f74754ebdbfc544b05a258335b6040516001600160a01b03909116815260200160405180910390a150565b7fa16a46d94261c7517cc8ff89f61c0ce93598e3c849801011dee649a6a557d102805460609160008051602062005e938339815191529162000c9a90620051b1565b6060600060008051602062005e9383398151915262000c87565b60008060006200386c60035462001294565b905060006007548210620038835760065462003896565b60075460065462003896918490620038fc565b9491935090915050565b600081600003620038bf57620038b78284620055d4565b905062000d40565b8215620038f35781620038d4600185620052ca565b620038e09190620055d4565b620038ed90600162005203565b62000e44565b50600092915050565b600083830281600019858709828110838203039150508060000362003938578382816200392d576200392d620055be565b049250505062000e44565b808411620039595760405163227bc15360e01b815260040160405180910390fd5b6000848688096000868103871696879004966002600389028118808a02820302808a02820302808a02820302808a02820302808a02820302808a02909103029181900381900460010186841190950394909402919094039290920491909117919091029150509392505050565b80600454620039d6919062005203565b600455600554620039e990829062005203565b60055550565b600062000c6a848484620038fc565b6040516311bbd8b360e11b81526001600160a01b03838116600483015233602483015260009162000c6a91841690632377b16690604401602060405180830381865afa15801562003a53573d6000803e3d6000fd5b505050506040513d601f19601f8201168201806040525081019062003a79919062005197565b62003a8d90670de0b6b3a7640000620052ca565b670de0b6b3a764000062003b10856001600160a01b031663abfa94466040518163ffffffff1660e01b8152600401602060405180830381865afa15801562003ad9573d6000803e3d6000fd5b505050506040513d601f19601f8201168201806040525081019062003aff919062005197565b8890670de0b6b3a7640000620038fc565b9190620038fc565b60006001600160a01b038216331462003b445760405163068690bf60e11b815260040160405180910390fd5b62003b4f8262002d0a565b508362003b5c8362002772565b101562003b7c57604051639a5ce56160e01b815260040160405180910390fd5b62003b87846200108f565b60025460405163bd6e3f7d60e01b81526001600160a01b0385811660048301526024820184905292935091169063bd6e3f7d90604401600060405180830381600087803b15801562003bd857600080fd5b505af115801562003bed573d6000803e3d6000fd5b5050505062000e4433848487856200313c565b6060600062003c0f83620045d7565b9050600062003c3885604051806040016040528060018152602001602d60f81b8152506200471f565b9050620017e662003c7f6040518060400160405280601981526020017f53706563747261205072696e636970616c20546f6b656e3a2000000000000000815250836200471f565b836200471f565b6060600062003c9583620045d7565b9050600062003cbe85604051806040016040528060018152602001602d60f81b8152506200471f565b9050620017e662003c7f6040518060400160405280600381526020016250542d60e81b815250836200471f565b62003cf56200474d565b6200173e828262004797565b62003d0b6200474d565b62003d3081604051806040016040528060018152602001603160f81b815250620047ef565b50565b62003d3d6200474d565b6200180862004857565b62003d516200474d565b620018086200487b565b62003d656200474d565b62003d308162004885565b6060600062003d7f83620045d7565b9050600062003da885604051806040016040528060018152602001602d60f81b8152506200471f565b9050620017e662003c7f6040518060400160405280600381526020016259542d60e81b815250836200471f565b6000807f00000000000000000000000000000000000000000000000000000000000000006001600160a01b031663eb2004ce6040518163ffffffff1660e01b8152600401602060405180830381865afa15801562003e37573d6000803e3d6000fd5b505050506040513d601f19601f8201168201806040525081019062003e5d919062005310565b90506001600160a01b03811662003e875760405163773aae1f60e11b815260040160405180910390fd5b8063077f224a60e01b85853060405160240162003ea793929190620055f7565b60408051601f198184030181529181526020820180516001600160e01b03166001600160e01b031990941693909317909252905162003ee69062004d36565b62003ef392919062005639565b604051809103906000f08015801562003f10573d6000803e3d6000fd5b506040519092506001600160a01b038316907f10aa3cadb8a18de745ab06d0fba238e60656c418d78284b27ab6ea75b7b789e490600090a25092915050565b600062000d4062003f5f62003350565b8360405161190160f01b8152600281019290925260228201526042902090565b60008060008062003f93888888886200489a565b92509250925062003fa582826200496e565b50909695505050505050565b600062000e44826001600160a01b0316632f2f3d4e6040518163ffffffff1660e01b8152600401602060405180830381865afa15801562003648573d6000803e3d6000fd5b6200400062004a39565b60008051602062005eb3833981519152805460ff191681557f5db9ee0a495bf2e6ff9c91a7834c1ba4fdd244a5e8aa4e537bd38aeae4b073aa33620037e0565b6000806200404d6200344c565b60085491935091504211620034835760075481146200406c5760078190555b6006548214620034835760068290559091565b60008051602062005e738339815191526001600160a01b038516620040bb5760405163e602df0560e01b815260006004820152602401620016f2565b6001600160a01b038416620040e757604051634a1406b160e11b815260006004820152602401620016f2565b6001600160a01b038086166000908152600183016020908152604080832093881683529290522083905581156200416757836001600160a01b0316856001600160a01b03167f8c5be1e5ebec7d5bd14f71427d1e84f3dd0314c0f7b2291e5b200ac8c7c3b925856040516200415e91815260200190565b60405180910390a35b5050505050565b6000620041856001600160a01b0384168362004a6b565b90508051600014158015620041ad575080806020019051810190620041ab919062005670565b155b156200147857604051635274afe760e01b81526001600160a01b0384166004820152602401620016f2565b620041e4838262004a7b565b826001600160a01b0316846001600160a01b03167fdcbc1c05240f31ff3ad067ef1ee35ce4997762752e3a095284754544f4c709d7848460405162004233929190918252602082015260400190565b60405180910390a350505050565b6001600160a01b0382166200426d57604051634b637e8f60e11b815260006004820152602401620016f2565b6200173e826000835b60008051602062005e738339815191526001600160a01b038416620042b75781816002016000828254620042ab919062005203565b909155506200432b9050565b6001600160a01b038416600090815260208290526040902054828110156200430c5760405163391434e360e21b81526001600160a01b03861660048201526024810182905260448101849052606401620016f2565b6001600160a01b03851660009081526020839052604090209083900390555b6001600160a01b0383166200434b5760028101805483900390556200436a565b6001600160a01b03831660009081526020829052604090208054830190555b826001600160a01b0316846001600160a01b03167fddf252ad1be2c89b69c2b068fc378daa952ba7f163c4a11628f55a4df523b3ef846040516200423391815260200190565b604080516001600160a01b038416602482015260448082018490528251808303909101815260649091019091526020810180516001600160e01b031663095ea7b360e01b17905262004403848262004ab5565b62003037576040516001600160a01b038481166024830152600060448301526200443b91869182169063095ea7b39060640162003004565b6200303784826200416e565b60007f8b73c3c69bb8fe3d512ecc4cf759cc79239f7b179b0ffacaa9a75d522b39400f6200447462004b61565b6200447e62004bd0565b60408051602081019490945283019190915260608201524660808201523060a082015260c00160405160208183030381529060405280519060200120905090565b6040516001600160a01b03848116602483015283811660448301526001600160e01b03198316606483015260009182918291829189169060840160408051601f198184030181529181526020820180516001600160e01b031663b700961360e01b179052516200453091906200568e565b600060405180830381855afa9150503d80600081146200456d576040519150601f19603f3d011682016040523d82523d6000602084013e62004572565b606091505b50915091508115620045cc576040815110620045a957808060200190518101906200459e9190620056ac565b9094509250620045cc565b6020815110620045cc5780806020019051810190620045c9919062005670565b93505b505094509492505050565b606081600003620045ff5750506040805180820190915260018152600360fc1b602082015290565b8160005b81156200462f57806200461681620056e5565b9150620046279050600a83620055d4565b915062004603565b60008167ffffffffffffffff8111156200464d576200464d620052e0565b6040519080825280601f01601f19166020018201604052801562004678576020820181803683370190505b509050815b8515620047165762004691600182620052ca565b90506000620046a2600a88620055d4565b620046af90600a620052f6565b620046bb9088620052ca565b620046c890603062005701565b905060008160f81b905080848481518110620046e857620046e86200571d565b60200101906001600160f81b031916908160001a9053506200470c600a89620055d4565b975050506200467d565b50949350505050565b606082826040516020016200473692919062005733565b604051602081830303815290604052905092915050565b7ff0c57e16840df040f15088dc2f81fe391c3923bec73e23a9662efc9c229c6a0054600160401b900460ff166200180857604051631afcd79f60e31b815260040160405180910390fd5b620047a16200474d565b60008051602062005e738339815191527f52c63247e1f47db19d5ce0460030c497f067ca4cebf71ba98eeadabe20bace03620047de8482620057b0565b5060048101620030378382620057b0565b620047f96200474d565b60008051602062005e938339815191527fa16a46d94261c7517cc8ff89f61c0ce93598e3c849801011dee649a6a557d102620048368482620057b0565b5060038101620048478382620057b0565b5060008082556001909101555050565b620048616200474d565b60008051602062005eb3833981519152805460ff19169055565b620031276200474d565b6200488f6200474d565b62003d3081620033c0565b600080807f7fffffffffffffffffffffffffffffff5d576e7357a4501ddfe92f46681b20a0841115620048d7575060009150600390508262004964565b604080516000808252602082018084528a905260ff891692820192909252606081018790526080810186905260019060a0016020604051602081039080840390855afa1580156200492c573d6000803e3d6000fd5b5050604051601f1901519150506001600160a01b0381166200495a5750600092506001915082905062004964565b9250600091508190505b9450945094915050565b60008260038111156200498557620049856200587d565b036200498f575050565b6001826003811115620049a657620049a66200587d565b03620049c55760405163f645eedf60e01b815260040160405180910390fd5b6002826003811115620049dc57620049dc6200587d565b03620049ff5760405163fce698f760e01b815260048101829052602401620016f2565b600382600381111562004a165762004a166200587d565b036200173e576040516335e2f38360e21b815260048101829052602401620016f2565b60008051602062005eb38339815191525460ff166200180857604051638dfc202b60e01b815260040160405180910390fd5b606062000e448383600062004c19565b6001600160a01b03821662004aa75760405163ec442f0560e01b815260006004820152602401620016f2565b6200173e6000838362004276565b6000806000846001600160a01b03168460405162004ad491906200568e565b6000604051808303816000865af19150503d806000811462004b13576040519150601f19603f3d011682016040523d82523d6000602084013e62004b18565b606091505b509150915081801562004b4657508051158062004b4657508080602001905181019062004b46919062005670565b8015620017e65750505050506001600160a01b03163b151590565b600060008051602062005e938339815191528162004b7e620037fe565b80519091501562004b9757805160209091012092915050565b8154801562004ba7579392505050565b7fc5d2460186f7233c927e7db2dcc703c0e500b653ca82273b7bfad8045d85a470935050505090565b600060008051602062005e938339815191528162004bed62003840565b80519091501562004c0657805160209091012092915050565b6001820154801562004ba7579392505050565b60608147101562004c405760405163cd78605960e01b8152306004820152602401620016f2565b600080856001600160a01b0316848660405162004c5e91906200568e565b60006040518083038185875af1925050503d806000811462004c9d576040519150601f19603f3d011682016040523d82523d6000602084013e62004ca2565b606091505b50915091506200281586838360608262004cc157620038ed8262004d0c565b815115801562004cd957506001600160a01b0384163b155b1562004d0457604051639996b31560e01b81526001600160a01b0385166004820152602401620016f2565b508062000e44565b80511562004d1d5780518082602001fd5b604051630a12f52160e11b815260040160405180910390fd5b6105bf806200589483390190565b6001600160a01b038116811462003d3057600080fd5b6000806000806080858703121562004d7157600080fd5b84359350602085013562004d858162004d44565b9250604085013562004d978162004d44565b9396929550929360600135925050565b60005b8381101562004dc457818101518382015260200162004daa565b50506000910152565b6000815180845262004de781602086016020860162004da7565b601f01601f19169290920160200192915050565b60208152600062000e44602083018462004dcd565b60006020828403121562004e2357600080fd5b5035919050565b6000806040838503121562004e3e57600080fd5b823562004e4b8162004d44565b946020939093013593505050565b60008060006060848603121562004e6f57600080fd5b83359250602084013562004e838162004d44565b9150604084013562004e958162004d44565b809150509250925092565b60006020828403121562004eb357600080fd5b813562000e448162004d44565b60008060006060848603121562004ed657600080fd5b833562004ee38162004d44565b9250602084013562004ef58162004d44565b929592945050506040919091013590565b6000806040838503121562004f1a57600080fd5b823562004f278162004d44565b9150602083013562004f398162004d44565b809150509250929050565b60008060008060006080868803121562004f5d57600080fd5b853562004f6a8162004d44565b9450602086013562004f7c8162004d44565b935060408601359250606086013567ffffffffffffffff8082111562004fa157600080fd5b818801915088601f83011262004fb657600080fd5b81358181111562004fc657600080fd5b89602082850101111562004fd957600080fd5b9699959850939650602001949392505050565b600080604083850312156200500057600080fd5b82359150602083013562004f398162004d44565b600080604083850312156200502857600080fd5b50508035926020909101359150565b60ff60f81b881681526000602060e0818401526200505960e084018a62004dcd565b83810360408501526200506d818a62004dcd565b606085018990526001600160a01b038816608086015260a0850187905284810360c0860152855180825283870192509083019060005b81811015620050c157835183529284019291840191600101620050a3565b50909c9b505050505050505050505050565b600080600060608486031215620050e957600080fd5b8335620050f68162004d44565b925060208401359150604084013562004e958162004d44565b60ff8116811462003d3057600080fd5b600080600080600080600060e0888a0312156200513b57600080fd5b8735620051488162004d44565b965060208801356200515a8162004d44565b9550604088013594506060880135935060808801356200517a816200510f565b9699959850939692959460a0840135945060c09093013592915050565b600060208284031215620051aa57600080fd5b5051919050565b600181811c90821680620051c657607f821691505b602082108103620051e757634e487b7160e01b600052602260045260246000fd5b50919050565b634e487b7160e01b600052601160045260246000fd5b8082018082111562000d405762000d40620051ed565b9283526001600160a01b03918216602084015216604082015260600190565b6000602082840312156200524b57600080fd5b815162000e44816200510f565b81835281816020850137506000828201602090810191909152601f909101601f19169091010190565b6001600160a01b03878116825286166020820152604081018590526060810184905260a060808201819052600090620052be908301848662005258565b98975050505050505050565b8181038181111562000d405762000d40620051ed565b634e487b7160e01b600052604160045260246000fd5b808202811582820484141762000d405762000d40620051ed565b6000602082840312156200532357600080fd5b815162000e448162004d44565b6000602082840312156200534357600080fd5b815167ffffffffffffffff808211156200535c57600080fd5b818401915084601f8301126200537157600080fd5b815181811115620053865762005386620052e0565b604051601f8201601f19908116603f01168101908382118183101715620053b157620053b1620052e0565b81604052828152876020848701011115620053cb57600080fd5b620053de83602083016020880162004da7565b979650505050505050565b600181815b808511156200542a5781600019048211156200540e576200540e620051ed565b808516156200541c57918102915b93841c9390800290620053ee565b509250929050565b600082620054435750600162000d40565b81620054525750600062000d40565b81600181146200546b5760028114620054765762005496565b600191505062000d40565b60ff8411156200548a576200548a620051ed565b50506001821b62000d40565b5060208310610133831016604e8410600b8410161715620054bb575081810a62000d40565b620054c78383620053e9565b8060001904821115620054de57620054de620051ed565b029392505050565b600062000e44838362005432565b6001600160a01b039889168152602081019790975260408701959095526060860193909352608085019190915260a084015260c083015290911660e08201526101000190565b600080858511156200554b57600080fd5b838611156200555957600080fd5b5050820193919092039150565b6001600160e01b031981358181169160048510156200558f5780818660040360031b1b83161692505b505092915050565b6001600160a01b0384168152604060208201819052600090620017e6908301848662005258565b634e487b7160e01b600052601260045260246000fd5b600082620055f257634e487b7160e01b600052601260045260246000fd5b500490565b6060815260006200560c606083018662004dcd565b828103602084015262005620818662004dcd565b91505060018060a01b0383166040830152949350505050565b6001600160a01b038316815260406020820181905260009062000c6a9083018462004dcd565b8051801515811462000d9b57600080fd5b6000602082840312156200568357600080fd5b62000e44826200565f565b60008251620056a281846020870162004da7565b9190910192915050565b60008060408385031215620056c057600080fd5b620056cb836200565f565b9150602083015163ffffffff8116811462004f3957600080fd5b600060018201620056fa57620056fa620051ed565b5060010190565b60ff818116838216019081111562000d405762000d40620051ed565b634e487b7160e01b600052603260045260246000fd5b600083516200574781846020880162004da7565b8351908301906200575d81836020880162004da7565b01949350505050565b601f8211156200147857600081815260208120601f850160051c810160208610156200578f5750805b601f850160051c820191505b8181101562003790578281556001016200579b565b815167ffffffffffffffff811115620057cd57620057cd620052e0565b620057e581620057de8454620051b1565b8462005766565b602080601f8311600181146200581d5760008415620058045750858301515b600019600386901b1c1916600185901b17855562003790565b600085815260208120601f198616915b828110156200584e578886015182559484019460019091019084016200582d565b50858210156200586d5787850151600019600388901b60f8161c191681555b5050505050600190811b01905550565b634e487b7160e01b600052602160045260246000fdfe60a06040526040516105bf3803806105bf83398101604081905261002291610387565b61002c828261003e565b506001600160a01b031660805261047e565b610047826100fe565b6040516001600160a01b038316907f1cf3b03a6cf19fa2baba4df148e9dcabedea7f8a5c07840e207e5c089be95d3e90600090a28051156100f2576100ed826001600160a01b0316635c60da1b6040518163ffffffff1660e01b8152600401602060405180830381865afa1580156100c3573d6000803e3d6000fd5b505050506040513d601f19601f820116820180604052508101906100e79190610447565b82610211565b505050565b6100fa610288565b5050565b806001600160a01b03163b60000361013957604051631933b43b60e21b81526001600160a01b03821660048201526024015b60405180910390fd5b807fa3f0ad74e5423aebfd80d3ef4346578335a9a72aeaee59ff6cb3582b35133d5080546001600160a01b0319166001600160a01b0392831617905560408051635c60da1b60e01b81529051600092841691635c60da1b9160048083019260209291908290030181865afa1580156101b5573d6000803e3d6000fd5b505050506040513d601f19601f820116820180604052508101906101d99190610447565b9050806001600160a01b03163b6000036100fa57604051634c9c8ce360e01b81526001600160a01b0382166004820152602401610130565b6060600080846001600160a01b03168460405161022e9190610462565b600060405180830381855af49150503d8060008114610269576040519150601f19603f3d011682016040523d82523d6000602084013e61026e565b606091505b50909250905061027f8583836102a9565b95945050505050565b34156102a75760405163b398979f60e01b815260040160405180910390fd5b565b6060826102be576102b982610308565b610301565b81511580156102d557506001600160a01b0384163b155b156102fe57604051639996b31560e01b81526001600160a01b0385166004820152602401610130565b50805b9392505050565b8051156103185780518082602001fd5b604051630a12f52160e11b815260040160405180910390fd5b80516001600160a01b038116811461034857600080fd5b919050565b634e487b7160e01b600052604160045260246000fd5b60005b8381101561037e578181015183820152602001610366565b50506000910152565b6000806040838503121561039a57600080fd5b6103a383610331565b60208401519092506001600160401b03808211156103c057600080fd5b818501915085601f8301126103d457600080fd5b8151818111156103e6576103e661034d565b604051601f8201601f19908116603f0116810190838211818310171561040e5761040e61034d565b8160405282815288602084870101111561042757600080fd5b610438836020830160208801610363565b80955050505050509250929050565b60006020828403121561045957600080fd5b61030182610331565b60008251610474818460208701610363565b9190910192915050565b6080516101276104986000396000601e01526101276000f3fe6080604052600a600c565b005b60186014601a565b60a0565b565b60007f00000000000000000000000000000000000000000000000000000000000000006001600160a01b0316635c60da1b6040518163ffffffff1660e01b8152600401602060405180830381865afa1580156079573d6000803e3d6000fd5b505050506040513d601f19601f82011682018060405250810190609b919060c3565b905090565b3660008037600080366000845af43d6000803e80801560be573d6000f35b3d6000fd5b60006020828403121560d457600080fd5b81516001600160a01b038116811460ea57600080fd5b939250505056fea2646970667358221220899873c8342b6aaca54ba95496455fccaee26c56e9fd22af16332e42545ec30864736f6c63430008140033f3177357ab46d8af007ab3fdb9af81da189e1068fefdc0073dca88a2cab40a0052c63247e1f47db19d5ce0460030c497f067ca4cebf71ba98eeadabe20bace00a16a46d94261c7517cc8ff89f61c0ce93598e3c849801011dee649a6a557d100cd5ed15c6e187e77e9aee88184c21f4f2182ab5827cb3b7e07fbedcd63f033009b779b17422d0df92223018b32b4d1fa46e071723d6817e2486d003becc55f00a26469706673582212203af588b55a86ebd0c479b304edeae453c6b51031cf243f4b9f3d4cee62ec230d64736f6c63430008140033",
    "linkReferences": {
      "src/util/lib/PrincipalTokenUtil.sol": {
        "PrincipalTokenUtil": [
          {
            "start": 12177,
            "length": 20
          },
          {
            "start": 13954,
            "length": 20
          }
        ]
      }
    }
  },
  "methodIdentifiers": {
    "DOMAIN_SEPARATOR()": "3644e515",
    "allowance(address,address)": "dd62ed3e",
    "approve(address,uint256)": "095ea7b3",
    "asset()": "38d52e0f",
    "authority()": "bf7e214f",
    "balanceOf(address)": "70a08231",
    "beforeYtTransfer(address,address)": "4f72ec2f",
    "claimFees()": "d294f093",
    "claimYield()": "406cf229",
    "claimYieldOfYTAmount(uint256)": "a95398d9",
    "convertToAssets(uint256)": "07a2d13a",
    "convertToAssetsOfIBT(uint256)": "3ca7c82d",
    "convertToAssetsWithRate(uint256,uint256)": "aca505f7",
    "convertToPrincipal(uint256)": "25a8d87d",
    "convertToShares(uint256)": "c6e6f592",
    "convertToSharesOfIBT(uint256)": "b346db0c",
    "convertToSharesWithRate(uint256,uint256)": "75ba1dac",
    "convertToUnderlying(uint256)": "1dc7f521",
    "decimals()": "313ce567",
    "deposit(uint256,address)": "6e553f65",
    "deposit(uint256,address,address)": "2e2d2984",
    "deposit(uint256,address,address,uint256)": "e4cca4b0",
    "depositWithIBT(uint256,address)": "bafc0f14",
    "depositWithIBT(uint256,address,address)": "0ad225bc",
    "depositWithIBT(uint256,address,address,uint256)": "d4b6e0bd",
    "eip712Domain()": "84b0196e",
    "flashFee(address,uint256)": "d9d98ce4",
    "flashLoan(address,address,uint256,bytes)": "5cffe9de",
    "getCurrentYieldInIBTOfUser(address)": "b2b84d94",
    "getDuration()": "ad2e8c9b",
    "getIBT()": "c644fe94",
    "getIBTRate()": "efd98dc2",
    "getIBTRateAtExpiry()": "2b930fa3",
    "getIBTUnit()": "1f2b4f24",
    "getPTRate()": "a1c5b3e1",
    "getPTRateAtExpiry()": "6956df17",
    "getTotalFeesInIBT()": "4f5867a4",
    "getUnclaimedFeesInIBT()": "714d422b",
    "getYT()": "04aa50ad",
    "ibtRateOfUser(address)": "68f5e0e3",
    "initialize(address,uint256,address)": "c350a1b5",
    "isConsumingScheduledOp()": "8fb36037",
    "maturity()": "204f83f9",
    "maxDeposit(address)": "402d267d",
    "maxFlashLoan(address)": "613255ab",
    "maxMint(address)": "c63d75b6",
    "maxRedeem(address)": "d905777e",
    "maxWithdraw(address)": "ce96cb77",
    "maxWithdrawAndClaimAll(address)": "8415c42e",
    "mint(uint256,address)": "94bf804d",
    "mint(uint256,address,address)": "da39b3e7",
    "mint(uint256,address,address,uint256)": "074ee446",
    "name()": "06fdde03",
    "nonces(address)": "7ecebe00",
    "pause()": "8456cb59",
    "paused()": "5c975abb",
    "permit(address,address,uint256,uint256,uint8,bytes32,bytes32)": "d505accf",
    "previewDeposit(uint256)": "ef8b30f7",
    "previewDepositWithIBT(uint256)": "fb898304",
    "previewMint(uint256)": "b3d7f6b9",
    "previewRedeem(uint256)": "4cdad506",
    "previewWithdraw(uint256)": "0a28a477",
    "previewWithdrawInIBT(uint256)": "480634b9",
    "ptRateOfUser(address)": "4c53f49c",
    "redeem(uint256,address,address)": "ba087652",
    "redeem(uint256,address,address,uint256)": "9f40a7b3",
    "setAuthority(address)": "7a9e5e4b",
    "storeRatesAtExpiry()": "a13c91a3",
    "symbol()": "95d89b41",
    "totalAssets()": "01e1d114",
    "totalSupply()": "18160ddd",
    "transfer(address,uint256)": "a9059cbb",
    "transferFrom(address,address,uint256)": "23b872dd",
    "unPause()": "f7b188a5",
    "underlying()": "6f307dc3",
    "updateYield(address)": "f90d63db",
    "withdraw(uint256,address,address)": "b460af94",
    "withdraw(uint256,address,address,uint256)": "a318c1a4",
    "withdrawAfterExpiry(address)": "cc834969",
    "withdrawAndClaimAll(address)": "2377150a",
    "withdrawInIBT(uint256,address,address)": "dde5f6e8",
    "withdrawInIBT(uint256,address,address,uint256)": "0449e1cd",
    "yieldOfUserInIBT(address)": "2c660fbc"
  },
  "id": 129
}