{
  "abi": [
    {
      "inputs": [],
      "stateMutability": "nonpayable",
      "type": "constructor"
    },
    {
      "inputs": [
        {
          "internalType": "string",
          "name": "reason",
          "type": "string"
        }
      ],
      "name": "RegistryError",
      "type": "error"
    },
    {
      "anonymous": false,
      "inputs": [
        {
          "indexed": false,
          "internalType": "uint8",
          "name": "version",
          "type": "uint8"
        }
      ],
      "name": "Initialized",
      "type": "event"
    },
    {
      "anonymous": false,
      "inputs": [
        {
          "indexed": true,
          "internalType": "address",
          "name": "previousOwner",
          "type": "address"
        },
        {
          "indexed": true,
          "internalType": "address",
          "name": "newOwner",
          "type": "address"
        }
      ],
      "name": "OwnershipTransferStarted",
      "type": "event"
    },
    {
      "anonymous": false,
      "inputs": [
        {
          "indexed": true,
          "internalType": "address",
          "name": "previousOwner",
          "type": "address"
        },
        {
          "indexed": true,
          "internalType": "address",
          "name": "newOwner",
          "type": "address"
        }
      ],
      "name": "OwnershipTransferred",
      "type": "event"
    },
    {
      "anonymous": false,
      "inputs": [
        {
          "indexed": true,
          "internalType": "address",
          "name": "principalToken",
          "type": "address"
        }
      ],
      "name": "PrincipalTokenAdded",
      "type": "event"
    },
    {
      "anonymous": false,
      "inputs": [
        {
          "indexed": true,
          "internalType": "address",
          "name": "_old",
          "type": "address"
        },
        {
          "indexed": true,
          "internalType": "address",
          "name": "_new",
          "type": "address"
        }
      ],
      "name": "PrincipalTokenFactoryUpdated",
      "type": "event"
    },
    {
      "anonymous": false,
      "inputs": [
        {
          "indexed": true,
          "internalType": "address",
          "name": "principalToken",
          "type": "address"
        }
      ],
      "name": "PrincipalTokenRemoved",
      "type": "event"
    },
    {
      "anonymous": false,
      "inputs": [
        {
          "indexed": true,
          "internalType": "address",
          "name": "zapDepositor",
          "type": "address"
        }
      ],
      "name": "ZapDepositorUpdated",
      "type": "event"
    },
    {
      "inputs": [],
      "name": "acceptOwnership",
      "outputs": [],
      "stateMutability": "nonpayable",
      "type": "function"
    },
    {
      "inputs": [
        {
          "internalType": "address",
          "name": "_principalToken",
          "type": "address"
        }
      ],
      "name": "addPrincipalToken",
      "outputs": [],
      "stateMutability": "nonpayable",
      "type": "function"
    },
    {
      "inputs": [
        {
          "internalType": "uint256",
          "name": "_index",
          "type": "uint256"
        }
      ],
      "name": "getPrincipalTokenAt",
      "outputs": [
        {
          "internalType": "address",
          "name": "",
          "type": "address"
        }
      ],
      "stateMutability": "view",
      "type": "function"
    },
    {
      "inputs": [],
      "name": "getPrincipalTokenFactoryAddress",
      "outputs": [
        {
          "internalType": "address",
          "name": "",
          "type": "address"
        }
      ],
      "stateMutability": "view",
      "type": "function"
    },
    {
      "inputs": [],
      "name": "getZapDepositor",
      "outputs": [
        {
          "internalType": "address",
          "name": "",
          "type": "address"
        }
      ],
      "stateMutability": "view",
      "type": "function"
    },
    {
      "inputs": [],
      "name": "initialize",
      "outputs": [],
      "stateMutability": "nonpayable",
      "type": "function"
    },
    {
      "inputs": [
        {
          "internalType": "address",
          "name": "_principalToken",
          "type": "address"
        }
      ],
      "name": "isRegisteredPrincipalToken",
      "outputs": [
        {
          "internalType": "bool",
          "name": "",
          "type": "bool"
        }
      ],
      "stateMutability": "view",
      "type": "function"
    },
    {
      "inputs": [],
      "name": "owner",
      "outputs": [
        {
          "internalType": "address",
          "name": "",
          "type": "address"
        }
      ],
      "stateMutability": "view",
      "type": "function"
    },
    {
      "inputs": [],
      "name": "pendingOwner",
      "outputs": [
        {
          "internalType": "address",
          "name": "",
          "type": "address"
        }
      ],
      "stateMutability": "view",
      "type": "function"
    },
    {
      "inputs": [],
      "name": "principalTokenCount",
      "outputs": [
        {
          "internalType": "uint256",
          "name": "",
          "type": "uint256"
        }
      ],
      "stateMutability": "view",
      "type": "function"
    },
    {
      "inputs": [
        {
          "internalType": "address",
          "name": "_principalToken",
          "type": "address"
        }
      ],
      "name": "removePrincipalToken",
      "outputs": [],
      "stateMutability": "nonpayable",
      "type": "function"
    },
    {
      "inputs": [],
      "name": "renounceOwnership",
      "outputs": [],
      "stateMutability": "nonpayable",
      "type": "function"
    },
    {
      "inputs": [
        {
          "internalType": "address",
          "name": "_newPrincipalTokenFactory",
          "type": "address"
        }
      ],
      "name": "setPrincipalTokenFactory",
      "outputs": [],
      "stateMutability": "nonpayable",
      "type": "function"
    },
    {
      "inputs": [
        {
          "internalType": "address",
          "name": "_zap",
          "type": "address"
        }
      ],
      "name": "setZapDepositor",
      "outputs": [],
      "stateMutability": "nonpayable",
      "type": "function"
    },
    {
      "inputs": [
        {
          "internalType": "address",
          "name": "newOwner",
          "type": "address"
        }
      ],
      "name": "transferOwnership",
      "outputs": [],
      "stateMutability": "nonpayable",
      "type": "function"
    }
  ],
  "bytecode": {
    "object": "0x608060405234801561001057600080fd5b5061001961001e565b6100dd565b600054610100900460ff161561008a5760405162461bcd60e51b815260206004820152602760248201527f496e697469616c697a61626c653a20636f6e747261637420697320696e697469604482015266616c697a696e6760c81b606482015260840160405180910390fd5b60005460ff908116146100db576000805460ff191660ff9081179091556040519081527f7f26b83ff96e1f2b6a682f133852f6798a09c465da95921460cefb38474024989060200160405180910390a15b565b610b1a806100ec6000396000f3fe608060405234801561001057600080fd5b50600436106100f55760003560e01c806379ba509711610097578063c96019a811610066578063c96019a8146101cf578063e0ecf8ad146101e2578063e30c3978146101f8578063f2fde38b1461020957600080fd5b806379ba50971461019b5780638129fc1c146101a35780638da5cb5b146101ab578063a0bc97db146101bc57600080fd5b80636fb3c766116100d35780636fb3c7661461014a578063715018a61461015d578063750ca58614610165578063766a1b6c1461018857600080fd5b80630e5f99c5146100fa578063241fee1514610124578063509414ad14610139575b600080fd5b609a546001600160a01b03165b6040516001600160a01b0390911681526020015b60405180910390f35b610137610132366004610a06565b61021c565b005b6097546001600160a01b0316610107565b610107610158366004610a2f565b6102b8565b6101376102cb565b610178610173366004610a06565b6102df565b604051901515815260200161011b565b610137610196366004610a06565b6102ec565b6101376103c1565b61013761043b565b6033546001600160a01b0316610107565b6101376101ca366004610a06565b61054b565b6101376101dd366004610a06565b6105f4565b6101ea61068b565b60405190815260200161011b565b6065546001600160a01b0316610107565b610137610217366004610a06565b61069c565b61022461070d565b61022f609882610767565b6102815760405163582dfed360e11b815260206004820152601c60248201527f4572726f7220616464696e67207072696e636970616c20746f6b656e0000000060448201526064015b60405180910390fd5b6040516001600160a01b038216907fbf7bcee7480b1c77c06547ef8fd0cfacfb518606c897ba637ca0c9061533042f90600090a250565b60006102c5609883610783565b92915050565b6102d361070d565b6102dd600061078f565b565b60006102c56098836107a8565b6102f461070d565b6001600160a01b0381166103655760405163582dfed360e11b815260206004820152603160248201527f43616e6e6f7420736574207072696e636970616c546f6b656e20666163746f726044820152707920746f207a65726f206164647265737360781b6064820152608401610278565b6097546040516001600160a01b038084169216907f2f4a7b447d797ed79d75520e3025655337b66af99ac7b09c7c4c3bb8bf6365f790600090a3609780546001600160a01b0319166001600160a01b0392909216919091179055565b60655433906001600160a01b0316811461042f5760405162461bcd60e51b815260206004820152602960248201527f4f776e61626c6532537465703a2063616c6c6572206973206e6f7420746865206044820152683732bb9037bbb732b960b91b6064820152608401610278565b6104388161078f565b50565b600054610100900460ff161580801561045b5750600054600160ff909116105b806104755750303b158015610475575060005460ff166001145b6104d85760405162461bcd60e51b815260206004820152602e60248201527f496e697469616c697a61626c653a20636f6e747261637420697320616c72656160448201526d191e481a5b9a5d1a585b1a5e995960921b6064820152608401610278565b6000805460ff1916600117905580156104fb576000805461ff0019166101001790555b6105036107ca565b8015610438576000805461ff0019169055604051600181527f7f26b83ff96e1f2b6a682f133852f6798a09c465da95921460cefb38474024989060200160405180910390a150565b61055361070d565b6001600160a01b0381166105aa5760405163582dfed360e11b815260206004820152601e60248201527f43616e6e6f7420736574207a617020746f207a65726f206164647265737300006044820152606401610278565b609a80546001600160a01b0319166001600160a01b0383169081179091556040517f1c255e703fa5d19943f36dab3917d0758da9a31211bf55b91b4230cc9a9aa56e90600090a250565b6105fc61070d565b6106076098826107f9565b6106545760405163582dfed360e11b815260206004820152601e60248201527f4572726f722072656d6f76696e67207072696e636970616c20746f6b656e00006044820152606401610278565b6040516001600160a01b038216907fc690541461a4cee9666e3815924fe8130226dea7b434be0fb929f43dcaaa9a6d90600090a250565b6000610697609861080e565b905090565b6106a461070d565b606580546001600160a01b0383166001600160a01b031990911681179091556106d56033546001600160a01b031690565b6001600160a01b03167f38d16b8cac22d99fc7c124b9cd0de2d3fa1faef420bfe791d8c362d765e2270060405160405180910390a350565b6033546001600160a01b031633146102dd5760405162461bcd60e51b815260206004820181905260248201527f4f776e61626c653a2063616c6c6572206973206e6f7420746865206f776e65726044820152606401610278565b600061077c836001600160a01b038416610818565b9392505050565b600061077c8383610867565b606580546001600160a01b031916905561043881610891565b6001600160a01b0381166000908152600183016020526040812054151561077c565b600054610100900460ff166107f15760405162461bcd60e51b815260040161027890610a48565b6102dd6108e3565b600061077c836001600160a01b038416610913565b60006102c5825490565b600081815260018301602052604081205461085f575081546001818101845560008481526020808220909301849055845484825282860190935260409020919091556102c5565b5060006102c5565b600082600001828154811061087e5761087e610a93565b9060005260206000200154905092915050565b603380546001600160a01b038381166001600160a01b0319831681179093556040519116919082907f8be0079c531659141344cd1fd0a4f28419497f9722a3daafe3b4186f6b6457e090600090a35050565b600054610100900460ff1661090a5760405162461bcd60e51b815260040161027890610a48565b6102dd3361078f565b600081815260018301602052604081205480156109fc576000610937600183610aa9565b855490915060009061094b90600190610aa9565b90508181146109b057600086600001828154811061096b5761096b610a93565b906000526020600020015490508087600001848154811061098e5761098e610a93565b6000918252602080832090910192909255918252600188019052604090208390555b85548690806109c1576109c1610ace565b6001900381819060005260206000200160009055905585600101600086815260200190815260200160002060009055600193505050506102c5565b60009150506102c5565b600060208284031215610a1857600080fd5b81356001600160a01b038116811461077c57600080fd5b600060208284031215610a4157600080fd5b5035919050565b6020808252602b908201527f496e697469616c697a61626c653a20636f6e7472616374206973206e6f74206960408201526a6e697469616c697a696e6760a81b606082015260800190565b634e487b7160e01b600052603260045260246000fd5b600082821015610ac957634e487b7160e01b600052601160045260246000fd5b500390565b634e487b7160e01b600052603160045260246000fdfea26469706673582212209d441970a745482173c3f922cdeef590db593b023a337dd5a375da9835c8bb5164736f6c634300080d0033",
    "linkReferences": {}
  },
  "methodIdentifiers": {
    "acceptOwnership()": "79ba5097",
    "addPrincipalToken(address)": "241fee15",
    "getPrincipalTokenAt(uint256)": "6fb3c766",
    "getPrincipalTokenFactoryAddress()": "509414ad",
    "getZapDepositor()": "0e5f99c5",
    "initialize()": "8129fc1c",
    "isRegisteredPrincipalToken(address)": "750ca586",
    "owner()": "8da5cb5b",
    "pendingOwner()": "e30c3978",
    "principalTokenCount()": "e0ecf8ad",
    "removePrincipalToken(address)": "c96019a8",
    "renounceOwnership()": "715018a6",
    "setPrincipalTokenFactory(address)": "766a1b6c",
    "setZapDepositor(address)": "a0bc97db",
    "transferOwnership(address)": "f2fde38b"
  },
  "id": 64
}