{
  "abi": [
    {
      "anonymous": false,
      "inputs": [
        {
          "indexed": false,
          "internalType": "uint8",
          "name": "version",
          "type": "uint8"
        }
      ],
      "name": "Initialized",
      "type": "event"
    },
    {
      "anonymous": false,
      "inputs": [
        {
          "indexed": false,
          "internalType": "string",
          "name": "_contractName",
          "type": "string"
        },
        {
          "indexed": false,
          "internalType": "address",
          "name": "_old",
          "type": "address"
        },
        {
          "indexed": false,
          "internalType": "address",
          "name": "_new",
          "type": "address"
        }
      ],
      "name": "RegistryUpdate",
      "type": "event"
    },
    {
      "anonymous": false,
      "inputs": [
        {
          "indexed": true,
          "internalType": "bytes32",
          "name": "role",
          "type": "bytes32"
        },
        {
          "indexed": true,
          "internalType": "bytes32",
          "name": "previousAdminRole",
          "type": "bytes32"
        },
        {
          "indexed": true,
          "internalType": "bytes32",
          "name": "newAdminRole",
          "type": "bytes32"
        }
      ],
      "name": "RoleAdminChanged",
      "type": "event"
    },
    {
      "anonymous": false,
      "inputs": [
        {
          "indexed": true,
          "internalType": "bytes32",
          "name": "role",
          "type": "bytes32"
        },
        {
          "indexed": true,
          "internalType": "address",
          "name": "account",
          "type": "address"
        },
        {
          "indexed": true,
          "internalType": "address",
          "name": "sender",
          "type": "address"
        }
      ],
      "name": "RoleGranted",
      "type": "event"
    },
    {
      "anonymous": false,
      "inputs": [
        {
          "indexed": true,
          "internalType": "bytes32",
          "name": "role",
          "type": "bytes32"
        },
        {
          "indexed": true,
          "internalType": "address",
          "name": "account",
          "type": "address"
        },
        {
          "indexed": true,
          "internalType": "address",
          "name": "sender",
          "type": "address"
        }
      ],
      "name": "RoleRevoked",
      "type": "event"
    },
    {
      "inputs": [],
      "name": "ADMIN_ROLE",
      "outputs": [
        {
          "internalType": "bytes32",
          "name": "",
          "type": "bytes32"
        }
      ],
      "stateMutability": "view",
      "type": "function"
    },
    {
      "inputs": [],
      "name": "DEFAULT_ADMIN_ROLE",
      "outputs": [
        {
          "internalType": "bytes32",
          "name": "",
          "type": "bytes32"
        }
      ],
      "stateMutability": "view",
      "type": "function"
    },
    {
      "inputs": [],
      "name": "FUTURE_MANAGER_ROLE",
      "outputs": [
        {
          "internalType": "bytes32",
          "name": "",
          "type": "bytes32"
        }
      ],
      "stateMutability": "view",
      "type": "function"
    },
    {
      "inputs": [
        {
          "internalType": "address",
          "name": "_future",
          "type": "address"
        }
      ],
      "name": "addFutureVault",
      "outputs": [],
      "stateMutability": "nonpayable",
      "type": "function"
    },
    {
      "inputs": [],
      "name": "futureVaultCount",
      "outputs": [
        {
          "internalType": "uint256",
          "name": "",
          "type": "uint256"
        }
      ],
      "stateMutability": "view",
      "type": "function"
    },
    {
      "inputs": [
        {
          "internalType": "uint256",
          "name": "_index",
          "type": "uint256"
        }
      ],
      "name": "getFutureVaultAt",
      "outputs": [
        {
          "internalType": "address",
          "name": "",
          "type": "address"
        }
      ],
      "stateMutability": "view",
      "type": "function"
    },
    {
      "inputs": [
        {
          "internalType": "bytes32",
          "name": "role",
          "type": "bytes32"
        }
      ],
      "name": "getRoleAdmin",
      "outputs": [
        {
          "internalType": "bytes32",
          "name": "",
          "type": "bytes32"
        }
      ],
      "stateMutability": "view",
      "type": "function"
    },
    {
      "inputs": [],
      "name": "getTokensFactoryAddress",
      "outputs": [
        {
          "internalType": "address",
          "name": "",
          "type": "address"
        }
      ],
      "stateMutability": "view",
      "type": "function"
    },
    {
      "inputs": [
        {
          "internalType": "bytes32",
          "name": "role",
          "type": "bytes32"
        },
        {
          "internalType": "address",
          "name": "account",
          "type": "address"
        }
      ],
      "name": "grantRole",
      "outputs": [],
      "stateMutability": "nonpayable",
      "type": "function"
    },
    {
      "inputs": [
        {
          "internalType": "bytes32",
          "name": "role",
          "type": "bytes32"
        },
        {
          "internalType": "address",
          "name": "account",
          "type": "address"
        }
      ],
      "name": "hasRole",
      "outputs": [
        {
          "internalType": "bool",
          "name": "",
          "type": "bool"
        }
      ],
      "stateMutability": "view",
      "type": "function"
    },
    {
      "inputs": [
        {
          "internalType": "address",
          "name": "_admin",
          "type": "address"
        }
      ],
      "name": "initialize",
      "outputs": [],
      "stateMutability": "nonpayable",
      "type": "function"
    },
    {
      "inputs": [
        {
          "internalType": "address",
          "name": "_future",
          "type": "address"
        }
      ],
      "name": "isRegisteredFutureVault",
      "outputs": [
        {
          "internalType": "bool",
          "name": "",
          "type": "bool"
        }
      ],
      "stateMutability": "view",
      "type": "function"
    },
    {
      "inputs": [
        {
          "internalType": "address",
          "name": "_future",
          "type": "address"
        }
      ],
      "name": "removeFutureVault",
      "outputs": [],
      "stateMutability": "nonpayable",
      "type": "function"
    },
    {
      "inputs": [
        {
          "internalType": "bytes32",
          "name": "role",
          "type": "bytes32"
        },
        {
          "internalType": "address",
          "name": "account",
          "type": "address"
        }
      ],
      "name": "renounceRole",
      "outputs": [],
      "stateMutability": "nonpayable",
      "type": "function"
    },
    {
      "inputs": [
        {
          "internalType": "bytes32",
          "name": "role",
          "type": "bytes32"
        },
        {
          "internalType": "address",
          "name": "account",
          "type": "address"
        }
      ],
      "name": "revokeRole",
      "outputs": [],
      "stateMutability": "nonpayable",
      "type": "function"
    },
    {
      "inputs": [
        {
          "internalType": "address",
          "name": "_newTokenFactory",
          "type": "address"
        }
      ],
      "name": "setTokensFactory",
      "outputs": [],
      "stateMutability": "nonpayable",
      "type": "function"
    },
    {
      "inputs": [
        {
          "internalType": "bytes4",
          "name": "interfaceId",
          "type": "bytes4"
        }
      ],
      "name": "supportsInterface",
      "outputs": [
        {
          "internalType": "bool",
          "name": "",
          "type": "bool"
        }
      ],
      "stateMutability": "view",
      "type": "function"
    }
  ],
  "bytecode": {
    "object": "0x608060405234801561001057600080fd5b50610e56806100206000396000f3fe608060405234801561001057600080fd5b506004361061010b5760003560e01c80637f94afd4116100a2578063bc97cb1811610071578063bc97cb1814610251578063c4d66de814610264578063d547741f14610277578063e3dcc0f81461028a578063ed4c8bb31461029d57600080fd5b80637f94afd4146101fc57806391d1485414610223578063a217fddf14610236578063b71c9b321461023e57600080fd5b806336568abe116100de57806336568abe146101a95780634bf61d10146101bc57806356da7c28146101cd57806375b238fc146101d557600080fd5b806301ffc9a7146101105780631c93e12814610138578063248a9ca3146101635780632f2ff15d14610194575b600080fd5b61012361011e366004610be5565b6102b0565b60405190151581526020015b60405180910390f35b61014b610146366004610c0f565b6102e7565b6040516001600160a01b03909116815260200161012f565b610186610171366004610c0f565b60009081526065602052604090206001015490565b60405190815260200161012f565b6101a76101a2366004610c44565b6102f4565b005b6101a76101b7366004610c44565b61031e565b6097546001600160a01b031661014b565b6101866103a1565b6101867fa49807205ce4d355092ef5a8a18f56e8913cf4a201fbe287825b095693c2177581565b6101867fa4166cedb0d657cf865a51770f2f29c2fdff83b53bc7ce97b66052d8ce8993a481565b610123610231366004610c44565b6103b2565b610186600081565b6101a761024c366004610c70565b6103dd565b6101a761025f366004610c70565b61045e565b6101a7610272366004610c70565b6104df565b6101a7610285366004610c44565b61061d565b610123610298366004610c70565b610642565b6101a76102ab366004610c70565b61064f565b60006001600160e01b03198216637965db0b60e01b14806102e157506301ffc9a760e01b6001600160e01b03198316145b92915050565b60006102e1609883610705565b60008281526065602052604090206001015461030f81610718565b6103198383610725565b505050565b6001600160a01b03811633146103935760405162461bcd60e51b815260206004820152602f60248201527f416363657373436f6e74726f6c3a2063616e206f6e6c792072656e6f756e636560448201526e103937b632b9903337b91039b2b63360891b60648201526084015b60405180910390fd5b61039d82826107ab565b5050565b60006103ad6098610812565b905090565b60009182526065602090815260408084206001600160a01b0393909316845291905290205460ff1690565b7fa4166cedb0d657cf865a51770f2f29c2fdff83b53bc7ce97b66052d8ce8993a461040781610718565b61041260988361081c565b61039d5760405162461bcd60e51b815260206004820152601760248201527f52656769737472793a204552525f4655545552455f524d000000000000000000604482015260640161038a565b7fa4166cedb0d657cf865a51770f2f29c2fdff83b53bc7ce97b66052d8ce8993a461048881610718565b610493609883610831565b61039d5760405162461bcd60e51b815260206004820152601860248201527f52656769737472793a204552525f4655545552455f4144440000000000000000604482015260640161038a565b600054610100900460ff16158080156104ff5750600054600160ff909116105b806105195750303b158015610519575060005460ff166001145b61057c5760405162461bcd60e51b815260206004820152602e60248201527f496e697469616c697a61626c653a20636f6e747261637420697320616c72656160448201526d191e481a5b9a5d1a585b1a5e995960921b606482015260840161038a565b6000805460ff19166001179055801561059f576000805461ff0019166101001790555b6105aa600083610846565b6105d47fa49807205ce4d355092ef5a8a18f56e8913cf4a201fbe287825b095693c2177583610846565b801561039d576000805461ff0019169055604051600181527f7f26b83ff96e1f2b6a682f133852f6798a09c465da95921460cefb38474024989060200160405180910390a15050565b60008281526065602052604090206001015461063881610718565b61031983836107ab565b60006102e1609883610850565b7fa49807205ce4d355092ef5a8a18f56e8913cf4a201fbe287825b095693c2177561067981610718565b609754604080516060808252600c908201526b546f6b656e466163746f727960a01b60808201526001600160a01b03928316602082015291841682820152517fa3e905c3f8091e43e1c20e325887a9596e786aefca993058675aeed52d516dce9181900360a00190a150609780546001600160a01b0319166001600160a01b0392909216919091179055565b60006107118383610872565b9392505050565b610722813361089c565b50565b61072f82826103b2565b61039d5760008281526065602090815260408083206001600160a01b03851684529091529020805460ff191660011790556107673390565b6001600160a01b0316816001600160a01b0316837f2f8788117e7eff1d82e926ec794901d17c78024a50270940304540a733656f0d60405160405180910390a45050565b6107b582826103b2565b1561039d5760008281526065602090815260408083206001600160a01b0385168085529252808320805460ff1916905551339285917ff6391f5c32d9c69d2a47ea670b442974b53935d1edc7fd64eb21e047a839171b9190a45050565b60006102e1825490565b6000610711836001600160a01b0384166108f5565b6000610711836001600160a01b0384166109e8565b61039d8282610725565b6001600160a01b03811660009081526001830160205260408120541515610711565b600082600001828154811061088957610889610c8b565b9060005260206000200154905092915050565b6108a682826103b2565b61039d576108b381610a37565b6108be836020610a49565b6040516020016108cf929190610cd1565b60408051601f198184030181529082905262461bcd60e51b825261038a91600401610d46565b600081815260018301602052604081205480156109de576000610919600183610d8f565b855490915060009061092d90600190610d8f565b905081811461099257600086600001828154811061094d5761094d610c8b565b906000526020600020015490508087600001848154811061097057610970610c8b565b6000918252602080832090910192909255918252600188019052604090208390555b85548690806109a3576109a3610da6565b6001900381819060005260206000200160009055905585600101600086815260200190815260200160002060009055600193505050506102e1565b60009150506102e1565b6000818152600183016020526040812054610a2f575081546001818101845560008481526020808220909301849055845484825282860190935260409020919091556102e1565b5060006102e1565b60606102e16001600160a01b03831660145b60606000610a58836002610dbc565b610a63906002610ddb565b67ffffffffffffffff811115610a7b57610a7b610df3565b6040519080825280601f01601f191660200182016040528015610aa5576020820181803683370190505b509050600360fc1b81600081518110610ac057610ac0610c8b565b60200101906001600160f81b031916908160001a905350600f60fb1b81600181518110610aef57610aef610c8b565b60200101906001600160f81b031916908160001a9053506000610b13846002610dbc565b610b1e906001610ddb565b90505b6001811115610b96576f181899199a1a9b1b9c1cb0b131b232b360811b85600f1660108110610b5257610b52610c8b565b1a60f81b828281518110610b6857610b68610c8b565b60200101906001600160f81b031916908160001a90535060049490941c93610b8f81610e09565b9050610b21565b5083156107115760405162461bcd60e51b815260206004820181905260248201527f537472696e67733a20686578206c656e67746820696e73756666696369656e74604482015260640161038a565b600060208284031215610bf757600080fd5b81356001600160e01b03198116811461071157600080fd5b600060208284031215610c2157600080fd5b5035919050565b80356001600160a01b0381168114610c3f57600080fd5b919050565b60008060408385031215610c5757600080fd5b82359150610c6760208401610c28565b90509250929050565b600060208284031215610c8257600080fd5b61071182610c28565b634e487b7160e01b600052603260045260246000fd5b60005b83811015610cbc578181015183820152602001610ca4565b83811115610ccb576000848401525b50505050565b7f416363657373436f6e74726f6c3a206163636f756e7420000000000000000000815260008351610d09816017850160208801610ca1565b7001034b99036b4b9b9b4b733903937b6329607d1b6017918401918201528351610d3a816028840160208801610ca1565b01602801949350505050565b6020815260008251806020840152610d65816040850160208701610ca1565b601f01601f19169190910160400192915050565b634e487b7160e01b600052601160045260246000fd5b600082821015610da157610da1610d79565b500390565b634e487b7160e01b600052603160045260246000fd5b6000816000190483118215151615610dd657610dd6610d79565b500290565b60008219821115610dee57610dee610d79565b500190565b634e487b7160e01b600052604160045260246000fd5b600081610e1857610e18610d79565b50600019019056fea264697066735822122069f5276effce80ab9a64be325f2b42fea3a94f7083ec8883c89561ecaba7125a64736f6c634300080d0033",
    "linkReferences": {}
  },
  "methodIdentifiers": {
    "ADMIN_ROLE()": "75b238fc",
    "DEFAULT_ADMIN_ROLE()": "a217fddf",
    "FUTURE_MANAGER_ROLE()": "7f94afd4",
    "addFutureVault(address)": "bc97cb18",
    "futureVaultCount()": "56da7c28",
    "getFutureVaultAt(uint256)": "1c93e128",
    "getRoleAdmin(bytes32)": "248a9ca3",
    "getTokensFactoryAddress()": "4bf61d10",
    "grantRole(bytes32,address)": "2f2ff15d",
    "hasRole(bytes32,address)": "91d14854",
    "initialize(address)": "c4d66de8",
    "isRegisteredFutureVault(address)": "e3dcc0f8",
    "removeFutureVault(address)": "b71c9b32",
    "renounceRole(bytes32,address)": "36568abe",
    "revokeRole(bytes32,address)": "d547741f",
    "setTokensFactory(address)": "ed4c8bb3",
    "supportsInterface(bytes4)": "01ffc9a7"
  },
  "id": 37
}