{
  "abi": [
    {
      "inputs": [],
      "stateMutability": "nonpayable",
      "type": "constructor"
    },
    {
      "anonymous": false,
      "inputs": [
        {
          "indexed": true,
          "internalType": "address",
          "name": "previousOwner",
          "type": "address"
        },
        {
          "indexed": true,
          "internalType": "address",
          "name": "newOwner",
          "type": "address"
        }
      ],
      "name": "OwnershipTransferStarted",
      "type": "event"
    },
    {
      "anonymous": false,
      "inputs": [
        {
          "indexed": true,
          "internalType": "address",
          "name": "previousOwner",
          "type": "address"
        },
        {
          "indexed": true,
          "internalType": "address",
          "name": "newOwner",
          "type": "address"
        }
      ],
      "name": "OwnershipTransferred",
      "type": "event"
    },
    {
      "anonymous": false,
      "inputs": [
        {
          "indexed": false,
          "internalType": "string",
          "name": "_contractName",
          "type": "string"
        },
        {
          "indexed": false,
          "internalType": "address",
          "name": "_old",
          "type": "address"
        },
        {
          "indexed": false,
          "internalType": "address",
          "name": "_new",
          "type": "address"
        }
      ],
      "name": "RegistryUpdate",
      "type": "event"
    },
    {
      "inputs": [],
      "name": "acceptOwnership",
      "outputs": [],
      "stateMutability": "nonpayable",
      "type": "function"
    },
    {
      "inputs": [
        {
          "internalType": "address",
          "name": "_future",
          "type": "address"
        }
      ],
      "name": "addFutureVault",
      "outputs": [],
      "stateMutability": "nonpayable",
      "type": "function"
    },
    {
      "inputs": [
        {
          "internalType": "address",
          "name": "_pool",
          "type": "address"
        },
        {
          "internalType": "address",
          "name": "_future",
          "type": "address"
        }
      ],
      "name": "addPool",
      "outputs": [],
      "stateMutability": "nonpayable",
      "type": "function"
    },
    {
      "inputs": [],
      "name": "futureVaultCount",
      "outputs": [
        {
          "internalType": "uint256",
          "name": "",
          "type": "uint256"
        }
      ],
      "stateMutability": "view",
      "type": "function"
    },
    {
      "inputs": [
        {
          "internalType": "uint256",
          "name": "_index",
          "type": "uint256"
        }
      ],
      "name": "getFutureVaultAt",
      "outputs": [
        {
          "internalType": "address",
          "name": "",
          "type": "address"
        }
      ],
      "stateMutability": "view",
      "type": "function"
    },
    {
      "inputs": [],
      "name": "getFutureVaultFactoryAddress",
      "outputs": [
        {
          "internalType": "address",
          "name": "",
          "type": "address"
        }
      ],
      "stateMutability": "view",
      "type": "function"
    },
    {
      "inputs": [
        {
          "internalType": "address",
          "name": "_future",
          "type": "address"
        }
      ],
      "name": "getPool",
      "outputs": [
        {
          "internalType": "address",
          "name": "",
          "type": "address"
        }
      ],
      "stateMutability": "view",
      "type": "function"
    },
    {
      "inputs": [],
      "name": "getZapDepositor",
      "outputs": [
        {
          "internalType": "address",
          "name": "",
          "type": "address"
        }
      ],
      "stateMutability": "view",
      "type": "function"
    },
    {
      "inputs": [
        {
          "internalType": "address",
          "name": "_future",
          "type": "address"
        }
      ],
      "name": "isRegisteredFutureVault",
      "outputs": [
        {
          "internalType": "bool",
          "name": "",
          "type": "bool"
        }
      ],
      "stateMutability": "view",
      "type": "function"
    },
    {
      "inputs": [],
      "name": "owner",
      "outputs": [
        {
          "internalType": "address",
          "name": "",
          "type": "address"
        }
      ],
      "stateMutability": "view",
      "type": "function"
    },
    {
      "inputs": [],
      "name": "pendingOwner",
      "outputs": [
        {
          "internalType": "address",
          "name": "",
          "type": "address"
        }
      ],
      "stateMutability": "view",
      "type": "function"
    },
    {
      "inputs": [
        {
          "internalType": "address",
          "name": "_future",
          "type": "address"
        }
      ],
      "name": "removeFutureVault",
      "outputs": [],
      "stateMutability": "nonpayable",
      "type": "function"
    },
    {
      "inputs": [],
      "name": "renounceOwnership",
      "outputs": [],
      "stateMutability": "nonpayable",
      "type": "function"
    },
    {
      "inputs": [
        {
          "internalType": "address",
          "name": "_newFutureVaultFactory",
          "type": "address"
        }
      ],
      "name": "setFutureVaultFactory",
      "outputs": [],
      "stateMutability": "nonpayable",
      "type": "function"
    },
    {
      "inputs": [
        {
          "internalType": "address",
          "name": "_zap",
          "type": "address"
        }
      ],
      "name": "setZapDepositor",
      "outputs": [],
      "stateMutability": "nonpayable",
      "type": "function"
    },
    {
      "inputs": [
        {
          "internalType": "address",
          "name": "newOwner",
          "type": "address"
        }
      ],
      "name": "transferOwnership",
      "outputs": [],
      "stateMutability": "nonpayable",
      "type": "function"
    }
  ],
  "bytecode": {
    "object": "0x608060405234801561001057600080fd5b5061001a3361001f565b610096565b600180546001600160a01b031916905561004381610046602090811b6106dd17901c565b50565b600080546001600160a01b038381166001600160a01b0319831681178455604051919092169283917f8be0079c531659141344cd1fd0a4f28419497f9722a3daafe3b4186f6b6457e09190a35050565b610a7f806100a56000396000f3fe608060405234801561001057600080fd5b50600436106101005760003560e01c8063a0bc97db11610097578063e30c397811610066578063e30c397814610204578063e3dcc0f814610215578063eb511dd414610238578063f2fde38b1461024b57600080fd5b8063a0bc97db1461019f578063b71c9b32146101b2578063bbe4f6db146101c5578063bc97cb18146101f157600080fd5b8063715018a6116100d3578063715018a61461016957806379ba5097146101735780638d722c051461017b5780638da5cb5b1461018e57600080fd5b80630e5f99c5146101055780631c93e1281461012f578063331c8fa31461014257806356da7c2814610153575b600080fd5b6006546001600160a01b03165b6040516001600160a01b0390911681526020015b60405180910390f35b61011261013d366004610975565b61025e565b6002546001600160a01b0316610112565b61015b610271565b604051908152602001610126565b610171610282565b005b610171610296565b6101716101893660046109aa565b610315565b6000546001600160a01b0316610112565b6101716101ad3660046109aa565b61042a565b6101716101c03660046109aa565b6104bb565b6101126101d33660046109aa565b6001600160a01b039081166000908152600560205260409020541690565b6101716101ff3660046109aa565b61051a565b6001546001600160a01b0316610112565b6102286102233660046109aa565b610579565b6040519015158152602001610126565b6101716102463660046109c5565b610586565b6101716102593660046109aa565b61066c565b600061026b60038361072d565b92915050565b600061027d6003610740565b905090565b61028a61074a565b61029460006107a4565b565b60015433906001600160a01b031681146103095760405162461bcd60e51b815260206004820152602960248201527f4f776e61626c6532537465703a2063616c6c6572206973206e6f7420746865206044820152683732bb9037bbb732b960b91b60648201526084015b60405180910390fd5b610312816107a4565b50565b61031d61074a565b6001600160a01b0381166103995760405162461bcd60e51b815260206004820152603860248201527f52656769737472793a2043616e6e6f7420736574206675747572655661756c7460448201527f20666163746f727920746f207a65726f206164647265737300000000000000006064820152608401610300565b600254604080516060808252601290820152714675747572655661756c74466163746f727960701b60808201526001600160a01b03928316602082015291831682820152517fa3e905c3f8091e43e1c20e325887a9596e786aefca993058675aeed52d516dce9181900360a00190a1600280546001600160a01b0319166001600160a01b0392909216919091179055565b61043261074a565b6001600160a01b0381166104995760405162461bcd60e51b815260206004820152602860248201527f52656769737472793a2043616e6e6f7420736574207a617020746f207a65726f604482015267206164647265737360c01b6064820152608401610300565b600680546001600160a01b0319166001600160a01b0392909216919091179055565b6104c361074a565b6104ce6003826107bd565b6103125760405162461bcd60e51b815260206004820152601760248201527f52656769737472793a204552525f4655545552455f524d0000000000000000006044820152606401610300565b61052261074a565b61052d6003826107d2565b6103125760405162461bcd60e51b815260206004820152601860248201527f52656769737472793a204552525f4655545552455f41444400000000000000006044820152606401610300565b600061026b6003836107e7565b61058f81610579565b6105db5760405162461bcd60e51b815260206004820152601d60248201527f52656769737472793a20554e524547495354455245445f4655545552450000006044820152606401610300565b6001600160a01b03818116600090815260056020526040902054161561063c5760405162461bcd60e51b8152602060048201526016602482015275149959da5cdd1c9e4e8811549497d413d3d317d0511160521b6044820152606401610300565b6001600160a01b0390811660009081526005602052604090208054919092166001600160a01b0319909116179055565b61067461074a565b600180546001600160a01b0383166001600160a01b031990911681179091556106a56000546001600160a01b031690565b6001600160a01b03167f38d16b8cac22d99fc7c124b9cd0de2d3fa1faef420bfe791d8c362d765e2270060405160405180910390a350565b600080546001600160a01b038381166001600160a01b0319831681178455604051919092169283917f8be0079c531659141344cd1fd0a4f28419497f9722a3daafe3b4186f6b6457e09190a35050565b60006107398383610809565b9392505050565b600061026b825490565b6000546001600160a01b031633146102945760405162461bcd60e51b815260206004820181905260248201527f4f776e61626c653a2063616c6c6572206973206e6f7420746865206f776e65726044820152606401610300565b600180546001600160a01b0319169055610312816106dd565b6000610739836001600160a01b038416610833565b6000610739836001600160a01b038416610926565b6001600160a01b03811660009081526001830160205260408120541515610739565b6000826000018281548110610820576108206109f8565b9060005260206000200154905092915050565b6000818152600183016020526040812054801561091c576000610857600183610a0e565b855490915060009061086b90600190610a0e565b90508181146108d057600086600001828154811061088b5761088b6109f8565b90600052602060002001549050808760000184815481106108ae576108ae6109f8565b6000918252602080832090910192909255918252600188019052604090208390555b85548690806108e1576108e1610a33565b60019003818190600052602060002001600090559055856001016000868152602001908152602001600020600090556001935050505061026b565b600091505061026b565b600081815260018301602052604081205461096d5750815460018181018455600084815260208082209093018490558454848252828601909352604090209190915561026b565b50600061026b565b60006020828403121561098757600080fd5b5035919050565b80356001600160a01b03811681146109a557600080fd5b919050565b6000602082840312156109bc57600080fd5b6107398261098e565b600080604083850312156109d857600080fd5b6109e18361098e565b91506109ef6020840161098e565b90509250929050565b634e487b7160e01b600052603260045260246000fd5b600082821015610a2e57634e487b7160e01b600052601160045260246000fd5b500390565b634e487b7160e01b600052603160045260246000fdfea2646970667358221220c99243a4519ebf67e3f7af1e152a33a4e4b4f53690841add898d1e91a063ba0c64736f6c634300080d0033",
    "linkReferences": {}
  },
  "methodIdentifiers": {
    "acceptOwnership()": "79ba5097",
    "addFutureVault(address)": "bc97cb18",
    "addPool(address,address)": "eb511dd4",
    "futureVaultCount()": "56da7c28",
    "getFutureVaultAt(uint256)": "1c93e128",
    "getFutureVaultFactoryAddress()": "331c8fa3",
    "getPool(address)": "bbe4f6db",
    "getZapDepositor()": "0e5f99c5",
    "isRegisteredFutureVault(address)": "e3dcc0f8",
    "owner()": "8da5cb5b",
    "pendingOwner()": "e30c3978",
    "removeFutureVault(address)": "b71c9b32",
    "renounceOwnership()": "715018a6",
    "setFutureVaultFactory(address)": "8d722c05",
    "setZapDepositor(address)": "a0bc97db",
    "transferOwnership(address)": "f2fde38b"
  },
  "id": 71
}