{
  "abi": [
    {
      "inputs": [],
      "stateMutability": "nonpayable",
      "type": "constructor"
    },
    {
      "inputs": [
        {
          "internalType": "address",
          "name": "authority",
          "type": "address"
        }
      ],
      "name": "AccessManagedInvalidAuthority",
      "type": "error"
    },
    {
      "inputs": [
        {
          "internalType": "address",
          "name": "caller",
          "type": "address"
        },
        {
          "internalType": "uint32",
          "name": "delay",
          "type": "uint32"
        }
      ],
      "name": "AccessManagedRequiredDelay",
      "type": "error"
    },
    {
      "inputs": [
        {
          "internalType": "address",
          "name": "caller",
          "type": "address"
        }
      ],
      "name": "AccessManagedUnauthorized",
      "type": "error"
    },
    {
      "inputs": [],
      "name": "FeeGreaterThanMaxValue",
      "type": "error"
    },
    {
      "inputs": [],
      "name": "InvalidInitialization",
      "type": "error"
    },
    {
      "inputs": [
        {
          "internalType": "address",
          "name": "_pt",
          "type": "address"
        }
      ],
      "name": "LPVListUpdateFailed",
      "type": "error"
    },
    {
      "inputs": [],
      "name": "NotInitializing",
      "type": "error"
    },
    {
      "inputs": [],
      "name": "PTListUpdateFailed",
      "type": "error"
    },
    {
      "inputs": [],
      "name": "ReductionTooBig",
      "type": "error"
    },
    {
      "anonymous": false,
      "inputs": [
        {
          "indexed": false,
          "internalType": "address",
          "name": "authority",
          "type": "address"
        }
      ],
      "name": "AuthorityUpdated",
      "type": "event"
    },
    {
      "anonymous": false,
      "inputs": [
        {
          "indexed": true,
          "internalType": "address",
          "name": "_old",
          "type": "address"
        },
        {
          "indexed": true,
          "internalType": "address",
          "name": "_new",
          "type": "address"
        }
      ],
      "name": "FactoryUpdated",
      "type": "event"
    },
    {
      "anonymous": false,
      "inputs": [
        {
          "indexed": true,
          "internalType": "address",
          "name": "pt",
          "type": "address"
        },
        {
          "indexed": true,
          "internalType": "address",
          "name": "user",
          "type": "address"
        },
        {
          "indexed": false,
          "internalType": "uint256",
          "name": "reduction",
          "type": "uint256"
        }
      ],
      "name": "FeeReduced",
      "type": "event"
    },
    {
      "anonymous": false,
      "inputs": [
        {
          "indexed": false,
          "internalType": "uint64",
          "name": "version",
          "type": "uint64"
        }
      ],
      "name": "Initialized",
      "type": "event"
    },
    {
      "anonymous": false,
      "inputs": [
        {
          "indexed": true,
          "internalType": "address",
          "name": "pt",
          "type": "address"
        },
        {
          "indexed": true,
          "internalType": "address",
          "name": "lpv",
          "type": "address"
        }
      ],
      "name": "LPVForPTAdded",
      "type": "event"
    },
    {
      "anonymous": false,
      "inputs": [
        {
          "indexed": true,
          "internalType": "address",
          "name": "pt",
          "type": "address"
        },
        {
          "indexed": true,
          "internalType": "address",
          "name": "lpv",
          "type": "address"
        }
      ],
      "name": "LPVForPTRemoved",
      "type": "event"
    },
    {
      "anonymous": false,
      "inputs": [
        {
          "indexed": true,
          "internalType": "address",
          "name": "pt",
          "type": "address"
        }
      ],
      "name": "PTAdded",
      "type": "event"
    },
    {
      "anonymous": false,
      "inputs": [
        {
          "indexed": true,
          "internalType": "address",
          "name": "pt",
          "type": "address"
        }
      ],
      "name": "PTRemoved",
      "type": "event"
    },
    {
      "anonymous": false,
      "inputs": [
        {
          "indexed": true,
          "internalType": "address",
          "name": "oldRouter",
          "type": "address"
        },
        {
          "indexed": true,
          "internalType": "address",
          "name": "newRouter",
          "type": "address"
        }
      ],
      "name": "RouterUpdated",
      "type": "event"
    },
    {
      "anonymous": false,
      "inputs": [
        {
          "indexed": true,
          "internalType": "address",
          "name": "oldRouterUtil",
          "type": "address"
        },
        {
          "indexed": true,
          "internalType": "address",
          "name": "newRouterUtil",
          "type": "address"
        }
      ],
      "name": "RouterUtilUpdated",
      "type": "event"
    },
    {
      "anonymous": false,
      "inputs": [
        {
          "indexed": true,
          "internalType": "address",
          "name": "previousFeeCollector",
          "type": "address"
        },
        {
          "indexed": true,
          "internalType": "address",
          "name": "feeCollector",
          "type": "address"
        }
      ],
      "name": "UpdatedFeeCollector",
      "type": "event"
    },
    {
      "anonymous": false,
      "inputs": [
        {
          "indexed": true,
          "internalType": "address",
          "name": "previousLpvBeacon",
          "type": "address"
        },
        {
          "indexed": true,
          "internalType": "address",
          "name": "lpvBeacon",
          "type": "address"
        }
      ],
      "name": "UpdatedLPVBeacon",
      "type": "event"
    },
    {
      "anonymous": false,
      "inputs": [
        {
          "indexed": false,
          "internalType": "uint256",
          "name": "previousLpvDepositFee",
          "type": "uint256"
        },
        {
          "indexed": false,
          "internalType": "uint256",
          "name": "lpvDepositFee",
          "type": "uint256"
        }
      ],
      "name": "UpdatedLPVDepositFee",
      "type": "event"
    },
    {
      "anonymous": false,
      "inputs": [
        {
          "indexed": true,
          "internalType": "address",
          "name": "previousPtBeacon",
          "type": "address"
        },
        {
          "indexed": true,
          "internalType": "address",
          "name": "ptBeacon",
          "type": "address"
        }
      ],
      "name": "UpdatedPTBeacon",
      "type": "event"
    },
    {
      "anonymous": false,
      "inputs": [
        {
          "indexed": false,
          "internalType": "uint256",
          "name": "previousPTFlashLoanFee",
          "type": "uint256"
        },
        {
          "indexed": false,
          "internalType": "uint256",
          "name": "ptFlashLoanFee",
          "type": "uint256"
        }
      ],
      "name": "UpdatedPTFlashLoanFee",
      "type": "event"
    },
    {
      "anonymous": false,
      "inputs": [
        {
          "indexed": false,
          "internalType": "uint256",
          "name": "previousTokenizationFee",
          "type": "uint256"
        },
        {
          "indexed": false,
          "internalType": "uint256",
          "name": "tokenizationFee",
          "type": "uint256"
        }
      ],
      "name": "UpdatedTokenizationFee",
      "type": "event"
    },
    {
      "anonymous": false,
      "inputs": [
        {
          "indexed": true,
          "internalType": "address",
          "name": "previousYtBeacon",
          "type": "address"
        },
        {
          "indexed": true,
          "internalType": "address",
          "name": "ytBeacon",
          "type": "address"
        }
      ],
      "name": "UpdatedYTBeacon",
      "type": "event"
    },
    {
      "anonymous": false,
      "inputs": [
        {
          "indexed": false,
          "internalType": "uint256",
          "name": "previousYieldFee",
          "type": "uint256"
        },
        {
          "indexed": false,
          "internalType": "uint256",
          "name": "yieldFee",
          "type": "uint256"
        }
      ],
      "name": "UpdatedYieldFee",
      "type": "event"
    },
    {
      "anonymous": false,
      "inputs": [
        {
          "indexed": true,
          "internalType": "address",
          "name": "oldZapDepositor",
          "type": "address"
        },
        {
          "indexed": true,
          "internalType": "address",
          "name": "newZapDepositor",
          "type": "address"
        }
      ],
      "name": "ZapDepositorUpdated",
      "type": "event"
    },
    {
      "inputs": [
        {
          "internalType": "address",
          "name": "_pt",
          "type": "address"
        },
        {
          "internalType": "address",
          "name": "_lpv",
          "type": "address"
        }
      ],
      "name": "addLPVForPT",
      "outputs": [],
      "stateMutability": "nonpayable",
      "type": "function"
    },
    {
      "inputs": [
        {
          "internalType": "address",
          "name": "_pt",
          "type": "address"
        }
      ],
      "name": "addPT",
      "outputs": [],
      "stateMutability": "nonpayable",
      "type": "function"
    },
    {
      "inputs": [],
      "name": "authority",
      "outputs": [
        {
          "internalType": "address",
          "name": "",
          "type": "address"
        }
      ],
      "stateMutability": "view",
      "type": "function"
    },
    {
      "inputs": [],
      "name": "getFactory",
      "outputs": [
        {
          "internalType": "address",
          "name": "",
          "type": "address"
        }
      ],
      "stateMutability": "view",
      "type": "function"
    },
    {
      "inputs": [],
      "name": "getFeeCollector",
      "outputs": [
        {
          "internalType": "address",
          "name": "",
          "type": "address"
        }
      ],
      "stateMutability": "view",
      "type": "function"
    },
    {
      "inputs": [
        {
          "internalType": "address",
          "name": "_pt",
          "type": "address"
        },
        {
          "internalType": "address",
          "name": "_user",
          "type": "address"
        }
      ],
      "name": "getFeeReduction",
      "outputs": [
        {
          "internalType": "uint256",
          "name": "",
          "type": "uint256"
        }
      ],
      "stateMutability": "view",
      "type": "function"
    },
    {
      "inputs": [],
      "name": "getLPVBeacon",
      "outputs": [
        {
          "internalType": "address",
          "name": "",
          "type": "address"
        }
      ],
      "stateMutability": "view",
      "type": "function"
    },
    {
      "inputs": [],
      "name": "getLPVDepositFee",
      "outputs": [
        {
          "internalType": "uint256",
          "name": "",
          "type": "uint256"
        }
      ],
      "stateMutability": "view",
      "type": "function"
    },
    {
      "inputs": [
        {
          "internalType": "address",
          "name": "_pt",
          "type": "address"
        }
      ],
      "name": "getLPVsForPT",
      "outputs": [
        {
          "internalType": "address[]",
          "name": "",
          "type": "address[]"
        }
      ],
      "stateMutability": "view",
      "type": "function"
    },
    {
      "inputs": [
        {
          "internalType": "uint256",
          "name": "_index",
          "type": "uint256"
        }
      ],
      "name": "getPTAt",
      "outputs": [
        {
          "internalType": "address",
          "name": "",
          "type": "address"
        }
      ],
      "stateMutability": "view",
      "type": "function"
    },
    {
      "inputs": [],
      "name": "getPTBeacon",
      "outputs": [
        {
          "internalType": "address",
          "name": "",
          "type": "address"
        }
      ],
      "stateMutability": "view",
      "type": "function"
    },
    {
      "inputs": [],
      "name": "getPTFlashLoanFee",
      "outputs": [
        {
          "internalType": "uint256",
          "name": "",
          "type": "uint256"
        }
      ],
      "stateMutability": "view",
      "type": "function"
    },
    {
      "inputs": [],
      "name": "getRouter",
      "outputs": [
        {
          "internalType": "address",
          "name": "",
          "type": "address"
        }
      ],
      "stateMutability": "view",
      "type": "function"
    },
    {
      "inputs": [],
      "name": "getRouterUtil",
      "outputs": [
        {
          "internalType": "address",
          "name": "",
          "type": "address"
        }
      ],
      "stateMutability": "view",
      "type": "function"
    },
    {
      "inputs": [],
      "name": "getTokenizationFee",
      "outputs": [
        {
          "internalType": "uint256",
          "name": "",
          "type": "uint256"
        }
      ],
      "stateMutability": "view",
      "type": "function"
    },
    {
      "inputs": [],
      "name": "getYTBeacon",
      "outputs": [
        {
          "internalType": "address",
          "name": "",
          "type": "address"
        }
      ],
      "stateMutability": "view",
      "type": "function"
    },
    {
      "inputs": [],
      "name": "getYieldFee",
      "outputs": [
        {
          "internalType": "uint256",
          "name": "",
          "type": "uint256"
        }
      ],
      "stateMutability": "view",
      "type": "function"
    },
    {
      "inputs": [],
      "name": "getZapDepositor",
      "outputs": [
        {
          "internalType": "address",
          "name": "",
          "type": "address"
        }
      ],
      "stateMutability": "view",
      "type": "function"
    },
    {
      "inputs": [
        {
          "internalType": "address",
          "name": "_initialAuthority",
          "type": "address"
        }
      ],
      "name": "initialize",
      "outputs": [],
      "stateMutability": "nonpayable",
      "type": "function"
    },
    {
      "inputs": [],
      "name": "isConsumingScheduledOp",
      "outputs": [
        {
          "internalType": "bytes4",
          "name": "",
          "type": "bytes4"
        }
      ],
      "stateMutability": "view",
      "type": "function"
    },
    {
      "inputs": [
        {
          "internalType": "address",
          "name": "_pt",
          "type": "address"
        },
        {
          "internalType": "address",
          "name": "_lpv",
          "type": "address"
        }
      ],
      "name": "isRegisteredLPVForPT",
      "outputs": [
        {
          "internalType": "bool",
          "name": "",
          "type": "bool"
        }
      ],
      "stateMutability": "view",
      "type": "function"
    },
    {
      "inputs": [
        {
          "internalType": "address",
          "name": "_pt",
          "type": "address"
        }
      ],
      "name": "isRegisteredPT",
      "outputs": [
        {
          "internalType": "bool",
          "name": "",
          "type": "bool"
        }
      ],
      "stateMutability": "view",
      "type": "function"
    },
    {
      "inputs": [
        {
          "internalType": "address",
          "name": "_pt",
          "type": "address"
        }
      ],
      "name": "lpvCountForPT",
      "outputs": [
        {
          "internalType": "uint256",
          "name": "",
          "type": "uint256"
        }
      ],
      "stateMutability": "view",
      "type": "function"
    },
    {
      "inputs": [],
      "name": "pTCount",
      "outputs": [
        {
          "internalType": "uint256",
          "name": "",
          "type": "uint256"
        }
      ],
      "stateMutability": "view",
      "type": "function"
    },
    {
      "inputs": [
        {
          "internalType": "address",
          "name": "_pt",
          "type": "address"
        },
        {
          "internalType": "address",
          "name": "_user",
          "type": "address"
        },
        {
          "internalType": "uint256",
          "name": "_reduction",
          "type": "uint256"
        }
      ],
      "name": "reduceFee",
      "outputs": [],
      "stateMutability": "nonpayable",
      "type": "function"
    },
    {
      "inputs": [
        {
          "internalType": "address",
          "name": "_pt",
          "type": "address"
        },
        {
          "internalType": "address",
          "name": "_lpv",
          "type": "address"
        }
      ],
      "name": "removeLPVForPT",
      "outputs": [],
      "stateMutability": "nonpayable",
      "type": "function"
    },
    {
      "inputs": [
        {
          "internalType": "address",
          "name": "_pt",
          "type": "address"
        }
      ],
      "name": "removePT",
      "outputs": [],
      "stateMutability": "nonpayable",
      "type": "function"
    },
    {
      "inputs": [
        {
          "internalType": "address",
          "name": "newAuthority",
          "type": "address"
        }
      ],
      "name": "setAuthority",
      "outputs": [],
      "stateMutability": "nonpayable",
      "type": "function"
    },
    {
      "inputs": [
        {
          "internalType": "address",
          "name": "_newFactory",
          "type": "address"
        }
      ],
      "name": "setFactory",
      "outputs": [],
      "stateMutability": "nonpayable",
      "type": "function"
    },
    {
      "inputs": [
        {
          "internalType": "address",
          "name": "_feeCollector",
          "type": "address"
        }
      ],
      "name": "setFeeCollector",
      "outputs": [],
      "stateMutability": "nonpayable",
      "type": "function"
    },
    {
      "inputs": [
        {
          "internalType": "address",
          "name": "_lpvBeacon",
          "type": "address"
        }
      ],
      "name": "setLPVBeacon",
      "outputs": [],
      "stateMutability": "nonpayable",
      "type": "function"
    },
    {
      "inputs": [
        {
          "internalType": "uint256",
          "name": "_lpvDepositFee",
          "type": "uint256"
        }
      ],
      "name": "setLPVDepositFee",
      "outputs": [],
      "stateMutability": "nonpayable",
      "type": "function"
    },
    {
      "inputs": [
        {
          "internalType": "address",
          "name": "_ptBeacon",
          "type": "address"
        }
      ],
      "name": "setPTBeacon",
      "outputs": [],
      "stateMutability": "nonpayable",
      "type": "function"
    },
    {
      "inputs": [
        {
          "internalType": "uint256",
          "name": "_ptFlashLoanFee",
          "type": "uint256"
        }
      ],
      "name": "setPTFlashLoanFee",
      "outputs": [],
      "stateMutability": "nonpayable",
      "type": "function"
    },
    {
      "inputs": [
        {
          "internalType": "address",
          "name": "_router",
          "type": "address"
        }
      ],
      "name": "setRouter",
      "outputs": [],
      "stateMutability": "nonpayable",
      "type": "function"
    },
    {
      "inputs": [
        {
          "internalType": "address",
          "name": "_routerUtil",
          "type": "address"
        }
      ],
      "name": "setRouterUtil",
      "outputs": [],
      "stateMutability": "nonpayable",
      "type": "function"
    },
    {
      "inputs": [
        {
          "internalType": "uint256",
          "name": "_tokenizationFee",
          "type": "uint256"
        }
      ],
      "name": "setTokenizationFee",
      "outputs": [],
      "stateMutability": "nonpayable",
      "type": "function"
    },
    {
      "inputs": [
        {
          "internalType": "address",
          "name": "_ytBeacon",
          "type": "address"
        }
      ],
      "name": "setYTBeacon",
      "outputs": [],
      "stateMutability": "nonpayable",
      "type": "function"
    },
    {
      "inputs": [
        {
          "internalType": "uint256",
          "name": "_yieldFee",
          "type": "uint256"
        }
      ],
      "name": "setYieldFee",
      "outputs": [],
      "stateMutability": "nonpayable",
      "type": "function"
    },
    {
      "inputs": [
        {
          "internalType": "address",
          "name": "_zap",
          "type": "address"
        }
      ],
      "name": "setZapDepositor",
      "outputs": [],
      "stateMutability": "nonpayable",
      "type": "function"
    }
  ],
  "bytecode": {
    "object": "0x608060405234801561001057600080fd5b5061001961001e565b6100d0565b7ff0c57e16840df040f15088dc2f81fe391c3923bec73e23a9662efc9c229c6a00805468010000000000000000900460ff161561006e5760405163f92ee8a960e01b815260040160405180910390fd5b80546001600160401b03908116146100cd5780546001600160401b0319166001600160401b0390811782556040519081527fc7f505b2f371ae2175ee4913f4499e1f2633a7b5936321eed1cdaeb6115181d29060200160405180910390a15b50565b6117fd806100df6000396000f3fe608060405234801561001057600080fd5b50600436106102485760003560e01c806388cc58e41161013b578063c0d78655116100b8578063db52aa231161007c578063db52aa2314610512578063e34cd64014610523578063eb2004ce14610536578063f201de7814610547578063f5e306f71461055a57600080fd5b8063c0d78655146104b3578063c4d66de8146104c6578063c7a90375146104d9578063ca1217b2146104ec578063ceecc6b8146104ff57600080fd5b8063abfa9446116100ff578063abfa94461461046c578063ae58592714610474578063b0f479a114610487578063bf7e214f14610498578063bf80e72d146104a057600080fd5b806388cc58e4146104015780638b0c9584146104125780638fb3603714610425578063a0bc97db14610446578063a42dce801461045957600080fd5b8063466489fb116101c95780636c40a4f01161018d5780636c40a4f01461039d578063704bdadc146103b0578063794b8e02146103b85780637a9bbaa2146103cb5780637a9e5e4b146103ee57600080fd5b8063466489fb1461034b57806347c868011461035c5780634f4a9a521461036f5780635bb47808146103775780636995c7811461038a57600080fd5b8063162429341161021057806316242934146102ce5780631a24666d146102e15780632377b166146102f45780632f2f3d4e1461033b5780633819e5d31461034357600080fd5b806304cf46c71461024d57806305c4c081146102775780630e5f99c51461028c5780631263db211461029d57806312fde4b7146102bd575b600080fd5b6004546001600160a01b03165b6040516001600160a01b0390911681526020015b60405180910390f35b61028a61028536600461151a565b61056d565b005b6001546001600160a01b031661025a565b6102b06102ab36600461154f565b6105e3565b60405161026e919061156a565b600b546001600160a01b031661025a565b61028a6102dc36600461151a565b61060d565b61028a6102ef36600461154f565b61067f565b61032d6103023660046115b7565b6001600160a01b039182166000908152600f6020908152604080832093909416825291909152205490565b60405190815260200161026e565b60095461032d565b60085461032d565b6003546001600160a01b031661025a565b61028a61036a36600461154f565b6106e7565b600a5461032d565b61028a61038536600461154f565b61074c565b61028a61039836600461154f565b6107b0565b61025a6103ab36600461151a565b610815565b61032d610822565b61028a6103c636600461151a565b610833565b6103de6103d93660046115b7565b6108a6565b604051901515815260200161026e565b61028a6103fc36600461154f565b6108cf565b6000546001600160a01b031661025a565b61028a61042036600461154f565b61095b565b61042d6109c0565b6040516001600160e01b0319909116815260200161026e565b61028a61045436600461154f565b6109f9565b61028a61046736600461154f565b610a5e565b60075461032d565b61028a61048236600461154f565b610ac3565b6002546001600160a01b031661025a565b61025a610b54565b61028a6104ae3660046115ea565b610b70565b61028a6104c136600461154f565b610c1a565b61028a6104d436600461154f565b610c7f565b61028a6104e73660046115b7565b610d8f565b61032d6104fa36600461154f565b610e39565b61028a61050d36600461151a565b610e5a565b6006546001600160a01b031661025a565b61028a6105313660046115b7565b610ecd565b6005546001600160a01b031661025a565b61028a61055536600461154f565b610f64565b6103de61056836600461154f565b610fc9565b61057a335b600036610fd6565b662386f26fc100008111156105a2576040516315118d7560e11b815260040160405180910390fd5b60075460408051918252602082018390527ff412f1c45fa7b092fb672eb7d7b2c9b24c708e76971cad9fbc92dc47d4c26667910160405180910390a1600755565b6001600160a01b0381166000908152600e60205260409020606090610607906110d4565b92915050565b61061633610572565b662386f26fc1000081111561063e576040516315118d7560e11b815260040160405180910390fd5b600a5460408051918252602082018390527f72fb26755673bfdea0e13fc623ca46db40fdd66c5f3073e175cc2d2c5c94a64c910160405180910390a1600a55565b61068833610572565b610693600c826110e1565b6106b05760405163235cae4d60e11b815260040160405180910390fd5b6040516001600160a01b038216907fd3b01103def824b68b742c0ee25d5bf854b8e520203b7ec2c8c0e176cd910f2b90600090a250565b6106f033610572565b6004546040516001600160a01b038084169216907fb00394fa89e4d88ce2edd0710083daf649bbc908530c8424a554a9193fbe2f6b90600090a3600480546001600160a01b0319166001600160a01b0392909216919091179055565b61075533610572565b600080546040516001600160a01b03808516939216917f333c7678baf16017cf31e1d2f90143a62aab01a67a0807f6836a4304ceabb55591a3600080546001600160a01b0319166001600160a01b0392909216919091179055565b6107b933610572565b6006546040516001600160a01b038084169216907ff83c3b1ee3ce95fe7dd507297ebfed527ba5cce678279a3f6ea946d6135be6b890600090a3600680546001600160a01b0319166001600160a01b0392909216919091179055565b6000610607600c836110f6565b600061082e600c611102565b905090565b61083c33610572565b6706f05b59d3b20000811115610865576040516315118d7560e11b815260040160405180910390fd5b60085460408051918252602082018390527f727a6d7a9f721680b05a34269cbefecb10e309f7df13e18458acb359c028925b910160405180910390a1600855565b6001600160a01b0382166000908152600e602052604081206108c8908361110c565b9392505050565b336108d8610b54565b6001600160a01b0316816001600160a01b0316146109185760405162d1953b60e31b81526001600160a01b03821660048201526024015b60405180910390fd5b816001600160a01b03163b60000361094e576040516361798f2f60e11b81526001600160a01b038316600482015260240161090f565b6109578261112e565b5050565b61096433610572565b6003546040516001600160a01b038084169216907f4e3a81aad0535bb9a60828489c7a60dc1b1b71afa6081a4ce9156fcb43b379d690600090a3600380546001600160a01b0319166001600160a01b0392909216919091179055565b6000805160206117a8833981519152805460009190600160a01b900460ff166109ea5760006109f3565b638fb3603760e01b5b91505090565b610a0233610572565b6001546040516001600160a01b038084169216907f8892467c87c88bc7c91ea8af94e30048195dd50617f3d1ecc828a00b6b599fe990600090a3600180546001600160a01b0319166001600160a01b0392909216919091179055565b610a6733610572565b600b546040516001600160a01b038084169216907f0f06062680f9bd68e786e9980d9bb03d73d5620fc3b345e417b6eacb310b970690600090a3600b80546001600160a01b0319166001600160a01b0392909216919091179055565b610acc33610572565b610ad7600c8261118f565b610af45760405163235cae4d60e11b815260040160405180910390fd5b6001600160a01b0381166000908152600e60205260408120908181610b1982826114e8565b50506040516001600160a01b03841692507fe3919ae1705f3511585ad29354169973cc67842aea603b1ce0c4ebe51ac9118f9150600090a250565b6000805160206117a8833981519152546001600160a01b031690565b610b7933610572565b670de0b6b3a7640000811115610ba157604051628bab1f60e61b815260040160405180910390fd5b816001600160a01b0316836001600160a01b03167fce72445b2129530258857dbe49a48ef25655807734d3bee22a39594a5d56fa1883604051610be691815260200190565b60405180910390a36001600160a01b039283166000908152600f602090815260408083209490951682529290925291902055565b610c2333610572565b6002546040516001600160a01b038084169216907f02dc5c233404867c793b749c6d644beb2277536d18a7e7974d3f238e4c6f168490600090a3600280546001600160a01b0319166001600160a01b0392909216919091179055565b7ff0c57e16840df040f15088dc2f81fe391c3923bec73e23a9662efc9c229c6a008054600160401b810460ff16159067ffffffffffffffff16600081158015610cc55750825b905060008267ffffffffffffffff166001148015610ce25750303b155b905081158015610cf0575080155b15610d0e5760405163f92ee8a960e01b815260040160405180910390fd5b845467ffffffffffffffff191660011785558315610d3857845460ff60401b1916600160401b1785555b610d41866111a4565b8315610d8757845460ff60401b19168555604051600181527fc7f505b2f371ae2175ee4913f4499e1f2633a7b5936321eed1cdaeb6115181d29060200160405180910390a15b505050505050565b610d9833610572565b610da182610fc9565b1580610dcc57506001600160a01b0382166000908152600e60205260409020610dca90826110e1565b155b15610df557604051631c1786e960e01b81526001600160a01b038316600482015260240161090f565b806001600160a01b0316826001600160a01b03167f0393850cda4200ef7a15b45bd846c954a12230ca6d73e206261edb79e0b6b4a760405160405180910390a35050565b6001600160a01b0381166000908152600e6020526040812061060790611102565b610e6333610572565b670de0b6b3a7640000811115610e8c576040516315118d7560e11b815260040160405180910390fd5b60095460408051918252602082018390527fc42321cfb77adc9115fa4571d02651330caa6b0aa5e6e2acbbba0795b8838818910160405180910390a1600955565b610ed633610572565b6001600160a01b0382166000908152600e60205260409020610ef8908261118f565b610f2057604051631c1786e960e01b81526001600160a01b038316600482015260240161090f565b806001600160a01b0316826001600160a01b03167fedc077838455aa8614008e6c55a8ab256027a86892f1047b87fac1edcbf237fd60405160405180910390a35050565b610f6d33610572565b6005546040516001600160a01b038084169216907f7462a692278727253a2e93a80286f0cda93dae64f195986f63c77bb39fbdbf8290600090a3600580546001600160a01b0319166001600160a01b0392909216919091179055565b6000610607600c8361110c565b6000805160206117a8833981519152600080611011610ff3610b54565b8730611003600460008a8c611626565b61100c91611650565b6111b8565b9150915081610d875763ffffffff8116156110b157825460ff60a01b1916600160a01b17835561103f610b54565b6001600160a01b03166394c7d7ee8787876040518463ffffffff1660e01b815260040161106e93929190611680565b600060405180830381600087803b15801561108857600080fd5b505af115801561109c573d6000803e3d6000fd5b5050845460ff60a01b1916855550610d879050565b60405162d1953b60e31b81526001600160a01b038716600482015260240161090f565b606060006108c8836112c4565b60006108c8836001600160a01b038416611320565b60006108c8838361136f565b6000610607825490565b6001600160a01b038116600090815260018301602052604081205415156108c8565b6000805160206117a883398151915280546001600160a01b0383166001600160a01b03199091168117825560408051918252517f2f658b440c35314f52658ea8a740e05b284cdc84dc9ae01e891f21b8933e7cad9181900360200190a15050565b60006108c8836001600160a01b038416611399565b6111ac61148c565b6111b5816114d7565b50565b6040516001600160a01b03848116602483015283811660448301526001600160e01b03198316606483015260009182918291829189169060840160408051601f198184030181529181526020820180516001600160e01b031663b700961360e01b1790525161122791906116c0565b600060405180830381855afa9150503d8060008114611262576040519150601f19603f3d011682016040523d82523d6000602084013e611267565b606091505b509150915081156112b9576040815110611299578080602001905181019061128f91906116ff565b90945092506112b9565b60208151106112b957808060200190518101906112b6919061173f565b93505b505094509492505050565b60608160000180548060200260200160405190810160405280929190818152602001828054801561131457602002820191906000526020600020905b815481526020019060010190808311611300575b50505050509050919050565b600081815260018301602052604081205461136757508154600181810184556000848152602080822090930184905584548482528286019093526040902091909155610607565b506000610607565b60008260000182815481106113865761138661175a565b9060005260206000200154905092915050565b600081815260018301602052604081205480156114825760006113bd600183611770565b85549091506000906113d190600190611770565b90508082146114365760008660000182815481106113f1576113f161175a565b90600052602060002001549050808760000184815481106114145761141461175a565b6000918252602080832090910192909255918252600188019052604090208390555b855486908061144757611447611791565b600190038181906000526020600020016000905590558560010160008681526020019081526020016000206000905560019350505050610607565b6000915050610607565b7ff0c57e16840df040f15088dc2f81fe391c3923bec73e23a9662efc9c229c6a0054600160401b900460ff166114d557604051631afcd79f60e31b815260040160405180910390fd5b565b6114df61148c565b6111b58161112e565b50805460008255906000526020600020908101906111b591905b808211156115165760008155600101611502565b5090565b60006020828403121561152c57600080fd5b5035919050565b80356001600160a01b038116811461154a57600080fd5b919050565b60006020828403121561156157600080fd5b6108c882611533565b6020808252825182820181905260009190848201906040850190845b818110156115ab5783516001600160a01b031683529284019291840191600101611586565b50909695505050505050565b600080604083850312156115ca57600080fd5b6115d383611533565b91506115e160208401611533565b90509250929050565b6000806000606084860312156115ff57600080fd5b61160884611533565b925061161660208501611533565b9150604084013590509250925092565b6000808585111561163657600080fd5b8386111561164357600080fd5b5050820193919092039150565b6001600160e01b031981358181169160048510156116785780818660040360031b1b83161692505b505092915050565b6001600160a01b03841681526040602082018190528101829052818360608301376000818301606090810191909152601f909201601f1916010192915050565b6000825160005b818110156116e157602081860181015185830152016116c7565b506000920191825250919050565b8051801515811461154a57600080fd5b6000806040838503121561171257600080fd5b61171b836116ef565b9150602083015163ffffffff8116811461173457600080fd5b809150509250929050565b60006020828403121561175157600080fd5b6108c8826116ef565b634e487b7160e01b600052603260045260246000fd5b8181038181111561060757634e487b7160e01b600052601160045260246000fd5b634e487b7160e01b600052603160045260246000fdfef3177357ab46d8af007ab3fdb9af81da189e1068fefdc0073dca88a2cab40a00a2646970667358221220aac25365ed77e7f340c46c2a7b5ef8dc16e9387bdec5c9f1e4e02f459bdca3cf64736f6c63430008140033",
    "linkReferences": {}
  },
  "methodIdentifiers": {
    "addLPVForPT(address,address)": "c7a90375",
    "addPT(address)": "1a24666d",
    "authority()": "bf7e214f",
    "getFactory()": "88cc58e4",
    "getFeeCollector()": "12fde4b7",
    "getFeeReduction(address,address)": "2377b166",
    "getLPVBeacon()": "db52aa23",
    "getLPVDepositFee()": "4f4a9a52",
    "getLPVsForPT(address)": "1263db21",
    "getPTAt(uint256)": "6c40a4f0",
    "getPTBeacon()": "04cf46c7",
    "getPTFlashLoanFee()": "2f2f3d4e",
    "getRouter()": "b0f479a1",
    "getRouterUtil()": "466489fb",
    "getTokenizationFee()": "abfa9446",
    "getYTBeacon()": "eb2004ce",
    "getYieldFee()": "3819e5d3",
    "getZapDepositor()": "0e5f99c5",
    "initialize(address)": "c4d66de8",
    "isConsumingScheduledOp()": "8fb36037",
    "isRegisteredLPVForPT(address,address)": "7a9bbaa2",
    "isRegisteredPT(address)": "f5e306f7",
    "lpvCountForPT(address)": "ca1217b2",
    "pTCount()": "704bdadc",
    "reduceFee(address,address,uint256)": "bf80e72d",
    "removeLPVForPT(address,address)": "e34cd640",
    "removePT(address)": "ae585927",
    "setAuthority(address)": "7a9e5e4b",
    "setFactory(address)": "5bb47808",
    "setFeeCollector(address)": "a42dce80",
    "setLPVBeacon(address)": "6995c781",
    "setLPVDepositFee(uint256)": "16242934",
    "setPTBeacon(address)": "47c86801",
    "setPTFlashLoanFee(uint256)": "ceecc6b8",
    "setRouter(address)": "c0d78655",
    "setRouterUtil(address)": "8b0c9584",
    "setTokenizationFee(uint256)": "05c4c081",
    "setYTBeacon(address)": "f201de78",
    "setYieldFee(uint256)": "794b8e02",
    "setZapDepositor(address)": "a0bc97db"
  },
  "id": 93
}