{
  "abi": [
    {
      "anonymous": false,
      "inputs": [
        {
          "indexed": false,
          "internalType": "uint8",
          "name": "version",
          "type": "uint8"
        }
      ],
      "name": "Initialized",
      "type": "event"
    },
    {
      "anonymous": false,
      "inputs": [
        {
          "indexed": false,
          "internalType": "string",
          "name": "_contractName",
          "type": "string"
        },
        {
          "indexed": false,
          "internalType": "address",
          "name": "_old",
          "type": "address"
        },
        {
          "indexed": false,
          "internalType": "address",
          "name": "_new",
          "type": "address"
        }
      ],
      "name": "RegistryUpdate",
      "type": "event"
    },
    {
      "inputs": [
        {
          "internalType": "address",
          "name": "_future",
          "type": "address"
        }
      ],
      "name": "addFutureVault",
      "outputs": [],
      "stateMutability": "nonpayable",
      "type": "function"
    },
    {
      "inputs": [
        {
          "internalType": "address",
          "name": "_pool",
          "type": "address"
        },
        {
          "internalType": "address",
          "name": "_future",
          "type": "address"
        }
      ],
      "name": "addPool",
      "outputs": [],
      "stateMutability": "nonpayable",
      "type": "function"
    },
    {
      "inputs": [],
      "name": "futureVaultCount",
      "outputs": [
        {
          "internalType": "uint256",
          "name": "",
          "type": "uint256"
        }
      ],
      "stateMutability": "view",
      "type": "function"
    },
    {
      "inputs": [
        {
          "internalType": "uint256",
          "name": "_index",
          "type": "uint256"
        }
      ],
      "name": "getFutureVaultAt",
      "outputs": [
        {
          "internalType": "address",
          "name": "",
          "type": "address"
        }
      ],
      "stateMutability": "view",
      "type": "function"
    },
    {
      "inputs": [],
      "name": "getFutureVaultFactoryAddress",
      "outputs": [
        {
          "internalType": "address",
          "name": "",
          "type": "address"
        }
      ],
      "stateMutability": "view",
      "type": "function"
    },
    {
      "inputs": [
        {
          "internalType": "address",
          "name": "_future",
          "type": "address"
        }
      ],
      "name": "getPool",
      "outputs": [
        {
          "internalType": "address",
          "name": "",
          "type": "address"
        }
      ],
      "stateMutability": "view",
      "type": "function"
    },
    {
      "inputs": [],
      "name": "getZapDepositor",
      "outputs": [
        {
          "internalType": "address",
          "name": "",
          "type": "address"
        }
      ],
      "stateMutability": "view",
      "type": "function"
    },
    {
      "inputs": [
        {
          "internalType": "address",
          "name": "_admin",
          "type": "address"
        }
      ],
      "name": "initialize",
      "outputs": [],
      "stateMutability": "nonpayable",
      "type": "function"
    },
    {
      "inputs": [
        {
          "internalType": "address",
          "name": "_future",
          "type": "address"
        }
      ],
      "name": "isRegisteredFutureVault",
      "outputs": [
        {
          "internalType": "bool",
          "name": "",
          "type": "bool"
        }
      ],
      "stateMutability": "view",
      "type": "function"
    },
    {
      "inputs": [
        {
          "internalType": "address",
          "name": "_future",
          "type": "address"
        }
      ],
      "name": "removeFutureVault",
      "outputs": [],
      "stateMutability": "nonpayable",
      "type": "function"
    },
    {
      "inputs": [
        {
          "internalType": "address",
          "name": "_newFutureVaultFactory",
          "type": "address"
        }
      ],
      "name": "setFutureVaultFactory",
      "outputs": [],
      "stateMutability": "nonpayable",
      "type": "function"
    },
    {
      "inputs": [
        {
          "internalType": "address",
          "name": "_zap",
          "type": "address"
        }
      ],
      "name": "setZapDepositor",
      "outputs": [],
      "stateMutability": "nonpayable",
      "type": "function"
    }
  ],
  "bytecode": {
    "object": "0x608060405234801561001057600080fd5b50610959806100206000396000f3fe608060405234801561001057600080fd5b50600436106100b45760003560e01c8063b71c9b3211610071578063b71c9b321461014b578063bbe4f6db1461015e578063bc97cb181461018a578063c4d66de81461019d578063e3dcc0f8146101b0578063eb511dd4146101d357600080fd5b80630e5f99c5146100b95780631c93e128146100e3578063331c8fa3146100f657806356da7c281461010d5780638d722c0514610123578063a0bc97db14610138575b600080fd5b6005546001600160a01b03165b6040516001600160a01b0390911681526020015b60405180910390f35b6100c66100f136600461081a565b6101e6565b6000546201000090046001600160a01b03166100c6565b6101156101f9565b6040519081526020016100da565b61013661013136600461084f565b61020a565b005b61013661014636600461084f565b6102dc565b61013661015936600461084f565b610328565b6100c661016c36600461084f565b6001600160a01b039081166000908152600460205260409020541690565b61013661019836600461084f565b6103ac565b6101366101ab36600461084f565b61042d565b6101c36101be36600461084f565b610552565b60405190151581526020016100da565b6101366101e136600461086a565b61055f565b60006101f3600183610645565b92915050565b60006102056001610658565b905090565b6003546001600160a01b0316331461023d5760405162461bcd60e51b81526004016102349061089d565b60405180910390fd5b600054604080516060808252601290820152714675747572655661756c74466163746f727960701b6080820152620100009092046001600160a01b039081166020840152831682820152517fa3e905c3f8091e43e1c20e325887a9596e786aefca993058675aeed52d516dce9181900360a00190a1600080546001600160a01b03909216620100000262010000600160b01b0319909216919091179055565b6003546001600160a01b031633146103065760405162461bcd60e51b81526004016102349061089d565b600580546001600160a01b0319166001600160a01b0392909216919091179055565b6003546001600160a01b031633146103525760405162461bcd60e51b81526004016102349061089d565b61035d600182610662565b6103a95760405162461bcd60e51b815260206004820152601760248201527f52656769737472793a204552525f4655545552455f524d0000000000000000006044820152606401610234565b50565b6003546001600160a01b031633146103d65760405162461bcd60e51b81526004016102349061089d565b6103e1600182610677565b6103a95760405162461bcd60e51b815260206004820152601860248201527f52656769737472793a204552525f4655545552455f41444400000000000000006044820152606401610234565b600054610100900460ff161580801561044d5750600054600160ff909116105b806104675750303b158015610467575060005460ff166001145b6104ca5760405162461bcd60e51b815260206004820152602e60248201527f496e697469616c697a61626c653a20636f6e747261637420697320616c72656160448201526d191e481a5b9a5d1a585b1a5e995960921b6064820152608401610234565b6000805460ff1916600117905580156104ed576000805461ff0019166101001790555b600380546001600160a01b0319166001600160a01b038416179055801561054e576000805461ff0019169055604051600181527f7f26b83ff96e1f2b6a682f133852f6798a09c465da95921460cefb38474024989060200160405180910390a15b5050565b60006101f360018361068c565b61056881610552565b6105b45760405162461bcd60e51b815260206004820152601d60248201527f52656769737472793a20554e524547495354455245445f4655545552450000006044820152606401610234565b6001600160a01b0381811660009081526004602052604090205416156106155760405162461bcd60e51b8152602060048201526016602482015275149959da5cdd1c9e4e8811549497d413d3d317d0511160521b6044820152606401610234565b6001600160a01b0390811660009081526004602052604090208054919092166001600160a01b0319909116179055565b600061065183836106ae565b9392505050565b60006101f3825490565b6000610651836001600160a01b0384166106d8565b6000610651836001600160a01b0384166107cb565b6001600160a01b03811660009081526001830160205260408120541515610651565b60008260000182815481106106c5576106c56108d2565b9060005260206000200154905092915050565b600081815260018301602052604081205480156107c15760006106fc6001836108e8565b8554909150600090610710906001906108e8565b9050818114610775576000866000018281548110610730576107306108d2565b9060005260206000200154905080876000018481548110610753576107536108d2565b6000918252602080832090910192909255918252600188019052604090208390555b85548690806107865761078661090d565b6001900381819060005260206000200160009055905585600101600086815260200190815260200160002060009055600193505050506101f3565b60009150506101f3565b6000818152600183016020526040812054610812575081546001818101845560008481526020808220909301849055845484825282860190935260409020919091556101f3565b5060006101f3565b60006020828403121561082c57600080fd5b5035919050565b80356001600160a01b038116811461084a57600080fd5b919050565b60006020828403121561086157600080fd5b61065182610833565b6000806040838503121561087d57600080fd5b61088683610833565b915061089460208401610833565b90509250929050565b6020808252818101527f52656769737472793a2043616c6c65722073686f756c642062652041646d696e604082015260600190565b634e487b7160e01b600052603260045260246000fd5b60008282101561090857634e487b7160e01b600052601160045260246000fd5b500390565b634e487b7160e01b600052603160045260246000fdfea2646970667358221220103ae5266e4bb8f44f3ffd371241c9961dd63338109b1f64ac9d334fb30c8df764736f6c634300080d0033",
    "linkReferences": {}
  },
  "methodIdentifiers": {
    "addFutureVault(address)": "bc97cb18",
    "addPool(address,address)": "eb511dd4",
    "futureVaultCount()": "56da7c28",
    "getFutureVaultAt(uint256)": "1c93e128",
    "getFutureVaultFactoryAddress()": "331c8fa3",
    "getPool(address)": "bbe4f6db",
    "getZapDepositor()": "0e5f99c5",
    "initialize(address)": "c4d66de8",
    "isRegisteredFutureVault(address)": "e3dcc0f8",
    "removeFutureVault(address)": "b71c9b32",
    "setFutureVaultFactory(address)": "8d722c05",
    "setZapDepositor(address)": "a0bc97db"
  },
  "id": 52
}