{
  "abi": [
    {
      "inputs": [],
      "stateMutability": "nonpayable",
      "type": "constructor"
    },
    {
      "anonymous": false,
      "inputs": [
        {
          "indexed": false,
          "internalType": "address",
          "name": "_futureVault",
          "type": "address"
        }
      ],
      "name": "FutureVaultDeployed",
      "type": "event"
    },
    {
      "anonymous": false,
      "inputs": [
        {
          "indexed": false,
          "internalType": "address",
          "name": "oldOwner",
          "type": "address"
        },
        {
          "indexed": false,
          "internalType": "address",
          "name": "newOwner",
          "type": "address"
        }
      ],
      "name": "OwnerChanged",
      "type": "event"
    },
    {
      "inputs": [
        {
          "internalType": "string",
          "name": "name_",
          "type": "string"
        },
        {
          "internalType": "string",
          "name": "symbol_",
          "type": "string"
        },
        {
          "internalType": "address",
          "name": "asset_",
          "type": "address"
        },
        {
          "internalType": "address",
          "name": "underlying_",
          "type": "address"
        },
        {
          "internalType": "uint256",
          "name": "maturity_",
          "type": "uint256"
        },
        {
          "internalType": "address",
          "name": "proxyAdmin_",
          "type": "address"
        },
        {
          "internalType": "uint256",
          "name": "_max_fees",
          "type": "uint256"
        },
        {
          "internalType": "address",
          "name": "_registry",
          "type": "address"
        }
      ],
      "name": "deployFutureVault",
      "outputs": [
        {
          "internalType": "address",
          "name": "futureVault",
          "type": "address"
        }
      ],
      "stateMutability": "nonpayable",
      "type": "function"
    },
    {
      "inputs": [
        {
          "internalType": "address",
          "name": "_owner",
          "type": "address"
        }
      ],
      "name": "setOwner",
      "outputs": [],
      "stateMutability": "nonpayable",
      "type": "function"
    },
    {
      "inputs": [
        {
          "internalType": "address",
          "name": "",
          "type": "address"
        }
      ],
      "name": "underlyingFutureVaultAddresses",
      "outputs": [
        {
          "internalType": "address",
          "name": "",
          "type": "address"
        }
      ],
      "stateMutability": "view",
      "type": "function"
    }
  ],
  "bytecode": {
    "object": "0x60a060405234801561001057600080fd5b5030608052600080546001600160a01b031916331790556080516167ff610042600039600061039001526167ff6000f3fe60806040523480156200001157600080fd5b5060043610620000465760003560e01c806313af4035146200004b5780639b5b467f1462000064578063c306a8cc14620000ac575b600080fd5b620000626200005c366004620003f6565b620000c3565b005b6200009062000075366004620003f6565b6001602052600090815260409020546001600160a01b031681565b6040516001600160a01b03909116815260200160405180910390f35b62000090620000bd366004620004c6565b620001a2565b6000546001600160a01b03163314620001395760405162461bcd60e51b815260206004820152602d60248201527f546f6b656e466163746f72793a204f6e6c79206f776e65722063616e2063616c60448201526c1b081d1a1a5cc81b595d1a1bd9609a1b60648201526084015b60405180910390fd5b600054604080516001600160a01b03928316815291831660208301527fb532073b38c83145e3e5135377a08bf9aab55bc0fd7c1179cd4fb995d2a5159c910160405180910390a1600080546001600160a01b0319166001600160a01b0392909216919091179055565b6000620001ae62000385565b6001600160a01b038681166000908152600160205260409020541615620002555760405162461bcd60e51b815260206004820152604e60248201527f546f6b656e466163746f72793a20467574757265205661756c7420686173206160448201527f6c7265616479206265656e206465706c6f79656420666f72207468697320756e60648201526d3232b9363cb4b733903a37b5b2b760911b608482015260a40162000130565b60006040516200026590620003bd565b604051809103906000f08015801562000282573d6000803e3d6000fd5b50905060008a8a8a8a8a338a8a604051602401620002a8989796959493929190620005df565b60408051601f198184030181529181526020820180516001600160e01b0316636d6e790960e01b17905251909150829087908390620002e790620003cb565b620002f5939291906200064c565b604051809103906000f08015801562000312573d6000803e3d6000fd5b506001600160a01b0389811660009081526001602090815260409182902080546001600160a01b031916938516938417905590519182529194507f955352ae258d8499beecbc5a28c590464cc879635340df7a7985e21d6855426e910160405180910390a1505098975050505050505050565b306001600160a01b037f00000000000000000000000000000000000000000000000000000000000000001614620003bb57600080fd5b565b615376806200068483390190565b610dd080620059fa83390190565b80356001600160a01b0381168114620003f157600080fd5b919050565b6000602082840312156200040957600080fd5b6200041482620003d9565b9392505050565b634e487b7160e01b600052604160045260246000fd5b600082601f8301126200044357600080fd5b813567ffffffffffffffff808211156200046157620004616200041b565b604051601f8301601f19908116603f011681019082821181831017156200048c576200048c6200041b565b81604052838152866020858801011115620004a657600080fd5b836020870160208301376000602085830101528094505050505092915050565b600080600080600080600080610100898b031215620004e457600080fd5b883567ffffffffffffffff80821115620004fd57600080fd5b6200050b8c838d0162000431565b995060208b01359150808211156200052257600080fd5b50620005318b828c0162000431565b9750506200054260408a01620003d9565b95506200055260608a01620003d9565b9450608089013593506200056960a08a01620003d9565b925060c089013591506200058060e08a01620003d9565b90509295985092959890939650565b6000815180845260005b81811015620005b75760208185018101518683018201520162000599565b81811115620005ca576000602083870101525b50601f01601f19169290920160200192915050565b6000610100808352620005f58184018c6200058f565b905082810360208401526200060b818b6200058f565b6001600160a01b03998a16604085015297891660608401525050608081019490945291851660a084015260c083015290921660e09092019190915292915050565b6001600160a01b038481168252831660208201526060604082018190526000906200067a908301846200058f565b9594505050505056fe608060405234801561001057600080fd5b50615356806100206000396000f3fe608060405234801561001057600080fd5b506004361061030c5760003560e01c8063734d82871161019d578063bf2d75fb116100e9578063d3fa4866116100a2578063dd62ed3e1161007c578063dd62ed3e14610683578063ef8b30f714610696578063f7b188a5146106a9578063f90d63db146106b157600080fd5b8063d3fa48661461064a578063d505accf1461065d578063d905777e1461067057600080fd5b8063bf2d75fb146105f4578063c544057014610606578063c63d75b61461061a578063c6e6f59214610392578063ce96cb771461062f578063d294f0931461064257600080fd5b8063a457c2d711610156578063b460af9411610130578063b460af94146105b1578063b8ca3b83146105c4578063ba087652146105ce578063bafc0f14146105e157600080fd5b8063a457c2d714610578578063a9059cbb1461058b578063b3d7f6b91461059e57600080fd5b8063734d8287146105255780637ecebe001461052f5780638456cb591461054257806394bf804d1461054a57806395d89b411461055d578063a42dce801461056557600080fd5b80633644e5151161025c57806352507571116102155780636d6e7909116101ef5780636d6e7909146104c25780636e553f65146104d55780636f307dc3146104e857806370a08231146104fc57600080fd5b8063525075711461047e5780635c975abb14610493578063686620e31461049e57600080fd5b80633644e5151461040e57806338d52e0f14610416578063395093511461043b578063402d267d1461044e5780634530a2d7146104615780634cdad5061461046b57600080fd5b80631dc7f521116102c957806323e109cb116102a357806323e109cb146103cb57806325a8d87d146103415780632c660fbc146103de578063313ce567146103ff57600080fd5b80631dc7f521146103925780631dfc8414146103a557806323b872dd146103b857600080fd5b806301e1d1141461031157806306fdde031461032c57806307a2d13a14610341578063095ea7b3146103545780630a28a4771461037757806318160ddd1461038a575b600080fd5b6103196106c4565b6040519081526020015b60405180910390f35b610334610736565b6040516103239190613452565b61031961034f366004613465565b6107c8565b610367610362366004613493565b6107d9565b6040519015158152602001610323565b610319610385366004613465565b6107f1565b603554610319565b6103196103a0366004613465565b6108d8565b6103196103b33660046134cd565b6108e3565b6103676103c6366004613506565b610a52565b6103196103d9366004613547565b610a76565b6103196103ec366004613569565b6101356020526000908152604090205481565b60405160128152602001610323565b610319610a92565b6065546001600160a01b03165b6040516001600160a01b039091168152602001610323565b610367610449366004613493565b610a9c565b61031961045c366004613569565b610abe565b6103196101315481565b610319610479366004613465565b610adc565b61049161048c366004613506565b610b13565b005b60fe5460ff16610367565b6103676104ac366004613569565b6101366020526000908152604090205460ff1681565b6104916104d0366004613629565b610df1565b6103196104e33660046136ed565b61104c565b61013254610423906001600160a01b031681565b61031961050a366004613569565b6001600160a01b031660009081526033602052604090205490565b61031961013a5481565b61031961053d366004613569565b61114c565b61049161116a565b6103196105583660046136ed565b61119f565b6103346111b9565b610491610573366004613569565b6111c8565b610367610586366004613493565b611216565b610367610599366004613493565b611291565b6103196105ac366004613465565b61129f565b6103196105bf366004613712565b6112ac565b6103196101375481565b6103196105dc366004613712565b61150b565b6103196105ef3660046136ed565b611599565b61013c546001600160a01b0316610423565b61013054610423906001600160a01b031681565b610319610628366004613569565b5060001990565b61031961063d366004613569565b611618565b61031961175e565b610319610658366004613547565b6118cb565b61049161066b366004613763565b6118dc565b61031961067e366004613569565b611a40565b6103196106913660046137d4565b611a72565b6103196106a4366004613465565b611a9d565b610491611aa8565b6103196106bf366004613569565b611adb565b6065546040516370a0823160e01b81523060048201526000916001600160a01b0316906370a0823190602401602060405180830381865afa15801561070d573d6000803e3d6000fd5b505050506040513d601f19601f820116820180604052508101906107319190613802565b905090565b6060603680546107459061381b565b80601f01602080910402602001604051908101604052809291908181526020018280546107719061381b565b80156107be5780601f10610793576101008083540402835291602001916107be565b820191906000526020600020905b8154815290600101906020018083116107a157829003601f168201915b5050505050905090565b60006107d382611e3d565b92915050565b6000336107e7818585611eac565b5060019392505050565b6065546040516363737ac960e11b81526004810183905260009182916001600160a01b039091169063c6e6f59290602401602060405180830381865afa15801561083f573d6000803e3d6000fd5b505050506040513d601f19601f820116820180604052508101906108639190613802565b6065546040516303d1689d60e11b8152600481018390529192506001600160a01b0316906307a2d13a90602401602060405180830381865afa1580156108ad573d6000803e3d6000fd5b505050506040513d601f19601f820116820180604052508101906108d19190613802565b9392505050565b60006107d382611fd0565b6000806108ef84611adb565b6001600160a01b0385166000908152610136602052604090205490915060ff1615801561091b57508015155b15610a48576001600160a01b0384166000908152610135602052604081208190556101375460649061094d9084613865565b610957919061389a565b905061096281612002565b61096c81836138bc565b9150846001600160a01b03167f756e93dd7a18a6d27429a3d68659332413f14c4494d1dc68a987dfaba5c1ca8b6109a2846108d8565b60405190815260200160405180910390a2836109c0575090506107d3565b606554604051632d182be560e21b8152600481018490526001600160a01b0387811660248301523060448301529091169063b460af94906064016020604051808303816000875af1158015610a19573d6000803e3d6000fd5b505050506040513d601f19601f82011682018060405250810190610a3d9190613802565b5081925050506107d3565b60009150506107d3565b600033610a6085828561202b565b610a6b85858561209f565b506001949350505050565b6000816101335484610a889190613865565b6108d1919061389a565b600061073161224a565b6000336107e7818585610aaf8383611a72565b610ab991906138d3565b611eac565b6000610ac86122c5565b610ad35760006107d3565b60001992915050565b600061013154421015610b0a5760405162461bcd60e51b8152600401610b01906138eb565b60405180910390fd5b6107d382611e3d565b610b1e8360016108e3565b50610b2a8260016108e3565b50610130546001600160a01b03163314610b915760405162461bcd60e51b815260206004820152602260248201527f4675747572655661756c743a2043616c6c65722073686f756c64206265206120604482015261165560f21b6064820152608401610b01565b610130546040516370a0823160e01b81526001600160a01b03858116600483015260009216906370a0823190602401602060405180830381865afa158015610bdd573d6000803e3d6000fd5b505050506040513d601f19601f82011682018060405250810190610c019190613802565b6001600160a01b0385166000908152610136602052604090205490915060ff1615610d15576001600160a01b038416600090815261013560205260408120548290610c4c9085613865565b610c56919061389a565b6001600160a01b038086166000908152610135602052604080822054928916825281208054939450919284929190610c8f9084906138bc565b90915550506001600160a01b0385166000908152610136602052604090205460ff1615610cdf57610cc082826138d3565b6001600160a01b03861660009081526101356020526040902055610d12565b6001600160a01b0385166000908152610135602090815260408083208590556101369091529020805460ff191660011790555b50505b610130546040516370a0823160e01b81526001600160a01b038681166004830152849216906370a0823190602401602060405180830381865afa158015610d60573d6000803e3d6000fd5b505050506040513d601f19601f82011682018060405250810190610d849190613802565b1015610deb5760405162461bcd60e51b815260206004820152603060248201527f4675747572655661756c743a2043616e6e6f74207472616e73666572206d6f7260448201526f19481d1a185b8819195c1bdcda5d195960821b6064820152608401610b01565b50505050565b600054610100900460ff1615808015610e115750600054600160ff909116105b80610e2b5750303b158015610e2b575060005460ff166001145b610e8e5760405162461bcd60e51b815260206004820152602e60248201527f496e697469616c697a61626c653a20636f6e747261637420697320616c72656160448201526d191e481a5b9a5d1a585b1a5e995960921b6064820152608401610b01565b6000805460ff191660011790558015610eb1576000805461ff0019166101001790555b610ebb89896122df565b610ec487612314565b610ecd89612347565b610ed5612391565b8461013181905550866001600160a01b031663313ce5676040518163ffffffff1660e01b8152600401602060405180830381865afa158015610f1b573d6000803e3d6000fd5b505050506040513d601f19601f82011682018060405250810190610f3f919061392c565b610f4a90600a613a2d565b6101335561013b80546001600160a01b038087166001600160a01b031992831617909255610132805492891692909116919091179055604080518082018252600b81526a2cb4b2b632102a37b5b2b760a91b60208083019190915282518084019093526002835261165560f21b90830152610fc4916123c0565b61013080546001600160a01b03199081166001600160a01b039384161790915561013785905561013880549091169184169190911790558015611041576000805461ff0019169055604051600181527f7f26b83ff96e1f2b6a682f133852f6798a09c465da95921460cefb38474024989060200160405180910390a15b505050505050505050565b6000610131544211156110a15760405162461bcd60e51b815260206004820152601a60248201527f4675747572655661756c743a205661756c7420457870697265640000000000006044820152606401610b01565b6110a961248a565b610132546110c2906001600160a01b03163330866124d0565b606554604051636e553f6560e01b8152600481018590523060248201526000916001600160a01b031690636e553f65906044016020604051808303816000875af1158015611114573d6000803e3d6000fd5b505050506040513d601f19601f820116820180604052508101906111389190613802565b9050611144818461252a565b949350505050565b6001600160a01b038116600090815260cb60205260408120546107d3565b61013b546001600160a01b031633146111955760405162461bcd60e51b8152600401610b0190613a3c565b61119d61261d565b565b6000806111ab8461129f565b90506108d133848387612677565b6060603780546107459061381b565b61013b546001600160a01b031633146111f35760405162461bcd60e51b8152600401610b0190613a3c565b61013c80546001600160a01b0319166001600160a01b0392909216919091179055565b600033816112248286611a72565b9050838110156112845760405162461bcd60e51b815260206004820152602560248201527f45524332303a2064656372656173656420616c6c6f77616e63652062656c6f77604482015264207a65726f60d81b6064820152608401610b01565b610a6b8286868403611eac565b6000336107e781858561209f565b60006107d38260016126dd565b60006112b661248a565b60006112c38360006108e3565b905060006112d361034f85611618565b905060006112e0876107c8565b90508082101561134b5760405162461bcd60e51b815260206004820152603060248201527f4675747572655661756c743a20496e70757420616d6f756e742065786365656460448201526f1cc81dda5d1a191c985dc81b1a5b5a5d60821b6064820152608401610b01565b6001600160a01b0385166000908152610136602052604081205460ff16156113cb576001600160a01b03861660009081526101356020526040902054611395906103a090846138d3565b6001600160a01b0387166000908152610135602090815260408083208390556101369091529020805460ff1916905590506113d7565b6113d4826108d8565b90505b6113e3610133546108d8565b6001600160a01b038781166000818152610134602052604090819020939093556101305492516373b0959760e01b81526004810191909152602481018490529116906373b0959790604401600060405180830381600087803b15801561144857600080fd5b505af115801561145c573d6000803e3d6000fd5b5050505061146d3388888585612799565b6065546001600160a01b031663b460af9461148886856138d3565b6040516001600160e01b031960e084901b16815260048101919091526001600160a01b038a1660248201523060448201526064016020604051808303816000875af11580156114db573d6000803e3d6000fd5b505050506040513d601f19601f820116820180604052508101906114ff9190613802565b98975050505050505050565b6000610131544210156115305760405162461bcd60e51b8152600401610b01906138eb565b61153861248a565b61154384848461282e565b9050826001600160a01b0316826001600160a01b03167fd12200efa34901b99367694174c3b0d32c99585fdf37c7c26892136ddd0836d98660405161158a91815260200190565b60405180910390a39392505050565b6000610131544211156115ee5760405162461bcd60e51b815260206004820152601a60248201527f4675747572655661756c743a205661756c7420457870697265640000000000006044820152606401610b01565b6115f661248a565b60655461160e906001600160a01b03163330866124d0565b6108d1838361252a565b610130546040516370a0823160e01b81526001600160a01b03838116600483015260009283929116906370a0823190602401602060405180830381865afa158015611667573d6000803e3d6000fd5b505050506040513d601f19601f8201168201806040525081019061168b9190613802565b905060006116ae846001600160a01b031660009081526033602052604090205490565b905060008183116116bf57826116c1565b815b905060006116ce826108d8565b6001600160a01b0387166000908152610136602052604090205490915060ff1615611749576001600160a01b03861660009081526101356020526040902054811161171a576000611742565b6001600160a01b038616600090815261013560205260409020546117429061034f90836138bc565b9450611755565b611752816107c8565b94505b50505050919050565b61013c546000906001600160a01b031633146117d05760405162461bcd60e51b815260206004820152602b60248201527f4675747572655661756c743a2043616c6c65722073686f756c6420626520464560448201526a22afa1a7a62622a1aa27a960a91b6064820152608401610b01565b61013a805460009182905561013c5490916117fc9133916001600160a01b039091169081908590612799565b60655461013c54604051632d182be560e21b8152600481018490526001600160a01b039182166024820152306044820152600092919091169063b460af94906064016020604051808303816000875af115801561185d573d6000803e3d6000fd5b505050506040513d601f19601f820116820180604052508101906118819190613802565b61013c546040518481529192506001600160a01b0316907f20ca5094f3a20c321cbe4123d0f01b276b81df0fa24cd4d83d9253956035d8639060200160405180910390a292915050565b61013354600090610a888385613865565b8342111561192c5760405162461bcd60e51b815260206004820152601d60248201527f45524332305065726d69743a206578706972656420646561646c696e650000006044820152606401610b01565b60007f6e71edae12b1b97f4d1f60370fef10105fa2faae0126114a169c64845d6126c988888861195b8c612928565b6040805160208101969096526001600160a01b0394851690860152929091166060840152608083015260a082015260c0810186905260e00160405160208183030381529060405280519060200120905060006119b682612950565b905060006119c68287878761299e565b9050896001600160a01b0316816001600160a01b031614611a295760405162461bcd60e51b815260206004820152601e60248201527f45524332305065726d69743a20696e76616c6964207369676e617475726500006044820152606401610b01565b611a348a8a8a611eac565b50505050505050505050565b600061013154421015611a545760006107d3565b6001600160a01b0382166000908152603360205260409020546107d3565b6001600160a01b03918216600090815260346020908152604080832093909416825291909152205490565b60006107d3826108d8565b61013b546001600160a01b03163314611ad35760405162461bcd60e51b8152600401610b0190613a3c565b61119d6129c6565b6001600160a01b03811660009081526101346020526040812054610133548290611b04906108d8565b905081600003611b33576001600160a01b03909316600090815261013460205260408120939093555090919050565b610130546040516370a0823160e01b81526001600160a01b038681166004830152600092611bae929116906370a0823190602401602060405180830381865afa158015611b84573d6000803e3d6000fd5b505050506040513d601f19601f82011682018060405250810190611ba89190613802565b84610a76565b6001600160a01b03861660009081526101356020526040812054919250908190819086861015611cdd5761013354611be687896138bc565b611bf09087613865565b611bfa919061389a565b93506000611c088588610a76565b6001600160a01b038b166000908152610136602052604090205490915060ff1615611c5e57611c3781836138d3565b6001600160a01b038b16600090815261013560205260409020819055935060019250611cd7565b808210611c9257611c6f81836138bc565b6001600160a01b038b166000908152610135602052604090208190559350611cd7565b611c9c82826138bc565b6001600160a01b038b166000908152610135602090815260408083208490556101369091529020805460ff1916600190811790915590945092505b50611dd5565b61013354611ceb88886138bc565b611cf59087613865565b611cff919061389a565b93506000611d0d8588610a76565b6001600160a01b038b166000908152610136602052604090205490915060ff1615611daa57818110611d7957611d4382826138bc565b6001600160a01b038b166000908152610135602090815260408083208490556101369091529020805460ff191690559350611dd3565b611d8381836138bc565b6001600160a01b038b16600090815261013560205260409020819055935060019250611dd3565b611db481836138d3565b6001600160a01b038b1660009081526101356020526040902081905593505b505b6001600160a01b0389166000818152610134602052604090819020889055518491907f71d4a7a61721890dfe2ee7035d69e00842c8569e16a0128ac48e9596464dd75990611e2890861515815260200190565b60405180910390a35090979650505050505050565b6065546040516363737ac960e11b8152600481018390526000916001600160a01b03169063c6e6f592906024015b602060405180830381865afa158015611e88573d6000803e3d6000fd5b505050506040513d601f19601f820116820180604052508101906107d39190613802565b6001600160a01b038316611f0e5760405162461bcd60e51b8152602060048201526024808201527f45524332303a20617070726f76652066726f6d20746865207a65726f206164646044820152637265737360e01b6064820152608401610b01565b6001600160a01b038216611f6f5760405162461bcd60e51b815260206004820152602260248201527f45524332303a20617070726f766520746f20746865207a65726f206164647265604482015261737360f01b6064820152608401610b01565b6001600160a01b0383811660008181526034602090815260408083209487168084529482529182902085905590518481527f8c5be1e5ebec7d5bd14f71427d1e84f3dd0314c0f7b2291e5b200ac8c7c3b925910160405180910390a3505050565b6065546040516303d1689d60e11b8152600481018390526000916001600160a01b0316906307a2d13a90602401611e6b565b8061013a5461201191906138d3565b61013a55610139546120249082906138d3565b6101395550565b60006120378484611a72565b90506000198114610deb57818110156120925760405162461bcd60e51b815260206004820152601d60248201527f45524332303a20696e73756666696369656e7420616c6c6f77616e63650000006044820152606401610b01565b610deb8484848403611eac565b6001600160a01b0383166121035760405162461bcd60e51b815260206004820152602560248201527f45524332303a207472616e736665722066726f6d20746865207a65726f206164604482015264647265737360d81b6064820152608401610b01565b6001600160a01b0382166121655760405162461bcd60e51b815260206004820152602360248201527f45524332303a207472616e7366657220746f20746865207a65726f206164647260448201526265737360e81b6064820152608401610b01565b6001600160a01b038316600090815260336020526040902054818110156121dd5760405162461bcd60e51b815260206004820152602660248201527f45524332303a207472616e7366657220616d6f756e7420657863656564732062604482015265616c616e636560d01b6064820152608401610b01565b6001600160a01b0380851660008181526033602052604080822086860390559286168082529083902080548601905591517fddf252ad1be2c89b69c2b068fc378daa952ba7f163c4a11628f55a4df523b3ef9061223d9086815260200190565b60405180910390a3610deb565b60006107317f8b73c3c69bb8fe3d512ecc4cf759cc79239f7b179b0ffacaa9a75d522b39400f61227960975490565b6098546040805160208101859052908101839052606081018290524660808201523060a082015260009060c0016040516020818303038152906040528051906020012090509392505050565b6000806122d06106c4565b11806107315750506035541590565b600054610100900460ff166123065760405162461bcd60e51b8152600401610b0190613a7f565b6123108282612a04565b5050565b600054610100900460ff1661233b5760405162461bcd60e51b8152600401610b0190613a7f565b61234481612a52565b50565b600054610100900460ff1661236e5760405162461bcd60e51b8152600401610b0190613a7f565b61234481604051806040016040528060018152602001603160f81b815250612a9b565b600054610100900460ff166123b85760405162461bcd60e51b8152600401610b0190613a7f565b61119d612adc565b60006040516123ce90613354565b604051809103906000f0801580156123ea573d6000803e3d6000fd5b506040516303bf912560e11b81529091506001600160a01b0382169063077f224a9061241e90869086903090600401613aca565b600060405180830381600087803b15801561243857600080fd5b505af115801561244c573d6000803e3d6000fd5b50506040516001600160a01b03841692507f10aa3cadb8a18de745ab06d0fba238e60656c418d78284b27ab6ea75b7b789e49150600090a292915050565b60fe5460ff161561119d5760405162461bcd60e51b815260206004820152601060248201526f14185d5cd8589b194e881c185d5cd95960821b6044820152606401610b01565b604080516001600160a01b0385811660248301528416604482015260648082018490528251808303909101815260849091019091526020810180516001600160e01b03166323b872dd60e01b179052610deb908590612b0f565b600061253582610abe565b83111561258f5760405162461bcd60e51b815260206004820152602260248201527f4675747572655661756c743a206465706f736974206d6f7265207468616e206d6044820152610c2f60f31b6064820152608401610b01565b61259882611adb565b506125a283611a9d565b90506125b033838584612677565b610130546040516340c10f1960e01b81526001600160a01b03848116600483015260248201849052909116906340c10f1990604401600060405180830381600087803b1580156125ff57600080fd5b505af1158015612613573d6000803e3d6000fd5b5050505092915050565b61262561248a565b60fe805460ff191660011790557f62e78cea01bee320cd4e420270b5ea74000d11b0c9f74754ebdbfc544b05a25861265a3390565b6040516001600160a01b03909116815260200160405180910390a1565b6126818382612be1565b826001600160a01b0316846001600160a01b03167fdcbc1c05240f31ff3ad067ef1ee35ce4997762752e3a095284754544f4c709d784846040516126cf929190918252602082015260400190565b60405180910390a350505050565b6000806126e960355490565b9050801561270a576127056126fc6106c4565b85908386612ca2565b611144565b6065546040805163313ce56760e01b81529051611144926001600160a01b03169163313ce5679160048083019260209291908290030181865afa158015612755573d6000803e3d6000fd5b505050506040513d601f19601f82011682018060405250810190612779919061392c565b61278490600a613a2d565b6127906012600a613a2d565b86919086612ca2565b826001600160a01b0316856001600160a01b0316146127bd576127bd83868361202b565b6127c78382612cfd565b826001600160a01b0316846001600160a01b0316866001600160a01b03167ffbde797d201c681b91056529119e0b02407c7bb96a4a2c75c01fc9667232c8db858560405161281f929190918252602082015260400190565b60405180910390a45050505050565b600061283982611a40565b8411156128885760405162461bcd60e51b815260206004820152601d60248201527f455243343632363a2072656465656d206d6f7265207468616e206d61780000006044820152606401610b01565b600061289385610adc565b90506128a23385858489612799565b606554604051632d182be560e21b8152600481018390526001600160a01b0386811660248301523060448301529091169063b460af94906064016020604051808303816000875af11580156128fb573d6000803e3d6000fd5b505050506040513d601f19601f8201168201806040525081019061291f9190613802565b95945050505050565b6001600160a01b038116600090815260cb602052604090208054600181018255905b50919050565b60006107d361295d61224a565b8360405161190160f01b6020820152602281018390526042810182905260009060620160405160208183030381529060405280519060200120905092915050565b60008060006129af87878787612e31565b915091506129bc81612f1e565b5095945050505050565b6129ce6130d4565b60fe805460ff191690557f5db9ee0a495bf2e6ff9c91a7834c1ba4fdd244a5e8aa4e537bd38aeae4b073aa3361265a565b505050565b600054610100900460ff16612a2b5760405162461bcd60e51b8152600401610b0190613a7f565b8151612a3e906036906020850190613361565b5080516129ff906037906020840190613361565b600054610100900460ff16612a795760405162461bcd60e51b8152600401610b0190613a7f565b606580546001600160a01b0319166001600160a01b0392909216919091179055565b600054610100900460ff16612ac25760405162461bcd60e51b8152600401610b0190613a7f565b815160209283012081519190920120609791909155609855565b600054610100900460ff16612b035760405162461bcd60e51b8152600401610b0190613a7f565b60fe805460ff19169055565b6000612b64826040518060400160405280602081526020017f5361666545524332303a206c6f772d6c6576656c2063616c6c206661696c6564815250856001600160a01b031661311d9092919063ffffffff16565b8051909150156129ff5780806020019051810190612b829190613b08565b6129ff5760405162461bcd60e51b815260206004820152602a60248201527f5361666545524332303a204552433230206f7065726174696f6e20646964206e6044820152691bdd081cdd58d8d9595960b21b6064820152608401610b01565b6001600160a01b038216612c375760405162461bcd60e51b815260206004820152601f60248201527f45524332303a206d696e7420746f20746865207a65726f2061646472657373006044820152606401610b01565b8060356000828254612c4991906138d3565b90915550506001600160a01b0382166000818152603360209081526040808320805486019055518481527fddf252ad1be2c89b69c2b068fc378daa952ba7f163c4a11628f55a4df523b3ef910160405180910390a35050565b600080612cb086868661312c565b90506001836002811115612cc657612cc6613b25565b148015612ce3575060008480612cde57612cde613884565b868809115b1561291f57612cf36001826138d3565b9695505050505050565b6001600160a01b038216612d5d5760405162461bcd60e51b815260206004820152602160248201527f45524332303a206275726e2066726f6d20746865207a65726f206164647265736044820152607360f81b6064820152608401610b01565b6001600160a01b03821660009081526033602052604090205481811015612dd15760405162461bcd60e51b815260206004820152602260248201527f45524332303a206275726e20616d6f756e7420657863656564732062616c616e604482015261636560f01b6064820152608401610b01565b6001600160a01b03831660008181526033602090815260408083208686039055603580548790039055518581529192917fddf252ad1be2c89b69c2b068fc378daa952ba7f163c4a11628f55a4df523b3ef910160405180910390a3505050565b6000807f7fffffffffffffffffffffffffffffff5d576e7357a4501ddfe92f46681b20a0831115612e685750600090506003612f15565b8460ff16601b14158015612e8057508460ff16601c14155b15612e915750600090506004612f15565b6040805160008082526020820180845289905260ff881692820192909252606081018690526080810185905260019060a0016020604051602081039080840390855afa158015612ee5573d6000803e3d6000fd5b5050604051601f1901519150506001600160a01b038116612f0e57600060019250925050612f15565b9150600090505b94509492505050565b6000816004811115612f3257612f32613b25565b03612f3a5750565b6001816004811115612f4e57612f4e613b25565b03612f9b5760405162461bcd60e51b815260206004820152601860248201527f45434453413a20696e76616c6964207369676e617475726500000000000000006044820152606401610b01565b6002816004811115612faf57612faf613b25565b03612ffc5760405162461bcd60e51b815260206004820152601f60248201527f45434453413a20696e76616c6964207369676e6174757265206c656e677468006044820152606401610b01565b600381600481111561301057613010613b25565b036130685760405162461bcd60e51b815260206004820152602260248201527f45434453413a20696e76616c6964207369676e6174757265202773272076616c604482015261756560f01b6064820152608401610b01565b600481600481111561307c5761307c613b25565b036123445760405162461bcd60e51b815260206004820152602260248201527f45434453413a20696e76616c6964207369676e6174757265202776272076616c604482015261756560f01b6064820152608401610b01565b60fe5460ff1661119d5760405162461bcd60e51b815260206004820152601460248201527314185d5cd8589b194e881b9bdd081c185d5cd95960621b6044820152606401610b01565b606061114484846000856131db565b60008080600019858709858702925082811083820303915050806000036131665783828161315c5761315c613884565b04925050506108d1565b80841161317257600080fd5b60008486880960026001871981018816978890046003810283188082028403028082028403028082028403028082028403028082028403029081029092039091026000889003889004909101858311909403939093029303949094049190911702949350505050565b60608247101561323c5760405162461bcd60e51b815260206004820152602660248201527f416464726573733a20696e73756666696369656e742062616c616e636520666f6044820152651c8818d85b1b60d21b6064820152608401610b01565b600080866001600160a01b031685876040516132589190613b3b565b60006040518083038185875af1925050503d8060008114613295576040519150601f19603f3d011682016040523d82523d6000602084013e61329a565b606091505b50915091506132ab878383876132b6565b979650505050505050565b6060831561332557825160000361331e576001600160a01b0385163b61331e5760405162461bcd60e51b815260206004820152601d60248201527f416464726573733a2063616c6c20746f206e6f6e2d636f6e74726163740000006044820152606401610b01565b5081611144565b611144838381511561333a5781518083602001fd5b8060405162461bcd60e51b8152600401610b019190613452565b6117c980613b5883390190565b82805461336d9061381b565b90600052602060002090601f01602090048101928261338f57600085556133d5565b82601f106133a857805160ff19168380011785556133d5565b828001600101855582156133d5579182015b828111156133d55782518255916020019190600101906133ba565b506133e19291506133e5565b5090565b5b808211156133e157600081556001016133e6565b60005b838110156134155781810151838201526020016133fd565b83811115610deb5750506000910152565b6000815180845261343e8160208601602086016133fa565b601f01601f19169290920160200192915050565b6020815260006108d16020830184613426565b60006020828403121561347757600080fd5b5035919050565b6001600160a01b038116811461234457600080fd5b600080604083850312156134a657600080fd5b82356134b18161347e565b946020939093013593505050565b801515811461234457600080fd5b600080604083850312156134e057600080fd5b82356134eb8161347e565b915060208301356134fb816134bf565b809150509250929050565b60008060006060848603121561351b57600080fd5b83356135268161347e565b925060208401356135368161347e565b929592945050506040919091013590565b6000806040838503121561355a57600080fd5b50508035926020909101359150565b60006020828403121561357b57600080fd5b81356108d18161347e565b634e487b7160e01b600052604160045260246000fd5b600082601f8301126135ad57600080fd5b813567ffffffffffffffff808211156135c8576135c8613586565b604051601f8301601f19908116603f011681019082821181831017156135f0576135f0613586565b8160405283815286602085880101111561360957600080fd5b836020870160208301376000602085830101528094505050505092915050565b600080600080600080600080610100898b03121561364657600080fd5b883567ffffffffffffffff8082111561365e57600080fd5b61366a8c838d0161359c565b995060208b013591508082111561368057600080fd5b5061368d8b828c0161359c565b975050604089013561369e8161347e565b955060608901356136ae8161347e565b94506080890135935060a08901356136c58161347e565b925060c0890135915060e08901356136dc8161347e565b809150509295985092959890939650565b6000806040838503121561370057600080fd5b8235915060208301356134fb8161347e565b60008060006060848603121561372757600080fd5b8335925060208401356137398161347e565b915060408401356137498161347e565b809150509250925092565b60ff8116811461234457600080fd5b600080600080600080600060e0888a03121561377e57600080fd5b87356137898161347e565b965060208801356137998161347e565b9550604088013594506060880135935060808801356137b781613754565b9699959850939692959460a0840135945060c09093013592915050565b600080604083850312156137e757600080fd5b82356137f28161347e565b915060208301356134fb8161347e565b60006020828403121561381457600080fd5b5051919050565b600181811c9082168061382f57607f821691505b60208210810361294a57634e487b7160e01b600052602260045260246000fd5b634e487b7160e01b600052601160045260246000fd5b600081600019048311821515161561387f5761387f61384f565b500290565b634e487b7160e01b600052601260045260246000fd5b6000826138b757634e487b7160e01b600052601260045260246000fd5b500490565b6000828210156138ce576138ce61384f565b500390565b600082198211156138e6576138e661384f565b500190565b60208082526021908201527f4675747572655661756c743a2043616c6c6564204265666f72652045787069726040820152607960f81b606082015260800190565b60006020828403121561393e57600080fd5b81516108d181613754565b600181815b8085111561398457816000190482111561396a5761396a61384f565b8085161561397757918102915b93841c939080029061394e565b509250929050565b60008261399b575060016107d3565b816139a8575060006107d3565b81600181146139be57600281146139c8576139e4565b60019150506107d3565b60ff8411156139d9576139d961384f565b50506001821b6107d3565b5060208310610133831016604e8410600b8410161715613a07575081810a6107d3565b613a118383613949565b8060001904821115613a2557613a2561384f565b029392505050565b60006108d160ff84168361398c565b60208082526023908201527f4675747572655661756c743a2043616c6c65722073686f756c6420626520414460408201526226a4a760e91b606082015260800190565b6020808252602b908201527f496e697469616c697a61626c653a20636f6e7472616374206973206e6f74206960408201526a6e697469616c697a696e6760a81b606082015260800190565b606081526000613add6060830186613426565b8281036020840152613aef8186613426565b91505060018060a01b0383166040830152949350505050565b600060208284031215613b1a57600080fd5b81516108d1816134bf565b634e487b7160e01b600052602160045260246000fd5b60008251613b4d8184602087016133fa565b919091019291505056fe608060405234801561001057600080fd5b506117a9806100206000396000f3fe608060405234801561001057600080fd5b50600436106101165760003560e01c806342966c68116100a257806395d89b411161007157806395d89b4114610235578063a457c2d71461023d578063a9059cbb14610250578063d505accf14610263578063dd62ed3e1461027657600080fd5b806342966c68146101d357806370a08231146101e657806373b095971461020f5780637ecebe001461022257600080fd5b806323b872dd116100e957806323b872dd14610183578063313ce567146101965780633644e515146101a557806339509351146101ad57806340c10f19146101c057600080fd5b806306fdde031461011b578063077f224a14610139578063095ea7b31461014e57806318160ddd14610171575b600080fd5b610123610289565b6040516101309190611392565b60405180910390f35b61014c6101473660046114a6565b61031b565b005b61016161015c36600461151a565b61045a565b6040519015158152602001610130565b6035545b604051908152602001610130565b610161610191366004611544565b610472565b60405160128152602001610130565b6101756104f4565b6101616101bb36600461151a565b610503565b61014c6101ce36600461151a565b610525565b61014c6101e1366004611580565b61055d565b6101756101f4366004611599565b6001600160a01b031660009081526033602052604090205490565b61014c61021d36600461151a565b6105e0565b610175610230366004611599565b610614565b610123610634565b61016161024b36600461151a565b610643565b61016161025e36600461151a565b6106c9565b61014c6102713660046115b4565b610747565b610175610284366004611627565b6108ab565b6060603680546102989061165a565b80601f01602080910402602001604051908101604052809291908181526020018280546102c49061165a565b80156103115780601f106102e657610100808354040283529160200191610311565b820191906000526020600020905b8154815290600101906020018083116102f457829003601f168201915b5050505050905090565b600054610100900460ff161580801561033b5750600054600160ff909116105b806103555750303b158015610355575060005460ff166001145b6103bd5760405162461bcd60e51b815260206004820152602e60248201527f496e697469616c697a61626c653a20636f6e747261637420697320616c72656160448201526d191e481a5b9a5d1a585b1a5e995960921b60648201526084015b60405180910390fd5b6000805460ff1916600117905580156103e0576000805461ff0019166101001790555b6103ea84846108d6565b6103f384610907565b60cc80546001600160a01b0319166001600160a01b0384161790558015610454576000805461ff0019169055604051600181527f7f26b83ff96e1f2b6a682f133852f6798a09c465da95921460cefb38474024989060200160405180910390a15b50505050565b600033610468818585610951565b5060019392505050565b60cc54604051635250757160e01b81526001600160a01b0385811660048301528481166024830152604482018490526000921690635250757190606401600060405180830381600087803b1580156104c957600080fd5b505af11580156104dd573d6000803e3d6000fd5b505050506104ec848484610a76565b949350505050565b60006104fe610a8f565b905090565b60003361046881858561051683836108ab565b610520919061168e565b610951565b60cc546001600160a01b0316331461054f5760405162461bcd60e51b81526004016103b4906116b4565b6105598282610b0a565b5050565b60cc5460405163077f210560e21b8152336004820152600160248201526001600160a01b0390911690631dfc8414906044016020604051808303816000875af11580156105ae573d6000803e3d6000fd5b505050506040513d601f19601f820116820180604052508101906105d291906116f9565b506105dd3382610bcb565b50565b60cc546001600160a01b0316331461060a5760405162461bcd60e51b81526004016103b4906116b4565b6105598282610bcb565b6001600160a01b0381166000908152609960205260408120545b92915050565b6060603780546102989061165a565b6000338161065182866108ab565b9050838110156106b15760405162461bcd60e51b815260206004820152602560248201527f45524332303a2064656372656173656420616c6c6f77616e63652062656c6f77604482015264207a65726f60d81b60648201526084016103b4565b6106be8286868403610951565b506001949350505050565b60cc54604051635250757160e01b81523360048201526001600160a01b038481166024830152604482018490526000921690635250757190606401600060405180830381600087803b15801561071e57600080fd5b505af1158015610732573d6000803e3d6000fd5b505050506107408383610cfc565b9392505050565b834211156107975760405162461bcd60e51b815260206004820152601d60248201527f45524332305065726d69743a206578706972656420646561646c696e6500000060448201526064016103b4565b60007f6e71edae12b1b97f4d1f60370fef10105fa2faae0126114a169c64845d6126c98888886107c68c610d0a565b6040805160208101969096526001600160a01b0394851690860152929091166060840152608083015260a082015260c0810186905260e001604051602081830303815290604052805190602001209050600061082182610d32565b9050600061083182878787610d80565b9050896001600160a01b0316816001600160a01b0316146108945760405162461bcd60e51b815260206004820152601e60248201527f45524332305065726d69743a20696e76616c6964207369676e6174757265000060448201526064016103b4565b61089f8a8a8a610951565b50505050505050505050565b6001600160a01b03918216600090815260346020908152604080832093909416825291909152205490565b600054610100900460ff166108fd5760405162461bcd60e51b81526004016103b490611712565b6105598282610da8565b600054610100900460ff1661092e5760405162461bcd60e51b81526004016103b490611712565b6105dd81604051806040016040528060018152602001603160f81b815250610df6565b6001600160a01b0383166109b35760405162461bcd60e51b8152602060048201526024808201527f45524332303a20617070726f76652066726f6d20746865207a65726f206164646044820152637265737360e01b60648201526084016103b4565b6001600160a01b038216610a145760405162461bcd60e51b815260206004820152602260248201527f45524332303a20617070726f766520746f20746865207a65726f206164647265604482015261737360f01b60648201526084016103b4565b6001600160a01b0383811660008181526034602090815260408083209487168084529482529182902085905590518481527f8c5be1e5ebec7d5bd14f71427d1e84f3dd0314c0f7b2291e5b200ac8c7c3b92591015b60405180910390a3505050565b600033610a84858285610e37565b6106be858585610eab565b60006104fe7f8b73c3c69bb8fe3d512ecc4cf759cc79239f7b179b0ffacaa9a75d522b39400f610abe60655490565b6066546040805160208101859052908101839052606081018290524660808201523060a082015260009060c0016040516020818303038152906040528051906020012090509392505050565b6001600160a01b038216610b605760405162461bcd60e51b815260206004820152601f60248201527f45524332303a206d696e7420746f20746865207a65726f20616464726573730060448201526064016103b4565b8060356000828254610b72919061168e565b90915550506001600160a01b0382166000818152603360209081526040808320805486019055518481527fddf252ad1be2c89b69c2b068fc378daa952ba7f163c4a11628f55a4df523b3ef910160405180910390a35050565b6001600160a01b038216610c2b5760405162461bcd60e51b815260206004820152602160248201527f45524332303a206275726e2066726f6d20746865207a65726f206164647265736044820152607360f81b60648201526084016103b4565b6001600160a01b03821660009081526033602052604090205481811015610c9f5760405162461bcd60e51b815260206004820152602260248201527f45524332303a206275726e20616d6f756e7420657863656564732062616c616e604482015261636560f01b60648201526084016103b4565b6001600160a01b03831660008181526033602090815260408083208686039055603580548790039055518581529192917fddf252ad1be2c89b69c2b068fc378daa952ba7f163c4a11628f55a4df523b3ef9101610a69565b505050565b600033610468818585610eab565b6001600160a01b03811660009081526099602052604090208054600181018255905b50919050565b600061062e610d3f610a8f565b8360405161190160f01b6020820152602281018390526042810182905260009060620160405160208183030381529060405280519060200120905092915050565b6000806000610d9187878787611056565b91509150610d9e81611143565b5095945050505050565b600054610100900460ff16610dcf5760405162461bcd60e51b81526004016103b490611712565b8151610de29060369060208501906112f9565b508051610cf79060379060208401906112f9565b600054610100900460ff16610e1d5760405162461bcd60e51b81526004016103b490611712565b815160209283012081519190920120606591909155606655565b6000610e4384846108ab565b905060001981146104545781811015610e9e5760405162461bcd60e51b815260206004820152601d60248201527f45524332303a20696e73756666696369656e7420616c6c6f77616e636500000060448201526064016103b4565b6104548484848403610951565b6001600160a01b038316610f0f5760405162461bcd60e51b815260206004820152602560248201527f45524332303a207472616e736665722066726f6d20746865207a65726f206164604482015264647265737360d81b60648201526084016103b4565b6001600160a01b038216610f715760405162461bcd60e51b815260206004820152602360248201527f45524332303a207472616e7366657220746f20746865207a65726f206164647260448201526265737360e81b60648201526084016103b4565b6001600160a01b03831660009081526033602052604090205481811015610fe95760405162461bcd60e51b815260206004820152602660248201527f45524332303a207472616e7366657220616d6f756e7420657863656564732062604482015265616c616e636560d01b60648201526084016103b4565b6001600160a01b0380851660008181526033602052604080822086860390559286168082529083902080548601905591517fddf252ad1be2c89b69c2b068fc378daa952ba7f163c4a11628f55a4df523b3ef906110499086815260200190565b60405180910390a3610454565b6000807f7fffffffffffffffffffffffffffffff5d576e7357a4501ddfe92f46681b20a083111561108d575060009050600361113a565b8460ff16601b141580156110a557508460ff16601c14155b156110b6575060009050600461113a565b6040805160008082526020820180845289905260ff881692820192909252606081018690526080810185905260019060a0016020604051602081039080840390855afa15801561110a573d6000803e3d6000fd5b5050604051601f1901519150506001600160a01b0381166111335760006001925092505061113a565b9150600090505b94509492505050565b60008160048111156111575761115761175d565b0361115f5750565b60018160048111156111735761117361175d565b036111c05760405162461bcd60e51b815260206004820152601860248201527f45434453413a20696e76616c6964207369676e6174757265000000000000000060448201526064016103b4565b60028160048111156111d4576111d461175d565b036112215760405162461bcd60e51b815260206004820152601f60248201527f45434453413a20696e76616c6964207369676e6174757265206c656e6774680060448201526064016103b4565b60038160048111156112355761123561175d565b0361128d5760405162461bcd60e51b815260206004820152602260248201527f45434453413a20696e76616c6964207369676e6174757265202773272076616c604482015261756560f01b60648201526084016103b4565b60048160048111156112a1576112a161175d565b036105dd5760405162461bcd60e51b815260206004820152602260248201527f45434453413a20696e76616c6964207369676e6174757265202776272076616c604482015261756560f01b60648201526084016103b4565b8280546113059061165a565b90600052602060002090601f016020900481019282611327576000855561136d565b82601f1061134057805160ff191683800117855561136d565b8280016001018555821561136d579182015b8281111561136d578251825591602001919060010190611352565b5061137992915061137d565b5090565b5b80821115611379576000815560010161137e565b600060208083528351808285015260005b818110156113bf578581018301518582016040015282016113a3565b818111156113d1576000604083870101525b50601f01601f1916929092016040019392505050565b634e487b7160e01b600052604160045260246000fd5b600082601f83011261140e57600080fd5b813567ffffffffffffffff80821115611429576114296113e7565b604051601f8301601f19908116603f01168101908282118183101715611451576114516113e7565b8160405283815286602085880101111561146a57600080fd5b836020870160208301376000602085830101528094505050505092915050565b80356001600160a01b03811681146114a157600080fd5b919050565b6000806000606084860312156114bb57600080fd5b833567ffffffffffffffff808211156114d357600080fd5b6114df878388016113fd565b945060208601359150808211156114f557600080fd5b50611502868287016113fd565b9250506115116040850161148a565b90509250925092565b6000806040838503121561152d57600080fd5b6115368361148a565b946020939093013593505050565b60008060006060848603121561155957600080fd5b6115628461148a565b92506115706020850161148a565b9150604084013590509250925092565b60006020828403121561159257600080fd5b5035919050565b6000602082840312156115ab57600080fd5b6107408261148a565b600080600080600080600060e0888a0312156115cf57600080fd5b6115d88861148a565b96506115e66020890161148a565b95506040880135945060608801359350608088013560ff8116811461160a57600080fd5b9699959850939692959460a0840135945060c09093013592915050565b6000806040838503121561163a57600080fd5b6116438361148a565b91506116516020840161148a565b90509250929050565b600181811c9082168061166e57607f821691505b602082108103610d2c57634e487b7160e01b600052602260045260246000fd5b600082198211156116af57634e487b7160e01b600052601160045260246000fd5b500190565b60208082526025908201527f59543a2043616c6c65722073686f756c6420626520746865204675747572652060408201526415985d5b1d60da1b606082015260800190565b60006020828403121561170b57600080fd5b5051919050565b6020808252602b908201527f496e697469616c697a61626c653a20636f6e7472616374206973206e6f74206960408201526a6e697469616c697a696e6760a81b606082015260800190565b634e487b7160e01b600052602160045260246000fdfea264697066735822122012101f261c7e1020086c4742c51d32bb65bd64076cccd65dcad6d6d4a148845364736f6c634300080d0033a26469706673582212201c5f162de5ceef013a39df6b71d3d0bcbefea53baa960ebee4cd612cfbef84c964736f6c634300080d0033608060405260405162000dd038038062000dd08339810160408190526200002691620004a6565b8282828281620000398282600062000053565b506200004790508262000090565b505050505050620005d9565b6200005e83620000eb565b6000825111806200006c5750805b156200008b576200008983836200012d60201b620002261760201c565b505b505050565b7f7e644d79422f17c01e4894b5f4f588d331ebfa28653d42ae832dc59e38c9798f620000bb6200015c565b604080516001600160a01b03928316815291841660208301520160405180910390a1620000e88162000195565b50565b620000f6816200024a565b6040516001600160a01b038216907fbc7cd75a20ee27fd9adebab32041f755214dbc6bffa90cc0225b39da2e5c2d3b90600090a250565b606062000155838360405180606001604052806027815260200162000da960279139620002fe565b9392505050565b60006200018660008051602062000d8983398151915260001b6200037d60201b620001e21760201c565b546001600160a01b0316919050565b6001600160a01b038116620002005760405162461bcd60e51b815260206004820152602660248201527f455243313936373a206e65772061646d696e20697320746865207a65726f206160448201526564647265737360d01b60648201526084015b60405180910390fd5b806200022960008051602062000d8983398151915260001b6200037d60201b620001e21760201c565b80546001600160a01b0319166001600160a01b039290921691909117905550565b62000260816200038060201b620002521760201c565b620002c45760405162461bcd60e51b815260206004820152602d60248201527f455243313936373a206e657720696d706c656d656e746174696f6e206973206e60448201526c1bdd08184818dbdb9d1c9858dd609a1b6064820152608401620001f7565b80620002297f360894a13ba1a3210667c828492db98dca3e2076cc3735a920a3ca505d382bbc60001b6200037d60201b620001e21760201c565b6060600080856001600160a01b0316856040516200031d919062000586565b600060405180830381855af49150503d80600081146200035a576040519150601f19603f3d011682016040523d82523d6000602084013e6200035f565b606091505b50909250905062000373868383876200038f565b9695505050505050565b90565b6001600160a01b03163b151590565b6060831562000403578251600003620003fb576001600160a01b0385163b620003fb5760405162461bcd60e51b815260206004820152601d60248201527f416464726573733a2063616c6c20746f206e6f6e2d636f6e74726163740000006044820152606401620001f7565b50816200040f565b6200040f838362000417565b949350505050565b815115620004285781518083602001fd5b8060405162461bcd60e51b8152600401620001f79190620005a4565b80516001600160a01b03811681146200045c57600080fd5b919050565b634e487b7160e01b600052604160045260246000fd5b60005b83811015620004945781810151838201526020016200047a565b83811115620000895750506000910152565b600080600060608486031215620004bc57600080fd5b620004c78462000444565b9250620004d76020850162000444565b60408501519092506001600160401b0380821115620004f557600080fd5b818601915086601f8301126200050a57600080fd5b8151818111156200051f576200051f62000461565b604051601f8201601f19908116603f011681019083821181831017156200054a576200054a62000461565b816040528281528960208487010111156200056457600080fd5b6200057783602083016020880162000477565b80955050505050509250925092565b600082516200059a81846020870162000477565b9190910192915050565b6020815260008251806020840152620005c581604085016020870162000477565b601f01601f19169190910160400192915050565b6107a080620005e96000396000f3fe60806040526004361061004e5760003560e01c80633659cfe6146100655780634f1ef286146100855780635c60da1b146100985780638f283970146100c9578063f851a440146100e95761005d565b3661005d5761005b6100fe565b005b61005b6100fe565b34801561007157600080fd5b5061005b61008036600461062a565b610110565b61005b610093366004610645565b61014d565b3480156100a457600080fd5b506100ad6101b4565b6040516001600160a01b03909116815260200160405180910390f35b3480156100d557600080fd5b5061005b6100e436600461062a565b6101e5565b3480156100f557600080fd5b506100ad610205565b61010e610109610261565b61026b565b565b61011861028f565b6001600160a01b0316330361014557610142816040518060200160405280600081525060006102c2565b50565b6101426100fe565b61015561028f565b6001600160a01b031633036101ac576101a78383838080601f016020809104026020016040519081016040528093929190818152602001838380828437600092019190915250600192506102c2915050565b505050565b6101a76100fe565b60006101be61028f565b6001600160a01b031633036101da576101d5610261565b905090565b6101e26100fe565b90565b6101ed61028f565b6001600160a01b0316330361014557610142816102ed565b600061020f61028f565b6001600160a01b031633036101da576101d561028f565b606061024b838360405180606001604052806027815260200161074460279139610341565b9392505050565b6001600160a01b03163b151590565b60006101d56103b9565b3660008037600080366000845af43d6000803e80801561028a573d6000f35b3d6000fd5b60007fb53127684a568b3173ae13b9f8a6016e243e63b6e8ee1178d6a717850b5d61035b546001600160a01b0316919050565b6102cb836103e1565b6000825111806102d85750805b156101a7576102e78383610226565b50505050565b7f7e644d79422f17c01e4894b5f4f588d331ebfa28653d42ae832dc59e38c9798f61031661028f565b604080516001600160a01b03928316815291841660208301520160405180910390a161014281610421565b6060600080856001600160a01b03168560405161035e91906106f4565b600060405180830381855af49150503d8060008114610399576040519150601f19603f3d011682016040523d82523d6000602084013e61039e565b606091505b50915091506103af868383876104cf565b9695505050505050565b60007f360894a13ba1a3210667c828492db98dca3e2076cc3735a920a3ca505d382bbc6102b3565b6103ea81610550565b6040516001600160a01b038216907fbc7cd75a20ee27fd9adebab32041f755214dbc6bffa90cc0225b39da2e5c2d3b90600090a250565b6001600160a01b03811661048b5760405162461bcd60e51b815260206004820152602660248201527f455243313936373a206e65772061646d696e20697320746865207a65726f206160448201526564647265737360d01b60648201526084015b60405180910390fd5b807fb53127684a568b3173ae13b9f8a6016e243e63b6e8ee1178d6a717850b5d61035b80546001600160a01b0319166001600160a01b039290921691909117905550565b6060831561053e578251600003610537576001600160a01b0385163b6105375760405162461bcd60e51b815260206004820152601d60248201527f416464726573733a2063616c6c20746f206e6f6e2d636f6e74726163740000006044820152606401610482565b5081610548565b61054883836105e4565b949350505050565b6001600160a01b0381163b6105bd5760405162461bcd60e51b815260206004820152602d60248201527f455243313936373a206e657720696d706c656d656e746174696f6e206973206e60448201526c1bdd08184818dbdb9d1c9858dd609a1b6064820152608401610482565b807f360894a13ba1a3210667c828492db98dca3e2076cc3735a920a3ca505d382bbc6104ae565b8151156105f45781518083602001fd5b8060405162461bcd60e51b81526004016104829190610710565b80356001600160a01b038116811461062557600080fd5b919050565b60006020828403121561063c57600080fd5b61024b8261060e565b60008060006040848603121561065a57600080fd5b6106638461060e565b9250602084013567ffffffffffffffff8082111561068057600080fd5b818601915086601f83011261069457600080fd5b8135818111156106a357600080fd5b8760208285010111156106b557600080fd5b6020830194508093505050509250925092565b60005b838110156106e35781810151838201526020016106cb565b838111156102e75750506000910152565b600082516107068184602087016106c8565b9190910192915050565b602081526000825180602084015261072f8160408501602087016106c8565b601f01601f1916919091016040019291505056fe416464726573733a206c6f772d6c6576656c2064656c65676174652063616c6c206661696c6564a26469706673582212200591b07716c60a9176dcc62af997912a2ea59ffd1861e4f391bc82b402b6238d64736f6c634300080d0033b53127684a568b3173ae13b9f8a6016e243e63b6e8ee1178d6a717850b5d6103416464726573733a206c6f772d6c6576656c2064656c65676174652063616c6c206661696c6564a2646970667358221220758db880c428603afc0723e57c6deeff4d6b29b7a56e7ea958b772166566135b64736f6c634300080d0033",
    "linkReferences": {}
  },
  "methodIdentifiers": {
    "deployFutureVault(string,string,address,address,uint256,address,uint256,address)": "c306a8cc",
    "setOwner(address)": "13af4035",
    "underlyingFutureVaultAddresses(address)": "9b5b467f"
  },
  "id": 40
}